{
  "_format": "hh-sol-artifact-1",
  "contractName": "ChainlinkVRF",
  "sourceName": "src/backend/contracts/ChainlinkVRF.sol",
  "abi": [
    {
      "inputs": [
        {
          "internalType": "address",
          "name": "_mainContractAddress",
          "type": "address"
        },
        {
          "internalType": "uint64",
          "name": "_subscriptionId",
          "type": "uint64"
        },
        {
          "internalType": "address",
          "name": "_coordinator",
          "type": "address"
        },
        {
          "internalType": "bytes32",
          "name": "_keyHash",
          "type": "bytes32"
        }
      ],
      "stateMutability": "nonpayable",
      "type": "constructor"
    },
    {
      "inputs": [
        {
          "internalType": "address",
          "name": "have",
          "type": "address"
        },
        {
          "internalType": "address",
          "name": "want",
          "type": "address"
        }
      ],
      "name": "OnlyCoordinatorCanFulfill",
      "type": "error"
    },
    {
      "anonymous": false,
      "inputs": [
        {
          "indexed": true,
          "internalType": "address",
          "name": "from",
          "type": "address"
        },
        {
          "indexed": true,
          "internalType": "address",
          "name": "to",
          "type": "address"
        }
      ],
      "name": "OwnershipTransferRequested",
      "type": "event"
    },
    {
      "anonymous": false,
      "inputs": [
        {
          "indexed": true,
          "internalType": "address",
          "name": "from",
          "type": "address"
        },
        {
          "indexed": true,
          "internalType": "address",
          "name": "to",
          "type": "address"
        }
      ],
      "name": "OwnershipTransferred",
      "type": "event"
    },
    {
      "anonymous": false,
      "inputs": [
        {
          "indexed": false,
          "internalType": "uint256",
          "name": "requestId",
          "type": "uint256"
        },
        {
          "indexed": false,
          "internalType": "uint256[]",
          "name": "randomWords",
          "type": "uint256[]"
        }
      ],
      "name": "RequestFulfilled",
      "type": "event"
    },
    {
      "anonymous": false,
      "inputs": [
        {
          "indexed": false,
          "internalType": "uint256",
          "name": "requestId",
          "type": "uint256"
        },
        {
          "indexed": false,
          "internalType": "uint32",
          "name": "numWords",
          "type": "uint32"
        }
      ],
      "name": "RequestSent",
      "type": "event"
    },
    {
      "inputs": [],
      "name": "acceptOwnership",
      "outputs": [],
      "stateMutability": "nonpayable",
      "type": "function"
    },
    {
      "inputs": [
        {
          "internalType": "uint256",
          "name": "",
          "type": "uint256"
        },
        {
          "internalType": "uint256",
          "name": "",
          "type": "uint256"
        }
      ],
      "name": "communityRaffles",
      "outputs": [
        {
          "internalType": "uint256",
          "name": "requestId",
          "type": "uint256"
        },
        {
          "internalType": "uint256",
          "name": "maxValue",
          "type": "uint256"
        }
      ],
      "stateMutability": "view",
      "type": "function"
    },
    {
      "inputs": [
        {
          "internalType": "uint256",
          "name": "_communityId",
          "type": "uint256"
        }
      ],
      "name": "getCommunityRaffles",
      "outputs": [
        {
          "components": [
            {
              "internalType": "uint256",
              "name": "requestId",
              "type": "uint256"
            },
            {
              "internalType": "uint256",
              "name": "maxValue",
              "type": "uint256"
            },
            {
              "internalType": "uint256[]",
              "name": "result",
              "type": "uint256[]"
            }
          ],
          "internalType": "struct ChainlinkVRF.Raffle[]",
          "name": "",
          "type": "tuple[]"
        }
      ],
      "stateMutability": "view",
      "type": "function"
    },
    {
      "inputs": [
        {
          "internalType": "uint256",
          "name": "_requestId",
          "type": "uint256"
        }
      ],
      "name": "getRequestStatus",
      "outputs": [
        {
          "internalType": "bool",
          "name": "fulfilled",
          "type": "bool"
        },
        {
          "internalType": "uint256[]",
          "name": "randomWords",
          "type": "uint256[]"
        }
      ],
      "stateMutability": "view",
      "type": "function"
    },
    {
      "inputs": [],
      "name": "lastRequestId",
      "outputs": [
        {
          "internalType": "uint256",
          "name": "",
          "type": "uint256"
        }
      ],
      "stateMutability": "view",
      "type": "function"
    },
    {
      "inputs": [],
      "name": "owner",
      "outputs": [
        {
          "internalType": "address",
          "name": "",
          "type": "address"
        }
      ],
      "stateMutability": "view",
      "type": "function"
    },
    {
      "inputs": [
        {
          "internalType": "uint256",
          "name": "requestId",
          "type": "uint256"
        },
        {
          "internalType": "uint256[]",
          "name": "randomWords",
          "type": "uint256[]"
        }
      ],
      "name": "rawFulfillRandomWords",
      "outputs": [],
      "stateMutability": "nonpayable",
      "type": "function"
    },
    {
      "inputs": [
        {
          "internalType": "uint256",
          "name": "",
          "type": "uint256"
        }
      ],
      "name": "requestIds",
      "outputs": [
        {
          "internalType": "uint256",
          "name": "",
          "type": "uint256"
        }
      ],
      "stateMutability": "view",
      "type": "function"
    },
    {
      "inputs": [
        {
          "internalType": "uint256",
          "name": "_communityId",
          "type": "uint256"
        },
        {
          "internalType": "uint256",
          "name": "_maxValue",
          "type": "uint256"
        },
        {
          "internalType": "uint32",
          "name": "_winnersAmount",
          "type": "uint32"
        }
      ],
      "name": "requestRandomWords",
      "outputs": [
        {
          "internalType": "uint256",
          "name": "",
          "type": "uint256"
        }
      ],
      "stateMutability": "nonpayable",
      "type": "function"
    },
    {
      "inputs": [
        {
          "internalType": "uint256",
          "name": "",
          "type": "uint256"
        }
      ],
      "name": "s_requests",
      "outputs": [
        {
          "internalType": "bool",
          "name": "fulfilled",
          "type": "bool"
        },
        {
          "internalType": "bool",
          "name": "exists",
          "type": "bool"
        },
        {
          "internalType": "uint256",
          "name": "communityId",
          "type": "uint256"
        },
        {
          "internalType": "uint256",
          "name": "raffleIndex",
          "type": "uint256"
        }
      ],
      "stateMutability": "view",
      "type": "function"
    },
    {
      "inputs": [
        {
          "internalType": "address",
          "name": "to",
          "type": "address"
        }
      ],
      "name": "transferOwnership",
      "outputs": [],
      "stateMutability": "nonpayable",
      "type": "function"
    }
  ],
  "bytecode": "0x60a06040526009805461ffff191660031790553480156200001f57600080fd5b5060405162001418380380620014188339810160408190526200004291620001fe565b6001600160a01b0382166080523380600081620000a65760405162461bcd60e51b815260206004820152601860248201527f43616e6e6f7420736574206f776e657220746f207a65726f000000000000000060448201526064015b60405180910390fd5b600080546001600160a01b0319166001600160a01b0384811691909117909155811615620000d957620000d98162000135565b5050600580546001600160401b03909516600160a01b026001600160e01b03199095166001600160a01b03948516179490941790935560085560028054939091166001600160a01b03199390931692909217909155506200025e565b6001600160a01b038116331415620001905760405162461bcd60e51b815260206004820152601760248201527f43616e6e6f74207472616e7366657220746f2073656c6600000000000000000060448201526064016200009d565b600180546001600160a01b0319166001600160a01b0383811691821790925560008054604051929316917fed8889f560326eb138920d842192f0eb3dd22b4f139c87a2c57538e05bae12789190a350565b80516001600160a01b0381168114620001f957600080fd5b919050565b600080600080608085870312156200021557600080fd5b6200022085620001e1565b60208601519094506001600160401b03811681146200023e57600080fd5b92506200024e60408601620001e1565b6060959095015193969295505050565b6080516111976200028160003960008181610248015261028a01526111976000f3fe608060405234801561001057600080fd5b50600436106100a95760003560e01c80638da5cb5b116100715780638da5cb5b14610139578063a168fa8914610154578063d8a4676f146101b1578063dad22e21146101d2578063f2fde38b146101e5578063fc2a88c3146101f857600080fd5b8063075ac12e146100ae5780631fe543e3146100db57806379ba5097146100f0578063809b9045146100f85780638796ba8c14610118575b600080fd5b6100c16100bc366004610d79565b610201565b604080519283526020830191909152015b60405180910390f35b6100ee6100e9366004610db1565b61023d565b005b6100ee6102ca565b61010b610106366004610e7b565b610374565b6040516100d29190610e94565b61012b610126366004610e7b565b6104ea565b6040519081526020016100d2565b6000546040516001600160a01b0390911681526020016100d2565b61018f610162366004610e7b565b60046020526000908152604090208054600282015460039092015460ff8083169361010090930416919084565b60408051941515855292151560208501529183015260608201526080016100d2565b6101c46101bf366004610e7b565b61050b565b6040516100d2929190610f79565b61012b6101e0366004610f9c565b61060e565b6100ee6101f3366004610fde565b6109c2565b61012b60075481565b6003602052816000526040600020818154811061021d57600080fd5b600091825260209091206003909102018054600190910154909250905082565b336001600160a01b037f000000000000000000000000000000000000000000000000000000000000000016146102bc5760405163073e64fd60e21b81523360048201526001600160a01b037f00000000000000000000000000000000000000000000000000000000000000001660248201526044015b60405180910390fd5b6102c682826109d6565b5050565b6001546001600160a01b0316331461031d5760405162461bcd60e51b815260206004820152601660248201527526bab9ba10313290383937b837b9b2b21037bbb732b960511b60448201526064016102b3565b60008054336001600160a01b0319808316821784556001805490911690556040516001600160a01b0390921692909183917f8be0079c531659141344cd1fd0a4f28419497f9722a3daafe3b4186f6b6457e091a350565b6000818152600360205260408120546060919067ffffffffffffffff81111561039f5761039f610d9b565b6040519080825280602002602001820160405280156103f457816020015b6103e160405180606001604052806000815260200160008152602001606081525090565b8152602001906001900390816103bd5790505b50905060005b6000848152600360205260409020548110156104e35760008481526003602052604090208054829081106104305761043061100e565b90600052602060002090600302016040518060600160405290816000820154815260200160018201548152602001600282018054806020026020016040519081016040528092919081815260200182805480156104ac57602002820191906000526020600020905b815481526020019060010190808311610498575b5050505050815250508282815181106104c7576104c761100e565b6020026020010181905250806104dc9061103a565b90506103fa565b5092915050565b600681815481106104fa57600080fd5b600091825260209091200154905081565b600081815260046020526040812054606090610100900460ff166105655760405162461bcd60e51b81526020600482015260116024820152701c995c5d595cdd081b9bdd08199bdd5b99607a1b60448201526064016102b3565b6000838152600460209081526040808320815160a081018352815460ff80821615158352610100909104161515818501526001820180548451818702810187018652818152929593948601938301828280156105e057602002820191906000526020600020905b8154815260200190600101908083116105cc575b5050509183525050600282015460208201526003909101546040918201528151910151909590945092505050565b6000606e8263ffffffff16111561067e5760405162461bcd60e51b815260206004820152602e60248201527f57696e6e65727320616d6f756e74206c696d6974206973203131302077696e6e60448201526d6572732070657220726166666c6560901b60648201526084016102b3565b6002546001600160a01b031633146106d85760405162461bcd60e51b815260206004820152601f60248201527f4e6f2041636365737320746f207265717565737452616e646f6d576f7264730060448201526064016102b3565b60006106e6836155f0611055565b6005546008546009546040516305d3b1d360e41b81526004810192909252600160a01b830467ffffffffffffffff16602483015261ffff16604482015263ffffffff8084166064830152861660848201529192506000916001600160a01b0390911690635d3b1d309060a4016020604051808303816000875af1158015610771573d6000803e3d6000fd5b505050506040513d601f19601f820116820180604052508101906107959190611081565b90506107c2604051806040016040528060098152602001681c995c5d595cdd125960ba1b81525082610bb4565b604080516060810182528281526020808201889052825160008152808201845282840152825180840190935260098352685f6d617856616c756560b81b908301529061080e9087610bb4565b6000878152600360208181526040808420805460018181018355918652948390208651959094029093019384558482015192840192909255908301518051849392610860926002850192910190610d19565b5050506108916040518060400160405280600c81526020016b17d8dbdb5b5d5b9a5d1e525960a21b81525088610bb4565b6040805160a0810182526000808252600160208084018290528451838152808201865284860152606084018c90528b83526003905292902054909160808301916108db919061109a565b9052600083815260046020908152604091829020835181548584015115156101000261ff00199215159290921661ffff19909116171781559183015180516109299260018501920190610d19565b5060608201516002820155608090910151600390910155600680546001810182556000919091527ff652222313e28459528d920b65115c16c04f3efc82aaedc97be59f3f377c0d3f0182905560078290556040805183815263ffffffff871660208201527fcc58b13ad3eab50626c6a6300b1d139cd6ebb1688a7cced9461c2f7e762665ee910160405180910390a15095945050505050565b6109ca610bf9565b6109d381610c4e565b50565b600082815260046020526040902054610100900460ff16610a2d5760405162461bcd60e51b81526020600482015260116024820152701c995c5d595cdd081b9bdd08199bdd5b99607a1b60448201526064016102b3565b6000828152600460209081526040909120805460ff1916600190811782558351610a5e939290910191840190610d19565b507ffe2e2d779dba245964d4e3ef9b994be63856fd568bf7d3ca9e224755cb1bd54d8282604051610a909291906110b1565b60405180910390a1600082815260046020908152604080832060028101548452600392839052908320918101548254919392918110610ad157610ad161100e565b906000526020600020906003020190506000835167ffffffffffffffff811115610afd57610afd610d9b565b604051908082528060200260200182016040528015610b26578160200160208202803683370190505b50905060005b8451811015610b96578260010154858281518110610b4c57610b4c61100e565b6020026020010151610b5e91906110ca565b610b699060016110ec565b828281518110610b7b57610b7b61100e565b6020908102919091010152610b8f8161103a565b9050610b2c565b508051610bac9060028401906020840190610d19565b505050505050565b6102c68282604051602401610bca929190611104565b60408051601f198184030181529190526020810180516001600160e01b0316632d839cb360e21b179052610cf8565b6000546001600160a01b03163314610c4c5760405162461bcd60e51b815260206004820152601660248201527527b7363c9031b0b63630b1363290313c9037bbb732b960511b60448201526064016102b3565b565b6001600160a01b038116331415610ca75760405162461bcd60e51b815260206004820152601760248201527f43616e6e6f74207472616e7366657220746f2073656c6600000000000000000060448201526064016102b3565b600180546001600160a01b0319166001600160a01b0383811691821790925560008054604051929316917fed8889f560326eb138920d842192f0eb3dd22b4f139c87a2c57538e05bae12789190a350565b80516a636f6e736f6c652e6c6f67602083016000808483855afa5050505050565b828054828255906000526020600020908101928215610d54579160200282015b82811115610d54578251825591602001919060010190610d39565b50610d60929150610d64565b5090565b5b80821115610d605760008155600101610d65565b60008060408385031215610d8c57600080fd5b50508035926020909101359150565b634e487b7160e01b600052604160045260246000fd5b60008060408385031215610dc457600080fd5b8235915060208084013567ffffffffffffffff80821115610de457600080fd5b818601915086601f830112610df857600080fd5b813581811115610e0a57610e0a610d9b565b8060051b604051601f19603f83011681018181108582111715610e2f57610e2f610d9b565b604052918252848201925083810185019189831115610e4d57600080fd5b938501935b82851015610e6b57843584529385019392850192610e52565b8096505050505050509250929050565b600060208284031215610e8d57600080fd5b5035919050565b60006020808301818452808551808352604092508286019150828160051b8701018488016000805b84811015610f2f57898403603f1901865282518051855288810151898601528701516060888601819052815190860181905290890190608086019084905b80821015610f1a5783518352928b0192918b019160019190910190610efa565b50509689019694505091870191600101610ebc565b50919998505050505050505050565b600081518084526020808501945080840160005b83811015610f6e57815187529582019590820190600101610f52565b509495945050505050565b8215158152604060208201526000610f946040830184610f3e565b949350505050565b600080600060608486031215610fb157600080fd5b8335925060208401359150604084013563ffffffff81168114610fd357600080fd5b809150509250925092565b600060208284031215610ff057600080fd5b81356001600160a01b038116811461100757600080fd5b9392505050565b634e487b7160e01b600052603260045260246000fd5b634e487b7160e01b600052601160045260246000fd5b600060001982141561104e5761104e611024565b5060010190565b600063ffffffff8083168185168183048111821515161561107857611078611024565b02949350505050565b60006020828403121561109357600080fd5b5051919050565b6000828210156110ac576110ac611024565b500390565b828152604060208201526000610f946040830184610f3e565b6000826110e757634e487b7160e01b600052601260045260246000fd5b500690565b600082198211156110ff576110ff611024565b500190565b604081526000835180604084015260005b818110156111325760208187018101516060868401015201611115565b81811115611144576000606083860101525b50602083019390935250601f91909101601f19160160600191905056fea2646970667358221220614e8d861147975d1bcf08b95f35fe09d384bbf5991f21ccd920e3d63a914dd764736f6c634300080c0033",
  "linkReferences": {},
  "deployedLinkReferences": {}
}