{
  "_format": "hh-sol-artifact-1",
  "contractName": "ChainlinkVRF",
  "sourceName": "src/backend/contracts/ChainlinkVRF.sol",
  "abi": [
    {
      "inputs": [
        {
          "internalType": "address",
          "name": "_mainContractAddress",
          "type": "address"
        },
        {
          "internalType": "uint64",
          "name": "_subscriptionId",
          "type": "uint64"
        },
        {
          "internalType": "address",
          "name": "_coordinator",
          "type": "address"
        },
        {
          "internalType": "bytes32",
          "name": "_keyHash",
          "type": "bytes32"
        }
      ],
      "stateMutability": "nonpayable",
      "type": "constructor"
    },
    {
      "inputs": [
        {
          "internalType": "address",
          "name": "have",
          "type": "address"
        },
        {
          "internalType": "address",
          "name": "want",
          "type": "address"
        }
      ],
      "name": "OnlyCoordinatorCanFulfill",
      "type": "error"
    },
    {
      "anonymous": false,
      "inputs": [
        {
          "indexed": true,
          "internalType": "address",
          "name": "from",
          "type": "address"
        },
        {
          "indexed": true,
          "internalType": "address",
          "name": "to",
          "type": "address"
        }
      ],
      "name": "OwnershipTransferRequested",
      "type": "event"
    },
    {
      "anonymous": false,
      "inputs": [
        {
          "indexed": true,
          "internalType": "address",
          "name": "from",
          "type": "address"
        },
        {
          "indexed": true,
          "internalType": "address",
          "name": "to",
          "type": "address"
        }
      ],
      "name": "OwnershipTransferred",
      "type": "event"
    },
    {
      "anonymous": false,
      "inputs": [
        {
          "indexed": false,
          "internalType": "uint256",
          "name": "requestId",
          "type": "uint256"
        },
        {
          "indexed": false,
          "internalType": "uint256[]",
          "name": "randomWords",
          "type": "uint256[]"
        }
      ],
      "name": "RequestFulfilled",
      "type": "event"
    },
    {
      "anonymous": false,
      "inputs": [
        {
          "indexed": false,
          "internalType": "uint256",
          "name": "requestId",
          "type": "uint256"
        },
        {
          "indexed": false,
          "internalType": "uint32",
          "name": "numWords",
          "type": "uint32"
        }
      ],
      "name": "RequestSent",
      "type": "event"
    },
    {
      "inputs": [],
      "name": "acceptOwnership",
      "outputs": [],
      "stateMutability": "nonpayable",
      "type": "function"
    },
    {
      "inputs": [
        {
          "internalType": "uint256",
          "name": "",
          "type": "uint256"
        },
        {
          "internalType": "uint256",
          "name": "",
          "type": "uint256"
        }
      ],
      "name": "communityRaffles",
      "outputs": [
        {
          "internalType": "uint256",
          "name": "date",
          "type": "uint256"
        },
        {
          "internalType": "uint256",
          "name": "nftSeries",
          "type": "uint256"
        },
        {
          "internalType": "uint256",
          "name": "requestId",
          "type": "uint256"
        }
      ],
      "stateMutability": "view",
      "type": "function"
    },
    {
      "inputs": [
        {
          "internalType": "uint256",
          "name": "_communityId",
          "type": "uint256"
        }
      ],
      "name": "getCommunityRaffleList",
      "outputs": [
        {
          "components": [
            {
              "internalType": "uint256",
              "name": "date",
              "type": "uint256"
            },
            {
              "internalType": "uint256",
              "name": "nftSeries",
              "type": "uint256"
            },
            {
              "internalType": "uint256",
              "name": "requestId",
              "type": "uint256"
            },
            {
              "internalType": "address[]",
              "name": "participants",
              "type": "address[]"
            },
            {
              "internalType": "uint256[]",
              "name": "result",
              "type": "uint256[]"
            }
          ],
          "internalType": "struct ChainlinkVRF.Raffle[]",
          "name": "",
          "type": "tuple[]"
        }
      ],
      "stateMutability": "view",
      "type": "function"
    },
    {
      "inputs": [
        {
          "internalType": "uint256",
          "name": "_requestId",
          "type": "uint256"
        }
      ],
      "name": "getRequestStatus",
      "outputs": [
        {
          "internalType": "bool",
          "name": "fulfilled",
          "type": "bool"
        },
        {
          "internalType": "uint256[]",
          "name": "randomWords",
          "type": "uint256[]"
        }
      ],
      "stateMutability": "view",
      "type": "function"
    },
    {
      "inputs": [],
      "name": "lastRequestId",
      "outputs": [
        {
          "internalType": "uint256",
          "name": "",
          "type": "uint256"
        }
      ],
      "stateMutability": "view",
      "type": "function"
    },
    {
      "inputs": [],
      "name": "owner",
      "outputs": [
        {
          "internalType": "address",
          "name": "",
          "type": "address"
        }
      ],
      "stateMutability": "view",
      "type": "function"
    },
    {
      "inputs": [
        {
          "internalType": "uint256",
          "name": "requestId",
          "type": "uint256"
        },
        {
          "internalType": "uint256[]",
          "name": "randomWords",
          "type": "uint256[]"
        }
      ],
      "name": "rawFulfillRandomWords",
      "outputs": [],
      "stateMutability": "nonpayable",
      "type": "function"
    },
    {
      "inputs": [
        {
          "internalType": "uint256",
          "name": "",
          "type": "uint256"
        }
      ],
      "name": "requestIds",
      "outputs": [
        {
          "internalType": "uint256",
          "name": "",
          "type": "uint256"
        }
      ],
      "stateMutability": "view",
      "type": "function"
    },
    {
      "inputs": [
        {
          "internalType": "uint256",
          "name": "_nftSeries",
          "type": "uint256"
        },
        {
          "internalType": "uint256",
          "name": "_communityId",
          "type": "uint256"
        },
        {
          "internalType": "address[]",
          "name": "_participants",
          "type": "address[]"
        },
        {
          "internalType": "uint32",
          "name": "_winnersAmount",
          "type": "uint32"
        }
      ],
      "name": "requestRandomWords",
      "outputs": [
        {
          "internalType": "uint256",
          "name": "",
          "type": "uint256"
        }
      ],
      "stateMutability": "nonpayable",
      "type": "function"
    },
    {
      "inputs": [
        {
          "internalType": "uint256",
          "name": "",
          "type": "uint256"
        }
      ],
      "name": "s_requests",
      "outputs": [
        {
          "internalType": "bool",
          "name": "fulfilled",
          "type": "bool"
        },
        {
          "internalType": "bool",
          "name": "exists",
          "type": "bool"
        },
        {
          "internalType": "uint256",
          "name": "communityId",
          "type": "uint256"
        },
        {
          "internalType": "uint256",
          "name": "raffleIndex",
          "type": "uint256"
        }
      ],
      "stateMutability": "view",
      "type": "function"
    },
    {
      "inputs": [],
      "name": "totalCommunityRaffles",
      "outputs": [
        {
          "internalType": "uint256",
          "name": "",
          "type": "uint256"
        }
      ],
      "stateMutability": "view",
      "type": "function"
    },
    {
      "inputs": [
        {
          "internalType": "address",
          "name": "to",
          "type": "address"
        }
      ],
      "name": "transferOwnership",
      "outputs": [],
      "stateMutability": "nonpayable",
      "type": "function"
    }
  ],
  "bytecode": "0x60a0604052600a805461ffff191660031790553480156200001f57600080fd5b506040516200156e3803806200156e8339810160408190526200004291620001fe565b6001600160a01b0382166080523380600081620000a65760405162461bcd60e51b815260206004820152601860248201527f43616e6e6f7420736574206f776e657220746f207a65726f000000000000000060448201526064015b60405180910390fd5b600080546001600160a01b0319166001600160a01b0384811691909117909155811615620000d957620000d98162000135565b5050600680546001600160401b03909516600160a01b026001600160e01b03199095166001600160a01b03948516179490941790935560095560028054939091166001600160a01b03199390931692909217909155506200025e565b6001600160a01b038116331415620001905760405162461bcd60e51b815260206004820152601760248201527f43616e6e6f74207472616e7366657220746f2073656c6600000000000000000060448201526064016200009d565b600180546001600160a01b0319166001600160a01b0383811691821790925560008054604051929316917fed8889f560326eb138920d842192f0eb3dd22b4f139c87a2c57538e05bae12789190a350565b80516001600160a01b0381168114620001f957600080fd5b919050565b600080600080608085870312156200021557600080fd5b6200022085620001e1565b60208601519094506001600160401b03811681146200023e57600080fd5b92506200024e60408601620001e1565b6060959095015193969295505050565b6080516112ed620002816000396000818161026801526102aa01526112ed6000f3fe608060405234801561001057600080fd5b50600436106100b45760003560e01c80638796ba8c116100715780638796ba8c146101535780638da5cb5b14610166578063a168fa8914610181578063d8a4676f146101de578063f2fde38b146101ff578063fc2a88c31461021257600080fd5b8063075ac12e146100b95780631fe543e3146100ec578063226a18ef146101015780633fe6a31d1461012257806367bbe1181461012b57806379ba50971461014b575b600080fd5b6100cc6100c7366004610e0e565b61021b565b604080519384526020840192909252908201526060015b60405180910390f35b6100ff6100fa366004610e9b565b61025d565b005b61011461010f366004610f6d565b6102ea565b6040519081526020016100e3565b61011460035481565b61013e61013936600461102b565b6106b7565b6040516100e3919061107f565b6100ff6108a7565b61011461016136600461102b565b610951565b6000546040516001600160a01b0390911681526020016100e3565b6101bc61018f36600461102b565b60056020526000908152604090208054600282015460039092015460ff8083169361010090930416919084565b60408051941515855292151560208501529183015260608201526080016100e3565b6101f16101ec36600461102b565b610972565b6040516100e3929190611154565b6100ff61020d366004611177565b610a75565b61011460085481565b6004602052816000526040600020818154811061023757600080fd5b600091825260209091206005909102018054600182015460029092015490935090915083565b336001600160a01b037f000000000000000000000000000000000000000000000000000000000000000016146102dc5760405163073e64fd60e21b81523360048201526001600160a01b037f00000000000000000000000000000000000000000000000000000000000000001660248201526044015b60405180910390fd5b6102e68282610a89565b5050565b60006101f48263ffffffff16111561035b5760405162461bcd60e51b815260206004820152602e60248201527f57696e6e65727320616d6f756e74206c696d6974206973203530302077696e6e60448201526d6572732070657220726166666c6560901b60648201526084016102d3565b6002546001600160a01b031633146103b55760405162461bcd60e51b815260206004820152601f60248201527f4e6f2041636365737320746f207265717565737452616e646f6d576f7264730060448201526064016102d3565b60006103c3836175306111af565b6103d090620186a06111db565b600654600954600a546040516305d3b1d360e41b81526004810192909252600160a01b830467ffffffffffffffff16602483015261ffff16604482015263ffffffff8084166064830152861660848201529192506000916001600160a01b0390911690635d3b1d309060a4016020604051808303816000875af115801561045b573d6000803e3d6000fd5b505050506040513d601f19601f8201168201806040525081019061047f9190611203565b905060006040518060a00160405280428152602001898152602001838152602001878152602001600067ffffffffffffffff8111156104c0576104c0610e30565b6040519080825280602002602001820160405280156104e9578160200160208202803683370190505b5090526000888152600460209081526040808320805460018181018355828652948490208651600590920201908155838601519481019490945590840151600284015560608401518051949550909385939261054c926003850192910190610d59565b5060808201518051610568916004840191602090910190610dbe565b50505060016003600082825461057e919061121c565b90915550506040805160a0810182526000808252600160208084018290528451838152808201865284860152606084018d90528c83526004905292902054909160808301916105cd9190611234565b9052600084815260056020908152604091829020835181548584015115156101000261ff00199215159290921661ffff199091161717815591830151805161061b9260018501920190610dbe565b5060608201516002820155608090910151600390910155600780546001810182556000919091527fa66cc928b5edb82af9bd49922954155ab7b0942694bea4ce44661d9a8736c6880183905560088390556040805184815263ffffffff881660208201527fcc58b13ad3eab50626c6a6300b1d139cd6ebb1688a7cced9461c2f7e762665ee910160405180910390a15090979650505050505050565b6000818152600460205260408120546060919067ffffffffffffffff8111156106e2576106e2610e30565b60405190808252806020026020018201604052801561074557816020015b6107326040518060a0016040528060008152602001600081526020016000815260200160608152602001606081525090565b8152602001906001900390816107005790505b50905060005b6000848152600460205260409020548110156108a05760008481526004602052604090208054829081106107815761078161124b565b90600052602060002090600502016040518060a00160405290816000820154815260200160018201548152602001600282015481526020016003820180548060200260200160405190810160405280929190818152602001828054801561081157602002820191906000526020600020905b81546001600160a01b031681526001909101906020018083116107f3575b505050505081526020016004820180548060200260200160405190810160405280929190818152602001828054801561086957602002820191906000526020600020905b815481526020019060010190808311610855575b5050505050815250508282815181106108845761088461124b565b60200260200101819052508061089990611261565b905061074b565b5092915050565b6001546001600160a01b031633146108fa5760405162461bcd60e51b815260206004820152601660248201527526bab9ba10313290383937b837b9b2b21037bbb732b960511b60448201526064016102d3565b60008054336001600160a01b0319808316821784556001805490911690556040516001600160a01b0390921692909183917f8be0079c531659141344cd1fd0a4f28419497f9722a3daafe3b4186f6b6457e091a350565b6007818154811061096157600080fd5b600091825260209091200154905081565b600081815260056020526040812054606090610100900460ff166109cc5760405162461bcd60e51b81526020600482015260116024820152701c995c5d595cdd081b9bdd08199bdd5b99607a1b60448201526064016102d3565b6000838152600560209081526040808320815160a081018352815460ff8082161515835261010090910416151581850152600182018054845181870281018701865281815292959394860193830182828015610a4757602002820191906000526020600020905b815481526020019060010190808311610a33575b5050509183525050600282015460208201526003909101546040918201528151910151909590945092505050565b610a7d610c5a565b610a8681610caf565b50565b600082815260056020526040902054610100900460ff16610ae05760405162461bcd60e51b81526020600482015260116024820152701c995c5d595cdd081b9bdd08199bdd5b99607a1b60448201526064016102d3565b6000828152600560209081526040909120805460ff19166001908117825583519192610b13929184019190850190610dbe565b507ffe2e2d779dba245964d4e3ef9b994be63856fd568bf7d3ca9e224755cb1bd54d8383604051610b4592919061127c565b60405180910390a160028101546000908152600460205260408120600383015481548110610b7557610b7561124b565b906000526020600020906005020190506000835167ffffffffffffffff811115610ba157610ba1610e30565b604051908082528060200260200182016040528015610bca578160200160208202803683370190505b50905060005b8451811015610c3c5760038301548551869083908110610bf257610bf261124b565b6020026020010151610c049190611295565b610c0f90600161121c565b828281518110610c2157610c2161124b565b6020908102919091010152610c3581611261565b9050610bd0565b508051610c529060048401906020840190610dbe565b505050505050565b6000546001600160a01b03163314610cad5760405162461bcd60e51b815260206004820152601660248201527527b7363c9031b0b63630b1363290313c9037bbb732b960511b60448201526064016102d3565b565b6001600160a01b038116331415610d085760405162461bcd60e51b815260206004820152601760248201527f43616e6e6f74207472616e7366657220746f2073656c6600000000000000000060448201526064016102d3565b600180546001600160a01b0319166001600160a01b0383811691821790925560008054604051929316917fed8889f560326eb138920d842192f0eb3dd22b4f139c87a2c57538e05bae12789190a350565b828054828255906000526020600020908101928215610dae579160200282015b82811115610dae57825182546001600160a01b0319166001600160a01b03909116178255602090920191600190910190610d79565b50610dba929150610df9565b5090565b828054828255906000526020600020908101928215610dae579160200282015b82811115610dae578251825591602001919060010190610dde565b5b80821115610dba5760008155600101610dfa565b60008060408385031215610e2157600080fd5b50508035926020909101359150565b634e487b7160e01b600052604160045260246000fd5b604051601f8201601f1916810167ffffffffffffffff81118282101715610e6f57610e6f610e30565b604052919050565b600067ffffffffffffffff821115610e9157610e91610e30565b5060051b60200190565b60008060408385031215610eae57600080fd5b8235915060208084013567ffffffffffffffff811115610ecd57600080fd5b8401601f81018613610ede57600080fd5b8035610ef1610eec82610e77565b610e46565b81815260059190911b82018301908381019088831115610f1057600080fd5b928401925b82841015610f2e57833582529284019290840190610f15565b80955050505050509250929050565b80356001600160a01b0381168114610f5457600080fd5b919050565b803563ffffffff81168114610f5457600080fd5b60008060008060808587031215610f8357600080fd5b843593506020808601359350604086013567ffffffffffffffff811115610fa957600080fd5b8601601f81018813610fba57600080fd5b8035610fc8610eec82610e77565b81815260059190911b8201830190838101908a831115610fe757600080fd5b928401925b8284101561100c57610ffd84610f3d565b82529284019290840190610fec565b809650505050505061102060608601610f59565b905092959194509250565b60006020828403121561103d57600080fd5b5035919050565b600081518084526020808501945080840160005b8381101561107457815187529582019590820190600101611058565b509495945050505050565b60006020808301818452808551808352604092508286019150828160051b8701018488016000805b8481101561114557898403603f190186528251805185528881015189860152878101518886015260608082015160a0918701829052805191870182905260c0870191908b0190855b818110156111145782516001600160a01b03168452928c0192918c01916001016110ef565b505050608080830151925086820381880152506111318183611044565b978a019795505050918701916001016110a7565b50919998505050505050505050565b821515815260406020820152600061116f6040830184611044565b949350505050565b60006020828403121561118957600080fd5b61119282610f3d565b9392505050565b634e487b7160e01b600052601160045260246000fd5b600063ffffffff808316818516818304811182151516156111d2576111d2611199565b02949350505050565b600063ffffffff8083168185168083038211156111fa576111fa611199565b01949350505050565b60006020828403121561121557600080fd5b5051919050565b6000821982111561122f5761122f611199565b500190565b60008282101561124657611246611199565b500390565b634e487b7160e01b600052603260045260246000fd5b600060001982141561127557611275611199565b5060010190565b82815260406020820152600061116f6040830184611044565b6000826112b257634e487b7160e01b600052601260045260246000fd5b50069056fea2646970667358221220623b0849e05c7914b9511799e31a2e1b682d8cf71df57a82145093915905433f64736f6c634300080c0033",
  "linkReferences": {},
  "deployedLinkReferences": {}
}