{
  "_format": "hh-sol-artifact-1",
  "contractName": "MainContract",
  "sourceName": "src/backend/contracts/MainContract.sol",
  "abi": [
    {
      "inputs": [],
      "stateMutability": "nonpayable",
      "type": "constructor"
    },
    {
      "anonymous": false,
      "inputs": [
        {
          "indexed": false,
          "internalType": "address",
          "name": "previousAdmin",
          "type": "address"
        },
        {
          "indexed": false,
          "internalType": "address",
          "name": "newAdmin",
          "type": "address"
        }
      ],
      "name": "AdminChanged",
      "type": "event"
    },
    {
      "anonymous": false,
      "inputs": [
        {
          "indexed": true,
          "internalType": "address",
          "name": "beacon",
          "type": "address"
        }
      ],
      "name": "BeaconUpgraded",
      "type": "event"
    },
    {
      "anonymous": false,
      "inputs": [
        {
          "indexed": false,
          "internalType": "uint8",
          "name": "version",
          "type": "uint8"
        }
      ],
      "name": "Initialized",
      "type": "event"
    },
    {
      "anonymous": false,
      "inputs": [
        {
          "indexed": true,
          "internalType": "address",
          "name": "previousOwner",
          "type": "address"
        },
        {
          "indexed": true,
          "internalType": "address",
          "name": "newOwner",
          "type": "address"
        }
      ],
      "name": "OwnershipTransferred",
      "type": "event"
    },
    {
      "anonymous": false,
      "inputs": [
        {
          "indexed": true,
          "internalType": "address",
          "name": "implementation",
          "type": "address"
        }
      ],
      "name": "Upgraded",
      "type": "event"
    },
    {
      "inputs": [
        {
          "internalType": "enum MainContract.CommunityCategory",
          "name": "",
          "type": "uint8"
        },
        {
          "internalType": "uint256",
          "name": "",
          "type": "uint256"
        }
      ],
      "name": "categoryCommunities",
      "outputs": [
        {
          "internalType": "uint256",
          "name": "",
          "type": "uint256"
        }
      ],
      "stateMutability": "view",
      "type": "function"
    },
    {
      "inputs": [],
      "name": "chainlinkVRFContract",
      "outputs": [
        {
          "internalType": "address",
          "name": "",
          "type": "address"
        }
      ],
      "stateMutability": "view",
      "type": "function"
    },
    {
      "inputs": [
        {
          "internalType": "uint256",
          "name": "",
          "type": "uint256"
        }
      ],
      "name": "communities",
      "outputs": [
        {
          "internalType": "uint256",
          "name": "id",
          "type": "uint256"
        },
        {
          "internalType": "enum MainContract.CommunityCategory",
          "name": "category",
          "type": "uint8"
        },
        {
          "internalType": "enum MainContract.CommunityPrivacy",
          "name": "privacy",
          "type": "uint8"
        },
        {
          "internalType": "address",
          "name": "owner",
          "type": "address"
        },
        {
          "internalType": "address",
          "name": "nftContract",
          "type": "address"
        },
        {
          "internalType": "address",
          "name": "ftContract",
          "type": "address"
        },
        {
          "internalType": "address",
          "name": "daoContract",
          "type": "address"
        },
        {
          "internalType": "address",
          "name": "timeLockContract",
          "type": "address"
        },
        {
          "internalType": "string",
          "name": "name",
          "type": "string"
        },
        {
          "internalType": "string",
          "name": "description",
          "type": "string"
        },
        {
          "internalType": "string",
          "name": "logo",
          "type": "string"
        }
      ],
      "stateMutability": "view",
      "type": "function"
    },
    {
      "inputs": [],
      "name": "communityCount",
      "outputs": [
        {
          "internalType": "uint256",
          "name": "",
          "type": "uint256"
        }
      ],
      "stateMutability": "view",
      "type": "function"
    },
    {
      "inputs": [
        {
          "internalType": "string",
          "name": "_name",
          "type": "string"
        },
        {
          "internalType": "string",
          "name": "_logo",
          "type": "string"
        },
        {
          "internalType": "enum MainContract.CommunityCategory",
          "name": "_category",
          "type": "uint8"
        },
        {
          "internalType": "enum MainContract.CommunityPrivacy",
          "name": "_privacy",
          "type": "uint8"
        },
        {
          "internalType": "string",
          "name": "_description",
          "type": "string"
        }
      ],
      "name": "createCommunity",
      "outputs": [],
      "stateMutability": "nonpayable",
      "type": "function"
    },
    {
      "inputs": [],
      "name": "factoryDAOContract",
      "outputs": [
        {
          "internalType": "address",
          "name": "",
          "type": "address"
        }
      ],
      "stateMutability": "view",
      "type": "function"
    },
    {
      "inputs": [],
      "name": "factoryFTContract",
      "outputs": [
        {
          "internalType": "address",
          "name": "",
          "type": "address"
        }
      ],
      "stateMutability": "view",
      "type": "function"
    },
    {
      "inputs": [],
      "name": "factoryNFTContract",
      "outputs": [
        {
          "internalType": "address",
          "name": "",
          "type": "address"
        }
      ],
      "stateMutability": "view",
      "type": "function"
    },
    {
      "inputs": [],
      "name": "factoryTimeLockContract",
      "outputs": [
        {
          "internalType": "address",
          "name": "",
          "type": "address"
        }
      ],
      "stateMutability": "view",
      "type": "function"
    },
    {
      "inputs": [
        {
          "internalType": "enum MainContract.CommunityCategory",
          "name": "_categoryId",
          "type": "uint8"
        }
      ],
      "name": "getCategoryCommunities",
      "outputs": [
        {
          "components": [
            {
              "internalType": "uint256",
              "name": "id",
              "type": "uint256"
            },
            {
              "internalType": "enum MainContract.CommunityCategory",
              "name": "category",
              "type": "uint8"
            },
            {
              "internalType": "enum MainContract.CommunityPrivacy",
              "name": "privacy",
              "type": "uint8"
            },
            {
              "internalType": "address",
              "name": "owner",
              "type": "address"
            },
            {
              "internalType": "address",
              "name": "nftContract",
              "type": "address"
            },
            {
              "internalType": "address",
              "name": "ftContract",
              "type": "address"
            },
            {
              "internalType": "address",
              "name": "daoContract",
              "type": "address"
            },
            {
              "internalType": "address",
              "name": "timeLockContract",
              "type": "address"
            },
            {
              "internalType": "string",
              "name": "name",
              "type": "string"
            },
            {
              "internalType": "string",
              "name": "description",
              "type": "string"
            },
            {
              "internalType": "string",
              "name": "logo",
              "type": "string"
            }
          ],
          "internalType": "struct MainContract.Community[]",
          "name": "",
          "type": "tuple[]"
        }
      ],
      "stateMutability": "view",
      "type": "function"
    },
    {
      "inputs": [
        {
          "internalType": "address",
          "name": "_owner",
          "type": "address"
        }
      ],
      "name": "getUserCommunities",
      "outputs": [
        {
          "components": [
            {
              "internalType": "uint256",
              "name": "id",
              "type": "uint256"
            },
            {
              "internalType": "enum MainContract.CommunityCategory",
              "name": "category",
              "type": "uint8"
            },
            {
              "internalType": "enum MainContract.CommunityPrivacy",
              "name": "privacy",
              "type": "uint8"
            },
            {
              "internalType": "address",
              "name": "owner",
              "type": "address"
            },
            {
              "internalType": "address",
              "name": "nftContract",
              "type": "address"
            },
            {
              "internalType": "address",
              "name": "ftContract",
              "type": "address"
            },
            {
              "internalType": "address",
              "name": "daoContract",
              "type": "address"
            },
            {
              "internalType": "address",
              "name": "timeLockContract",
              "type": "address"
            },
            {
              "internalType": "string",
              "name": "name",
              "type": "string"
            },
            {
              "internalType": "string",
              "name": "description",
              "type": "string"
            },
            {
              "internalType": "string",
              "name": "logo",
              "type": "string"
            }
          ],
          "internalType": "struct MainContract.Community[]",
          "name": "",
          "type": "tuple[]"
        }
      ],
      "stateMutability": "view",
      "type": "function"
    },
    {
      "inputs": [],
      "name": "initialize",
      "outputs": [],
      "stateMutability": "nonpayable",
      "type": "function"
    },
    {
      "inputs": [
        {
          "internalType": "uint256",
          "name": "_id",
          "type": "uint256"
        },
        {
          "internalType": "address",
          "name": "checkAddress",
          "type": "address"
        }
      ],
      "name": "isCommunityOwner",
      "outputs": [
        {
          "internalType": "bool",
          "name": "",
          "type": "bool"
        }
      ],
      "stateMutability": "view",
      "type": "function"
    },
    {
      "inputs": [
        {
          "internalType": "uint256",
          "name": "_id",
          "type": "uint256"
        }
      ],
      "name": "isContractExists",
      "outputs": [
        {
          "internalType": "bool",
          "name": "",
          "type": "bool"
        },
        {
          "internalType": "bool",
          "name": "",
          "type": "bool"
        },
        {
          "internalType": "bool",
          "name": "",
          "type": "bool"
        }
      ],
      "stateMutability": "view",
      "type": "function"
    },
    {
      "inputs": [
        {
          "internalType": "uint256",
          "name": "_communityId",
          "type": "uint256"
        },
        {
          "internalType": "address[]",
          "name": "_participants",
          "type": "address[]"
        },
        {
          "internalType": "uint32",
          "name": "_winnersAmount",
          "type": "uint32"
        }
      ],
      "name": "newRaffle",
      "outputs": [],
      "stateMutability": "nonpayable",
      "type": "function"
    },
    {
      "inputs": [],
      "name": "owner",
      "outputs": [
        {
          "internalType": "address",
          "name": "",
          "type": "address"
        }
      ],
      "stateMutability": "view",
      "type": "function"
    },
    {
      "inputs": [],
      "name": "proxiableUUID",
      "outputs": [
        {
          "internalType": "bytes32",
          "name": "",
          "type": "bytes32"
        }
      ],
      "stateMutability": "view",
      "type": "function"
    },
    {
      "inputs": [],
      "name": "renounceOwnership",
      "outputs": [],
      "stateMutability": "nonpayable",
      "type": "function"
    },
    {
      "inputs": [
        {
          "internalType": "address",
          "name": "newOwner",
          "type": "address"
        }
      ],
      "name": "transferOwnership",
      "outputs": [],
      "stateMutability": "nonpayable",
      "type": "function"
    },
    {
      "inputs": [
        {
          "internalType": "uint256",
          "name": "_id",
          "type": "uint256"
        },
        {
          "internalType": "string",
          "name": "_name",
          "type": "string"
        },
        {
          "internalType": "string",
          "name": "_logo",
          "type": "string"
        },
        {
          "internalType": "enum MainContract.CommunityPrivacy",
          "name": "_privacy",
          "type": "uint8"
        },
        {
          "internalType": "string",
          "name": "_description",
          "type": "string"
        }
      ],
      "name": "updateCommunity",
      "outputs": [],
      "stateMutability": "nonpayable",
      "type": "function"
    },
    {
      "inputs": [
        {
          "internalType": "uint256",
          "name": "_id",
          "type": "uint256"
        },
        {
          "internalType": "address",
          "name": "_daoContract",
          "type": "address"
        }
      ],
      "name": "updateCommunityDAO",
      "outputs": [],
      "stateMutability": "nonpayable",
      "type": "function"
    },
    {
      "inputs": [
        {
          "internalType": "uint256",
          "name": "_id",
          "type": "uint256"
        },
        {
          "internalType": "address",
          "name": "_ftContract",
          "type": "address"
        }
      ],
      "name": "updateCommunityFT",
      "outputs": [],
      "stateMutability": "nonpayable",
      "type": "function"
    },
    {
      "inputs": [
        {
          "internalType": "uint256",
          "name": "_id",
          "type": "uint256"
        },
        {
          "internalType": "address",
          "name": "_nftContract",
          "type": "address"
        }
      ],
      "name": "updateCommunityNFT",
      "outputs": [],
      "stateMutability": "nonpayable",
      "type": "function"
    },
    {
      "inputs": [
        {
          "internalType": "uint256",
          "name": "_id",
          "type": "uint256"
        },
        {
          "internalType": "address",
          "name": "_timeLockContract",
          "type": "address"
        }
      ],
      "name": "updateCommunityTokenLock",
      "outputs": [],
      "stateMutability": "nonpayable",
      "type": "function"
    },
    {
      "inputs": [
        {
          "internalType": "address",
          "name": "_factoryNFTContract",
          "type": "address"
        },
        {
          "internalType": "address",
          "name": "_factoryFTContract",
          "type": "address"
        },
        {
          "internalType": "address",
          "name": "_factoryDAOContract",
          "type": "address"
        },
        {
          "internalType": "address",
          "name": "_factoryTimeLockContract",
          "type": "address"
        },
        {
          "internalType": "address",
          "name": "_chainlinkVRFContract",
          "type": "address"
        }
      ],
      "name": "updateFactoryContractsAddress",
      "outputs": [],
      "stateMutability": "nonpayable",
      "type": "function"
    },
    {
      "inputs": [
        {
          "internalType": "address",
          "name": "newImplementation",
          "type": "address"
        }
      ],
      "name": "upgradeTo",
      "outputs": [],
      "stateMutability": "nonpayable",
      "type": "function"
    },
    {
      "inputs": [
        {
          "internalType": "address",
          "name": "newImplementation",
          "type": "address"
        },
        {
          "internalType": "bytes",
          "name": "data",
          "type": "bytes"
        }
      ],
      "name": "upgradeToAndCall",
      "outputs": [],
      "stateMutability": "payable",
      "type": "function"
    },
    {
      "inputs": [
        {
          "internalType": "address",
          "name": "",
          "type": "address"
        },
        {
          "internalType": "uint256",
          "name": "",
          "type": "uint256"
        }
      ],
      "name": "userCommunities",
      "outputs": [
        {
          "internalType": "uint256",
          "name": "",
          "type": "uint256"
        }
      ],
      "stateMutability": "view",
      "type": "function"
    }
  ],
  "bytecode": "0x60a0604052306080523480156200001557600080fd5b506200002062000026565b620000e8565b600054610100900460ff1615620000935760405162461bcd60e51b815260206004820152602760248201527f496e697469616c697a61626c653a20636f6e747261637420697320696e697469604482015266616c697a696e6760c81b606482015260840160405180910390fd5b60005460ff9081161015620000e6576000805460ff191660ff9081179091556040519081527f7f26b83ff96e1f2b6a682f133852f6798a09c465da95921460cefb38474024989060200160405180910390a15b565b608051612a3e6200012060003960008181610a7d01528181610abd01528181610b8e01528181610bce0152610c610152612a3e6000f3fe6080604052600436106101b75760003560e01c8063ae1aba11116100ec578063e590b56a1161008a578063ec30b85c11610064578063ec30b85c1461052a578063f2fde38b14610582578063f4704e05146105a2578063f6842b30146105c257600080fd5b8063e590b56a146104b3578063e87d940b146104ea578063e8cc13c01461050a57600080fd5b8063b64b7f76116100c6578063b64b7f76146103e0578063c8202f4a14610453578063dd44600114610473578063e00f78651461049357600080fd5b8063ae1aba111461038a578063aee84613146103aa578063af1af3dc146103c057600080fd5b80636543286f1161015957806384d992a01161013357806384d992a0146102f45780638845f7c61461032c5780638da5cb5b1461034c578063ab53cd931461036a57600080fd5b80636543286f146102aa578063715018a6146102ca5780638129fc1c146102df57600080fd5b80633659cfe6116101955780633659cfe6146102345780633c44f002146102545780634f1ef2861461028257806352d1902d1461029557600080fd5b80631c174e9f146101bc578063266682cb146101de57806334ff125114610214575b600080fd5b3480156101c857600080fd5b506101dc6101d73660046120b9565b6105e2565b005b3480156101ea57600080fd5b506101fe6101f93660046120f4565b610646565b60405161020b91906121a1565b60405180910390f35b34801561022057600080fd5b506101dc61022f3660046122c3565b610a0b565b34801561024057600080fd5b506101dc61024f366004612328565b610a72565b34801561026057600080fd5b5061027461026f366004612343565b610b52565b60405190815260200161020b565b6101dc61029036600461240c565b610b83565b3480156102a157600080fd5b50610274610c54565b3480156102b657600080fd5b506101fe6102c5366004612328565b610d07565b3480156102d657600080fd5b506101dc611084565b3480156102eb57600080fd5b506101dc611098565b34801561030057600080fd5b5060cb54610314906001600160a01b031681565b6040516001600160a01b03909116815260200161020b565b34801561033857600080fd5b5060cc54610314906001600160a01b031681565b34801561035857600080fd5b506033546001600160a01b0316610314565b34801561037657600080fd5b506101dc6103853660046120b9565b6111b0565b34801561039657600080fd5b506101dc6103a5366004612482565b61120b565b3480156103b657600080fd5b5061027460ce5481565b3480156103cc57600080fd5b506101dc6103db36600461257a565b61139e565b3480156103ec57600080fd5b506104346103fb36600461261d565b600090815260cf60205260409020600281015460038201546004909201546001600160a01b039182161515939282161515929116151590565b604080519315158452911515602084015215159082015260600161020b565b34801561045f57600080fd5b5060cd54610314906001600160a01b031681565b34801561047f57600080fd5b5061027461048e366004612636565b6114c9565b34801561049f57600080fd5b506101dc6104ae3660046120b9565b6114e5565b3480156104bf57600080fd5b506104d36104ce36600461261d565b611540565b60405161020b9b9a99989796959493929190612652565b3480156104f657600080fd5b506101dc6105053660046120b9565b611746565b34801561051657600080fd5b506101dc6105253660046126f3565b6117a1565b34801561053657600080fd5b506105726105453660046120b9565b600082815260cf60205260409020600101546201000090046001600160a01b039081169082161492915050565b604051901515815260200161020b565b34801561058e57600080fd5b506101dc61059d366004612328565b611a47565b3480156105ae57600080fd5b5060ca54610314906001600160a01b031681565b3480156105ce57600080fd5b5060c954610314906001600160a01b031681565b60cb546001600160a01b031633146106155760405162461bcd60e51b815260040161060c9061275f565b60405180910390fd5b600091825260cf602052604090912060040180546001600160a01b0319166001600160a01b03909216919091179055565b6060600060d160008460148111156106605761066061210f565b60148111156106715761067161210f565b815260200190815260200160002080549050905060008167ffffffffffffffff8111156106a0576106a061236d565b6040519080825280602002602001820160405280156106d957816020015b6106c6611fa6565b8152602001906001900390816106be5790505b50905060005b82811015610a035760cf600060d160008860148111156107015761070161210f565b60148111156107125761071261210f565b8152602001908152602001600020838154811061073157610731612796565b9060005260206000200154815260200190815260200160002060405180610160016040529081600082015481526020016001820160009054906101000a900460ff1660148111156107845761078461210f565b60148111156107955761079561210f565b81526020016001820160019054906101000a900460ff1660018111156107bd576107bd61210f565b60018111156107ce576107ce61210f565b815260018201546001600160a01b03620100009091048116602083015260028301548116604083015260038301548116606083015260048301548116608083015260058301541660a082015260068201805460c09092019161082f906127ac565b80601f016020809104026020016040519081016040528092919081815260200182805461085b906127ac565b80156108a85780601f1061087d576101008083540402835291602001916108a8565b820191906000526020600020905b81548152906001019060200180831161088b57829003601f168201915b505050505081526020016007820180546108c1906127ac565b80601f01602080910402602001604051908101604052809291908181526020018280546108ed906127ac565b801561093a5780601f1061090f5761010080835404028352916020019161093a565b820191906000526020600020905b81548152906001019060200180831161091d57829003601f168201915b50505050508152602001600882018054610953906127ac565b80601f016020809104026020016040519081016040528092919081815260200182805461097f906127ac565b80156109cc5780601f106109a1576101008083540402835291602001916109cc565b820191906000526020600020905b8154815290600101906020018083116109af57829003601f168201915b5050505050815250508282815181106109e7576109e7612796565b6020026020010181905250806109fc906127fd565b90506106df565b509392505050565b610a13611abd565b60c980546001600160a01b03199081166001600160a01b039788161790915560ca805482169587169590951790945560cb805485169386169390931790925560cc8054841691851691909117905560cd80549092169216919091179055565b306001600160a01b037f0000000000000000000000000000000000000000000000000000000000000000161415610abb5760405162461bcd60e51b815260040161060c90612818565b7f00000000000000000000000000000000000000000000000000000000000000006001600160a01b0316610b046000805160206129c2833981519152546001600160a01b031690565b6001600160a01b031614610b2a5760405162461bcd60e51b815260040161060c90612864565b610b3381611b17565b60408051600080825260208201909252610b4f91839190611b1f565b50565b60d16020528160005260406000208181548110610b6e57600080fd5b90600052602060002001600091509150505481565b306001600160a01b037f0000000000000000000000000000000000000000000000000000000000000000161415610bcc5760405162461bcd60e51b815260040161060c90612818565b7f00000000000000000000000000000000000000000000000000000000000000006001600160a01b0316610c156000805160206129c2833981519152546001600160a01b031690565b6001600160a01b031614610c3b5760405162461bcd60e51b815260040161060c90612864565b610c4482611b17565b610c5082826001611b1f565b5050565b6000306001600160a01b037f00000000000000000000000000000000000000000000000000000000000000001614610cf45760405162461bcd60e51b815260206004820152603860248201527f555550535570677261646561626c653a206d757374206e6f742062652063616c60448201527f6c6564207468726f7567682064656c656761746563616c6c0000000000000000606482015260840161060c565b506000805160206129c283398151915290565b6001600160a01b038116600090815260d060205260408120546060918167ffffffffffffffff811115610d3c57610d3c61236d565b604051908082528060200260200182016040528015610d7557816020015b610d62611fa6565b815260200190600190039081610d5a5790505b50905060005b82811015610a03576001600160a01b038516600090815260d060205260408120805460cf92919084908110610db257610db2612796565b9060005260206000200154815260200190815260200160002060405180610160016040529081600082015481526020016001820160009054906101000a900460ff166014811115610e0557610e0561210f565b6014811115610e1657610e1661210f565b81526020016001820160019054906101000a900460ff166001811115610e3e57610e3e61210f565b6001811115610e4f57610e4f61210f565b815260018201546001600160a01b03620100009091048116602083015260028301548116604083015260038301548116606083015260048301548116608083015260058301541660a082015260068201805460c090920191610eb0906127ac565b80601f0160208091040260200160405190810160405280929190818152602001828054610edc906127ac565b8015610f295780601f10610efe57610100808354040283529160200191610f29565b820191906000526020600020905b815481529060010190602001808311610f0c57829003601f168201915b50505050508152602001600782018054610f42906127ac565b80601f0160208091040260200160405190810160405280929190818152602001828054610f6e906127ac565b8015610fbb5780601f10610f9057610100808354040283529160200191610fbb565b820191906000526020600020905b815481529060010190602001808311610f9e57829003601f168201915b50505050508152602001600882018054610fd4906127ac565b80601f0160208091040260200160405190810160405280929190818152602001828054611000906127ac565b801561104d5780601f106110225761010080835404028352916020019161104d565b820191906000526020600020905b81548152906001019060200180831161103057829003601f168201915b50505050508152505082828151811061106857611068612796565b60200260200101819052508061107d906127fd565b9050610d7b565b61108c611abd565b6110966000611c8f565b565b600054610100900460ff16158080156110b85750600054600160ff909116105b806110d25750303b1580156110d2575060005460ff166001145b6111355760405162461bcd60e51b815260206004820152602e60248201527f496e697469616c697a61626c653a20636f6e747261637420697320616c72656160448201526d191e481a5b9a5d1a585b1a5e995960921b606482015260840161060c565b6000805460ff191660011790558015611158576000805461ff0019166101001790555b611160611ce1565b611168611d10565b8015610b4f576000805461ff0019169055604051600181527f7f26b83ff96e1f2b6a682f133852f6798a09c465da95921460cefb38474024989060200160405180910390a150565b60cc546001600160a01b031633146111da5760405162461bcd60e51b815260040161060c9061275f565b600091825260cf602052604090912060050180546001600160a01b0319166001600160a01b03909216919091179055565b600083815260cf60205260409020600101546201000090046001600160a01b031633146112665760405162461bcd60e51b81526020600482015260096024820152684e6f2061636365737360b81b604482015260640161060c565b60018251116112b75760405162461bcd60e51b815260206004820152601760248201527f4e6f7420656e6f756768207061727469636970616e7473000000000000000000604482015260640161060c565b8063ffffffff16825110156113215760405162461bcd60e51b815260206004820152602a60248201527f4e6f7420656e6f756768207061727469636970616e747320666f722077696e6e604482015269195c9cc8185b5bdd5b9d60b21b606482015260840161060c565b60cd546040516306c6f7e360e41b81526001600160a01b0390911690636c6f7e3090611355908690869086906004016128b0565b6020604051808303816000875af1158015611374573d6000803e3d6000fd5b505050506040513d601f19601f820116820180604052508101906113989190612916565b50505050565b6003845110156113eb5760405162461bcd60e51b815260206004820152601860248201527710dbdb5b5d5b9a5d1e481b985b59481d1bdbc81cda1bdc9d60421b604482015260640161060c565b600085815260cf6020526040902060018101546201000090046001600160a01b031633146114545760405162461bcd60e51b81526020600482015260166024820152754e6f2061636365737320746f20636f6d6d756e69747960501b604482015260640161060c565b84516114699060068301906020880190612004565b50835161147f9060088301906020870190612004565b50828160010160016101000a81548160ff021916908360018111156114a6576114a661210f565b021790555081516114c09060078301906020850190612004565b50505050505050565b60d06020528160005260406000208181548110610b6e57600080fd5b60c9546001600160a01b0316331461150f5760405162461bcd60e51b815260040161060c9061275f565b600091825260cf602052604090912060020180546001600160a01b0319166001600160a01b03909216919091179055565b60cf602052600090815260409020805460018201546002830154600384015460048501546005860154600687018054969760ff808816986101008904909116976001600160a01b03620100009091048116978116968116958116941692906115a7906127ac565b80601f01602080910402602001604051908101604052809291908181526020018280546115d3906127ac565b80156116205780601f106115f557610100808354040283529160200191611620565b820191906000526020600020905b81548152906001019060200180831161160357829003601f168201915b505050505090806007018054611635906127ac565b80601f0160208091040260200160405190810160405280929190818152602001828054611661906127ac565b80156116ae5780601f10611683576101008083540402835291602001916116ae565b820191906000526020600020905b81548152906001019060200180831161169157829003601f168201915b5050505050908060080180546116c3906127ac565b80601f01602080910402602001604051908101604052809291908181526020018280546116ef906127ac565b801561173c5780601f106117115761010080835404028352916020019161173c565b820191906000526020600020905b81548152906001019060200180831161171f57829003601f168201915b505050505090508b565b60ca546001600160a01b031633146117705760405162461bcd60e51b815260040161060c9061275f565b600091825260cf602052604090912060030180546001600160a01b0319166001600160a01b03909216919091179055565b60038551116117ed5760405162461bcd60e51b815260206004820152601860248201527710dbdb5b5d5b9a5d1e481b985b59481d1bdbc81cda1bdc9d60421b604482015260640161060c565b600160ce6000828254611800919061292f565b909155505060ce546040805161016081019091528181526020810185601481111561182d5761182d61210f565b81526020018460018111156118445761184461210f565b81523360208083019190915260006040808401829052606084018290526080840182905260a0840182905260c084018b905260e0840187905261010090930189905284815260cf825291909120825181559082015160018083018054909160ff1991909116908360148111156118bc576118bc61210f565b021790555060408201518160010160016101000a81548160ff021916908360018111156118eb576118eb61210f565b021790555060608201516001820180546001600160a01b03928316620100000262010000600160b01b031990911617905560808301516002830180549183166001600160a01b031992831617905560a084015160038401805491841691831691909117905560c084015160048401805491841691831691909117905560e08401516005840180549190931691161790556101008201518051611997916006840191602090910190612004565b5061012082015180516119b4916007840191602090910190612004565b5061014082015180516119d1916008840191602090910190612004565b505033600090815260d060209081526040822080546001810182559083529082200183905560d19150856014811115611a0c57611a0c61210f565b6014811115611a1d57611a1d61210f565b81526020808201929092526040016000908120805460018101825590825291902001555050505050565b611a4f611abd565b6001600160a01b038116611ab45760405162461bcd60e51b815260206004820152602660248201527f4f776e61626c653a206e6577206f776e657220697320746865207a65726f206160448201526564647265737360d01b606482015260840161060c565b610b4f81611c8f565b6033546001600160a01b031633146110965760405162461bcd60e51b815260206004820181905260248201527f4f776e61626c653a2063616c6c6572206973206e6f7420746865206f776e6572604482015260640161060c565b610b4f611abd565b7f4910fdfa16fed3260ed0e7147f7cc6da11a60208b5b9406d12a635614ffd91435460ff1615611b5757611b5283611d37565b505050565b826001600160a01b03166352d1902d6040518163ffffffff1660e01b8152600401602060405180830381865afa925050508015611bb1575060408051601f3d908101601f19168201909252611bae91810190612916565b60015b611c145760405162461bcd60e51b815260206004820152602e60248201527f45524331393637557067726164653a206e657720696d706c656d656e7461746960448201526d6f6e206973206e6f74205555505360901b606482015260840161060c565b6000805160206129c28339815191528114611c835760405162461bcd60e51b815260206004820152602960248201527f45524331393637557067726164653a20756e737570706f727465642070726f786044820152681a58589b195555525160ba1b606482015260840161060c565b50611b52838383611dd3565b603380546001600160a01b038381166001600160a01b0319831681179093556040519116919082907f8be0079c531659141344cd1fd0a4f28419497f9722a3daafe3b4186f6b6457e090600090a35050565b600054610100900460ff16611d085760405162461bcd60e51b815260040161060c90612947565b611096611df8565b600054610100900460ff166110965760405162461bcd60e51b815260040161060c90612947565b6001600160a01b0381163b611da45760405162461bcd60e51b815260206004820152602d60248201527f455243313936373a206e657720696d706c656d656e746174696f6e206973206e60448201526c1bdd08184818dbdb9d1c9858dd609a1b606482015260840161060c565b6000805160206129c283398151915280546001600160a01b0319166001600160a01b0392909216919091179055565b611ddc83611e28565b600082511180611de95750805b15611b52576113988383611e68565b600054610100900460ff16611e1f5760405162461bcd60e51b815260040161060c90612947565b61109633611c8f565b611e3181611d37565b6040516001600160a01b038216907fbc7cd75a20ee27fd9adebab32041f755214dbc6bffa90cc0225b39da2e5c2d3b90600090a250565b60606001600160a01b0383163b611ed05760405162461bcd60e51b815260206004820152602660248201527f416464726573733a2064656c65676174652063616c6c20746f206e6f6e2d636f6044820152651b9d1c9858dd60d21b606482015260840161060c565b600080846001600160a01b031684604051611eeb9190612992565b600060405180830381855af49150503d8060008114611f26576040519150601f19603f3d011682016040523d82523d6000602084013e611f2b565b606091505b5091509150611f5382826040518060600160405280602781526020016129e260279139611f5c565b95945050505050565b60608315611f6b575081611f75565b611f758383611f7c565b9392505050565b815115611f8c5781518083602001fd5b8060405162461bcd60e51b815260040161060c91906129ae565b604080516101608101909152600080825260208201908152602001600081526000602082018190526040820181905260608083018290526080830182905260a083019190915260c0820181905260e082018190526101009091015290565b828054612010906127ac565b90600052602060002090601f0160209004810192826120325760008555612078565b82601f1061204b57805160ff1916838001178555612078565b82800160010185558215612078579182015b8281111561207857825182559160200191906001019061205d565b50612084929150612088565b5090565b5b808211156120845760008155600101612089565b80356001600160a01b03811681146120b457600080fd5b919050565b600080604083850312156120cc57600080fd5b823591506120dc6020840161209d565b90509250929050565b8035601581106120b457600080fd5b60006020828403121561210657600080fd5b611f75826120e5565b634e487b7160e01b600052602160045260246000fd5b601581106121355761213561210f565b9052565b600281106121355761213561210f565b60005b8381101561216457818101518382015260200161214c565b838111156113985750506000910152565b6000815180845261218d816020860160208601612149565b601f01601f19169290920160200192915050565b60006020808301818452808551808352604092508286019150828160051b87010184880160005b838110156122b557603f19898403018552815161016081518552888201516121f28a870182612125565b508782015161220389870182612139565b506060828101516001600160a01b039081169187019190915260808084015182169087015260a08084015182169087015260c08084015182169087015260e080840151909116908601526101008083015181870183905261226683880182612175565b9250505061012080830151868303828801526122828382612175565b9250505061014080830151925085820381870152506122a18183612175565b9689019694505050908601906001016121c8565b509098975050505050505050565b600080600080600060a086880312156122db57600080fd5b6122e48661209d565b94506122f26020870161209d565b93506123006040870161209d565b925061230e6060870161209d565b915061231c6080870161209d565b90509295509295909350565b60006020828403121561233a57600080fd5b611f758261209d565b6000806040838503121561235657600080fd5b61235f836120e5565b946020939093013593505050565b634e487b7160e01b600052604160045260246000fd5b604051601f8201601f1916810167ffffffffffffffff811182821017156123ac576123ac61236d565b604052919050565b600067ffffffffffffffff8311156123ce576123ce61236d565b6123e1601f8401601f1916602001612383565b90508281528383830111156123f557600080fd5b828260208301376000602084830101529392505050565b6000806040838503121561241f57600080fd5b6124288361209d565b9150602083013567ffffffffffffffff81111561244457600080fd5b8301601f8101851361245557600080fd5b612464858235602084016123b4565b9150509250929050565b803563ffffffff811681146120b457600080fd5b60008060006060848603121561249757600080fd5b8335925060208085013567ffffffffffffffff808211156124b757600080fd5b818701915087601f8301126124cb57600080fd5b8135818111156124dd576124dd61236d565b8060051b91506124ee848301612383565b818152918301840191848101908a84111561250857600080fd5b938501935b8385101561252d5761251e8561209d565b8252938501939085019061250d565b8097505050505050506125426040850161246e565b90509250925092565b600082601f83011261255c57600080fd5b611f75838335602085016123b4565b8035600281106120b457600080fd5b600080600080600060a0868803121561259257600080fd5b85359450602086013567ffffffffffffffff808211156125b157600080fd5b6125bd89838a0161254b565b955060408801359150808211156125d357600080fd5b6125df89838a0161254b565b94506125ed6060890161256b565b9350608088013591508082111561260357600080fd5b506126108882890161254b565b9150509295509295909350565b60006020828403121561262f57600080fd5b5035919050565b6000806040838503121561264957600080fd5b61235f8361209d565b60006101608d8352612667602084018e612125565b612674604084018d612139565b6001600160a01b038b811660608501528a8116608085015289811660a085015288811660c0850152871660e084015261010083018190526126b781840187612175565b90508281036101208401526126cc8186612175565b90508281036101408401526126e18185612175565b9e9d5050505050505050505050505050565b600080600080600060a0868803121561270b57600080fd5b853567ffffffffffffffff8082111561272357600080fd5b61272f89838a0161254b565b9650602088013591508082111561274557600080fd5b61275189838a0161254b565b95506125df604089016120e5565b60208082526019908201527f4e6f2041636365737320666f72207468697320616374696f6e00000000000000604082015260600190565b634e487b7160e01b600052603260045260246000fd5b600181811c908216806127c057607f821691505b602082108114156127e157634e487b7160e01b600052602260045260246000fd5b50919050565b634e487b7160e01b600052601160045260246000fd5b6000600019821415612811576128116127e7565b5060010190565b6020808252602c908201527f46756e6374696f6e206d7573742062652063616c6c6564207468726f7567682060408201526b19195b1959d85d1958d85b1b60a21b606082015260800190565b6020808252602c908201527f46756e6374696f6e206d7573742062652063616c6c6564207468726f7567682060408201526b6163746976652070726f787960a01b606082015260800190565b6000606082018583526020606081850152818651808452608086019150828801935060005b818110156128fa5784516001600160a01b0316835293830193918301916001016128d5565b505080935050505063ffffffff83166040830152949350505050565b60006020828403121561292857600080fd5b5051919050565b60008219821115612942576129426127e7565b500190565b6020808252602b908201527f496e697469616c697a61626c653a20636f6e7472616374206973206e6f74206960408201526a6e697469616c697a696e6760a81b606082015260800190565b600082516129a4818460208701612149565b9190910192915050565b602081526000611f75602083018461217556fe360894a13ba1a3210667c828492db98dca3e2076cc3735a920a3ca505d382bbc416464726573733a206c6f772d6c6576656c2064656c65676174652063616c6c206661696c6564a2646970667358221220d436110bab8b8aeab766a5fdf4aaae84dbb541ca7a461e58023d8d05eac8af9b64736f6c634300080c0033",
  "linkReferences": {},
  "deployedLinkReferences": {}
}