{
  "_format": "hh-sol-artifact-1",
  "contractName": "MainContract",
  "sourceName": "src/backend/contracts/MainContract.sol",
  "abi": [
    {
      "inputs": [],
      "stateMutability": "nonpayable",
      "type": "constructor"
    },
    {
      "anonymous": false,
      "inputs": [
        {
          "indexed": false,
          "internalType": "address",
          "name": "previousAdmin",
          "type": "address"
        },
        {
          "indexed": false,
          "internalType": "address",
          "name": "newAdmin",
          "type": "address"
        }
      ],
      "name": "AdminChanged",
      "type": "event"
    },
    {
      "anonymous": false,
      "inputs": [
        {
          "indexed": true,
          "internalType": "address",
          "name": "beacon",
          "type": "address"
        }
      ],
      "name": "BeaconUpgraded",
      "type": "event"
    },
    {
      "anonymous": false,
      "inputs": [
        {
          "indexed": false,
          "internalType": "uint8",
          "name": "version",
          "type": "uint8"
        }
      ],
      "name": "Initialized",
      "type": "event"
    },
    {
      "anonymous": false,
      "inputs": [
        {
          "indexed": true,
          "internalType": "address",
          "name": "previousOwner",
          "type": "address"
        },
        {
          "indexed": true,
          "internalType": "address",
          "name": "newOwner",
          "type": "address"
        }
      ],
      "name": "OwnershipTransferred",
      "type": "event"
    },
    {
      "anonymous": false,
      "inputs": [
        {
          "indexed": true,
          "internalType": "address",
          "name": "implementation",
          "type": "address"
        }
      ],
      "name": "Upgraded",
      "type": "event"
    },
    {
      "inputs": [
        {
          "internalType": "enum MainContract.CommunityCategory",
          "name": "",
          "type": "uint8"
        },
        {
          "internalType": "uint256",
          "name": "",
          "type": "uint256"
        }
      ],
      "name": "categoryCommunities",
      "outputs": [
        {
          "internalType": "uint256",
          "name": "",
          "type": "uint256"
        }
      ],
      "stateMutability": "view",
      "type": "function"
    },
    {
      "inputs": [
        {
          "internalType": "uint256",
          "name": "",
          "type": "uint256"
        }
      ],
      "name": "communities",
      "outputs": [
        {
          "internalType": "uint256",
          "name": "id",
          "type": "uint256"
        },
        {
          "internalType": "enum MainContract.CommunityCategory",
          "name": "category",
          "type": "uint8"
        },
        {
          "internalType": "enum MainContract.CommunityPrivacy",
          "name": "privacy",
          "type": "uint8"
        },
        {
          "internalType": "address",
          "name": "owner",
          "type": "address"
        },
        {
          "internalType": "address",
          "name": "nftContract",
          "type": "address"
        },
        {
          "internalType": "address",
          "name": "ftContract",
          "type": "address"
        },
        {
          "internalType": "address",
          "name": "membersContract",
          "type": "address"
        },
        {
          "internalType": "string",
          "name": "name",
          "type": "string"
        },
        {
          "internalType": "string",
          "name": "description",
          "type": "string"
        },
        {
          "internalType": "string",
          "name": "logo",
          "type": "string"
        }
      ],
      "stateMutability": "view",
      "type": "function"
    },
    {
      "inputs": [],
      "name": "communityCount",
      "outputs": [
        {
          "internalType": "uint256",
          "name": "",
          "type": "uint256"
        }
      ],
      "stateMutability": "view",
      "type": "function"
    },
    {
      "inputs": [
        {
          "internalType": "string",
          "name": "_name",
          "type": "string"
        },
        {
          "internalType": "string",
          "name": "_logo",
          "type": "string"
        },
        {
          "internalType": "enum MainContract.CommunityCategory",
          "name": "_category",
          "type": "uint8"
        },
        {
          "internalType": "enum MainContract.CommunityPrivacy",
          "name": "_privacy",
          "type": "uint8"
        },
        {
          "internalType": "string",
          "name": "_description",
          "type": "string"
        }
      ],
      "name": "createCommunity",
      "outputs": [],
      "stateMutability": "nonpayable",
      "type": "function"
    },
    {
      "inputs": [
        {
          "internalType": "enum MainContract.CommunityCategory",
          "name": "_categoryId",
          "type": "uint8"
        }
      ],
      "name": "getCategoryCommunities",
      "outputs": [
        {
          "components": [
            {
              "internalType": "uint256",
              "name": "id",
              "type": "uint256"
            },
            {
              "internalType": "enum MainContract.CommunityCategory",
              "name": "category",
              "type": "uint8"
            },
            {
              "internalType": "enum MainContract.CommunityPrivacy",
              "name": "privacy",
              "type": "uint8"
            },
            {
              "internalType": "address",
              "name": "owner",
              "type": "address"
            },
            {
              "internalType": "address",
              "name": "nftContract",
              "type": "address"
            },
            {
              "internalType": "address",
              "name": "ftContract",
              "type": "address"
            },
            {
              "internalType": "address",
              "name": "membersContract",
              "type": "address"
            },
            {
              "internalType": "string",
              "name": "name",
              "type": "string"
            },
            {
              "internalType": "string",
              "name": "description",
              "type": "string"
            },
            {
              "internalType": "string",
              "name": "logo",
              "type": "string"
            }
          ],
          "internalType": "struct MainContract.Community[]",
          "name": "",
          "type": "tuple[]"
        }
      ],
      "stateMutability": "view",
      "type": "function"
    },
    {
      "inputs": [
        {
          "internalType": "address",
          "name": "_owner",
          "type": "address"
        }
      ],
      "name": "getUserCommunities",
      "outputs": [
        {
          "components": [
            {
              "internalType": "uint256",
              "name": "id",
              "type": "uint256"
            },
            {
              "internalType": "enum MainContract.CommunityCategory",
              "name": "category",
              "type": "uint8"
            },
            {
              "internalType": "enum MainContract.CommunityPrivacy",
              "name": "privacy",
              "type": "uint8"
            },
            {
              "internalType": "address",
              "name": "owner",
              "type": "address"
            },
            {
              "internalType": "address",
              "name": "nftContract",
              "type": "address"
            },
            {
              "internalType": "address",
              "name": "ftContract",
              "type": "address"
            },
            {
              "internalType": "address",
              "name": "membersContract",
              "type": "address"
            },
            {
              "internalType": "string",
              "name": "name",
              "type": "string"
            },
            {
              "internalType": "string",
              "name": "description",
              "type": "string"
            },
            {
              "internalType": "string",
              "name": "logo",
              "type": "string"
            }
          ],
          "internalType": "struct MainContract.Community[]",
          "name": "",
          "type": "tuple[]"
        }
      ],
      "stateMutability": "view",
      "type": "function"
    },
    {
      "inputs": [],
      "name": "initialize",
      "outputs": [],
      "stateMutability": "nonpayable",
      "type": "function"
    },
    {
      "inputs": [
        {
          "internalType": "uint256",
          "name": "_id",
          "type": "uint256"
        }
      ],
      "name": "isContractExists",
      "outputs": [
        {
          "internalType": "bool",
          "name": "",
          "type": "bool"
        },
        {
          "internalType": "bool",
          "name": "",
          "type": "bool"
        }
      ],
      "stateMutability": "view",
      "type": "function"
    },
    {
      "inputs": [],
      "name": "owner",
      "outputs": [
        {
          "internalType": "address",
          "name": "",
          "type": "address"
        }
      ],
      "stateMutability": "view",
      "type": "function"
    },
    {
      "inputs": [],
      "name": "proxiableUUID",
      "outputs": [
        {
          "internalType": "bytes32",
          "name": "",
          "type": "bytes32"
        }
      ],
      "stateMutability": "view",
      "type": "function"
    },
    {
      "inputs": [],
      "name": "renounceOwnership",
      "outputs": [],
      "stateMutability": "nonpayable",
      "type": "function"
    },
    {
      "inputs": [
        {
          "internalType": "address",
          "name": "newOwner",
          "type": "address"
        }
      ],
      "name": "transferOwnership",
      "outputs": [],
      "stateMutability": "nonpayable",
      "type": "function"
    },
    {
      "inputs": [
        {
          "internalType": "uint256",
          "name": "_id",
          "type": "uint256"
        },
        {
          "internalType": "string",
          "name": "_name",
          "type": "string"
        },
        {
          "internalType": "string",
          "name": "_logo",
          "type": "string"
        },
        {
          "internalType": "enum MainContract.CommunityPrivacy",
          "name": "_privacy",
          "type": "uint8"
        },
        {
          "internalType": "string",
          "name": "_description",
          "type": "string"
        }
      ],
      "name": "updateCommunity",
      "outputs": [],
      "stateMutability": "nonpayable",
      "type": "function"
    },
    {
      "inputs": [
        {
          "internalType": "uint256",
          "name": "_id",
          "type": "uint256"
        },
        {
          "internalType": "address",
          "name": "_ftContract",
          "type": "address"
        }
      ],
      "name": "updateCommunityFT",
      "outputs": [],
      "stateMutability": "nonpayable",
      "type": "function"
    },
    {
      "inputs": [
        {
          "internalType": "uint256",
          "name": "_id",
          "type": "uint256"
        },
        {
          "internalType": "address",
          "name": "_nftContract",
          "type": "address"
        }
      ],
      "name": "updateCommunityNFT",
      "outputs": [],
      "stateMutability": "nonpayable",
      "type": "function"
    },
    {
      "inputs": [
        {
          "internalType": "address",
          "name": "_factoryNFTContract",
          "type": "address"
        },
        {
          "internalType": "address",
          "name": "_factoryFTContract",
          "type": "address"
        }
      ],
      "name": "updateFactoryContractsAddress",
      "outputs": [],
      "stateMutability": "nonpayable",
      "type": "function"
    },
    {
      "inputs": [
        {
          "internalType": "address",
          "name": "newImplementation",
          "type": "address"
        }
      ],
      "name": "upgradeTo",
      "outputs": [],
      "stateMutability": "nonpayable",
      "type": "function"
    },
    {
      "inputs": [
        {
          "internalType": "address",
          "name": "newImplementation",
          "type": "address"
        },
        {
          "internalType": "bytes",
          "name": "data",
          "type": "bytes"
        }
      ],
      "name": "upgradeToAndCall",
      "outputs": [],
      "stateMutability": "payable",
      "type": "function"
    },
    {
      "inputs": [
        {
          "internalType": "address",
          "name": "",
          "type": "address"
        },
        {
          "internalType": "uint256",
          "name": "",
          "type": "uint256"
        }
      ],
      "name": "userCommunities",
      "outputs": [
        {
          "internalType": "uint256",
          "name": "",
          "type": "uint256"
        }
      ],
      "stateMutability": "view",
      "type": "function"
    }
  ],
  "bytecode": "0x60a06040523060805234801561001457600080fd5b5061001d610022565b6100e2565b600054610100900460ff161561008e5760405162461bcd60e51b815260206004820152602760248201527f496e697469616c697a61626c653a20636f6e747261637420697320696e697469604482015266616c697a696e6760c81b606482015260840160405180910390fd5b60005460ff90811610156100e0576000805460ff191660ff9081179091556040519081527f7f26b83ff96e1f2b6a682f133852f6798a09c465da95921460cefb38474024989060200160405180910390a15b565b6080516123ff6200011a60003960008181610789015281816107d2015281816108a3015281816108e3015261097601526123ff6000f3fe6080604052600436106101145760003560e01c80638da5cb5b116100a0578063e00f786511610064578063e00f78651461030f578063e590b56a1461032f578063e87d940b14610365578063e8cc13c014610385578063f2fde38b146103a557600080fd5b80638da5cb5b14610231578063aee8461314610259578063af1af3dc1461026f578063b64b7f761461028f578063dd446001146102ef57600080fd5b806352d1902d116100e757806352d1902d146101b25780636543286f146101c7578063715018a6146101e757806380c75be3146101fc5780638129fc1c1461021c57600080fd5b8063266682cb146101195780633659cfe61461014f5780633c44f002146101715780634f1ef2861461019f575b600080fd5b34801561012557600080fd5b50610139610134366004611c51565b6103c5565b6040516101469190611cfe565b60405180910390f35b34801561015b57600080fd5b5061016f61016a366004611e2a565b61077e565b005b34801561017d57600080fd5b5061019161018c366004611e45565b610867565b604051908152602001610146565b61016f6101ad366004611efb565b610898565b3480156101be57600080fd5b50610191610969565b3480156101d357600080fd5b506101396101e2366004611e2a565b610a1c565b3480156101f357600080fd5b5061016f610d8d565b34801561020857600080fd5b5061016f610217366004611f5d565b610da1565b34801561022857600080fd5b5061016f610dd7565b34801561023d57600080fd5b506033546040516001600160a01b039091168152602001610146565b34801561026557600080fd5b5061019160cb5481565b34801561027b57600080fd5b5061016f61028a366004611fbf565b610eef565b34801561029b57600080fd5b506102d86102aa366004612062565b600090815260cc6020526040902060028101546003909101546001600160a01b039182161515929116151590565b604080519215158352901515602083015201610146565b3480156102fb57600080fd5b5061019161030a36600461207b565b61101a565b34801561031b57600080fd5b5061016f61032a366004612097565b611036565b34801561033b57600080fd5b5061034f61034a366004612062565b6110bd565b6040516101469a999897969594939291906120ba565b34801561037157600080fd5b5061016f610380366004612097565b6112bb565b34801561039157600080fd5b5061016f6103a0366004612151565b611342565b3480156103b157600080fd5b5061016f6103c0366004611e2a565b6115c7565b6060600060ce60008460148111156103df576103df611c6c565b60148111156103f0576103f0611c6c565b815260200190815260200160002080549050905060008167ffffffffffffffff81111561041f5761041f611e6f565b60405190808252806020026020018201604052801561045857816020015b610445611b2c565b81526020019060019003908161043d5790505b50905060005b828110156107765760cc600060ce600088601481111561048057610480611c6c565b601481111561049157610491611c6c565b815260200190815260200160002083815481106104b0576104b06121bd565b9060005260206000200154815260200190815260200160002060405180610140016040529081600082015481526020016001820160009054906101000a900460ff16601481111561050357610503611c6c565b601481111561051457610514611c6c565b81526020016001820160019054906101000a900460ff16600181111561053c5761053c611c6c565b600181111561054d5761054d611c6c565b815260018201546001600160a01b036201000090910481166020830152600283015481166040830152600383015481166060830152600483015416608082015260058201805460a0909201916105a2906121d3565b80601f01602080910402602001604051908101604052809291908181526020018280546105ce906121d3565b801561061b5780601f106105f05761010080835404028352916020019161061b565b820191906000526020600020905b8154815290600101906020018083116105fe57829003601f168201915b50505050508152602001600682018054610634906121d3565b80601f0160208091040260200160405190810160405280929190818152602001828054610660906121d3565b80156106ad5780601f10610682576101008083540402835291602001916106ad565b820191906000526020600020905b81548152906001019060200180831161069057829003601f168201915b505050505081526020016007820180546106c6906121d3565b80601f01602080910402602001604051908101604052809291908181526020018280546106f2906121d3565b801561073f5780601f106107145761010080835404028352916020019161073f565b820191906000526020600020905b81548152906001019060200180831161072257829003601f168201915b50505050508152505082828151811061075a5761075a6121bd565b60200260200101819052508061076f90612224565b905061045e565b509392505050565b306001600160a01b037f00000000000000000000000000000000000000000000000000000000000000001614156107d05760405162461bcd60e51b81526004016107c79061223f565b60405180910390fd5b7f00000000000000000000000000000000000000000000000000000000000000006001600160a01b0316610819600080516020612383833981519152546001600160a01b031690565b6001600160a01b03161461083f5760405162461bcd60e51b81526004016107c79061228b565b6108488161163d565b6040805160008082526020820190925261086491839190611645565b50565b60ce602052816000526040600020818154811061088357600080fd5b90600052602060002001600091509150505481565b306001600160a01b037f00000000000000000000000000000000000000000000000000000000000000001614156108e15760405162461bcd60e51b81526004016107c79061223f565b7f00000000000000000000000000000000000000000000000000000000000000006001600160a01b031661092a600080516020612383833981519152546001600160a01b031690565b6001600160a01b0316146109505760405162461bcd60e51b81526004016107c79061228b565b6109598261163d565b61096582826001611645565b5050565b6000306001600160a01b037f00000000000000000000000000000000000000000000000000000000000000001614610a095760405162461bcd60e51b815260206004820152603860248201527f555550535570677261646561626c653a206d757374206e6f742062652063616c60448201527f6c6564207468726f7567682064656c656761746563616c6c000000000000000060648201526084016107c7565b5060008051602061238383398151915290565b6001600160a01b038116600090815260cd60205260408120546060918167ffffffffffffffff811115610a5157610a51611e6f565b604051908082528060200260200182016040528015610a8a57816020015b610a77611b2c565b815260200190600190039081610a6f5790505b50905060005b82811015610776576001600160a01b038516600090815260cd60205260408120805460cc92919084908110610ac757610ac76121bd565b9060005260206000200154815260200190815260200160002060405180610140016040529081600082015481526020016001820160009054906101000a900460ff166014811115610b1a57610b1a611c6c565b6014811115610b2b57610b2b611c6c565b81526020016001820160019054906101000a900460ff166001811115610b5357610b53611c6c565b6001811115610b6457610b64611c6c565b815260018201546001600160a01b036201000090910481166020830152600283015481166040830152600383015481166060830152600483015416608082015260058201805460a090920191610bb9906121d3565b80601f0160208091040260200160405190810160405280929190818152602001828054610be5906121d3565b8015610c325780601f10610c0757610100808354040283529160200191610c32565b820191906000526020600020905b815481529060010190602001808311610c1557829003601f168201915b50505050508152602001600682018054610c4b906121d3565b80601f0160208091040260200160405190810160405280929190818152602001828054610c77906121d3565b8015610cc45780601f10610c9957610100808354040283529160200191610cc4565b820191906000526020600020905b815481529060010190602001808311610ca757829003601f168201915b50505050508152602001600782018054610cdd906121d3565b80601f0160208091040260200160405190810160405280929190818152602001828054610d09906121d3565b8015610d565780601f10610d2b57610100808354040283529160200191610d56565b820191906000526020600020905b815481529060010190602001808311610d3957829003601f168201915b505050505081525050828281518110610d7157610d716121bd565b602002602001018190525080610d8690612224565b9050610a90565b610d956117b5565b610d9f600061180f565b565b610da96117b5565b60c980546001600160a01b039384166001600160a01b03199182161790915560ca8054929093169116179055565b600054610100900460ff1615808015610df75750600054600160ff909116105b80610e115750303b158015610e11575060005460ff166001145b610e745760405162461bcd60e51b815260206004820152602e60248201527f496e697469616c697a61626c653a20636f6e747261637420697320616c72656160448201526d191e481a5b9a5d1a585b1a5e995960921b60648201526084016107c7565b6000805460ff191660011790558015610e97576000805461ff0019166101001790555b610e9f611861565b610ea7611890565b8015610864576000805461ff0019169055604051600181527f7f26b83ff96e1f2b6a682f133852f6798a09c465da95921460cefb38474024989060200160405180910390a150565b600384511015610f3c5760405162461bcd60e51b815260206004820152601860248201527710dbdb5b5d5b9a5d1e481b985b59481d1bdbc81cda1bdc9d60421b60448201526064016107c7565b600085815260cc6020526040902060018101546201000090046001600160a01b03163314610fa55760405162461bcd60e51b81526020600482015260166024820152754e6f2061636365737320746f20636f6d6d756e69747960501b60448201526064016107c7565b8451610fba9060058301906020880190611ba4565b508351610fd09060078301906020870190611ba4565b50828160010160016101000a81548160ff02191690836001811115610ff757610ff7611c6c565b021790555081516110119060068301906020850190611ba4565b50505050505050565b60cd602052816000526040600020818154811061088357600080fd5b60c9546001600160a01b0316331461108c5760405162461bcd60e51b815260206004820152601960248201527827379020b1b1b2b9b9903337b9103a3434b99030b1ba34b7b760391b60448201526064016107c7565b600091825260cc602052604090912060020180546001600160a01b0319166001600160a01b03909216919091179055565b60cc60205260009081526040902080546001820154600283015460038401546004850154600586018054959660ff808716976101008804909116966001600160a01b036201000090910481169681169581169416929061111c906121d3565b80601f0160208091040260200160405190810160405280929190818152602001828054611148906121d3565b80156111955780601f1061116a57610100808354040283529160200191611195565b820191906000526020600020905b81548152906001019060200180831161117857829003601f168201915b5050505050908060060180546111aa906121d3565b80601f01602080910402602001604051908101604052809291908181526020018280546111d6906121d3565b80156112235780601f106111f857610100808354040283529160200191611223565b820191906000526020600020905b81548152906001019060200180831161120657829003601f168201915b505050505090806007018054611238906121d3565b80601f0160208091040260200160405190810160405280929190818152602001828054611264906121d3565b80156112b15780601f10611286576101008083540402835291602001916112b1565b820191906000526020600020905b81548152906001019060200180831161129457829003601f168201915b505050505090508a565b60ca546001600160a01b031633146113115760405162461bcd60e51b815260206004820152601960248201527827379020b1b1b2b9b9903337b9103a3434b99030b1ba34b7b760391b60448201526064016107c7565b600091825260cc602052604090912060030180546001600160a01b0319166001600160a01b03909216919091179055565b600385511161138e5760405162461bcd60e51b815260206004820152601860248201527710dbdb5b5d5b9a5d1e481b985b59481d1bdbc81cda1bdc9d60421b60448201526064016107c7565b600160cb60008282546113a191906122d7565b909155505060cb54604080516101408101909152818152602081018560148111156113ce576113ce611c6c565b81526020018460018111156113e5576113e5611c6c565b81523360208083019190915260006040808401829052606084018290526080840182905260a084018b905260c0840187905260e090930189905284815260cc825291909120825181559082015160018083018054909160ff199091169083601481111561145457611454611c6c565b021790555060408201518160010160016101000a81548160ff0219169083600181111561148357611483611c6c565b021790555060608201516001820180546001600160a01b03928316620100000262010000600160b01b031990911617905560808301516002830180549183166001600160a01b031992831617905560a084015160038401805491841691831691909117905560c084015160048401805491909316911617905560e08201518051611517916005840191602090910190611ba4565b506101008201518051611534916006840191602090910190611ba4565b506101208201518051611551916007840191602090910190611ba4565b505033600090815260cd60209081526040822080546001810182559083529082200183905560ce915085601481111561158c5761158c611c6c565b601481111561159d5761159d611c6c565b81526020808201929092526040016000908120805460018101825590825291902001555050505050565b6115cf6117b5565b6001600160a01b0381166116345760405162461bcd60e51b815260206004820152602660248201527f4f776e61626c653a206e6577206f776e657220697320746865207a65726f206160448201526564647265737360d01b60648201526084016107c7565b6108648161180f565b6108646117b5565b7f4910fdfa16fed3260ed0e7147f7cc6da11a60208b5b9406d12a635614ffd91435460ff161561167d57611678836118b7565b505050565b826001600160a01b03166352d1902d6040518163ffffffff1660e01b8152600401602060405180830381865afa9250505080156116d7575060408051601f3d908101601f191682019092526116d4918101906122ef565b60015b61173a5760405162461bcd60e51b815260206004820152602e60248201527f45524331393637557067726164653a206e657720696d706c656d656e7461746960448201526d6f6e206973206e6f74205555505360901b60648201526084016107c7565b60008051602061238383398151915281146117a95760405162461bcd60e51b815260206004820152602960248201527f45524331393637557067726164653a20756e737570706f727465642070726f786044820152681a58589b195555525160ba1b60648201526084016107c7565b50611678838383611953565b6033546001600160a01b03163314610d9f5760405162461bcd60e51b815260206004820181905260248201527f4f776e61626c653a2063616c6c6572206973206e6f7420746865206f776e657260448201526064016107c7565b603380546001600160a01b038381166001600160a01b0319831681179093556040519116919082907f8be0079c531659141344cd1fd0a4f28419497f9722a3daafe3b4186f6b6457e090600090a35050565b600054610100900460ff166118885760405162461bcd60e51b81526004016107c790612308565b610d9f61197e565b600054610100900460ff16610d9f5760405162461bcd60e51b81526004016107c790612308565b6001600160a01b0381163b6119245760405162461bcd60e51b815260206004820152602d60248201527f455243313936373a206e657720696d706c656d656e746174696f6e206973206e60448201526c1bdd08184818dbdb9d1c9858dd609a1b60648201526084016107c7565b60008051602061238383398151915280546001600160a01b0319166001600160a01b0392909216919091179055565b61195c836119ae565b6000825111806119695750805b156116785761197883836119ee565b50505050565b600054610100900460ff166119a55760405162461bcd60e51b81526004016107c790612308565b610d9f3361180f565b6119b7816118b7565b6040516001600160a01b038216907fbc7cd75a20ee27fd9adebab32041f755214dbc6bffa90cc0225b39da2e5c2d3b90600090a250565b60606001600160a01b0383163b611a565760405162461bcd60e51b815260206004820152602660248201527f416464726573733a2064656c65676174652063616c6c20746f206e6f6e2d636f6044820152651b9d1c9858dd60d21b60648201526084016107c7565b600080846001600160a01b031684604051611a719190612353565b600060405180830381855af49150503d8060008114611aac576040519150601f19603f3d011682016040523d82523d6000602084013e611ab1565b606091505b5091509150611ad982826040518060600160405280602781526020016123a360279139611ae2565b95945050505050565b60608315611af1575081611afb565b611afb8383611b02565b9392505050565b815115611b125781518083602001fd5b8060405162461bcd60e51b81526004016107c7919061236f565b6040805161014081019091526000808252602082019081526020016000815260200160006001600160a01b0316815260200160006001600160a01b0316815260200160006001600160a01b0316815260200160006001600160a01b031681526020016060815260200160608152602001606081525090565b828054611bb0906121d3565b90600052602060002090601f016020900481019282611bd25760008555611c18565b82601f10611beb57805160ff1916838001178555611c18565b82800160010185558215611c18579182015b82811115611c18578251825591602001919060010190611bfd565b50611c24929150611c28565b5090565b5b80821115611c245760008155600101611c29565b803560158110611c4c57600080fd5b919050565b600060208284031215611c6357600080fd5b611afb82611c3d565b634e487b7160e01b600052602160045260246000fd5b60158110611c9257611c92611c6c565b9052565b60028110611c9257611c92611c6c565b60005b83811015611cc1578181015183820152602001611ca9565b838111156119785750506000910152565b60008151808452611cea816020860160208601611ca6565b601f01601f19169290920160200192915050565b60006020808301818452808551808352604092508286019150828160051b87010184880160005b83811015611e0557603f1989840301855281516101408151855288820151611d4f8a870182611c82565b5087820151611d6089870182611c96565b506060828101516001600160a01b039081169187019190915260808084015182169087015260a08084015182169087015260c0808401519091169086015260e080830151818701839052611db683880182611cd2565b925050506101008083015186830382880152611dd28382611cd2565b925050506101208083015192508582038187015250611df18183611cd2565b968901969450505090860190600101611d25565b509098975050505050505050565b80356001600160a01b0381168114611c4c57600080fd5b600060208284031215611e3c57600080fd5b611afb82611e13565b60008060408385031215611e5857600080fd5b611e6183611c3d565b946020939093013593505050565b634e487b7160e01b600052604160045260246000fd5b600067ffffffffffffffff80841115611ea057611ea0611e6f565b604051601f8501601f19908116603f01168101908282118183101715611ec857611ec8611e6f565b81604052809350858152868686011115611ee157600080fd5b858560208301376000602087830101525050509392505050565b60008060408385031215611f0e57600080fd5b611f1783611e13565b9150602083013567ffffffffffffffff811115611f3357600080fd5b8301601f81018513611f4457600080fd5b611f5385823560208401611e85565b9150509250929050565b60008060408385031215611f7057600080fd5b611f7983611e13565b9150611f8760208401611e13565b90509250929050565b600082601f830112611fa157600080fd5b611afb83833560208501611e85565b803560028110611c4c57600080fd5b600080600080600060a08688031215611fd757600080fd5b85359450602086013567ffffffffffffffff80821115611ff657600080fd5b61200289838a01611f90565b9550604088013591508082111561201857600080fd5b61202489838a01611f90565b945061203260608901611fb0565b9350608088013591508082111561204857600080fd5b5061205588828901611f90565b9150509295509295909350565b60006020828403121561207457600080fd5b5035919050565b6000806040838503121561208e57600080fd5b611e6183611e13565b600080604083850312156120aa57600080fd5b82359150611f8760208401611e13565b60006101408c83526120cf602084018d611c82565b6120dc604084018c611c96565b6001600160a01b038a81166060850152898116608085015288811660a0850152871660c084015260e0830181905261211681840187611cd2565b905082810361010084015261212b8186611cd2565b90508281036101208401526121408185611cd2565b9d9c50505050505050505050505050565b600080600080600060a0868803121561216957600080fd5b853567ffffffffffffffff8082111561218157600080fd5b61218d89838a01611f90565b965060208801359150808211156121a357600080fd5b6121af89838a01611f90565b955061202460408901611c3d565b634e487b7160e01b600052603260045260246000fd5b600181811c908216806121e757607f821691505b6020821081141561220857634e487b7160e01b600052602260045260246000fd5b50919050565b634e487b7160e01b600052601160045260246000fd5b60006000198214156122385761223861220e565b5060010190565b6020808252602c908201527f46756e6374696f6e206d7573742062652063616c6c6564207468726f7567682060408201526b19195b1959d85d1958d85b1b60a21b606082015260800190565b6020808252602c908201527f46756e6374696f6e206d7573742062652063616c6c6564207468726f7567682060408201526b6163746976652070726f787960a01b606082015260800190565b600082198211156122ea576122ea61220e565b500190565b60006020828403121561230157600080fd5b5051919050565b6020808252602b908201527f496e697469616c697a61626c653a20636f6e7472616374206973206e6f74206960408201526a6e697469616c697a696e6760a81b606082015260800190565b60008251612365818460208701611ca6565b9190910192915050565b602081526000611afb6020830184611cd256fe360894a13ba1a3210667c828492db98dca3e2076cc3735a920a3ca505d382bbc416464726573733a206c6f772d6c6576656c2064656c65676174652063616c6c206661696c6564a2646970667358221220f4e43d046ec3cf8cfd0e625706255c1e64b1d7e58f9bafad2de807db090a216764736f6c634300080c0033",
  "linkReferences": {},
  "deployedLinkReferences": {}
}