{
  "_format": "hh-sol-artifact-1",
  "contractName": "ChainlinkVRF",
  "sourceName": "src/backend/contracts/ChainlinkVRF.sol",
  "abi": [
    {
      "inputs": [
        {
          "internalType": "address",
          "name": "_mainContractAddress",
          "type": "address"
        },
        {
          "internalType": "uint64",
          "name": "_subscriptionId",
          "type": "uint64"
        },
        {
          "internalType": "address",
          "name": "_coordinator",
          "type": "address"
        },
        {
          "internalType": "bytes32",
          "name": "_keyHash",
          "type": "bytes32"
        }
      ],
      "stateMutability": "nonpayable",
      "type": "constructor"
    },
    {
      "inputs": [
        {
          "internalType": "address",
          "name": "have",
          "type": "address"
        },
        {
          "internalType": "address",
          "name": "want",
          "type": "address"
        }
      ],
      "name": "OnlyCoordinatorCanFulfill",
      "type": "error"
    },
    {
      "anonymous": false,
      "inputs": [
        {
          "indexed": true,
          "internalType": "address",
          "name": "from",
          "type": "address"
        },
        {
          "indexed": true,
          "internalType": "address",
          "name": "to",
          "type": "address"
        }
      ],
      "name": "OwnershipTransferRequested",
      "type": "event"
    },
    {
      "anonymous": false,
      "inputs": [
        {
          "indexed": true,
          "internalType": "address",
          "name": "from",
          "type": "address"
        },
        {
          "indexed": true,
          "internalType": "address",
          "name": "to",
          "type": "address"
        }
      ],
      "name": "OwnershipTransferred",
      "type": "event"
    },
    {
      "anonymous": false,
      "inputs": [
        {
          "indexed": false,
          "internalType": "uint256",
          "name": "requestId",
          "type": "uint256"
        },
        {
          "indexed": false,
          "internalType": "uint256[]",
          "name": "randomWords",
          "type": "uint256[]"
        }
      ],
      "name": "RequestFulfilled",
      "type": "event"
    },
    {
      "anonymous": false,
      "inputs": [
        {
          "indexed": false,
          "internalType": "uint256",
          "name": "requestId",
          "type": "uint256"
        },
        {
          "indexed": false,
          "internalType": "uint32",
          "name": "numWords",
          "type": "uint32"
        }
      ],
      "name": "RequestSent",
      "type": "event"
    },
    {
      "inputs": [],
      "name": "acceptOwnership",
      "outputs": [],
      "stateMutability": "nonpayable",
      "type": "function"
    },
    {
      "inputs": [
        {
          "internalType": "uint256",
          "name": "",
          "type": "uint256"
        },
        {
          "internalType": "uint256",
          "name": "",
          "type": "uint256"
        }
      ],
      "name": "communityRaffles",
      "outputs": [
        {
          "internalType": "uint256",
          "name": "requestId",
          "type": "uint256"
        }
      ],
      "stateMutability": "view",
      "type": "function"
    },
    {
      "inputs": [
        {
          "internalType": "uint256",
          "name": "_communityId",
          "type": "uint256"
        }
      ],
      "name": "getCommunityRaffleList",
      "outputs": [
        {
          "components": [
            {
              "internalType": "uint256",
              "name": "requestId",
              "type": "uint256"
            },
            {
              "internalType": "address[]",
              "name": "participants",
              "type": "address[]"
            },
            {
              "internalType": "uint256[]",
              "name": "result",
              "type": "uint256[]"
            }
          ],
          "internalType": "struct ChainlinkVRF.Raffle[]",
          "name": "",
          "type": "tuple[]"
        }
      ],
      "stateMutability": "view",
      "type": "function"
    },
    {
      "inputs": [
        {
          "internalType": "uint256",
          "name": "_requestId",
          "type": "uint256"
        }
      ],
      "name": "getRequestStatus",
      "outputs": [
        {
          "internalType": "bool",
          "name": "fulfilled",
          "type": "bool"
        },
        {
          "internalType": "uint256[]",
          "name": "randomWords",
          "type": "uint256[]"
        }
      ],
      "stateMutability": "view",
      "type": "function"
    },
    {
      "inputs": [],
      "name": "lastRequestId",
      "outputs": [
        {
          "internalType": "uint256",
          "name": "",
          "type": "uint256"
        }
      ],
      "stateMutability": "view",
      "type": "function"
    },
    {
      "inputs": [],
      "name": "owner",
      "outputs": [
        {
          "internalType": "address",
          "name": "",
          "type": "address"
        }
      ],
      "stateMutability": "view",
      "type": "function"
    },
    {
      "inputs": [
        {
          "internalType": "uint256",
          "name": "requestId",
          "type": "uint256"
        },
        {
          "internalType": "uint256[]",
          "name": "randomWords",
          "type": "uint256[]"
        }
      ],
      "name": "rawFulfillRandomWords",
      "outputs": [],
      "stateMutability": "nonpayable",
      "type": "function"
    },
    {
      "inputs": [
        {
          "internalType": "uint256",
          "name": "",
          "type": "uint256"
        }
      ],
      "name": "requestIds",
      "outputs": [
        {
          "internalType": "uint256",
          "name": "",
          "type": "uint256"
        }
      ],
      "stateMutability": "view",
      "type": "function"
    },
    {
      "inputs": [
        {
          "internalType": "uint256",
          "name": "_communityId",
          "type": "uint256"
        },
        {
          "internalType": "address[]",
          "name": "_participants",
          "type": "address[]"
        },
        {
          "internalType": "uint32",
          "name": "_winnersAmount",
          "type": "uint32"
        }
      ],
      "name": "requestRandomWords",
      "outputs": [
        {
          "internalType": "uint256",
          "name": "",
          "type": "uint256"
        }
      ],
      "stateMutability": "nonpayable",
      "type": "function"
    },
    {
      "inputs": [
        {
          "internalType": "uint256",
          "name": "",
          "type": "uint256"
        }
      ],
      "name": "s_requests",
      "outputs": [
        {
          "internalType": "bool",
          "name": "fulfilled",
          "type": "bool"
        },
        {
          "internalType": "bool",
          "name": "exists",
          "type": "bool"
        },
        {
          "internalType": "uint256",
          "name": "communityId",
          "type": "uint256"
        },
        {
          "internalType": "uint256",
          "name": "raffleIndex",
          "type": "uint256"
        }
      ],
      "stateMutability": "view",
      "type": "function"
    },
    {
      "inputs": [],
      "name": "totalCommunityRaffles",
      "outputs": [
        {
          "internalType": "uint256",
          "name": "",
          "type": "uint256"
        }
      ],
      "stateMutability": "view",
      "type": "function"
    },
    {
      "inputs": [
        {
          "internalType": "address",
          "name": "to",
          "type": "address"
        }
      ],
      "name": "transferOwnership",
      "outputs": [],
      "stateMutability": "nonpayable",
      "type": "function"
    }
  ],
  "bytecode": "0x60a0604052600a805461ffff191660031790553480156200001f57600080fd5b5060405162001508380380620015088339810160408190526200004291620001fe565b6001600160a01b0382166080523380600081620000a65760405162461bcd60e51b815260206004820152601860248201527f43616e6e6f7420736574206f776e657220746f207a65726f000000000000000060448201526064015b60405180910390fd5b600080546001600160a01b0319166001600160a01b0384811691909117909155811615620000d957620000d98162000135565b5050600680546001600160401b03909516600160a01b026001600160e01b03199095166001600160a01b03948516179490941790935560095560028054939091166001600160a01b03199390931692909217909155506200025e565b6001600160a01b038116331415620001905760405162461bcd60e51b815260206004820152601760248201527f43616e6e6f74207472616e7366657220746f2073656c6600000000000000000060448201526064016200009d565b600180546001600160a01b0319166001600160a01b0383811691821790925560008054604051929316917fed8889f560326eb138920d842192f0eb3dd22b4f139c87a2c57538e05bae12789190a350565b80516001600160a01b0381168114620001f957600080fd5b919050565b600080600080608085870312156200021557600080fd5b6200022085620001e1565b60208601519094506001600160401b03811681146200023e57600080fd5b92506200024e60408601620001e1565b6060959095015193969295505050565b608051611287620002816000396000818161023f015261028101526112876000f3fe608060405234801561001057600080fd5b50600436106100b45760003560e01c80638796ba8c116100715780638796ba8c146101385780638da5cb5b1461014b578063a168fa8914610166578063d8a4676f146101c3578063f2fde38b146101e4578063fc2a88c3146101f757600080fd5b8063075ac12e146100b95780631fe543e3146100df5780633fe6a31d146100f457806367bbe118146100fd5780636c6f7e301461011d57806379ba509714610130575b600080fd5b6100cc6100c7366004610d9e565b610200565b6040519081526020015b60405180910390f35b6100f26100ed366004610e2b565b610234565b005b6100cc60035481565b61011061010b366004610ecd565b6102c1565b6040516100d69190610ee6565b6100cc61012b366004610fff565b61048f565b6100f2610837565b6100cc610146366004610ecd565b6108e1565b6000546040516001600160a01b0390911681526020016100d6565b6101a1610174366004610ecd565b60056020526000908152604090208054600282015460039092015460ff8083169361010090930416919084565b60408051941515855292151560208501529183015260608201526080016100d6565b6101d66101d1366004610ecd565b610902565b6040516100d69291906110ee565b6100f26101f2366004611111565b610a05565b6100cc60085481565b6004602052816000526040600020818154811061021c57600080fd5b60009182526020909120600390910201549150829050565b336001600160a01b037f000000000000000000000000000000000000000000000000000000000000000016146102b35760405163073e64fd60e21b81523360048201526001600160a01b037f00000000000000000000000000000000000000000000000000000000000000001660248201526044015b60405180910390fd5b6102bd8282610a19565b5050565b6000818152600460205260408120546060919067ffffffffffffffff8111156102ec576102ec610dc0565b60405190808252806020026020018201604052801561034157816020015b61032e60405180606001604052806000815260200160608152602001606081525090565b81526020019060019003908161030a5790505b50905060005b60008481526004602052604090205481101561048857600084815260046020526040902080548290811061037d5761037d611133565b906000526020600020906003020160405180606001604052908160008201548152602001600182018054806020026020016040519081016040528092919081815260200182805480156103f957602002820191906000526020600020905b81546001600160a01b031681526001909101906020018083116103db575b505050505081526020016002820180548060200260200160405190810160405280929190818152602001828054801561045157602002820191906000526020600020905b81548152602001906001019080831161043d575b50505050508152505082828151811061046c5761046c611133565b6020026020010181905250806104819061115f565b9050610347565b5092915050565b60006101f48263ffffffff16106104ff5760405162461bcd60e51b815260206004820152602e60248201527f57696e6e65727320616d6f756e74206c696d6974206973203530302077696e6e60448201526d6572732070657220726166666c6560901b60648201526084016102aa565b6002546001600160a01b031633146105595760405162461bcd60e51b815260206004820152601f60248201527f4e6f2041636365737320746f207265717565737452616e646f6d576f7264730060448201526064016102aa565b60006105678361753061117a565b61057490620186a06111a6565b600654600954600a546040516305d3b1d360e41b81526004810192909252600160a01b830467ffffffffffffffff16602483015261ffff16604482015263ffffffff8084166064830152861660848201529192506000916001600160a01b0390911690635d3b1d309060a4016020604051808303816000875af11580156105ff573d6000803e3d6000fd5b505050506040513d601f19601f8201168201806040525081019061062391906111ce565b905060006040518060600160405280838152602001878152602001600067ffffffffffffffff81111561065857610658610dc0565b604051908082528060200260200182016040528015610681578160200160208202803683370190505b509052600088815260046020908152604082208054600181810183558285529383902085516003909202019081558285015180519596509194869491936106cd93928501920190610ce9565b50604082015180516106e9916002840191602090910190610d4e565b5050506001600360008282546106ff91906111e7565b90915550506040805160a0810182526000808252600160208084018290528451838152808201865284860152606084018d90528c835260049052929020549091608083019161074e91906111ff565b9052600084815260056020908152604091829020835181548584015115156101000261ff00199215159290921661ffff199091161717815591830151805161079c9260018501920190610d4e565b5060608201516002820155608090910151600390910155600780546001810182556000919091527fa66cc928b5edb82af9bd49922954155ab7b0942694bea4ce44661d9a8736c6880183905560088390556040805184815263ffffffff881660208201527fcc58b13ad3eab50626c6a6300b1d139cd6ebb1688a7cced9461c2f7e762665ee910160405180910390a150909695505050505050565b6001546001600160a01b0316331461088a5760405162461bcd60e51b815260206004820152601660248201527526bab9ba10313290383937b837b9b2b21037bbb732b960511b60448201526064016102aa565b60008054336001600160a01b0319808316821784556001805490911690556040516001600160a01b0390921692909183917f8be0079c531659141344cd1fd0a4f28419497f9722a3daafe3b4186f6b6457e091a350565b600781815481106108f157600080fd5b600091825260209091200154905081565b600081815260056020526040812054606090610100900460ff1661095c5760405162461bcd60e51b81526020600482015260116024820152701c995c5d595cdd081b9bdd08199bdd5b99607a1b60448201526064016102aa565b6000838152600560209081526040808320815160a081018352815460ff80821615158352610100909104161515818501526001820180548451818702810187018652818152929593948601938301828280156109d757602002820191906000526020600020905b8154815260200190600101908083116109c3575b5050509183525050600282015460208201526003909101546040918201528151910151909590945092505050565b610a0d610bea565b610a1681610c3f565b50565b600082815260056020526040902054610100900460ff16610a705760405162461bcd60e51b81526020600482015260116024820152701c995c5d595cdd081b9bdd08199bdd5b99607a1b60448201526064016102aa565b6000828152600560209081526040909120805460ff19166001908117825583519192610aa3929184019190850190610d4e565b507ffe2e2d779dba245964d4e3ef9b994be63856fd568bf7d3ca9e224755cb1bd54d8383604051610ad5929190611216565b60405180910390a160028101546000908152600460205260408120600383015481548110610b0557610b05611133565b906000526020600020906003020190506000835167ffffffffffffffff811115610b3157610b31610dc0565b604051908082528060200260200182016040528015610b5a578160200160208202803683370190505b50905060005b8451811015610bcc5760018301548551869083908110610b8257610b82611133565b6020026020010151610b94919061122f565b610b9f9060016111e7565b828281518110610bb157610bb1611133565b6020908102919091010152610bc58161115f565b9050610b60565b508051610be29060028401906020840190610d4e565b505050505050565b6000546001600160a01b03163314610c3d5760405162461bcd60e51b815260206004820152601660248201527527b7363c9031b0b63630b1363290313c9037bbb732b960511b60448201526064016102aa565b565b6001600160a01b038116331415610c985760405162461bcd60e51b815260206004820152601760248201527f43616e6e6f74207472616e7366657220746f2073656c6600000000000000000060448201526064016102aa565b600180546001600160a01b0319166001600160a01b0383811691821790925560008054604051929316917fed8889f560326eb138920d842192f0eb3dd22b4f139c87a2c57538e05bae12789190a350565b828054828255906000526020600020908101928215610d3e579160200282015b82811115610d3e57825182546001600160a01b0319166001600160a01b03909116178255602090920191600190910190610d09565b50610d4a929150610d89565b5090565b828054828255906000526020600020908101928215610d3e579160200282015b82811115610d3e578251825591602001919060010190610d6e565b5b80821115610d4a5760008155600101610d8a565b60008060408385031215610db157600080fd5b50508035926020909101359150565b634e487b7160e01b600052604160045260246000fd5b604051601f8201601f1916810167ffffffffffffffff81118282101715610dff57610dff610dc0565b604052919050565b600067ffffffffffffffff821115610e2157610e21610dc0565b5060051b60200190565b60008060408385031215610e3e57600080fd5b8235915060208084013567ffffffffffffffff811115610e5d57600080fd5b8401601f81018613610e6e57600080fd5b8035610e81610e7c82610e07565b610dd6565b81815260059190911b82018301908381019088831115610ea057600080fd5b928401925b82841015610ebe57833582529284019290840190610ea5565b80955050505050509250929050565b600060208284031215610edf57600080fd5b5035919050565b60006020808301818452808551808352604092508286019150828160051b87010184880160005b83811015610fc157888303603f19018552815180518452878101516060898601819052815190860181905260808601918a01906000905b80821015610f6d5782516001600160a01b03168452928b0192918b019160019190910190610f44565b5050509087015184820385890152805180835290890191600091908a01905b80831015610fac5783518252928a019260019290920191908a0190610f8c565b50968901969450505090860190600101610f0d565b509098975050505050505050565b80356001600160a01b0381168114610fe657600080fd5b919050565b803563ffffffff81168114610fe657600080fd5b60008060006060848603121561101457600080fd5b8335925060208085013567ffffffffffffffff81111561103357600080fd5b8501601f8101871361104457600080fd5b8035611052610e7c82610e07565b81815260059190911b8201830190838101908983111561107157600080fd5b928401925b828410156110965761108784610fcf565b82529284019290840190611076565b80965050505050506110aa60408501610feb565b90509250925092565b600081518084526020808501945080840160005b838110156110e3578151875295820195908201906001016110c7565b509495945050505050565b821515815260406020820152600061110960408301846110b3565b949350505050565b60006020828403121561112357600080fd5b61112c82610fcf565b9392505050565b634e487b7160e01b600052603260045260246000fd5b634e487b7160e01b600052601160045260246000fd5b600060001982141561117357611173611149565b5060010190565b600063ffffffff8083168185168183048111821515161561119d5761119d611149565b02949350505050565b600063ffffffff8083168185168083038211156111c5576111c5611149565b01949350505050565b6000602082840312156111e057600080fd5b5051919050565b600082198211156111fa576111fa611149565b500190565b60008282101561121157611211611149565b500390565b82815260406020820152600061110960408301846110b3565b60008261124c57634e487b7160e01b600052601260045260246000fd5b50069056fea264697066735822122076e909a3bd4511e420c878f6b43e04d4f4a8ca9b25f48d268c7ae142a10ff22e64736f6c634300080c0033",
  "linkReferences": {},
  "deployedLinkReferences": {}
}