{
  "_format": "hh-sol-artifact-1",
  "contractName": "ChainlinkVRF",
  "sourceName": "src/backend/contracts/ChainlinkVRF.sol",
  "abi": [
    {
      "inputs": [
        {
          "internalType": "address",
          "name": "_mainContractAddress",
          "type": "address"
        },
        {
          "internalType": "uint64",
          "name": "_subscriptionId",
          "type": "uint64"
        },
        {
          "internalType": "address",
          "name": "_coordinator",
          "type": "address"
        },
        {
          "internalType": "bytes32",
          "name": "_keyHash",
          "type": "bytes32"
        }
      ],
      "stateMutability": "nonpayable",
      "type": "constructor"
    },
    {
      "inputs": [
        {
          "internalType": "address",
          "name": "have",
          "type": "address"
        },
        {
          "internalType": "address",
          "name": "want",
          "type": "address"
        }
      ],
      "name": "OnlyCoordinatorCanFulfill",
      "type": "error"
    },
    {
      "anonymous": false,
      "inputs": [
        {
          "indexed": true,
          "internalType": "address",
          "name": "from",
          "type": "address"
        },
        {
          "indexed": true,
          "internalType": "address",
          "name": "to",
          "type": "address"
        }
      ],
      "name": "OwnershipTransferRequested",
      "type": "event"
    },
    {
      "anonymous": false,
      "inputs": [
        {
          "indexed": true,
          "internalType": "address",
          "name": "from",
          "type": "address"
        },
        {
          "indexed": true,
          "internalType": "address",
          "name": "to",
          "type": "address"
        }
      ],
      "name": "OwnershipTransferred",
      "type": "event"
    },
    {
      "anonymous": false,
      "inputs": [
        {
          "indexed": false,
          "internalType": "uint256",
          "name": "requestId",
          "type": "uint256"
        },
        {
          "indexed": false,
          "internalType": "uint256[]",
          "name": "randomWords",
          "type": "uint256[]"
        }
      ],
      "name": "RequestFulfilled",
      "type": "event"
    },
    {
      "anonymous": false,
      "inputs": [
        {
          "indexed": false,
          "internalType": "uint256",
          "name": "requestId",
          "type": "uint256"
        },
        {
          "indexed": false,
          "internalType": "uint32",
          "name": "numWords",
          "type": "uint32"
        }
      ],
      "name": "RequestSent",
      "type": "event"
    },
    {
      "inputs": [],
      "name": "acceptOwnership",
      "outputs": [],
      "stateMutability": "nonpayable",
      "type": "function"
    },
    {
      "inputs": [
        {
          "internalType": "uint256",
          "name": "",
          "type": "uint256"
        },
        {
          "internalType": "uint256",
          "name": "",
          "type": "uint256"
        }
      ],
      "name": "communityRaffles",
      "outputs": [
        {
          "internalType": "uint256",
          "name": "requestId",
          "type": "uint256"
        },
        {
          "internalType": "uint256",
          "name": "maxValue",
          "type": "uint256"
        }
      ],
      "stateMutability": "view",
      "type": "function"
    },
    {
      "inputs": [
        {
          "internalType": "uint256",
          "name": "_communityId",
          "type": "uint256"
        }
      ],
      "name": "getCommunityRaffleList",
      "outputs": [
        {
          "components": [
            {
              "internalType": "uint256",
              "name": "requestId",
              "type": "uint256"
            },
            {
              "internalType": "uint256",
              "name": "maxValue",
              "type": "uint256"
            },
            {
              "internalType": "uint256[]",
              "name": "result",
              "type": "uint256[]"
            }
          ],
          "internalType": "struct ChainlinkVRF.Raffle[]",
          "name": "",
          "type": "tuple[]"
        }
      ],
      "stateMutability": "view",
      "type": "function"
    },
    {
      "inputs": [
        {
          "internalType": "uint256",
          "name": "_requestId",
          "type": "uint256"
        }
      ],
      "name": "getRequestStatus",
      "outputs": [
        {
          "internalType": "bool",
          "name": "fulfilled",
          "type": "bool"
        },
        {
          "internalType": "uint256[]",
          "name": "randomWords",
          "type": "uint256[]"
        }
      ],
      "stateMutability": "view",
      "type": "function"
    },
    {
      "inputs": [],
      "name": "lastRequestId",
      "outputs": [
        {
          "internalType": "uint256",
          "name": "",
          "type": "uint256"
        }
      ],
      "stateMutability": "view",
      "type": "function"
    },
    {
      "inputs": [],
      "name": "owner",
      "outputs": [
        {
          "internalType": "address",
          "name": "",
          "type": "address"
        }
      ],
      "stateMutability": "view",
      "type": "function"
    },
    {
      "inputs": [
        {
          "internalType": "uint256",
          "name": "requestId",
          "type": "uint256"
        },
        {
          "internalType": "uint256[]",
          "name": "randomWords",
          "type": "uint256[]"
        }
      ],
      "name": "rawFulfillRandomWords",
      "outputs": [],
      "stateMutability": "nonpayable",
      "type": "function"
    },
    {
      "inputs": [
        {
          "internalType": "uint256",
          "name": "",
          "type": "uint256"
        }
      ],
      "name": "requestIds",
      "outputs": [
        {
          "internalType": "uint256",
          "name": "",
          "type": "uint256"
        }
      ],
      "stateMutability": "view",
      "type": "function"
    },
    {
      "inputs": [
        {
          "internalType": "uint256",
          "name": "_communityId",
          "type": "uint256"
        },
        {
          "internalType": "uint256",
          "name": "_maxValue",
          "type": "uint256"
        },
        {
          "internalType": "uint32",
          "name": "_winnersAmount",
          "type": "uint32"
        }
      ],
      "name": "requestRandomWords",
      "outputs": [
        {
          "internalType": "uint256",
          "name": "",
          "type": "uint256"
        }
      ],
      "stateMutability": "nonpayable",
      "type": "function"
    },
    {
      "inputs": [
        {
          "internalType": "uint256",
          "name": "",
          "type": "uint256"
        }
      ],
      "name": "s_requests",
      "outputs": [
        {
          "internalType": "bool",
          "name": "fulfilled",
          "type": "bool"
        },
        {
          "internalType": "bool",
          "name": "exists",
          "type": "bool"
        },
        {
          "internalType": "uint256",
          "name": "communityId",
          "type": "uint256"
        },
        {
          "internalType": "uint256",
          "name": "raffleIndex",
          "type": "uint256"
        }
      ],
      "stateMutability": "view",
      "type": "function"
    },
    {
      "inputs": [],
      "name": "totalCommunityRaffles",
      "outputs": [
        {
          "internalType": "uint256",
          "name": "",
          "type": "uint256"
        }
      ],
      "stateMutability": "view",
      "type": "function"
    },
    {
      "inputs": [
        {
          "internalType": "address",
          "name": "to",
          "type": "address"
        }
      ],
      "name": "transferOwnership",
      "outputs": [],
      "stateMutability": "nonpayable",
      "type": "function"
    }
  ],
  "bytecode": "0x60a0604052600a805461ffff191660031790553480156200001f57600080fd5b5060405162001367380380620013678339810160408190526200004291620001fe565b6001600160a01b0382166080523380600081620000a65760405162461bcd60e51b815260206004820152601860248201527f43616e6e6f7420736574206f776e657220746f207a65726f000000000000000060448201526064015b60405180910390fd5b600080546001600160a01b0319166001600160a01b0384811691909117909155811615620000d957620000d98162000135565b5050600680546001600160401b03909516600160a01b026001600160e01b03199095166001600160a01b03948516179490941790935560095560028054939091166001600160a01b03199390931692909217909155506200025e565b6001600160a01b038116331415620001905760405162461bcd60e51b815260206004820152601760248201527f43616e6e6f74207472616e7366657220746f2073656c6600000000000000000060448201526064016200009d565b600180546001600160a01b0319166001600160a01b0383811691821790925560008054604051929316917fed8889f560326eb138920d842192f0eb3dd22b4f139c87a2c57538e05bae12789190a350565b80516001600160a01b0381168114620001f957600080fd5b919050565b600080600080608085870312156200021557600080fd5b6200022085620001e1565b60208601519094506001600160401b03811681146200023e57600080fd5b92506200024e60408601620001e1565b6060959095015193969295505050565b6080516110e6620002816000396000818161025c015261029e01526110e66000f3fe608060405234801561001057600080fd5b50600436106100b45760003560e01c80638da5cb5b116100715780638da5cb5b1461014d578063a168fa8914610168578063d8a4676f146101c5578063dad22e21146101e6578063f2fde38b146101f9578063fc2a88c31461020c57600080fd5b8063075ac12e146100b95780631fe543e3146100e65780633fe6a31d146100fb57806367bbe1181461011257806379ba5097146101325780638796ba8c1461013a575b600080fd5b6100cc6100c7366004610cfd565b610215565b604080519283526020830191909152015b60405180910390f35b6100f96100f4366004610d35565b610251565b005b61010460035481565b6040519081526020016100dd565b610125610120366004610dff565b6102de565b6040516100dd9190610e18565b6100f9610454565b610104610148366004610dff565b6104fe565b6000546040516001600160a01b0390911681526020016100dd565b6101a3610176366004610dff565b60056020526000908152604090208054600282015460039092015460ff8083169361010090930416919084565b60408051941515855292151560208501529183015260608201526080016100dd565b6101d86101d3366004610dff565b61051f565b6040516100dd929190610efd565b6101046101f4366004610f20565b610622565b6100f9610207366004610f62565b6109bb565b61010460085481565b6004602052816000526040600020818154811061023157600080fd5b600091825260209091206003909102018054600190910154909250905082565b336001600160a01b037f000000000000000000000000000000000000000000000000000000000000000016146102d05760405163073e64fd60e21b81523360048201526001600160a01b037f00000000000000000000000000000000000000000000000000000000000000001660248201526044015b60405180910390fd5b6102da82826109cf565b5050565b6000818152600460205260408120546060919067ffffffffffffffff81111561030957610309610d1f565b60405190808252806020026020018201604052801561035e57816020015b61034b60405180606001604052806000815260200160008152602001606081525090565b8152602001906001900390816103275790505b50905060005b60008481526004602052604090205481101561044d57600084815260046020526040902080548290811061039a5761039a610f92565b906000526020600020906003020160405180606001604052908160008201548152602001600182015481526020016002820180548060200260200160405190810160405280929190818152602001828054801561041657602002820191906000526020600020905b815481526020019060010190808311610402575b50505050508152505082828151811061043157610431610f92565b60200260200101819052508061044690610fbe565b9050610364565b5092915050565b6001546001600160a01b031633146104a75760405162461bcd60e51b815260206004820152601660248201527526bab9ba10313290383937b837b9b2b21037bbb732b960511b60448201526064016102c7565b60008054336001600160a01b0319808316821784556001805490911690556040516001600160a01b0390921692909183917f8be0079c531659141344cd1fd0a4f28419497f9722a3daafe3b4186f6b6457e091a350565b6007818154811061050e57600080fd5b600091825260209091200154905081565b600081815260056020526040812054606090610100900460ff166105795760405162461bcd60e51b81526020600482015260116024820152701c995c5d595cdd081b9bdd08199bdd5b99607a1b60448201526064016102c7565b6000838152600560209081526040808320815160a081018352815460ff80821615158352610100909104161515818501526001820180548451818702810187018652818152929593948601938301828280156105f457602002820191906000526020600020905b8154815260200190600101908083116105e0575b5050509183525050600282015460208201526003909101546040918201528151910151909590945092505050565b600060648263ffffffff1611156106925760405162461bcd60e51b815260206004820152602e60248201527f57696e6e65727320616d6f756e74206c696d6974206973203130302077696e6e60448201526d6572732070657220726166666c6560901b60648201526084016102c7565b6002546001600160a01b031633146106ec5760405162461bcd60e51b815260206004820152601f60248201527f4e6f2041636365737320746f207265717565737452616e646f6d576f7264730060448201526064016102c7565b60006106fa83617530610fd9565b61070790620186a0611005565b600654600954600a546040516305d3b1d360e41b81526004810192909252600160a01b830467ffffffffffffffff16602483015261ffff16604482015263ffffffff8084166064830152861660848201529192506000916001600160a01b0390911690635d3b1d309060a4016020604051808303816000875af1158015610792573d6000803e3d6000fd5b505050506040513d601f19601f820116820180604052508101906107b6919061102d565b905060006040518060600160405280838152602001878152602001600067ffffffffffffffff8111156107eb576107eb610d1f565b604051908082528060200260200182016040528015610814578160200160208202803683370190505b50905260008881526004602090815260408083208054600181810183558286529484902086516003909202019081558386015194810194909455908401518051949550909385939261086d926002850192910190610c9d565b5050506001600360008282546108839190611046565b90915550506040805160a0810182526000808252600160208084018290528451838152808201865284860152606084018d90528c83526004905292902054909160808301916108d2919061105e565b9052600084815260056020908152604091829020835181548584015115156101000261ff00199215159290921661ffff19909116171781559183015180516109209260018501920190610c9d565b5060608201516002820155608090910151600390910155600780546001810182556000919091527fa66cc928b5edb82af9bd49922954155ab7b0942694bea4ce44661d9a8736c6880183905560088390556040805184815263ffffffff881660208201527fcc58b13ad3eab50626c6a6300b1d139cd6ebb1688a7cced9461c2f7e762665ee910160405180910390a150909695505050505050565b6109c3610b9e565b6109cc81610bf3565b50565b600082815260056020526040902054610100900460ff16610a265760405162461bcd60e51b81526020600482015260116024820152701c995c5d595cdd081b9bdd08199bdd5b99607a1b60448201526064016102c7565b6000828152600560209081526040909120805460ff19166001908117825583519192610a59929184019190850190610c9d565b507ffe2e2d779dba245964d4e3ef9b994be63856fd568bf7d3ca9e224755cb1bd54d8383604051610a8b929190611075565b60405180910390a160028101546000908152600460205260408120600383015481548110610abb57610abb610f92565b906000526020600020906003020190506000835167ffffffffffffffff811115610ae757610ae7610d1f565b604051908082528060200260200182016040528015610b10578160200160208202803683370190505b50905060005b8451811015610b80578260010154858281518110610b3657610b36610f92565b6020026020010151610b48919061108e565b610b53906001611046565b828281518110610b6557610b65610f92565b6020908102919091010152610b7981610fbe565b9050610b16565b508051610b969060028401906020840190610c9d565b505050505050565b6000546001600160a01b03163314610bf15760405162461bcd60e51b815260206004820152601660248201527527b7363c9031b0b63630b1363290313c9037bbb732b960511b60448201526064016102c7565b565b6001600160a01b038116331415610c4c5760405162461bcd60e51b815260206004820152601760248201527f43616e6e6f74207472616e7366657220746f2073656c6600000000000000000060448201526064016102c7565b600180546001600160a01b0319166001600160a01b0383811691821790925560008054604051929316917fed8889f560326eb138920d842192f0eb3dd22b4f139c87a2c57538e05bae12789190a350565b828054828255906000526020600020908101928215610cd8579160200282015b82811115610cd8578251825591602001919060010190610cbd565b50610ce4929150610ce8565b5090565b5b80821115610ce45760008155600101610ce9565b60008060408385031215610d1057600080fd5b50508035926020909101359150565b634e487b7160e01b600052604160045260246000fd5b60008060408385031215610d4857600080fd5b8235915060208084013567ffffffffffffffff80821115610d6857600080fd5b818601915086601f830112610d7c57600080fd5b813581811115610d8e57610d8e610d1f565b8060051b604051601f19603f83011681018181108582111715610db357610db3610d1f565b604052918252848201925083810185019189831115610dd157600080fd5b938501935b82851015610def57843584529385019392850192610dd6565b8096505050505050509250929050565b600060208284031215610e1157600080fd5b5035919050565b60006020808301818452808551808352604092508286019150828160051b8701018488016000805b84811015610eb357898403603f1901865282518051855288810151898601528701516060888601819052815190860181905290890190608086019084905b80821015610e9e5783518352928b0192918b019160019190910190610e7e565b50509689019694505091870191600101610e40565b50919998505050505050505050565b600081518084526020808501945080840160005b83811015610ef257815187529582019590820190600101610ed6565b509495945050505050565b8215158152604060208201526000610f186040830184610ec2565b949350505050565b600080600060608486031215610f3557600080fd5b8335925060208401359150604084013563ffffffff81168114610f5757600080fd5b809150509250925092565b600060208284031215610f7457600080fd5b81356001600160a01b0381168114610f8b57600080fd5b9392505050565b634e487b7160e01b600052603260045260246000fd5b634e487b7160e01b600052601160045260246000fd5b6000600019821415610fd257610fd2610fa8565b5060010190565b600063ffffffff80831681851681830481118215151615610ffc57610ffc610fa8565b02949350505050565b600063ffffffff80831681851680830382111561102457611024610fa8565b01949350505050565b60006020828403121561103f57600080fd5b5051919050565b6000821982111561105957611059610fa8565b500190565b60008282101561107057611070610fa8565b500390565b828152604060208201526000610f186040830184610ec2565b6000826110ab57634e487b7160e01b600052601260045260246000fd5b50069056fea26469706673582212204fa4d809708c84d65cbd24fd0af2990a9d83b8393c3a8c25d0c97b9b6be750b464736f6c634300080c0033",
  "linkReferences": {},
  "deployedLinkReferences": {}
}