{
  "_format": "hh-sol-artifact-1",
  "contractName": "ChainlinkExecutor",
  "sourceName": "src/backend/contracts/ChainlinkExecutor.sol",
  "abi": [
    {
      "inputs": [],
      "stateMutability": "nonpayable",
      "type": "constructor"
    },
    {
      "anonymous": false,
      "inputs": [
        {
          "indexed": false,
          "internalType": "address",
          "name": "previousAdmin",
          "type": "address"
        },
        {
          "indexed": false,
          "internalType": "address",
          "name": "newAdmin",
          "type": "address"
        }
      ],
      "name": "AdminChanged",
      "type": "event"
    },
    {
      "anonymous": false,
      "inputs": [
        {
          "indexed": true,
          "internalType": "address",
          "name": "beacon",
          "type": "address"
        }
      ],
      "name": "BeaconUpgraded",
      "type": "event"
    },
    {
      "anonymous": false,
      "inputs": [
        {
          "indexed": false,
          "internalType": "uint8",
          "name": "version",
          "type": "uint8"
        }
      ],
      "name": "Initialized",
      "type": "event"
    },
    {
      "anonymous": false,
      "inputs": [
        {
          "indexed": true,
          "internalType": "address",
          "name": "previousOwner",
          "type": "address"
        },
        {
          "indexed": true,
          "internalType": "address",
          "name": "newOwner",
          "type": "address"
        }
      ],
      "name": "OwnershipTransferred",
      "type": "event"
    },
    {
      "anonymous": false,
      "inputs": [
        {
          "indexed": true,
          "internalType": "address",
          "name": "implementation",
          "type": "address"
        }
      ],
      "name": "Upgraded",
      "type": "event"
    },
    {
      "inputs": [
        {
          "internalType": "address",
          "name": "contractAddress",
          "type": "address"
        },
        {
          "internalType": "uint256",
          "name": "proposalId",
          "type": "uint256"
        },
        {
          "internalType": "address[]",
          "name": "targets",
          "type": "address[]"
        },
        {
          "internalType": "uint256[]",
          "name": "values",
          "type": "uint256[]"
        },
        {
          "internalType": "bytes[]",
          "name": "calldatas",
          "type": "bytes[]"
        },
        {
          "internalType": "bytes32",
          "name": "descriptionHash",
          "type": "bytes32"
        }
      ],
      "name": "addProposal",
      "outputs": [],
      "stateMutability": "nonpayable",
      "type": "function"
    },
    {
      "inputs": [
        {
          "internalType": "uint256",
          "name": "",
          "type": "uint256"
        },
        {
          "internalType": "uint256",
          "name": "",
          "type": "uint256"
        }
      ],
      "name": "blockProposals",
      "outputs": [
        {
          "internalType": "address",
          "name": "contractAddress",
          "type": "address"
        },
        {
          "internalType": "uint256",
          "name": "proposalId",
          "type": "uint256"
        },
        {
          "internalType": "bytes32",
          "name": "descriptionHash",
          "type": "bytes32"
        }
      ],
      "stateMutability": "view",
      "type": "function"
    },
    {
      "inputs": [],
      "name": "checkExecutions",
      "outputs": [],
      "stateMutability": "nonpayable",
      "type": "function"
    },
    {
      "inputs": [],
      "name": "initialize",
      "outputs": [],
      "stateMutability": "nonpayable",
      "type": "function"
    },
    {
      "inputs": [],
      "name": "owner",
      "outputs": [
        {
          "internalType": "address",
          "name": "",
          "type": "address"
        }
      ],
      "stateMutability": "view",
      "type": "function"
    },
    {
      "inputs": [
        {
          "internalType": "uint256",
          "name": "",
          "type": "uint256"
        }
      ],
      "name": "proposalEndBlocks",
      "outputs": [
        {
          "internalType": "uint256",
          "name": "",
          "type": "uint256"
        }
      ],
      "stateMutability": "view",
      "type": "function"
    },
    {
      "inputs": [],
      "name": "proxiableUUID",
      "outputs": [
        {
          "internalType": "bytes32",
          "name": "",
          "type": "bytes32"
        }
      ],
      "stateMutability": "view",
      "type": "function"
    },
    {
      "inputs": [],
      "name": "renounceOwnership",
      "outputs": [],
      "stateMutability": "nonpayable",
      "type": "function"
    },
    {
      "inputs": [
        {
          "internalType": "address",
          "name": "newOwner",
          "type": "address"
        }
      ],
      "name": "transferOwnership",
      "outputs": [],
      "stateMutability": "nonpayable",
      "type": "function"
    },
    {
      "inputs": [
        {
          "internalType": "address",
          "name": "newImplementation",
          "type": "address"
        }
      ],
      "name": "upgradeTo",
      "outputs": [],
      "stateMutability": "nonpayable",
      "type": "function"
    },
    {
      "inputs": [
        {
          "internalType": "address",
          "name": "newImplementation",
          "type": "address"
        },
        {
          "internalType": "bytes",
          "name": "data",
          "type": "bytes"
        }
      ],
      "name": "upgradeToAndCall",
      "outputs": [],
      "stateMutability": "payable",
      "type": "function"
    }
  ],
  "bytecode": "0x60a06040523060805234801561001457600080fd5b5061001d610022565b6100e2565b600054610100900460ff161561008e5760405162461bcd60e51b815260206004820152602760248201527f496e697469616c697a61626c653a20636f6e747261637420697320696e697469604482015266616c697a696e6760c81b606482015260840160405180910390fd5b60005460ff90811610156100e0576000805460ff191660ff9081179091556040519081527f7f26b83ff96e1f2b6a682f133852f6798a09c465da95921460cefb38474024989060200160405180910390a15b565b608051611b0d610119600039600081816102150152818161025e0152818161031f0152818161035f01526103f20152611b0d6000f3fe60806040526004361061009c5760003560e01c806376f1170e1161006457806376f1170e146101335780638129fc1c146101485780638da5cb5b1461015d578063c260814414610185578063e6e9cd7f146101ca578063f2fde38b146101ea57600080fd5b80633659cfe6146100a157806340c75564146100c35780634f1ef286146100f657806352d1902d14610109578063715018a61461011e575b600080fd5b3480156100ad57600080fd5b506100c16100bc3660046113f7565b61020a565b005b3480156100cf57600080fd5b506100e36100de366004611412565b6102f3565b6040519081526020015b60405180910390f35b6100c16101043660046114e2565b610314565b34801561011557600080fd5b506100e36103e5565b34801561012a57600080fd5b506100c1610498565b34801561013f57600080fd5b506100c16104ac565b34801561015457600080fd5b506100c16105e2565b34801561016957600080fd5b506033546040516001600160a01b0390911681526020016100ed565b34801561019157600080fd5b506101a56101a0366004611530565b6106fa565b604080516001600160a01b0390941684526020840192909252908201526060016100ed565b3480156101d657600080fd5b506100c16101e5366004611661565b610746565b3480156101f657600080fd5b506100c16102053660046113f7565b610933565b306001600160a01b037f000000000000000000000000000000000000000000000000000000000000000016141561025c5760405162461bcd60e51b81526004016102539061176a565b60405180910390fd5b7f00000000000000000000000000000000000000000000000000000000000000006001600160a01b03166102a5600080516020611a91833981519152546001600160a01b031690565b6001600160a01b0316146102cb5760405162461bcd60e51b8152600401610253906117b6565b6102d4816109a9565b604080516000808252602082019092526102f0918391906109b1565b50565b60c9818154811061030357600080fd5b600091825260209091200154905081565b306001600160a01b037f000000000000000000000000000000000000000000000000000000000000000016141561035d5760405162461bcd60e51b81526004016102539061176a565b7f00000000000000000000000000000000000000000000000000000000000000006001600160a01b03166103a6600080516020611a91833981519152546001600160a01b031690565b6001600160a01b0316146103cc5760405162461bcd60e51b8152600401610253906117b6565b6103d5826109a9565b6103e1828260016109b1565b5050565b6000306001600160a01b037f000000000000000000000000000000000000000000000000000000000000000016146104855760405162461bcd60e51b815260206004820152603860248201527f555550535570677261646561626c653a206d757374206e6f742062652063616c60448201527f6c6564207468726f7567682064656c656761746563616c6c00000000000000006064820152608401610253565b50600080516020611a9183398151915290565b6104a0610b21565b6104aa6000610b7b565b565b60005b60c9548110156102f0574360c982815481106104cd576104cd611802565b906000526020600020015410156105d25760005b60ca600060c984815481106104f8576104f8611802565b90600052602060002001548152602001908152602001600020805490508110156105535761054360c9838154811061053257610532611802565b906000526020600020015482610bcd565b61054c8161182e565b90506104e1565b5060c954600110156105aa5760c9805461056f90600190611849565b8154811061057f5761057f611802565b906000526020600020015460c9828154811061059d5761059d611802565b6000918252602090912001555b60c98054806105bb576105bb611860565b600190038181906000526020600020016000905590555b6105db8161182e565b90506104af565b600054610100900460ff16158080156106025750600054600160ff909116105b8061061c5750303b15801561061c575060005460ff166001145b61067f5760405162461bcd60e51b815260206004820152602e60248201527f496e697469616c697a61626c653a20636f6e747261637420697320616c72656160448201526d191e481a5b9a5d1a585b1a5e995960921b6064820152608401610253565b6000805460ff1916600117905580156106a2576000805461ff0019166101001790555b6106aa610ed8565b6106b2610f07565b80156102f0576000805461ff0019169055604051600181527f7f26b83ff96e1f2b6a682f133852f6798a09c465da95921460cefb38474024989060200160405180910390a150565b60ca602052816000526040600020818154811061071657600080fd5b60009182526020909120600690910201805460018201546005909201546001600160a01b03909116935090915083565b60405163c01f9e3760e01b8152600481018690526000906001600160a01b0388169063c01f9e3790602401602060405180830381865afa15801561078e573d6000803e3d6000fd5b505050506040513d601f19601f820116820180604052508101906107b29190611876565b9050600061081060c980548060200260200160405190810160405280929190818152602001828054801561080557602002820191906000526020600020905b8154815260200190600101908083116107f1575b505050505083610f2e565b9150508061084e5760c980546001810182556000919091527f66be4f155c5ef2ebd3772b228f2f00681e4ed5826cdb3b1943cc11ad15ad1d28018290555b600082815260ca60209081526040808320815160c0810183526001600160a01b038d811682528185018d81529382018c8152606083018c9052608083018b905260a083018a905283546001808201865594885296869020835160069098020180546001600160a01b031916979092169690961781559251918301919091559251805191926108e492600285019290910190611203565b5060608201518051610900916003840191602090910190611268565b506080820151805161091c9160048401916020909101906112a3565b5060a0820151816005015550505050505050505050565b61093b610b21565b6001600160a01b0381166109a05760405162461bcd60e51b815260206004820152602660248201527f4f776e61626c653a206e6577206f776e657220697320746865207a65726f206160448201526564647265737360d01b6064820152608401610253565b6102f081610b7b565b6102f0610b21565b7f4910fdfa16fed3260ed0e7147f7cc6da11a60208b5b9406d12a635614ffd91435460ff16156109e9576109e483610f8e565b505050565b826001600160a01b03166352d1902d6040518163ffffffff1660e01b8152600401602060405180830381865afa925050508015610a43575060408051601f3d908101601f19168201909252610a4091810190611876565b60015b610aa65760405162461bcd60e51b815260206004820152602e60248201527f45524331393637557067726164653a206e657720696d706c656d656e7461746960448201526d6f6e206973206e6f74205555505360901b6064820152608401610253565b600080516020611a918339815191528114610b155760405162461bcd60e51b815260206004820152602960248201527f45524331393637557067726164653a20756e737570706f727465642070726f786044820152681a58589b195555525160ba1b6064820152608401610253565b506109e483838361102a565b6033546001600160a01b031633146104aa5760405162461bcd60e51b815260206004820181905260248201527f4f776e61626c653a2063616c6c6572206973206e6f7420746865206f776e65726044820152606401610253565b603380546001600160a01b038381166001600160a01b0319831681179093556040519116919082907f8be0079c531659141344cd1fd0a4f28419497f9722a3daafe3b4186f6b6457e090600090a35050565b600082815260ca60205260408120805483908110610bed57610bed611802565b60009182526020918290206040805160c081018252600690930290910180546001600160a01b031683526001810154838501526002810180548351818702810187018552818152949592949386019392830182828015610c7657602002820191906000526020600020905b81546001600160a01b03168152600190910190602001808311610c58575b5050505050815260200160038201805480602002602001604051908101604052809291908181526020018280548015610cce57602002820191906000526020600020905b815481526020019060010190808311610cba575b5050505050815260200160048201805480602002602001604051908101604052809291908181526020016000905b82821015610da8578382906000526020600020018054610d1b9061188f565b80601f0160208091040260200160405190810160405280929190818152602001828054610d479061188f565b8015610d945780601f10610d6957610100808354040283529160200191610d94565b820191906000526020600020905b815481529060010190602001808311610d7757829003601f168201915b505050505081526020019060010190610cfc565b505050508152602001600582015481525050905080600001516001600160a01b031663160cbed78260400151836060015184608001518560a001516040518563ffffffff1660e01b8152600401610e029493929190611977565b6020604051808303816000875af1158015610e21573d6000803e3d6000fd5b505050506040513d601f19601f82011682018060405250810190610e459190611876565b50600081600001516001600160a01b0316632656227d8360400151846060015185608001518660a001516040518563ffffffff1660e01b8152600401610e8e9493929190611977565b6020604051808303816000875af1158015610ead573d6000803e3d6000fd5b505050506040513d601f19601f82011682018060405250810190610ed19190611876565b5050505050565b600054610100900460ff16610eff5760405162461bcd60e51b815260040161025390611a16565b6104aa611055565b600054610100900460ff166104aa5760405162461bcd60e51b815260040161025390611a16565b81516000908190815b81811015610f7d5784868281518110610f5257610f52611802565b60200260200101511415610f6d57925060019150610f879050565b610f768161182e565b9050610f37565b5060008092509250505b9250929050565b6001600160a01b0381163b610ffb5760405162461bcd60e51b815260206004820152602d60248201527f455243313936373a206e657720696d706c656d656e746174696f6e206973206e60448201526c1bdd08184818dbdb9d1c9858dd609a1b6064820152608401610253565b600080516020611a9183398151915280546001600160a01b0319166001600160a01b0392909216919091179055565b61103383611085565b6000825111806110405750805b156109e45761104f83836110c5565b50505050565b600054610100900460ff1661107c5760405162461bcd60e51b815260040161025390611a16565b6104aa33610b7b565b61108e81610f8e565b6040516001600160a01b038216907fbc7cd75a20ee27fd9adebab32041f755214dbc6bffa90cc0225b39da2e5c2d3b90600090a250565b60606001600160a01b0383163b61112d5760405162461bcd60e51b815260206004820152602660248201527f416464726573733a2064656c65676174652063616c6c20746f206e6f6e2d636f6044820152651b9d1c9858dd60d21b6064820152608401610253565b600080846001600160a01b0316846040516111489190611a61565b600060405180830381855af49150503d8060008114611183576040519150601f19603f3d011682016040523d82523d6000602084013e611188565b606091505b50915091506111b08282604051806060016040528060278152602001611ab1602791396111b9565b95945050505050565b606083156111c85750816111d2565b6111d283836111d9565b9392505050565b8151156111e95781518083602001fd5b8060405162461bcd60e51b81526004016102539190611a7d565b828054828255906000526020600020908101928215611258579160200282015b8281111561125857825182546001600160a01b0319166001600160a01b03909116178255602090920191600190910190611223565b506112649291506112fc565b5090565b828054828255906000526020600020908101928215611258579160200282015b82811115611258578251825591602001919060010190611288565b8280548282559060005260206000209081019282156112f0579160200282015b828111156112f057825180516112e0918491602090910190611311565b50916020019190600101906112c3565b50611264929150611384565b5b8082111561126457600081556001016112fd565b82805461131d9061188f565b90600052602060002090601f01602090048101928261133f5760008555611258565b82601f1061135857805160ff1916838001178555611258565b828001600101855582156112585791820182811115611258578251825591602001919060010190611288565b8082111561126457600061139882826113a1565b50600101611384565b5080546113ad9061188f565b6000825580601f106113bd575050565b601f0160209004906000526020600020908101906102f091906112fc565b80356001600160a01b03811681146113f257600080fd5b919050565b60006020828403121561140957600080fd5b6111d2826113db565b60006020828403121561142457600080fd5b5035919050565b634e487b7160e01b600052604160045260246000fd5b604051601f8201601f1916810167ffffffffffffffff8111828210171561146a5761146a61142b565b604052919050565b600082601f83011261148357600080fd5b813567ffffffffffffffff81111561149d5761149d61142b565b6114b0601f8201601f1916602001611441565b8181528460208386010111156114c557600080fd5b816020850160208301376000918101602001919091529392505050565b600080604083850312156114f557600080fd5b6114fe836113db565b9150602083013567ffffffffffffffff81111561151a57600080fd5b61152685828601611472565b9150509250929050565b6000806040838503121561154357600080fd5b50508035926020909101359150565b600067ffffffffffffffff82111561156c5761156c61142b565b5060051b60200190565b600082601f83011261158757600080fd5b8135602061159c61159783611552565b611441565b82815260059290921b840181019181810190868411156115bb57600080fd5b8286015b848110156115d657803583529183019183016115bf565b509695505050505050565b600082601f8301126115f257600080fd5b8135602061160261159783611552565b82815260059290921b8401810191818101908684111561162157600080fd5b8286015b848110156115d657803567ffffffffffffffff8111156116455760008081fd5b6116538986838b0101611472565b845250918301918301611625565b60008060008060008060c0878903121561167a57600080fd5b611683876113db565b95506020808801359550604088013567ffffffffffffffff808211156116a857600080fd5b818a0191508a601f8301126116bc57600080fd5b81356116ca61159782611552565b81815260059190911b8301840190848101908d8311156116e957600080fd5b938501935b8285101561170e576116ff856113db565b825293850193908501906116ee565b9850505060608a013592508083111561172657600080fd5b6117328b848c01611576565b955060808a013592508083111561174857600080fd5b505061175689828a016115e1565b92505060a087013590509295509295509295565b6020808252602c908201527f46756e6374696f6e206d7573742062652063616c6c6564207468726f7567682060408201526b19195b1959d85d1958d85b1b60a21b606082015260800190565b6020808252602c908201527f46756e6374696f6e206d7573742062652063616c6c6564207468726f7567682060408201526b6163746976652070726f787960a01b606082015260800190565b634e487b7160e01b600052603260045260246000fd5b634e487b7160e01b600052601160045260246000fd5b600060001982141561184257611842611818565b5060010190565b60008282101561185b5761185b611818565b500390565b634e487b7160e01b600052603160045260246000fd5b60006020828403121561188857600080fd5b5051919050565b600181811c908216806118a357607f821691505b602082108114156118c457634e487b7160e01b600052602260045260246000fd5b50919050565b60005b838110156118e55781810151838201526020016118cd565b8381111561104f5750506000910152565b6000815180845261190e8160208601602086016118ca565b601f01601f19169290920160200192915050565b600081518084526020808501808196508360051b8101915082860160005b8581101561196a5782840389526119588483516118f6565b98850198935090840190600101611940565b5091979650505050505050565b6080808252855190820181905260009060209060a0840190828901845b828110156119b95781516001600160a01b031684529284019290840190600101611994565b5050508381038285015286518082528783019183019060005b818110156119ee578351835292840192918401916001016119d2565b50508481036040860152611a028188611922565b935050505082606083015295945050505050565b6020808252602b908201527f496e697469616c697a61626c653a20636f6e7472616374206973206e6f74206960408201526a6e697469616c697a696e6760a81b606082015260800190565b60008251611a738184602087016118ca565b9190910192915050565b6020815260006111d260208301846118f656fe360894a13ba1a3210667c828492db98dca3e2076cc3735a920a3ca505d382bbc416464726573733a206c6f772d6c6576656c2064656c65676174652063616c6c206661696c6564a2646970667358221220e4fc51b58dac0452fbadf4362e9631c5c6b1785b6115ec3759d125de00b86d3464736f6c634300080c0033",
  "linkReferences": {},
  "deployedLinkReferences": {}
}