{
  "_format": "hh-sol-artifact-1",
  "contractName": "ChainlinkVRF",
  "sourceName": "src/backend/contracts/ChainlinkVRF.sol",
  "abi": [
    {
      "inputs": [
        {
          "internalType": "address",
          "name": "_mainContractAddress",
          "type": "address"
        },
        {
          "internalType": "uint64",
          "name": "_subscriptionId",
          "type": "uint64"
        },
        {
          "internalType": "address",
          "name": "_coordinator",
          "type": "address"
        },
        {
          "internalType": "bytes32",
          "name": "_keyHash",
          "type": "bytes32"
        }
      ],
      "stateMutability": "nonpayable",
      "type": "constructor"
    },
    {
      "inputs": [
        {
          "internalType": "address",
          "name": "have",
          "type": "address"
        },
        {
          "internalType": "address",
          "name": "want",
          "type": "address"
        }
      ],
      "name": "OnlyCoordinatorCanFulfill",
      "type": "error"
    },
    {
      "anonymous": false,
      "inputs": [
        {
          "indexed": true,
          "internalType": "address",
          "name": "from",
          "type": "address"
        },
        {
          "indexed": true,
          "internalType": "address",
          "name": "to",
          "type": "address"
        }
      ],
      "name": "OwnershipTransferRequested",
      "type": "event"
    },
    {
      "anonymous": false,
      "inputs": [
        {
          "indexed": true,
          "internalType": "address",
          "name": "from",
          "type": "address"
        },
        {
          "indexed": true,
          "internalType": "address",
          "name": "to",
          "type": "address"
        }
      ],
      "name": "OwnershipTransferred",
      "type": "event"
    },
    {
      "anonymous": false,
      "inputs": [
        {
          "indexed": false,
          "internalType": "uint256",
          "name": "requestId",
          "type": "uint256"
        },
        {
          "indexed": false,
          "internalType": "uint256[]",
          "name": "randomWords",
          "type": "uint256[]"
        }
      ],
      "name": "RequestFulfilled",
      "type": "event"
    },
    {
      "anonymous": false,
      "inputs": [
        {
          "indexed": false,
          "internalType": "uint256",
          "name": "requestId",
          "type": "uint256"
        },
        {
          "indexed": false,
          "internalType": "uint32",
          "name": "numWords",
          "type": "uint32"
        }
      ],
      "name": "RequestSent",
      "type": "event"
    },
    {
      "inputs": [],
      "name": "acceptOwnership",
      "outputs": [],
      "stateMutability": "nonpayable",
      "type": "function"
    },
    {
      "inputs": [
        {
          "internalType": "uint256",
          "name": "",
          "type": "uint256"
        },
        {
          "internalType": "uint256",
          "name": "",
          "type": "uint256"
        }
      ],
      "name": "communityRaffles",
      "outputs": [
        {
          "internalType": "uint256",
          "name": "requestId",
          "type": "uint256"
        },
        {
          "internalType": "uint256",
          "name": "maxValue",
          "type": "uint256"
        }
      ],
      "stateMutability": "view",
      "type": "function"
    },
    {
      "inputs": [
        {
          "internalType": "uint256",
          "name": "_requestId",
          "type": "uint256"
        }
      ],
      "name": "getRequestStatus",
      "outputs": [
        {
          "internalType": "bool",
          "name": "fulfilled",
          "type": "bool"
        },
        {
          "internalType": "uint256[]",
          "name": "randomWords",
          "type": "uint256[]"
        }
      ],
      "stateMutability": "view",
      "type": "function"
    },
    {
      "inputs": [],
      "name": "lastRequestId",
      "outputs": [
        {
          "internalType": "uint256",
          "name": "",
          "type": "uint256"
        }
      ],
      "stateMutability": "view",
      "type": "function"
    },
    {
      "inputs": [],
      "name": "owner",
      "outputs": [
        {
          "internalType": "address",
          "name": "",
          "type": "address"
        }
      ],
      "stateMutability": "view",
      "type": "function"
    },
    {
      "inputs": [
        {
          "internalType": "uint256",
          "name": "requestId",
          "type": "uint256"
        },
        {
          "internalType": "uint256[]",
          "name": "randomWords",
          "type": "uint256[]"
        }
      ],
      "name": "rawFulfillRandomWords",
      "outputs": [],
      "stateMutability": "nonpayable",
      "type": "function"
    },
    {
      "inputs": [
        {
          "internalType": "uint256",
          "name": "",
          "type": "uint256"
        }
      ],
      "name": "requestIds",
      "outputs": [
        {
          "internalType": "uint256",
          "name": "",
          "type": "uint256"
        }
      ],
      "stateMutability": "view",
      "type": "function"
    },
    {
      "inputs": [
        {
          "internalType": "uint256",
          "name": "_communityId",
          "type": "uint256"
        },
        {
          "internalType": "uint256",
          "name": "_maxValue",
          "type": "uint256"
        },
        {
          "internalType": "uint32",
          "name": "_winnersAmount",
          "type": "uint32"
        }
      ],
      "name": "requestRandomWords",
      "outputs": [
        {
          "internalType": "uint256",
          "name": "requestId",
          "type": "uint256"
        }
      ],
      "stateMutability": "nonpayable",
      "type": "function"
    },
    {
      "inputs": [
        {
          "internalType": "uint256",
          "name": "",
          "type": "uint256"
        }
      ],
      "name": "s_requests",
      "outputs": [
        {
          "internalType": "bool",
          "name": "fulfilled",
          "type": "bool"
        },
        {
          "internalType": "bool",
          "name": "exists",
          "type": "bool"
        },
        {
          "internalType": "uint256",
          "name": "communityId",
          "type": "uint256"
        },
        {
          "internalType": "uint256",
          "name": "raffleIndex",
          "type": "uint256"
        }
      ],
      "stateMutability": "view",
      "type": "function"
    },
    {
      "inputs": [
        {
          "internalType": "address",
          "name": "to",
          "type": "address"
        }
      ],
      "name": "transferOwnership",
      "outputs": [],
      "stateMutability": "nonpayable",
      "type": "function"
    }
  ],
  "bytecode": "0x60a06040526009805461ffff1916600317905534801561001e57600080fd5b50604051620010513803806200105183398101604081905261003f916101f3565b6001600160a01b03821660805233806000816100a25760405162461bcd60e51b815260206004820152601860248201527f43616e6e6f7420736574206f776e657220746f207a65726f000000000000000060448201526064015b60405180910390fd5b600080546001600160a01b0319166001600160a01b03848116919091179091558116156100d2576100d28161012d565b5050600580546001600160401b03909516600160a01b026001600160e01b03199095166001600160a01b03948516179490941790935560085560028054939091166001600160a01b031993909316929092179091555061024d565b6001600160a01b0381163314156101865760405162461bcd60e51b815260206004820152601760248201527f43616e6e6f74207472616e7366657220746f2073656c660000000000000000006044820152606401610099565b600180546001600160a01b0319166001600160a01b0383811691821790925560008054604051929316917fed8889f560326eb138920d842192f0eb3dd22b4f139c87a2c57538e05bae12789190a350565b80516001600160a01b03811681146101ee57600080fd5b919050565b6000806000806080858703121561020957600080fd5b610212856101d7565b60208601519094506001600160401b038116811461022f57600080fd5b925061023d604086016101d7565b6060959095015193969295505050565b608051610de1620002706000396000818161021d015261025f0152610de16000f3fe608060405234801561001057600080fd5b506004361061009e5760003560e01c8063a168fa8911610066578063a168fa8914610129578063d8a4676f14610186578063dad22e21146101a7578063f2fde38b146101ba578063fc2a88c3146101cd57600080fd5b8063075ac12e146100a35780631fe543e3146100d057806379ba5097146100e55780638796ba8c146100ed5780638da5cb5b1461010e575b600080fd5b6100b66100b1366004610aca565b6101d6565b604080519283526020830191909152015b60405180910390f35b6100e36100de366004610b02565b610212565b005b6100e361029f565b6101006100fb366004610bcc565b610349565b6040519081526020016100c7565b6000546040516001600160a01b0390911681526020016100c7565b610164610137366004610bcc565b60046020526000908152604090208054600282015460039092015460ff8083169361010090930416919084565b60408051941515855292151560208501529183015260608201526080016100c7565b610199610194366004610bcc565b61036a565b6040516100c7929190610c20565b6101006101b5366004610c43565b61046d565b6100e36101c8366004610c85565b610779565b61010060075481565b600360205281600052604060002081815481106101f257600080fd5b600091825260209091206003909102018054600190910154909250905082565b336001600160a01b037f000000000000000000000000000000000000000000000000000000000000000016146102915760405163073e64fd60e21b81523360048201526001600160a01b037f00000000000000000000000000000000000000000000000000000000000000001660248201526044015b60405180910390fd5b61029b828261078d565b5050565b6001546001600160a01b031633146102f25760405162461bcd60e51b815260206004820152601660248201527526bab9ba10313290383937b837b9b2b21037bbb732b960511b6044820152606401610288565b60008054336001600160a01b0319808316821784556001805490911690556040516001600160a01b0390921692909183917f8be0079c531659141344cd1fd0a4f28419497f9722a3daafe3b4186f6b6457e091a350565b6006818154811061035957600080fd5b600091825260209091200154905081565b600081815260046020526040812054606090610100900460ff166103c45760405162461bcd60e51b81526020600482015260116024820152701c995c5d595cdd081b9bdd08199bdd5b99607a1b6044820152606401610288565b6000838152600460209081526040808320815160a081018352815460ff808216151583526101009091041615158185015260018201805484518187028101870186528181529295939486019383018282801561043f57602002820191906000526020600020905b81548152602001906001019080831161042b575b5050509183525050600282015460208201526003909101546040918201528151910151909590945092505050565b6000606e8263ffffffff1611156104dd5760405162461bcd60e51b815260206004820152602e60248201527f57696e6e65727320616d6f756e74206c696d6974206973203131302077696e6e60448201526d6572732070657220726166666c6560901b6064820152608401610288565b6002546001600160a01b03163314156105245760405162461bcd60e51b81526020600482015260096024820152684e6f2041636365737360b81b6044820152606401610288565b6000610532836155f0610ccb565b6005546008546009546040516305d3b1d360e41b81526004810192909252600160a01b830467ffffffffffffffff16602483015261ffff16604482015263ffffffff8084166064830152861660848201529192506001600160a01b031690635d3b1d309060a4016020604051808303816000875af11580156105b8573d6000803e3d6000fd5b505050506040513d601f19601f820116820180604052508101906105dc9190610cf7565b600086815260036020818152604080842081516060810183528681528084018b8152835187815280860185529382019384528254600180820185559388529685902082519790960290950195865593519085015551805194965091936106489260028501920190610a6a565b50506040805160a0810182526000808252600160208084018290528451838152808201865284860152606084018b90528a83526003905292902054909250608083019161069491610d10565b9052600083815260046020908152604091829020835181548584015115156101000261ff00199215159290921661ffff19909116171781559183015180516106e29260018501920190610a6a565b5060608201516002820155608090910151600390910155600680546001810182556000919091527ff652222313e28459528d920b65115c16c04f3efc82aaedc97be59f3f377c0d3f0182905560078290556040805183815263ffffffff851660208201527fcc58b13ad3eab50626c6a6300b1d139cd6ebb1688a7cced9461c2f7e762665ee910160405180910390a1509392505050565b61078161096b565b61078a816109c0565b50565b600082815260046020526040902054610100900460ff166107e45760405162461bcd60e51b81526020600482015260116024820152701c995c5d595cdd081b9bdd08199bdd5b99607a1b6044820152606401610288565b6000828152600460209081526040909120805460ff1916600190811782558351610815939290910191840190610a6a565b507ffe2e2d779dba245964d4e3ef9b994be63856fd568bf7d3ca9e224755cb1bd54d8282604051610847929190610d27565b60405180910390a160008281526004602090815260408083206002810154845260039283905290832091810154825491939291811061088857610888610d40565b906000526020600020906003020190506000835167ffffffffffffffff8111156108b4576108b4610aec565b6040519080825280602002602001820160405280156108dd578160200160208202803683370190505b50905060005b845181101561094d57826001015485828151811061090357610903610d40565b60200260200101516109159190610d56565b610920906001610d78565b82828151811061093257610932610d40565b602090810291909101015261094681610d90565b90506108e3565b5080516109639060028401906020840190610a6a565b505050505050565b6000546001600160a01b031633146109be5760405162461bcd60e51b815260206004820152601660248201527527b7363c9031b0b63630b1363290313c9037bbb732b960511b6044820152606401610288565b565b6001600160a01b038116331415610a195760405162461bcd60e51b815260206004820152601760248201527f43616e6e6f74207472616e7366657220746f2073656c660000000000000000006044820152606401610288565b600180546001600160a01b0319166001600160a01b0383811691821790925560008054604051929316917fed8889f560326eb138920d842192f0eb3dd22b4f139c87a2c57538e05bae12789190a350565b828054828255906000526020600020908101928215610aa5579160200282015b82811115610aa5578251825591602001919060010190610a8a565b50610ab1929150610ab5565b5090565b5b80821115610ab15760008155600101610ab6565b60008060408385031215610add57600080fd5b50508035926020909101359150565b634e487b7160e01b600052604160045260246000fd5b60008060408385031215610b1557600080fd5b8235915060208084013567ffffffffffffffff80821115610b3557600080fd5b818601915086601f830112610b4957600080fd5b813581811115610b5b57610b5b610aec565b8060051b604051601f19603f83011681018181108582111715610b8057610b80610aec565b604052918252848201925083810185019189831115610b9e57600080fd5b938501935b82851015610bbc57843584529385019392850192610ba3565b8096505050505050509250929050565b600060208284031215610bde57600080fd5b5035919050565b600081518084526020808501945080840160005b83811015610c1557815187529582019590820190600101610bf9565b509495945050505050565b8215158152604060208201526000610c3b6040830184610be5565b949350505050565b600080600060608486031215610c5857600080fd5b8335925060208401359150604084013563ffffffff81168114610c7a57600080fd5b809150509250925092565b600060208284031215610c9757600080fd5b81356001600160a01b0381168114610cae57600080fd5b9392505050565b634e487b7160e01b600052601160045260246000fd5b600063ffffffff80831681851681830481118215151615610cee57610cee610cb5565b02949350505050565b600060208284031215610d0957600080fd5b5051919050565b600082821015610d2257610d22610cb5565b500390565b828152604060208201526000610c3b6040830184610be5565b634e487b7160e01b600052603260045260246000fd5b600082610d7357634e487b7160e01b600052601260045260246000fd5b500690565b60008219821115610d8b57610d8b610cb5565b500190565b6000600019821415610da457610da4610cb5565b506001019056fea2646970667358221220c53fe3427cb66c848a6797cf25fab504acc6762f902a0ebef122eb95c9daf39264736f6c634300080c0033",
  "linkReferences": {},
  "deployedLinkReferences": {}
}