{
  "_format": "hh-sol-artifact-1",
  "contractName": "ChainlinkExecutor",
  "sourceName": "src/backend/contracts/ChainlinkExecutor.sol",
  "abi": [
    {
      "inputs": [],
      "stateMutability": "nonpayable",
      "type": "constructor"
    },
    {
      "anonymous": false,
      "inputs": [
        {
          "indexed": false,
          "internalType": "address",
          "name": "previousAdmin",
          "type": "address"
        },
        {
          "indexed": false,
          "internalType": "address",
          "name": "newAdmin",
          "type": "address"
        }
      ],
      "name": "AdminChanged",
      "type": "event"
    },
    {
      "anonymous": false,
      "inputs": [
        {
          "indexed": true,
          "internalType": "address",
          "name": "beacon",
          "type": "address"
        }
      ],
      "name": "BeaconUpgraded",
      "type": "event"
    },
    {
      "anonymous": false,
      "inputs": [
        {
          "indexed": false,
          "internalType": "uint8",
          "name": "version",
          "type": "uint8"
        }
      ],
      "name": "Initialized",
      "type": "event"
    },
    {
      "anonymous": false,
      "inputs": [
        {
          "indexed": true,
          "internalType": "address",
          "name": "previousOwner",
          "type": "address"
        },
        {
          "indexed": true,
          "internalType": "address",
          "name": "newOwner",
          "type": "address"
        }
      ],
      "name": "OwnershipTransferred",
      "type": "event"
    },
    {
      "anonymous": false,
      "inputs": [
        {
          "indexed": true,
          "internalType": "address",
          "name": "implementation",
          "type": "address"
        }
      ],
      "name": "Upgraded",
      "type": "event"
    },
    {
      "inputs": [
        {
          "internalType": "address",
          "name": "contractAddress",
          "type": "address"
        },
        {
          "internalType": "uint256",
          "name": "proposalId",
          "type": "uint256"
        },
        {
          "internalType": "address[]",
          "name": "targets",
          "type": "address[]"
        },
        {
          "internalType": "uint256[]",
          "name": "values",
          "type": "uint256[]"
        },
        {
          "internalType": "bytes[]",
          "name": "calldatas",
          "type": "bytes[]"
        },
        {
          "internalType": "bytes32",
          "name": "descriptionHash",
          "type": "bytes32"
        }
      ],
      "name": "addProposal",
      "outputs": [],
      "stateMutability": "nonpayable",
      "type": "function"
    },
    {
      "inputs": [
        {
          "internalType": "uint256",
          "name": "",
          "type": "uint256"
        },
        {
          "internalType": "uint256",
          "name": "",
          "type": "uint256"
        }
      ],
      "name": "blockProposals",
      "outputs": [
        {
          "internalType": "address",
          "name": "contractAddress",
          "type": "address"
        },
        {
          "internalType": "uint256",
          "name": "proposalId",
          "type": "uint256"
        },
        {
          "internalType": "bytes32",
          "name": "descriptionHash",
          "type": "bytes32"
        }
      ],
      "stateMutability": "view",
      "type": "function"
    },
    {
      "inputs": [],
      "name": "checkExecutions",
      "outputs": [],
      "stateMutability": "nonpayable",
      "type": "function"
    },
    {
      "inputs": [],
      "name": "initialize",
      "outputs": [],
      "stateMutability": "nonpayable",
      "type": "function"
    },
    {
      "inputs": [],
      "name": "owner",
      "outputs": [
        {
          "internalType": "address",
          "name": "",
          "type": "address"
        }
      ],
      "stateMutability": "view",
      "type": "function"
    },
    {
      "inputs": [
        {
          "internalType": "uint256",
          "name": "",
          "type": "uint256"
        }
      ],
      "name": "proposalEndBlocks",
      "outputs": [
        {
          "internalType": "uint256",
          "name": "",
          "type": "uint256"
        }
      ],
      "stateMutability": "view",
      "type": "function"
    },
    {
      "inputs": [],
      "name": "proxiableUUID",
      "outputs": [
        {
          "internalType": "bytes32",
          "name": "",
          "type": "bytes32"
        }
      ],
      "stateMutability": "view",
      "type": "function"
    },
    {
      "inputs": [],
      "name": "renounceOwnership",
      "outputs": [],
      "stateMutability": "nonpayable",
      "type": "function"
    },
    {
      "inputs": [
        {
          "internalType": "address",
          "name": "newOwner",
          "type": "address"
        }
      ],
      "name": "transferOwnership",
      "outputs": [],
      "stateMutability": "nonpayable",
      "type": "function"
    },
    {
      "inputs": [
        {
          "internalType": "address",
          "name": "newImplementation",
          "type": "address"
        }
      ],
      "name": "upgradeTo",
      "outputs": [],
      "stateMutability": "nonpayable",
      "type": "function"
    },
    {
      "inputs": [
        {
          "internalType": "address",
          "name": "newImplementation",
          "type": "address"
        },
        {
          "internalType": "bytes",
          "name": "data",
          "type": "bytes"
        }
      ],
      "name": "upgradeToAndCall",
      "outputs": [],
      "stateMutability": "payable",
      "type": "function"
    }
  ],
  "bytecode": "0x60a06040523060805234801561001457600080fd5b5061001d610022565b6100e2565b600054610100900460ff161561008e5760405162461bcd60e51b815260206004820152602760248201527f496e697469616c697a61626c653a20636f6e747261637420697320696e697469604482015266616c697a696e6760c81b606482015260840160405180910390fd5b60005460ff90811610156100e0576000805460ff191660ff9081179091556040519081527f7f26b83ff96e1f2b6a682f133852f6798a09c465da95921460cefb38474024989060200160405180910390a15b565b6080516121a0610119600039600081816102150152818161025e0152818161031f0152818161035f01526103f201526121a06000f3fe60806040526004361061009c5760003560e01c806376f1170e1161006457806376f1170e146101335780638129fc1c146101485780638da5cb5b1461015d578063c260814414610185578063e6e9cd7f146101ca578063f2fde38b146101ea57600080fd5b80633659cfe6146100a157806340c75564146100c35780634f1ef286146100f657806352d1902d14610109578063715018a61461011e575b600080fd5b3480156100ad57600080fd5b506100c16100bc36600461172c565b61020a565b005b3480156100cf57600080fd5b506100e36100de366004611747565b6102f3565b6040519081526020015b60405180910390f35b6100c1610104366004611817565b610314565b34801561011557600080fd5b506100e36103e5565b34801561012a57600080fd5b506100c1610498565b34801561013f57600080fd5b506100c16104ac565b34801561015457600080fd5b506100c1610785565b34801561016957600080fd5b506033546040516001600160a01b0390911681526020016100ed565b34801561019157600080fd5b506101a56101a0366004611865565b61089d565b604080516001600160a01b0390941684526020840192909252908201526060016100ed565b3480156101d657600080fd5b506100c16101e5366004611996565b6108e9565b3480156101f657600080fd5b506100c161020536600461172c565b610af8565b306001600160a01b037f000000000000000000000000000000000000000000000000000000000000000016141561025c5760405162461bcd60e51b815260040161025390611a9f565b60405180910390fd5b7f00000000000000000000000000000000000000000000000000000000000000006001600160a01b03166102a5600080516020611fde833981519152546001600160a01b031690565b6001600160a01b0316146102cb5760405162461bcd60e51b815260040161025390611aeb565b6102d481610b6e565b604080516000808252602082019092526102f091839190610b76565b50565b60c9818154811061030357600080fd5b600091825260209091200154905081565b306001600160a01b037f000000000000000000000000000000000000000000000000000000000000000016141561035d5760405162461bcd60e51b815260040161025390611a9f565b7f00000000000000000000000000000000000000000000000000000000000000006001600160a01b03166103a6600080516020611fde833981519152546001600160a01b031690565b6001600160a01b0316146103cc5760405162461bcd60e51b815260040161025390611aeb565b6103d582610b6e565b6103e182826001610b76565b5050565b6000306001600160a01b037f000000000000000000000000000000000000000000000000000000000000000016146104855760405162461bcd60e51b815260206004820152603860248201527f555550535570677261646561626c653a206d757374206e6f742062652063616c60448201527f6c6564207468726f7567682064656c656761746563616c6c00000000000000006064820152608401610253565b50600080516020611fde83398151915290565b6104a0610ce6565b6104aa6000610d40565b565b6104cd6040518060600160405280603b8152602001612092603b9139610d92565b6104f1604051806060016040528060378152602001611e126037913960c954610dd5565b610513604051806060016040528060328152602001611ef26032913943610dd5565b60005b60c9548110156102f05761055f6040518060600160405280603b81526020016120cd603b913960c9838154811061054f5761054f611b37565b9060005260206000200154610dd5565b4360c9828154811061057357610573611b37565b90600052602060002001541015610775576105a5604051806060016040528060288152602001611f8a60289139610d92565b60005b60ca600060c984815481106105bf576105bf611b37565b90600052602060002001548152602001908152602001600020805490508110156106d35761060460405180606001604052806039815260200161205960399139610d92565b610626604051806060016040528060288152602001611e9b6028913982610dd5565b61067b604051806080016040528060528152602001611e496052913960ca600060c9868154811061065957610659611b37565b9060005260206000200154815260200190815260200160002080549050610dd5565b6106a260c9838154811061069157610691611b37565b906000526020600020015482610e1a565b6106c360405180606001604052806031815260200161210860319139610d92565b6106cc81611b63565b90506105a8565b5060c9546001101561072a5760c980546106ef90600190611b7e565b815481106106ff576106ff611b37565b906000526020600020015460c9828154811061071d5761071d611b37565b6000918252602090912001555b60c980548061073b5761073b611b95565b600190038181906000526020600020016000905590556107756040518060600160405280603b8152602001611f24603b913960c954610dd5565b61077e81611b63565b9050610516565b600054610100900460ff16158080156107a55750600054600160ff909116105b806107bf5750303b1580156107bf575060005460ff166001145b6108225760405162461bcd60e51b815260206004820152602e60248201527f496e697469616c697a61626c653a20636f6e747261637420697320616c72656160448201526d191e481a5b9a5d1a585b1a5e995960921b6064820152608401610253565b6000805460ff191660011790558015610845576000805461ff0019166101001790555b61084d6111ad565b6108556111dc565b80156102f0576000805461ff0019169055604051600181527f7f26b83ff96e1f2b6a682f133852f6798a09c465da95921460cefb38474024989060200160405180910390a150565b60ca60205281600052604060002081815481106108b957600080fd5b60009182526020909120600690910201805460018201546005909201546001600160a01b03909116935090915083565b60405163c01f9e3760e01b8152600481018690526000906001600160a01b0388169063c01f9e3790602401602060405180830381865afa158015610931573d6000803e3d6000fd5b505050506040513d601f19601f820116820180604052508101906109559190611bab565b905060006109b360c98054806020026020016040519081016040528092919081815260200182805480156109a857602002820191906000526020600020905b815481526020019060010190808311610994575b505050505083611203565b915050806109f15760c980546001810182556000919091527f66be4f155c5ef2ebd3772b228f2f00681e4ed5826cdb3b1943cc11ad15ad1d28018290555b610a13604051806060016040528060348152602001611ffe6034913988610dd5565b600082815260ca60209081526040808320815160c0810183526001600160a01b038d811682528185018d81529382018c8152606083018c9052608083018b905260a083018a905283546001808201865594885296869020835160069098020180546001600160a01b03191697909216969096178155925191830191909155925180519192610aa992600285019290910190611538565b5060608201518051610ac591600384019160209091019061159d565b5060808201518051610ae19160048401916020909101906115d8565b5060a0820151816005015550505050505050505050565b610b00610ce6565b6001600160a01b038116610b655760405162461bcd60e51b815260206004820152602660248201527f4f776e61626c653a206e6577206f776e657220697320746865207a65726f206160448201526564647265737360d01b6064820152608401610253565b6102f081610d40565b6102f0610ce6565b7f4910fdfa16fed3260ed0e7147f7cc6da11a60208b5b9406d12a635614ffd91435460ff1615610bae57610ba983611263565b505050565b826001600160a01b03166352d1902d6040518163ffffffff1660e01b8152600401602060405180830381865afa925050508015610c08575060408051601f3d908101601f19168201909252610c0591810190611bab565b60015b610c6b5760405162461bcd60e51b815260206004820152602e60248201527f45524331393637557067726164653a206e657720696d706c656d656e7461746960448201526d6f6e206973206e6f74205555505360901b6064820152608401610253565b600080516020611fde8339815191528114610cda5760405162461bcd60e51b815260206004820152602960248201527f45524331393637557067726164653a20756e737570706f727465642070726f786044820152681a58589b195555525160ba1b6064820152608401610253565b50610ba98383836112ff565b6033546001600160a01b031633146104aa5760405162461bcd60e51b815260206004820181905260248201527f4f776e61626c653a2063616c6c6572206973206e6f7420746865206f776e65726044820152606401610253565b603380546001600160a01b038381166001600160a01b0319831681179093556040519116919082907f8be0079c531659141344cd1fd0a4f28419497f9722a3daafe3b4186f6b6457e090600090a35050565b6102f081604051602401610da69190611c1c565b60408051601f198184030181529190526020810180516001600160e01b031663104c13eb60e21b179052611324565b6103e18282604051602401610deb929190611c2f565b60408051601f198184030181529190526020810180516001600160e01b0316632d839cb360e21b179052611324565b610e3c6040518060600160405280603281526020016121396032913983610dd5565b610e5e6040518060600160405280602c8152602001611fb2602c913982610dd5565b600082815260ca60205260408120805483908110610e7e57610e7e611b37565b60009182526020918290206040805160c081018252600690930290910180546001600160a01b031683526001810154838501526002810180548351818702810187018552818152949592949386019392830182828015610f0757602002820191906000526020600020905b81546001600160a01b03168152600190910190602001808311610ee9575b5050505050815260200160038201805480602002602001604051908101604052809291908181526020018280548015610f5f57602002820191906000526020600020905b815481526020019060010190808311610f4b575b5050505050815260200160048201805480602002602001604051908101604052809291908181526020016000905b82821015611039578382906000526020600020018054610fac90611c51565b80601f0160208091040260200160405190810160405280929190818152602001828054610fd890611c51565b80156110255780601f10610ffa57610100808354040283529160200191611025565b820191906000526020600020905b81548152906001019060200180831161100857829003601f168201915b505050505081526020019060010190610f8d565b50505050815260200160058201548152505090506110706040518060600160405280602b8152602001611f5f602b91398251611345565b80516040808301516060840151608085015160a0860151935163160cbed760e01b81526001600160a01b039095169463160cbed7946110b494939291600401611ce1565b6020604051808303816000875af11580156110d3573d6000803e3d6000fd5b505050506040513d601f19601f820116820180604052508101906110f79190611bab565b50600081600001516001600160a01b0316632656227d8360400151846060015185608001518660a001516040518563ffffffff1660e01b81526004016111409493929190611ce1565b6020604051808303816000875af115801561115f573d6000803e3d6000fd5b505050506040513d601f19601f820116820180604052508101906111839190611bab565b90506111a76040518060600160405280602f8152602001611ec3602f913982610dd5565b50505050565b600054610100900460ff166111d45760405162461bcd60e51b815260040161025390611d80565b6104aa61138a565b600054610100900460ff166104aa5760405162461bcd60e51b815260040161025390611d80565b81516000908190815b81811015611252578486828151811061122757611227611b37565b602002602001015114156112425792506001915061125c9050565b61124b81611b63565b905061120c565b5060008092509250505b9250929050565b6001600160a01b0381163b6112d05760405162461bcd60e51b815260206004820152602d60248201527f455243313936373a206e657720696d706c656d656e746174696f6e206973206e60448201526c1bdd08184818dbdb9d1c9858dd609a1b6064820152608401610253565b600080516020611fde83398151915280546001600160a01b0319166001600160a01b0392909216919091179055565b611308836113ba565b6000825111806113155750805b15610ba9576111a783836113fa565b80516a636f6e736f6c652e6c6f67602083016000808483855afa5050505050565b6103e1828260405160240161135b929190611dcb565b60408051601f198184030181529190526020810180516001600160e01b031663319af33360e01b179052611324565b600054610100900460ff166113b15760405162461bcd60e51b815260040161025390611d80565b6104aa33610d40565b6113c381611263565b6040516001600160a01b038216907fbc7cd75a20ee27fd9adebab32041f755214dbc6bffa90cc0225b39da2e5c2d3b90600090a250565b60606001600160a01b0383163b6114625760405162461bcd60e51b815260206004820152602660248201527f416464726573733a2064656c65676174652063616c6c20746f206e6f6e2d636f6044820152651b9d1c9858dd60d21b6064820152608401610253565b600080846001600160a01b03168460405161147d9190611df5565b600060405180830381855af49150503d80600081146114b8576040519150601f19603f3d011682016040523d82523d6000602084013e6114bd565b606091505b50915091506114e58282604051806060016040528060278152602001612032602791396114ee565b95945050505050565b606083156114fd575081611507565b611507838361150e565b9392505050565b81511561151e5781518083602001fd5b8060405162461bcd60e51b81526004016102539190611c1c565b82805482825590600052602060002090810192821561158d579160200282015b8281111561158d57825182546001600160a01b0319166001600160a01b03909116178255602090920191600190910190611558565b50611599929150611631565b5090565b82805482825590600052602060002090810192821561158d579160200282015b8281111561158d5782518255916020019190600101906115bd565b828054828255906000526020600020908101928215611625579160200282015b828111156116255782518051611615918491602090910190611646565b50916020019190600101906115f8565b506115999291506116b9565b5b808211156115995760008155600101611632565b82805461165290611c51565b90600052602060002090601f016020900481019282611674576000855561158d565b82601f1061168d57805160ff191683800117855561158d565b8280016001018555821561158d579182018281111561158d5782518255916020019190600101906115bd565b808211156115995760006116cd82826116d6565b506001016116b9565b5080546116e290611c51565b6000825580601f106116f2575050565b601f0160209004906000526020600020908101906102f09190611631565b80356001600160a01b038116811461172757600080fd5b919050565b60006020828403121561173e57600080fd5b61150782611710565b60006020828403121561175957600080fd5b5035919050565b634e487b7160e01b600052604160045260246000fd5b604051601f8201601f1916810167ffffffffffffffff8111828210171561179f5761179f611760565b604052919050565b600082601f8301126117b857600080fd5b813567ffffffffffffffff8111156117d2576117d2611760565b6117e5601f8201601f1916602001611776565b8181528460208386010111156117fa57600080fd5b816020850160208301376000918101602001919091529392505050565b6000806040838503121561182a57600080fd5b61183383611710565b9150602083013567ffffffffffffffff81111561184f57600080fd5b61185b858286016117a7565b9150509250929050565b6000806040838503121561187857600080fd5b50508035926020909101359150565b600067ffffffffffffffff8211156118a1576118a1611760565b5060051b60200190565b600082601f8301126118bc57600080fd5b813560206118d16118cc83611887565b611776565b82815260059290921b840181019181810190868411156118f057600080fd5b8286015b8481101561190b57803583529183019183016118f4565b509695505050505050565b600082601f83011261192757600080fd5b813560206119376118cc83611887565b82815260059290921b8401810191818101908684111561195657600080fd5b8286015b8481101561190b57803567ffffffffffffffff81111561197a5760008081fd5b6119888986838b01016117a7565b84525091830191830161195a565b60008060008060008060c087890312156119af57600080fd5b6119b887611710565b95506020808801359550604088013567ffffffffffffffff808211156119dd57600080fd5b818a0191508a601f8301126119f157600080fd5b81356119ff6118cc82611887565b81815260059190911b8301840190848101908d831115611a1e57600080fd5b938501935b82851015611a4357611a3485611710565b82529385019390850190611a23565b9850505060608a0135925080831115611a5b57600080fd5b611a678b848c016118ab565b955060808a0135925080831115611a7d57600080fd5b5050611a8b89828a01611916565b92505060a087013590509295509295509295565b6020808252602c908201527f46756e6374696f6e206d7573742062652063616c6c6564207468726f7567682060408201526b19195b1959d85d1958d85b1b60a21b606082015260800190565b6020808252602c908201527f46756e6374696f6e206d7573742062652063616c6c6564207468726f7567682060408201526b6163746976652070726f787960a01b606082015260800190565b634e487b7160e01b600052603260045260246000fd5b634e487b7160e01b600052601160045260246000fd5b6000600019821415611b7757611b77611b4d565b5060010190565b600082821015611b9057611b90611b4d565b500390565b634e487b7160e01b600052603160045260246000fd5b600060208284031215611bbd57600080fd5b5051919050565b60005b83811015611bdf578181015183820152602001611bc7565b838111156111a75750506000910152565b60008151808452611c08816020860160208601611bc4565b601f01601f19169290920160200192915050565b6020815260006115076020830184611bf0565b604081526000611c426040830185611bf0565b90508260208301529392505050565b600181811c90821680611c6557607f821691505b60208210811415611c8657634e487b7160e01b600052602260045260246000fd5b50919050565b600081518084526020808501808196508360051b8101915082860160005b85811015611cd4578284038952611cc2848351611bf0565b98850198935090840190600101611caa565b5091979650505050505050565b6080808252855190820181905260009060209060a0840190828901845b82811015611d235781516001600160a01b031684529284019290840190600101611cfe565b5050508381038285015286518082528783019183019060005b81811015611d5857835183529284019291840191600101611d3c565b50508481036040860152611d6c8188611c8c565b935050505082606083015295945050505050565b6020808252602b908201527f496e697469616c697a61626c653a20636f6e7472616374206973206e6f74206960408201526a6e697469616c697a696e6760a81b606082015260800190565b604081526000611dde6040830185611bf0565b905060018060a01b03831660208301529392505050565b60008251611e07818460208701611bc4565b919091019291505056fe2d2d2d2d2d2d2d2d2d2d2d2d2d2d2d2d2d2d2070726f706f73616c456e64426c6f636b73202d2d2d2d2d2d2d2d2d2d2d2d2d2d2d2d2d2d2d2d2d2d2d2d2d2d2d2d2d2d2d2d2d2d2d2d20626c6f636b50726f706f73616c735b70726f706f73616c456e64426c6f636b735b5f695d5d2e6c656e677468202d2d2d2d2d2d2d2d2d2d2d2d2d2d2d2d2d2d2d2d2d2d2d2d2d2d2d2d2d2d2d2d2d2d2d2d205f6a202d2d2d2d2d2d2d2d2d2d2d2d2d2d2d2d2d2d2d2d2d2d2d2d2d2d2d2d2d2d2d2070726f706f73616c4964204578656375746564202d2d2d2d2d2d2d2d2d2d2d2d2d2d2d2d2d2d2d2d2d2d2d2d2d2d2d2d2d2d2d20626c6f636b2e6e756d626572202d2d2d2d2d2d2d2d2d2d2d2d2d2d2d2d2d2d2d2d2d2d2d2d2d2d2d2d2d2d2d2d2d2d2d2d2070726f706f73616c456e64426c6f636b732e706f70202d2d2d2d2d2d2d2d2d2d2d2d2d2d2d2d2d2d2d2d2d2d2d2d2d2d2d2d2d2d2d206578656375746550726f706f73616c202d2d2d2d2d2d2d2d2d2d2d2d2d2d2d2d2d2d2d2d2d2d2d2d2d2d2d2d2d2d2d204f4b202d2d2d2d2d2d2d2d2d2d2d2d2d2d2d2d2d2d2d2d2d2d2d2d2d2d2d2d2d2d2d2d2d2d2d2d205f696e646578202d2d2d2d2d2d2d2d2d2d2d2d2d2d2d2d2d2d360894a13ba1a3210667c828492db98dca3e2076cc3735a920a3ca505d382bbc2d2d2d2d2d2d2d2d2d2d2d2d2d2d2d2d2d2d204144442070726f706f73616c4964202d2d2d2d2d2d2d2d2d2d2d2d2d2d2d2d2d2d416464726573733a206c6f772d6c6576656c2064656c65676174652063616c6c206661696c65642d2d2d2d2d2d2d2d2d2d2d2d2d2d2d2d2d2d20787878206578656375746550726f706f73616c202d2d2d2d2d2d2d2d2d2d2d2d2d2d2d2d2d2d2d2d2d2d2d2d2d2d2d2d2d2d2d2d2d2d2d2d20737461727420636865636b457865637574696f6e73202d2d2d2d2d2d2d2d2d2d2d2d2d2d2d2d2d2d2d2d2d2d2d2d2d2d2d2d2d2d2d2d2d2d2d2d2070726f706f73616c456e64426c6f636b735b5f695d202d2d2d2d2d2d2d2d2d2d2d2d2d2d2d2d2d2d2d2d2d2d2d2d2d2d2d2d2d2d2d2d2d2d2d2d206578656375746520454e44202d2d2d2d2d2d2d2d2d2d2d2d2d2d2d2d2d2d2d2d2d2d2d2d2d2d2d2d2d2d2d2d2d2d2d2d205f626c6f636b4e756d626572202d2d2d2d2d2d2d2d2d2d2d2d2d2d2d2d2d2da2646970667358221220b7bd1bdcb61074d14acc2cea17aaac7bbb433c010975116679832a503a76e76964736f6c634300080c0033",
  "linkReferences": {},
  "deployedLinkReferences": {}
}