{
  "_format": "hh-sol-artifact-1",
  "contractName": "ChainlinkVRF",
  "sourceName": "src/backend/contracts/ChainlinkVRF.sol",
  "abi": [
    {
      "inputs": [
        {
          "internalType": "address",
          "name": "_mainContractAddress",
          "type": "address"
        },
        {
          "internalType": "uint64",
          "name": "_subscriptionId",
          "type": "uint64"
        },
        {
          "internalType": "address",
          "name": "_coordinator",
          "type": "address"
        },
        {
          "internalType": "bytes32",
          "name": "_keyHash",
          "type": "bytes32"
        }
      ],
      "stateMutability": "nonpayable",
      "type": "constructor"
    },
    {
      "inputs": [
        {
          "internalType": "address",
          "name": "have",
          "type": "address"
        },
        {
          "internalType": "address",
          "name": "want",
          "type": "address"
        }
      ],
      "name": "OnlyCoordinatorCanFulfill",
      "type": "error"
    },
    {
      "anonymous": false,
      "inputs": [
        {
          "indexed": true,
          "internalType": "address",
          "name": "from",
          "type": "address"
        },
        {
          "indexed": true,
          "internalType": "address",
          "name": "to",
          "type": "address"
        }
      ],
      "name": "OwnershipTransferRequested",
      "type": "event"
    },
    {
      "anonymous": false,
      "inputs": [
        {
          "indexed": true,
          "internalType": "address",
          "name": "from",
          "type": "address"
        },
        {
          "indexed": true,
          "internalType": "address",
          "name": "to",
          "type": "address"
        }
      ],
      "name": "OwnershipTransferred",
      "type": "event"
    },
    {
      "anonymous": false,
      "inputs": [
        {
          "indexed": false,
          "internalType": "uint256",
          "name": "requestId",
          "type": "uint256"
        },
        {
          "indexed": false,
          "internalType": "uint256[]",
          "name": "randomWords",
          "type": "uint256[]"
        }
      ],
      "name": "RequestFulfilled",
      "type": "event"
    },
    {
      "anonymous": false,
      "inputs": [
        {
          "indexed": false,
          "internalType": "uint256",
          "name": "requestId",
          "type": "uint256"
        },
        {
          "indexed": false,
          "internalType": "uint32",
          "name": "numWords",
          "type": "uint32"
        }
      ],
      "name": "RequestSent",
      "type": "event"
    },
    {
      "inputs": [],
      "name": "acceptOwnership",
      "outputs": [],
      "stateMutability": "nonpayable",
      "type": "function"
    },
    {
      "inputs": [
        {
          "internalType": "uint256",
          "name": "",
          "type": "uint256"
        },
        {
          "internalType": "uint256",
          "name": "",
          "type": "uint256"
        }
      ],
      "name": "communityRaffles",
      "outputs": [
        {
          "internalType": "uint256",
          "name": "nftSeries",
          "type": "uint256"
        },
        {
          "internalType": "uint256",
          "name": "requestId",
          "type": "uint256"
        }
      ],
      "stateMutability": "view",
      "type": "function"
    },
    {
      "inputs": [
        {
          "internalType": "uint256",
          "name": "_communityId",
          "type": "uint256"
        }
      ],
      "name": "getCommunityRaffleList",
      "outputs": [
        {
          "components": [
            {
              "internalType": "uint256",
              "name": "nftSeries",
              "type": "uint256"
            },
            {
              "internalType": "uint256",
              "name": "requestId",
              "type": "uint256"
            },
            {
              "internalType": "address[]",
              "name": "participants",
              "type": "address[]"
            },
            {
              "internalType": "uint256[]",
              "name": "result",
              "type": "uint256[]"
            }
          ],
          "internalType": "struct ChainlinkVRF.Raffle[]",
          "name": "",
          "type": "tuple[]"
        }
      ],
      "stateMutability": "view",
      "type": "function"
    },
    {
      "inputs": [
        {
          "internalType": "uint256",
          "name": "_requestId",
          "type": "uint256"
        }
      ],
      "name": "getRequestStatus",
      "outputs": [
        {
          "internalType": "bool",
          "name": "fulfilled",
          "type": "bool"
        },
        {
          "internalType": "uint256[]",
          "name": "randomWords",
          "type": "uint256[]"
        }
      ],
      "stateMutability": "view",
      "type": "function"
    },
    {
      "inputs": [],
      "name": "lastRequestId",
      "outputs": [
        {
          "internalType": "uint256",
          "name": "",
          "type": "uint256"
        }
      ],
      "stateMutability": "view",
      "type": "function"
    },
    {
      "inputs": [],
      "name": "owner",
      "outputs": [
        {
          "internalType": "address",
          "name": "",
          "type": "address"
        }
      ],
      "stateMutability": "view",
      "type": "function"
    },
    {
      "inputs": [
        {
          "internalType": "uint256",
          "name": "requestId",
          "type": "uint256"
        },
        {
          "internalType": "uint256[]",
          "name": "randomWords",
          "type": "uint256[]"
        }
      ],
      "name": "rawFulfillRandomWords",
      "outputs": [],
      "stateMutability": "nonpayable",
      "type": "function"
    },
    {
      "inputs": [
        {
          "internalType": "uint256",
          "name": "",
          "type": "uint256"
        }
      ],
      "name": "requestIds",
      "outputs": [
        {
          "internalType": "uint256",
          "name": "",
          "type": "uint256"
        }
      ],
      "stateMutability": "view",
      "type": "function"
    },
    {
      "inputs": [
        {
          "internalType": "uint256",
          "name": "_nftSeries",
          "type": "uint256"
        },
        {
          "internalType": "uint256",
          "name": "_communityId",
          "type": "uint256"
        },
        {
          "internalType": "address[]",
          "name": "_participants",
          "type": "address[]"
        },
        {
          "internalType": "uint32",
          "name": "_winnersAmount",
          "type": "uint32"
        }
      ],
      "name": "requestRandomWords",
      "outputs": [
        {
          "internalType": "uint256",
          "name": "",
          "type": "uint256"
        }
      ],
      "stateMutability": "nonpayable",
      "type": "function"
    },
    {
      "inputs": [
        {
          "internalType": "uint256",
          "name": "",
          "type": "uint256"
        }
      ],
      "name": "s_requests",
      "outputs": [
        {
          "internalType": "bool",
          "name": "fulfilled",
          "type": "bool"
        },
        {
          "internalType": "bool",
          "name": "exists",
          "type": "bool"
        },
        {
          "internalType": "uint256",
          "name": "communityId",
          "type": "uint256"
        },
        {
          "internalType": "uint256",
          "name": "raffleIndex",
          "type": "uint256"
        }
      ],
      "stateMutability": "view",
      "type": "function"
    },
    {
      "inputs": [],
      "name": "totalCommunityRaffles",
      "outputs": [
        {
          "internalType": "uint256",
          "name": "",
          "type": "uint256"
        }
      ],
      "stateMutability": "view",
      "type": "function"
    },
    {
      "inputs": [
        {
          "internalType": "address",
          "name": "to",
          "type": "address"
        }
      ],
      "name": "transferOwnership",
      "outputs": [],
      "stateMutability": "nonpayable",
      "type": "function"
    }
  ],
  "bytecode": "0x60a0604052600a805461ffff191660031790553480156200001f57600080fd5b506040516200153a3803806200153a8339810160408190526200004291620001fe565b6001600160a01b0382166080523380600081620000a65760405162461bcd60e51b815260206004820152601860248201527f43616e6e6f7420736574206f776e657220746f207a65726f000000000000000060448201526064015b60405180910390fd5b600080546001600160a01b0319166001600160a01b0384811691909117909155811615620000d957620000d98162000135565b5050600680546001600160401b03909516600160a01b026001600160e01b03199095166001600160a01b03948516179490941790935560095560028054939091166001600160a01b03199390931692909217909155506200025e565b6001600160a01b038116331415620001905760405162461bcd60e51b815260206004820152601760248201527f43616e6e6f74207472616e7366657220746f2073656c6600000000000000000060448201526064016200009d565b600180546001600160a01b0319166001600160a01b0383811691821790925560008054604051929316917fed8889f560326eb138920d842192f0eb3dd22b4f139c87a2c57538e05bae12789190a350565b80516001600160a01b0381168114620001f957600080fd5b919050565b600080600080608085870312156200021557600080fd5b6200022085620001e1565b60208601519094506001600160401b03811681146200023e57600080fd5b92506200024e60408601620001e1565b6060959095015193969295505050565b6080516112b9620002816000396000818161025c015261029e01526112b96000f3fe608060405234801561001057600080fd5b50600436106100b45760003560e01c80638796ba8c116100715780638796ba8c1461014d5780638da5cb5b14610160578063a168fa891461017b578063d8a4676f146101d8578063f2fde38b146101f9578063fc2a88c31461020c57600080fd5b8063075ac12e146100b95780631fe543e3146100e6578063226a18ef146100fb5780633fe6a31d1461011c57806367bbe1181461012557806379ba509714610145575b600080fd5b6100cc6100c7366004610de0565b610215565b604080519283526020830191909152015b60405180910390f35b6100f96100f4366004610e6d565b610251565b005b61010e610109366004610f3f565b6102de565b6040519081526020016100dd565b61010e60035481565b610138610133366004610ffd565b61069a565b6040516100dd9190611051565b6100f9610879565b61010e61015b366004610ffd565b610923565b6000546040516001600160a01b0390911681526020016100dd565b6101b6610189366004610ffd565b60056020526000908152604090208054600282015460039092015460ff8083169361010090930416919084565b60408051941515855292151560208501529183015260608201526080016100dd565b6101eb6101e6366004610ffd565b610944565b6040516100dd929190611120565b6100f9610207366004611143565b610a47565b61010e60085481565b6004602052816000526040600020818154811061023157600080fd5b600091825260209091206004909102018054600190910154909250905082565b336001600160a01b037f000000000000000000000000000000000000000000000000000000000000000016146102d05760405163073e64fd60e21b81523360048201526001600160a01b037f00000000000000000000000000000000000000000000000000000000000000001660248201526044015b60405180910390fd5b6102da8282610a5b565b5050565b60006101f48263ffffffff16111561034f5760405162461bcd60e51b815260206004820152602e60248201527f57696e6e65727320616d6f756e74206c696d6974206973203530302077696e6e60448201526d6572732070657220726166666c6560901b60648201526084016102c7565b6002546001600160a01b031633146103a95760405162461bcd60e51b815260206004820152601f60248201527f4e6f2041636365737320746f207265717565737452616e646f6d576f7264730060448201526064016102c7565b60006103b78361753061117b565b6103c490620186a06111a7565b600654600954600a546040516305d3b1d360e41b81526004810192909252600160a01b830467ffffffffffffffff16602483015261ffff16604482015263ffffffff8084166064830152861660848201529192506000916001600160a01b0390911690635d3b1d309060a4016020604051808303816000875af115801561044f573d6000803e3d6000fd5b505050506040513d601f19601f8201168201806040525081019061047391906111cf565b905060006040518060800160405280898152602001838152602001878152602001600067ffffffffffffffff8111156104ae576104ae610e02565b6040519080825280602002602001820160405280156104d7578160200160208202803683370190505b509052600088815260046020818152604080842080546001818101835582875295849020875191909502909401938455828601519484019490945584015180519495509293859361052f926002850192910190610d2b565b506060820151805161054b916003840191602090910190610d90565b50505060016003600082825461056191906111e8565b90915550506040805160a0810182526000808252600160208084018290528451838152808201865284860152606084018d90528c83526004905292902054909160808301916105b09190611200565b9052600084815260056020908152604091829020835181548584015115156101000261ff00199215159290921661ffff19909116171781559183015180516105fe9260018501920190610d90565b5060608201516002820155608090910151600390910155600780546001810182556000919091527fa66cc928b5edb82af9bd49922954155ab7b0942694bea4ce44661d9a8736c6880183905560088390556040805184815263ffffffff881660208201527fcc58b13ad3eab50626c6a6300b1d139cd6ebb1688a7cced9461c2f7e762665ee910160405180910390a15090979650505050505050565b6000818152600460205260408120546060919067ffffffffffffffff8111156106c5576106c5610e02565b60405190808252806020026020018201604052801561072157816020015b61070e6040518060800160405280600081526020016000815260200160608152602001606081525090565b8152602001906001900390816106e35790505b50905060005b60008481526004602052604090205481101561087257600084815260046020526040902080548290811061075d5761075d611217565b90600052602060002090600402016040518060800160405290816000820154815260200160018201548152602001600282018054806020026020016040519081016040528092919081815260200182805480156107e357602002820191906000526020600020905b81546001600160a01b031681526001909101906020018083116107c5575b505050505081526020016003820180548060200260200160405190810160405280929190818152602001828054801561083b57602002820191906000526020600020905b815481526020019060010190808311610827575b50505050508152505082828151811061085657610856611217565b60200260200101819052508061086b9061122d565b9050610727565b5092915050565b6001546001600160a01b031633146108cc5760405162461bcd60e51b815260206004820152601660248201527526bab9ba10313290383937b837b9b2b21037bbb732b960511b60448201526064016102c7565b60008054336001600160a01b0319808316821784556001805490911690556040516001600160a01b0390921692909183917f8be0079c531659141344cd1fd0a4f28419497f9722a3daafe3b4186f6b6457e091a350565b6007818154811061093357600080fd5b600091825260209091200154905081565b600081815260056020526040812054606090610100900460ff1661099e5760405162461bcd60e51b81526020600482015260116024820152701c995c5d595cdd081b9bdd08199bdd5b99607a1b60448201526064016102c7565b6000838152600560209081526040808320815160a081018352815460ff8082161515835261010090910416151581850152600182018054845181870281018701865281815292959394860193830182828015610a1957602002820191906000526020600020905b815481526020019060010190808311610a05575b5050509183525050600282015460208201526003909101546040918201528151910151909590945092505050565b610a4f610c2c565b610a5881610c81565b50565b600082815260056020526040902054610100900460ff16610ab25760405162461bcd60e51b81526020600482015260116024820152701c995c5d595cdd081b9bdd08199bdd5b99607a1b60448201526064016102c7565b6000828152600560209081526040909120805460ff19166001908117825583519192610ae5929184019190850190610d90565b507ffe2e2d779dba245964d4e3ef9b994be63856fd568bf7d3ca9e224755cb1bd54d8383604051610b17929190611248565b60405180910390a160028101546000908152600460205260408120600383015481548110610b4757610b47611217565b906000526020600020906004020190506000835167ffffffffffffffff811115610b7357610b73610e02565b604051908082528060200260200182016040528015610b9c578160200160208202803683370190505b50905060005b8451811015610c0e5760028301548551869083908110610bc457610bc4611217565b6020026020010151610bd69190611261565b610be19060016111e8565b828281518110610bf357610bf3611217565b6020908102919091010152610c078161122d565b9050610ba2565b508051610c249060038401906020840190610d90565b505050505050565b6000546001600160a01b03163314610c7f5760405162461bcd60e51b815260206004820152601660248201527527b7363c9031b0b63630b1363290313c9037bbb732b960511b60448201526064016102c7565b565b6001600160a01b038116331415610cda5760405162461bcd60e51b815260206004820152601760248201527f43616e6e6f74207472616e7366657220746f2073656c6600000000000000000060448201526064016102c7565b600180546001600160a01b0319166001600160a01b0383811691821790925560008054604051929316917fed8889f560326eb138920d842192f0eb3dd22b4f139c87a2c57538e05bae12789190a350565b828054828255906000526020600020908101928215610d80579160200282015b82811115610d8057825182546001600160a01b0319166001600160a01b03909116178255602090920191600190910190610d4b565b50610d8c929150610dcb565b5090565b828054828255906000526020600020908101928215610d80579160200282015b82811115610d80578251825591602001919060010190610db0565b5b80821115610d8c5760008155600101610dcc565b60008060408385031215610df357600080fd5b50508035926020909101359150565b634e487b7160e01b600052604160045260246000fd5b604051601f8201601f1916810167ffffffffffffffff81118282101715610e4157610e41610e02565b604052919050565b600067ffffffffffffffff821115610e6357610e63610e02565b5060051b60200190565b60008060408385031215610e8057600080fd5b8235915060208084013567ffffffffffffffff811115610e9f57600080fd5b8401601f81018613610eb057600080fd5b8035610ec3610ebe82610e49565b610e18565b81815260059190911b82018301908381019088831115610ee257600080fd5b928401925b82841015610f0057833582529284019290840190610ee7565b80955050505050509250929050565b80356001600160a01b0381168114610f2657600080fd5b919050565b803563ffffffff81168114610f2657600080fd5b60008060008060808587031215610f5557600080fd5b843593506020808601359350604086013567ffffffffffffffff811115610f7b57600080fd5b8601601f81018813610f8c57600080fd5b8035610f9a610ebe82610e49565b81815260059190911b8201830190838101908a831115610fb957600080fd5b928401925b82841015610fde57610fcf84610f0f565b82529284019290840190610fbe565b8096505050505050610ff260608601610f2b565b905092959194509250565b60006020828403121561100f57600080fd5b5035919050565b600081518084526020808501945080840160005b838110156110465781518752958201959082019060010161102a565b509495945050505050565b60006020808301818452808551808352604092508286019150828160051b8701018488016000805b8481101561111157898403603f190186528251805185528881015189860152878101516080898701819052815190870181905260a08701918b019085905b808210156110e05782516001600160a01b03168452928c0192918c0191600191909101906110b7565b505050606080830151925086820381880152506110fd8183611016565b978a01979550505091870191600101611079565b50919998505050505050505050565b821515815260406020820152600061113b6040830184611016565b949350505050565b60006020828403121561115557600080fd5b61115e82610f0f565b9392505050565b634e487b7160e01b600052601160045260246000fd5b600063ffffffff8083168185168183048111821515161561119e5761119e611165565b02949350505050565b600063ffffffff8083168185168083038211156111c6576111c6611165565b01949350505050565b6000602082840312156111e157600080fd5b5051919050565b600082198211156111fb576111fb611165565b500190565b60008282101561121257611212611165565b500390565b634e487b7160e01b600052603260045260246000fd5b600060001982141561124157611241611165565b5060010190565b82815260406020820152600061113b6040830184611016565b60008261127e57634e487b7160e01b600052601260045260246000fd5b50069056fea2646970667358221220e9db7e96e823ce4197023472eae64887dba865644347fcfa8c19bc8dff7adcc064736f6c634300080c0033",
  "linkReferences": {},
  "deployedLinkReferences": {}
}