{
  "_format": "hh-sol-artifact-1",
  "contractName": "FactoryGovernanceContract",
  "sourceName": "src/backend/contracts/FactoryGovernanceContract.sol",
  "abi": [
    {
      "inputs": [],
      "stateMutability": "nonpayable",
      "type": "constructor"
    },
    {
      "anonymous": false,
      "inputs": [
        {
          "indexed": false,
          "internalType": "address",
          "name": "previousAdmin",
          "type": "address"
        },
        {
          "indexed": false,
          "internalType": "address",
          "name": "newAdmin",
          "type": "address"
        }
      ],
      "name": "AdminChanged",
      "type": "event"
    },
    {
      "anonymous": false,
      "inputs": [
        {
          "indexed": true,
          "internalType": "address",
          "name": "beacon",
          "type": "address"
        }
      ],
      "name": "BeaconUpgraded",
      "type": "event"
    },
    {
      "anonymous": false,
      "inputs": [
        {
          "indexed": false,
          "internalType": "uint8",
          "name": "version",
          "type": "uint8"
        }
      ],
      "name": "Initialized",
      "type": "event"
    },
    {
      "anonymous": false,
      "inputs": [
        {
          "indexed": true,
          "internalType": "uint256",
          "name": "_communityId",
          "type": "uint256"
        },
        {
          "indexed": false,
          "internalType": "address",
          "name": "_contractAddress",
          "type": "address"
        },
        {
          "indexed": false,
          "internalType": "string",
          "name": "_contractType",
          "type": "string"
        }
      ],
      "name": "NewContract",
      "type": "event"
    },
    {
      "anonymous": false,
      "inputs": [
        {
          "indexed": true,
          "internalType": "address",
          "name": "previousOwner",
          "type": "address"
        },
        {
          "indexed": true,
          "internalType": "address",
          "name": "newOwner",
          "type": "address"
        }
      ],
      "name": "OwnershipTransferred",
      "type": "event"
    },
    {
      "anonymous": false,
      "inputs": [
        {
          "indexed": true,
          "internalType": "address",
          "name": "implementation",
          "type": "address"
        }
      ],
      "name": "Upgraded",
      "type": "event"
    },
    {
      "inputs": [
        {
          "internalType": "uint256",
          "name": "_communityId",
          "type": "uint256"
        },
        {
          "internalType": "contract IVotes",
          "name": "_ftContractAddress",
          "type": "address"
        },
        {
          "internalType": "contract TimelockController",
          "name": "_governanceTimeLock",
          "type": "address"
        },
        {
          "internalType": "uint256",
          "name": "_quorum",
          "type": "uint256"
        },
        {
          "internalType": "uint256",
          "name": "_delay",
          "type": "uint256"
        },
        {
          "internalType": "uint256",
          "name": "_period",
          "type": "uint256"
        }
      ],
      "name": "deployGovernanceContract",
      "outputs": [],
      "stateMutability": "nonpayable",
      "type": "function"
    },
    {
      "inputs": [
        {
          "internalType": "address",
          "name": "_mainContractAddress",
          "type": "address"
        }
      ],
      "name": "initialize",
      "outputs": [],
      "stateMutability": "nonpayable",
      "type": "function"
    },
    {
      "inputs": [],
      "name": "owner",
      "outputs": [
        {
          "internalType": "address",
          "name": "",
          "type": "address"
        }
      ],
      "stateMutability": "view",
      "type": "function"
    },
    {
      "inputs": [],
      "name": "proxiableUUID",
      "outputs": [
        {
          "internalType": "bytes32",
          "name": "",
          "type": "bytes32"
        }
      ],
      "stateMutability": "view",
      "type": "function"
    },
    {
      "inputs": [],
      "name": "renounceOwnership",
      "outputs": [],
      "stateMutability": "nonpayable",
      "type": "function"
    },
    {
      "inputs": [
        {
          "internalType": "address",
          "name": "newOwner",
          "type": "address"
        }
      ],
      "name": "transferOwnership",
      "outputs": [],
      "stateMutability": "nonpayable",
      "type": "function"
    },
    {
      "inputs": [
        {
          "internalType": "address",
          "name": "newImplementation",
          "type": "address"
        }
      ],
      "name": "upgradeTo",
      "outputs": [],
      "stateMutability": "nonpayable",
      "type": "function"
    },
    {
      "inputs": [
        {
          "internalType": "address",
          "name": "newImplementation",
          "type": "address"
        },
        {
          "internalType": "bytes",
          "name": "data",
          "type": "bytes"
        }
      ],
      "name": "upgradeToAndCall",
      "outputs": [],
      "stateMutability": "payable",
      "type": "function"
    }
  ],
  "bytecode": "0x60a06040523060805234801561001457600080fd5b5061001d610022565b6100e2565b600054610100900460ff161561008e5760405162461bcd60e51b815260206004820152602760248201527f496e697469616c697a61626c653a20636f6e747261637420697320696e697469604482015266616c697a696e6760c81b606482015260840160405180910390fd5b60005460ff90811610156100e0576000805460ff191660ff9081179091556040519081527f7f26b83ff96e1f2b6a682f133852f6798a09c465da95921460cefb38474024989060200160405180910390a15b565b608051615d996101196000396000818161060301528181610646015281816106ef0152818161073201526107ce0152615d996000f3fe608060405260043610620000855760003560e01c8063715018a61162000054578063715018a614620001185780638da5cb5b1462000130578063c4d66de8146200015a578063f2fde38b146200017f57600080fd5b806326ae4646146200008a5780633659cfe614620000b15780634f1ef28614620000d657806352d1902d14620000ed575b600080fd5b3480156200009757600080fd5b50620000af620000a936600462000f96565b620001a4565b005b348015620000be57600080fd5b50620000af620000d036600462000ff7565b620005f8565b620000af620000e73660046200102d565b620006e4565b348015620000fa57600080fd5b5062000105620007c1565b6040519081526020015b60405180910390f35b3480156200012557600080fd5b50620000af62000877565b3480156200013d57600080fd5b506033546040516001600160a01b0390911681526020016200010f565b3480156200016757600080fd5b50620000af6200017936600462000ff7565b6200088f565b3480156200018c57600080fd5b50620000af6200019e36600462000ff7565b620009ce565b60c954604051633b0c2e1760e21b8152600481018890523360248201526001600160a01b039091169063ec30b85c90604401602060405180830381865afa158015620001f4573d6000803e3d6000fd5b505050506040513d601f19601f820116820180604052508101906200021a919062001113565b620002585760405162461bcd60e51b81526020600482015260096024820152684e6f2041636365737360b81b60448201526064015b60405180910390fd5b600083116200029f5760405162461bcd60e51b815260206004820152601260248201527157726f6e672071756f72756d2076616c756560701b60448201526064016200024f565b60008111620002f15760405162461bcd60e51b815260206004820152601960248201527f57726f6e6720566f74696e6720506572696f642076616c75650000000000000060448201526064016200024f565b60c954604051635b25bfbb60e11b81526004810188905260009182916001600160a01b039091169063b64b7f7690602401606060405180830381865afa15801562000340573d6000803e3d6000fd5b505050506040513d601f19601f8201168201806040525081019062000366919062001131565b92509250508015620003c75760405162461bcd60e51b815260206004820152602360248201527f436f6d6d756e69747920616c726561647920686176652044414f20436f6e74726044820152621858dd60ea1b60648201526084016200024f565b81620004245760405162461bcd60e51b815260206004820152602560248201527f436f6d6d756e69747920646f6e2774206861766520546f6b656e20666f7220766044820152646f74696e6760d81b60648201526084016200024f565b60008787878787604051620004399062000f72565b6001600160a01b03958616815294909316602085015260408401919091526060830152608082015260a001604051809103906000f08015801562000481573d6000803e3d6000fd5b5060ca80546001810182556000919091527f42d72674974f694b5f5159593243114d38a5c39c89d6b62fee061ff523240ee10180546001600160a01b0319166001600160a01b0383811691821790925560405163f2fde38b60e01b8152918a16600483015291925063f2fde38b90602401600060405180830381600087803b1580156200050d57600080fd5b505af115801562000522573d6000803e3d6000fd5b505060c954604051631c174e9f60e01b8152600481018d90526001600160a01b0385811660248301529091169250631c174e9f9150604401600060405180830381600087803b1580156200057557600080fd5b505af11580156200058a573d6000803e3d6000fd5b5050604080516001600160a01b038516815260208101829052600a8183015269476f7665726e616e636560b01b606082015290518c93507fc500b3b673a94d1f6af2da9be7af8d078d405a1a8bac815f0f1f0f5b70b3cb5492509081900360800190a2505050505050505050565b306001600160a01b037f0000000000000000000000000000000000000000000000000000000000000000161415620006445760405162461bcd60e51b81526004016200024f906200117b565b7f00000000000000000000000000000000000000000000000000000000000000006001600160a01b03166200068f60008051602062005d1d833981519152546001600160a01b031690565b6001600160a01b031614620006b85760405162461bcd60e51b81526004016200024f90620011c7565b620006c38162000a4a565b60408051600080825260208201909252620006e19183919062000a54565b50565b306001600160a01b037f0000000000000000000000000000000000000000000000000000000000000000161415620007305760405162461bcd60e51b81526004016200024f906200117b565b7f00000000000000000000000000000000000000000000000000000000000000006001600160a01b03166200077b60008051602062005d1d833981519152546001600160a01b031690565b6001600160a01b031614620007a45760405162461bcd60e51b81526004016200024f90620011c7565b620007af8262000a4a565b620007bd8282600162000a54565b5050565b6000306001600160a01b037f00000000000000000000000000000000000000000000000000000000000000001614620008635760405162461bcd60e51b815260206004820152603860248201527f555550535570677261646561626c653a206d757374206e6f742062652063616c60448201527f6c6564207468726f7567682064656c656761746563616c6c000000000000000060648201526084016200024f565b5060008051602062005d1d83398151915290565b6200088162000bd1565b6200088d600062000c2d565b565b600054610100900460ff1615808015620008b05750600054600160ff909116105b80620008cc5750303b158015620008cc575060005460ff166001145b620009315760405162461bcd60e51b815260206004820152602e60248201527f496e697469616c697a61626c653a20636f6e747261637420697320616c72656160448201526d191e481a5b9a5d1a585b1a5e995960921b60648201526084016200024f565b6000805460ff19166001179055801562000955576000805461ff0019166101001790555b6200095f62000c7f565b6200096962000cb3565b60c980546001600160a01b0319166001600160a01b0384161790558015620007bd576000805461ff0019169055604051600181527f7f26b83ff96e1f2b6a682f133852f6798a09c465da95921460cefb38474024989060200160405180910390a15050565b620009d862000bd1565b6001600160a01b03811662000a3f5760405162461bcd60e51b815260206004820152602660248201527f4f776e61626c653a206e6577206f776e657220697320746865207a65726f206160448201526564647265737360d01b60648201526084016200024f565b620006e18162000c2d565b620006e162000bd1565b7f4910fdfa16fed3260ed0e7147f7cc6da11a60208b5b9406d12a635614ffd91435460ff161562000a8f5762000a8a8362000cdd565b505050565b826001600160a01b03166352d1902d6040518163ffffffff1660e01b8152600401602060405180830381865afa92505050801562000aec575060408051601f3d908101601f1916820190925262000ae99181019062001213565b60015b62000b515760405162461bcd60e51b815260206004820152602e60248201527f45524331393637557067726164653a206e657720696d706c656d656e7461746960448201526d6f6e206973206e6f74205555505360901b60648201526084016200024f565b60008051602062005d1d833981519152811462000bc35760405162461bcd60e51b815260206004820152602960248201527f45524331393637557067726164653a20756e737570706f727465642070726f786044820152681a58589b195555525160ba1b60648201526084016200024f565b5062000a8a83838362000d7c565b6033546001600160a01b031633146200088d5760405162461bcd60e51b815260206004820181905260248201527f4f776e61626c653a2063616c6c6572206973206e6f7420746865206f776e657260448201526064016200024f565b603380546001600160a01b038381166001600160a01b0319831681179093556040519116919082907f8be0079c531659141344cd1fd0a4f28419497f9722a3daafe3b4186f6b6457e090600090a35050565b600054610100900460ff1662000ca95760405162461bcd60e51b81526004016200024f906200122d565b6200088d62000dad565b600054610100900460ff166200088d5760405162461bcd60e51b81526004016200024f906200122d565b6001600160a01b0381163b62000d4c5760405162461bcd60e51b815260206004820152602d60248201527f455243313936373a206e657720696d706c656d656e746174696f6e206973206e60448201526c1bdd08184818dbdb9d1c9858dd609a1b60648201526084016200024f565b60008051602062005d1d83398151915280546001600160a01b0319166001600160a01b0392909216919091179055565b62000d878362000de2565b60008251118062000d955750805b1562000a8a5762000da7838362000e24565b50505050565b600054610100900460ff1662000dd75760405162461bcd60e51b81526004016200024f906200122d565b6200088d3362000c2d565b62000ded8162000cdd565b6040516001600160a01b038216907fbc7cd75a20ee27fd9adebab32041f755214dbc6bffa90cc0225b39da2e5c2d3b90600090a250565b60606001600160a01b0383163b62000e8e5760405162461bcd60e51b815260206004820152602660248201527f416464726573733a2064656c65676174652063616c6c20746f206e6f6e2d636f6044820152651b9d1c9858dd60d21b60648201526084016200024f565b600080846001600160a01b03168460405162000eab9190620012a7565b600060405180830381855af49150503d806000811462000ee8576040519150601f19603f3d011682016040523d82523d6000602084013e62000eed565b606091505b509150915062000f18828260405180606001604052806027815260200162005d3d6027913962000f21565b95945050505050565b6060831562000f3257508162000f3e565b62000f3e838362000f45565b9392505050565b81511562000f565781518083602001fd5b8060405162461bcd60e51b81526004016200024f9190620012c5565b614a2280620012fb83390190565b6001600160a01b0381168114620006e157600080fd5b60008060008060008060c0878903121562000fb057600080fd5b86359550602087013562000fc48162000f80565b9450604087013562000fd68162000f80565b959894975094956060810135955060808101359460a0909101359350915050565b6000602082840312156200100a57600080fd5b813562000f3e8162000f80565b634e487b7160e01b600052604160045260246000fd5b600080604083850312156200104157600080fd5b82356200104e8162000f80565b9150602083013567ffffffffffffffff808211156200106c57600080fd5b818501915085601f8301126200108157600080fd5b81358181111562001096576200109662001017565b604051601f8201601f19908116603f01168101908382118183101715620010c157620010c162001017565b81604052828152886020848701011115620010db57600080fd5b8260208601602083013760006020848301015280955050505050509250929050565b805180151581146200110e57600080fd5b919050565b6000602082840312156200112657600080fd5b62000f3e82620010fd565b6000806000606084860312156200114757600080fd5b6200115284620010fd565b92506200116260208501620010fd565b91506200117260408501620010fd565b90509250925092565b6020808252602c908201527f46756e6374696f6e206d7573742062652063616c6c6564207468726f7567682060408201526b19195b1959d85d1958d85b1b60a21b606082015260800190565b6020808252602c908201527f46756e6374696f6e206d7573742062652063616c6c6564207468726f7567682060408201526b6163746976652070726f787960a01b606082015260800190565b6000602082840312156200122657600080fd5b5051919050565b6020808252602b908201527f496e697469616c697a61626c653a20636f6e7472616374206973206e6f74206960408201526a6e697469616c697a696e6760a81b606082015260800190565b60005b83811015620012955781810151838201526020016200127b565b8381111562000da75750506000910152565b60008251620012bb81846020870162001278565b9190910192915050565b6020815260008251806020840152620012e681604085016020870162001278565b601f01601f1916919091016040019291505056fe6101606040523480156200001257600080fd5b5060405162004a2238038062004a2283398101604081905262000035916200090d565b838386848460006040518060400160405280600a815260200169476f7665726e616e636560b01b81525080620000706200017860201b60201c565b815160208084019190912082518383012060e08290526101008190524660a0818152604080517f8b73c3c69bb8fe3d512ecc4cf759cc79239f7b179b0ffacaa9a75d522b39400f81880181905281830187905260608201869052608082019490945230818401528151808203909301835260c00190528051940193909320919290916080523060c052610120525050825162000116925060009150602084019062000858565b506200012490508362000193565b6200012f82620001d4565b6200013a816200027b565b5050506001600160a01b0316610140526200015581620002bc565b50620001618162000434565b506200016d336200049d565b5050505050620009c8565b6040805180820190915260018152603160f81b602082015290565b60045460408051918252602082018390527fc565b045403dc03c2eea82b81a0465edad9e2e7fc4d97e11421c209da93d7a93910160405180910390a1600455565b600081116200023a5760405162461bcd60e51b815260206004820152602760248201527f476f7665726e6f7253657474696e67733a20766f74696e6720706572696f6420604482015266746f6f206c6f7760c81b60648201526084015b60405180910390fd5b60055460408051918252602082018390527f7e3f7f0708a84de9203036abaa450dccc85ad5ff52f78c170f3edb55cf5e8828910160405180910390a1600555565b60065460408051918252602082018390527fccb45da8d5717e6c4544694297c4ba5cf151d455c9bb0ed4fc7a38411bc05461910160405180910390a1600655565b6064811115620003415760405162461bcd60e51b815260206004820152604360248201527f476f7665726e6f72566f74657351756f72756d4672616374696f6e3a2071756f60448201527f72756d4e756d657261746f72206f7665722071756f72756d44656e6f6d696e616064820152623a37b960e91b608482015260a40162000231565b60006200034d620004ef565b905080158015906200035f5750600954155b15620003da5760096000016040518060400160405280600063ffffffff16815260200162000398846200052760201b620017c61760201c565b6001600160e01b0390811690915282546001810184556000938452602093849020835194909301519091166401000000000263ffffffff909316929092179101555b620003f58260096200059660201b620018331790919060201c565b505060408051828152602081018490527f0553476bf02ef2726e8ce5ced78d63e26e602e4a2257b1f559418e24b4633997910160405180910390a15050565b600a54604080516001600160a01b03928316815291831660208301527f08f74ea46ef7894f65eabfb5e6e695de773a000b47c529ab559178069b226401910160405180910390a1600a80546001600160a01b0319166001600160a01b0392909216919091179055565b600c80546001600160a01b038381166001600160a01b0319831681179093556040519116919082907f8be0079c531659141344cd1fd0a4f28419497f9722a3daafe3b4186f6b6457e090600090a35050565b600954600090156200052057620005126009620005e960201b620018691760201c565b6001600160e01b0316905090565b5060085490565b60006001600160e01b03821115620005925760405162461bcd60e51b815260206004820152602760248201527f53616665436173743a2076616c756520646f65736e27742066697420696e20326044820152663234206269747360c81b606482015260840162000231565b5090565b600080620005d384600001620005b7436200063760201b620018a71760201c565b620005cd866200052760201b620017c61760201c565b6200069e565b6001600160e01b03918216969116945092505050565b805460009080156200062d5762000615836200060760018462000965565b600091825260209091200190565b5464010000000090046001600160e01b031662000630565b60005b9392505050565b600063ffffffff821115620005925760405162461bcd60e51b815260206004820152602660248201527f53616665436173743a2076616c756520646f65736e27742066697420696e203360448201526532206269747360d01b606482015260840162000231565b825460009081908015620007fa576000620006c0876200060760018562000965565b60408051808201909152905463ffffffff8082168084526401000000009092046001600160e01b031660208401529192509087161015620007445760405162461bcd60e51b815260206004820152601760248201527f436865636b706f696e743a20696e76616c6964206b6579000000000000000000604482015260640162000231565b8563ffffffff16816000015163ffffffff16141562000799578462000770886200060760018662000965565b80546001600160e01b03929092166401000000000263ffffffff909216919091179055620007e9565b6040805180820190915263ffffffff80881682526001600160e01b0380881660208085019182528b54600181018d5560008d81529190912094519151909216640100000000029216919091179101555b602001519250839150620008509050565b50506040805180820190915263ffffffff80851682526001600160e01b0380851660208085019182528854600181018a5560008a8152918220955192519093166401000000000291909316179201919091559050815b935093915050565b82805462000866906200098b565b90600052602060002090601f0160209004810192826200088a5760008555620008d5565b82601f10620008a557805160ff1916838001178555620008d5565b82800160010185558215620008d5579182015b82811115620008d5578251825591602001919060010190620008b8565b50620005929291505b80821115620005925760008155600101620008de565b6001600160a01b03811681146200090a57600080fd5b50565b600080600080600060a086880312156200092657600080fd5b85516200093381620008f4565b60208701519095506200094681620008f4565b6040870151606088015160809098015196999198509695945092505050565b6000828210156200098657634e487b7160e01b600052601160045260246000fd5b500390565b600181811c90821680620009a057607f821691505b60208210811415620009c257634e487b7160e01b600052602260045260246000fd5b50919050565b60805160a05160c05160e051610100516101205161014051613ff162000a316000396000818161095e015281816123ab015261259f015260006128c501526000612914015260006128ef01526000612848015260006128720152600061289c0152613ff16000f3fe60806040526004361061028c5760003560e01c80637d5e81e21161015a578063c59057e4116100c1578063eb9019d41161007a578063eb9019d4146108a0578063ece40cc1146108c0578063f23a6e61146108e0578063f2fde38b1461090c578063f8ce560a1461092c578063fc0c546a1461094c57600080fd5b8063c59057e4146107a8578063d139fd81146107c8578063d33219b4146107e8578063dd4e2ba514610806578063deaaa7cc1461084c578063ea0217cf1461088057600080fd5b8063a890c91011610113578063a890c910146106f4578063ab58fb8e14610714578063b58131b014610734578063bc197c8114610749578063c01f9e3714610775578063c28bc2fa1461079557600080fd5b80637d5e81e2146106395780638da5cb5b1461065957806397c3d3341461068b5780639a802a6d1461069f578063a4b910b4146106bf578063a7713a70146106df57600080fd5b80633932abb1116101fe57806356781388116101b757806356781388146105845780635f398a14146105a457806360c4247f146105c457806370b0f660146105e4578063715018a6146106045780637b3c71d31461061957600080fd5b80633932abb1146104595780633bccf4fd1461046e5780633e4f49e61461048e57806343859632146104bb578063544ffc9c1461050557806354fd4d501461055a57600080fd5b806315084bc01161025057806315084bc01461036e578063150b7a021461038e578063160cbed7146103d25780632656227d146103f25780632d63f693146104055780632fe3e2611461042557600080fd5b806301ffc9a7146102b457806302a251a3146102e9578063034201811461030c57806306f3f9e61461032c57806306fdde031461034c57600080fd5b366102af573061029a610980565b6001600160a01b0316146102ad57600080fd5b005b600080fd5b3480156102c057600080fd5b506102d46102cf366004613081565b610999565b60405190151581526020015b60405180910390f35b3480156102f557600080fd5b506102fe6109aa565b6040519081526020016102e0565b34801561031857600080fd5b506102fe6103273660046131b7565b6109b5565b34801561033857600080fd5b506102ad61034736600461325d565b610aad565b34801561035857600080fd5b50610361610b45565b6040516102e091906132d2565b34801561037a57600080fd5b5061036161038936600461325d565b610bd7565b34801561039a57600080fd5b506103b96103a93660046132fa565b630a85bd0160e11b949350505050565b6040516001600160e01b031990911681526020016102e0565b3480156103de57600080fd5b506102fe6103ed3660046134d6565b610c83565b6102fe6104003660046134d6565b610e83565b34801561041157600080fd5b506102fe61042036600461325d565b610f70565b34801561043157600080fd5b506102fe7fb3b3f3b703cd84ce352197dcff232b1b5d3cfb2025ce47cf04742d0651f1af8881565b34801561046557600080fd5b506102fe610fa7565b34801561047a57600080fd5b506102fe610489366004613565565b610fb2565b34801561049a57600080fd5b506104ae6104a936600461325d565b611028565b6040516102e091906135c9565b3480156104c757600080fd5b506102d46104d63660046135f1565b60008281526007602090815260408083206001600160a01b038516845260030190915290205460ff1692915050565b34801561051157600080fd5b5061053f61052036600461325d565b6000908152600760205260409020805460018201546002909201549092565b604080519384526020840192909252908201526060016102e0565b34801561056657600080fd5b506040805180820190915260018152603160f81b6020820152610361565b34801561059057600080fd5b506102fe61059f366004613621565b611033565b3480156105b057600080fd5b506102fe6105bf36600461364d565b61105c565b3480156105d057600080fd5b506102fe6105df36600461325d565b6110a6565b3480156105f057600080fd5b506102ad6105ff36600461325d565b61113b565b34801561061057600080fd5b506102ad6111c7565b34801561062557600080fd5b506102fe6106343660046136d0565b6111db565b34801561064557600080fd5b506102fe610654366004613729565b61122d565b34801561066557600080fd5b50600c546001600160a01b03165b6040516001600160a01b0390911681526020016102e0565b34801561069757600080fd5b5060646102fe565b3480156106ab57600080fd5b506102fe6106ba3660046137c9565b611244565b3480156106cb57600080fd5b506102ad6106da366004613821565b61125b565b3480156106eb57600080fd5b506102fe611310565b34801561070057600080fd5b506102ad61070f366004613884565b61133a565b34801561072057600080fd5b506102fe61072f36600461325d565b6113c6565b34801561074057600080fd5b506102fe611460565b34801561075557600080fd5b506103b96107643660046138a1565b63bc197c8160e01b95945050505050565b34801561078157600080fd5b506102fe61079036600461325d565b61146b565b6102ad6107a3366004613934565b61149a565b3480156107b457600080fd5b506102fe6107c33660046134d6565b6115ae565b3480156107d457600080fd5b506103616107e3366004613977565b6115e8565b3480156107f457600080fd5b50600a546001600160a01b0316610673565b34801561081257600080fd5b506040805180820190915260208082527f737570706f72743d627261766f2671756f72756d3d666f722c6162737461696e90820152610361565b34801561085857600080fd5b506102fe7f150214d74d59b7d1e90c73fc22ef3d991dd0a76b046543d4d80ab92d2a50328f81565b34801561088c57600080fd5b506102ad61089b36600461325d565b61160c565b3480156108ac57600080fd5b506102fe6108bb3660046139ab565b611698565b3480156108cc57600080fd5b506102ad6108db36600461325d565b6116b9565b3480156108ec57600080fd5b506103b96108fb3660046139d7565b63f23a6e6160e01b95945050505050565b34801561091857600080fd5b506102ad610927366004613884565b611745565b34801561093857600080fd5b506102fe61094736600461325d565b6117bb565b34801561095857600080fd5b506106737f000000000000000000000000000000000000000000000000000000000000000081565b6000610994600a546001600160a01b031690565b905090565b60006109a48261190c565b92915050565b600061099460055490565b600080610a59610a517fb3b3f3b703cd84ce352197dcff232b1b5d3cfb2025ce47cf04742d0651f1af888c8c8c8c6040516109f1929190613a3f565b60405180910390208b80519060200120604051602001610a36959493929190948552602085019390935260ff9190911660408401526060830152608082015260a00190565b60405160208183030381529060405280519060200120611931565b86868661197f565b9050610a9f8a828b8b8b8080601f0160208091040260200160405190810160405280939291908181526020018383808284376000920191909152508d925061199d915050565b9a9950505050505050505050565b610ab5610980565b6001600160a01b0316336001600160a01b031614610aee5760405162461bcd60e51b8152600401610ae590613a4f565b60405180910390fd5b30610af7610980565b6001600160a01b031614610b395760008036604051610b17929190613a3f565b604051809103902090505b80610b2d6002611aff565b14610b3757610b22565b505b610b4281611b7e565b50565b606060008054610b5490613a86565b80601f0160208091040260200160405190810160405280929190818152602001828054610b8090613a86565b8015610bcd5780601f10610ba257610100808354040283529160200191610bcd565b820191906000526020600020905b815481529060010190602001808311610bb057829003601f168201915b5050505050905090565b600d8181548110610be757600080fd5b906000526020600020016000915090508054610c0290613a86565b80601f0160208091040260200160405190810160405280929190818152602001828054610c2e90613a86565b8015610c7b5780601f10610c5057610100808354040283529160200191610c7b565b820191906000526020600020905b815481529060010190602001808311610c5e57829003601f168201915b505050505081565b600080610c92868686866115ae565b90506004610c9f82611028565b6007811115610cb057610cb06135b3565b14610ccd5760405162461bcd60e51b8152600401610ae590613ac1565b600a546040805163793d064960e11b815290516000926001600160a01b03169163f27a0c929160048083019260209291908290030181865afa158015610d17573d6000803e3d6000fd5b505050506040513d601f19601f82011682018060405250810190610d3b9190613b02565b600a5460405163b1c5f42760e01b81529192506001600160a01b03169063b1c5f42790610d75908a908a908a906000908b90600401613be4565b602060405180830381865afa158015610d92573d6000803e3d6000fd5b505050506040513d601f19601f82011682018060405250810190610db69190613b02565b6000838152600b602052604080822092909255600a5491516308f2a0bb60e41b81526001600160a01b0390921691638f2a0bb091610e01918b918b918b91908b908990600401613c32565b600060405180830381600087803b158015610e1b57600080fd5b505af1158015610e2f573d6000803e3d6000fd5b505050507f9a2e42fd6722813d69113e7d0079d3d940171428df7373df9c7f7617cfda2892828242610e619190613ca0565b6040805192835260208301919091520160405180910390a15095945050505050565b600080610e92868686866115ae565b90506000610e9f82611028565b90506004816007811115610eb557610eb56135b3565b1480610ed257506005816007811115610ed057610ed06135b3565b145b610eee5760405162461bcd60e51b8152600401610ae590613ac1565b600082815260016020818152604092839020600201805460ff191690921790915590518381527f712ae1383f79ac853f8d882153778e0260ef8f03b504e2866e0593e04d2b291f910160405180910390a1610f4c8288888888611cca565b610f598288888888611d6d565b610f668288888888611d7a565b5095945050505050565b60008181526001602090815260408083208151928301909152546001600160401b0316908190525b6001600160401b031692915050565b600061099460045490565b604080517f150214d74d59b7d1e90c73fc22ef3d991dd0a76b046543d4d80ab92d2a50328f602082015290810186905260ff85166060820152600090819061100090610a5190608001610a36565b905061101d87828860405180602001604052806000815250611db3565b979650505050505050565b60006109a482611dd6565b60008033905061105484828560405180602001604052806000815250611db3565b949350505050565b60008033905061101d87828888888080601f0160208091040260200160405190810160405280939291908181526020018383808284376000920191909152508a925061199d915050565b600954600090806110bb575050600854919050565b600060096110ca600184613cb8565b815481106110da576110da613ccf565b60009182526020918290206040805180820190915291015463ffffffff8116808352600160201b9091046001600160e01b0316928201929092529150841061113057602001516001600160e01b03169392505050565b611054600985611f20565b611143610980565b6001600160a01b0316336001600160a01b0316146111735760405162461bcd60e51b8152600401610ae590613a4f565b3061117c610980565b6001600160a01b0316146111be576000803660405161119c929190613a3f565b604051809103902090505b806111b26002611aff565b146111bc576111a7565b505b610b4281611fd2565b6111cf612013565b6111d9600061206d565b565b60008033905061122386828787878080601f016020809104026020016040519081016040528093929190818152602001838380828437600092019190915250611db392505050565b9695505050505050565b600061123b858585856120bf565b95945050505050565b6000611251848484612382565b90505b9392505050565b611263612013565b80600e836040516112749190613ce5565b90815260200160405180910390209080519060200190611295929190612ff1565b50600e826040516112a69190613ce5565b908152602001604051809103902080546112bf90613a86565b1515905061130c57600d8054600181018255600091909152825161130a917fd7b6990105719101dabeb77144f2a3385c8033acd3af97e9423a695e81ad1eb501906020850190612ff1565b505b5050565b60095460009015611333576113256009611869565b6001600160e01b0316905090565b5060085490565b611342610980565b6001600160a01b0316336001600160a01b0316146113725760405162461bcd60e51b8152600401610ae590613a4f565b3061137b610980565b6001600160a01b0316146113bd576000803660405161139b929190613a3f565b604051809103902090505b806113b16002611aff565b146113bb576113a6565b505b610b4281612418565b600a546000828152600b602052604080822054905163d45c443560e01b81526004810191909152909182916001600160a01b039091169063d45c443590602401602060405180830381865afa158015611423573d6000803e3d6000fd5b505050506040513d601f19601f820116820180604052508101906114479190613b02565b9050806001146114575780611254565b60009392505050565b600061099460065490565b60008181526001602081815260408084208151928301909152909101546001600160401b031690819052610f98565b6114a2610980565b6001600160a01b0316336001600160a01b0316146114d25760405162461bcd60e51b8152600401610ae590613a4f565b306114db610980565b6001600160a01b03161461151d57600080366040516114fb929190613a3f565b604051809103902090505b806115116002611aff565b1461151b57611506565b505b600080856001600160a01b031685858560405161153b929190613a3f565b60006040518083038185875af1925050503d8060008114611578576040519150601f19603f3d011682016040523d82523d6000602084013e61157d565b606091505b50915091506115a58282604051806060016040528060288152602001613f9460289139612481565b50505050505050565b6000848484846040516020016115c79493929190613d01565b60408051601f19818403018152919052805160209091012095945050505050565b8051602081830181018051600e8252928201919093012091528054610c0290613a86565b611614610980565b6001600160a01b0316336001600160a01b0316146116445760405162461bcd60e51b8152600401610ae590613a4f565b3061164d610980565b6001600160a01b03161461168f576000803660405161166d929190613a3f565b604051809103902090505b806116836002611aff565b1461168d57611678565b505b610b428161249a565b600061125483836116b460408051602081019091526000815290565b612382565b6116c1610980565b6001600160a01b0316336001600160a01b0316146116f15760405162461bcd60e51b8152600401610ae590613a4f565b306116fa610980565b6001600160a01b03161461173c576000803660405161171a929190613a3f565b604051809103902090505b806117306002611aff565b1461173a57611725565b505b610b428161253b565b61174d612013565b6001600160a01b0381166117b25760405162461bcd60e51b815260206004820152602660248201527f4f776e61626c653a206e6577206f776e657220697320746865207a65726f206160448201526564647265737360d01b6064820152608401610ae5565b610b428161206d565b60006109a48261257c565b60006001600160e01b0382111561182f5760405162461bcd60e51b815260206004820152602760248201527f53616665436173743a2076616c756520646f65736e27742066697420696e20326044820152663234206269747360c81b6064820152608401610ae5565b5090565b60008061185184611843436118a7565b61184c866117c6565b612626565b6001600160e01b0391821693501690505b9250929050565b805460009080156114575761189183611883600184613cb8565b600091825260209091200190565b54600160201b90046001600160e01b0316611254565b600063ffffffff82111561182f5760405162461bcd60e51b815260206004820152602660248201527f53616665436173743a2076616c756520646f65736e27742066697420696e203360448201526532206269747360d01b6064820152608401610ae5565b60006001600160e01b03198216636e665ced60e01b14806109a457506109a4826127d0565b60006109a461193e61283b565b8360405161190160f01b6020820152602281018390526042810182905260009060620160405160208183030381529060405280519060200120905092915050565b600080600061199087878787612962565b91509150610f6681612a26565b60008581526001602081905260408220906119b788611028565b60078111156119c8576119c86135b3565b14611a215760405162461bcd60e51b815260206004820152602360248201527f476f7665726e6f723a20766f7465206e6f742063757272656e746c792061637460448201526269766560e81b6064820152608401610ae5565b604080516020810190915281546001600160401b031690819052600090611a4a90889086612382565b9050611a598888888488612b74565b8351611aab57866001600160a01b03167fb8e138887d0aa13bab447e82de9d5c1777041ecd21ca36ba824ff1e6c07ddda489888489604051611a9e9493929190613d4c565b60405180910390a261101d565b866001600160a01b03167fe2babfbac5889a709b63bb7f598b324e08bc5a4fb9ec647fb3cbc9ec07eb87128988848989604051611aec959493929190613d74565b60405180910390a2979650505050505050565b6000611b1a8254600f81810b600160801b909204900b131590565b15611b3857604051631ed9509560e11b815260040160405180910390fd5b508054600f0b6000818152600180840160205260408220805492905583546fffffffffffffffffffffffffffffffff191692016001600160801b03169190911790915590565b6064811115611c015760405162461bcd60e51b815260206004820152604360248201527f476f7665726e6f72566f74657351756f72756d4672616374696f6e3a2071756f60448201527f72756d4e756d657261746f72206f7665722071756f72756d44656e6f6d696e616064820152623a37b960e91b608482015260a401610ae5565b6000611c0b611310565b90508015801590611c1c5750600954155b15611c8057604080518082019091526000815260099060208101611c3f846117c6565b6001600160e01b039081169091528254600181018455600093845260209384902083519490930151909116600160201b0263ffffffff909316929092179101555b611c8b600983611833565b505060408051828152602081018490527f0553476bf02ef2726e8ce5ced78d63e26e602e4a2257b1f559418e24b4633997910160405180910390a15050565b30611cd3610980565b6001600160a01b031614611d665760005b8451811015611d6457306001600160a01b0316858281518110611d0957611d09613ccf565b60200260200101516001600160a01b03161415611d5457611d54838281518110611d3557611d35613ccf565b6020026020010151805190602001206002612cf390919063ffffffff16565b611d5d81613dba565b9050611ce4565b505b5050505050565b611d668585858585612d2f565b30611d83610980565b6001600160a01b031614611d6657600254600f81810b600160801b909204900b1315611d66576000600255611d66565b600061123b85858585611dd160408051602081019091526000815290565b61199d565b600080611de283612da3565b90506004816007811115611df857611df86135b3565b14611e035792915050565b6000838152600b602052604090205480611e1e575092915050565b600a54604051632ab0f52960e01b8152600481018390526001600160a01b0390911690632ab0f52990602401602060405180830381865afa158015611e67573d6000803e3d6000fd5b505050506040513d601f19601f82011682018060405250810190611e8b9190613dd5565b15611e9a575060079392505050565b600a54604051632c258a9f60e11b8152600481018390526001600160a01b039091169063584b153e90602401602060405180830381865afa158015611ee3573d6000803e3d6000fd5b505050506040513d601f19601f82011682018060405250810190611f079190613dd5565b15611f16575060059392505050565b5060029392505050565b6000438210611f715760405162461bcd60e51b815260206004820181905260248201527f436865636b706f696e74733a20626c6f636b206e6f7420796574206d696e65646044820152606401610ae5565b6000611f7c836118a7565b84549091506000611f8f86848385612eaf565b90508015611fbc57611fa686611883600184613cb8565b54600160201b90046001600160e01b0316611fbf565b60005b6001600160e01b03169695505050505050565b60045460408051918252602082018390527fc565b045403dc03c2eea82b81a0465edad9e2e7fc4d97e11421c209da93d7a93910160405180910390a1600455565b600c546001600160a01b031633146111d95760405162461bcd60e51b815260206004820181905260248201527f4f776e61626c653a2063616c6c6572206973206e6f7420746865206f776e65726044820152606401610ae5565b600c80546001600160a01b038381166001600160a01b0319831681179093556040519116919082907f8be0079c531659141344cd1fd0a4f28419497f9722a3daafe3b4186f6b6457e090600090a35050565b60006120c9611460565b6120d8336108bb600143613cb8565b10156121405760405162461bcd60e51b815260206004820152603160248201527f476f7665726e6f723a2070726f706f73657220766f7465732062656c6f7720706044820152701c9bdc1bdcd85b081d1a1c995cda1bdb19607a1b6064820152608401610ae5565b600061215586868686805190602001206115ae565b905084518651146121785760405162461bcd60e51b8152600401610ae590613df7565b83518651146121995760405162461bcd60e51b8152600401610ae590613df7565b60008651116121ea5760405162461bcd60e51b815260206004820152601860248201527f476f7665726e6f723a20656d7074792070726f706f73616c00000000000000006044820152606401610ae5565b600081815260016020908152604091829020825191820190925281546001600160401b0316908190521561226a5760405162461bcd60e51b815260206004820152602160248201527f476f7665726e6f723a2070726f706f73616c20616c72656164792065786973746044820152607360f81b6064820152608401610ae5565b600061227c612277610fa7565b612f0d565b61228543612f0d565b61228f9190613e38565b9050600061229e6122776109aa565b6122a89083613e38565b835467ffffffffffffffff19166001600160401b038416178455905060018301805467ffffffffffffffff19166001600160401b0383161790557f7d84a6263ae0d98d3329bd7b46bb4e8d6f98cd35a7adb45c274c8b7fd5ebd5e084338b8b8d516001600160401b0381111561232057612320613102565b60405190808252806020026020018201604052801561235357816020015b606081526020019060019003908161233e5790505b508c88888e60405161236d99989796959493929190613e63565b60405180910390a15091979650505050505050565b604051630748d63560e31b81526001600160a01b038481166004830152602482018490526000917f000000000000000000000000000000000000000000000000000000000000000090911690633a46b1a890604401602060405180830381865afa1580156123f4573d6000803e3d6000fd5b505050506040513d601f19601f820116820180604052508101906112519190613b02565b600a54604080516001600160a01b03928316815291831660208301527f08f74ea46ef7894f65eabfb5e6e695de773a000b47c529ab559178069b226401910160405180910390a1600a80546001600160a01b0319166001600160a01b0392909216919091179055565b60608315612490575081611254565b6112548383612f75565b600081116124fa5760405162461bcd60e51b815260206004820152602760248201527f476f7665726e6f7253657474696e67733a20766f74696e6720706572696f6420604482015266746f6f206c6f7760c81b6064820152608401610ae5565b60055460408051918252602082018390527f7e3f7f0708a84de9203036abaa450dccc85ad5ff52f78c170f3edb55cf5e8828910160405180910390a1600555565b60065460408051918252602082018390527fccb45da8d5717e6c4544694297c4ba5cf151d455c9bb0ed4fc7a38411bc05461910160405180910390a1600655565b60006064612589836110a6565b604051632394e7a360e21b8152600481018590527f00000000000000000000000000000000000000000000000000000000000000006001600160a01b031690638e539e8c90602401602060405180830381865afa1580156125ee573d6000803e3d6000fd5b505050506040513d601f19601f820116820180604052508101906126129190613b02565b61261c9190613f52565b6109a49190613f71565b82546000908190801561277357600061264487611883600185613cb8565b60408051808201909152905463ffffffff808216808452600160201b9092046001600160e01b0316602084015291925090871610156126c55760405162461bcd60e51b815260206004820152601760248201527f436865636b706f696e743a20696e76616c6964206b65790000000000000000006044820152606401610ae5565b8563ffffffff16816000015163ffffffff16141561271457846126ed88611883600186613cb8565b80546001600160e01b0392909216600160201b0263ffffffff909216919091179055612763565b6040805180820190915263ffffffff80881682526001600160e01b0380881660208085019182528b54600181018d5560008d81529190912094519151909216600160201b029216919091179101555b6020015192508391506127c89050565b50506040805180820190915263ffffffff80851682526001600160e01b0380851660208085019182528854600181018a5560008a815291822095519251909316600160201b0291909316179201919091559050815b935093915050565b60006001600160e01b0319821663bf26d89760e01b148061280157506001600160e01b031982166379dd796f60e01b145b8061281c57506001600160e01b03198216630271189760e51b145b806109a457506301ffc9a760e01b6001600160e01b03198316146109a4565b6000306001600160a01b037f00000000000000000000000000000000000000000000000000000000000000001614801561289457507f000000000000000000000000000000000000000000000000000000000000000046145b156128be57507f000000000000000000000000000000000000000000000000000000000000000090565b50604080517f00000000000000000000000000000000000000000000000000000000000000006020808301919091527f0000000000000000000000000000000000000000000000000000000000000000828401527f000000000000000000000000000000000000000000000000000000000000000060608301524660808301523060a0808401919091528351808403909101815260c0909201909252805191012090565b6000807f7fffffffffffffffffffffffffffffff5d576e7357a4501ddfe92f46681b20a08311156129995750600090506003612a1d565b6040805160008082526020820180845289905260ff881692820192909252606081018690526080810185905260019060a0016020604051602081039080840390855afa1580156129ed573d6000803e3d6000fd5b5050604051601f1901519150506001600160a01b038116612a1657600060019250925050612a1d565b9150600090505b94509492505050565b6000816004811115612a3a57612a3a6135b3565b1415612a435750565b6001816004811115612a5757612a576135b3565b1415612aa55760405162461bcd60e51b815260206004820152601860248201527f45434453413a20696e76616c6964207369676e617475726500000000000000006044820152606401610ae5565b6002816004811115612ab957612ab96135b3565b1415612b075760405162461bcd60e51b815260206004820152601f60248201527f45434453413a20696e76616c6964207369676e6174757265206c656e677468006044820152606401610ae5565b6003816004811115612b1b57612b1b6135b3565b1415610b425760405162461bcd60e51b815260206004820152602260248201527f45434453413a20696e76616c6964207369676e6174757265202773272076616c604482015261756560f01b6064820152608401610ae5565b60008581526007602090815260408083206001600160a01b0388168452600381019092529091205460ff1615612bfc5760405162461bcd60e51b815260206004820152602760248201527f476f7665726e6f72566f74696e6753696d706c653a20766f746520616c726561604482015266191e4818d85cdd60ca1b6064820152608401610ae5565b6001600160a01b03851660009081526003820160205260408120805460ff1916600117905560ff168460ff161415612c4d5782816000016000828254612c429190613ca0565b90915550611d649050565b60ff841660011415612c6d5782816001016000828254612c429190613ca0565b60ff841660021415612c8d5782816002016000828254612c429190613ca0565b60405162461bcd60e51b815260206004820152603560248201527f476f7665726e6f72566f74696e6753696d706c653a20696e76616c69642076616044820152746c756520666f7220656e756d20566f74655479706560581b6064820152608401610ae5565b8154600160801b90819004600f0b6000818152600180860160205260409091209390935583546001600160801b03908116939091011602179055565b600a5460405163e38335e560e01b81526001600160a01b039091169063e38335e5903490612d6a908890889088906000908990600401613be4565b6000604051808303818588803b158015612d8357600080fd5b505af1158015612d97573d6000803e3d6000fd5b50505050505050505050565b6000818152600160205260408120600281015460ff1615612dc75750600792915050565b6002810154610100900460ff1615612de25750600292915050565b6000612ded84610f70565b905080612e3c5760405162461bcd60e51b815260206004820152601d60248201527f476f7665726e6f723a20756e6b6e6f776e2070726f706f73616c2069640000006044820152606401610ae5565b438110612e4d575060009392505050565b6000612e588561146b565b9050438110612e6c57506001949350505050565b612e7585612f9f565b8015612e94575060008581526007602052604090208054600190910154115b15612ea457506004949350505050565b506003949350505050565b60005b81831015612f05576000612ec68484612fd6565b60008781526020902090915063ffffffff86169082015463ffffffff161115612ef157809250612eff565b612efc816001613ca0565b93505b50612eb2565b509392505050565b60006001600160401b0382111561182f5760405162461bcd60e51b815260206004820152602660248201527f53616665436173743a2076616c756520646f65736e27742066697420696e203660448201526534206269747360d01b6064820152608401610ae5565b815115612f855781518083602001fd5b8060405162461bcd60e51b8152600401610ae591906132d2565b600081815260076020526040812060028101546001820154612fc19190613ca0565b612fcd61094785610f70565b11159392505050565b6000612fe56002848418613f71565b61125490848416613ca0565b828054612ffd90613a86565b90600052602060002090601f01602090048101928261301f5760008555613065565b82601f1061303857805160ff1916838001178555613065565b82800160010185558215613065579182015b8281111561306557825182559160200191906001019061304a565b5061182f9291505b8082111561182f576000815560010161306d565b60006020828403121561309357600080fd5b81356001600160e01b03198116811461125457600080fd5b803560ff811681146130bc57600080fd5b919050565b60008083601f8401126130d357600080fd5b5081356001600160401b038111156130ea57600080fd5b60208301915083602082850101111561186257600080fd5b634e487b7160e01b600052604160045260246000fd5b604051601f8201601f191681016001600160401b038111828210171561314057613140613102565b604052919050565b600082601f83011261315957600080fd5b81356001600160401b0381111561317257613172613102565b613185601f8201601f1916602001613118565b81815284602083860101111561319a57600080fd5b816020850160208301376000918101602001919091529392505050565b60008060008060008060008060e0898b0312156131d357600080fd5b883597506131e360208a016130ab565b965060408901356001600160401b03808211156131ff57600080fd5b61320b8c838d016130c1565b909850965060608b013591508082111561322457600080fd5b506132318b828c01613148565b94505061324060808a016130ab565b925060a0890135915060c089013590509295985092959890939650565b60006020828403121561326f57600080fd5b5035919050565b60005b83811015613291578181015183820152602001613279565b838111156132a0576000848401525b50505050565b600081518084526132be816020860160208601613276565b601f01601f19169290920160200192915050565b60208152600061125460208301846132a6565b6001600160a01b0381168114610b4257600080fd5b6000806000806080858703121561331057600080fd5b843561331b816132e5565b9350602085013561332b816132e5565b92506040850135915060608501356001600160401b0381111561334d57600080fd5b61335987828801613148565b91505092959194509250565b60006001600160401b0382111561337e5761337e613102565b5060051b60200190565b600082601f83011261339957600080fd5b813560206133ae6133a983613365565b613118565b82815260059290921b840181019181810190868411156133cd57600080fd5b8286015b848110156133f15780356133e4816132e5565b83529183019183016133d1565b509695505050505050565b600082601f83011261340d57600080fd5b8135602061341d6133a983613365565b82815260059290921b8401810191818101908684111561343c57600080fd5b8286015b848110156133f15780358352918301918301613440565b600082601f83011261346857600080fd5b813560206134786133a983613365565b82815260059290921b8401810191818101908684111561349757600080fd5b8286015b848110156133f15780356001600160401b038111156134ba5760008081fd5b6134c88986838b0101613148565b84525091830191830161349b565b600080600080608085870312156134ec57600080fd5b84356001600160401b038082111561350357600080fd5b61350f88838901613388565b9550602087013591508082111561352557600080fd5b613531888389016133fc565b9450604087013591508082111561354757600080fd5b5061355487828801613457565b949793965093946060013593505050565b600080600080600060a0868803121561357d57600080fd5b8535945061358d602087016130ab565b935061359b604087016130ab565b94979396509394606081013594506080013592915050565b634e487b7160e01b600052602160045260246000fd5b60208101600883106135eb57634e487b7160e01b600052602160045260246000fd5b91905290565b6000806040838503121561360457600080fd5b823591506020830135613616816132e5565b809150509250929050565b6000806040838503121561363457600080fd5b82359150613644602084016130ab565b90509250929050565b60008060008060006080868803121561366557600080fd5b85359450613675602087016130ab565b935060408601356001600160401b038082111561369157600080fd5b61369d89838a016130c1565b909550935060608801359150808211156136b657600080fd5b506136c388828901613148565b9150509295509295909350565b600080600080606085870312156136e657600080fd5b843593506136f6602086016130ab565b925060408501356001600160401b0381111561371157600080fd5b61371d878288016130c1565b95989497509550505050565b6000806000806080858703121561373f57600080fd5b84356001600160401b038082111561375657600080fd5b61376288838901613388565b9550602087013591508082111561377857600080fd5b613784888389016133fc565b9450604087013591508082111561379a57600080fd5b6137a688838901613457565b935060608701359150808211156137bc57600080fd5b5061335987828801613148565b6000806000606084860312156137de57600080fd5b83356137e9816132e5565b92506020840135915060408401356001600160401b0381111561380b57600080fd5b61381786828701613148565b9150509250925092565b6000806040838503121561383457600080fd5b82356001600160401b038082111561384b57600080fd5b61385786838701613148565b9350602085013591508082111561386d57600080fd5b5061387a85828601613148565b9150509250929050565b60006020828403121561389657600080fd5b8135611254816132e5565b600080600080600060a086880312156138b957600080fd5b85356138c4816132e5565b945060208601356138d4816132e5565b935060408601356001600160401b03808211156138f057600080fd5b6138fc89838a016133fc565b9450606088013591508082111561391257600080fd5b61391e89838a016133fc565b935060808801359150808211156136b657600080fd5b6000806000806060858703121561394a57600080fd5b8435613955816132e5565b93506020850135925060408501356001600160401b0381111561371157600080fd5b60006020828403121561398957600080fd5b81356001600160401b0381111561399f57600080fd5b61105484828501613148565b600080604083850312156139be57600080fd5b82356139c9816132e5565b946020939093013593505050565b600080600080600060a086880312156139ef57600080fd5b85356139fa816132e5565b94506020860135613a0a816132e5565b9350604086013592506060860135915060808601356001600160401b03811115613a3357600080fd5b6136c388828901613148565b8183823760009101908152919050565b60208082526018908201527f476f7665726e6f723a206f6e6c79476f7665726e616e63650000000000000000604082015260600190565b600181811c90821680613a9a57607f821691505b60208210811415613abb57634e487b7160e01b600052602260045260246000fd5b50919050565b60208082526021908201527f476f7665726e6f723a2070726f706f73616c206e6f74207375636365737366756040820152601b60fa1b606082015260800190565b600060208284031215613b1457600080fd5b5051919050565b600081518084526020808501945080840160005b83811015613b545781516001600160a01b031687529582019590820190600101613b2f565b509495945050505050565b600081518084526020808501945080840160005b83811015613b5457815187529582019590820190600101613b73565b600081518084526020808501808196508360051b8101915082860160005b85811015613bd7578284038952613bc58483516132a6565b98850198935090840190600101613bad565b5091979650505050505050565b60a081526000613bf760a0830188613b1b565b8281036020840152613c098188613b5f565b90508281036040840152613c1d8187613b8f565b60608401959095525050608001529392505050565b60c081526000613c4560c0830189613b1b565b8281036020840152613c578189613b5f565b90508281036040840152613c6b8188613b8f565b60608401969096525050608081019290925260a0909101529392505050565b634e487b7160e01b600052601160045260246000fd5b60008219821115613cb357613cb3613c8a565b500190565b600082821015613cca57613cca613c8a565b500390565b634e487b7160e01b600052603260045260246000fd5b60008251613cf7818460208701613276565b9190910192915050565b608081526000613d146080830187613b1b565b8281036020840152613d268187613b5f565b90508281036040840152613d3a8186613b8f565b91505082606083015295945050505050565b84815260ff8416602082015282604082015260806060820152600061122360808301846132a6565b85815260ff8516602082015283604082015260a060608201526000613d9c60a08301856132a6565b8281036080840152613dae81856132a6565b98975050505050505050565b6000600019821415613dce57613dce613c8a565b5060010190565b600060208284031215613de757600080fd5b8151801515811461125457600080fd5b60208082526021908201527f476f7665726e6f723a20696e76616c69642070726f706f73616c206c656e67746040820152600d60fb1b606082015260800190565b60006001600160401b03808316818516808303821115613e5a57613e5a613c8a565b01949350505050565b60006101208b8352602060018060a01b038c1681850152816040850152613e8c8285018c613b1b565b91508382036060850152613ea0828b613b5f565b915083820360808501528189518084528284019150828160051b850101838c0160005b83811015613ef157601f19878403018552613edf8383516132a6565b94860194925090850190600101613ec3565b505086810360a0880152613f05818c613b8f565b945050505050613f2060c08401876001600160401b03169052565b6001600160401b03851660e0840152828103610100840152613f4281856132a6565b9c9b505050505050505050505050565b6000816000190483118215151615613f6c57613f6c613c8a565b500290565b600082613f8e57634e487b7160e01b600052601260045260246000fd5b50049056fe476f7665726e6f723a2072656c617920726576657274656420776974686f7574206d657373616765a2646970667358221220ed93ba036a113b536b6868bf6a6557f30331537b83654f4966d52ec8acb48f5264736f6c634300080c0033360894a13ba1a3210667c828492db98dca3e2076cc3735a920a3ca505d382bbc416464726573733a206c6f772d6c6576656c2064656c65676174652063616c6c206661696c6564a264697066735822122032d29a6d6f1b3eddc9c27024fe4077908dc6509d171b3387d3a78139c349cfdb64736f6c634300080c0033",
  "linkReferences": {},
  "deployedLinkReferences": {}
}