{
  "_format": "hh-sol-artifact-1",
  "contractName": "FactoryTimeLockContract",
  "sourceName": "src/backend/contracts/FactoryTimeLockContract.sol",
  "abi": [
    {
      "inputs": [],
      "stateMutability": "nonpayable",
      "type": "constructor"
    },
    {
      "anonymous": false,
      "inputs": [
        {
          "indexed": false,
          "internalType": "address",
          "name": "previousAdmin",
          "type": "address"
        },
        {
          "indexed": false,
          "internalType": "address",
          "name": "newAdmin",
          "type": "address"
        }
      ],
      "name": "AdminChanged",
      "type": "event"
    },
    {
      "anonymous": false,
      "inputs": [
        {
          "indexed": true,
          "internalType": "address",
          "name": "beacon",
          "type": "address"
        }
      ],
      "name": "BeaconUpgraded",
      "type": "event"
    },
    {
      "anonymous": false,
      "inputs": [
        {
          "indexed": false,
          "internalType": "uint8",
          "name": "version",
          "type": "uint8"
        }
      ],
      "name": "Initialized",
      "type": "event"
    },
    {
      "anonymous": false,
      "inputs": [
        {
          "indexed": true,
          "internalType": "address",
          "name": "previousOwner",
          "type": "address"
        },
        {
          "indexed": true,
          "internalType": "address",
          "name": "newOwner",
          "type": "address"
        }
      ],
      "name": "OwnershipTransferred",
      "type": "event"
    },
    {
      "anonymous": false,
      "inputs": [
        {
          "indexed": true,
          "internalType": "address",
          "name": "implementation",
          "type": "address"
        }
      ],
      "name": "Upgraded",
      "type": "event"
    },
    {
      "inputs": [
        {
          "internalType": "uint256",
          "name": "_communityId",
          "type": "uint256"
        },
        {
          "internalType": "address[]",
          "name": "_proposers",
          "type": "address[]"
        },
        {
          "internalType": "address[]",
          "name": "_executors",
          "type": "address[]"
        }
      ],
      "name": "deployGovernanceTimeLockContract",
      "outputs": [],
      "stateMutability": "nonpayable",
      "type": "function"
    },
    {
      "inputs": [
        {
          "internalType": "address",
          "name": "_mainContractAddress",
          "type": "address"
        }
      ],
      "name": "initialize",
      "outputs": [],
      "stateMutability": "nonpayable",
      "type": "function"
    },
    {
      "inputs": [],
      "name": "owner",
      "outputs": [
        {
          "internalType": "address",
          "name": "",
          "type": "address"
        }
      ],
      "stateMutability": "view",
      "type": "function"
    },
    {
      "inputs": [],
      "name": "proxiableUUID",
      "outputs": [
        {
          "internalType": "bytes32",
          "name": "",
          "type": "bytes32"
        }
      ],
      "stateMutability": "view",
      "type": "function"
    },
    {
      "inputs": [],
      "name": "renounceOwnership",
      "outputs": [],
      "stateMutability": "nonpayable",
      "type": "function"
    },
    {
      "inputs": [
        {
          "internalType": "address",
          "name": "newOwner",
          "type": "address"
        }
      ],
      "name": "transferOwnership",
      "outputs": [],
      "stateMutability": "nonpayable",
      "type": "function"
    },
    {
      "inputs": [
        {
          "internalType": "address",
          "name": "newImplementation",
          "type": "address"
        }
      ],
      "name": "upgradeTo",
      "outputs": [],
      "stateMutability": "nonpayable",
      "type": "function"
    },
    {
      "inputs": [
        {
          "internalType": "address",
          "name": "newImplementation",
          "type": "address"
        },
        {
          "internalType": "bytes",
          "name": "data",
          "type": "bytes"
        }
      ],
      "name": "upgradeToAndCall",
      "outputs": [],
      "stateMutability": "payable",
      "type": "function"
    }
  ],
  "bytecode": "0x60a06040523060805234801561001457600080fd5b5061001d610022565b6100e2565b600054610100900460ff161561008e5760405162461bcd60e51b815260206004820152602760248201527f496e697469616c697a61626c653a20636f6e747261637420697320696e697469604482015266616c697a696e6760c81b606482015260840160405180910390fd5b60005460ff90811610156100e0576000805460ff191660ff9081179091556040519081527f7f26b83ff96e1f2b6a682f133852f6798a09c465da95921460cefb38474024989060200160405180910390a15b565b608051613683610119600039600081816101af015281816101fb015281816102a4015281816102e7015261038301526136836000f3fe608060405260043610620000855760003560e01c806386b79c92116200005457806386b79c92146200010b5780638da5cb5b1462000130578063c4d66de8146200015a578063f2fde38b146200017f57600080fd5b80633659cfe6146200008a5780634f1ef28614620000b157806352d1902d14620000c8578063715018a614620000f3575b600080fd5b3480156200009757600080fd5b50620000af620000a936600462000e32565b620001a4565b005b620000af620000c236600462000e9a565b62000299565b348015620000d557600080fd5b50620000e062000376565b6040519081526020015b60405180910390f35b3480156200010057600080fd5b50620000af6200042c565b3480156200011857600080fd5b50620000af6200012a36600462000fdd565b62000444565b3480156200013d57600080fd5b506033546040516001600160a01b039091168152602001620000ea565b3480156200016757600080fd5b50620000af6200017936600462000e32565b62000724565b3480156200018c57600080fd5b50620000af6200019e36600462000e32565b62000863565b306001600160a01b037f0000000000000000000000000000000000000000000000000000000000000000161415620001f95760405162461bcd60e51b8152600401620001f09062001051565b60405180910390fd5b7f00000000000000000000000000000000000000000000000000000000000000006001600160a01b03166200024460008051602062003607833981519152546001600160a01b031690565b6001600160a01b0316146200026d5760405162461bcd60e51b8152600401620001f0906200109d565b6200027881620008df565b604080516000808252602082019092526200029691839190620008e9565b50565b306001600160a01b037f0000000000000000000000000000000000000000000000000000000000000000161415620002e55760405162461bcd60e51b8152600401620001f09062001051565b7f00000000000000000000000000000000000000000000000000000000000000006001600160a01b03166200033060008051602062003607833981519152546001600160a01b031690565b6001600160a01b031614620003595760405162461bcd60e51b8152600401620001f0906200109d565b6200036482620008df565b6200037282826001620008e9565b5050565b6000306001600160a01b037f00000000000000000000000000000000000000000000000000000000000000001614620004185760405162461bcd60e51b815260206004820152603860248201527f555550535570677261646561626c653a206d757374206e6f742062652063616c60448201527f6c6564207468726f7567682064656c656761746563616c6c00000000000000006064820152608401620001f0565b506000805160206200360783398151915290565b6200043662000a66565b62000442600062000ac2565b565b60c954604051633b0c2e1760e21b8152600481018590523360248201526001600160a01b039091169063ec30b85c90604401602060405180830381865afa15801562000494573d6000803e3d6000fd5b505050506040513d601f19601f82011682018060405250810190620004ba9190620010fa565b620004f45760405162461bcd60e51b81526020600482015260096024820152684e6f2041636365737360b81b6044820152606401620001f0565b60c954604051635b25bfbb60e11b81526004810185905260019160009182916001600160a01b03169063b64b7f7690602401606060405180830381865afa15801562000544573d6000803e3d6000fd5b505050506040513d601f19601f820116820180604052508101906200056a919062001118565b92509250508015620005cb5760405162461bcd60e51b815260206004820152602360248201527f436f6d6d756e69747920616c726561647920686176652044414f20436f6e74726044820152621858dd60ea1b6064820152608401620001f0565b81620006285760405162461bcd60e51b815260206004820152602560248201527f436f6d6d756e69747920646f6e2774206861766520546f6b656e20666f7220766044820152646f74696e6760d81b6064820152608401620001f0565b600083868660006040516200063d9062000e07565b6200064c9493929190620011a8565b604051809103906000f08015801562000669573d6000803e3d6000fd5b5060ca80546001810182556000919091527f42d72674974f694b5f5159593243114d38a5c39c89d6b62fee061ff523240ee10180546001600160a01b0319166001600160a01b0383811691821790925560c95460405163ab53cd9360e01b8152600481018c9052602481019290925292935091169063ab53cd9390604401600060405180830381600087803b1580156200070257600080fd5b505af115801562000717573d6000803e3d6000fd5b5050505050505050505050565b600054610100900460ff1615808015620007455750600054600160ff909116105b80620007615750303b15801562000761575060005460ff166001145b620007c65760405162461bcd60e51b815260206004820152602e60248201527f496e697469616c697a61626c653a20636f6e747261637420697320616c72656160448201526d191e481a5b9a5d1a585b1a5e995960921b6064820152608401620001f0565b6000805460ff191660011790558015620007ea576000805461ff0019166101001790555b620007f462000b14565b620007fe62000b48565b60c980546001600160a01b0319166001600160a01b038416179055801562000372576000805461ff0019169055604051600181527f7f26b83ff96e1f2b6a682f133852f6798a09c465da95921460cefb38474024989060200160405180910390a15050565b6200086d62000a66565b6001600160a01b038116620008d45760405162461bcd60e51b815260206004820152602660248201527f4f776e61626c653a206e6577206f776e657220697320746865207a65726f206160448201526564647265737360d01b6064820152608401620001f0565b620002968162000ac2565b6200029662000a66565b7f4910fdfa16fed3260ed0e7147f7cc6da11a60208b5b9406d12a635614ffd91435460ff161562000924576200091f8362000b72565b505050565b826001600160a01b03166352d1902d6040518163ffffffff1660e01b8152600401602060405180830381865afa92505050801562000981575060408051601f3d908101601f191682019092526200097e91810190620011f1565b60015b620009e65760405162461bcd60e51b815260206004820152602e60248201527f45524331393637557067726164653a206e657720696d706c656d656e7461746960448201526d6f6e206973206e6f74205555505360901b6064820152608401620001f0565b60008051602062003607833981519152811462000a585760405162461bcd60e51b815260206004820152602960248201527f45524331393637557067726164653a20756e737570706f727465642070726f786044820152681a58589b195555525160ba1b6064820152608401620001f0565b506200091f83838362000c11565b6033546001600160a01b03163314620004425760405162461bcd60e51b815260206004820181905260248201527f4f776e61626c653a2063616c6c6572206973206e6f7420746865206f776e65726044820152606401620001f0565b603380546001600160a01b038381166001600160a01b0319831681179093556040519116919082907f8be0079c531659141344cd1fd0a4f28419497f9722a3daafe3b4186f6b6457e090600090a35050565b600054610100900460ff1662000b3e5760405162461bcd60e51b8152600401620001f0906200120b565b6200044262000c42565b600054610100900460ff16620004425760405162461bcd60e51b8152600401620001f0906200120b565b6001600160a01b0381163b62000be15760405162461bcd60e51b815260206004820152602d60248201527f455243313936373a206e657720696d706c656d656e746174696f6e206973206e60448201526c1bdd08184818dbdb9d1c9858dd609a1b6064820152608401620001f0565b6000805160206200360783398151915280546001600160a01b0319166001600160a01b0392909216919091179055565b62000c1c8362000c77565b60008251118062000c2a5750805b156200091f5762000c3c838362000cb9565b50505050565b600054610100900460ff1662000c6c5760405162461bcd60e51b8152600401620001f0906200120b565b620004423362000ac2565b62000c828162000b72565b6040516001600160a01b038216907fbc7cd75a20ee27fd9adebab32041f755214dbc6bffa90cc0225b39da2e5c2d3b90600090a250565b60606001600160a01b0383163b62000d235760405162461bcd60e51b815260206004820152602660248201527f416464726573733a2064656c65676174652063616c6c20746f206e6f6e2d636f6044820152651b9d1c9858dd60d21b6064820152608401620001f0565b600080846001600160a01b03168460405162000d40919062001285565b600060405180830381855af49150503d806000811462000d7d576040519150601f19603f3d011682016040523d82523d6000602084013e62000d82565b606091505b509150915062000dad8282604051806060016040528060278152602001620036276027913962000db6565b95945050505050565b6060831562000dc757508162000dd3565b62000dd3838362000dda565b9392505050565b81511562000deb5781518083602001fd5b8060405162461bcd60e51b8152600401620001f09190620012a3565b61232e80620012d983390190565b80356001600160a01b038116811462000e2d57600080fd5b919050565b60006020828403121562000e4557600080fd5b62000dd38262000e15565b634e487b7160e01b600052604160045260246000fd5b604051601f8201601f1916810167ffffffffffffffff8111828210171562000e925762000e9262000e50565b604052919050565b6000806040838503121562000eae57600080fd5b62000eb98362000e15565b915060208084013567ffffffffffffffff8082111562000ed857600080fd5b818601915086601f83011262000eed57600080fd5b81358181111562000f025762000f0262000e50565b62000f16601f8201601f1916850162000e66565b9150808252878482850101111562000f2d57600080fd5b80848401858401376000848284010152508093505050509250929050565b600082601f83011262000f5d57600080fd5b8135602067ffffffffffffffff82111562000f7c5762000f7c62000e50565b8160051b62000f8d82820162000e66565b928352848101820192828101908785111562000fa857600080fd5b83870192505b8483101562000fd25762000fc28362000e15565b8252918301919083019062000fae565b979650505050505050565b60008060006060848603121562000ff357600080fd5b83359250602084013567ffffffffffffffff808211156200101357600080fd5b620010218783880162000f4b565b935060408601359150808211156200103857600080fd5b50620010478682870162000f4b565b9150509250925092565b6020808252602c908201527f46756e6374696f6e206d7573742062652063616c6c6564207468726f7567682060408201526b19195b1959d85d1958d85b1b60a21b606082015260800190565b6020808252602c908201527f46756e6374696f6e206d7573742062652063616c6c6564207468726f7567682060408201526b6163746976652070726f787960a01b606082015260800190565b8051801515811462000e2d57600080fd5b6000602082840312156200110d57600080fd5b62000dd382620010e9565b6000806000606084860312156200112e57600080fd5b6200113984620010e9565b92506200114960208501620010e9565b91506200115960408501620010e9565b90509250925092565b600081518084526020808501945080840160005b838110156200119d5781516001600160a01b03168752958201959082019060010162001176565b509495945050505050565b848152608060208201526000620011c3608083018662001162565b8281036040840152620011d7818662001162565b91505060018060a01b038316606083015295945050505050565b6000602082840312156200120457600080fd5b5051919050565b6020808252602b908201527f496e697469616c697a61626c653a20636f6e7472616374206973206e6f74206960408201526a6e697469616c697a696e6760a81b606082015260800190565b60005b838110156200127357818101518382015260200162001259565b8381111562000c3c5750506000910152565b600082516200129981846020870162001256565b9190910192915050565b6020815260008251806020840152620012c481604085016020870162001256565b601f01601f1916919091016040019291505056fe60806040523480156200001157600080fd5b506040516200232e3803806200232e833981016040819052620000349162000410565b8383838362000053600080516020620022ae8339815191528062000235565b6200007d600080516020620022ce833981519152600080516020620022ae83398151915262000235565b620000a7600080516020620022ee833981519152600080516020620022ae83398151915262000235565b620000d16000805160206200230e833981519152600080516020620022ae83398151915262000235565b620000ec600080516020620022ae8339815191523062000280565b6001600160a01b03811615620001175762000117600080516020620022ae8339815191528262000280565b60005b83518110156200019d5762000161600080516020620022ce8339815191528583815181106200014d576200014d62000497565b60200260200101516200028060201b60201c565b6200018a6000805160206200230e8339815191528583815181106200014d576200014d62000497565b6200019581620004ad565b90506200011a565b5060005b8251811015620001e757620001d4600080516020620022ee8339815191528483815181106200014d576200014d62000497565b620001df81620004ad565b9050620001a1565b5060028490556040805160008152602081018690527f11c24f4ead16507c69ac467fbd5e4eed5fb5c699626d2cc6d66421df253886d5910160405180910390a15050505050505050620004d7565b600082815260208190526040808220600101805490849055905190918391839186917fbd79b86ffe0ab8e8776151514217cd7cacd52c909f66475c3af44e129f0b00ff9190a4505050565b6200028c828262000290565b5050565b6000828152602081815260408083206001600160a01b038516845290915290205460ff166200028c576000828152602081815260408083206001600160a01b03851684529091529020805460ff19166001179055620002ec3390565b6001600160a01b0316816001600160a01b0316837f2f8788117e7eff1d82e926ec794901d17c78024a50270940304540a733656f0d60405160405180910390a45050565b634e487b7160e01b600052604160045260246000fd5b80516001600160a01b03811681146200035e57600080fd5b919050565b600082601f8301126200037557600080fd5b815160206001600160401b038083111562000394576200039462000330565b8260051b604051601f19603f83011681018181108482111715620003bc57620003bc62000330565b604052938452858101830193838101925087851115620003db57600080fd5b83870191505b848210156200040557620003f58262000346565b83529183019190830190620003e1565b979650505050505050565b600080600080608085870312156200042757600080fd5b845160208601519094506001600160401b03808211156200044757600080fd5b620004558883890162000363565b945060408701519150808211156200046c57600080fd5b506200047b8782880162000363565b9250506200048c6060860162000346565b905092959194509250565b634e487b7160e01b600052603260045260246000fd5b6000600019821415620004d057634e487b7160e01b600052601160045260246000fd5b5060010190565b611dc780620004e76000396000f3fe6080604052600436106101bb5760003560e01c80638065657f116100ec578063bc197c811161008a578063d547741f11610064578063d547741f14610582578063e38335e5146105a2578063f23a6e61146105b5578063f27a0c92146105e157600080fd5b8063bc197c8114610509578063c4d252f514610535578063d45c44351461055557600080fd5b806391d14854116100c657806391d1485414610480578063a217fddf146104a0578063b08e51c0146104b5578063b1c5f427146104e957600080fd5b80638065657f1461040c5780638f2a0bb01461042c5780638f61f4f51461044c57600080fd5b8063248a9ca31161015957806331d507501161013357806331d507501461038c57806336568abe146103ac578063584b153e146103cc57806364d62353146103ec57600080fd5b8063248a9ca31461030b5780632ab0f5291461033b5780632f2ff15d1461036c57600080fd5b80630d3cf6fc116101955780630d3cf6fc14610260578063134008d31461029457806313bc9f20146102a7578063150b7a02146102c757600080fd5b806301d5062a146101c757806301ffc9a7146101e957806307bd02651461021e57600080fd5b366101c257005b600080fd5b3480156101d357600080fd5b506101e76101e23660046113c0565b6105f6565b005b3480156101f557600080fd5b50610209610204366004611434565b61068b565b60405190151581526020015b60405180910390f35b34801561022a57600080fd5b506102527fd8aa0f3194971a2a116679f7c2090f6939c8d4e01a2a8d7e41d55e5351469e6381565b604051908152602001610215565b34801561026c57600080fd5b506102527f5f58e3a2316349923ce3780f8d587db2d72378aed66a8261c916544fa6846ca581565b6101e76102a236600461145e565b6106b6565b3480156102b357600080fd5b506102096102c23660046114c9565b61076b565b3480156102d357600080fd5b506102f26102e2366004611597565b630a85bd0160e11b949350505050565b6040516001600160e01b03199091168152602001610215565b34801561031757600080fd5b506102526103263660046114c9565b60009081526020819052604090206001015490565b34801561034757600080fd5b506102096103563660046114c9565b6000908152600160208190526040909120541490565b34801561037857600080fd5b506101e76103873660046115fe565b610791565b34801561039857600080fd5b506102096103a73660046114c9565b6107bb565b3480156103b857600080fd5b506101e76103c73660046115fe565b6107d4565b3480156103d857600080fd5b506102096103e73660046114c9565b610857565b3480156103f857600080fd5b506101e76104073660046114c9565b61086d565b34801561041857600080fd5b5061025261042736600461145e565b610911565b34801561043857600080fd5b506101e761044736600461166e565b610950565b34801561045857600080fd5b506102527fb09aa5aeb3702cfd50b6b62bc4532604938f21248a27a1d5ca736082b6819cc181565b34801561048c57600080fd5b5061020961049b3660046115fe565b610aa2565b3480156104ac57600080fd5b50610252600081565b3480156104c157600080fd5b506102527ffd643c72710c63c0180259aba6b2d05451e3591a24e58b62239378085726f78381565b3480156104f557600080fd5b5061025261050436600461171f565b610acb565b34801561051557600080fd5b506102f2610524366004611846565b63bc197c8160e01b95945050505050565b34801561054157600080fd5b506101e76105503660046114c9565b610b10565b34801561056157600080fd5b506102526105703660046114c9565b60009081526001602052604090205490565b34801561058e57600080fd5b506101e761059d3660046115fe565b610be5565b6101e76105b036600461171f565b610c0a565b3480156105c157600080fd5b506102f26105d03660046118ef565b63f23a6e6160e01b95945050505050565b3480156105ed57600080fd5b50600254610252565b7fb09aa5aeb3702cfd50b6b62bc4532604938f21248a27a1d5ca736082b6819cc161062081610d94565b6000610630898989898989610911565b905061063c8184610da1565b6000817f4cf4410cc57040e44862ef0f45f3dd5a5e02db8eb8add648d4b0e236f1d07dca8b8b8b8b8b8a6040516106789695949392919061197c565b60405180910390a3505050505050505050565b60006001600160e01b03198216630271189760e51b14806106b057506106b082610e90565b92915050565b7fd8aa0f3194971a2a116679f7c2090f6939c8d4e01a2a8d7e41d55e5351469e636106e2816000610aa2565b6106f0576106f08133610ec5565b6000610700888888888888610911565b905061070c8185610f1e565b61071888888888610fba565b6000817fc2617efa69bab66782fa219543714338489c4e9e178271560a91b82c3f612b588a8a8a8a60405161075094939291906119b9565b60405180910390a36107618161108d565b5050505050505050565b60008181526001602052604081205460018111801561078a5750428111155b9392505050565b6000828152602081905260409020600101546107ac81610d94565b6107b683836110c6565b505050565b60008181526001602052604081205481905b1192915050565b6001600160a01b03811633146108495760405162461bcd60e51b815260206004820152602f60248201527f416363657373436f6e74726f6c3a2063616e206f6e6c792072656e6f756e636560448201526e103937b632b9903337b91039b2b63360891b60648201526084015b60405180910390fd5b610853828261114a565b5050565b60008181526001602081905260408220546107cd565b3330146108d05760405162461bcd60e51b815260206004820152602b60248201527f54696d656c6f636b436f6e74726f6c6c65723a2063616c6c6572206d7573742060448201526a62652074696d656c6f636b60a81b6064820152608401610840565b60025460408051918252602082018390527f11c24f4ead16507c69ac467fbd5e4eed5fb5c699626d2cc6d66421df253886d5910160405180910390a1600255565b600086868686868660405160200161092e9695949392919061197c565b6040516020818303038152906040528051906020012090509695505050505050565b7fb09aa5aeb3702cfd50b6b62bc4532604938f21248a27a1d5ca736082b6819cc161097a81610d94565b8887146109995760405162461bcd60e51b8152600401610840906119eb565b8885146109b85760405162461bcd60e51b8152600401610840906119eb565b60006109ca8b8b8b8b8b8b8b8b610acb565b90506109d68184610da1565b60005b8a811015610a945780827f4cf4410cc57040e44862ef0f45f3dd5a5e02db8eb8add648d4b0e236f1d07dca8e8e85818110610a1657610a16611a2e565b9050602002016020810190610a2b9190611a44565b8d8d86818110610a3d57610a3d611a2e565b905060200201358c8c87818110610a5657610a56611a2e565b9050602002810190610a689190611a5f565b8c8b604051610a7c9695949392919061197c565b60405180910390a3610a8d81611abb565b90506109d9565b505050505050505050505050565b6000918252602082815260408084206001600160a01b0393909316845291905290205460ff1690565b60008888888888888888604051602001610aec989796959493929190611b66565b60405160208183030381529060405280519060200120905098975050505050505050565b7ffd643c72710c63c0180259aba6b2d05451e3591a24e58b62239378085726f783610b3a81610d94565b610b4382610857565b610ba95760405162461bcd60e51b815260206004820152603160248201527f54696d656c6f636b436f6e74726f6c6c65723a206f7065726174696f6e2063616044820152701b9b9bdd0818994818d85b98d95b1b1959607a1b6064820152608401610840565b6000828152600160205260408082208290555183917fbaa1eb22f2a492ba1a5fea61b8df4d27c6c8b5f3971e63bb58fa14ff72eedb7091a25050565b600082815260208190526040902060010154610c0081610d94565b6107b6838361114a565b7fd8aa0f3194971a2a116679f7c2090f6939c8d4e01a2a8d7e41d55e5351469e63610c36816000610aa2565b610c4457610c448133610ec5565b878614610c635760405162461bcd60e51b8152600401610840906119eb565b878414610c825760405162461bcd60e51b8152600401610840906119eb565b6000610c948a8a8a8a8a8a8a8a610acb565b9050610ca08185610f1e565b60005b89811015610d7e5760008b8b83818110610cbf57610cbf611a2e565b9050602002016020810190610cd49190611a44565b905060008a8a84818110610cea57610cea611a2e565b9050602002013590503660008a8a86818110610d0857610d08611a2e565b9050602002810190610d1a9190611a5f565b91509150610d2a84848484610fba565b84867fc2617efa69bab66782fa219543714338489c4e9e178271560a91b82c3f612b5886868686604051610d6194939291906119b9565b60405180910390a35050505080610d7790611abb565b9050610ca3565b50610d888161108d565b50505050505050505050565b610d9e8133610ec5565b50565b610daa826107bb565b15610e0f5760405162461bcd60e51b815260206004820152602f60248201527f54696d656c6f636b436f6e74726f6c6c65723a206f7065726174696f6e20616c60448201526e1c9958591e481cd8da19591d5b1959608a1b6064820152608401610840565b600254811015610e705760405162461bcd60e51b815260206004820152602660248201527f54696d656c6f636b436f6e74726f6c6c65723a20696e73756666696369656e746044820152652064656c617960d01b6064820152608401610840565b610e7a8142611c11565b6000928352600160205260409092209190915550565b60006001600160e01b03198216637965db0b60e01b14806106b057506301ffc9a760e01b6001600160e01b03198316146106b0565b610ecf8282610aa2565b61085357610edc816111af565b610ee78360206111c1565b604051602001610ef8929190611c59565b60408051601f198184030181529082905262461bcd60e51b825261084091600401611cce565b610f278261076b565b610f435760405162461bcd60e51b815260040161084090611d01565b801580610f5f5750600081815260016020819052604090912054145b6108535760405162461bcd60e51b815260206004820152602660248201527f54696d656c6f636b436f6e74726f6c6c65723a206d697373696e6720646570656044820152656e64656e637960d01b6064820152608401610840565b6000846001600160a01b0316848484604051610fd7929190611d4b565b60006040518083038185875af1925050503d8060008114611014576040519150601f19603f3d011682016040523d82523d6000602084013e611019565b606091505b50509050806110865760405162461bcd60e51b815260206004820152603360248201527f54696d656c6f636b436f6e74726f6c6c65723a20756e6465726c79696e6720746044820152721c985b9cd858dd1a5bdb881c995d995c9d1959606a1b6064820152608401610840565b5050505050565b6110968161076b565b6110b25760405162461bcd60e51b815260040161084090611d01565b600090815260016020819052604090912055565b6110d08282610aa2565b610853576000828152602081815260408083206001600160a01b03851684529091529020805460ff191660011790556111063390565b6001600160a01b0316816001600160a01b0316837f2f8788117e7eff1d82e926ec794901d17c78024a50270940304540a733656f0d60405160405180910390a45050565b6111548282610aa2565b15610853576000828152602081815260408083206001600160a01b0385168085529252808320805460ff1916905551339285917ff6391f5c32d9c69d2a47ea670b442974b53935d1edc7fd64eb21e047a839171b9190a45050565b60606106b06001600160a01b03831660145b606060006111d0836002611d5b565b6111db906002611c11565b6001600160401b038111156111f2576111f26114e2565b6040519080825280601f01601f19166020018201604052801561121c576020820181803683370190505b509050600360fc1b8160008151811061123757611237611a2e565b60200101906001600160f81b031916908160001a905350600f60fb1b8160018151811061126657611266611a2e565b60200101906001600160f81b031916908160001a905350600061128a846002611d5b565b611295906001611c11565b90505b600181111561130d576f181899199a1a9b1b9c1cb0b131b232b360811b85600f16601081106112c9576112c9611a2e565b1a60f81b8282815181106112df576112df611a2e565b60200101906001600160f81b031916908160001a90535060049490941c9361130681611d7a565b9050611298565b50831561078a5760405162461bcd60e51b815260206004820181905260248201527f537472696e67733a20686578206c656e67746820696e73756666696369656e746044820152606401610840565b80356001600160a01b038116811461137357600080fd5b919050565b60008083601f84011261138a57600080fd5b5081356001600160401b038111156113a157600080fd5b6020830191508360208285010111156113b957600080fd5b9250929050565b600080600080600080600060c0888a0312156113db57600080fd5b6113e48861135c565b96506020880135955060408801356001600160401b0381111561140657600080fd5b6114128a828b01611378565b989b979a50986060810135976080820135975060a09091013595509350505050565b60006020828403121561144657600080fd5b81356001600160e01b03198116811461078a57600080fd5b60008060008060008060a0878903121561147757600080fd5b6114808761135c565b95506020870135945060408701356001600160401b038111156114a257600080fd5b6114ae89828a01611378565b979a9699509760608101359660809091013595509350505050565b6000602082840312156114db57600080fd5b5035919050565b634e487b7160e01b600052604160045260246000fd5b604051601f8201601f191681016001600160401b0381118282101715611520576115206114e2565b604052919050565b600082601f83011261153957600080fd5b81356001600160401b03811115611552576115526114e2565b611565601f8201601f19166020016114f8565b81815284602083860101111561157a57600080fd5b816020850160208301376000918101602001919091529392505050565b600080600080608085870312156115ad57600080fd5b6115b68561135c565b93506115c46020860161135c565b92506040850135915060608501356001600160401b038111156115e657600080fd5b6115f287828801611528565b91505092959194509250565b6000806040838503121561161157600080fd5b823591506116216020840161135c565b90509250929050565b60008083601f84011261163c57600080fd5b5081356001600160401b0381111561165357600080fd5b6020830191508360208260051b85010111156113b957600080fd5b600080600080600080600080600060c08a8c03121561168c57600080fd5b89356001600160401b03808211156116a357600080fd5b6116af8d838e0161162a565b909b50995060208c01359150808211156116c857600080fd5b6116d48d838e0161162a565b909950975060408c01359150808211156116ed57600080fd5b506116fa8c828d0161162a565b9a9d999c50979a969997986060880135976080810135975060a0013595509350505050565b60008060008060008060008060a0898b03121561173b57600080fd5b88356001600160401b038082111561175257600080fd5b61175e8c838d0161162a565b909a50985060208b013591508082111561177757600080fd5b6117838c838d0161162a565b909850965060408b013591508082111561179c57600080fd5b506117a98b828c0161162a565b999c989b509699959896976060870135966080013595509350505050565b600082601f8301126117d857600080fd5b813560206001600160401b038211156117f3576117f36114e2565b8160051b6118028282016114f8565b928352848101820192828101908785111561181c57600080fd5b83870192505b8483101561183b57823582529183019190830190611822565b979650505050505050565b600080600080600060a0868803121561185e57600080fd5b6118678661135c565b94506118756020870161135c565b935060408601356001600160401b038082111561189157600080fd5b61189d89838a016117c7565b945060608801359150808211156118b357600080fd5b6118bf89838a016117c7565b935060808801359150808211156118d557600080fd5b506118e288828901611528565b9150509295509295909350565b600080600080600060a0868803121561190757600080fd5b6119108661135c565b945061191e6020870161135c565b9350604086013592506060860135915060808601356001600160401b0381111561194757600080fd5b6118e288828901611528565b81835281816020850137506000828201602090810191909152601f909101601f19169091010190565b60018060a01b038716815285602082015260a0604082015260006119a460a083018688611953565b60608301949094525060800152949350505050565b60018060a01b03851681528360208201526060604082015260006119e1606083018486611953565b9695505050505050565b60208082526023908201527f54696d656c6f636b436f6e74726f6c6c65723a206c656e677468206d69736d616040820152620e8c6d60eb1b606082015260800190565b634e487b7160e01b600052603260045260246000fd5b600060208284031215611a5657600080fd5b61078a8261135c565b6000808335601e19843603018112611a7657600080fd5b8301803591506001600160401b03821115611a9057600080fd5b6020019150368190038213156113b957600080fd5b634e487b7160e01b600052601160045260246000fd5b6000600019821415611acf57611acf611aa5565b5060010190565b81835260006020808501808196508560051b810191508460005b87811015611b595782840389528135601e19883603018112611b1157600080fd5b870180356001600160401b03811115611b2957600080fd5b803603891315611b3857600080fd5b611b458682898501611953565b9a87019a9550505090840190600101611af0565b5091979650505050505050565b60a0808252810188905260008960c08301825b8b811015611ba7576001600160a01b03611b928461135c565b16825260209283019290910190600101611b79565b5083810360208501528881526001600160fb1b03891115611bc757600080fd5b8860051b9150818a602083013781810191505060208101600081526020848303016040850152611bf881888a611ad6565b6060850196909652505050608001529695505050505050565b60008219821115611c2457611c24611aa5565b500190565b60005b83811015611c44578181015183820152602001611c2c565b83811115611c53576000848401525b50505050565b7f416363657373436f6e74726f6c3a206163636f756e7420000000000000000000815260008351611c91816017850160208801611c29565b7001034b99036b4b9b9b4b733903937b6329607d1b6017918401918201528351611cc2816028840160208801611c29565b01602801949350505050565b6020815260008251806020840152611ced816040850160208701611c29565b601f01601f19169190910160400192915050565b6020808252602a908201527f54696d656c6f636b436f6e74726f6c6c65723a206f7065726174696f6e206973604082015269206e6f7420726561647960b01b606082015260800190565b8183823760009101908152919050565b6000816000190483118215151615611d7557611d75611aa5565b500290565b600081611d8957611d89611aa5565b50600019019056fea26469706673582212209d031ddc3fa1d3f711608e8eb345058d6844e43967dd3c1bd94fb809034a220c64736f6c634300080c00335f58e3a2316349923ce3780f8d587db2d72378aed66a8261c916544fa6846ca5b09aa5aeb3702cfd50b6b62bc4532604938f21248a27a1d5ca736082b6819cc1d8aa0f3194971a2a116679f7c2090f6939c8d4e01a2a8d7e41d55e5351469e63fd643c72710c63c0180259aba6b2d05451e3591a24e58b62239378085726f783360894a13ba1a3210667c828492db98dca3e2076cc3735a920a3ca505d382bbc416464726573733a206c6f772d6c6576656c2064656c65676174652063616c6c206661696c6564a26469706673582212206c2dbb82d8289bb8786fb55efd592d3c1d5f3d2c1c763f90d176b48566f7078a64736f6c634300080c0033",
  "linkReferences": {},
  "deployedLinkReferences": {}
}