{
  "_format": "hh-sol-artifact-1",
  "contractName": "FactoryFTContract",
  "sourceName": "src/backend/contracts/FactoryFTContract.sol",
  "abi": [
    {
      "inputs": [],
      "stateMutability": "nonpayable",
      "type": "constructor"
    },
    {
      "anonymous": false,
      "inputs": [
        {
          "indexed": false,
          "internalType": "address",
          "name": "previousAdmin",
          "type": "address"
        },
        {
          "indexed": false,
          "internalType": "address",
          "name": "newAdmin",
          "type": "address"
        }
      ],
      "name": "AdminChanged",
      "type": "event"
    },
    {
      "anonymous": false,
      "inputs": [
        {
          "indexed": true,
          "internalType": "address",
          "name": "beacon",
          "type": "address"
        }
      ],
      "name": "BeaconUpgraded",
      "type": "event"
    },
    {
      "anonymous": false,
      "inputs": [
        {
          "indexed": false,
          "internalType": "uint8",
          "name": "version",
          "type": "uint8"
        }
      ],
      "name": "Initialized",
      "type": "event"
    },
    {
      "anonymous": false,
      "inputs": [
        {
          "indexed": true,
          "internalType": "uint256",
          "name": "_communityId",
          "type": "uint256"
        },
        {
          "indexed": false,
          "internalType": "address",
          "name": "_contractAddress",
          "type": "address"
        },
        {
          "indexed": false,
          "internalType": "string",
          "name": "_contractType",
          "type": "string"
        }
      ],
      "name": "NewContract",
      "type": "event"
    },
    {
      "anonymous": false,
      "inputs": [
        {
          "indexed": true,
          "internalType": "address",
          "name": "previousOwner",
          "type": "address"
        },
        {
          "indexed": true,
          "internalType": "address",
          "name": "newOwner",
          "type": "address"
        }
      ],
      "name": "OwnershipTransferred",
      "type": "event"
    },
    {
      "anonymous": false,
      "inputs": [
        {
          "indexed": true,
          "internalType": "address",
          "name": "implementation",
          "type": "address"
        }
      ],
      "name": "Upgraded",
      "type": "event"
    },
    {
      "inputs": [
        {
          "internalType": "uint256",
          "name": "_communityId",
          "type": "uint256"
        },
        {
          "internalType": "string",
          "name": "_name",
          "type": "string"
        },
        {
          "internalType": "string",
          "name": "_symbol",
          "type": "string"
        },
        {
          "internalType": "uint256",
          "name": "_supply",
          "type": "uint256"
        }
      ],
      "name": "deployFTContract",
      "outputs": [],
      "stateMutability": "nonpayable",
      "type": "function"
    },
    {
      "inputs": [
        {
          "internalType": "address",
          "name": "_mainContractAddress",
          "type": "address"
        },
        {
          "internalType": "contract IWorldID",
          "name": "_worldId",
          "type": "address"
        }
      ],
      "name": "initialize",
      "outputs": [],
      "stateMutability": "nonpayable",
      "type": "function"
    },
    {
      "inputs": [],
      "name": "owner",
      "outputs": [
        {
          "internalType": "address",
          "name": "",
          "type": "address"
        }
      ],
      "stateMutability": "view",
      "type": "function"
    },
    {
      "inputs": [],
      "name": "proxiableUUID",
      "outputs": [
        {
          "internalType": "bytes32",
          "name": "",
          "type": "bytes32"
        }
      ],
      "stateMutability": "view",
      "type": "function"
    },
    {
      "inputs": [],
      "name": "renounceOwnership",
      "outputs": [],
      "stateMutability": "nonpayable",
      "type": "function"
    },
    {
      "inputs": [
        {
          "internalType": "address",
          "name": "newOwner",
          "type": "address"
        }
      ],
      "name": "transferOwnership",
      "outputs": [],
      "stateMutability": "nonpayable",
      "type": "function"
    },
    {
      "inputs": [
        {
          "internalType": "address",
          "name": "newImplementation",
          "type": "address"
        }
      ],
      "name": "upgradeTo",
      "outputs": [],
      "stateMutability": "nonpayable",
      "type": "function"
    },
    {
      "inputs": [
        {
          "internalType": "address",
          "name": "newImplementation",
          "type": "address"
        },
        {
          "internalType": "bytes",
          "name": "data",
          "type": "bytes"
        }
      ],
      "name": "upgradeToAndCall",
      "outputs": [],
      "stateMutability": "payable",
      "type": "function"
    }
  ],
  "bytecode": "0x60a06040523060805234801561001457600080fd5b5061001d610022565b6100e2565b600054610100900460ff161561008e5760405162461bcd60e51b815260206004820152602760248201527f496e697469616c697a61626c653a20636f6e747261637420697320696e697469604482015266616c697a696e6760c81b606482015260840160405180910390fd5b60005460ff90811610156100e0576000805460ff191660ff9081179091556040519081527f7f26b83ff96e1f2b6a682f133852f6798a09c465da95921460cefb38474024989060200160405180910390a15b565b608051615858610119600039600081816101af015281816101fb015281816103fa0152818161043d01526104d901526158586000f3fe608060405260043610620000855760003560e01c8063715018a61162000054578063715018a614620001185780638da5cb5b1462000130578063ee01380d146200015a578063f2fde38b146200017f57600080fd5b80633659cfe6146200008a578063485cc95514620000b15780634f1ef28614620000d657806352d1902d14620000ed575b600080fd5b3480156200009757600080fd5b50620000af620000a936600462000f6b565b620001a4565b005b348015620000be57600080fd5b50620000af620000d036600462000f8b565b62000299565b620000af620000e73660046200105c565b620003ef565b348015620000fa57600080fd5b5062000105620004cc565b6040519081526020015b60405180910390f35b3480156200012557600080fd5b50620000af62000582565b3480156200013d57600080fd5b506033546040516001600160a01b0390911681526020016200010f565b3480156200016757600080fd5b50620000af62000179366004620010ea565b6200059a565b3480156200018c57600080fd5b50620000af6200019e36600462000f6b565b620009a8565b306001600160a01b037f0000000000000000000000000000000000000000000000000000000000000000161415620001f95760405162461bcd60e51b8152600401620001f09062001166565b60405180910390fd5b7f00000000000000000000000000000000000000000000000000000000000000006001600160a01b031662000244600080516020620057dc833981519152546001600160a01b031690565b6001600160a01b0316146200026d5760405162461bcd60e51b8152600401620001f090620011b2565b620002788162000a24565b60408051600080825260208201909252620002969183919062000a2e565b50565b600054610100900460ff1615808015620002ba5750600054600160ff909116105b80620002d65750303b158015620002d6575060005460ff166001145b6200033b5760405162461bcd60e51b815260206004820152602e60248201527f496e697469616c697a61626c653a20636f6e747261637420697320616c72656160448201526d191e481a5b9a5d1a585b1a5e995960921b6064820152608401620001f0565b6000805460ff1916600117905580156200035f576000805461ff0019166101001790555b6200036962000ba6565b6200037362000bda565b60c980546001600160a01b038086166001600160a01b03199283161790925560cb8054928516929091169190911790558015620003ea576000805461ff0019169055604051600181527f7f26b83ff96e1f2b6a682f133852f6798a09c465da95921460cefb38474024989060200160405180910390a15b505050565b306001600160a01b037f00000000000000000000000000000000000000000000000000000000000000001614156200043b5760405162461bcd60e51b8152600401620001f09062001166565b7f00000000000000000000000000000000000000000000000000000000000000006001600160a01b031662000486600080516020620057dc833981519152546001600160a01b031690565b6001600160a01b031614620004af5760405162461bcd60e51b8152600401620001f090620011b2565b620004ba8262000a24565b620004c88282600162000a2e565b5050565b6000306001600160a01b037f000000000000000000000000000000000000000000000000000000000000000016146200056e5760405162461bcd60e51b815260206004820152603860248201527f555550535570677261646561626c653a206d757374206e6f742062652063616c60448201527f6c6564207468726f7567682064656c656761746563616c6c00000000000000006064820152608401620001f0565b50600080516020620057dc83398151915290565b6200058c62000c04565b62000598600062000c60565b565b60c954604051633b0c2e1760e21b8152600481018690523360248201526001600160a01b039091169063ec30b85c90604401602060405180830381865afa158015620005ea573d6000803e3d6000fd5b505050506040513d601f19601f8201168201806040525081019062000610919062001214565b6200064a5760405162461bcd60e51b81526020600482015260096024820152684e6f2041636365737360b81b6044820152606401620001f0565b600383511015620006b65760405162461bcd60e51b815260206004820152602f60248201527f436f6c6c656374696f6e206e616d652073686f756c64206265206c6f6e67657260448201526e207468616e20322073796d626f6c7360881b6064820152608401620001f0565b6003825110158015620006cb57506005825111155b620007235760405162461bcd60e51b815260206004820152602160248201527f53796d626f6c206c656e6774682073686f756c6420626520332d3520636861726044820152607360f81b6064820152608401620001f0565b600081116200076b5760405162461bcd60e51b815260206004820152601360248201527215dc9bdb99c81cdd5c1c1b1e48185b5bdd5b9d606a1b6044820152606401620001f0565b60c954604051635b25bfbb60e11b8152600481018690526000916001600160a01b03169063b64b7f7690602401606060405180830381865afa158015620007b6573d6000803e3d6000fd5b505050506040513d601f19601f82011682018060405250810190620007dc919062001232565b5091505080156200083b5760405162461bcd60e51b815260206004820152602260248201527f436f6d6d756e69747920616c7265616479206861766520465420436f6e74726160448201526118dd60f21b6064820152608401620001f0565b60c95460cb546040516000926001600160a01b03908116928892889233928992911690620008699062000f47565b6200087a96959493929190620012d9565b604051809103906000f08015801562000897573d6000803e3d6000fd5b5060ca80546001810182556000919091527f42d72674974f694b5f5159593243114d38a5c39c89d6b62fee061ff523240ee10180546001600160a01b0319166001600160a01b0383811691821790925560c95460405163e87d940b60e01b8152600481018b9052602481019290925292935091169063e87d940b90604401600060405180830381600087803b1580156200093057600080fd5b505af115801562000945573d6000803e3d6000fd5b5050604080516001600160a01b03851681526020810182905260028183015261119560f21b606082015290518993507fc500b3b673a94d1f6af2da9be7af8d078d405a1a8bac815f0f1f0f5b70b3cb5492509081900360800190a2505050505050565b620009b262000c04565b6001600160a01b03811662000a195760405162461bcd60e51b815260206004820152602660248201527f4f776e61626c653a206e6577206f776e657220697320746865207a65726f206160448201526564647265737360d01b6064820152608401620001f0565b620002968162000c60565b6200029662000c04565b7f4910fdfa16fed3260ed0e7147f7cc6da11a60208b5b9406d12a635614ffd91435460ff161562000a6457620003ea8362000cb2565b826001600160a01b03166352d1902d6040518163ffffffff1660e01b8152600401602060405180830381865afa92505050801562000ac1575060408051601f3d908101601f1916820190925262000abe9181019062001332565b60015b62000b265760405162461bcd60e51b815260206004820152602e60248201527f45524331393637557067726164653a206e657720696d706c656d656e7461746960448201526d6f6e206973206e6f74205555505360901b6064820152608401620001f0565b600080516020620057dc833981519152811462000b985760405162461bcd60e51b815260206004820152602960248201527f45524331393637557067726164653a20756e737570706f727465642070726f786044820152681a58589b195555525160ba1b6064820152608401620001f0565b50620003ea83838362000d51565b600054610100900460ff1662000bd05760405162461bcd60e51b8152600401620001f0906200134c565b6200059862000d82565b600054610100900460ff16620005985760405162461bcd60e51b8152600401620001f0906200134c565b6033546001600160a01b03163314620005985760405162461bcd60e51b815260206004820181905260248201527f4f776e61626c653a2063616c6c6572206973206e6f7420746865206f776e65726044820152606401620001f0565b603380546001600160a01b038381166001600160a01b0319831681179093556040519116919082907f8be0079c531659141344cd1fd0a4f28419497f9722a3daafe3b4186f6b6457e090600090a35050565b6001600160a01b0381163b62000d215760405162461bcd60e51b815260206004820152602d60248201527f455243313936373a206e657720696d706c656d656e746174696f6e206973206e60448201526c1bdd08184818dbdb9d1c9858dd609a1b6064820152608401620001f0565b600080516020620057dc83398151915280546001600160a01b0319166001600160a01b0392909216919091179055565b62000d5c8362000db7565b60008251118062000d6a5750805b15620003ea5762000d7c838362000df9565b50505050565b600054610100900460ff1662000dac5760405162461bcd60e51b8152600401620001f0906200134c565b620005983362000c60565b62000dc28162000cb2565b6040516001600160a01b038216907fbc7cd75a20ee27fd9adebab32041f755214dbc6bffa90cc0225b39da2e5c2d3b90600090a250565b60606001600160a01b0383163b62000e635760405162461bcd60e51b815260206004820152602660248201527f416464726573733a2064656c65676174652063616c6c20746f206e6f6e2d636f6044820152651b9d1c9858dd60d21b6064820152608401620001f0565b600080846001600160a01b03168460405162000e80919062001397565b600060405180830381855af49150503d806000811462000ebd576040519150601f19603f3d011682016040523d82523d6000602084013e62000ec2565b606091505b509150915062000eed8282604051806060016040528060278152602001620057fc6027913962000ef6565b95945050505050565b6060831562000f0757508162000f13565b62000f13838362000f1a565b9392505050565b81511562000f2b5781518083602001fd5b8060405162461bcd60e51b8152600401620001f09190620013b5565b61441180620013cb83390190565b6001600160a01b03811681146200029657600080fd5b60006020828403121562000f7e57600080fd5b813562000f138162000f55565b6000806040838503121562000f9f57600080fd5b823562000fac8162000f55565b9150602083013562000fbe8162000f55565b809150509250929050565b634e487b7160e01b600052604160045260246000fd5b600067ffffffffffffffff8084111562000ffd5762000ffd62000fc9565b604051601f8501601f19908116603f0116810190828211818310171562001028576200102862000fc9565b816040528093508581528686860111156200104257600080fd5b858560208301376000602087830101525050509392505050565b600080604083850312156200107057600080fd5b82356200107d8162000f55565b9150602083013567ffffffffffffffff8111156200109a57600080fd5b8301601f81018513620010ac57600080fd5b620010bd8582356020840162000fdf565b9150509250929050565b600082601f830112620010d957600080fd5b62000f138383356020850162000fdf565b600080600080608085870312156200110157600080fd5b84359350602085013567ffffffffffffffff808211156200112157600080fd5b6200112f88838901620010c7565b945060408701359150808211156200114657600080fd5b506200115587828801620010c7565b949793965093946060013593505050565b6020808252602c908201527f46756e6374696f6e206d7573742062652063616c6c6564207468726f7567682060408201526b19195b1959d85d1958d85b1b60a21b606082015260800190565b6020808252602c908201527f46756e6374696f6e206d7573742062652063616c6c6564207468726f7567682060408201526b6163746976652070726f787960a01b606082015260800190565b805180151581146200120f57600080fd5b919050565b6000602082840312156200122757600080fd5b62000f1382620011fe565b6000806000606084860312156200124857600080fd5b6200125384620011fe565b92506200126360208501620011fe565b91506200127360408501620011fe565b90509250925092565b60005b83811015620012995781810151838201526020016200127f565b8381111562000d7c5750506000910152565b60008151808452620012c58160208601602086016200127c565b601f01601f19169290920160200192915050565b600060018060a01b03808916835260c06020840152620012fd60c0840189620012ab565b8381036040850152620013118189620012ab565b968216606085015250608083019490945250911660a0909101529392505050565b6000602082840312156200134557600080fd5b5051919050565b6020808252602b908201527f496e697469616c697a61626c653a20636f6e7472616374206973206e6f74206960408201526a6e697469616c697a696e6760a81b606082015260800190565b60008251620013ab8184602087016200127c565b9190910192915050565b60208152600062000f136020830184620012ab56fe6101606040526001610140523480156200001857600080fd5b5060405162004411380380620044118339810160408190526200003b9162000a94565b8480604051806040016040528060018152602001603160f81b815250878781600390805190602001906200007192919062000915565b5080516200008790600490602084019062000915565b50506005805460ff19169055506200009f33620001a4565b815160208084019190912082518383012060e08290526101008190524660a0818152604080517f8b73c3c69bb8fe3d512ecc4cf759cc79239f7b179b0ffacaa9a75d522b39400f81880181905281830187905260608201869052608082019490945230818401528151808203909301835260c00190528051940193909320919290916080523060c052610120525050600b80546001600160a01b0319166001600160a01b038b16179055506200016d91508490506200016784670de0b6b3a764000062000b5e565b620001fe565b620001788362000219565b600f80546001600160a01b0319166001600160a01b03929092169190911790555062000bf29350505050565b600580546001600160a01b03838116610100818102610100600160a81b031985161790945560405193909204169182907f8be0079c531659141344cd1fd0a4f28419497f9722a3daafe3b4186f6b6457e090600090a35050565b6200021582826200029c60201b62001ba01760201c565b5050565b620002236200034f565b6001600160a01b0381166200028e5760405162461bcd60e51b815260206004820152602660248201527f4f776e61626c653a206e6577206f776e657220697320746865207a65726f206160448201526564647265737360d01b60648201526084015b60405180910390fd5b6200029981620001a4565b50565b620002b38282620003b360201b62001c2a1760201c565b6001600160e01b03620002c76200048e8216565b1115620003305760405162461bcd60e51b815260206004820152603060248201527f4552433230566f7465733a20746f74616c20737570706c79207269736b73206f60448201526f766572666c6f77696e6720766f74657360801b606482015260840162000285565b62000349600a62001d016200049460201b1783620004a9565b50505050565b6005546001600160a01b03610100909104163314620003b15760405162461bcd60e51b815260206004820181905260248201527f4f776e61626c653a2063616c6c6572206973206e6f7420746865206f776e6572604482015260640162000285565b565b6001600160a01b0382166200040b5760405162461bcd60e51b815260206004820152601f60248201527f45524332303a206d696e7420746f20746865207a65726f206164647265737300604482015260640162000285565b62000419600083836200063b565b80600260008282546200042d919062000b80565b90915550506001600160a01b038216600081815260208181526040808320805486019055518481527fddf252ad1be2c89b69c2b068fc378daa952ba7f163c4a11628f55a4df523b3ef910160405180910390a3620002156000838362000662565b60025490565b6000620004a2828462000b80565b9392505050565b825460009081908181156200050957620004d887620004ca60018562000b9b565b600091825260209091200190565b60408051808201909152905463ffffffff8116825264010000000090046001600160e01b031660208201526200051e565b60408051808201909152600080825260208201525b905080602001516001600160e01b031693506200053c84868860201c565b9250600082118015620005555750805163ffffffff1643145b15620005ac5762000571836200067a60201b62001d0d1760201c565b6200058388620004ca60018662000b9b565b80546001600160e01b03929092166401000000000263ffffffff90921691909117905562000631565b866040518060400160405280620005ce43620006e960201b62001d7a1760201c565b63ffffffff168152602001620005ef866200067a60201b62001d0d1760201c565b6001600160e01b0390811690915282546001810184556000938452602093849020835194909301519091166401000000000263ffffffff909316929092179101555b5050935093915050565b6200064562000750565b6200065d8383836200065d60201b62000f401760201c565b505050565b6200065d8383836200079860201b62001ddf1760201c565b60006001600160e01b03821115620006e55760405162461bcd60e51b815260206004820152602760248201527f53616665436173743a2076616c756520646f65736e27742066697420696e20326044820152663234206269747360c81b606482015260840162000285565b5090565b600063ffffffff821115620006e55760405162461bcd60e51b815260206004820152602660248201527f53616665436173743a2076616c756520646f65736e27742066697420696e203360448201526532206269747360d01b606482015260840162000285565b60055460ff1615620003b15760405162461bcd60e51b815260206004820152601060248201526f14185d5cd8589b194e881c185d5cd95960821b604482015260640162000285565b620007b08383836200065d60201b62000f401760201c565b6001600160a01b038381166000908152600860205260408082205485841683529120546200065d92918216911683818314801590620007ef5750600081115b156200065d576001600160a01b038316156200087c576001600160a01b03831660009081526009602090815260408220829162000839919062000907901b62001e111785620004a9565b91509150846001600160a01b0316600080516020620043f1833981519152838360405162000871929190918252602082015260400190565b60405180910390a250505b6001600160a01b038216156200065d576001600160a01b038216600090815260096020908152604082208291620008c0919062000494901b62001d011785620004a9565b91509150836001600160a01b0316600080516020620043f18339815191528383604051620008f8929190918252602082015260400190565b60405180910390a25050505050565b6000620004a2828462000b9b565b828054620009239062000bb5565b90600052602060002090601f01602090048101928262000947576000855562000992565b82601f106200096257805160ff191683800117855562000992565b8280016001018555821562000992579182015b828111156200099257825182559160200191906001019062000975565b50620006e59291505b80821115620006e557600081556001016200099b565b6001600160a01b03811681146200029957600080fd5b634e487b7160e01b600052604160045260246000fd5b600082601f830112620009ef57600080fd5b81516001600160401b038082111562000a0c5762000a0c620009c7565b604051601f8301601f19908116603f0116810190828211818310171562000a375762000a37620009c7565b8160405283815260209250868385880101111562000a5457600080fd5b600091505b8382101562000a78578582018301518183018401529082019062000a59565b8382111562000a8a5760008385830101525b9695505050505050565b60008060008060008060c0878903121562000aae57600080fd5b865162000abb81620009b1565b60208801519096506001600160401b038082111562000ad957600080fd5b62000ae78a838b01620009dd565b9650604089015191508082111562000afe57600080fd5b5062000b0d89828a01620009dd565b945050606087015162000b2081620009b1565b608088015160a0890151919450925062000b3a81620009b1565b809150509295509295509295565b634e487b7160e01b600052601160045260246000fd5b600081600019048311821515161562000b7b5762000b7b62000b48565b500290565b6000821982111562000b965762000b9662000b48565b500190565b60008282101562000bb05762000bb062000b48565b500390565b600181811c9082168062000bca57607f821691505b6020821081141562000bec57634e487b7160e01b600052602260045260246000fd5b50919050565b60805160a05160c05160e0516101005161012051610140516137a462000c4d6000396000611875015260006122bc0152600061230b015260006122e60152600061223f015260006122690152600061229301526137a46000f3fe60806040526004361061020f5760003560e01c8063715018a611610118578063a6b03633116100a0578063d505accf1161006f578063d505accf14610625578063dd62ed3e14610645578063edfd1a7b14610665578063f1127ed814610678578063f2fde38b146106c257600080fd5b8063a6b03633146105a3578063a9059cbb146105c5578063c3cda520146105e5578063c3d445061461060557600080fd5b80638da5cb5b116100e75780638da5cb5b1461050b5780638e539e8c1461052e57806395d89b411461054e5780639ab24eb014610563578063a457c2d71461058357600080fd5b8063715018a6146104865780637ecebe001461049b5780638456cb59146104bb57806385c9d321146104d057600080fd5b8063395093511161019b5780635c19a95c1161016a5780635c19a95c146103cd5780635c975abb146103ed57806369b0aafa146104055780636fcfff451461041b57806370a082311461045057600080fd5b806339509351146103275780633a46b1a8146103475780633f4ba83a14610367578063587cde1e1461037c57600080fd5b806323b872dd116101e257806323b872dd146102a357806330d2c6d4146102c3578063313ce567146102d65780633644e515146102f2578063381da4881461030757600080fd5b806306fdde0314610214578063095ea7b31461023f578063140050501461026f57806318160ddd14610284575b600080fd5b34801561022057600080fd5b506102296106e2565b6040516102369190612f70565b60405180910390f35b34801561024b57600080fd5b5061025f61025a366004612f9f565b610774565b6040519015158152602001610236565b61028261027d366004613107565b61078c565b005b34801561029057600080fd5b506002545b604051908152602001610236565b3480156102af57600080fd5b5061025f6102be3660046131a8565b6109fe565b6102826102d13660046131e4565b610a22565b3480156102e257600080fd5b5060405160128152602001610236565b3480156102fe57600080fd5b50610295610bf2565b34801561031357600080fd5b50610282610322366004613234565b610c01565b34801561033357600080fd5b5061025f610342366004612f9f565b610f45565b34801561035357600080fd5b50610295610362366004612f9f565b610f67565b34801561037357600080fd5b50610282610fe1565b34801561038857600080fd5b506103b561039736600461324d565b6001600160a01b039081166000908152600860205260409020541690565b6040516001600160a01b039091168152602001610236565b3480156103d957600080fd5b506102826103e836600461324d565b610ff3565b3480156103f957600080fd5b5060055460ff1661025f565b34801561041157600080fd5b50610295600c5481565b34801561042757600080fd5b5061043b61043636600461324d565b611000565b60405163ffffffff9091168152602001610236565b34801561045c57600080fd5b5061029561046b36600461324d565b6001600160a01b031660009081526020819052604090205490565b34801561049257600080fd5b50610282611028565b3480156104a757600080fd5b506102956104b636600461324d565b61103a565b3480156104c757600080fd5b50610282611058565b3480156104dc57600080fd5b5061025f6104eb366004613268565b601160209081526000928352604080842090915290825290205460ff1681565b34801561051757600080fd5b5060055461010090046001600160a01b03166103b5565b34801561053a57600080fd5b50610295610549366004613234565b611068565b34801561055a57600080fd5b506102296110c4565b34801561056f57600080fd5b5061029561057e36600461324d565b6110d3565b34801561058f57600080fd5b5061025f61059e366004612f9f565b61115a565b3480156105af57600080fd5b506105b86111d5565b6040516102369190613310565b3480156105d157600080fd5b5061025f6105e0366004612f9f565b611422565b3480156105f157600080fd5b50610282610600366004613409565b611430565b34801561061157600080fd5b50610295610620366004613234565b611566565b34801561063157600080fd5b50610282610640366004613461565b611587565b34801561065157600080fd5b506102956106603660046134cb565b6116eb565b6102826106733660046134f5565b611716565b34801561068457600080fd5b5061069861069336600461357d565b611aa6565b60408051825163ffffffff1681526020928301516001600160e01b03169281019290925201610236565b3480156106ce57600080fd5b506102826106dd36600461324d565b611b2a565b6060600380546106f1906135bd565b80601f016020809104026020016040519081016040528092919081815260200182805461071d906135bd565b801561076a5780601f1061073f5761010080835404028352916020019161076a565b820191906000526020600020905b81548152906001019060200180831161074d57829003601f168201915b5050505050905090565b600033610782818585611e1d565b5060019392505050565b610794611f41565b848611156107e95760405162461bcd60e51b815260206004820152601960248201527f57726f6e672063616d706169676e20646174652072616e67650000000000000060448201526064015b60405180910390fd5b600060048860058111156107ff576107ff613294565b141561081657610813620f423f6001611fa1565b90505b6040516323b872dd60e01b8152336004820152306024820181905260448201859052906323b872dd906064016020604051808303816000875af1158015610861573d6000803e3d6000fd5b505050506040513d601f19601f8201168201806040525081019061088591906135f2565b506001600c6000828254610899919061362a565b9091555050600c54600d805460018101825560009182527fd7b6990105719101dabeb77144f2a3385c8033acd3af97e9423a695e81ad1eb501829055604080516101408101825292835260208301869052820152606081018390526080810188905260a0810187905260c0810182905260e0810189600581111561091f5761091f613294565b815260200186815260200185815250600e6000600c548152602001908152602001600020600082015181600001556020820151816001015560408201518160020155606082015181600301556080820151816004015560a0820151816005015560c0820151816006015560e08201518160070160006101000a81548160ff021916908360058111156109b3576109b3613294565b021790555061010082015180516109d4916008840191602090910190612d72565b5061012082015180516109f1916009840191602090910190612dd3565b5050505050505050505050565b600033610a0c858285612009565b610a1785858561207d565b506001949350505050565b610a2a611f41565b60008111610a705760405162461bcd60e51b815260206004820152601360248201527215dc9bdb99c81d1bdad95b9cc8185b5bdd5b9d606a1b60448201526064016107e0565b6000825111610ac15760405162461bcd60e51b815260206004820152601760248201527f57726f6e67206c697374206f662061646472657373657300000000000000000060448201526064016107e0565b6000825182610ad09190613658565b905060005b8351811015610b9457306001600160a01b03166323b872dd33868481518110610b0057610b0061366c565b60209081029190910101516040516001600160e01b031960e085901b1681526001600160a01b03928316600482015291166024820152604481018590526064016020604051808303816000875af1158015610b5f573d6000803e3d6000fd5b505050506040513d601f19601f82011682018060405250810190610b8391906135f2565b50610b8d81613682565b9050610ad5565b506040805133815260208101849052608091810182905260009181018290524260608201526003919086907fe71952c2fd3a7d8c18699fb382ded47b38d198d5ebb29e0f5c2ca644bb5f7eaa9060a00160405180910390a450505050565b6000610bfc612232565b905090565b610c09611f41565b6000818152600e6020908152604080832081516101408101835281548152600182015493810193909352600281015491830191909152600381015460608301526004810154608083015260058082015460a0840152600682015460c0840152600782015460e084019160ff90911690811115610c8757610c87613294565b6005811115610c9857610c98613294565b815260200160088201805480602002602001604051908101604052809291908181526020018280548015610cf557602002820191906000526020600020905b81546001600160a01b03168152600190910190602001808311610cd7575b50505050508152602001600982018054610d0e906135bd565b80601f0160208091040260200160405190810160405280929190818152602001828054610d3a906135bd565b8015610d875780601f10610d5c57610100808354040283529160200191610d87565b820191906000526020600020905b815481529060010190602001808311610d6a57829003601f168201915b5050505050815250509050600081604001518260200151610da8919061369d565b905060005b600d54811015610e6a5783600d8281548110610dcb57610dcb61366c565b90600052602060002001541415610e5a57600d5460011015610e3257600d8054610df79060019061369d565b81548110610e0757610e0761366c565b9060005260206000200154600d8281548110610e2557610e2561366c565b6000918252602090912001555b600d805480610e4357610e436136b4565b600190038181906000526020600020016000905590555b610e6381613682565b9050610dad565b506000838152600e6020526040812081815560018101829055600281018290556003810182905560048101829055600581018290556006810182905560078101805460ff1916905590610ec06008830182612e47565b610ece600983016000612e65565b50508015610f405760405163a9059cbb60e01b815233600482015260248101829052309063a9059cbb906044016020604051808303816000875af1158015610f1a573d6000803e3d6000fd5b505050506040513d601f19601f82011682018060405250810190610f3e91906135f2565b505b505050565b600033610782818585610f5883836116eb565b610f62919061362a565b611e1d565b6000438210610fb85760405162461bcd60e51b815260206004820152601f60248201527f4552433230566f7465733a20626c6f636b206e6f7420796574206d696e65640060448201526064016107e0565b6001600160a01b0383166000908152600960205260409020610fda9083612359565b9392505050565b610fe9611f41565b610ff1612450565b565b610ffd33826124a2565b50565b6001600160a01b03811660009081526009602052604081205461102290611d7a565b92915050565b611030611f41565b610ff1600061251b565b6001600160a01b038116600090815260066020526040812054611022565b611060611f41565b610ff1612575565b60004382106110b95760405162461bcd60e51b815260206004820152601f60248201527f4552433230566f7465733a20626c6f636b206e6f7420796574206d696e65640060448201526064016107e0565b611022600a83612359565b6060600480546106f1906135bd565b6001600160a01b0381166000908152600960205260408120548015611147576001600160a01b038316600090815260096020526040902061111560018361369d565b815481106111255761112561366c565b60009182526020909120015464010000000090046001600160e01b031661114a565b60005b6001600160e01b03169392505050565b6000338161116882866116eb565b9050838110156111c85760405162461bcd60e51b815260206004820152602560248201527f45524332303a2064656372656173656420616c6c6f77616e63652062656c6f77604482015264207a65726f60d81b60648201526084016107e0565b610a178286868403611e1d565b600d5460609060009067ffffffffffffffff8111156111f6576111f6612fc9565b60405190808252806020026020018201604052801561122f57816020015b61121c612e9f565b8152602001906001900390816112145790505b50905060005b600d5481101561141c57600e6000600d83815481106112565761125661366c565b9060005260206000200154815260200190815260200160002060405180610140016040529081600082015481526020016001820154815260200160028201548152602001600382015481526020016004820154815260200160058201548152602001600682015481526020016007820160009054906101000a900460ff1660058111156112e5576112e5613294565b60058111156112f6576112f6613294565b81526020016008820180548060200260200160405190810160405280929190818152602001828054801561135357602002820191906000526020600020905b81546001600160a01b03168152600190910190602001808311611335575b5050505050815260200160098201805461136c906135bd565b80601f0160208091040260200160405190810160405280929190818152602001828054611398906135bd565b80156113e55780601f106113ba576101008083540402835291602001916113e5565b820191906000526020600020905b8154815290600101906020018083116113c857829003601f168201915b5050505050815250508282815181106114005761140061366c565b60200260200101819052508061141590613682565b9050611235565b50919050565b60003361078281858561207d565b834211156114805760405162461bcd60e51b815260206004820152601d60248201527f4552433230566f7465733a207369676e6174757265206578706972656400000060448201526064016107e0565b604080517fe48329057bfd03d55e49b547132e39cffd9c1820ad7b9d4c5307691425d15adf60208201526001600160a01b0388169181019190915260608101869052608081018590526000906114fa906114f29060a001604051602081830303815290604052805190602001206125b2565b858585612600565b905061150581612628565b86146115535760405162461bcd60e51b815260206004820152601960248201527f4552433230566f7465733a20696e76616c6964206e6f6e63650000000000000060448201526064016107e0565b61155d81886124a2565b50505050505050565b600d818154811061157657600080fd5b600091825260209091200154905081565b834211156115d75760405162461bcd60e51b815260206004820152601d60248201527f45524332305065726d69743a206578706972656420646561646c696e6500000060448201526064016107e0565b60007f6e71edae12b1b97f4d1f60370fef10105fa2faae0126114a169c64845d6126c98888886116068c612628565b6040805160208101969096526001600160a01b0394851690860152929091166060840152608083015260a082015260c0810186905260e0016040516020818303038152906040528051906020012090506000611661826125b2565b9050600061167182878787612600565b9050896001600160a01b0316816001600160a01b0316146116d45760405162461bcd60e51b815260206004820152601e60248201527f45524332305065726d69743a20696e76616c6964207369676e6174757265000060448201526064016107e0565b6116df8a8a8a611e1d565b50505050505050505050565b6001600160a01b03918216600090815260016020908152604080832093909416825291909152205490565b61171e61264e565b6000868152600e60205260409020600181015460038201546002830154611745919061362a565b11156117935760405162461bcd60e51b815260206004820152601a60248201527f4e6f7420656e6f75676820746f6b656e7320746f20636c61696d00000000000060448201526064016107e0565b600087815260116020908152604080832033845290915290205460ff16156117fd5760405162461bcd60e51b815260206004820152601860248201527f596f7520616c726561647920636c61696d20746f6b656e73000000000000000060448201526064016107e0565b600081600901805461180e906135bd565b905011156119415760008381526010602052604090205460ff161561184657604051632ec8265960e11b815260040160405180910390fd5b600f546040516001600160601b03193360601b1660208201526001600160a01b0390911690633bc778e39086907f0000000000000000000000000000000000000000000000000000000000000000906118b1906034015b604051602081830303815290604052612694565b6040516001600160601b03193060601b16602082015288906118d59060340161189d565b886040518763ffffffff1660e01b81526004016118f7969594939291906136ca565b60006040518083038186803b15801561190f57600080fd5b505afa158015611923573d6000803e3d6000fd5b5050506000848152601060205260409020805460ff19166001179055505b6004600782015460ff16600581111561195c5761195c613294565b14156119a857858160060154146119a85760405162461bcd60e51b815260206004820152601060248201526f57726f6e67204576656e7420436f646560801b60448201526064016107e0565b80600301548160020160008282546119c0919061362a565b9091555050600087815260116020908152604080832033808552925291829020805460ff191660011790556003830154915163a9059cbb60e01b815260048101919091526024810191909152309063a9059cbb906044016020604051808303816000875af1158015611a36573d6000803e3d6000fd5b505050506040513d601f19601f82011682018060405250810190611a5a91906135f2565b50600287897fe71952c2fd3a7d8c18699fb382ded47b38d198d5ebb29e0f5c2ca644bb5f7eaa33348a42604051611a949493929190613706565b60405180910390a45050505050505050565b60408051808201909152600080825260208201526001600160a01b0383166000908152600960205260409020805463ffffffff8416908110611aea57611aea61366c565b60009182526020918290206040805180820190915291015463ffffffff8116825264010000000090046001600160e01b0316918101919091529392505050565b611b32611f41565b6001600160a01b038116611b975760405162461bcd60e51b815260206004820152602660248201527f4f776e61626c653a206e6577206f776e657220697320746865207a65726f206160448201526564647265737360d01b60648201526084016107e0565b610ffd8161251b565b611baa8282611c2a565b6002546001600160e01b031015611c1c5760405162461bcd60e51b815260206004820152603060248201527f4552433230566f7465733a20746f74616c20737570706c79207269736b73206f60448201526f766572666c6f77696e6720766f74657360801b60648201526084016107e0565b610f3e600a611d01836126c9565b6001600160a01b038216611c805760405162461bcd60e51b815260206004820152601f60248201527f45524332303a206d696e7420746f20746865207a65726f20616464726573730060448201526064016107e0565b611c8c6000838361281d565b8060026000828254611c9e919061362a565b90915550506001600160a01b038216600081815260208181526040808320805486019055518481527fddf252ad1be2c89b69c2b068fc378daa952ba7f163c4a11628f55a4df523b3ef910160405180910390a3611cfd60008383612825565b5050565b6000610fda828461362a565b60006001600160e01b03821115611d765760405162461bcd60e51b815260206004820152602760248201527f53616665436173743a2076616c756520646f65736e27742066697420696e20326044820152663234206269747360c81b60648201526084016107e0565b5090565b600063ffffffff821115611d765760405162461bcd60e51b815260206004820152602660248201527f53616665436173743a2076616c756520646f65736e27742066697420696e203360448201526532206269747360d01b60648201526084016107e0565b6001600160a01b03838116600090815260086020526040808220548584168352912054610f4092918216911683612830565b6000610fda828461369d565b6001600160a01b038316611e7f5760405162461bcd60e51b8152602060048201526024808201527f45524332303a20617070726f76652066726f6d20746865207a65726f206164646044820152637265737360e01b60648201526084016107e0565b6001600160a01b038216611ee05760405162461bcd60e51b815260206004820152602260248201527f45524332303a20617070726f766520746f20746865207a65726f206164647265604482015261737360f01b60648201526084016107e0565b6001600160a01b0383811660008181526001602090815260408083209487168084529482529182902085905590518481527f8c5be1e5ebec7d5bd14f71427d1e84f3dd0314c0f7b2291e5b200ac8c7c3b925910160405180910390a3505050565b6005546001600160a01b03610100909104163314610ff15760405162461bcd60e51b815260206004820181905260248201527f4f776e61626c653a2063616c6c6572206973206e6f7420746865206f776e657260448201526064016107e0565b6040516001600160f81b031960f883901b1660208201526001600160601b03193360601b1660218201524460358201524260558201526001607582015260009083906095016040516020818303038152906040528051906020012060001c610fda919061373e565b600061201584846116eb565b90506000198114610f3e57818110156120705760405162461bcd60e51b815260206004820152601d60248201527f45524332303a20696e73756666696369656e7420616c6c6f77616e636500000060448201526064016107e0565b610f3e8484848403611e1d565b6001600160a01b0383166120e15760405162461bcd60e51b815260206004820152602560248201527f45524332303a207472616e736665722066726f6d20746865207a65726f206164604482015264647265737360d81b60648201526084016107e0565b6001600160a01b0382166121435760405162461bcd60e51b815260206004820152602360248201527f45524332303a207472616e7366657220746f20746865207a65726f206164647260448201526265737360e81b60648201526084016107e0565b61214e83838361281d565b6001600160a01b038316600090815260208190526040902054818110156121c65760405162461bcd60e51b815260206004820152602660248201527f45524332303a207472616e7366657220616d6f756e7420657863656564732062604482015265616c616e636560d01b60648201526084016107e0565b6001600160a01b03848116600081815260208181526040808320878703905593871680835291849020805487019055925185815290927fddf252ad1be2c89b69c2b068fc378daa952ba7f163c4a11628f55a4df523b3ef910160405180910390a3610f3e848484612825565b6000306001600160a01b037f00000000000000000000000000000000000000000000000000000000000000001614801561228b57507f000000000000000000000000000000000000000000000000000000000000000046145b156122b557507f000000000000000000000000000000000000000000000000000000000000000090565b50604080517f00000000000000000000000000000000000000000000000000000000000000006020808301919091527f0000000000000000000000000000000000000000000000000000000000000000828401527f000000000000000000000000000000000000000000000000000000000000000060608301524660808301523060a0808401919091528351808403909101815260c0909201909252805191012090565b8154600090818160058111156123b35760006123748461296d565b61237e908561369d565b600088815260209020909150869082015463ffffffff1611156123a3578091506123b1565b6123ae81600161362a565b92505b505b808210156124005760006123c78383612a52565b600088815260209020909150869082015463ffffffff1611156123ec578091506123fa565b6123f781600161362a565b92505b506123b3565b801561243a576124238661241560018461369d565b600091825260209091200190565b5464010000000090046001600160e01b031661243d565b60005b6001600160e01b03169695505050505050565b612458612a6d565b6005805460ff191690557f5db9ee0a495bf2e6ff9c91a7834c1ba4fdd244a5e8aa4e537bd38aeae4b073aa335b6040516001600160a01b03909116815260200160405180910390a1565b6001600160a01b038281166000818152600860208181526040808420805485845282862054949093528787166001600160a01b03198416811790915590519190951694919391928592917f3134e8a2e6d97e929a7e54011ea5485d7d196dd5f0ba4d4ef95803e8e3fc257f9190a4610f3e828483612830565b600580546001600160a01b03838116610100818102610100600160a81b031985161790945560405193909204169182907f8be0079c531659141344cd1fd0a4f28419497f9722a3daafe3b4186f6b6457e090600090a35050565b61257d61264e565b6005805460ff191660011790557f62e78cea01bee320cd4e420270b5ea74000d11b0c9f74754ebdbfc544b05a2586124853390565b60006110226125bf612232565b8360405161190160f01b6020820152602281018390526042810182905260009060620160405160208183030381529060405280519060200120905092915050565b600080600061261187878787612ab6565b9150915061261e81612b7a565b5095945050505050565b6001600160a01b038116600090815260066020526040902080546001810182559061141c565b60055460ff1615610ff15760405162461bcd60e51b815260206004820152601060248201526f14185d5cd8589b194e881c185d5cd95960821b60448201526064016107e0565b60006008826040516020016126a99190613752565b60408051601f198184030181529190528051602090910120901c92915050565b82546000908190818115612716576126e68761241560018561369d565b60408051808201909152905463ffffffff8116825264010000000090046001600160e01b0316602082015261272b565b60408051808201909152600080825260208201525b905080602001516001600160e01b0316935061274b84868863ffffffff16565b92506000821180156127635750805163ffffffff1643145b156127a85761277183611d0d565b6127808861241560018661369d565b80546001600160e01b03929092166401000000000263ffffffff909216919091179055612813565b8660405180604001604052806127bd43611d7a565b63ffffffff1681526020016127d186611d0d565b6001600160e01b0390811690915282546001810184556000938452602093849020835194909301519091166401000000000263ffffffff909316929092179101555b5050935093915050565b610f4061264e565b610f40838383611ddf565b816001600160a01b0316836001600160a01b0316141580156128525750600081115b15610f40576001600160a01b038316156128e0576001600160a01b0383166000908152600960205260408120819061288d90611e11856126c9565b91509150846001600160a01b03167fdec2bacdd2f05b59de34da9b523dff8be42e5e38e818c82fdb0bae774387a72483836040516128d5929190918252602082015260400190565b60405180910390a250505b6001600160a01b03821615610f40576001600160a01b0382166000908152600960205260408120819061291690611d01856126c9565b91509150836001600160a01b03167fdec2bacdd2f05b59de34da9b523dff8be42e5e38e818c82fdb0bae774387a724838360405161295e929190918252602082015260400190565b60405180910390a25050505050565b60008161297c57506000919050565b6000600161298984612cc8565b901c6001901b905060018184816129a2576129a2613642565b048201901c905060018184816129ba576129ba613642565b048201901c905060018184816129d2576129d2613642565b048201901c905060018184816129ea576129ea613642565b048201901c90506001818481612a0257612a02613642565b048201901c90506001818481612a1a57612a1a613642565b048201901c90506001818481612a3257612a32613642565b048201901c9050610fda81828581612a4c57612a4c613642565b04612d5c565b6000612a616002848418613658565b610fda9084841661362a565b60055460ff16610ff15760405162461bcd60e51b815260206004820152601460248201527314185d5cd8589b194e881b9bdd081c185d5cd95960621b60448201526064016107e0565b6000807f7fffffffffffffffffffffffffffffff5d576e7357a4501ddfe92f46681b20a0831115612aed5750600090506003612b71565b6040805160008082526020820180845289905260ff881692820192909252606081018690526080810185905260019060a0016020604051602081039080840390855afa158015612b41573d6000803e3d6000fd5b5050604051601f1901519150506001600160a01b038116612b6a57600060019250925050612b71565b9150600090505b94509492505050565b6000816004811115612b8e57612b8e613294565b1415612b975750565b6001816004811115612bab57612bab613294565b1415612bf95760405162461bcd60e51b815260206004820152601860248201527f45434453413a20696e76616c6964207369676e6174757265000000000000000060448201526064016107e0565b6002816004811115612c0d57612c0d613294565b1415612c5b5760405162461bcd60e51b815260206004820152601f60248201527f45434453413a20696e76616c6964207369676e6174757265206c656e6774680060448201526064016107e0565b6003816004811115612c6f57612c6f613294565b1415610ffd5760405162461bcd60e51b815260206004820152602260248201527f45434453413a20696e76616c6964207369676e6174757265202773272076616c604482015261756560f01b60648201526084016107e0565b600080608083901c15612cdd57608092831c92015b604083901c15612cef57604092831c92015b602083901c15612d0157602092831c92015b601083901c15612d1357601092831c92015b600883901c15612d2557600892831c92015b600483901c15612d3757600492831c92015b600283901c15612d4957600292831c92015b600183901c156110225760010192915050565b6000818310612d6b5781610fda565b5090919050565b828054828255906000526020600020908101928215612dc7579160200282015b82811115612dc757825182546001600160a01b0319166001600160a01b03909116178255602090920191600190910190612d92565b50611d76929150612f03565b828054612ddf906135bd565b90600052602060002090601f016020900481019282612e015760008555612dc7565b82601f10612e1a57805160ff1916838001178555612dc7565b82800160010185558215612dc7579182015b82811115612dc7578251825591602001919060010190612e2c565b5080546000825590600052602060002090810190610ffd9190612f03565b508054612e71906135bd565b6000825580601f10612e81575050565b601f016020900490600052602060002090810190610ffd9190612f03565b6040518061014001604052806000815260200160008152602001600081526020016000815260200160008152602001600081526020016000815260200160006005811115612eef57612eef613294565b815260200160608152602001606081525090565b5b80821115611d765760008155600101612f04565b60005b83811015612f33578181015183820152602001612f1b565b83811115610f3e5750506000910152565b60008151808452612f5c816020860160208601612f18565b601f01601f19169290920160200192915050565b602081526000610fda6020830184612f44565b80356001600160a01b0381168114612f9a57600080fd5b919050565b60008060408385031215612fb257600080fd5b612fbb83612f83565b946020939093013593505050565b634e487b7160e01b600052604160045260246000fd5b604051601f8201601f1916810167ffffffffffffffff8111828210171561300857613008612fc9565b604052919050565b600082601f83011261302157600080fd5b8135602067ffffffffffffffff82111561303d5761303d612fc9565b8160051b61304c828201612fdf565b928352848101820192828101908785111561306657600080fd5b83870192505b8483101561308c5761307d83612f83565b8252918301919083019061306c565b979650505050505050565b600082601f8301126130a857600080fd5b813567ffffffffffffffff8111156130c2576130c2612fc9565b6130d5601f8201601f1916602001612fdf565b8181528460208386010111156130ea57600080fd5b816020850160208301376000918101602001919091529392505050565b600080600080600080600060e0888a03121561312257600080fd5b87356006811061313157600080fd5b96506020880135955060408801359450606088013567ffffffffffffffff8082111561315c57600080fd5b6131688b838c01613010565b955060808a013591508082111561317e57600080fd5b5061318b8a828b01613097565b93505060a0880135915060c0880135905092959891949750929550565b6000806000606084860312156131bd57600080fd5b6131c684612f83565b92506131d460208501612f83565b9150604084013590509250925092565b6000806000606084860312156131f957600080fd5b83359250602084013567ffffffffffffffff81111561321757600080fd5b61322386828701613010565b925050604084013590509250925092565b60006020828403121561324657600080fd5b5035919050565b60006020828403121561325f57600080fd5b610fda82612f83565b6000806040838503121561327b57600080fd5b8235915061328b60208401612f83565b90509250929050565b634e487b7160e01b600052602160045260246000fd5b600681106132c857634e487b7160e01b600052602160045260246000fd5b9052565b600081518084526020808501945080840160005b838110156133055781516001600160a01b0316875295820195908201906001016132e0565b509495945050505050565b60006020808301818452808551808352604092508286019150828160051b87010184880160005b838110156133ea57888303603f1901855281518051845287810151888501528681015187850152606080820151908501526080808201519085015260a0808201519085015260c0808201519085015260e080820151610140919061339d828801826132aa565b50506101008083015182828801526133b7838801826132cc565b9250505061012080830151925085820381870152506133d68183612f44565b968901969450505090860190600101613337565b509098975050505050505050565b803560ff81168114612f9a57600080fd5b60008060008060008060c0878903121561342257600080fd5b61342b87612f83565b95506020870135945060408701359350613447606088016133f8565b92506080870135915060a087013590509295509295509295565b600080600080600080600060e0888a03121561347c57600080fd5b61348588612f83565b965061349360208901612f83565b955060408801359450606088013593506134af608089016133f8565b925060a0880135915060c0880135905092959891949750929550565b600080604083850312156134de57600080fd5b6134e783612f83565b915061328b60208401612f83565b60008060008060008060006101c080898b03121561351257600080fd5b883597506020890135965060408901359550606089013567ffffffffffffffff81111561353e57600080fd5b61354a8b828c01613097565b9550506080890135935060a0890135925089818a01111561356a57600080fd5b5060c08801905092959891949750929550565b6000806040838503121561359057600080fd5b61359983612f83565b9150602083013563ffffffff811681146135b257600080fd5b809150509250929050565b600181811c908216806135d157607f821691505b6020821081141561141c57634e487b7160e01b600052602260045260246000fd5b60006020828403121561360457600080fd5b81518015158114610fda57600080fd5b634e487b7160e01b600052601160045260246000fd5b6000821982111561363d5761363d613614565b500190565b634e487b7160e01b600052601260045260246000fd5b60008261366757613667613642565b500490565b634e487b7160e01b600052603260045260246000fd5b600060001982141561369657613696613614565b5060010190565b6000828210156136af576136af613614565b500390565b634e487b7160e01b600052603160045260246000fd5b60006101a0820190508782528660208301528560408301528460608301528360808301526101008360a084013760008152979650505050505050565b60018060a01b038516815283602082015260806040820152600061372d6080830185612f44565b905082606083015295945050505050565b60008261374d5761374d613642565b500690565b60008251613764818460208701612f18565b919091019291505056fea264697066735822122017adeaf78b84652a368436a132146c184a755bf9b37022ebc88219772b70a1c264736f6c634300080c0033dec2bacdd2f05b59de34da9b523dff8be42e5e38e818c82fdb0bae774387a724360894a13ba1a3210667c828492db98dca3e2076cc3735a920a3ca505d382bbc416464726573733a206c6f772d6c6576656c2064656c65676174652063616c6c206661696c6564a2646970667358221220aa975d0666c94701f6b489630bb820880b376e2fca98530e73b574d1278b1ef764736f6c634300080c0033",
  "linkReferences": {},
  "deployedLinkReferences": {}
}