{
  "_format": "hh-sol-artifact-1",
  "contractName": "FactoryTimeLockContract",
  "sourceName": "src/backend/contracts/FactoryTimeLockContract.sol",
  "abi": [
    {
      "inputs": [],
      "stateMutability": "nonpayable",
      "type": "constructor"
    },
    {
      "anonymous": false,
      "inputs": [
        {
          "indexed": false,
          "internalType": "address",
          "name": "previousAdmin",
          "type": "address"
        },
        {
          "indexed": false,
          "internalType": "address",
          "name": "newAdmin",
          "type": "address"
        }
      ],
      "name": "AdminChanged",
      "type": "event"
    },
    {
      "anonymous": false,
      "inputs": [
        {
          "indexed": true,
          "internalType": "address",
          "name": "beacon",
          "type": "address"
        }
      ],
      "name": "BeaconUpgraded",
      "type": "event"
    },
    {
      "anonymous": false,
      "inputs": [
        {
          "indexed": false,
          "internalType": "uint8",
          "name": "version",
          "type": "uint8"
        }
      ],
      "name": "Initialized",
      "type": "event"
    },
    {
      "anonymous": false,
      "inputs": [
        {
          "indexed": true,
          "internalType": "address",
          "name": "previousOwner",
          "type": "address"
        },
        {
          "indexed": true,
          "internalType": "address",
          "name": "newOwner",
          "type": "address"
        }
      ],
      "name": "OwnershipTransferred",
      "type": "event"
    },
    {
      "anonymous": false,
      "inputs": [
        {
          "indexed": true,
          "internalType": "address",
          "name": "implementation",
          "type": "address"
        }
      ],
      "name": "Upgraded",
      "type": "event"
    },
    {
      "inputs": [
        {
          "internalType": "uint256",
          "name": "_communityId",
          "type": "uint256"
        },
        {
          "internalType": "address[]",
          "name": "_proposers",
          "type": "address[]"
        },
        {
          "internalType": "address[]",
          "name": "_executors",
          "type": "address[]"
        }
      ],
      "name": "deployGovernanceTimeLockContract",
      "outputs": [],
      "stateMutability": "nonpayable",
      "type": "function"
    },
    {
      "inputs": [
        {
          "internalType": "address",
          "name": "_mainContractAddress",
          "type": "address"
        }
      ],
      "name": "initialize",
      "outputs": [],
      "stateMutability": "nonpayable",
      "type": "function"
    },
    {
      "inputs": [],
      "name": "owner",
      "outputs": [
        {
          "internalType": "address",
          "name": "",
          "type": "address"
        }
      ],
      "stateMutability": "view",
      "type": "function"
    },
    {
      "inputs": [],
      "name": "proxiableUUID",
      "outputs": [
        {
          "internalType": "bytes32",
          "name": "",
          "type": "bytes32"
        }
      ],
      "stateMutability": "view",
      "type": "function"
    },
    {
      "inputs": [],
      "name": "renounceOwnership",
      "outputs": [],
      "stateMutability": "nonpayable",
      "type": "function"
    },
    {
      "inputs": [
        {
          "internalType": "address",
          "name": "newOwner",
          "type": "address"
        }
      ],
      "name": "transferOwnership",
      "outputs": [],
      "stateMutability": "nonpayable",
      "type": "function"
    },
    {
      "inputs": [
        {
          "internalType": "address",
          "name": "newImplementation",
          "type": "address"
        }
      ],
      "name": "upgradeTo",
      "outputs": [],
      "stateMutability": "nonpayable",
      "type": "function"
    },
    {
      "inputs": [
        {
          "internalType": "address",
          "name": "newImplementation",
          "type": "address"
        },
        {
          "internalType": "bytes",
          "name": "data",
          "type": "bytes"
        }
      ],
      "name": "upgradeToAndCall",
      "outputs": [],
      "stateMutability": "payable",
      "type": "function"
    }
  ],
  "bytecode": "0x60a06040523060805234801561001457600080fd5b5061001d610022565b6100e2565b600054610100900460ff161561008e5760405162461bcd60e51b815260206004820152602760248201527f496e697469616c697a61626c653a20636f6e747261637420697320696e697469604482015266616c697a696e6760c81b606482015260840160405180910390fd5b60005460ff90811610156100e0576000805460ff191660ff9081179091556040519081527f7f26b83ff96e1f2b6a682f133852f6798a09c465da95921460cefb38474024989060200160405180910390a15b565b608051613715610119600039600081816101af015281816101fb015281816102a4015281816102e7015261038301526137156000f3fe608060405260043610620000855760003560e01c806386b79c92116200005457806386b79c92146200010b5780638da5cb5b1462000130578063c4d66de8146200015a578063f2fde38b146200017f57600080fd5b80633659cfe6146200008a5780634f1ef28614620000b157806352d1902d14620000c8578063715018a614620000f3575b600080fd5b3480156200009757600080fd5b50620000af620000a936600462000f01565b620001a4565b005b620000af620000c236600462000f69565b62000299565b348015620000d557600080fd5b50620000e062000376565b6040519081526020015b60405180910390f35b3480156200010057600080fd5b50620000af6200042c565b3480156200011857600080fd5b50620000af6200012a366004620010ac565b62000444565b3480156200013d57600080fd5b506033546040516001600160a01b039091168152602001620000ea565b3480156200016757600080fd5b50620000af6200017936600462000f01565b620007f3565b3480156200018c57600080fd5b50620000af6200019e36600462000f01565b62000932565b306001600160a01b037f0000000000000000000000000000000000000000000000000000000000000000161415620001f95760405162461bcd60e51b8152600401620001f09062001120565b60405180910390fd5b7f00000000000000000000000000000000000000000000000000000000000000006001600160a01b03166200024460008051602062003699833981519152546001600160a01b031690565b6001600160a01b0316146200026d5760405162461bcd60e51b8152600401620001f0906200116c565b6200027881620009ae565b604080516000808252602082019092526200029691839190620009b8565b50565b306001600160a01b037f0000000000000000000000000000000000000000000000000000000000000000161415620002e55760405162461bcd60e51b8152600401620001f09062001120565b7f00000000000000000000000000000000000000000000000000000000000000006001600160a01b03166200033060008051602062003699833981519152546001600160a01b031690565b6001600160a01b031614620003595760405162461bcd60e51b8152600401620001f0906200116c565b6200036482620009ae565b6200037282826001620009b8565b5050565b6000306001600160a01b037f00000000000000000000000000000000000000000000000000000000000000001614620004185760405162461bcd60e51b815260206004820152603860248201527f555550535570677261646561626c653a206d757374206e6f742062652063616c60448201527f6c6564207468726f7567682064656c656761746563616c6c00000000000000006064820152608401620001f0565b506000805160206200369983398151915290565b6200043662000b35565b62000442600062000b91565b565b60c954604051633b0c2e1760e21b8152600481018590523360248201526001600160a01b039091169063ec30b85c90604401602060405180830381865afa15801562000494573d6000803e3d6000fd5b505050506040513d601f19601f82011682018060405250810190620004ba9190620011c9565b620004f45760405162461bcd60e51b81526020600482015260096024820152684e6f2041636365737360b81b6044820152606401620001f0565b60c954604051635b25bfbb60e11b81526004810185905260019160009182916001600160a01b03169063b64b7f7690602401606060405180830381865afa15801562000544573d6000803e3d6000fd5b505050506040513d601f19601f820116820180604052508101906200056a9190620011e7565b92509250508015620005cb5760405162461bcd60e51b815260206004820152602360248201527f436f6d6d756e69747920616c726561647920686176652044414f20436f6e74726044820152621858dd60ea1b6064820152608401620001f0565b81620006285760405162461bcd60e51b815260206004820152602560248201527f436f6d6d756e69747920646f6e2774206861766520546f6b656e20666f7220766044820152646f74696e6760d81b6064820152608401620001f0565b60008386866040516200063b9062000ed6565b620006499392919062001277565b604051809103906000f08015801562000666573d6000803e3d6000fd5b5060ca805460018101825560009182527f42d72674974f694b5f5159593243114d38a5c39c89d6b62fee061ff523240ee10180546001600160a01b0319166001600160a01b0384169081179091556040805163034f3dbf60e21b8152905193945091929091630d3cf6fc9160048083019260209291908290030181865afa158015620006f6573d6000803e3d6000fd5b505050506040513d601f19601f820116820180604052508101906200071c9190620012b0565b60405163d547741f60e01b8152600481018290523360248201529091506001600160a01b0383169063d547741f90604401600060405180830381600087803b1580156200076857600080fd5b505af11580156200077d573d6000803e3d6000fd5b505060c95460405163ab53cd9360e01b8152600481018c90526001600160a01b038681166024830152909116925063ab53cd939150604401600060405180830381600087803b158015620007d057600080fd5b505af1158015620007e5573d6000803e3d6000fd5b505050505050505050505050565b600054610100900460ff1615808015620008145750600054600160ff909116105b80620008305750303b15801562000830575060005460ff166001145b620008955760405162461bcd60e51b815260206004820152602e60248201527f496e697469616c697a61626c653a20636f6e747261637420697320616c72656160448201526d191e481a5b9a5d1a585b1a5e995960921b6064820152608401620001f0565b6000805460ff191660011790558015620008b9576000805461ff0019166101001790555b620008c362000be3565b620008cd62000c17565b60c980546001600160a01b0319166001600160a01b038416179055801562000372576000805461ff0019169055604051600181527f7f26b83ff96e1f2b6a682f133852f6798a09c465da95921460cefb38474024989060200160405180910390a15050565b6200093c62000b35565b6001600160a01b038116620009a35760405162461bcd60e51b815260206004820152602660248201527f4f776e61626c653a206e6577206f776e657220697320746865207a65726f206160448201526564647265737360d01b6064820152608401620001f0565b620002968162000b91565b6200029662000b35565b7f4910fdfa16fed3260ed0e7147f7cc6da11a60208b5b9406d12a635614ffd91435460ff1615620009f357620009ee8362000c41565b505050565b826001600160a01b03166352d1902d6040518163ffffffff1660e01b8152600401602060405180830381865afa92505050801562000a50575060408051601f3d908101601f1916820190925262000a4d91810190620012b0565b60015b62000ab55760405162461bcd60e51b815260206004820152602e60248201527f45524331393637557067726164653a206e657720696d706c656d656e7461746960448201526d6f6e206973206e6f74205555505360901b6064820152608401620001f0565b60008051602062003699833981519152811462000b275760405162461bcd60e51b815260206004820152602960248201527f45524331393637557067726164653a20756e737570706f727465642070726f786044820152681a58589b195555525160ba1b6064820152608401620001f0565b50620009ee83838362000ce0565b6033546001600160a01b03163314620004425760405162461bcd60e51b815260206004820181905260248201527f4f776e61626c653a2063616c6c6572206973206e6f7420746865206f776e65726044820152606401620001f0565b603380546001600160a01b038381166001600160a01b0319831681179093556040519116919082907f8be0079c531659141344cd1fd0a4f28419497f9722a3daafe3b4186f6b6457e090600090a35050565b600054610100900460ff1662000c0d5760405162461bcd60e51b8152600401620001f090620012ca565b6200044262000d11565b600054610100900460ff16620004425760405162461bcd60e51b8152600401620001f090620012ca565b6001600160a01b0381163b62000cb05760405162461bcd60e51b815260206004820152602d60248201527f455243313936373a206e657720696d706c656d656e746174696f6e206973206e60448201526c1bdd08184818dbdb9d1c9858dd609a1b6064820152608401620001f0565b6000805160206200369983398151915280546001600160a01b0319166001600160a01b0392909216919091179055565b62000ceb8362000d46565b60008251118062000cf95750805b15620009ee5762000d0b838362000d88565b50505050565b600054610100900460ff1662000d3b5760405162461bcd60e51b8152600401620001f090620012ca565b620004423362000b91565b62000d518162000c41565b6040516001600160a01b038216907fbc7cd75a20ee27fd9adebab32041f755214dbc6bffa90cc0225b39da2e5c2d3b90600090a250565b60606001600160a01b0383163b62000df25760405162461bcd60e51b815260206004820152602660248201527f416464726573733a2064656c65676174652063616c6c20746f206e6f6e2d636f6044820152651b9d1c9858dd60d21b6064820152608401620001f0565b600080846001600160a01b03168460405162000e0f919062001344565b600060405180830381855af49150503d806000811462000e4c576040519150601f19603f3d011682016040523d82523d6000602084013e62000e51565b606091505b509150915062000e7c8282604051806060016040528060278152602001620036b96027913962000e85565b95945050505050565b6060831562000e9657508162000ea2565b62000ea2838362000ea9565b9392505050565b81511562000eba5781518083602001fd5b8060405162461bcd60e51b8152600401620001f0919062001362565b612301806200139883390190565b80356001600160a01b038116811462000efc57600080fd5b919050565b60006020828403121562000f1457600080fd5b62000ea28262000ee4565b634e487b7160e01b600052604160045260246000fd5b604051601f8201601f1916810167ffffffffffffffff8111828210171562000f615762000f6162000f1f565b604052919050565b6000806040838503121562000f7d57600080fd5b62000f888362000ee4565b915060208084013567ffffffffffffffff8082111562000fa757600080fd5b818601915086601f83011262000fbc57600080fd5b81358181111562000fd15762000fd162000f1f565b62000fe5601f8201601f1916850162000f35565b9150808252878482850101111562000ffc57600080fd5b80848401858401376000848284010152508093505050509250929050565b600082601f8301126200102c57600080fd5b8135602067ffffffffffffffff8211156200104b576200104b62000f1f565b8160051b6200105c82820162000f35565b92835284810182019282810190878511156200107757600080fd5b83870192505b84831015620010a157620010918362000ee4565b825291830191908301906200107d565b979650505050505050565b600080600060608486031215620010c257600080fd5b83359250602084013567ffffffffffffffff80821115620010e257600080fd5b620010f0878388016200101a565b935060408601359150808211156200110757600080fd5b5062001116868287016200101a565b9150509250925092565b6020808252602c908201527f46756e6374696f6e206d7573742062652063616c6c6564207468726f7567682060408201526b19195b1959d85d1958d85b1b60a21b606082015260800190565b6020808252602c908201527f46756e6374696f6e206d7573742062652063616c6c6564207468726f7567682060408201526b6163746976652070726f787960a01b606082015260800190565b8051801515811462000efc57600080fd5b600060208284031215620011dc57600080fd5b62000ea282620011b8565b600080600060608486031215620011fd57600080fd5b6200120884620011b8565b92506200121860208501620011b8565b91506200122860408501620011b8565b90509250925092565b600081518084526020808501945080840160005b838110156200126c5781516001600160a01b03168752958201959082019060010162001245565b509495945050505050565b83815260606020820152600062001292606083018562001231565b8281036040840152620012a6818562001231565b9695505050505050565b600060208284031215620012c357600080fd5b5051919050565b6020808252602b908201527f496e697469616c697a61626c653a20636f6e7472616374206973206e6f74206960408201526a6e697469616c697a696e6760a81b606082015260800190565b60005b838110156200133257818101518382015260200162001318565b8381111562000d0b5750506000910152565b600082516200135881846020870162001315565b9190910192915050565b60208152600082518060208401526200138381604085016020870162001315565b601f01601f1916919091016040019291505056fe60806040523480156200001157600080fd5b5060405162002301380380620023018339810160408190526200003491620003fd565b82828262000052600080516020620022818339815191528062000222565b6200007c600080516020620022a18339815191526000805160206200228183398151915262000222565b620000a6600080516020620022c18339815191526000805160206200228183398151915262000222565b620000d0600080516020620022e18339815191526000805160206200228183398151915262000222565b620000eb60008051602062002281833981519152336200026d565b6200010660008051602062002281833981519152306200026d565b60005b82518110156200018c5762000150600080516020620022a18339815191528483815181106200013c576200013c62000471565b60200260200101516200026d60201b60201c565b62000179600080516020620022e18339815191528483815181106200013c576200013c62000471565b620001848162000487565b905062000109565b5060005b8151811015620001d657620001c3600080516020620022c18339815191528383815181106200013c576200013c62000471565b620001ce8162000487565b905062000190565b5060028390556040805160008152602081018590527f11c24f4ead16507c69ac467fbd5e4eed5fb5c699626d2cc6d66421df253886d5910160405180910390a1505050505050620004b1565b600082815260208190526040808220600101805490849055905190918391839186917fbd79b86ffe0ab8e8776151514217cd7cacd52c909f66475c3af44e129f0b00ff9190a4505050565b6200027982826200027d565b5050565b6000828152602081815260408083206001600160a01b038516845290915290205460ff1662000279576000828152602081815260408083206001600160a01b03851684529091529020805460ff19166001179055620002d93390565b6001600160a01b0316816001600160a01b0316837f2f8788117e7eff1d82e926ec794901d17c78024a50270940304540a733656f0d60405160405180910390a45050565b634e487b7160e01b600052604160045260246000fd5b80516001600160a01b03811681146200034b57600080fd5b919050565b600082601f8301126200036257600080fd5b815160206001600160401b03808311156200038157620003816200031d565b8260051b604051601f19603f83011681018181108482111715620003a957620003a96200031d565b604052938452858101830193838101925087851115620003c857600080fd5b83870191505b84821015620003f257620003e28262000333565b83529183019190830190620003ce565b979650505050505050565b6000806000606084860312156200041357600080fd5b835160208501519093506001600160401b03808211156200043357600080fd5b620004418783880162000350565b935060408601519150808211156200045857600080fd5b50620004678682870162000350565b9150509250925092565b634e487b7160e01b600052603260045260246000fd5b6000600019821415620004aa57634e487b7160e01b600052601160045260246000fd5b5060010190565b611dc080620004c16000396000f3fe6080604052600436106101bb5760003560e01c80638065657f116100ec578063bc197c811161008a578063d547741f11610064578063d547741f14610582578063e38335e5146105a2578063f23a6e61146105b5578063f27a0c92146105e157600080fd5b8063bc197c8114610509578063c4d252f514610535578063d45c44351461055557600080fd5b806391d14854116100c657806391d1485414610480578063a217fddf146104a0578063b08e51c0146104b5578063b1c5f427146104e957600080fd5b80638065657f1461040c5780638f2a0bb01461042c5780638f61f4f51461044c57600080fd5b8063248a9ca31161015957806331d507501161013357806331d507501461038c57806336568abe146103ac578063584b153e146103cc57806364d62353146103ec57600080fd5b8063248a9ca31461030b5780632ab0f5291461033b5780632f2ff15d1461036c57600080fd5b80630d3cf6fc116101955780630d3cf6fc14610260578063134008d31461029457806313bc9f20146102a7578063150b7a02146102c757600080fd5b806301d5062a146101c757806301ffc9a7146101e957806307bd02651461021e57600080fd5b366101c257005b600080fd5b3480156101d357600080fd5b506101e76101e23660046113b9565b6105f6565b005b3480156101f557600080fd5b5061020961020436600461142d565b61068b565b60405190151581526020015b60405180910390f35b34801561022a57600080fd5b506102527fd8aa0f3194971a2a116679f7c2090f6939c8d4e01a2a8d7e41d55e5351469e6381565b604051908152602001610215565b34801561026c57600080fd5b506102527f5f58e3a2316349923ce3780f8d587db2d72378aed66a8261c916544fa6846ca581565b6101e76102a2366004611457565b6106b6565b3480156102b357600080fd5b506102096102c23660046114c2565b61076b565b3480156102d357600080fd5b506102f26102e2366004611590565b630a85bd0160e11b949350505050565b6040516001600160e01b03199091168152602001610215565b34801561031757600080fd5b506102526103263660046114c2565b60009081526020819052604090206001015490565b34801561034757600080fd5b506102096103563660046114c2565b6000908152600160208190526040909120541490565b34801561037857600080fd5b506101e76103873660046115f7565b610791565b34801561039857600080fd5b506102096103a73660046114c2565b6107bb565b3480156103b857600080fd5b506101e76103c73660046115f7565b6107d4565b3480156103d857600080fd5b506102096103e73660046114c2565b610857565b3480156103f857600080fd5b506101e76104073660046114c2565b61086d565b34801561041857600080fd5b50610252610427366004611457565b610911565b34801561043857600080fd5b506101e7610447366004611667565b610950565b34801561045857600080fd5b506102527fb09aa5aeb3702cfd50b6b62bc4532604938f21248a27a1d5ca736082b6819cc181565b34801561048c57600080fd5b5061020961049b3660046115f7565b610aa2565b3480156104ac57600080fd5b50610252600081565b3480156104c157600080fd5b506102527ffd643c72710c63c0180259aba6b2d05451e3591a24e58b62239378085726f78381565b3480156104f557600080fd5b50610252610504366004611718565b610acb565b34801561051557600080fd5b506102f261052436600461183f565b63bc197c8160e01b95945050505050565b34801561054157600080fd5b506101e76105503660046114c2565b610b10565b34801561056157600080fd5b506102526105703660046114c2565b60009081526001602052604090205490565b34801561058e57600080fd5b506101e761059d3660046115f7565b610be5565b6101e76105b0366004611718565b610c0a565b3480156105c157600080fd5b506102f26105d03660046118e8565b63f23a6e6160e01b95945050505050565b3480156105ed57600080fd5b50600254610252565b7fb09aa5aeb3702cfd50b6b62bc4532604938f21248a27a1d5ca736082b6819cc161062081610d94565b6000610630898989898989610911565b905061063c8184610da1565b6000817f4cf4410cc57040e44862ef0f45f3dd5a5e02db8eb8add648d4b0e236f1d07dca8b8b8b8b8b8a60405161067896959493929190611975565b60405180910390a3505050505050505050565b60006001600160e01b03198216630271189760e51b14806106b057506106b082610e90565b92915050565b7fd8aa0f3194971a2a116679f7c2090f6939c8d4e01a2a8d7e41d55e5351469e636106e2816000610aa2565b6106f0576106f08133610ec5565b6000610700888888888888610911565b905061070c8185610f29565b61071888888888610fc5565b6000817fc2617efa69bab66782fa219543714338489c4e9e178271560a91b82c3f612b588a8a8a8a60405161075094939291906119b2565b60405180910390a361076181611098565b5050505050505050565b60008181526001602052604081205460018111801561078a5750428111155b9392505050565b6000828152602081905260409020600101546107ac81610d94565b6107b683836110d1565b505050565b60008181526001602052604081205481905b1192915050565b6001600160a01b03811633146108495760405162461bcd60e51b815260206004820152602f60248201527f416363657373436f6e74726f6c3a2063616e206f6e6c792072656e6f756e636560448201526e103937b632b9903337b91039b2b63360891b60648201526084015b60405180910390fd5b6108538282611155565b5050565b60008181526001602081905260408220546107cd565b3330146108d05760405162461bcd60e51b815260206004820152602b60248201527f54696d656c6f636b436f6e74726f6c6c65723a2063616c6c6572206d7573742060448201526a62652074696d656c6f636b60a81b6064820152608401610840565b60025460408051918252602082018390527f11c24f4ead16507c69ac467fbd5e4eed5fb5c699626d2cc6d66421df253886d5910160405180910390a1600255565b600086868686868660405160200161092e96959493929190611975565b6040516020818303038152906040528051906020012090509695505050505050565b7fb09aa5aeb3702cfd50b6b62bc4532604938f21248a27a1d5ca736082b6819cc161097a81610d94565b8887146109995760405162461bcd60e51b8152600401610840906119e4565b8885146109b85760405162461bcd60e51b8152600401610840906119e4565b60006109ca8b8b8b8b8b8b8b8b610acb565b90506109d68184610da1565b60005b8a811015610a945780827f4cf4410cc57040e44862ef0f45f3dd5a5e02db8eb8add648d4b0e236f1d07dca8e8e85818110610a1657610a16611a27565b9050602002016020810190610a2b9190611a3d565b8d8d86818110610a3d57610a3d611a27565b905060200201358c8c87818110610a5657610a56611a27565b9050602002810190610a689190611a58565b8c8b604051610a7c96959493929190611975565b60405180910390a3610a8d81611ab4565b90506109d9565b505050505050505050505050565b6000918252602082815260408084206001600160a01b0393909316845291905290205460ff1690565b60008888888888888888604051602001610aec989796959493929190611b5f565b60405160208183030381529060405280519060200120905098975050505050505050565b7ffd643c72710c63c0180259aba6b2d05451e3591a24e58b62239378085726f783610b3a81610d94565b610b4382610857565b610ba95760405162461bcd60e51b815260206004820152603160248201527f54696d656c6f636b436f6e74726f6c6c65723a206f7065726174696f6e2063616044820152701b9b9bdd0818994818d85b98d95b1b1959607a1b6064820152608401610840565b6000828152600160205260408082208290555183917fbaa1eb22f2a492ba1a5fea61b8df4d27c6c8b5f3971e63bb58fa14ff72eedb7091a25050565b600082815260208190526040902060010154610c0081610d94565b6107b68383611155565b7fd8aa0f3194971a2a116679f7c2090f6939c8d4e01a2a8d7e41d55e5351469e63610c36816000610aa2565b610c4457610c448133610ec5565b878614610c635760405162461bcd60e51b8152600401610840906119e4565b878414610c825760405162461bcd60e51b8152600401610840906119e4565b6000610c948a8a8a8a8a8a8a8a610acb565b9050610ca08185610f29565b60005b89811015610d7e5760008b8b83818110610cbf57610cbf611a27565b9050602002016020810190610cd49190611a3d565b905060008a8a84818110610cea57610cea611a27565b9050602002013590503660008a8a86818110610d0857610d08611a27565b9050602002810190610d1a9190611a58565b91509150610d2a84848484610fc5565b84867fc2617efa69bab66782fa219543714338489c4e9e178271560a91b82c3f612b5886868686604051610d6194939291906119b2565b60405180910390a35050505080610d7790611ab4565b9050610ca3565b50610d8881611098565b50505050505050505050565b610d9e8133610ec5565b50565b610daa826107bb565b15610e0f5760405162461bcd60e51b815260206004820152602f60248201527f54696d656c6f636b436f6e74726f6c6c65723a206f7065726174696f6e20616c60448201526e1c9958591e481cd8da19591d5b1959608a1b6064820152608401610840565b600254811015610e705760405162461bcd60e51b815260206004820152602660248201527f54696d656c6f636b436f6e74726f6c6c65723a20696e73756666696369656e746044820152652064656c617960d01b6064820152608401610840565b610e7a8142611c0a565b6000928352600160205260409092209190915550565b60006001600160e01b03198216637965db0b60e01b14806106b057506301ffc9a760e01b6001600160e01b03198316146106b0565b610ecf8282610aa2565b61085357610ee7816001600160a01b031660146111ba565b610ef28360206111ba565b604051602001610f03929190611c52565b60408051601f198184030181529082905262461bcd60e51b825261084091600401611cc7565b610f328261076b565b610f4e5760405162461bcd60e51b815260040161084090611cfa565b801580610f6a5750600081815260016020819052604090912054145b6108535760405162461bcd60e51b815260206004820152602660248201527f54696d656c6f636b436f6e74726f6c6c65723a206d697373696e6720646570656044820152656e64656e637960d01b6064820152608401610840565b6000846001600160a01b0316848484604051610fe2929190611d44565b60006040518083038185875af1925050503d806000811461101f576040519150601f19603f3d011682016040523d82523d6000602084013e611024565b606091505b50509050806110915760405162461bcd60e51b815260206004820152603360248201527f54696d656c6f636b436f6e74726f6c6c65723a20756e6465726c79696e6720746044820152721c985b9cd858dd1a5bdb881c995d995c9d1959606a1b6064820152608401610840565b5050505050565b6110a18161076b565b6110bd5760405162461bcd60e51b815260040161084090611cfa565b600090815260016020819052604090912055565b6110db8282610aa2565b610853576000828152602081815260408083206001600160a01b03851684529091529020805460ff191660011790556111113390565b6001600160a01b0316816001600160a01b0316837f2f8788117e7eff1d82e926ec794901d17c78024a50270940304540a733656f0d60405160405180910390a45050565b61115f8282610aa2565b15610853576000828152602081815260408083206001600160a01b0385168085529252808320805460ff1916905551339285917ff6391f5c32d9c69d2a47ea670b442974b53935d1edc7fd64eb21e047a839171b9190a45050565b606060006111c9836002611d54565b6111d4906002611c0a565b6001600160401b038111156111eb576111eb6114db565b6040519080825280601f01601f191660200182016040528015611215576020820181803683370190505b509050600360fc1b8160008151811061123057611230611a27565b60200101906001600160f81b031916908160001a905350600f60fb1b8160018151811061125f5761125f611a27565b60200101906001600160f81b031916908160001a9053506000611283846002611d54565b61128e906001611c0a565b90505b6001811115611306576f181899199a1a9b1b9c1cb0b131b232b360811b85600f16601081106112c2576112c2611a27565b1a60f81b8282815181106112d8576112d8611a27565b60200101906001600160f81b031916908160001a90535060049490941c936112ff81611d73565b9050611291565b50831561078a5760405162461bcd60e51b815260206004820181905260248201527f537472696e67733a20686578206c656e67746820696e73756666696369656e746044820152606401610840565b80356001600160a01b038116811461136c57600080fd5b919050565b60008083601f84011261138357600080fd5b5081356001600160401b0381111561139a57600080fd5b6020830191508360208285010111156113b257600080fd5b9250929050565b600080600080600080600060c0888a0312156113d457600080fd5b6113dd88611355565b96506020880135955060408801356001600160401b038111156113ff57600080fd5b61140b8a828b01611371565b989b979a50986060810135976080820135975060a09091013595509350505050565b60006020828403121561143f57600080fd5b81356001600160e01b03198116811461078a57600080fd5b60008060008060008060a0878903121561147057600080fd5b61147987611355565b95506020870135945060408701356001600160401b0381111561149b57600080fd5b6114a789828a01611371565b979a9699509760608101359660809091013595509350505050565b6000602082840312156114d457600080fd5b5035919050565b634e487b7160e01b600052604160045260246000fd5b604051601f8201601f191681016001600160401b0381118282101715611519576115196114db565b604052919050565b600082601f83011261153257600080fd5b81356001600160401b0381111561154b5761154b6114db565b61155e601f8201601f19166020016114f1565b81815284602083860101111561157357600080fd5b816020850160208301376000918101602001919091529392505050565b600080600080608085870312156115a657600080fd5b6115af85611355565b93506115bd60208601611355565b92506040850135915060608501356001600160401b038111156115df57600080fd5b6115eb87828801611521565b91505092959194509250565b6000806040838503121561160a57600080fd5b8235915061161a60208401611355565b90509250929050565b60008083601f84011261163557600080fd5b5081356001600160401b0381111561164c57600080fd5b6020830191508360208260051b85010111156113b257600080fd5b600080600080600080600080600060c08a8c03121561168557600080fd5b89356001600160401b038082111561169c57600080fd5b6116a88d838e01611623565b909b50995060208c01359150808211156116c157600080fd5b6116cd8d838e01611623565b909950975060408c01359150808211156116e657600080fd5b506116f38c828d01611623565b9a9d999c50979a969997986060880135976080810135975060a0013595509350505050565b60008060008060008060008060a0898b03121561173457600080fd5b88356001600160401b038082111561174b57600080fd5b6117578c838d01611623565b909a50985060208b013591508082111561177057600080fd5b61177c8c838d01611623565b909850965060408b013591508082111561179557600080fd5b506117a28b828c01611623565b999c989b509699959896976060870135966080013595509350505050565b600082601f8301126117d157600080fd5b813560206001600160401b038211156117ec576117ec6114db565b8160051b6117fb8282016114f1565b928352848101820192828101908785111561181557600080fd5b83870192505b848310156118345782358252918301919083019061181b565b979650505050505050565b600080600080600060a0868803121561185757600080fd5b61186086611355565b945061186e60208701611355565b935060408601356001600160401b038082111561188a57600080fd5b61189689838a016117c0565b945060608801359150808211156118ac57600080fd5b6118b889838a016117c0565b935060808801359150808211156118ce57600080fd5b506118db88828901611521565b9150509295509295909350565b600080600080600060a0868803121561190057600080fd5b61190986611355565b945061191760208701611355565b9350604086013592506060860135915060808601356001600160401b0381111561194057600080fd5b6118db88828901611521565b81835281816020850137506000828201602090810191909152601f909101601f19169091010190565b60018060a01b038716815285602082015260a06040820152600061199d60a08301868861194c565b60608301949094525060800152949350505050565b60018060a01b03851681528360208201526060604082015260006119da60608301848661194c565b9695505050505050565b60208082526023908201527f54696d656c6f636b436f6e74726f6c6c65723a206c656e677468206d69736d616040820152620e8c6d60eb1b606082015260800190565b634e487b7160e01b600052603260045260246000fd5b600060208284031215611a4f57600080fd5b61078a82611355565b6000808335601e19843603018112611a6f57600080fd5b8301803591506001600160401b03821115611a8957600080fd5b6020019150368190038213156113b257600080fd5b634e487b7160e01b600052601160045260246000fd5b6000600019821415611ac857611ac8611a9e565b5060010190565b81835260006020808501808196508560051b810191508460005b87811015611b525782840389528135601e19883603018112611b0a57600080fd5b870180356001600160401b03811115611b2257600080fd5b803603891315611b3157600080fd5b611b3e868289850161194c565b9a87019a9550505090840190600101611ae9565b5091979650505050505050565b60a0808252810188905260008960c08301825b8b811015611ba0576001600160a01b03611b8b84611355565b16825260209283019290910190600101611b72565b5083810360208501528881526001600160fb1b03891115611bc057600080fd5b8860051b9150818a602083013781810191505060208101600081526020848303016040850152611bf181888a611acf565b6060850196909652505050608001529695505050505050565b60008219821115611c1d57611c1d611a9e565b500190565b60005b83811015611c3d578181015183820152602001611c25565b83811115611c4c576000848401525b50505050565b7f416363657373436f6e74726f6c3a206163636f756e7420000000000000000000815260008351611c8a816017850160208801611c22565b7001034b99036b4b9b9b4b733903937b6329607d1b6017918401918201528351611cbb816028840160208801611c22565b01602801949350505050565b6020815260008251806020840152611ce6816040850160208701611c22565b601f01601f19169190910160400192915050565b6020808252602a908201527f54696d656c6f636b436f6e74726f6c6c65723a206f7065726174696f6e206973604082015269206e6f7420726561647960b01b606082015260800190565b8183823760009101908152919050565b6000816000190483118215151615611d6e57611d6e611a9e565b500290565b600081611d8257611d82611a9e565b50600019019056fea26469706673582212205eee72f3467b3e875257510661d234f0c0cad383ea8f538e1424201c2dd5a5b564736f6c634300080c00335f58e3a2316349923ce3780f8d587db2d72378aed66a8261c916544fa6846ca5b09aa5aeb3702cfd50b6b62bc4532604938f21248a27a1d5ca736082b6819cc1d8aa0f3194971a2a116679f7c2090f6939c8d4e01a2a8d7e41d55e5351469e63fd643c72710c63c0180259aba6b2d05451e3591a24e58b62239378085726f783360894a13ba1a3210667c828492db98dca3e2076cc3735a920a3ca505d382bbc416464726573733a206c6f772d6c6576656c2064656c65676174652063616c6c206661696c6564a26469706673582212208ce99766834ddda7f6099d73ad59fce7b9385b25bc98638a7be4defa8bf5470264736f6c634300080c0033",
  "linkReferences": {},
  "deployedLinkReferences": {}
}