{
  "_format": "hh-sol-artifact-1",
  "contractName": "FungibleToken",
  "sourceName": "src/backend/contracts/_FungibleToken.sol",
  "abi": [
    {
      "inputs": [
        {
          "internalType": "address",
          "name": "_mainContract",
          "type": "address"
        },
        {
          "internalType": "string",
          "name": "_name",
          "type": "string"
        },
        {
          "internalType": "string",
          "name": "_symbol",
          "type": "string"
        },
        {
          "internalType": "address",
          "name": "_owner",
          "type": "address"
        },
        {
          "internalType": "uint256",
          "name": "_supply",
          "type": "uint256"
        },
        {
          "internalType": "contract IWorldID",
          "name": "_worldId",
          "type": "address"
        }
      ],
      "stateMutability": "nonpayable",
      "type": "constructor"
    },
    {
      "inputs": [],
      "name": "InvalidNullifier",
      "type": "error"
    },
    {
      "anonymous": false,
      "inputs": [
        {
          "indexed": true,
          "internalType": "address",
          "name": "owner",
          "type": "address"
        },
        {
          "indexed": true,
          "internalType": "address",
          "name": "spender",
          "type": "address"
        },
        {
          "indexed": false,
          "internalType": "uint256",
          "name": "value",
          "type": "uint256"
        }
      ],
      "name": "Approval",
      "type": "event"
    },
    {
      "anonymous": false,
      "inputs": [
        {
          "indexed": true,
          "internalType": "uint256",
          "name": "_communityId",
          "type": "uint256"
        },
        {
          "indexed": true,
          "internalType": "uint256",
          "name": "_campaignId",
          "type": "uint256"
        },
        {
          "indexed": true,
          "internalType": "uint256",
          "name": "_campaignType",
          "type": "uint256"
        },
        {
          "indexed": false,
          "internalType": "address",
          "name": "_address",
          "type": "address"
        },
        {
          "indexed": false,
          "internalType": "uint256",
          "name": "_deposit",
          "type": "uint256"
        },
        {
          "indexed": false,
          "internalType": "string",
          "name": "_email",
          "type": "string"
        },
        {
          "indexed": false,
          "internalType": "uint256",
          "name": "_dateTime",
          "type": "uint256"
        }
      ],
      "name": "CampaignAction",
      "type": "event"
    },
    {
      "anonymous": false,
      "inputs": [
        {
          "indexed": true,
          "internalType": "address",
          "name": "previousOwner",
          "type": "address"
        },
        {
          "indexed": true,
          "internalType": "address",
          "name": "newOwner",
          "type": "address"
        }
      ],
      "name": "OwnershipTransferred",
      "type": "event"
    },
    {
      "anonymous": false,
      "inputs": [
        {
          "indexed": false,
          "internalType": "address",
          "name": "account",
          "type": "address"
        }
      ],
      "name": "Paused",
      "type": "event"
    },
    {
      "anonymous": false,
      "inputs": [
        {
          "indexed": true,
          "internalType": "address",
          "name": "from",
          "type": "address"
        },
        {
          "indexed": true,
          "internalType": "address",
          "name": "to",
          "type": "address"
        },
        {
          "indexed": false,
          "internalType": "uint256",
          "name": "value",
          "type": "uint256"
        }
      ],
      "name": "Transfer",
      "type": "event"
    },
    {
      "anonymous": false,
      "inputs": [
        {
          "indexed": false,
          "internalType": "address",
          "name": "account",
          "type": "address"
        }
      ],
      "name": "Unpaused",
      "type": "event"
    },
    {
      "inputs": [
        {
          "internalType": "address",
          "name": "owner",
          "type": "address"
        },
        {
          "internalType": "address",
          "name": "spender",
          "type": "address"
        }
      ],
      "name": "allowance",
      "outputs": [
        {
          "internalType": "uint256",
          "name": "",
          "type": "uint256"
        }
      ],
      "stateMutability": "view",
      "type": "function"
    },
    {
      "inputs": [
        {
          "internalType": "address",
          "name": "spender",
          "type": "address"
        },
        {
          "internalType": "uint256",
          "name": "amount",
          "type": "uint256"
        }
      ],
      "name": "approve",
      "outputs": [
        {
          "internalType": "bool",
          "name": "",
          "type": "bool"
        }
      ],
      "stateMutability": "nonpayable",
      "type": "function"
    },
    {
      "inputs": [
        {
          "internalType": "address",
          "name": "account",
          "type": "address"
        }
      ],
      "name": "balanceOf",
      "outputs": [
        {
          "internalType": "uint256",
          "name": "",
          "type": "uint256"
        }
      ],
      "stateMutability": "view",
      "type": "function"
    },
    {
      "inputs": [],
      "name": "campaignLastId",
      "outputs": [
        {
          "internalType": "uint256",
          "name": "",
          "type": "uint256"
        }
      ],
      "stateMutability": "view",
      "type": "function"
    },
    {
      "inputs": [
        {
          "internalType": "uint256",
          "name": "",
          "type": "uint256"
        }
      ],
      "name": "campaignsList",
      "outputs": [
        {
          "internalType": "uint256",
          "name": "",
          "type": "uint256"
        }
      ],
      "stateMutability": "view",
      "type": "function"
    },
    {
      "inputs": [
        {
          "internalType": "uint256",
          "name": "_campaignId",
          "type": "uint256"
        }
      ],
      "name": "cancelDistributionCampaign",
      "outputs": [],
      "stateMutability": "nonpayable",
      "type": "function"
    },
    {
      "inputs": [
        {
          "internalType": "uint256",
          "name": "_communityId",
          "type": "uint256"
        },
        {
          "internalType": "uint256",
          "name": "_campaignId",
          "type": "uint256"
        },
        {
          "internalType": "uint256",
          "name": "_eventCode",
          "type": "uint256"
        },
        {
          "internalType": "string",
          "name": "_email",
          "type": "string"
        },
        {
          "internalType": "uint256",
          "name": "root",
          "type": "uint256"
        },
        {
          "internalType": "uint256",
          "name": "nullifierHash",
          "type": "uint256"
        },
        {
          "internalType": "uint256[8]",
          "name": "proof",
          "type": "uint256[8]"
        }
      ],
      "name": "claimFromCampaign",
      "outputs": [],
      "stateMutability": "payable",
      "type": "function"
    },
    {
      "inputs": [
        {
          "internalType": "enum FungibleToken.DistributionType",
          "name": "_distType",
          "type": "uint8"
        },
        {
          "internalType": "uint256",
          "name": "_dateStart",
          "type": "uint256"
        },
        {
          "internalType": "uint256",
          "name": "_dateEnd",
          "type": "uint256"
        },
        {
          "internalType": "address[]",
          "name": "_whitelist",
          "type": "address[]"
        },
        {
          "internalType": "string",
          "name": "_worldcoinAction",
          "type": "string"
        },
        {
          "internalType": "uint256",
          "name": "_tokensTotal",
          "type": "uint256"
        },
        {
          "internalType": "uint256",
          "name": "_tokensPerUser",
          "type": "uint256"
        }
      ],
      "name": "createDistributionCampaign",
      "outputs": [],
      "stateMutability": "payable",
      "type": "function"
    },
    {
      "inputs": [],
      "name": "decimals",
      "outputs": [
        {
          "internalType": "uint8",
          "name": "",
          "type": "uint8"
        }
      ],
      "stateMutability": "view",
      "type": "function"
    },
    {
      "inputs": [
        {
          "internalType": "address",
          "name": "spender",
          "type": "address"
        },
        {
          "internalType": "uint256",
          "name": "subtractedValue",
          "type": "uint256"
        }
      ],
      "name": "decreaseAllowance",
      "outputs": [
        {
          "internalType": "bool",
          "name": "",
          "type": "bool"
        }
      ],
      "stateMutability": "nonpayable",
      "type": "function"
    },
    {
      "inputs": [],
      "name": "getCampaigns",
      "outputs": [
        {
          "components": [
            {
              "internalType": "uint256",
              "name": "id",
              "type": "uint256"
            },
            {
              "internalType": "uint256",
              "name": "tokensTotal",
              "type": "uint256"
            },
            {
              "internalType": "uint256",
              "name": "tokensMinted",
              "type": "uint256"
            },
            {
              "internalType": "uint256",
              "name": "tokensPerUser",
              "type": "uint256"
            },
            {
              "internalType": "uint256",
              "name": "dateStart",
              "type": "uint256"
            },
            {
              "internalType": "uint256",
              "name": "dateEnd",
              "type": "uint256"
            },
            {
              "internalType": "uint256",
              "name": "eventCode",
              "type": "uint256"
            },
            {
              "internalType": "enum FungibleToken.DistributionType",
              "name": "distType",
              "type": "uint8"
            },
            {
              "internalType": "address[]",
              "name": "whitelist",
              "type": "address[]"
            },
            {
              "internalType": "string",
              "name": "worldcoinAction",
              "type": "string"
            }
          ],
          "internalType": "struct FungibleToken.DistributionCampaign[]",
          "name": "",
          "type": "tuple[]"
        }
      ],
      "stateMutability": "view",
      "type": "function"
    },
    {
      "inputs": [
        {
          "internalType": "address",
          "name": "spender",
          "type": "address"
        },
        {
          "internalType": "uint256",
          "name": "addedValue",
          "type": "uint256"
        }
      ],
      "name": "increaseAllowance",
      "outputs": [
        {
          "internalType": "bool",
          "name": "",
          "type": "bool"
        }
      ],
      "stateMutability": "nonpayable",
      "type": "function"
    },
    {
      "inputs": [
        {
          "internalType": "uint256",
          "name": "",
          "type": "uint256"
        },
        {
          "internalType": "address",
          "name": "",
          "type": "address"
        }
      ],
      "name": "mintedList",
      "outputs": [
        {
          "internalType": "bool",
          "name": "",
          "type": "bool"
        }
      ],
      "stateMutability": "view",
      "type": "function"
    },
    {
      "inputs": [],
      "name": "name",
      "outputs": [
        {
          "internalType": "string",
          "name": "",
          "type": "string"
        }
      ],
      "stateMutability": "view",
      "type": "function"
    },
    {
      "inputs": [],
      "name": "owner",
      "outputs": [
        {
          "internalType": "address",
          "name": "",
          "type": "address"
        }
      ],
      "stateMutability": "view",
      "type": "function"
    },
    {
      "inputs": [],
      "name": "pause",
      "outputs": [],
      "stateMutability": "nonpayable",
      "type": "function"
    },
    {
      "inputs": [],
      "name": "paused",
      "outputs": [
        {
          "internalType": "bool",
          "name": "",
          "type": "bool"
        }
      ],
      "stateMutability": "view",
      "type": "function"
    },
    {
      "inputs": [],
      "name": "renounceOwnership",
      "outputs": [],
      "stateMutability": "nonpayable",
      "type": "function"
    },
    {
      "inputs": [
        {
          "internalType": "address[]",
          "name": "_whitelisted",
          "type": "address[]"
        },
        {
          "internalType": "uint256",
          "name": "_tokensAmount",
          "type": "uint256"
        }
      ],
      "name": "sendTokenAirdrop",
      "outputs": [],
      "stateMutability": "payable",
      "type": "function"
    },
    {
      "inputs": [],
      "name": "symbol",
      "outputs": [
        {
          "internalType": "string",
          "name": "",
          "type": "string"
        }
      ],
      "stateMutability": "view",
      "type": "function"
    },
    {
      "inputs": [],
      "name": "totalSupply",
      "outputs": [
        {
          "internalType": "uint256",
          "name": "",
          "type": "uint256"
        }
      ],
      "stateMutability": "view",
      "type": "function"
    },
    {
      "inputs": [
        {
          "internalType": "address",
          "name": "to",
          "type": "address"
        },
        {
          "internalType": "uint256",
          "name": "amount",
          "type": "uint256"
        }
      ],
      "name": "transfer",
      "outputs": [
        {
          "internalType": "bool",
          "name": "",
          "type": "bool"
        }
      ],
      "stateMutability": "nonpayable",
      "type": "function"
    },
    {
      "inputs": [
        {
          "internalType": "address",
          "name": "from",
          "type": "address"
        },
        {
          "internalType": "address",
          "name": "to",
          "type": "address"
        },
        {
          "internalType": "uint256",
          "name": "amount",
          "type": "uint256"
        }
      ],
      "name": "transferFrom",
      "outputs": [
        {
          "internalType": "bool",
          "name": "",
          "type": "bool"
        }
      ],
      "stateMutability": "nonpayable",
      "type": "function"
    },
    {
      "inputs": [
        {
          "internalType": "address",
          "name": "newOwner",
          "type": "address"
        }
      ],
      "name": "transferOwnership",
      "outputs": [],
      "stateMutability": "nonpayable",
      "type": "function"
    },
    {
      "inputs": [],
      "name": "unpause",
      "outputs": [],
      "stateMutability": "nonpayable",
      "type": "function"
    }
  ],
  "bytecode": "0x60a060405260016080523480156200001657600080fd5b50604051620029973803806200299783398101604081905262000039916200051d565b8451859085906200005290600390602085019062000394565b5080516200006890600490602084019062000394565b50506005805460ff19169055506200008033620000f1565b600680546001600160a01b0319166001600160a01b038816179055620000ba83620000b484670de0b6b3a7640000620005e7565b6200014b565b620000c58362000242565b600a80546001600160a01b0319166001600160a01b039290921691909117905550620006619350505050565b600580546001600160a01b03838116610100818102610100600160a81b031985161790945560405193909204169182907f8be0079c531659141344cd1fd0a4f28419497f9722a3daafe3b4186f6b6457e090600090a35050565b6001600160a01b038216620001a75760405162461bcd60e51b815260206004820152601f60248201527f45524332303a206d696e7420746f20746865207a65726f20616464726573730060448201526064015b60405180910390fd5b620001b560008383620002c1565b8060026000828254620001c9919062000609565b90915550506001600160a01b03821660009081526020819052604081208054839290620001f890849062000609565b90915550506040518181526001600160a01b038316906000907fddf252ad1be2c89b69c2b068fc378daa952ba7f163c4a11628f55a4df523b3ef9060200160405180910390a35050565b6200024c620002e8565b6001600160a01b038116620002b35760405162461bcd60e51b815260206004820152602660248201527f4f776e61626c653a206e6577206f776e657220697320746865207a65726f206160448201526564647265737360d01b60648201526084016200019e565b620002be81620000f1565b50565b620002cb6200034c565b620002e3838383620002e360201b62000b061760201c565b505050565b6005546001600160a01b036101009091041633146200034a5760405162461bcd60e51b815260206004820181905260248201527f4f776e61626c653a2063616c6c6572206973206e6f7420746865206f776e657260448201526064016200019e565b565b60055460ff16156200034a5760405162461bcd60e51b815260206004820152601060248201526f14185d5cd8589b194e881c185d5cd95960821b60448201526064016200019e565b828054620003a29062000624565b90600052602060002090601f016020900481019282620003c6576000855562000411565b82601f10620003e157805160ff191683800117855562000411565b8280016001018555821562000411579182015b8281111562000411578251825591602001919060010190620003f4565b506200041f92915062000423565b5090565b5b808211156200041f576000815560010162000424565b6001600160a01b0381168114620002be57600080fd5b634e487b7160e01b600052604160045260246000fd5b600082601f8301126200047857600080fd5b81516001600160401b038082111562000495576200049562000450565b604051601f8301601f19908116603f01168101908282118183101715620004c057620004c062000450565b81604052838152602092508683858801011115620004dd57600080fd5b600091505b83821015620005015785820183015181830184015290820190620004e2565b83821115620005135760008385830101525b9695505050505050565b60008060008060008060c087890312156200053757600080fd5b865162000544816200043a565b60208801519096506001600160401b03808211156200056257600080fd5b620005708a838b0162000466565b965060408901519150808211156200058757600080fd5b506200059689828a0162000466565b9450506060870151620005a9816200043a565b608088015160a08901519194509250620005c3816200043a565b809150509295509295509295565b634e487b7160e01b600052601160045260246000fd5b6000816000190483118215151615620006045762000604620005d1565b500290565b600082198211156200061f576200061f620005d1565b500190565b600181811c908216806200063957607f821691505b602082108114156200065b57634e487b7160e01b600052602260045260246000fd5b50919050565b60805161231a6200067d6000396000611163015261231a6000f3fe6080604052600436106101665760003560e01c806370a08231116100d1578063a457c2d71161008a578063c3d4450611610064578063c3d4450614610414578063dd62ed3e14610434578063edfd1a7b14610454578063f2fde38b1461046757600080fd5b8063a457c2d7146103b2578063a6b03633146103d2578063a9059cbb146103f457600080fd5b806370a08231146102cc578063715018a6146103025780638456cb591461031757806385c9d3211461032c5780638da5cb5b1461036757806395d89b411461039d57600080fd5b8063381da48811610123578063381da4881461023657806339509351146102565780633a1c50fd146102765780633f4ba83a146102895780635c975abb1461029e57806369b0aafa146102b657600080fd5b806306fdde031461016b578063095ea7b31461019657806314005050146101c657806318160ddd146101db57806323b872dd146101fa578063313ce5671461021a575b600080fd5b34801561017757600080fd5b50610180610487565b60405161018d9190611c04565b60405180910390f35b3480156101a257600080fd5b506101b66101b1366004611c33565b610519565b604051901515815260200161018d565b6101d96101d4366004611d9b565b610531565b005b3480156101e757600080fd5b506002545b60405190815260200161018d565b34801561020657600080fd5b506101b6610215366004611e3c565b6107a3565b34801561022657600080fd5b506040516012815260200161018d565b34801561024257600080fd5b506101d9610251366004611e78565b6107c7565b34801561026257600080fd5b506101b6610271366004611c33565b610b0b565b6101d9610284366004611e91565b610b2d565b34801561029557600080fd5b506101d9610c9f565b3480156102aa57600080fd5b5060055460ff166101b6565b3480156102c257600080fd5b506101ec60075481565b3480156102d857600080fd5b506101ec6102e7366004611ed6565b6001600160a01b031660009081526020819052604090205490565b34801561030e57600080fd5b506101d9610cb1565b34801561032357600080fd5b506101d9610cc3565b34801561033857600080fd5b506101b6610347366004611ef1565b600c60209081526000928352604080842090915290825290205460ff1681565b34801561037357600080fd5b5060055461010090046001600160a01b03166040516001600160a01b03909116815260200161018d565b3480156103a957600080fd5b50610180610cd3565b3480156103be57600080fd5b506101b66103cd366004611c33565b610ce2565b3480156103de57600080fd5b506103e7610d5d565b60405161018d9190611f99565b34801561040057600080fd5b506101b661040f366004611c33565b610faa565b34801561042057600080fd5b506101ec61042f366004611e78565b610fb8565b34801561044057600080fd5b506101ec61044f366004612081565b610fd9565b6101d96104623660046120ab565b611004565b34801561047357600080fd5b506101d9610482366004611ed6565b611394565b60606003805461049690612133565b80601f01602080910402602001604051908101604052809291908181526020018280546104c290612133565b801561050f5780601f106104e45761010080835404028352916020019161050f565b820191906000526020600020905b8154815290600101906020018083116104f257829003601f168201915b5050505050905090565b60003361052781858561140d565b5060019392505050565b610539611531565b8486111561058e5760405162461bcd60e51b815260206004820152601960248201527f57726f6e672063616d706169676e20646174652072616e67650000000000000060448201526064015b60405180910390fd5b600060048860058111156105a4576105a4611f1d565b14156105bb576105b8620f423f6001611591565b90505b6040516323b872dd60e01b8152336004820152306024820181905260448201859052906323b872dd906064016020604051808303816000875af1158015610606573d6000803e3d6000fd5b505050506040513d601f19601f8201168201806040525081019061062a9190612168565b5060016007600082825461063e91906121a0565b90915550506007546008805460018101825560009182527ff3f7a9fe364faab93b216da50a3214154f22a0a2b415b23a84c8169e8b636ee301829055604080516101408101825292835260208301869052820152606081018390526080810188905260a0810187905260c0810182905260e081018960058111156106c4576106c4611f1d565b815260200186815260200185815250600960006007548152602001908152602001600020600082015181600001556020820151816001015560408201518160020155606082015181600301556080820151816004015560a0820151816005015560c0820151816006015560e08201518160070160006101000a81548160ff0219169083600581111561075857610758611f1d565b02179055506101008201518051610779916008840191602090910190611a02565b506101208201518051610796916009840191602090910190611a67565b5050505050505050505050565b6000336107b1858285611600565b6107bc858585611674565b506001949350505050565b6107cf611531565b600081815260096020908152604080832081516101408101835281548152600182015493810193909352600281015491830191909152600381015460608301526004810154608083015260058082015460a0840152600682015460c0840152600782015460e084019160ff9091169081111561084d5761084d611f1d565b600581111561085e5761085e611f1d565b8152602001600882018054806020026020016040519081016040528092919081815260200182805480156108bb57602002820191906000526020600020905b81546001600160a01b0316815260019091019060200180831161089d575b505050505081526020016009820180546108d490612133565b80601f016020809104026020016040519081016040528092919081815260200182805461090090612133565b801561094d5780601f106109225761010080835404028352916020019161094d565b820191906000526020600020905b81548152906001019060200180831161093057829003601f168201915b505050505081525050905060008160400151826020015161096e91906121b8565b905060005b600854811015610a30578360088281548110610991576109916121cf565b90600052602060002001541415610a2057600854600110156109f857600880546109bd906001906121b8565b815481106109cd576109cd6121cf565b9060005260206000200154600882815481106109eb576109eb6121cf565b6000918252602090912001555b6008805480610a0957610a096121e5565b600190038181906000526020600020016000905590555b610a29816121fb565b9050610973565b50600083815260096020526040812081815560018101829055600281018290556003810182905560048101829055600581018290556006810182905560078101805460ff1916905590610a866008830182611adb565b610a94600983016000611af9565b50508015610b065760405163a9059cbb60e01b815233600482015260248101829052309063a9059cbb906044016020604051808303816000875af1158015610ae0573d6000803e3d6000fd5b505050506040513d601f19601f82011682018060405250810190610b049190612168565b505b505050565b600033610527818585610b1e8383610fd9565b610b2891906121a0565b61140d565b610b35611531565b60008111610b7b5760405162461bcd60e51b815260206004820152601360248201527215dc9bdb99c81d1bdad95b9cc8185b5bdd5b9d606a1b6044820152606401610585565b6000825111610bcc5760405162461bcd60e51b815260206004820152601760248201527f57726f6e67206c697374206f66206164647265737365730000000000000000006044820152606401610585565b6000825182610bdb919061222c565b905060005b8351811015610b0457306001600160a01b03166323b872dd33868481518110610c0b57610c0b6121cf565b60209081029190910101516040516001600160e01b031960e085901b1681526001600160a01b03928316600482015291166024820152604481018590526064016020604051808303816000875af1158015610c6a573d6000803e3d6000fd5b505050506040513d601f19601f82011682018060405250810190610c8e9190612168565b50610c98816121fb565b9050610be0565b610ca7611531565b610caf61184d565b565b610cb9611531565b610caf600061189f565b610ccb611531565b610caf6118f9565b60606004805461049690612133565b60003381610cf08286610fd9565b905083811015610d505760405162461bcd60e51b815260206004820152602560248201527f45524332303a2064656372656173656420616c6c6f77616e63652062656c6f77604482015264207a65726f60d81b6064820152608401610585565b6107bc828686840361140d565b60085460609060009067ffffffffffffffff811115610d7e57610d7e611c5d565b604051908082528060200260200182016040528015610db757816020015b610da4611b33565b815260200190600190039081610d9c5790505b50905060005b600854811015610fa4576009600060088381548110610dde57610dde6121cf565b9060005260206000200154815260200190815260200160002060405180610140016040529081600082015481526020016001820154815260200160028201548152602001600382015481526020016004820154815260200160058201548152602001600682015481526020016007820160009054906101000a900460ff166005811115610e6d57610e6d611f1d565b6005811115610e7e57610e7e611f1d565b815260200160088201805480602002602001604051908101604052809291908181526020018280548015610edb57602002820191906000526020600020905b81546001600160a01b03168152600190910190602001808311610ebd575b50505050508152602001600982018054610ef490612133565b80601f0160208091040260200160405190810160405280929190818152602001828054610f2090612133565b8015610f6d5780601f10610f4257610100808354040283529160200191610f6d565b820191906000526020600020905b815481529060010190602001808311610f5057829003601f168201915b505050505081525050828281518110610f8857610f886121cf565b602002602001018190525080610f9d906121fb565b9050610dbd565b50919050565b600033610527818585611674565b60088181548110610fc857600080fd5b600091825260209091200154905081565b6001600160a01b03918216600090815260016020908152604080832093909416825291909152205490565b61100c611936565b600086815260096020526040902060018101546003820154600283015461103391906121a0565b11156110815760405162461bcd60e51b815260206004820152601a60248201527f4e6f7420656e6f75676820746f6b656e7320746f20636c61696d0000000000006044820152606401610585565b6000878152600c6020908152604080832033845290915290205460ff16156110eb5760405162461bcd60e51b815260206004820152601860248201527f596f7520616c726561647920636c61696d20746f6b656e7300000000000000006044820152606401610585565b60008160090180546110fc90612133565b9050111561122f576000838152600b602052604090205460ff161561113457604051632ec8265960e11b815260040160405180910390fd5b600a546040516001600160601b03193360601b1660208201526001600160a01b0390911690633bc778e39086907f00000000000000000000000000000000000000000000000000000000000000009061119f906034015b60405160208183030381529060405261197c565b6040516001600160601b03193060601b16602082015288906111c39060340161118b565b886040518763ffffffff1660e01b81526004016111e596959493929190612240565b60006040518083038186803b1580156111fd57600080fd5b505afa158015611211573d6000803e3d6000fd5b5050506000848152600b60205260409020805460ff19166001179055505b6004600782015460ff16600581111561124a5761124a611f1d565b141561129657858160060154146112965760405162461bcd60e51b815260206004820152601060248201526f57726f6e67204576656e7420436f646560801b6044820152606401610585565b80600301548160020160008282546112ae91906121a0565b90915550506000878152600c6020908152604080832033808552925291829020805460ff191660011790556003830154915163a9059cbb60e01b815260048101919091526024810191909152309063a9059cbb906044016020604051808303816000875af1158015611324573d6000803e3d6000fd5b505050506040513d601f19601f820116820180604052508101906113489190612168565b50600287897fe71952c2fd3a7d8c18699fb382ded47b38d198d5ebb29e0f5c2ca644bb5f7eaa33348a42604051611382949392919061227c565b60405180910390a45050505050505050565b61139c611531565b6001600160a01b0381166114015760405162461bcd60e51b815260206004820152602660248201527f4f776e61626c653a206e6577206f776e657220697320746865207a65726f206160448201526564647265737360d01b6064820152608401610585565b61140a8161189f565b50565b6001600160a01b03831661146f5760405162461bcd60e51b8152602060048201526024808201527f45524332303a20617070726f76652066726f6d20746865207a65726f206164646044820152637265737360e01b6064820152608401610585565b6001600160a01b0382166114d05760405162461bcd60e51b815260206004820152602260248201527f45524332303a20617070726f766520746f20746865207a65726f206164647265604482015261737360f01b6064820152608401610585565b6001600160a01b0383811660008181526001602090815260408083209487168084529482529182902085905590518481527f8c5be1e5ebec7d5bd14f71427d1e84f3dd0314c0f7b2291e5b200ac8c7c3b925910160405180910390a3505050565b6005546001600160a01b03610100909104163314610caf5760405162461bcd60e51b815260206004820181905260248201527f4f776e61626c653a2063616c6c6572206973206e6f7420746865206f776e65726044820152606401610585565b6040516001600160f81b031960f883901b1660208201526001600160601b03193360601b1660218201524460358201524260558201526001607582015260009083906095016040516020818303038152906040528051906020012060001c6115f991906122b4565b9392505050565b600061160c8484610fd9565b90506000198114610b0457818110156116675760405162461bcd60e51b815260206004820152601d60248201527f45524332303a20696e73756666696369656e7420616c6c6f77616e63650000006044820152606401610585565b610b04848484840361140d565b6001600160a01b0383166116d85760405162461bcd60e51b815260206004820152602560248201527f45524332303a207472616e736665722066726f6d20746865207a65726f206164604482015264647265737360d81b6064820152608401610585565b6001600160a01b03821661173a5760405162461bcd60e51b815260206004820152602360248201527f45524332303a207472616e7366657220746f20746865207a65726f206164647260448201526265737360e81b6064820152608401610585565b6117458383836119b1565b6001600160a01b038316600090815260208190526040902054818110156117bd5760405162461bcd60e51b815260206004820152602660248201527f45524332303a207472616e7366657220616d6f756e7420657863656564732062604482015265616c616e636560d01b6064820152608401610585565b6001600160a01b038085166000908152602081905260408082208585039055918516815290812080548492906117f49084906121a0565b92505081905550826001600160a01b0316846001600160a01b03167fddf252ad1be2c89b69c2b068fc378daa952ba7f163c4a11628f55a4df523b3ef8460405161184091815260200190565b60405180910390a3610b04565b6118556119b9565b6005805460ff191690557f5db9ee0a495bf2e6ff9c91a7834c1ba4fdd244a5e8aa4e537bd38aeae4b073aa335b6040516001600160a01b03909116815260200160405180910390a1565b600580546001600160a01b03838116610100818102610100600160a81b031985161790945560405193909204169182907f8be0079c531659141344cd1fd0a4f28419497f9722a3daafe3b4186f6b6457e090600090a35050565b611901611936565b6005805460ff191660011790557f62e78cea01bee320cd4e420270b5ea74000d11b0c9f74754ebdbfc544b05a2586118823390565b60055460ff1615610caf5760405162461bcd60e51b815260206004820152601060248201526f14185d5cd8589b194e881c185d5cd95960821b6044820152606401610585565b600060088260405160200161199191906122c8565b60408051601f198184030181529190528051602090910120901c92915050565b610b06611936565b60055460ff16610caf5760405162461bcd60e51b815260206004820152601460248201527314185d5cd8589b194e881b9bdd081c185d5cd95960621b6044820152606401610585565b828054828255906000526020600020908101928215611a57579160200282015b82811115611a5757825182546001600160a01b0319166001600160a01b03909116178255602090920191600190910190611a22565b50611a63929150611b97565b5090565b828054611a7390612133565b90600052602060002090601f016020900481019282611a955760008555611a57565b82601f10611aae57805160ff1916838001178555611a57565b82800160010185558215611a57579182015b82811115611a57578251825591602001919060010190611ac0565b508054600082559060005260206000209081019061140a9190611b97565b508054611b0590612133565b6000825580601f10611b15575050565b601f01602090049060005260206000209081019061140a9190611b97565b6040518061014001604052806000815260200160008152602001600081526020016000815260200160008152602001600081526020016000815260200160006005811115611b8357611b83611f1d565b815260200160608152602001606081525090565b5b80821115611a635760008155600101611b98565b60005b83811015611bc7578181015183820152602001611baf565b83811115610b045750506000910152565b60008151808452611bf0816020860160208601611bac565b601f01601f19169290920160200192915050565b6020815260006115f96020830184611bd8565b80356001600160a01b0381168114611c2e57600080fd5b919050565b60008060408385031215611c4657600080fd5b611c4f83611c17565b946020939093013593505050565b634e487b7160e01b600052604160045260246000fd5b604051601f8201601f1916810167ffffffffffffffff81118282101715611c9c57611c9c611c5d565b604052919050565b600082601f830112611cb557600080fd5b8135602067ffffffffffffffff821115611cd157611cd1611c5d565b8160051b611ce0828201611c73565b9283528481018201928281019087851115611cfa57600080fd5b83870192505b84831015611d2057611d1183611c17565b82529183019190830190611d00565b979650505050505050565b600082601f830112611d3c57600080fd5b813567ffffffffffffffff811115611d5657611d56611c5d565b611d69601f8201601f1916602001611c73565b818152846020838601011115611d7e57600080fd5b816020850160208301376000918101602001919091529392505050565b600080600080600080600060e0888a031215611db657600080fd5b873560068110611dc557600080fd5b96506020880135955060408801359450606088013567ffffffffffffffff80821115611df057600080fd5b611dfc8b838c01611ca4565b955060808a0135915080821115611e1257600080fd5b50611e1f8a828b01611d2b565b93505060a0880135915060c0880135905092959891949750929550565b600080600060608486031215611e5157600080fd5b611e5a84611c17565b9250611e6860208501611c17565b9150604084013590509250925092565b600060208284031215611e8a57600080fd5b5035919050565b60008060408385031215611ea457600080fd5b823567ffffffffffffffff811115611ebb57600080fd5b611ec785828601611ca4565b95602094909401359450505050565b600060208284031215611ee857600080fd5b6115f982611c17565b60008060408385031215611f0457600080fd5b82359150611f1460208401611c17565b90509250929050565b634e487b7160e01b600052602160045260246000fd5b60068110611f5157634e487b7160e01b600052602160045260246000fd5b9052565b600081518084526020808501945080840160005b83811015611f8e5781516001600160a01b031687529582019590820190600101611f69565b509495945050505050565b60006020808301818452808551808352604092508286019150828160051b87010184880160005b8381101561207357888303603f1901855281518051845287810151888501528681015187850152606080820151908501526080808201519085015260a0808201519085015260c0808201519085015260e080820151610140919061202682880182611f33565b505061010080830151828288015261204083880182611f55565b92505050610120808301519250858203818701525061205f8183611bd8565b968901969450505090860190600101611fc0565b509098975050505050505050565b6000806040838503121561209457600080fd5b61209d83611c17565b9150611f1460208401611c17565b60008060008060008060006101c080898b0312156120c857600080fd5b883597506020890135965060408901359550606089013567ffffffffffffffff8111156120f457600080fd5b6121008b828c01611d2b565b9550506080890135935060a0890135925089818a01111561212057600080fd5b5060c08801905092959891949750929550565b600181811c9082168061214757607f821691505b60208210811415610fa457634e487b7160e01b600052602260045260246000fd5b60006020828403121561217a57600080fd5b815180151581146115f957600080fd5b634e487b7160e01b600052601160045260246000fd5b600082198211156121b3576121b361218a565b500190565b6000828210156121ca576121ca61218a565b500390565b634e487b7160e01b600052603260045260246000fd5b634e487b7160e01b600052603160045260246000fd5b600060001982141561220f5761220f61218a565b5060010190565b634e487b7160e01b600052601260045260246000fd5b60008261223b5761223b612216565b500490565b60006101a0820190508782528660208301528560408301528460608301528360808301526101008360a084013760008152979650505050505050565b60018060a01b03851681528360208201526080604082015260006122a36080830185611bd8565b905082606083015295945050505050565b6000826122c3576122c3612216565b500690565b600082516122da818460208701611bac565b919091019291505056fea2646970667358221220ca1a802f7301251392547297bd1069a0521f6e3f8639bc4a193cb17fd1fe869a64736f6c634300080c0033",
  "linkReferences": {},
  "deployedLinkReferences": {}
}