{
  "_format": "hh-sol-artifact-1",
  "contractName": "MainContract",
  "sourceName": "src/backend/contracts/MainContract.sol",
  "abi": [
    {
      "inputs": [],
      "stateMutability": "nonpayable",
      "type": "constructor"
    },
    {
      "anonymous": false,
      "inputs": [
        {
          "indexed": false,
          "internalType": "address",
          "name": "previousAdmin",
          "type": "address"
        },
        {
          "indexed": false,
          "internalType": "address",
          "name": "newAdmin",
          "type": "address"
        }
      ],
      "name": "AdminChanged",
      "type": "event"
    },
    {
      "anonymous": false,
      "inputs": [
        {
          "indexed": true,
          "internalType": "address",
          "name": "beacon",
          "type": "address"
        }
      ],
      "name": "BeaconUpgraded",
      "type": "event"
    },
    {
      "anonymous": false,
      "inputs": [
        {
          "indexed": false,
          "internalType": "uint8",
          "name": "version",
          "type": "uint8"
        }
      ],
      "name": "Initialized",
      "type": "event"
    },
    {
      "anonymous": false,
      "inputs": [
        {
          "indexed": true,
          "internalType": "address",
          "name": "previousOwner",
          "type": "address"
        },
        {
          "indexed": true,
          "internalType": "address",
          "name": "newOwner",
          "type": "address"
        }
      ],
      "name": "OwnershipTransferred",
      "type": "event"
    },
    {
      "anonymous": false,
      "inputs": [
        {
          "indexed": true,
          "internalType": "address",
          "name": "implementation",
          "type": "address"
        }
      ],
      "name": "Upgraded",
      "type": "event"
    },
    {
      "inputs": [
        {
          "internalType": "enum MainContract.CommunityCategory",
          "name": "",
          "type": "uint8"
        },
        {
          "internalType": "uint256",
          "name": "",
          "type": "uint256"
        }
      ],
      "name": "categoryCommunities",
      "outputs": [
        {
          "internalType": "uint256",
          "name": "",
          "type": "uint256"
        }
      ],
      "stateMutability": "view",
      "type": "function"
    },
    {
      "inputs": [
        {
          "internalType": "uint256",
          "name": "",
          "type": "uint256"
        }
      ],
      "name": "communities",
      "outputs": [
        {
          "internalType": "uint256",
          "name": "id",
          "type": "uint256"
        },
        {
          "internalType": "enum MainContract.CommunityCategory",
          "name": "category",
          "type": "uint8"
        },
        {
          "internalType": "enum MainContract.CommunityPrivacy",
          "name": "privacy",
          "type": "uint8"
        },
        {
          "internalType": "address",
          "name": "owner",
          "type": "address"
        },
        {
          "internalType": "address",
          "name": "nftContract",
          "type": "address"
        },
        {
          "internalType": "address",
          "name": "ftContract",
          "type": "address"
        },
        {
          "internalType": "address",
          "name": "daoContract",
          "type": "address"
        },
        {
          "internalType": "address",
          "name": "timeLockContract",
          "type": "address"
        },
        {
          "internalType": "string",
          "name": "name",
          "type": "string"
        },
        {
          "internalType": "string",
          "name": "description",
          "type": "string"
        },
        {
          "internalType": "string",
          "name": "logo",
          "type": "string"
        }
      ],
      "stateMutability": "view",
      "type": "function"
    },
    {
      "inputs": [],
      "name": "communityCount",
      "outputs": [
        {
          "internalType": "uint256",
          "name": "",
          "type": "uint256"
        }
      ],
      "stateMutability": "view",
      "type": "function"
    },
    {
      "inputs": [
        {
          "internalType": "string",
          "name": "_name",
          "type": "string"
        },
        {
          "internalType": "string",
          "name": "_logo",
          "type": "string"
        },
        {
          "internalType": "enum MainContract.CommunityCategory",
          "name": "_category",
          "type": "uint8"
        },
        {
          "internalType": "enum MainContract.CommunityPrivacy",
          "name": "_privacy",
          "type": "uint8"
        },
        {
          "internalType": "string",
          "name": "_description",
          "type": "string"
        }
      ],
      "name": "createCommunity",
      "outputs": [],
      "stateMutability": "nonpayable",
      "type": "function"
    },
    {
      "inputs": [],
      "name": "factoryDAOContract",
      "outputs": [
        {
          "internalType": "address",
          "name": "",
          "type": "address"
        }
      ],
      "stateMutability": "view",
      "type": "function"
    },
    {
      "inputs": [],
      "name": "factoryFTContract",
      "outputs": [
        {
          "internalType": "address",
          "name": "",
          "type": "address"
        }
      ],
      "stateMutability": "view",
      "type": "function"
    },
    {
      "inputs": [],
      "name": "factoryNFTContract",
      "outputs": [
        {
          "internalType": "address",
          "name": "",
          "type": "address"
        }
      ],
      "stateMutability": "view",
      "type": "function"
    },
    {
      "inputs": [],
      "name": "factoryTimeLockContract",
      "outputs": [
        {
          "internalType": "address",
          "name": "",
          "type": "address"
        }
      ],
      "stateMutability": "view",
      "type": "function"
    },
    {
      "inputs": [
        {
          "internalType": "enum MainContract.CommunityCategory",
          "name": "_categoryId",
          "type": "uint8"
        }
      ],
      "name": "getCategoryCommunities",
      "outputs": [
        {
          "components": [
            {
              "internalType": "uint256",
              "name": "id",
              "type": "uint256"
            },
            {
              "internalType": "enum MainContract.CommunityCategory",
              "name": "category",
              "type": "uint8"
            },
            {
              "internalType": "enum MainContract.CommunityPrivacy",
              "name": "privacy",
              "type": "uint8"
            },
            {
              "internalType": "address",
              "name": "owner",
              "type": "address"
            },
            {
              "internalType": "address",
              "name": "nftContract",
              "type": "address"
            },
            {
              "internalType": "address",
              "name": "ftContract",
              "type": "address"
            },
            {
              "internalType": "address",
              "name": "daoContract",
              "type": "address"
            },
            {
              "internalType": "address",
              "name": "timeLockContract",
              "type": "address"
            },
            {
              "internalType": "string",
              "name": "name",
              "type": "string"
            },
            {
              "internalType": "string",
              "name": "description",
              "type": "string"
            },
            {
              "internalType": "string",
              "name": "logo",
              "type": "string"
            }
          ],
          "internalType": "struct MainContract.Community[]",
          "name": "",
          "type": "tuple[]"
        }
      ],
      "stateMutability": "view",
      "type": "function"
    },
    {
      "inputs": [
        {
          "internalType": "address",
          "name": "_owner",
          "type": "address"
        }
      ],
      "name": "getUserCommunities",
      "outputs": [
        {
          "components": [
            {
              "internalType": "uint256",
              "name": "id",
              "type": "uint256"
            },
            {
              "internalType": "enum MainContract.CommunityCategory",
              "name": "category",
              "type": "uint8"
            },
            {
              "internalType": "enum MainContract.CommunityPrivacy",
              "name": "privacy",
              "type": "uint8"
            },
            {
              "internalType": "address",
              "name": "owner",
              "type": "address"
            },
            {
              "internalType": "address",
              "name": "nftContract",
              "type": "address"
            },
            {
              "internalType": "address",
              "name": "ftContract",
              "type": "address"
            },
            {
              "internalType": "address",
              "name": "daoContract",
              "type": "address"
            },
            {
              "internalType": "address",
              "name": "timeLockContract",
              "type": "address"
            },
            {
              "internalType": "string",
              "name": "name",
              "type": "string"
            },
            {
              "internalType": "string",
              "name": "description",
              "type": "string"
            },
            {
              "internalType": "string",
              "name": "logo",
              "type": "string"
            }
          ],
          "internalType": "struct MainContract.Community[]",
          "name": "",
          "type": "tuple[]"
        }
      ],
      "stateMutability": "view",
      "type": "function"
    },
    {
      "inputs": [],
      "name": "initialize",
      "outputs": [],
      "stateMutability": "nonpayable",
      "type": "function"
    },
    {
      "inputs": [
        {
          "internalType": "uint256",
          "name": "_id",
          "type": "uint256"
        },
        {
          "internalType": "address",
          "name": "checkAddress",
          "type": "address"
        }
      ],
      "name": "isCommunityOwner",
      "outputs": [
        {
          "internalType": "bool",
          "name": "",
          "type": "bool"
        }
      ],
      "stateMutability": "view",
      "type": "function"
    },
    {
      "inputs": [
        {
          "internalType": "uint256",
          "name": "_id",
          "type": "uint256"
        }
      ],
      "name": "isContractExists",
      "outputs": [
        {
          "internalType": "bool",
          "name": "",
          "type": "bool"
        },
        {
          "internalType": "bool",
          "name": "",
          "type": "bool"
        },
        {
          "internalType": "bool",
          "name": "",
          "type": "bool"
        }
      ],
      "stateMutability": "view",
      "type": "function"
    },
    {
      "inputs": [],
      "name": "owner",
      "outputs": [
        {
          "internalType": "address",
          "name": "",
          "type": "address"
        }
      ],
      "stateMutability": "view",
      "type": "function"
    },
    {
      "inputs": [],
      "name": "proxiableUUID",
      "outputs": [
        {
          "internalType": "bytes32",
          "name": "",
          "type": "bytes32"
        }
      ],
      "stateMutability": "view",
      "type": "function"
    },
    {
      "inputs": [],
      "name": "renounceOwnership",
      "outputs": [],
      "stateMutability": "nonpayable",
      "type": "function"
    },
    {
      "inputs": [
        {
          "internalType": "address",
          "name": "newOwner",
          "type": "address"
        }
      ],
      "name": "transferOwnership",
      "outputs": [],
      "stateMutability": "nonpayable",
      "type": "function"
    },
    {
      "inputs": [
        {
          "internalType": "uint256",
          "name": "_id",
          "type": "uint256"
        },
        {
          "internalType": "string",
          "name": "_name",
          "type": "string"
        },
        {
          "internalType": "string",
          "name": "_logo",
          "type": "string"
        },
        {
          "internalType": "enum MainContract.CommunityPrivacy",
          "name": "_privacy",
          "type": "uint8"
        },
        {
          "internalType": "string",
          "name": "_description",
          "type": "string"
        }
      ],
      "name": "updateCommunity",
      "outputs": [],
      "stateMutability": "nonpayable",
      "type": "function"
    },
    {
      "inputs": [
        {
          "internalType": "uint256",
          "name": "_id",
          "type": "uint256"
        },
        {
          "internalType": "address",
          "name": "_daoContract",
          "type": "address"
        }
      ],
      "name": "updateCommunityDAO",
      "outputs": [],
      "stateMutability": "nonpayable",
      "type": "function"
    },
    {
      "inputs": [
        {
          "internalType": "uint256",
          "name": "_id",
          "type": "uint256"
        },
        {
          "internalType": "address",
          "name": "_ftContract",
          "type": "address"
        }
      ],
      "name": "updateCommunityFT",
      "outputs": [],
      "stateMutability": "nonpayable",
      "type": "function"
    },
    {
      "inputs": [
        {
          "internalType": "uint256",
          "name": "_id",
          "type": "uint256"
        },
        {
          "internalType": "address",
          "name": "_nftContract",
          "type": "address"
        }
      ],
      "name": "updateCommunityNFT",
      "outputs": [],
      "stateMutability": "nonpayable",
      "type": "function"
    },
    {
      "inputs": [
        {
          "internalType": "uint256",
          "name": "_id",
          "type": "uint256"
        },
        {
          "internalType": "address",
          "name": "_timeLockContract",
          "type": "address"
        }
      ],
      "name": "updateCommunityTokenLock",
      "outputs": [],
      "stateMutability": "nonpayable",
      "type": "function"
    },
    {
      "inputs": [
        {
          "internalType": "address",
          "name": "_factoryNFTContract",
          "type": "address"
        },
        {
          "internalType": "address",
          "name": "_factoryFTContract",
          "type": "address"
        },
        {
          "internalType": "address",
          "name": "_factoryDAOContract",
          "type": "address"
        },
        {
          "internalType": "address",
          "name": "_factoryTimeLockContract",
          "type": "address"
        }
      ],
      "name": "updateFactoryContractsAddress",
      "outputs": [],
      "stateMutability": "nonpayable",
      "type": "function"
    },
    {
      "inputs": [
        {
          "internalType": "address",
          "name": "newImplementation",
          "type": "address"
        }
      ],
      "name": "upgradeTo",
      "outputs": [],
      "stateMutability": "nonpayable",
      "type": "function"
    },
    {
      "inputs": [
        {
          "internalType": "address",
          "name": "newImplementation",
          "type": "address"
        },
        {
          "internalType": "bytes",
          "name": "data",
          "type": "bytes"
        }
      ],
      "name": "upgradeToAndCall",
      "outputs": [],
      "stateMutability": "payable",
      "type": "function"
    },
    {
      "inputs": [
        {
          "internalType": "address",
          "name": "",
          "type": "address"
        },
        {
          "internalType": "uint256",
          "name": "",
          "type": "uint256"
        }
      ],
      "name": "userCommunities",
      "outputs": [
        {
          "internalType": "uint256",
          "name": "",
          "type": "uint256"
        }
      ],
      "stateMutability": "view",
      "type": "function"
    }
  ],
  "bytecode": "0x60a0604052306080523480156200001557600080fd5b506200002062000026565b620000e8565b600054610100900460ff1615620000935760405162461bcd60e51b815260206004820152602760248201527f496e697469616c697a61626c653a20636f6e747261637420697320696e697469604482015266616c697a696e6760c81b606482015260840160405180910390fd5b60005460ff9081161015620000e6576000805460ff191660ff9081179091556040519081527f7f26b83ff96e1f2b6a682f133852f6798a09c465da95921460cefb38474024989060200160405180910390a15b565b6080516126c562000120600039600081816109a0015281816109e001528181610ab101528181610af10152610b8401526126c56000f3fe6080604052600436106101815760003560e01c8063ab53cd93116100d1578063e590b56a1161008a578063ec30b85c11610064578063ec30b85c146104b4578063f2fde38b1461050c578063f4704e051461052c578063f6842b301461054c57600080fd5b8063e590b56a1461043d578063e87d940b14610474578063e8cc13c01461049457600080fd5b8063ab53cd9314610334578063aee8461314610354578063af1af3dc1461036a578063b64b7f761461038a578063dd446001146103fd578063e00f78651461041d57600080fd5b80636543286f1161013e5780638129fc1c116101185780638129fc1c146102a957806384d992a0146102be5780638845f7c6146102f65780638da5cb5b1461031657600080fd5b80636543286f14610254578063715018a6146102745780637570b42a1461028957600080fd5b80631c174e9f14610186578063266682cb146101a85780633659cfe6146101de5780633c44f002146101fe5780634f1ef2861461022c57806352d1902d1461023f575b600080fd5b34801561019257600080fd5b506101a66101a1366004611ea7565b61056c565b005b3480156101b457600080fd5b506101c86101c3366004611ee2565b6105d0565b6040516101d59190611f8f565b60405180910390f35b3480156101ea57600080fd5b506101a66101f93660046120b1565b610995565b34801561020a57600080fd5b5061021e6102193660046120cc565b610a75565b6040519081526020016101d5565b6101a661023a366004612182565b610aa6565b34801561024b57600080fd5b5061021e610b77565b34801561026057600080fd5b506101c861026f3660046120b1565b610c2a565b34801561028057600080fd5b506101a6610fa7565b34801561029557600080fd5b506101a66102a43660046121e4565b610fbb565b3480156102b557600080fd5b506101a6611013565b3480156102ca57600080fd5b5060cb546102de906001600160a01b031681565b6040516001600160a01b0390911681526020016101d5565b34801561030257600080fd5b5060cc546102de906001600160a01b031681565b34801561032257600080fd5b506033546001600160a01b03166102de565b34801561034057600080fd5b506101a661034f366004611ea7565b61112b565b34801561036057600080fd5b5061021e60cd5481565b34801561037657600080fd5b506101a6610385366004612267565b611186565b34801561039657600080fd5b506103de6103a536600461230a565b600090815260ce60205260409020600281015460038201546004909201546001600160a01b039182161515939282161515929116151590565b60408051931515845291151560208401521515908201526060016101d5565b34801561040957600080fd5b5061021e610418366004612323565b6112b1565b34801561042957600080fd5b506101a6610438366004611ea7565b6112cd565b34801561044957600080fd5b5061045d61045836600461230a565b611328565b6040516101d59b9a9998979695949392919061233f565b34801561048057600080fd5b506101a661048f366004611ea7565b61152e565b3480156104a057600080fd5b506101a66104af3660046123e0565b611589565b3480156104c057600080fd5b506104fc6104cf366004611ea7565b600082815260ce60205260409020600101546201000090046001600160a01b039081169082161492915050565b60405190151581526020016101d5565b34801561051857600080fd5b506101a66105273660046120b1565b61182f565b34801561053857600080fd5b5060ca546102de906001600160a01b031681565b34801561055857600080fd5b5060c9546102de906001600160a01b031681565b60cb546001600160a01b0316331461059f5760405162461bcd60e51b81526004016105969061244c565b60405180910390fd5b600091825260ce602052604090912060040180546001600160a01b0319166001600160a01b03909216919091179055565b6060600060d060008460148111156105ea576105ea611efd565b60148111156105fb576105fb611efd565b815260200190815260200160002080549050905060008167ffffffffffffffff81111561062a5761062a6120f6565b60405190808252806020026020018201604052801561066357816020015b610650611d94565b8152602001906001900390816106485790505b50905060005b8281101561098d5760ce600060d0600088601481111561068b5761068b611efd565b601481111561069c5761069c611efd565b815260200190815260200160002083815481106106bb576106bb612483565b9060005260206000200154815260200190815260200160002060405180610160016040529081600082015481526020016001820160009054906101000a900460ff16601481111561070e5761070e611efd565b601481111561071f5761071f611efd565b81526020016001820160019054906101000a900460ff16600181111561074757610747611efd565b600181111561075857610758611efd565b815260018201546001600160a01b03620100009091048116602083015260028301548116604083015260038301548116606083015260048301548116608083015260058301541660a082015260068201805460c0909201916107b990612499565b80601f01602080910402602001604051908101604052809291908181526020018280546107e590612499565b80156108325780601f1061080757610100808354040283529160200191610832565b820191906000526020600020905b81548152906001019060200180831161081557829003601f168201915b5050505050815260200160078201805461084b90612499565b80601f016020809104026020016040519081016040528092919081815260200182805461087790612499565b80156108c45780601f10610899576101008083540402835291602001916108c4565b820191906000526020600020905b8154815290600101906020018083116108a757829003601f168201915b505050505081526020016008820180546108dd90612499565b80601f016020809104026020016040519081016040528092919081815260200182805461090990612499565b80156109565780601f1061092b57610100808354040283529160200191610956565b820191906000526020600020905b81548152906001019060200180831161093957829003601f168201915b50505050508152505082828151811061097157610971612483565b602002602001018190525080610986906124ea565b9050610669565b509392505050565b306001600160a01b037f00000000000000000000000000000000000000000000000000000000000000001614156109de5760405162461bcd60e51b815260040161059690612505565b7f00000000000000000000000000000000000000000000000000000000000000006001600160a01b0316610a27600080516020612649833981519152546001600160a01b031690565b6001600160a01b031614610a4d5760405162461bcd60e51b815260040161059690612551565b610a56816118a5565b60408051600080825260208201909252610a72918391906118ad565b50565b60d06020528160005260406000208181548110610a9157600080fd5b90600052602060002001600091509150505481565b306001600160a01b037f0000000000000000000000000000000000000000000000000000000000000000161415610aef5760405162461bcd60e51b815260040161059690612505565b7f00000000000000000000000000000000000000000000000000000000000000006001600160a01b0316610b38600080516020612649833981519152546001600160a01b031690565b6001600160a01b031614610b5e5760405162461bcd60e51b815260040161059690612551565b610b67826118a5565b610b73828260016118ad565b5050565b6000306001600160a01b037f00000000000000000000000000000000000000000000000000000000000000001614610c175760405162461bcd60e51b815260206004820152603860248201527f555550535570677261646561626c653a206d757374206e6f742062652063616c60448201527f6c6564207468726f7567682064656c656761746563616c6c00000000000000006064820152608401610596565b5060008051602061264983398151915290565b6001600160a01b038116600090815260cf60205260408120546060918167ffffffffffffffff811115610c5f57610c5f6120f6565b604051908082528060200260200182016040528015610c9857816020015b610c85611d94565b815260200190600190039081610c7d5790505b50905060005b8281101561098d576001600160a01b038516600090815260cf60205260408120805460ce92919084908110610cd557610cd5612483565b9060005260206000200154815260200190815260200160002060405180610160016040529081600082015481526020016001820160009054906101000a900460ff166014811115610d2857610d28611efd565b6014811115610d3957610d39611efd565b81526020016001820160019054906101000a900460ff166001811115610d6157610d61611efd565b6001811115610d7257610d72611efd565b815260018201546001600160a01b03620100009091048116602083015260028301548116604083015260038301548116606083015260048301548116608083015260058301541660a082015260068201805460c090920191610dd390612499565b80601f0160208091040260200160405190810160405280929190818152602001828054610dff90612499565b8015610e4c5780601f10610e2157610100808354040283529160200191610e4c565b820191906000526020600020905b815481529060010190602001808311610e2f57829003601f168201915b50505050508152602001600782018054610e6590612499565b80601f0160208091040260200160405190810160405280929190818152602001828054610e9190612499565b8015610ede5780601f10610eb357610100808354040283529160200191610ede565b820191906000526020600020905b815481529060010190602001808311610ec157829003601f168201915b50505050508152602001600882018054610ef790612499565b80601f0160208091040260200160405190810160405280929190818152602001828054610f2390612499565b8015610f705780601f10610f4557610100808354040283529160200191610f70565b820191906000526020600020905b815481529060010190602001808311610f5357829003601f168201915b505050505081525050828281518110610f8b57610f8b612483565b602002602001018190525080610fa0906124ea565b9050610c9e565b610faf611a1d565b610fb96000611a77565b565b610fc3611a1d565b60c980546001600160a01b039586166001600160a01b03199182161790915560ca80549486169482169490941790935560cb80549285169284169290921790915560cc8054919093169116179055565b600054610100900460ff16158080156110335750600054600160ff909116105b8061104d5750303b15801561104d575060005460ff166001145b6110b05760405162461bcd60e51b815260206004820152602e60248201527f496e697469616c697a61626c653a20636f6e747261637420697320616c72656160448201526d191e481a5b9a5d1a585b1a5e995960921b6064820152608401610596565b6000805460ff1916600117905580156110d3576000805461ff0019166101001790555b6110db611ac9565b6110e3611af8565b8015610a72576000805461ff0019169055604051600181527f7f26b83ff96e1f2b6a682f133852f6798a09c465da95921460cefb38474024989060200160405180910390a150565b60cc546001600160a01b031633146111555760405162461bcd60e51b81526004016105969061244c565b600091825260ce602052604090912060050180546001600160a01b0319166001600160a01b03909216919091179055565b6003845110156111d35760405162461bcd60e51b815260206004820152601860248201527710dbdb5b5d5b9a5d1e481b985b59481d1bdbc81cda1bdc9d60421b6044820152606401610596565b600085815260ce6020526040902060018101546201000090046001600160a01b0316331461123c5760405162461bcd60e51b81526020600482015260166024820152754e6f2061636365737320746f20636f6d6d756e69747960501b6044820152606401610596565b84516112519060068301906020880190611df2565b5083516112679060088301906020870190611df2565b50828160010160016101000a81548160ff0219169083600181111561128e5761128e611efd565b021790555081516112a89060078301906020850190611df2565b50505050505050565b60cf6020528160005260406000208181548110610a9157600080fd5b60c9546001600160a01b031633146112f75760405162461bcd60e51b81526004016105969061244c565b600091825260ce602052604090912060020180546001600160a01b0319166001600160a01b03909216919091179055565b60ce602052600090815260409020805460018201546002830154600384015460048501546005860154600687018054969760ff808816986101008904909116976001600160a01b036201000090910481169781169681169581169416929061138f90612499565b80601f01602080910402602001604051908101604052809291908181526020018280546113bb90612499565b80156114085780601f106113dd57610100808354040283529160200191611408565b820191906000526020600020905b8154815290600101906020018083116113eb57829003601f168201915b50505050509080600701805461141d90612499565b80601f016020809104026020016040519081016040528092919081815260200182805461144990612499565b80156114965780601f1061146b57610100808354040283529160200191611496565b820191906000526020600020905b81548152906001019060200180831161147957829003601f168201915b5050505050908060080180546114ab90612499565b80601f01602080910402602001604051908101604052809291908181526020018280546114d790612499565b80156115245780601f106114f957610100808354040283529160200191611524565b820191906000526020600020905b81548152906001019060200180831161150757829003601f168201915b505050505090508b565b60ca546001600160a01b031633146115585760405162461bcd60e51b81526004016105969061244c565b600091825260ce602052604090912060030180546001600160a01b0319166001600160a01b03909216919091179055565b60038551116115d55760405162461bcd60e51b815260206004820152601860248201527710dbdb5b5d5b9a5d1e481b985b59481d1bdbc81cda1bdc9d60421b6044820152606401610596565b600160cd60008282546115e8919061259d565b909155505060cd546040805161016081019091528181526020810185601481111561161557611615611efd565b815260200184600181111561162c5761162c611efd565b81523360208083019190915260006040808401829052606084018290526080840182905260a0840182905260c084018b905260e0840187905261010090930189905284815260ce825291909120825181559082015160018083018054909160ff1991909116908360148111156116a4576116a4611efd565b021790555060408201518160010160016101000a81548160ff021916908360018111156116d3576116d3611efd565b021790555060608201516001820180546001600160a01b03928316620100000262010000600160b01b031990911617905560808301516002830180549183166001600160a01b031992831617905560a084015160038401805491841691831691909117905560c084015160048401805491841691831691909117905560e0840151600584018054919093169116179055610100820151805161177f916006840191602090910190611df2565b50610120820151805161179c916007840191602090910190611df2565b5061014082015180516117b9916008840191602090910190611df2565b505033600090815260cf60209081526040822080546001810182559083529082200183905560d091508560148111156117f4576117f4611efd565b601481111561180557611805611efd565b81526020808201929092526040016000908120805460018101825590825291902001555050505050565b611837611a1d565b6001600160a01b03811661189c5760405162461bcd60e51b815260206004820152602660248201527f4f776e61626c653a206e6577206f776e657220697320746865207a65726f206160448201526564647265737360d01b6064820152608401610596565b610a7281611a77565b610a72611a1d565b7f4910fdfa16fed3260ed0e7147f7cc6da11a60208b5b9406d12a635614ffd91435460ff16156118e5576118e083611b1f565b505050565b826001600160a01b03166352d1902d6040518163ffffffff1660e01b8152600401602060405180830381865afa92505050801561193f575060408051601f3d908101601f1916820190925261193c918101906125b5565b60015b6119a25760405162461bcd60e51b815260206004820152602e60248201527f45524331393637557067726164653a206e657720696d706c656d656e7461746960448201526d6f6e206973206e6f74205555505360901b6064820152608401610596565b6000805160206126498339815191528114611a115760405162461bcd60e51b815260206004820152602960248201527f45524331393637557067726164653a20756e737570706f727465642070726f786044820152681a58589b195555525160ba1b6064820152608401610596565b506118e0838383611bbb565b6033546001600160a01b03163314610fb95760405162461bcd60e51b815260206004820181905260248201527f4f776e61626c653a2063616c6c6572206973206e6f7420746865206f776e65726044820152606401610596565b603380546001600160a01b038381166001600160a01b0319831681179093556040519116919082907f8be0079c531659141344cd1fd0a4f28419497f9722a3daafe3b4186f6b6457e090600090a35050565b600054610100900460ff16611af05760405162461bcd60e51b8152600401610596906125ce565b610fb9611be6565b600054610100900460ff16610fb95760405162461bcd60e51b8152600401610596906125ce565b6001600160a01b0381163b611b8c5760405162461bcd60e51b815260206004820152602d60248201527f455243313936373a206e657720696d706c656d656e746174696f6e206973206e60448201526c1bdd08184818dbdb9d1c9858dd609a1b6064820152608401610596565b60008051602061264983398151915280546001600160a01b0319166001600160a01b0392909216919091179055565b611bc483611c16565b600082511180611bd15750805b156118e057611be08383611c56565b50505050565b600054610100900460ff16611c0d5760405162461bcd60e51b8152600401610596906125ce565b610fb933611a77565b611c1f81611b1f565b6040516001600160a01b038216907fbc7cd75a20ee27fd9adebab32041f755214dbc6bffa90cc0225b39da2e5c2d3b90600090a250565b60606001600160a01b0383163b611cbe5760405162461bcd60e51b815260206004820152602660248201527f416464726573733a2064656c65676174652063616c6c20746f206e6f6e2d636f6044820152651b9d1c9858dd60d21b6064820152608401610596565b600080846001600160a01b031684604051611cd99190612619565b600060405180830381855af49150503d8060008114611d14576040519150601f19603f3d011682016040523d82523d6000602084013e611d19565b606091505b5091509150611d41828260405180606001604052806027815260200161266960279139611d4a565b95945050505050565b60608315611d59575081611d63565b611d638383611d6a565b9392505050565b815115611d7a5781518083602001fd5b8060405162461bcd60e51b81526004016105969190612635565b604080516101608101909152600080825260208201908152602001600081526000602082018190526040820181905260608083018290526080830182905260a083019190915260c0820181905260e082018190526101009091015290565b828054611dfe90612499565b90600052602060002090601f016020900481019282611e205760008555611e66565b82601f10611e3957805160ff1916838001178555611e66565b82800160010185558215611e66579182015b82811115611e66578251825591602001919060010190611e4b565b50611e72929150611e76565b5090565b5b80821115611e725760008155600101611e77565b80356001600160a01b0381168114611ea257600080fd5b919050565b60008060408385031215611eba57600080fd5b82359150611eca60208401611e8b565b90509250929050565b803560158110611ea257600080fd5b600060208284031215611ef457600080fd5b611d6382611ed3565b634e487b7160e01b600052602160045260246000fd5b60158110611f2357611f23611efd565b9052565b60028110611f2357611f23611efd565b60005b83811015611f52578181015183820152602001611f3a565b83811115611be05750506000910152565b60008151808452611f7b816020860160208601611f37565b601f01601f19169290920160200192915050565b60006020808301818452808551808352604092508286019150828160051b87010184880160005b838110156120a357603f1989840301855281516101608151855288820151611fe08a870182611f13565b5087820151611ff189870182611f27565b506060828101516001600160a01b039081169187019190915260808084015182169087015260a08084015182169087015260c08084015182169087015260e080840151909116908601526101008083015181870183905261205483880182611f63565b9250505061012080830151868303828801526120708382611f63565b92505050610140808301519250858203818701525061208f8183611f63565b968901969450505090860190600101611fb6565b509098975050505050505050565b6000602082840312156120c357600080fd5b611d6382611e8b565b600080604083850312156120df57600080fd5b6120e883611ed3565b946020939093013593505050565b634e487b7160e01b600052604160045260246000fd5b600067ffffffffffffffff80841115612127576121276120f6565b604051601f8501601f19908116603f0116810190828211818310171561214f5761214f6120f6565b8160405280935085815286868601111561216857600080fd5b858560208301376000602087830101525050509392505050565b6000806040838503121561219557600080fd5b61219e83611e8b565b9150602083013567ffffffffffffffff8111156121ba57600080fd5b8301601f810185136121cb57600080fd5b6121da8582356020840161210c565b9150509250929050565b600080600080608085870312156121fa57600080fd5b61220385611e8b565b935061221160208601611e8b565b925061221f60408601611e8b565b915061222d60608601611e8b565b905092959194509250565b600082601f83011261224957600080fd5b611d638383356020850161210c565b803560028110611ea257600080fd5b600080600080600060a0868803121561227f57600080fd5b85359450602086013567ffffffffffffffff8082111561229e57600080fd5b6122aa89838a01612238565b955060408801359150808211156122c057600080fd5b6122cc89838a01612238565b94506122da60608901612258565b935060808801359150808211156122f057600080fd5b506122fd88828901612238565b9150509295509295909350565b60006020828403121561231c57600080fd5b5035919050565b6000806040838503121561233657600080fd5b6120e883611e8b565b60006101608d8352612354602084018e611f13565b612361604084018d611f27565b6001600160a01b038b811660608501528a8116608085015289811660a085015288811660c0850152871660e084015261010083018190526123a481840187611f63565b90508281036101208401526123b98186611f63565b90508281036101408401526123ce8185611f63565b9e9d5050505050505050505050505050565b600080600080600060a086880312156123f857600080fd5b853567ffffffffffffffff8082111561241057600080fd5b61241c89838a01612238565b9650602088013591508082111561243257600080fd5b61243e89838a01612238565b95506122cc60408901611ed3565b60208082526019908201527f4e6f2041636365737320666f72207468697320616374696f6e00000000000000604082015260600190565b634e487b7160e01b600052603260045260246000fd5b600181811c908216806124ad57607f821691505b602082108114156124ce57634e487b7160e01b600052602260045260246000fd5b50919050565b634e487b7160e01b600052601160045260246000fd5b60006000198214156124fe576124fe6124d4565b5060010190565b6020808252602c908201527f46756e6374696f6e206d7573742062652063616c6c6564207468726f7567682060408201526b19195b1959d85d1958d85b1b60a21b606082015260800190565b6020808252602c908201527f46756e6374696f6e206d7573742062652063616c6c6564207468726f7567682060408201526b6163746976652070726f787960a01b606082015260800190565b600082198211156125b0576125b06124d4565b500190565b6000602082840312156125c757600080fd5b5051919050565b6020808252602b908201527f496e697469616c697a61626c653a20636f6e7472616374206973206e6f74206960408201526a6e697469616c697a696e6760a81b606082015260800190565b6000825161262b818460208701611f37565b9190910192915050565b602081526000611d636020830184611f6356fe360894a13ba1a3210667c828492db98dca3e2076cc3735a920a3ca505d382bbc416464726573733a206c6f772d6c6576656c2064656c65676174652063616c6c206661696c6564a2646970667358221220f6d11e89d4644ca052dae9c8f7268fde1498e64c92d4f18f92c93964c6246b7b64736f6c634300080c0033",
  "linkReferences": {},
  "deployedLinkReferences": {}
}