{
  "_format": "hh-sol-artifact-1",
  "contractName": "MainContract",
  "sourceName": "src/backend/contracts/MainContract.sol",
  "abi": [
    {
      "inputs": [],
      "stateMutability": "nonpayable",
      "type": "constructor"
    },
    {
      "anonymous": false,
      "inputs": [
        {
          "indexed": false,
          "internalType": "address",
          "name": "previousAdmin",
          "type": "address"
        },
        {
          "indexed": false,
          "internalType": "address",
          "name": "newAdmin",
          "type": "address"
        }
      ],
      "name": "AdminChanged",
      "type": "event"
    },
    {
      "anonymous": false,
      "inputs": [
        {
          "indexed": true,
          "internalType": "address",
          "name": "beacon",
          "type": "address"
        }
      ],
      "name": "BeaconUpgraded",
      "type": "event"
    },
    {
      "anonymous": false,
      "inputs": [
        {
          "indexed": false,
          "internalType": "uint8",
          "name": "version",
          "type": "uint8"
        }
      ],
      "name": "Initialized",
      "type": "event"
    },
    {
      "anonymous": false,
      "inputs": [
        {
          "indexed": true,
          "internalType": "address",
          "name": "previousOwner",
          "type": "address"
        },
        {
          "indexed": true,
          "internalType": "address",
          "name": "newOwner",
          "type": "address"
        }
      ],
      "name": "OwnershipTransferred",
      "type": "event"
    },
    {
      "anonymous": false,
      "inputs": [
        {
          "indexed": true,
          "internalType": "address",
          "name": "implementation",
          "type": "address"
        }
      ],
      "name": "Upgraded",
      "type": "event"
    },
    {
      "inputs": [
        {
          "internalType": "enum MainContract.CommunityCategory",
          "name": "",
          "type": "uint8"
        },
        {
          "internalType": "uint256",
          "name": "",
          "type": "uint256"
        }
      ],
      "name": "categoryCommunities",
      "outputs": [
        {
          "internalType": "uint256",
          "name": "",
          "type": "uint256"
        }
      ],
      "stateMutability": "view",
      "type": "function"
    },
    {
      "inputs": [],
      "name": "chainlinkVRFContract",
      "outputs": [
        {
          "internalType": "address",
          "name": "",
          "type": "address"
        }
      ],
      "stateMutability": "view",
      "type": "function"
    },
    {
      "inputs": [
        {
          "internalType": "uint256",
          "name": "",
          "type": "uint256"
        }
      ],
      "name": "communities",
      "outputs": [
        {
          "internalType": "uint256",
          "name": "id",
          "type": "uint256"
        },
        {
          "internalType": "enum MainContract.CommunityCategory",
          "name": "category",
          "type": "uint8"
        },
        {
          "internalType": "enum MainContract.CommunityPrivacy",
          "name": "privacy",
          "type": "uint8"
        },
        {
          "internalType": "address",
          "name": "owner",
          "type": "address"
        },
        {
          "internalType": "address",
          "name": "nftContract",
          "type": "address"
        },
        {
          "internalType": "address",
          "name": "ftContract",
          "type": "address"
        },
        {
          "internalType": "address",
          "name": "daoContract",
          "type": "address"
        },
        {
          "internalType": "address",
          "name": "timeLockContract",
          "type": "address"
        },
        {
          "internalType": "string",
          "name": "name",
          "type": "string"
        },
        {
          "internalType": "string",
          "name": "description",
          "type": "string"
        },
        {
          "internalType": "string",
          "name": "logo",
          "type": "string"
        }
      ],
      "stateMutability": "view",
      "type": "function"
    },
    {
      "inputs": [],
      "name": "communityCount",
      "outputs": [
        {
          "internalType": "uint256",
          "name": "",
          "type": "uint256"
        }
      ],
      "stateMutability": "view",
      "type": "function"
    },
    {
      "inputs": [
        {
          "internalType": "string",
          "name": "_name",
          "type": "string"
        },
        {
          "internalType": "string",
          "name": "_logo",
          "type": "string"
        },
        {
          "internalType": "enum MainContract.CommunityCategory",
          "name": "_category",
          "type": "uint8"
        },
        {
          "internalType": "enum MainContract.CommunityPrivacy",
          "name": "_privacy",
          "type": "uint8"
        },
        {
          "internalType": "string",
          "name": "_description",
          "type": "string"
        }
      ],
      "name": "createCommunity",
      "outputs": [],
      "stateMutability": "nonpayable",
      "type": "function"
    },
    {
      "inputs": [],
      "name": "factoryDAOContract",
      "outputs": [
        {
          "internalType": "address",
          "name": "",
          "type": "address"
        }
      ],
      "stateMutability": "view",
      "type": "function"
    },
    {
      "inputs": [],
      "name": "factoryFTContract",
      "outputs": [
        {
          "internalType": "address",
          "name": "",
          "type": "address"
        }
      ],
      "stateMutability": "view",
      "type": "function"
    },
    {
      "inputs": [],
      "name": "factoryNFTContract",
      "outputs": [
        {
          "internalType": "address",
          "name": "",
          "type": "address"
        }
      ],
      "stateMutability": "view",
      "type": "function"
    },
    {
      "inputs": [],
      "name": "factoryTimeLockContract",
      "outputs": [
        {
          "internalType": "address",
          "name": "",
          "type": "address"
        }
      ],
      "stateMutability": "view",
      "type": "function"
    },
    {
      "inputs": [
        {
          "internalType": "enum MainContract.CommunityCategory",
          "name": "_categoryId",
          "type": "uint8"
        }
      ],
      "name": "getCategoryCommunities",
      "outputs": [
        {
          "components": [
            {
              "internalType": "uint256",
              "name": "id",
              "type": "uint256"
            },
            {
              "internalType": "enum MainContract.CommunityCategory",
              "name": "category",
              "type": "uint8"
            },
            {
              "internalType": "enum MainContract.CommunityPrivacy",
              "name": "privacy",
              "type": "uint8"
            },
            {
              "internalType": "address",
              "name": "owner",
              "type": "address"
            },
            {
              "internalType": "address",
              "name": "nftContract",
              "type": "address"
            },
            {
              "internalType": "address",
              "name": "ftContract",
              "type": "address"
            },
            {
              "internalType": "address",
              "name": "daoContract",
              "type": "address"
            },
            {
              "internalType": "address",
              "name": "timeLockContract",
              "type": "address"
            },
            {
              "internalType": "string",
              "name": "name",
              "type": "string"
            },
            {
              "internalType": "string",
              "name": "description",
              "type": "string"
            },
            {
              "internalType": "string",
              "name": "logo",
              "type": "string"
            }
          ],
          "internalType": "struct MainContract.Community[]",
          "name": "",
          "type": "tuple[]"
        }
      ],
      "stateMutability": "view",
      "type": "function"
    },
    {
      "inputs": [
        {
          "internalType": "address",
          "name": "_owner",
          "type": "address"
        }
      ],
      "name": "getUserCommunities",
      "outputs": [
        {
          "components": [
            {
              "internalType": "uint256",
              "name": "id",
              "type": "uint256"
            },
            {
              "internalType": "enum MainContract.CommunityCategory",
              "name": "category",
              "type": "uint8"
            },
            {
              "internalType": "enum MainContract.CommunityPrivacy",
              "name": "privacy",
              "type": "uint8"
            },
            {
              "internalType": "address",
              "name": "owner",
              "type": "address"
            },
            {
              "internalType": "address",
              "name": "nftContract",
              "type": "address"
            },
            {
              "internalType": "address",
              "name": "ftContract",
              "type": "address"
            },
            {
              "internalType": "address",
              "name": "daoContract",
              "type": "address"
            },
            {
              "internalType": "address",
              "name": "timeLockContract",
              "type": "address"
            },
            {
              "internalType": "string",
              "name": "name",
              "type": "string"
            },
            {
              "internalType": "string",
              "name": "description",
              "type": "string"
            },
            {
              "internalType": "string",
              "name": "logo",
              "type": "string"
            }
          ],
          "internalType": "struct MainContract.Community[]",
          "name": "",
          "type": "tuple[]"
        }
      ],
      "stateMutability": "view",
      "type": "function"
    },
    {
      "inputs": [],
      "name": "initialize",
      "outputs": [],
      "stateMutability": "nonpayable",
      "type": "function"
    },
    {
      "inputs": [
        {
          "internalType": "uint256",
          "name": "_id",
          "type": "uint256"
        },
        {
          "internalType": "address",
          "name": "checkAddress",
          "type": "address"
        }
      ],
      "name": "isCommunityOwner",
      "outputs": [
        {
          "internalType": "bool",
          "name": "",
          "type": "bool"
        }
      ],
      "stateMutability": "view",
      "type": "function"
    },
    {
      "inputs": [
        {
          "internalType": "uint256",
          "name": "_id",
          "type": "uint256"
        }
      ],
      "name": "isContractExists",
      "outputs": [
        {
          "internalType": "bool",
          "name": "",
          "type": "bool"
        },
        {
          "internalType": "bool",
          "name": "",
          "type": "bool"
        },
        {
          "internalType": "bool",
          "name": "",
          "type": "bool"
        }
      ],
      "stateMutability": "view",
      "type": "function"
    },
    {
      "inputs": [
        {
          "internalType": "uint256",
          "name": "_nftSeries",
          "type": "uint256"
        },
        {
          "internalType": "uint256",
          "name": "_communityId",
          "type": "uint256"
        },
        {
          "internalType": "address[]",
          "name": "_participants",
          "type": "address[]"
        },
        {
          "internalType": "uint32",
          "name": "_winnersAmount",
          "type": "uint32"
        }
      ],
      "name": "newRaffle",
      "outputs": [],
      "stateMutability": "nonpayable",
      "type": "function"
    },
    {
      "inputs": [],
      "name": "owner",
      "outputs": [
        {
          "internalType": "address",
          "name": "",
          "type": "address"
        }
      ],
      "stateMutability": "view",
      "type": "function"
    },
    {
      "inputs": [],
      "name": "proxiableUUID",
      "outputs": [
        {
          "internalType": "bytes32",
          "name": "",
          "type": "bytes32"
        }
      ],
      "stateMutability": "view",
      "type": "function"
    },
    {
      "inputs": [],
      "name": "renounceOwnership",
      "outputs": [],
      "stateMutability": "nonpayable",
      "type": "function"
    },
    {
      "inputs": [
        {
          "internalType": "address",
          "name": "newOwner",
          "type": "address"
        }
      ],
      "name": "transferOwnership",
      "outputs": [],
      "stateMutability": "nonpayable",
      "type": "function"
    },
    {
      "inputs": [
        {
          "internalType": "uint256",
          "name": "_id",
          "type": "uint256"
        },
        {
          "internalType": "string",
          "name": "_name",
          "type": "string"
        },
        {
          "internalType": "string",
          "name": "_logo",
          "type": "string"
        },
        {
          "internalType": "enum MainContract.CommunityPrivacy",
          "name": "_privacy",
          "type": "uint8"
        },
        {
          "internalType": "string",
          "name": "_description",
          "type": "string"
        }
      ],
      "name": "updateCommunity",
      "outputs": [],
      "stateMutability": "nonpayable",
      "type": "function"
    },
    {
      "inputs": [
        {
          "internalType": "uint256",
          "name": "_id",
          "type": "uint256"
        },
        {
          "internalType": "address",
          "name": "_daoContract",
          "type": "address"
        }
      ],
      "name": "updateCommunityDAO",
      "outputs": [],
      "stateMutability": "nonpayable",
      "type": "function"
    },
    {
      "inputs": [
        {
          "internalType": "uint256",
          "name": "_id",
          "type": "uint256"
        },
        {
          "internalType": "address",
          "name": "_ftContract",
          "type": "address"
        }
      ],
      "name": "updateCommunityFT",
      "outputs": [],
      "stateMutability": "nonpayable",
      "type": "function"
    },
    {
      "inputs": [
        {
          "internalType": "uint256",
          "name": "_id",
          "type": "uint256"
        },
        {
          "internalType": "address",
          "name": "_nftContract",
          "type": "address"
        }
      ],
      "name": "updateCommunityNFT",
      "outputs": [],
      "stateMutability": "nonpayable",
      "type": "function"
    },
    {
      "inputs": [
        {
          "internalType": "uint256",
          "name": "_id",
          "type": "uint256"
        },
        {
          "internalType": "address",
          "name": "_timeLockContract",
          "type": "address"
        }
      ],
      "name": "updateCommunityTokenLock",
      "outputs": [],
      "stateMutability": "nonpayable",
      "type": "function"
    },
    {
      "inputs": [
        {
          "internalType": "address",
          "name": "_factoryNFTContract",
          "type": "address"
        },
        {
          "internalType": "address",
          "name": "_factoryFTContract",
          "type": "address"
        },
        {
          "internalType": "address",
          "name": "_factoryDAOContract",
          "type": "address"
        },
        {
          "internalType": "address",
          "name": "_factoryTimeLockContract",
          "type": "address"
        },
        {
          "internalType": "address",
          "name": "_chainlinkVRFContract",
          "type": "address"
        }
      ],
      "name": "updateFactoryContractsAddress",
      "outputs": [],
      "stateMutability": "nonpayable",
      "type": "function"
    },
    {
      "inputs": [
        {
          "internalType": "address",
          "name": "newImplementation",
          "type": "address"
        }
      ],
      "name": "upgradeTo",
      "outputs": [],
      "stateMutability": "nonpayable",
      "type": "function"
    },
    {
      "inputs": [
        {
          "internalType": "address",
          "name": "newImplementation",
          "type": "address"
        },
        {
          "internalType": "bytes",
          "name": "data",
          "type": "bytes"
        }
      ],
      "name": "upgradeToAndCall",
      "outputs": [],
      "stateMutability": "payable",
      "type": "function"
    },
    {
      "inputs": [
        {
          "internalType": "address",
          "name": "",
          "type": "address"
        },
        {
          "internalType": "uint256",
          "name": "",
          "type": "uint256"
        }
      ],
      "name": "userCommunities",
      "outputs": [
        {
          "internalType": "uint256",
          "name": "",
          "type": "uint256"
        }
      ],
      "stateMutability": "view",
      "type": "function"
    }
  ],
  "bytecode": "0x60a0604052306080523480156200001557600080fd5b506200002062000026565b620000e8565b600054610100900460ff1615620000935760405162461bcd60e51b815260206004820152602760248201527f496e697469616c697a61626c653a20636f6e747261637420697320696e697469604482015266616c697a696e6760c81b606482015260840160405180910390fd5b60005460ff9081161015620000e6576000805460ff191660ff9081179091556040519081527f7f26b83ff96e1f2b6a682f133852f6798a09c465da95921460cefb38474024989060200160405180910390a15b565b608051612a546200012060003960008181610c0f01528181610c4f01528181610d2001528181610d600152610df30152612a546000f3fe6080604052600436106101b75760003560e01c8063ab53cd93116100ec578063e590b56a1161008a578063ec30b85c11610064578063ec30b85c1461052a578063f2fde38b14610582578063f4704e05146105a2578063f6842b30146105c257600080fd5b8063e590b56a146104b3578063e87d940b146104ea578063e8cc13c01461050a57600080fd5b8063b64b7f76116100c6578063b64b7f76146103e0578063c8202f4a14610453578063dd44600114610473578063e00f78651461049357600080fd5b8063ab53cd931461038a578063aee84613146103aa578063af1af3dc146103c057600080fd5b806352d1902d116101595780638129fc1c116101335780638129fc1c146102ff57806384d992a0146103145780638845f7c61461034c5780638da5cb5b1461036c57600080fd5b806352d1902d146102b55780636543286f146102ca578063715018a6146102ea57600080fd5b806334ff12511161019557806334ff1251146102345780633659cfe6146102545780633c44f002146102745780634f1ef286146102a257600080fd5b806316eb1f2d146101bc5780631c174e9f146101de578063266682cb146101fe575b600080fd5b3480156101c857600080fd5b506101dc6101d7366004612119565b6105e2565b005b3480156101ea57600080fd5b506101dc6101f93660046121ec565b61077d565b34801561020a57600080fd5b5061021e610219366004612227565b6107d8565b60405161022b91906122d4565b60405180910390f35b34801561024057600080fd5b506101dc61024f3660046123f6565b610b9d565b34801561026057600080fd5b506101dc61026f36600461245b565b610c04565b34801561028057600080fd5b5061029461028f366004612476565b610ce4565b60405190815260200161022b565b6101dc6102b03660046124f8565b610d15565b3480156102c157600080fd5b50610294610de6565b3480156102d657600080fd5b5061021e6102e536600461245b565b610e99565b3480156102f657600080fd5b506101dc611216565b34801561030b57600080fd5b506101dc61122a565b34801561032057600080fd5b5060cb54610334906001600160a01b031681565b6040516001600160a01b03909116815260200161022b565b34801561035857600080fd5b5060cc54610334906001600160a01b031681565b34801561037857600080fd5b506033546001600160a01b0316610334565b34801561039657600080fd5b506101dc6103a53660046121ec565b611342565b3480156103b657600080fd5b5061029460ce5481565b3480156103cc57600080fd5b506101dc6103db366004612589565b61139d565b3480156103ec57600080fd5b506104346103fb36600461262c565b600090815260cf60205260409020600281015460038201546004909201546001600160a01b039182161515939282161515929116151590565b604080519315158452911515602084015215159082015260600161022b565b34801561045f57600080fd5b5060cd54610334906001600160a01b031681565b34801561047f57600080fd5b5061029461048e366004612645565b6114c8565b34801561049f57600080fd5b506101dc6104ae3660046121ec565b6114e4565b3480156104bf57600080fd5b506104d36104ce36600461262c565b61153f565b60405161022b9b9a99989796959493929190612661565b3480156104f657600080fd5b506101dc6105053660046121ec565b611745565b34801561051657600080fd5b506101dc610525366004612702565b6117a0565b34801561053657600080fd5b506105726105453660046121ec565b600082815260cf60205260409020600101546201000090046001600160a01b039081169082161492915050565b604051901515815260200161022b565b34801561058e57600080fd5b506101dc61059d36600461245b565b611a46565b3480156105ae57600080fd5b5060ca54610334906001600160a01b031681565b3480156105ce57600080fd5b5060c954610334906001600160a01b031681565b600083815260cf60205260409020600101546201000090046001600160a01b031633146106425760405162461bcd60e51b81526020600482015260096024820152684e6f2061636365737360b81b60448201526064015b60405180910390fd5b60018251116106935760405162461bcd60e51b815260206004820152601760248201527f4e6f7420656e6f756768207061727469636970616e74730000000000000000006044820152606401610639565b8063ffffffff16825110156106fd5760405162461bcd60e51b815260206004820152602a60248201527f4e6f7420656e6f756768207061727469636970616e747320666f722077696e6e604482015269195c9cc8185b5bdd5b9d60b21b6064820152608401610639565b60cd5460405163226a18ef60e01b81526001600160a01b039091169063226a18ef9061073390879087908790879060040161276e565b6020604051808303816000875af1158015610752573d6000803e3d6000fd5b505050506040513d601f19601f8201168201806040525081019061077691906127db565b5050505050565b60cb546001600160a01b031633146107a75760405162461bcd60e51b8152600401610639906127f4565b600091825260cf602052604090912060040180546001600160a01b0319166001600160a01b03909216919091179055565b6060600060d160008460148111156107f2576107f2612242565b601481111561080357610803612242565b815260200190815260200160002080549050905060008167ffffffffffffffff811115610832576108326120a2565b60405190808252806020026020018201604052801561086b57816020015b610858611fab565b8152602001906001900390816108505790505b50905060005b82811015610b955760cf600060d1600088601481111561089357610893612242565b60148111156108a4576108a4612242565b815260200190815260200160002083815481106108c3576108c361282b565b9060005260206000200154815260200190815260200160002060405180610160016040529081600082015481526020016001820160009054906101000a900460ff16601481111561091657610916612242565b601481111561092757610927612242565b81526020016001820160019054906101000a900460ff16600181111561094f5761094f612242565b600181111561096057610960612242565b815260018201546001600160a01b03620100009091048116602083015260028301548116604083015260038301548116606083015260048301548116608083015260058301541660a082015260068201805460c0909201916109c190612841565b80601f01602080910402602001604051908101604052809291908181526020018280546109ed90612841565b8015610a3a5780601f10610a0f57610100808354040283529160200191610a3a565b820191906000526020600020905b815481529060010190602001808311610a1d57829003601f168201915b50505050508152602001600782018054610a5390612841565b80601f0160208091040260200160405190810160405280929190818152602001828054610a7f90612841565b8015610acc5780601f10610aa157610100808354040283529160200191610acc565b820191906000526020600020905b815481529060010190602001808311610aaf57829003601f168201915b50505050508152602001600882018054610ae590612841565b80601f0160208091040260200160405190810160405280929190818152602001828054610b1190612841565b8015610b5e5780601f10610b3357610100808354040283529160200191610b5e565b820191906000526020600020905b815481529060010190602001808311610b4157829003601f168201915b505050505081525050828281518110610b7957610b7961282b565b602002602001018190525080610b8e90612892565b9050610871565b509392505050565b610ba5611abc565b60c980546001600160a01b03199081166001600160a01b039788161790915560ca805482169587169590951790945560cb805485169386169390931790925560cc8054841691851691909117905560cd80549092169216919091179055565b306001600160a01b037f0000000000000000000000000000000000000000000000000000000000000000161415610c4d5760405162461bcd60e51b8152600401610639906128ad565b7f00000000000000000000000000000000000000000000000000000000000000006001600160a01b0316610c966000805160206129d8833981519152546001600160a01b031690565b6001600160a01b031614610cbc5760405162461bcd60e51b8152600401610639906128f9565b610cc581611b16565b60408051600080825260208201909252610ce191839190611b1e565b50565b60d16020528160005260406000208181548110610d0057600080fd5b90600052602060002001600091509150505481565b306001600160a01b037f0000000000000000000000000000000000000000000000000000000000000000161415610d5e5760405162461bcd60e51b8152600401610639906128ad565b7f00000000000000000000000000000000000000000000000000000000000000006001600160a01b0316610da76000805160206129d8833981519152546001600160a01b031690565b6001600160a01b031614610dcd5760405162461bcd60e51b8152600401610639906128f9565b610dd682611b16565b610de282826001611b1e565b5050565b6000306001600160a01b037f00000000000000000000000000000000000000000000000000000000000000001614610e865760405162461bcd60e51b815260206004820152603860248201527f555550535570677261646561626c653a206d757374206e6f742062652063616c60448201527f6c6564207468726f7567682064656c656761746563616c6c00000000000000006064820152608401610639565b506000805160206129d883398151915290565b6001600160a01b038116600090815260d060205260408120546060918167ffffffffffffffff811115610ece57610ece6120a2565b604051908082528060200260200182016040528015610f0757816020015b610ef4611fab565b815260200190600190039081610eec5790505b50905060005b82811015610b95576001600160a01b038516600090815260d060205260408120805460cf92919084908110610f4457610f4461282b565b9060005260206000200154815260200190815260200160002060405180610160016040529081600082015481526020016001820160009054906101000a900460ff166014811115610f9757610f97612242565b6014811115610fa857610fa8612242565b81526020016001820160019054906101000a900460ff166001811115610fd057610fd0612242565b6001811115610fe157610fe1612242565b815260018201546001600160a01b03620100009091048116602083015260028301548116604083015260038301548116606083015260048301548116608083015260058301541660a082015260068201805460c09092019161104290612841565b80601f016020809104026020016040519081016040528092919081815260200182805461106e90612841565b80156110bb5780601f10611090576101008083540402835291602001916110bb565b820191906000526020600020905b81548152906001019060200180831161109e57829003601f168201915b505050505081526020016007820180546110d490612841565b80601f016020809104026020016040519081016040528092919081815260200182805461110090612841565b801561114d5780601f106111225761010080835404028352916020019161114d565b820191906000526020600020905b81548152906001019060200180831161113057829003601f168201915b5050505050815260200160088201805461116690612841565b80601f016020809104026020016040519081016040528092919081815260200182805461119290612841565b80156111df5780601f106111b4576101008083540402835291602001916111df565b820191906000526020600020905b8154815290600101906020018083116111c257829003601f168201915b5050505050815250508282815181106111fa576111fa61282b565b60200260200101819052508061120f90612892565b9050610f0d565b61121e611abc565b6112286000611c8e565b565b600054610100900460ff161580801561124a5750600054600160ff909116105b806112645750303b158015611264575060005460ff166001145b6112c75760405162461bcd60e51b815260206004820152602e60248201527f496e697469616c697a61626c653a20636f6e747261637420697320616c72656160448201526d191e481a5b9a5d1a585b1a5e995960921b6064820152608401610639565b6000805460ff1916600117905580156112ea576000805461ff0019166101001790555b6112f2611ce0565b6112fa611d0f565b8015610ce1576000805461ff0019169055604051600181527f7f26b83ff96e1f2b6a682f133852f6798a09c465da95921460cefb38474024989060200160405180910390a150565b60cc546001600160a01b0316331461136c5760405162461bcd60e51b8152600401610639906127f4565b600091825260cf602052604090912060050180546001600160a01b0319166001600160a01b03909216919091179055565b6003845110156113ea5760405162461bcd60e51b815260206004820152601860248201527710dbdb5b5d5b9a5d1e481b985b59481d1bdbc81cda1bdc9d60421b6044820152606401610639565b600085815260cf6020526040902060018101546201000090046001600160a01b031633146114535760405162461bcd60e51b81526020600482015260166024820152754e6f2061636365737320746f20636f6d6d756e69747960501b6044820152606401610639565b84516114689060068301906020880190612009565b50835161147e9060088301906020870190612009565b50828160010160016101000a81548160ff021916908360018111156114a5576114a5612242565b021790555081516114bf9060078301906020850190612009565b50505050505050565b60d06020528160005260406000208181548110610d0057600080fd5b60c9546001600160a01b0316331461150e5760405162461bcd60e51b8152600401610639906127f4565b600091825260cf602052604090912060020180546001600160a01b0319166001600160a01b03909216919091179055565b60cf602052600090815260409020805460018201546002830154600384015460048501546005860154600687018054969760ff808816986101008904909116976001600160a01b03620100009091048116978116968116958116941692906115a690612841565b80601f01602080910402602001604051908101604052809291908181526020018280546115d290612841565b801561161f5780601f106115f45761010080835404028352916020019161161f565b820191906000526020600020905b81548152906001019060200180831161160257829003601f168201915b50505050509080600701805461163490612841565b80601f016020809104026020016040519081016040528092919081815260200182805461166090612841565b80156116ad5780601f10611682576101008083540402835291602001916116ad565b820191906000526020600020905b81548152906001019060200180831161169057829003601f168201915b5050505050908060080180546116c290612841565b80601f01602080910402602001604051908101604052809291908181526020018280546116ee90612841565b801561173b5780601f106117105761010080835404028352916020019161173b565b820191906000526020600020905b81548152906001019060200180831161171e57829003601f168201915b505050505090508b565b60ca546001600160a01b0316331461176f5760405162461bcd60e51b8152600401610639906127f4565b600091825260cf602052604090912060030180546001600160a01b0319166001600160a01b03909216919091179055565b60038551116117ec5760405162461bcd60e51b815260206004820152601860248201527710dbdb5b5d5b9a5d1e481b985b59481d1bdbc81cda1bdc9d60421b6044820152606401610639565b600160ce60008282546117ff9190612945565b909155505060ce546040805161016081019091528181526020810185601481111561182c5761182c612242565b815260200184600181111561184357611843612242565b81523360208083019190915260006040808401829052606084018290526080840182905260a0840182905260c084018b905260e0840187905261010090930189905284815260cf825291909120825181559082015160018083018054909160ff1991909116908360148111156118bb576118bb612242565b021790555060408201518160010160016101000a81548160ff021916908360018111156118ea576118ea612242565b021790555060608201516001820180546001600160a01b03928316620100000262010000600160b01b031990911617905560808301516002830180549183166001600160a01b031992831617905560a084015160038401805491841691831691909117905560c084015160048401805491841691831691909117905560e08401516005840180549190931691161790556101008201518051611996916006840191602090910190612009565b5061012082015180516119b3916007840191602090910190612009565b5061014082015180516119d0916008840191602090910190612009565b505033600090815260d060209081526040822080546001810182559083529082200183905560d19150856014811115611a0b57611a0b612242565b6014811115611a1c57611a1c612242565b81526020808201929092526040016000908120805460018101825590825291902001555050505050565b611a4e611abc565b6001600160a01b038116611ab35760405162461bcd60e51b815260206004820152602660248201527f4f776e61626c653a206e6577206f776e657220697320746865207a65726f206160448201526564647265737360d01b6064820152608401610639565b610ce181611c8e565b6033546001600160a01b031633146112285760405162461bcd60e51b815260206004820181905260248201527f4f776e61626c653a2063616c6c6572206973206e6f7420746865206f776e65726044820152606401610639565b610ce1611abc565b7f4910fdfa16fed3260ed0e7147f7cc6da11a60208b5b9406d12a635614ffd91435460ff1615611b5657611b5183611d36565b505050565b826001600160a01b03166352d1902d6040518163ffffffff1660e01b8152600401602060405180830381865afa925050508015611bb0575060408051601f3d908101601f19168201909252611bad918101906127db565b60015b611c135760405162461bcd60e51b815260206004820152602e60248201527f45524331393637557067726164653a206e657720696d706c656d656e7461746960448201526d6f6e206973206e6f74205555505360901b6064820152608401610639565b6000805160206129d88339815191528114611c825760405162461bcd60e51b815260206004820152602960248201527f45524331393637557067726164653a20756e737570706f727465642070726f786044820152681a58589b195555525160ba1b6064820152608401610639565b50611b51838383611dd2565b603380546001600160a01b038381166001600160a01b0319831681179093556040519116919082907f8be0079c531659141344cd1fd0a4f28419497f9722a3daafe3b4186f6b6457e090600090a35050565b600054610100900460ff16611d075760405162461bcd60e51b81526004016106399061295d565b611228611dfd565b600054610100900460ff166112285760405162461bcd60e51b81526004016106399061295d565b6001600160a01b0381163b611da35760405162461bcd60e51b815260206004820152602d60248201527f455243313936373a206e657720696d706c656d656e746174696f6e206973206e60448201526c1bdd08184818dbdb9d1c9858dd609a1b6064820152608401610639565b6000805160206129d883398151915280546001600160a01b0319166001600160a01b0392909216919091179055565b611ddb83611e2d565b600082511180611de85750805b15611b5157611df78383611e6d565b50505050565b600054610100900460ff16611e245760405162461bcd60e51b81526004016106399061295d565b61122833611c8e565b611e3681611d36565b6040516001600160a01b038216907fbc7cd75a20ee27fd9adebab32041f755214dbc6bffa90cc0225b39da2e5c2d3b90600090a250565b60606001600160a01b0383163b611ed55760405162461bcd60e51b815260206004820152602660248201527f416464726573733a2064656c65676174652063616c6c20746f206e6f6e2d636f6044820152651b9d1c9858dd60d21b6064820152608401610639565b600080846001600160a01b031684604051611ef091906129a8565b600060405180830381855af49150503d8060008114611f2b576040519150601f19603f3d011682016040523d82523d6000602084013e611f30565b606091505b5091509150611f5882826040518060600160405280602781526020016129f860279139611f61565b95945050505050565b60608315611f70575081611f7a565b611f7a8383611f81565b9392505050565b815115611f915781518083602001fd5b8060405162461bcd60e51b815260040161063991906129c4565b604080516101608101909152600080825260208201908152602001600081526000602082018190526040820181905260608083018290526080830182905260a083019190915260c0820181905260e082018190526101009091015290565b82805461201590612841565b90600052602060002090601f016020900481019282612037576000855561207d565b82601f1061205057805160ff191683800117855561207d565b8280016001018555821561207d579182015b8281111561207d578251825591602001919060010190612062565b5061208992915061208d565b5090565b5b80821115612089576000815560010161208e565b634e487b7160e01b600052604160045260246000fd5b604051601f8201601f1916810167ffffffffffffffff811182821017156120e1576120e16120a2565b604052919050565b80356001600160a01b038116811461210057600080fd5b919050565b803563ffffffff8116811461210057600080fd5b6000806000806080858703121561212f57600080fd5b843593506020808601359350604086013567ffffffffffffffff8082111561215657600080fd5b818801915088601f83011261216a57600080fd5b81358181111561217c5761217c6120a2565b8060051b915061218d8483016120b8565b818152918301840191848101908b8411156121a757600080fd5b938501935b838510156121cc576121bd856120e9565b825293850193908501906121ac565b8097505050505050506121e160608601612105565b905092959194509250565b600080604083850312156121ff57600080fd5b8235915061220f602084016120e9565b90509250929050565b80356015811061210057600080fd5b60006020828403121561223957600080fd5b611f7a82612218565b634e487b7160e01b600052602160045260246000fd5b6015811061226857612268612242565b9052565b6002811061226857612268612242565b60005b8381101561229757818101518382015260200161227f565b83811115611df75750506000910152565b600081518084526122c081602086016020860161227c565b601f01601f19169290920160200192915050565b60006020808301818452808551808352604092508286019150828160051b87010184880160005b838110156123e857603f19898403018552815161016081518552888201516123258a870182612258565b50878201516123368987018261226c565b506060828101516001600160a01b039081169187019190915260808084015182169087015260a08084015182169087015260c08084015182169087015260e0808401519091169086015261010080830151818701839052612399838801826122a8565b9250505061012080830151868303828801526123b583826122a8565b9250505061014080830151925085820381870152506123d481836122a8565b9689019694505050908601906001016122fb565b509098975050505050505050565b600080600080600060a0868803121561240e57600080fd5b612417866120e9565b9450612425602087016120e9565b9350612433604087016120e9565b9250612441606087016120e9565b915061244f608087016120e9565b90509295509295909350565b60006020828403121561246d57600080fd5b611f7a826120e9565b6000806040838503121561248957600080fd5b61249283612218565b946020939093013593505050565b600067ffffffffffffffff8311156124ba576124ba6120a2565b6124cd601f8401601f19166020016120b8565b90508281528383830111156124e157600080fd5b828260208301376000602084830101529392505050565b6000806040838503121561250b57600080fd5b612514836120e9565b9150602083013567ffffffffffffffff81111561253057600080fd5b8301601f8101851361254157600080fd5b612550858235602084016124a0565b9150509250929050565b600082601f83011261256b57600080fd5b611f7a838335602085016124a0565b80356002811061210057600080fd5b600080600080600060a086880312156125a157600080fd5b85359450602086013567ffffffffffffffff808211156125c057600080fd5b6125cc89838a0161255a565b955060408801359150808211156125e257600080fd5b6125ee89838a0161255a565b94506125fc6060890161257a565b9350608088013591508082111561261257600080fd5b5061261f8882890161255a565b9150509295509295909350565b60006020828403121561263e57600080fd5b5035919050565b6000806040838503121561265857600080fd5b612492836120e9565b60006101608d8352612676602084018e612258565b612683604084018d61226c565b6001600160a01b038b811660608501528a8116608085015289811660a085015288811660c0850152871660e084015261010083018190526126c6818401876122a8565b90508281036101208401526126db81866122a8565b90508281036101408401526126f081856122a8565b9e9d5050505050505050505050505050565b600080600080600060a0868803121561271a57600080fd5b853567ffffffffffffffff8082111561273257600080fd5b61273e89838a0161255a565b9650602088013591508082111561275457600080fd5b61276089838a0161255a565b95506125ee60408901612218565b600060808201868352602086818501526080604085015281865180845260a086019150828801935060005b818110156127be5784516001600160a01b031683529383019391830191600101612799565b505080935050505063ffffffff8316606083015295945050505050565b6000602082840312156127ed57600080fd5b5051919050565b60208082526019908201527f4e6f2041636365737320666f72207468697320616374696f6e00000000000000604082015260600190565b634e487b7160e01b600052603260045260246000fd5b600181811c9082168061285557607f821691505b6020821081141561287657634e487b7160e01b600052602260045260246000fd5b50919050565b634e487b7160e01b600052601160045260246000fd5b60006000198214156128a6576128a661287c565b5060010190565b6020808252602c908201527f46756e6374696f6e206d7573742062652063616c6c6564207468726f7567682060408201526b19195b1959d85d1958d85b1b60a21b606082015260800190565b6020808252602c908201527f46756e6374696f6e206d7573742062652063616c6c6564207468726f7567682060408201526b6163746976652070726f787960a01b606082015260800190565b600082198211156129585761295861287c565b500190565b6020808252602b908201527f496e697469616c697a61626c653a20636f6e7472616374206973206e6f74206960408201526a6e697469616c697a696e6760a81b606082015260800190565b600082516129ba81846020870161227c565b9190910192915050565b602081526000611f7a60208301846122a856fe360894a13ba1a3210667c828492db98dca3e2076cc3735a920a3ca505d382bbc416464726573733a206c6f772d6c6576656c2064656c65676174652063616c6c206661696c6564a2646970667358221220bb4fa2ea140db2af2a1b6bf5ec10ce657948a9aef27077cfda371a2d53790fce64736f6c634300080c0033",
  "linkReferences": {},
  "deployedLinkReferences": {}
}