{
  "_format": "hh-sol-artifact-1",
  "contractName": "NFTCollection",
  "sourceName": "src/backend/contracts/_NFTCollection.sol",
  "abi": [
    {
      "inputs": [
        {
          "internalType": "address",
          "name": "_mainContract",
          "type": "address"
        },
        {
          "internalType": "string",
          "name": "_name",
          "type": "string"
        },
        {
          "internalType": "string",
          "name": "_symbol",
          "type": "string"
        },
        {
          "internalType": "address",
          "name": "_owner",
          "type": "address"
        },
        {
          "internalType": "contract IWorldID",
          "name": "_worldId",
          "type": "address"
        }
      ],
      "stateMutability": "nonpayable",
      "type": "constructor"
    },
    {
      "inputs": [],
      "name": "InvalidNullifier",
      "type": "error"
    },
    {
      "anonymous": false,
      "inputs": [
        {
          "indexed": true,
          "internalType": "address",
          "name": "account",
          "type": "address"
        },
        {
          "indexed": true,
          "internalType": "address",
          "name": "operator",
          "type": "address"
        },
        {
          "indexed": false,
          "internalType": "bool",
          "name": "approved",
          "type": "bool"
        }
      ],
      "name": "ApprovalForAll",
      "type": "event"
    },
    {
      "anonymous": false,
      "inputs": [
        {
          "indexed": true,
          "internalType": "uint256",
          "name": "_communityId",
          "type": "uint256"
        },
        {
          "indexed": true,
          "internalType": "uint256",
          "name": "_campaignId",
          "type": "uint256"
        },
        {
          "indexed": true,
          "internalType": "string",
          "name": "_campaignType",
          "type": "string"
        },
        {
          "indexed": false,
          "internalType": "address",
          "name": "_address",
          "type": "address"
        },
        {
          "indexed": false,
          "internalType": "uint256",
          "name": "_deposit",
          "type": "uint256"
        },
        {
          "indexed": false,
          "internalType": "string",
          "name": "_email",
          "type": "string"
        },
        {
          "indexed": false,
          "internalType": "uint256",
          "name": "_dateTime",
          "type": "uint256"
        }
      ],
      "name": "CampaignAction",
      "type": "event"
    },
    {
      "anonymous": false,
      "inputs": [
        {
          "indexed": true,
          "internalType": "address",
          "name": "previousOwner",
          "type": "address"
        },
        {
          "indexed": true,
          "internalType": "address",
          "name": "newOwner",
          "type": "address"
        }
      ],
      "name": "OwnershipTransferred",
      "type": "event"
    },
    {
      "anonymous": false,
      "inputs": [
        {
          "indexed": false,
          "internalType": "address",
          "name": "account",
          "type": "address"
        }
      ],
      "name": "Paused",
      "type": "event"
    },
    {
      "anonymous": false,
      "inputs": [
        {
          "indexed": true,
          "internalType": "address",
          "name": "operator",
          "type": "address"
        },
        {
          "indexed": true,
          "internalType": "address",
          "name": "from",
          "type": "address"
        },
        {
          "indexed": true,
          "internalType": "address",
          "name": "to",
          "type": "address"
        },
        {
          "indexed": false,
          "internalType": "uint256[]",
          "name": "ids",
          "type": "uint256[]"
        },
        {
          "indexed": false,
          "internalType": "uint256[]",
          "name": "values",
          "type": "uint256[]"
        }
      ],
      "name": "TransferBatch",
      "type": "event"
    },
    {
      "anonymous": false,
      "inputs": [
        {
          "indexed": true,
          "internalType": "address",
          "name": "operator",
          "type": "address"
        },
        {
          "indexed": true,
          "internalType": "address",
          "name": "from",
          "type": "address"
        },
        {
          "indexed": true,
          "internalType": "address",
          "name": "to",
          "type": "address"
        },
        {
          "indexed": false,
          "internalType": "uint256",
          "name": "id",
          "type": "uint256"
        },
        {
          "indexed": false,
          "internalType": "uint256",
          "name": "value",
          "type": "uint256"
        }
      ],
      "name": "TransferSingle",
      "type": "event"
    },
    {
      "anonymous": false,
      "inputs": [
        {
          "indexed": false,
          "internalType": "string",
          "name": "value",
          "type": "string"
        },
        {
          "indexed": true,
          "internalType": "uint256",
          "name": "id",
          "type": "uint256"
        }
      ],
      "name": "URI",
      "type": "event"
    },
    {
      "anonymous": false,
      "inputs": [
        {
          "indexed": false,
          "internalType": "address",
          "name": "account",
          "type": "address"
        }
      ],
      "name": "Unpaused",
      "type": "event"
    },
    {
      "inputs": [
        {
          "internalType": "address",
          "name": "account",
          "type": "address"
        },
        {
          "internalType": "uint256",
          "name": "id",
          "type": "uint256"
        }
      ],
      "name": "balanceOf",
      "outputs": [
        {
          "internalType": "uint256",
          "name": "",
          "type": "uint256"
        }
      ],
      "stateMutability": "view",
      "type": "function"
    },
    {
      "inputs": [
        {
          "internalType": "address[]",
          "name": "accounts",
          "type": "address[]"
        },
        {
          "internalType": "uint256[]",
          "name": "ids",
          "type": "uint256[]"
        }
      ],
      "name": "balanceOfBatch",
      "outputs": [
        {
          "internalType": "uint256[]",
          "name": "",
          "type": "uint256[]"
        }
      ],
      "stateMutability": "view",
      "type": "function"
    },
    {
      "inputs": [
        {
          "internalType": "uint256",
          "name": "_collectionId",
          "type": "uint256"
        }
      ],
      "name": "cancelDistributionCampaign",
      "outputs": [],
      "stateMutability": "nonpayable",
      "type": "function"
    },
    {
      "inputs": [
        {
          "internalType": "uint256",
          "name": "",
          "type": "uint256"
        }
      ],
      "name": "collections",
      "outputs": [
        {
          "internalType": "string",
          "name": "title",
          "type": "string"
        },
        {
          "internalType": "string",
          "name": "jsonUri",
          "type": "string"
        },
        {
          "internalType": "string",
          "name": "mediaUri",
          "type": "string"
        },
        {
          "internalType": "uint256",
          "name": "id",
          "type": "uint256"
        },
        {
          "internalType": "uint256",
          "name": "price",
          "type": "uint256"
        },
        {
          "internalType": "uint256",
          "name": "supply",
          "type": "uint256"
        },
        {
          "internalType": "uint256",
          "name": "mintedTotal",
          "type": "uint256"
        },
        {
          "components": [
            {
              "internalType": "address",
              "name": "account",
              "type": "address"
            },
            {
              "internalType": "uint256",
              "name": "percent",
              "type": "uint256"
            }
          ],
          "internalType": "struct NFTCollection.CollectionRoyalty",
          "name": "royalty",
          "type": "tuple"
        },
        {
          "components": [
            {
              "internalType": "uint256",
              "name": "dateStart",
              "type": "uint256"
            },
            {
              "internalType": "uint256",
              "name": "dateEnd",
              "type": "uint256"
            },
            {
              "internalType": "uint256",
              "name": "eventCode",
              "type": "uint256"
            },
            {
              "internalType": "enum NFTCollection.DistributionType",
              "name": "distType",
              "type": "uint8"
            },
            {
              "internalType": "address[]",
              "name": "whitelist",
              "type": "address[]"
            },
            {
              "internalType": "string",
              "name": "worldcoinAction",
              "type": "string"
            }
          ],
          "internalType": "struct NFTCollection.DistributionCampaign",
          "name": "distribution",
          "type": "tuple"
        }
      ],
      "stateMutability": "view",
      "type": "function"
    },
    {
      "inputs": [],
      "name": "collectionsTotal",
      "outputs": [
        {
          "internalType": "uint256",
          "name": "",
          "type": "uint256"
        }
      ],
      "stateMutability": "view",
      "type": "function"
    },
    {
      "inputs": [
        {
          "internalType": "uint256",
          "name": "_collectionId",
          "type": "uint256"
        },
        {
          "internalType": "enum NFTCollection.DistributionType",
          "name": "_distType",
          "type": "uint8"
        },
        {
          "internalType": "uint256",
          "name": "_dateStart",
          "type": "uint256"
        },
        {
          "internalType": "uint256",
          "name": "_dateEnd",
          "type": "uint256"
        },
        {
          "internalType": "address[]",
          "name": "_whitelist",
          "type": "address[]"
        },
        {
          "internalType": "string",
          "name": "_worldcoinAction",
          "type": "string"
        }
      ],
      "name": "createDistributionCampaign",
      "outputs": [],
      "stateMutability": "nonpayable",
      "type": "function"
    },
    {
      "inputs": [
        {
          "internalType": "uint256",
          "name": "id",
          "type": "uint256"
        }
      ],
      "name": "exists",
      "outputs": [
        {
          "internalType": "bool",
          "name": "",
          "type": "bool"
        }
      ],
      "stateMutability": "view",
      "type": "function"
    },
    {
      "inputs": [],
      "name": "getCollections",
      "outputs": [
        {
          "components": [
            {
              "internalType": "string",
              "name": "title",
              "type": "string"
            },
            {
              "internalType": "string",
              "name": "jsonUri",
              "type": "string"
            },
            {
              "internalType": "string",
              "name": "mediaUri",
              "type": "string"
            },
            {
              "internalType": "uint256",
              "name": "id",
              "type": "uint256"
            },
            {
              "internalType": "uint256",
              "name": "price",
              "type": "uint256"
            },
            {
              "internalType": "uint256",
              "name": "supply",
              "type": "uint256"
            },
            {
              "internalType": "uint256",
              "name": "mintedTotal",
              "type": "uint256"
            },
            {
              "components": [
                {
                  "internalType": "address",
                  "name": "account",
                  "type": "address"
                },
                {
                  "internalType": "uint256",
                  "name": "percent",
                  "type": "uint256"
                }
              ],
              "internalType": "struct NFTCollection.CollectionRoyalty",
              "name": "royalty",
              "type": "tuple"
            },
            {
              "components": [
                {
                  "internalType": "uint256",
                  "name": "dateStart",
                  "type": "uint256"
                },
                {
                  "internalType": "uint256",
                  "name": "dateEnd",
                  "type": "uint256"
                },
                {
                  "internalType": "uint256",
                  "name": "eventCode",
                  "type": "uint256"
                },
                {
                  "internalType": "enum NFTCollection.DistributionType",
                  "name": "distType",
                  "type": "uint8"
                },
                {
                  "internalType": "address[]",
                  "name": "whitelist",
                  "type": "address[]"
                },
                {
                  "internalType": "string",
                  "name": "worldcoinAction",
                  "type": "string"
                }
              ],
              "internalType": "struct NFTCollection.DistributionCampaign",
              "name": "distribution",
              "type": "tuple"
            }
          ],
          "internalType": "struct NFTCollection.Collection[]",
          "name": "",
          "type": "tuple[]"
        }
      ],
      "stateMutability": "view",
      "type": "function"
    },
    {
      "inputs": [
        {
          "internalType": "address",
          "name": "account",
          "type": "address"
        },
        {
          "internalType": "address",
          "name": "operator",
          "type": "address"
        }
      ],
      "name": "isApprovedForAll",
      "outputs": [
        {
          "internalType": "bool",
          "name": "",
          "type": "bool"
        }
      ],
      "stateMutability": "view",
      "type": "function"
    },
    {
      "inputs": [
        {
          "internalType": "address",
          "name": "_account",
          "type": "address"
        },
        {
          "internalType": "uint256",
          "name": "_collectionId",
          "type": "uint256"
        },
        {
          "internalType": "uint256",
          "name": "_amount",
          "type": "uint256"
        }
      ],
      "name": "mint",
      "outputs": [],
      "stateMutability": "nonpayable",
      "type": "function"
    },
    {
      "inputs": [
        {
          "internalType": "uint256",
          "name": "",
          "type": "uint256"
        },
        {
          "internalType": "address",
          "name": "",
          "type": "address"
        }
      ],
      "name": "mintedList",
      "outputs": [
        {
          "internalType": "bool",
          "name": "",
          "type": "bool"
        }
      ],
      "stateMutability": "view",
      "type": "function"
    },
    {
      "inputs": [],
      "name": "mintedTotal",
      "outputs": [
        {
          "internalType": "uint256",
          "name": "",
          "type": "uint256"
        }
      ],
      "stateMutability": "view",
      "type": "function"
    },
    {
      "inputs": [],
      "name": "name",
      "outputs": [
        {
          "internalType": "string",
          "name": "",
          "type": "string"
        }
      ],
      "stateMutability": "view",
      "type": "function"
    },
    {
      "inputs": [
        {
          "internalType": "string",
          "name": "_jsonUri",
          "type": "string"
        },
        {
          "internalType": "string",
          "name": "_mediaUri",
          "type": "string"
        },
        {
          "internalType": "string",
          "name": "_title",
          "type": "string"
        },
        {
          "internalType": "uint256",
          "name": "_price",
          "type": "uint256"
        },
        {
          "internalType": "uint256",
          "name": "_supply",
          "type": "uint256"
        },
        {
          "components": [
            {
              "internalType": "address",
              "name": "account",
              "type": "address"
            },
            {
              "internalType": "uint256",
              "name": "percent",
              "type": "uint256"
            }
          ],
          "internalType": "struct NFTCollection.CollectionRoyalty",
          "name": "_royalty",
          "type": "tuple"
        }
      ],
      "name": "newCollectionItem",
      "outputs": [],
      "stateMutability": "nonpayable",
      "type": "function"
    },
    {
      "inputs": [],
      "name": "owner",
      "outputs": [
        {
          "internalType": "address",
          "name": "",
          "type": "address"
        }
      ],
      "stateMutability": "view",
      "type": "function"
    },
    {
      "inputs": [],
      "name": "pause",
      "outputs": [],
      "stateMutability": "nonpayable",
      "type": "function"
    },
    {
      "inputs": [],
      "name": "paused",
      "outputs": [
        {
          "internalType": "bool",
          "name": "",
          "type": "bool"
        }
      ],
      "stateMutability": "view",
      "type": "function"
    },
    {
      "inputs": [
        {
          "internalType": "uint256",
          "name": "_communityId",
          "type": "uint256"
        },
        {
          "internalType": "uint256",
          "name": "_collectionId",
          "type": "uint256"
        },
        {
          "internalType": "uint256",
          "name": "_amount",
          "type": "uint256"
        },
        {
          "internalType": "uint256",
          "name": "_eventCode",
          "type": "uint256"
        },
        {
          "internalType": "string",
          "name": "_email",
          "type": "string"
        },
        {
          "internalType": "uint256",
          "name": "root",
          "type": "uint256"
        },
        {
          "internalType": "uint256",
          "name": "nullifierHash",
          "type": "uint256"
        },
        {
          "internalType": "uint256[8]",
          "name": "proof",
          "type": "uint256[8]"
        }
      ],
      "name": "payToMint",
      "outputs": [],
      "stateMutability": "payable",
      "type": "function"
    },
    {
      "inputs": [],
      "name": "renounceOwnership",
      "outputs": [],
      "stateMutability": "nonpayable",
      "type": "function"
    },
    {
      "inputs": [
        {
          "internalType": "address",
          "name": "from",
          "type": "address"
        },
        {
          "internalType": "address",
          "name": "to",
          "type": "address"
        },
        {
          "internalType": "uint256[]",
          "name": "ids",
          "type": "uint256[]"
        },
        {
          "internalType": "uint256[]",
          "name": "amounts",
          "type": "uint256[]"
        },
        {
          "internalType": "bytes",
          "name": "data",
          "type": "bytes"
        }
      ],
      "name": "safeBatchTransferFrom",
      "outputs": [],
      "stateMutability": "nonpayable",
      "type": "function"
    },
    {
      "inputs": [
        {
          "internalType": "address",
          "name": "from",
          "type": "address"
        },
        {
          "internalType": "address",
          "name": "to",
          "type": "address"
        },
        {
          "internalType": "uint256",
          "name": "id",
          "type": "uint256"
        },
        {
          "internalType": "uint256",
          "name": "amount",
          "type": "uint256"
        },
        {
          "internalType": "bytes",
          "name": "data",
          "type": "bytes"
        }
      ],
      "name": "safeTransferFrom",
      "outputs": [],
      "stateMutability": "nonpayable",
      "type": "function"
    },
    {
      "inputs": [
        {
          "internalType": "address",
          "name": "operator",
          "type": "address"
        },
        {
          "internalType": "bool",
          "name": "approved",
          "type": "bool"
        }
      ],
      "name": "setApprovalForAll",
      "outputs": [],
      "stateMutability": "nonpayable",
      "type": "function"
    },
    {
      "inputs": [
        {
          "internalType": "bytes4",
          "name": "interfaceId",
          "type": "bytes4"
        }
      ],
      "name": "supportsInterface",
      "outputs": [
        {
          "internalType": "bool",
          "name": "",
          "type": "bool"
        }
      ],
      "stateMutability": "view",
      "type": "function"
    },
    {
      "inputs": [],
      "name": "symbol",
      "outputs": [
        {
          "internalType": "string",
          "name": "",
          "type": "string"
        }
      ],
      "stateMutability": "view",
      "type": "function"
    },
    {
      "inputs": [
        {
          "internalType": "uint256",
          "name": "id",
          "type": "uint256"
        }
      ],
      "name": "totalSupply",
      "outputs": [
        {
          "internalType": "uint256",
          "name": "",
          "type": "uint256"
        }
      ],
      "stateMutability": "view",
      "type": "function"
    },
    {
      "inputs": [
        {
          "internalType": "address",
          "name": "newOwner",
          "type": "address"
        }
      ],
      "name": "transferOwnership",
      "outputs": [],
      "stateMutability": "nonpayable",
      "type": "function"
    },
    {
      "inputs": [],
      "name": "unpause",
      "outputs": [],
      "stateMutability": "nonpayable",
      "type": "function"
    },
    {
      "inputs": [
        {
          "internalType": "uint256",
          "name": "_collectionId",
          "type": "uint256"
        },
        {
          "internalType": "uint256",
          "name": "_price",
          "type": "uint256"
        },
        {
          "internalType": "uint256",
          "name": "_supply",
          "type": "uint256"
        },
        {
          "components": [
            {
              "internalType": "address",
              "name": "account",
              "type": "address"
            },
            {
              "internalType": "uint256",
              "name": "percent",
              "type": "uint256"
            }
          ],
          "internalType": "struct NFTCollection.CollectionRoyalty",
          "name": "_royalty",
          "type": "tuple"
        }
      ],
      "name": "updateCollectionItem",
      "outputs": [],
      "stateMutability": "nonpayable",
      "type": "function"
    },
    {
      "inputs": [
        {
          "internalType": "uint256",
          "name": "_tokenId",
          "type": "uint256"
        }
      ],
      "name": "uri",
      "outputs": [
        {
          "internalType": "string",
          "name": "",
          "type": "string"
        }
      ],
      "stateMutability": "view",
      "type": "function"
    },
    {
      "inputs": [
        {
          "internalType": "address payable",
          "name": "_toAddress",
          "type": "address"
        }
      ],
      "name": "withdrawTokens",
      "outputs": [],
      "stateMutability": "nonpayable",
      "type": "function"
    }
  ],
  "bytecode": "0x60a060405260016080523480156200001657600080fd5b506040516200408e3803806200408e8339810160408190526200003991620003b2565b6040805160208101909152600081526200005381620000dd565b506200005f33620000f6565b6003805460ff60a01b19169055620000778262000148565b83516200008c90600690602087019062000229565b508251620000a290600790602086019062000229565b50600b80546001600160a01b039283166001600160a01b0319918216179091556005805496909216951694909417909355506200049b915050565b8051620000f290600290602084019062000229565b5050565b600380546001600160a01b038381166001600160a01b0319831681179093556040519116919082907f8be0079c531659141344cd1fd0a4f28419497f9722a3daafe3b4186f6b6457e090600090a35050565b62000152620001cb565b6001600160a01b038116620001bd5760405162461bcd60e51b815260206004820152602660248201527f4f776e61626c653a206e6577206f776e657220697320746865207a65726f206160448201526564647265737360d01b60648201526084015b60405180910390fd5b620001c881620000f6565b50565b6003546001600160a01b03163314620002275760405162461bcd60e51b815260206004820181905260248201527f4f776e61626c653a2063616c6c6572206973206e6f7420746865206f776e65726044820152606401620001b4565b565b82805462000237906200045e565b90600052602060002090601f0160209004810192826200025b5760008555620002a6565b82601f106200027657805160ff1916838001178555620002a6565b82800160010185558215620002a6579182015b82811115620002a657825182559160200191906001019062000289565b50620002b4929150620002b8565b5090565b5b80821115620002b45760008155600101620002b9565b6001600160a01b0381168114620001c857600080fd5b634e487b7160e01b600052604160045260246000fd5b600082601f8301126200030d57600080fd5b81516001600160401b03808211156200032a576200032a620002e5565b604051601f8301601f19908116603f01168101908282118183101715620003555762000355620002e5565b816040528381526020925086838588010111156200037257600080fd5b600091505b8382101562000396578582018301518183018401529082019062000377565b83821115620003a85760008385830101525b9695505050505050565b600080600080600060a08688031215620003cb57600080fd5b8551620003d881620002cf565b60208701519095506001600160401b0380821115620003f657600080fd5b6200040489838a01620002fb565b955060408801519150808211156200041b57600080fd5b506200042a88828901620002fb565b93505060608601516200043d81620002cf565b60808701519092506200045081620002cf565b809150509295509295909350565b600181811c908216806200047357607f821691505b602082108114156200049557634e487b7160e01b600052602260045260246000fd5b50919050565b608051613bd7620004b7600039600061191b0152613bd76000f3fe6080604052600436106101cc5760003560e01c80635e7ea74c116100f7578063a22cb46511610095578063f242432a11610064578063f242432a1461056e578063f2fde38b1461058e578063f944a55f146105ae578063fdbda0ec146105c157600080fd5b8063a22cb465146104b8578063bd85b039146104d8578063cb27d43f14610505578063e985e9c51461052557600080fd5b806385c9d321116100d157806385c9d3211461042a578063891aaf68146104655780638da5cb5b1461047b57806395d89b41146104a357600080fd5b80635e7ea74c146103e0578063715018a6146104005780638456cb591461041557600080fd5b8063360ca3b91161016f57806349df728c1161013e57806349df728c146103455780634e1273f4146103655780634f558e79146103925780635c975abb146103c157600080fd5b8063360ca3b9146102ce578063381da488146102ee5780633f4ba83a1461030e57806346e635861461032357600080fd5b80630e89341c116101ab5780630e89341c14610256578063156e29f6146102765780632e17af07146102985780632eb2c2d6146102ae57600080fd5b8062fdd58e146101d157806301ffc9a71461020457806306fdde0314610234575b600080fd5b3480156101dd57600080fd5b506101f16101ec366004612d30565b6105f6565b6040519081526020015b60405180910390f35b34801561021057600080fd5b5061022461021f366004612d72565b61068c565b60405190151581526020016101fb565b34801561024057600080fd5b506102496106de565b6040516101fb9190612de7565b34801561026257600080fd5b50610249610271366004612dfa565b61076c565b34801561028257600080fd5b50610296610291366004612e13565b610832565b005b3480156102a457600080fd5b506101f160085481565b3480156102ba57600080fd5b506102966102c9366004612f94565b6109a6565b3480156102da57600080fd5b506102966102e93660046130b1565b6109f2565b3480156102fa57600080fd5b50610296610309366004612dfa565b610b1b565b34801561031a57600080fd5b50610296610bd4565b34801561032f57600080fd5b50610338610be6565b6040516101fb9190613212565b34801561035157600080fd5b5061029661036036600461331c565b610fd0565b34801561037157600080fd5b50610385610380366004613339565b611057565b6040516101fb91906133d8565b34801561039e57600080fd5b506102246103ad366004612dfa565b600090815260046020526040902054151590565b3480156103cd57600080fd5b50600354600160a01b900460ff16610224565b3480156103ec57600080fd5b506102966103fb366004613444565b611181565b34801561040c57600080fd5b50610296611324565b34801561042157600080fd5b50610296611336565b34801561043657600080fd5b50610224610445366004613484565b600d60209081526000928352604080842090915290825290205460ff1681565b34801561047157600080fd5b506101f160095481565b34801561048757600080fd5b506003546040516001600160a01b0390911681526020016101fb565b3480156104af57600080fd5b50610249611346565b3480156104c457600080fd5b506102966104d33660046134b4565b611353565b3480156104e457600080fd5b506101f16104f3366004612dfa565b60009081526004602052604090205490565b34801561051157600080fd5b506102966105203660046134e7565b61135e565b34801561053157600080fd5b50610224610540366004613593565b6001600160a01b03918216600090815260016020908152604080832093909416825291909152205460ff1690565b34801561057a57600080fd5b506102966105893660046135c1565b6115e6565b34801561059a57600080fd5b506102966105a936600461331c565b61162b565b6102966105bc36600461362a565b6116a4565b3480156105cd57600080fd5b506105e16105dc366004612dfa565b611bfa565b6040516101fb999897969594939291906136bb565b60006001600160a01b0383166106665760405162461bcd60e51b815260206004820152602a60248201527f455243313135353a2061646472657373207a65726f206973206e6f742061207660448201526930b634b21037bbb732b960b11b60648201526084015b60405180910390fd5b506000908152602081815260408083206001600160a01b03949094168352929052205490565b60006001600160e01b03198216636cdb3d1360e11b14806106bd57506001600160e01b031982166303a24d0760e21b145b806106d857506301ffc9a760e01b6001600160e01b03198316145b92915050565b600680546106eb90613754565b80601f016020809104026020016040519081016040528092919081815260200182805461071790613754565b80156107645780601f1061073957610100808354040283529160200191610764565b820191906000526020600020905b81548152906001019060200180831161074757829003601f168201915b505050505081565b60606000600a61077d6001856137a5565b8154811061078d5761078d6137bc565b90600052602060002090600f020190508060010180546107ac90613754565b80601f01602080910402602001604051908101604052809291908181526020018280546107d890613754565b80156108255780601f106107fa57610100808354040283529160200191610825565b820191906000526020600020905b81548152906001019060200180831161080857829003601f168201915b5050505050915050919050565b61083a611f66565b6000811161087e5760405162461bcd60e51b815260206004820152601160248201527015dc9bdb99c81b5a5b9d08185b5bdd5b9d607a1b604482015260640161065d565b6001600160a01b0383166108d45760405162461bcd60e51b815260206004820181905260248201527f57726f6e672064657374696e6174696f6e2077616c6c65742041646472657373604482015260640161065d565b6000600a6108e184611fc0565b815481106108f1576108f16137bc565b90600052602060002090600f0201905060008160050154111561096a5781816006015461091e91906137d2565b8160050154101561096a5760405162461bcd60e51b8152602060048201526016602482015275139bdd08195b9bdd59da081cdd5c1c1b1e481b19599d60521b604482015260640161065d565b8181600601600082825461097e91906137d2565b925050819055506109a08484846040518060200160405280600081525061201d565b50505050565b6001600160a01b0385163314806109c257506109c28533610540565b6109de5760405162461bcd60e51b815260040161065d906137ea565b6109eb8585858585612140565b5050505050565b6109fa611f66565b6000600a610a0788611fc0565b81548110610a1757610a176137bc565b600091825260208220600f9091020191506004876005811115610a3c57610a3c613147565b1415610a5357610a50620f423f600161232b565b90505b6040518060c00160405280878152602001868152602001828152602001886005811115610a8257610a82613147565b81526020808201879052604091820186905282516009860190815590830151600a86015590820151600b8501556060820151600c8501805460ff19166001836005811115610ad257610ad2613147565b021790555060808201518051610af2916004840191602090910190612be6565b5060a08201518051610b0e916005840191602090910190612c4b565b5050505050505050505050565b610b23611f66565b6000600a610b3083611fc0565b81548110610b4057610b406137bc565b90600052602060002090600f02019050610b5861239a565b8051600983019081556020820151600a8401556040820151600b8401556060820151600c8401805460ff19166001836005811115610b9857610b98613147565b021790555060808201518051610bb8916004840191602090910190612be6565b5060a082015180516109eb916005840191602090910190612c4b565b610bdc611f66565b610be4612420565b565b6060600a805480602002602001604051908101604052809291908181526020016000905b82821015610fc757838290600052602060002090600f020160405180610120016040529081600082018054610c3e90613754565b80601f0160208091040260200160405190810160405280929190818152602001828054610c6a90613754565b8015610cb75780601f10610c8c57610100808354040283529160200191610cb7565b820191906000526020600020905b815481529060010190602001808311610c9a57829003601f168201915b50505050508152602001600182018054610cd090613754565b80601f0160208091040260200160405190810160405280929190818152602001828054610cfc90613754565b8015610d495780601f10610d1e57610100808354040283529160200191610d49565b820191906000526020600020905b815481529060010190602001808311610d2c57829003601f168201915b50505050508152602001600282018054610d6290613754565b80601f0160208091040260200160405190810160405280929190818152602001828054610d8e90613754565b8015610ddb5780601f10610db057610100808354040283529160200191610ddb565b820191906000526020600020905b815481529060010190602001808311610dbe57829003601f168201915b5050505050815260200160038201548152602001600482015481526020016005820154815260200160068201548152602001600782016040518060400160405290816000820160009054906101000a90046001600160a01b03166001600160a01b03166001600160a01b031681526020016001820154815250508152602001600982016040518060c00160405290816000820154815260200160018201548152602001600282015481526020016003820160009054906101000a900460ff166005811115610eab57610eab613147565b6005811115610ebc57610ebc613147565b815260200160048201805480602002602001604051908101604052809291908181526020018280548015610f1957602002820191906000526020600020905b81546001600160a01b03168152600190910190602001808311610efb575b50505050508152602001600582018054610f3290613754565b80601f0160208091040260200160405190810160405280929190818152602001828054610f5e90613754565b8015610fab5780601f10610f8057610100808354040283529160200191610fab565b820191906000526020600020905b815481529060010190602001808311610f8e57829003601f168201915b5050505050815250508152505081526020019060010190610c0a565b50505050905090565b610fd8611f66565b6001600160a01b03811661101e5760405162461bcd60e51b815260206004820152600d60248201526c57726f6e67206164647265737360981b604482015260640161065d565b6040516001600160a01b038216904780156108fc02916000818181858888f19350505050158015611053573d6000803e3d6000fd5b5050565b606081518351146110bc5760405162461bcd60e51b815260206004820152602960248201527f455243313135353a206163636f756e747320616e6420696473206c656e677468604482015268040dad2e6dac2e8c6d60bb1b606482015260840161065d565b6000835167ffffffffffffffff8111156110d8576110d8612e48565b604051908082528060200260200182016040528015611101578160200160208202803683370190505b50905060005b84518110156111795761114c858281518110611125576111256137bc565b602002602001015185838151811061113f5761113f6137bc565b60200260200101516105f6565b82828151811061115e5761115e6137bc565b602090810291909101015261117281613839565b9050611107565b509392505050565b611189611f66565b6000600a61119686611fc0565b815481106111a6576111a66137bc565b60009182526020909120600f909102019050821561121c57806006015483101561121c5760405162461bcd60e51b815260206004820152602160248201527f537570706c79206973206c6573732074686174206d696e74656420616d6f756e6044820152601d60fa1b606482015260840161065d565b81516001600160a01b0316156112e45760008260200151116112805760405162461bcd60e51b815260206004820152601e60248201527f506c656173652070726f7669646520726f79616c74792070657263656e740000604482015260640161065d565b605a826020015111156112e45760405162461bcd60e51b815260206004820152602660248201527f526f79616c74792070657263656e742063616e2774206265206d6f7265207468604482015265616e2039302560d01b606482015260840161065d565b6004810193909355600583019190915580516007830180546001600160a01b0319166001600160a01b039092169190911790556020015160089091015550565b61132c611f66565b610be46000612475565b61133e611f66565b610be46124c7565b600780546106eb90613754565b61105333838361250a565b611366611f66565b60008651116113a85760405162461bcd60e51b815260206004820152600e60248201526d57726f6e67206a736f6e2055524960901b604482015260640161065d565b60008551116113eb5760405162461bcd60e51b815260206004820152600f60248201526e57726f6e67206d656469612055524960881b604482015260640161065d565b80516001600160a01b03161561146f57600081602001511180156114145750605a816020015111155b61146f5760405162461bcd60e51b815260206004820152602660248201527f506c656173652070726f7669646520636f727265637420726f79616c74792070604482015265195c98d95b9d60d21b606482015260840161065d565b60016008600082825461148291906137d2565b92505081905550600a6040518061012001604052808681526020018881526020018781526020016008548152602001858152602001848152602001600081526020018381526020016114d261239a565b905281546001810183556000928352602092839020825180519394600f909302909101926115039284920190612c4b565b50602082810151805161151c9260018501920190612c4b565b5060408201518051611538916002840191602090910190612c4b565b5060608281015160038301556080830151600483015560a083015160058084019190915560c0840151600684015560e084015180516007850180546001600160a01b0319166001600160a01b03909216919091179055602090810151600885015561010085015180516009860190815591810151600a8601556040810151600b86015592830151600c8501805492939192909160ff19909116906001908490811115610ad257610ad2613147565b6001600160a01b03851633148061160257506116028533610540565b61161e5760405162461bcd60e51b815260040161065d906137ea565b6109eb85858585856125eb565b611633611f66565b6001600160a01b0381166116985760405162461bcd60e51b815260206004820152602660248201527f4f776e61626c653a206e6577206f776e657220697320746865207a65726f206160448201526564647265737360d01b606482015260840161065d565b6116a181612475565b50565b6116ac612723565b6000600a6116b989611fc0565b815481106116c9576116c96137bc565b600091825260208083208b8452600d82526040808520338652909252922054600f909102909101915060ff161561173b5760405162461bcd60e51b8152602060048201526016602482015275165bdd48185b1c9958591e481b5a5b9d19590813919560521b604482015260640161065d565b6000871161177f5760405162461bcd60e51b815260206004820152601160248201527015dc9bdb99c81b5a5b9d08185b5bdd5b9d607a1b604482015260640161065d565b6005810154156117e55786816006015461179991906137d2565b816005015410156117e55760405162461bcd60e51b8152602060048201526016602482015275139bdd08195b9bdd59da081cdd5c1c1b1e481b19599d60521b604482015260640161065d565b6004810154156118505760008160040154886118019190613854565b90508034101561184a5760405162461bcd60e51b815260206004820152601460248201527315dc9bdb99c81c185e5b595b9d08185b5bdd5b9d60621b604482015260640161065d565b506118a0565b866001146118a05760405162461bcd60e51b815260206004820152601e60248201527f596f752063616e2774206d696e74206d6f7265207468616e2031204e46540000604482015260640161065d565b60008160090160050180546118b490613754565b905011156119e7576000838152600c602052604090205460ff16156118ec57604051632ec8265960e11b815260040160405180910390fd5b600b546040516001600160601b03193360601b1660208201526001600160a01b0390911690633bc778e39086907f000000000000000000000000000000000000000000000000000000000000000090611957906034015b604051602081830303815290604052612770565b6040516001600160601b03193060601b166020820152889061197b90603401611943565b886040518763ffffffff1660e01b815260040161199d96959493929190613873565b60006040518083038186803b1580156119b557600080fd5b505afa1580156119c9573d6000803e3d6000fd5b5050506000848152600c60205260409020805460ff19166001179055505b6004600c82015460ff166005811115611a0257611a02613147565b1415611a4e57600b8101548614611a4e5760405162461bcd60e51b815260206004820152601060248201526f57726f6e67204576656e7420436f646560801b604482015260640161065d565b60078101546001600160a01b031615611b26576008810154600090606490611a769034613854565b611a8091906138c5565b60078301546040519192506000916001600160a01b039091169083908381818185875af1925050503d8060008114611ad4576040519150601f19603f3d011682016040523d82523d6000602084013e611ad9565b606091505b5050905080611b235760405162461bcd60e51b81526020600482015260166024820152754661696c656420746f2073656e6420726f79616c747960501b604482015260640161065d565b50505b6000888152600d602090815260408083203384529091528120805460ff19166001179055600682018054899290611b5e9084906137d2565b925050819055508660096000828254611b7791906137d2565b92505081905550611b993389896040518060200160405280600081525061201d565b6040516213919560ea1b81526003016040518091039020888a7f4fd8aa28898b97c96a5808ef2db034495a9654ea54c7a19309c7e43bb0335acf33348a42604051611be794939291906138d9565b60405180910390a4505050505050505050565b600a8181548110611c0a57600080fd5b90600052602060002090600f0201600091509050806000018054611c2d90613754565b80601f0160208091040260200160405190810160405280929190818152602001828054611c5990613754565b8015611ca65780601f10611c7b57610100808354040283529160200191611ca6565b820191906000526020600020905b815481529060010190602001808311611c8957829003601f168201915b505050505090806001018054611cbb90613754565b80601f0160208091040260200160405190810160405280929190818152602001828054611ce790613754565b8015611d345780601f10611d0957610100808354040283529160200191611d34565b820191906000526020600020905b815481529060010190602001808311611d1757829003601f168201915b505050505090806002018054611d4990613754565b80601f0160208091040260200160405190810160405280929190818152602001828054611d7590613754565b8015611dc25780601f10611d9757610100808354040283529160200191611dc2565b820191906000526020600020905b815481529060010190602001808311611da557829003601f168201915b5050505060038301546004840154600580860154600687015460408051808201825260078a01546001600160a01b0316815260088a0154602080830191909152825160c08101845260098c0180548252600a8d015492820192909252600b8c015493810193909352600c8b0154999a979996985093969295909492939192606084019160ff1690811115611e5857611e58613147565b6005811115611e6957611e69613147565b815260200160048201805480602002602001604051908101604052809291908181526020018280548015611ec657602002820191906000526020600020905b81546001600160a01b03168152600190910190602001808311611ea8575b50505050508152602001600582018054611edf90613754565b80601f0160208091040260200160405190810160405280929190818152602001828054611f0b90613754565b8015611f585780601f10611f2d57610100808354040283529160200191611f58565b820191906000526020600020905b815481529060010190602001808311611f3b57829003601f168201915b505050505081525050905089565b6003546001600160a01b03163314610be45760405162461bcd60e51b815260206004820181905260248201527f4f776e61626c653a2063616c6c6572206973206e6f7420746865206f776e6572604482015260640161065d565b60008082118015611fd357506008548211155b6120125760405162461bcd60e51b815260206004820152601060248201526f2bb937b7339021b7b63632b1ba34b7b760811b604482015260640161065d565b6106d86001836137a5565b6001600160a01b03841661207d5760405162461bcd60e51b815260206004820152602160248201527f455243313135353a206d696e7420746f20746865207a65726f206164647265736044820152607360f81b606482015260840161065d565b336000612089856127a5565b90506000612096856127a5565b90506120a7836000898585896127f0565b6000868152602081815260408083206001600160a01b038b168452909152812080548792906120d79084906137d2565b909155505060408051878152602081018790526001600160a01b03808a1692600092918716917fc3d58168c5ae7397731d063d5bbf3d657854427343f4c083240f7aacaa2d0f62910160405180910390a461213783600089898989612806565b50505050505050565b81518351146121a25760405162461bcd60e51b815260206004820152602860248201527f455243313135353a2069647320616e6420616d6f756e7473206c656e677468206044820152670dad2e6dac2e8c6d60c31b606482015260840161065d565b6001600160a01b0384166121c85760405162461bcd60e51b815260040161065d90613911565b336121d78187878787876127f0565b60005b84518110156122bd5760008582815181106121f7576121f76137bc565b602002602001015190506000858381518110612215576122156137bc565b602090810291909101810151600084815280835260408082206001600160a01b038e1683529093529190912054909150818110156122655760405162461bcd60e51b815260040161065d90613956565b6000838152602081815260408083206001600160a01b038e8116855292528083208585039055908b168252812080548492906122a29084906137d2565b92505081905550505050806122b690613839565b90506121da565b50846001600160a01b0316866001600160a01b0316826001600160a01b03167f4a39dc06d4c0dbc64b70af90fd698a233a518aa5d07e595d983b8c0526c8f7fb878760405161230d9291906139a0565b60405180910390a4612323818787878787612962565b505050505050565b6040516001600160f81b031960f883901b1660208201526001600160601b03193360601b1660218201524460358201524260558201526001607582015260009083906095016040516020818303038152906040528051906020012060001c61239391906139ce565b9392505050565b6123a2612cbf565b6040518060c00160405280600081526020016000815260200160008152602001600060058111156123d5576123d5613147565b81526020016000604051908082528060200260200182016040528015612405578160200160208202803683370190505b50815260408051602081810190925260008152910152919050565b612428612a1d565b6003805460ff60a01b191690557f5db9ee0a495bf2e6ff9c91a7834c1ba4fdd244a5e8aa4e537bd38aeae4b073aa335b6040516001600160a01b03909116815260200160405180910390a1565b600380546001600160a01b038381166001600160a01b0319831681179093556040519116919082907f8be0079c531659141344cd1fd0a4f28419497f9722a3daafe3b4186f6b6457e090600090a35050565b6124cf612723565b6003805460ff60a01b1916600160a01b1790557f62e78cea01bee320cd4e420270b5ea74000d11b0c9f74754ebdbfc544b05a2586124583390565b816001600160a01b0316836001600160a01b0316141561257e5760405162461bcd60e51b815260206004820152602960248201527f455243313135353a2073657474696e6720617070726f76616c20737461747573604482015268103337b91039b2b63360b91b606482015260840161065d565b6001600160a01b03838116600081815260016020908152604080832094871680845294825291829020805460ff191686151590811790915591519182527f17307eab39ab6107e8899845ad3d59bd9653f200f220920489ca2b5937696c31910160405180910390a3505050565b6001600160a01b0384166126115760405162461bcd60e51b815260040161065d90613911565b33600061261d856127a5565b9050600061262a856127a5565b905061263a8389898585896127f0565b6000868152602081815260408083206001600160a01b038c1684529091529020548581101561267b5760405162461bcd60e51b815260040161065d90613956565b6000878152602081815260408083206001600160a01b038d8116855292528083208985039055908a168252812080548892906126b89084906137d2565b909155505060408051888152602081018890526001600160a01b03808b16928c821692918816917fc3d58168c5ae7397731d063d5bbf3d657854427343f4c083240f7aacaa2d0f62910160405180910390a4612718848a8a8a8a8a612806565b505050505050505050565b600354600160a01b900460ff1615610be45760405162461bcd60e51b815260206004820152601060248201526f14185d5cd8589b194e881c185d5cd95960821b604482015260640161065d565b600060088260405160200161278591906139e2565b60408051601f198184030181529190528051602090910120901c92915050565b604080516001808252818301909252606091600091906020808301908036833701905050905082816000815181106127df576127df6137bc565b602090810291909101015292915050565b6127f8612723565b612323868686868686612a6d565b6001600160a01b0384163b156123235760405163f23a6e6160e01b81526001600160a01b0385169063f23a6e619061284a90899089908890889088906004016139fe565b6020604051808303816000875af1925050508015612885575060408051601f3d908101601f1916820190925261288291810190613a38565b60015b61293257612891613a55565b806308c379a014156128cb57506128a6613a71565b806128b157506128cd565b8060405162461bcd60e51b815260040161065d9190612de7565b505b60405162461bcd60e51b815260206004820152603460248201527f455243313135353a207472616e7366657220746f206e6f6e20455243313135356044820152732932b1b2b4bb32b91034b6b83632b6b2b73a32b960611b606482015260840161065d565b6001600160e01b0319811663f23a6e6160e01b146121375760405162461bcd60e51b815260040161065d90613afb565b6001600160a01b0384163b156123235760405163bc197c8160e01b81526001600160a01b0385169063bc197c81906129a69089908990889088908890600401613b43565b6020604051808303816000875af19250505080156129e1575060408051601f3d908101601f191682019092526129de91810190613a38565b60015b6129ed57612891613a55565b6001600160e01b0319811663bc197c8160e01b146121375760405162461bcd60e51b815260040161065d90613afb565b600354600160a01b900460ff16610be45760405162461bcd60e51b815260206004820152601460248201527314185d5cd8589b194e881b9bdd081c185d5cd95960621b604482015260640161065d565b6001600160a01b038516612af45760005b8351811015612af257828181518110612a9957612a996137bc565b602002602001015160046000868481518110612ab757612ab76137bc565b602002602001015181526020019081526020016000206000828254612adc91906137d2565b90915550612aeb905081613839565b9050612a7e565b505b6001600160a01b0384166123235760005b8351811015612137576000848281518110612b2257612b226137bc565b602002602001015190506000848381518110612b4057612b406137bc565b6020026020010151905060006004600084815260200190815260200160002054905081811015612bc35760405162461bcd60e51b815260206004820152602860248201527f455243313135353a206275726e20616d6f756e74206578636565647320746f74604482015267616c537570706c7960c01b606482015260840161065d565b60009283526004602052604090922091039055612bdf81613839565b9050612b05565b828054828255906000526020600020908101928215612c3b579160200282015b82811115612c3b57825182546001600160a01b0319166001600160a01b03909116178255602090920191600190910190612c06565b50612c47929150612d06565b5090565b828054612c5790613754565b90600052602060002090601f016020900481019282612c795760008555612c3b565b82601f10612c9257805160ff1916838001178555612c3b565b82800160010185558215612c3b579182015b82811115612c3b578251825591602001919060010190612ca4565b6040518060c0016040528060008152602001600081526020016000815260200160006005811115612cf257612cf2613147565b815260200160608152602001606081525090565b5b80821115612c475760008155600101612d07565b6001600160a01b03811681146116a157600080fd5b60008060408385031215612d4357600080fd5b8235612d4e81612d1b565b946020939093013593505050565b6001600160e01b0319811681146116a157600080fd5b600060208284031215612d8457600080fd5b813561239381612d5c565b60005b83811015612daa578181015183820152602001612d92565b838111156109a05750506000910152565b60008151808452612dd3816020860160208601612d8f565b601f01601f19169290920160200192915050565b6020815260006123936020830184612dbb565b600060208284031215612e0c57600080fd5b5035919050565b600080600060608486031215612e2857600080fd5b8335612e3381612d1b565b95602085013595506040909401359392505050565b634e487b7160e01b600052604160045260246000fd5b601f8201601f1916810167ffffffffffffffff81118282101715612e8457612e84612e48565b6040525050565b600067ffffffffffffffff821115612ea557612ea5612e48565b5060051b60200190565b600082601f830112612ec057600080fd5b81356020612ecd82612e8b565b604051612eda8282612e5e565b83815260059390931b8501820192828101915086841115612efa57600080fd5b8286015b84811015612f155780358352918301918301612efe565b509695505050505050565b600082601f830112612f3157600080fd5b813567ffffffffffffffff811115612f4b57612f4b612e48565b604051612f62601f8301601f191660200182612e5e565b818152846020838601011115612f7757600080fd5b816020850160208301376000918101602001919091529392505050565b600080600080600060a08688031215612fac57600080fd5b8535612fb781612d1b565b94506020860135612fc781612d1b565b9350604086013567ffffffffffffffff80821115612fe457600080fd5b612ff089838a01612eaf565b9450606088013591508082111561300657600080fd5b61301289838a01612eaf565b9350608088013591508082111561302857600080fd5b5061303588828901612f20565b9150509295509295909350565b600082601f83011261305357600080fd5b8135602061306082612e8b565b60405161306d8282612e5e565b83815260059390931b850182019282810191508684111561308d57600080fd5b8286015b84811015612f155780356130a481612d1b565b8352918301918301613091565b60008060008060008060c087890312156130ca57600080fd5b863595506020870135600681106130e057600080fd5b94506040870135935060608701359250608087013567ffffffffffffffff8082111561310b57600080fd5b6131178a838b01613042565b935060a089013591508082111561312d57600080fd5b5061313a89828a01612f20565b9150509295509295509295565b634e487b7160e01b600052602160045260246000fd5b600060c0830182518452602080840151818601526040840151604086015260608401516006811061319e57634e487b7160e01b600052602160045260246000fd5b606086015260808481015160c09187019190915280519283905281019160009060e08701905b808310156131ed5784516001600160a01b031682529383019360019290920191908301906131c4565b5060a0860151935086810360a08801526132078185612dbb565b979650505050505050565b60006020808301818452808551808352604092508286019150828160051b87010184880160005b8381101561330e57603f198984030185528151610140815181865261326082870182612dbb565b915050888201518582038a8701526132788282612dbb565b91505087820151858203898701526132908282612dbb565b606084810151908801526080808501519088015260a0808501519088015260c0808501519088015260e08085015180516001600160a01b0316828a015260208101516101008a01529193509150505061010082015191508481036101208601526132fa818361315d565b968901969450505090860190600101613239565b509098975050505050505050565b60006020828403121561332e57600080fd5b813561239381612d1b565b6000806040838503121561334c57600080fd5b823567ffffffffffffffff8082111561336457600080fd5b61337086838701613042565b9350602085013591508082111561338657600080fd5b5061339385828601612eaf565b9150509250929050565b600081518084526020808501945080840160005b838110156133cd578151875295820195908201906001016133b1565b509495945050505050565b602081526000612393602083018461339d565b6000604082840312156133fd57600080fd5b6040516040810181811067ffffffffffffffff8211171561342057613420612e48565b604052905080823561343181612d1b565b8152602092830135920191909152919050565b60008060008060a0858703121561345a57600080fd5b84359350602085013592506040850135915061347986606087016133eb565b905092959194509250565b6000806040838503121561349757600080fd5b8235915060208301356134a981612d1b565b809150509250929050565b600080604083850312156134c757600080fd5b82356134d281612d1b565b9150602083013580151581146134a957600080fd5b60008060008060008060e0878903121561350057600080fd5b863567ffffffffffffffff8082111561351857600080fd5b6135248a838b01612f20565b9750602089013591508082111561353a57600080fd5b6135468a838b01612f20565b9650604089013591508082111561355c57600080fd5b5061356989828a01612f20565b94505060608701359250608087013591506135878860a089016133eb565b90509295509295509295565b600080604083850312156135a657600080fd5b82356135b181612d1b565b915060208301356134a981612d1b565b600080600080600060a086880312156135d957600080fd5b85356135e481612d1b565b945060208601356135f481612d1b565b93506040860135925060608601359150608086013567ffffffffffffffff81111561361e57600080fd5b61303588828901612f20565b6000806000806000806000806101e0808a8c03121561364857600080fd5b8935985060208a0135975060408a0135965060608a0135955060808a013567ffffffffffffffff81111561367b57600080fd5b6136878c828d01612f20565b95505060a08a0135935060c08a013592508a818b0111156136a757600080fd5b5060e0890190509295985092959890939650565b60006101408083526136cf8184018d612dbb565b905082810360208401526136e3818c612dbb565b905082810360408401526136f7818b612dbb565b90508860608401528760808401528660a08401528560c084015261373160e084018680516001600160a01b03168252602090810151910152565b828103610120840152613744818561315d565b9c9b505050505050505050505050565b600181811c9082168061376857607f821691505b6020821081141561378957634e487b7160e01b600052602260045260246000fd5b50919050565b634e487b7160e01b600052601160045260246000fd5b6000828210156137b7576137b761378f565b500390565b634e487b7160e01b600052603260045260246000fd5b600082198211156137e5576137e561378f565b500190565b6020808252602f908201527f455243313135353a2063616c6c6572206973206e6f7420746f6b656e206f776e60408201526e195c881b9bdc88185c1c1c9bdd9959608a1b606082015260800190565b600060001982141561384d5761384d61378f565b5060010190565b600081600019048311821515161561386e5761386e61378f565b500290565b60006101a0820190508782528660208301528560408301528460608301528360808301526101008360a084013760008152979650505050505050565b634e487b7160e01b600052601260045260246000fd5b6000826138d4576138d46138af565b500490565b60018060a01b03851681528360208201526080604082015260006139006080830185612dbb565b905082606083015295945050505050565b60208082526025908201527f455243313135353a207472616e7366657220746f20746865207a65726f206164604082015264647265737360d81b606082015260800190565b6020808252602a908201527f455243313135353a20696e73756666696369656e742062616c616e636520666f60408201526939103a3930b739b332b960b11b606082015260800190565b6040815260006139b3604083018561339d565b82810360208401526139c5818561339d565b95945050505050565b6000826139dd576139dd6138af565b500690565b600082516139f4818460208701612d8f565b9190910192915050565b6001600160a01b03868116825285166020820152604081018490526060810183905260a06080820181905260009061320790830184612dbb565b600060208284031215613a4a57600080fd5b815161239381612d5c565b600060033d1115613a6e5760046000803e5060005160e01c5b90565b600060443d1015613a7f5790565b6040516003193d81016004833e81513d67ffffffffffffffff8160248401118184111715613aaf57505050505090565b8285019150815181811115613ac75750505050505090565b843d8701016020828501011115613ae15750505050505090565b613af060208286010187612e5e565b509095945050505050565b60208082526028908201527f455243313135353a204552433131353552656365697665722072656a656374656040820152676420746f6b656e7360c01b606082015260800190565b6001600160a01b0386811682528516602082015260a060408201819052600090613b6f9083018661339d565b8281036060840152613b81818661339d565b90508281036080840152613b958185612dbb565b9897505050505050505056fea2646970667358221220f3294c194c2621df08ae6e260d7ef940475983273a114d896b3725bf8be3400464736f6c634300080c0033",
  "linkReferences": {},
  "deployedLinkReferences": {}
}