{
  "_format": "hh-sol-artifact-1",
  "contractName": "FactoryFTContract",
  "sourceName": "src/backend/contracts/FactoryFTContract.sol",
  "abi": [
    {
      "inputs": [],
      "stateMutability": "nonpayable",
      "type": "constructor"
    },
    {
      "anonymous": false,
      "inputs": [
        {
          "indexed": false,
          "internalType": "address",
          "name": "previousAdmin",
          "type": "address"
        },
        {
          "indexed": false,
          "internalType": "address",
          "name": "newAdmin",
          "type": "address"
        }
      ],
      "name": "AdminChanged",
      "type": "event"
    },
    {
      "anonymous": false,
      "inputs": [
        {
          "indexed": true,
          "internalType": "address",
          "name": "beacon",
          "type": "address"
        }
      ],
      "name": "BeaconUpgraded",
      "type": "event"
    },
    {
      "anonymous": false,
      "inputs": [
        {
          "indexed": false,
          "internalType": "uint8",
          "name": "version",
          "type": "uint8"
        }
      ],
      "name": "Initialized",
      "type": "event"
    },
    {
      "anonymous": false,
      "inputs": [
        {
          "indexed": true,
          "internalType": "uint256",
          "name": "_communityId",
          "type": "uint256"
        },
        {
          "indexed": false,
          "internalType": "address",
          "name": "_contractAddress",
          "type": "address"
        }
      ],
      "name": "NewContract",
      "type": "event"
    },
    {
      "anonymous": false,
      "inputs": [
        {
          "indexed": true,
          "internalType": "address",
          "name": "previousOwner",
          "type": "address"
        },
        {
          "indexed": true,
          "internalType": "address",
          "name": "newOwner",
          "type": "address"
        }
      ],
      "name": "OwnershipTransferred",
      "type": "event"
    },
    {
      "anonymous": false,
      "inputs": [
        {
          "indexed": true,
          "internalType": "address",
          "name": "implementation",
          "type": "address"
        }
      ],
      "name": "Upgraded",
      "type": "event"
    },
    {
      "inputs": [
        {
          "internalType": "uint256",
          "name": "_communityId",
          "type": "uint256"
        },
        {
          "internalType": "string",
          "name": "_name",
          "type": "string"
        },
        {
          "internalType": "string",
          "name": "_symbol",
          "type": "string"
        },
        {
          "internalType": "uint256",
          "name": "_supply",
          "type": "uint256"
        }
      ],
      "name": "deployFTContract",
      "outputs": [],
      "stateMutability": "nonpayable",
      "type": "function"
    },
    {
      "inputs": [
        {
          "internalType": "address",
          "name": "_mainContractAddress",
          "type": "address"
        },
        {
          "internalType": "contract IWorldID",
          "name": "_worldId",
          "type": "address"
        }
      ],
      "name": "initialize",
      "outputs": [],
      "stateMutability": "nonpayable",
      "type": "function"
    },
    {
      "inputs": [],
      "name": "owner",
      "outputs": [
        {
          "internalType": "address",
          "name": "",
          "type": "address"
        }
      ],
      "stateMutability": "view",
      "type": "function"
    },
    {
      "inputs": [],
      "name": "proxiableUUID",
      "outputs": [
        {
          "internalType": "bytes32",
          "name": "",
          "type": "bytes32"
        }
      ],
      "stateMutability": "view",
      "type": "function"
    },
    {
      "inputs": [],
      "name": "renounceOwnership",
      "outputs": [],
      "stateMutability": "nonpayable",
      "type": "function"
    },
    {
      "inputs": [
        {
          "internalType": "address",
          "name": "newOwner",
          "type": "address"
        }
      ],
      "name": "transferOwnership",
      "outputs": [],
      "stateMutability": "nonpayable",
      "type": "function"
    },
    {
      "inputs": [
        {
          "internalType": "address",
          "name": "newImplementation",
          "type": "address"
        }
      ],
      "name": "upgradeTo",
      "outputs": [],
      "stateMutability": "nonpayable",
      "type": "function"
    },
    {
      "inputs": [
        {
          "internalType": "address",
          "name": "newImplementation",
          "type": "address"
        },
        {
          "internalType": "bytes",
          "name": "data",
          "type": "bytes"
        }
      ],
      "name": "upgradeToAndCall",
      "outputs": [],
      "stateMutability": "payable",
      "type": "function"
    }
  ],
  "bytecode": "0x60a06040523060805234801561001457600080fd5b5061001d610022565b6100e2565b600054610100900460ff161561008e5760405162461bcd60e51b815260206004820152602760248201527f496e697469616c697a61626c653a20636f6e747261637420697320696e697469604482015266616c697a696e6760c81b606482015260840160405180910390fd5b60005460ff90811610156100e0576000805460ff191660ff9081179091556040519081527f7f26b83ff96e1f2b6a682f133852f6798a09c465da95921460cefb38474024989060200160405180910390a15b565b608051613d4c610119600039600081816101af015281816101fb015281816103fa0152818161043d01526104d90152613d4c6000f3fe608060405260043610620000855760003560e01c8063715018a61162000054578063715018a614620001185780638da5cb5b1462000130578063ee01380d146200015a578063f2fde38b146200017f57600080fd5b80633659cfe6146200008a578063485cc95514620000b15780634f1ef28614620000d657806352d1902d14620000ed575b600080fd5b3480156200009757600080fd5b50620000af620000a936600462000ea0565b620001a4565b005b348015620000be57600080fd5b50620000af620000d036600462000ec0565b62000299565b620000af620000e736600462000f91565b620003ef565b348015620000fa57600080fd5b5062000105620004cc565b6040519081526020015b60405180910390f35b3480156200012557600080fd5b50620000af62000582565b3480156200013d57600080fd5b506033546040516001600160a01b0390911681526020016200010f565b3480156200016757600080fd5b50620000af620001793660046200101f565b6200059a565b3480156200018c57600080fd5b50620000af6200019e36600462000ea0565b620008dd565b306001600160a01b037f0000000000000000000000000000000000000000000000000000000000000000161415620001f95760405162461bcd60e51b8152600401620001f0906200109b565b60405180910390fd5b7f00000000000000000000000000000000000000000000000000000000000000006001600160a01b03166200024460008051602062003cd0833981519152546001600160a01b031690565b6001600160a01b0316146200026d5760405162461bcd60e51b8152600401620001f090620010e7565b620002788162000959565b60408051600080825260208201909252620002969183919062000963565b50565b600054610100900460ff1615808015620002ba5750600054600160ff909116105b80620002d65750303b158015620002d6575060005460ff166001145b6200033b5760405162461bcd60e51b815260206004820152602e60248201527f496e697469616c697a61626c653a20636f6e747261637420697320616c72656160448201526d191e481a5b9a5d1a585b1a5e995960921b6064820152608401620001f0565b6000805460ff1916600117905580156200035f576000805461ff0019166101001790555b6200036962000adb565b6200037362000b0f565b60c980546001600160a01b038086166001600160a01b03199283161790925560cb8054928516929091169190911790558015620003ea576000805461ff0019169055604051600181527f7f26b83ff96e1f2b6a682f133852f6798a09c465da95921460cefb38474024989060200160405180910390a15b505050565b306001600160a01b037f00000000000000000000000000000000000000000000000000000000000000001614156200043b5760405162461bcd60e51b8152600401620001f0906200109b565b7f00000000000000000000000000000000000000000000000000000000000000006001600160a01b03166200048660008051602062003cd0833981519152546001600160a01b031690565b6001600160a01b031614620004af5760405162461bcd60e51b8152600401620001f090620010e7565b620004ba8262000959565b620004c88282600162000963565b5050565b6000306001600160a01b037f000000000000000000000000000000000000000000000000000000000000000016146200056e5760405162461bcd60e51b815260206004820152603860248201527f555550535570677261646561626c653a206d757374206e6f742062652063616c60448201527f6c6564207468726f7567682064656c656761746563616c6c00000000000000006064820152608401620001f0565b5060008051602062003cd083398151915290565b6200058c62000b39565b62000598600062000b95565b565b600383511015620006065760405162461bcd60e51b815260206004820152602f60248201527f436f6c6c656374696f6e206e616d652073686f756c64206265206c6f6e67657260448201526e207468616e20322073796d626f6c7360881b6064820152608401620001f0565b60038251101580156200061b57506005825111155b620006735760405162461bcd60e51b815260206004820152602160248201527f53796d626f6c206c656e6774682073686f756c6420626520332d3520636861726044820152607360f81b6064820152608401620001f0565b60008111620006bb5760405162461bcd60e51b815260206004820152601360248201527215dc9bdb99c81cdd5c1c1b1e48185b5bdd5b9d606a1b6044820152606401620001f0565b60c954604051635b25bfbb60e11b8152600481018690526000916001600160a01b03169063b64b7f76906024016040805180830381865afa15801562000705573d6000803e3d6000fd5b505050506040513d601f19601f820116820180604052508101906200072b919062001149565b9150508015620007895760405162461bcd60e51b815260206004820152602260248201527f436f6d6d756e69747920616c7265616479206861766520465420436f6e74726160448201526118dd60f21b6064820152608401620001f0565b60c95460cb546040516000926001600160a01b03908116928892889233928992911690620007b79062000e7c565b620007c896959493929190620011de565b604051809103906000f080158015620007e5573d6000803e3d6000fd5b5060ca80546001810182556000919091527f42d72674974f694b5f5159593243114d38a5c39c89d6b62fee061ff523240ee10180546001600160a01b0319166001600160a01b0383811691821790925560c95460405163e87d940b60e01b8152600481018b9052602481019290925292935091169063e87d940b90604401600060405180830381600087803b1580156200087e57600080fd5b505af115801562000893573d6000803e3d6000fd5b50506040516001600160a01b03841681528892507f40d4568ff4ff36e51a9ae93287360652061367d3da49a21392bc54cc1d02a76d915060200160405180910390a2505050505050565b620008e762000b39565b6001600160a01b0381166200094e5760405162461bcd60e51b815260206004820152602660248201527f4f776e61626c653a206e6577206f776e657220697320746865207a65726f206160448201526564647265737360d01b6064820152608401620001f0565b620002968162000b95565b6200029662000b39565b7f4910fdfa16fed3260ed0e7147f7cc6da11a60208b5b9406d12a635614ffd91435460ff16156200099957620003ea8362000be7565b826001600160a01b03166352d1902d6040518163ffffffff1660e01b8152600401602060405180830381865afa925050508015620009f6575060408051601f3d908101601f19168201909252620009f39181019062001237565b60015b62000a5b5760405162461bcd60e51b815260206004820152602e60248201527f45524331393637557067726164653a206e657720696d706c656d656e7461746960448201526d6f6e206973206e6f74205555505360901b6064820152608401620001f0565b60008051602062003cd0833981519152811462000acd5760405162461bcd60e51b815260206004820152602960248201527f45524331393637557067726164653a20756e737570706f727465642070726f786044820152681a58589b195555525160ba1b6064820152608401620001f0565b50620003ea83838362000c86565b600054610100900460ff1662000b055760405162461bcd60e51b8152600401620001f09062001251565b6200059862000cb7565b600054610100900460ff16620005985760405162461bcd60e51b8152600401620001f09062001251565b6033546001600160a01b03163314620005985760405162461bcd60e51b815260206004820181905260248201527f4f776e61626c653a2063616c6c6572206973206e6f7420746865206f776e65726044820152606401620001f0565b603380546001600160a01b038381166001600160a01b0319831681179093556040519116919082907f8be0079c531659141344cd1fd0a4f28419497f9722a3daafe3b4186f6b6457e090600090a35050565b6001600160a01b0381163b62000c565760405162461bcd60e51b815260206004820152602d60248201527f455243313936373a206e657720696d706c656d656e746174696f6e206973206e60448201526c1bdd08184818dbdb9d1c9858dd609a1b6064820152608401620001f0565b60008051602062003cd083398151915280546001600160a01b0319166001600160a01b0392909216919091179055565b62000c918362000cec565b60008251118062000c9f5750805b15620003ea5762000cb1838362000d2e565b50505050565b600054610100900460ff1662000ce15760405162461bcd60e51b8152600401620001f09062001251565b620005983362000b95565b62000cf78162000be7565b6040516001600160a01b038216907fbc7cd75a20ee27fd9adebab32041f755214dbc6bffa90cc0225b39da2e5c2d3b90600090a250565b60606001600160a01b0383163b62000d985760405162461bcd60e51b815260206004820152602660248201527f416464726573733a2064656c65676174652063616c6c20746f206e6f6e2d636f6044820152651b9d1c9858dd60d21b6064820152608401620001f0565b600080846001600160a01b03168460405162000db591906200129c565b600060405180830381855af49150503d806000811462000df2576040519150601f19603f3d011682016040523d82523d6000602084013e62000df7565b606091505b509150915062000e22828260405180606001604052806027815260200162003cf06027913962000e2b565b95945050505050565b6060831562000e3c57508162000e48565b62000e48838362000e4f565b9392505050565b81511562000e605781518083602001fd5b8060405162461bcd60e51b8152600401620001f09190620012ba565b612a0080620012d083390190565b6001600160a01b03811681146200029657600080fd5b60006020828403121562000eb357600080fd5b813562000e488162000e8a565b6000806040838503121562000ed457600080fd5b823562000ee18162000e8a565b9150602083013562000ef38162000e8a565b809150509250929050565b634e487b7160e01b600052604160045260246000fd5b600067ffffffffffffffff8084111562000f325762000f3262000efe565b604051601f8501601f19908116603f0116810190828211818310171562000f5d5762000f5d62000efe565b8160405280935085815286868601111562000f7757600080fd5b858560208301376000602087830101525050509392505050565b6000806040838503121562000fa557600080fd5b823562000fb28162000e8a565b9150602083013567ffffffffffffffff81111562000fcf57600080fd5b8301601f8101851362000fe157600080fd5b62000ff28582356020840162000f14565b9150509250929050565b600082601f8301126200100e57600080fd5b62000e488383356020850162000f14565b600080600080608085870312156200103657600080fd5b84359350602085013567ffffffffffffffff808211156200105657600080fd5b620010648883890162000ffc565b945060408701359150808211156200107b57600080fd5b506200108a8782880162000ffc565b949793965093946060013593505050565b6020808252602c908201527f46756e6374696f6e206d7573742062652063616c6c6564207468726f7567682060408201526b19195b1959d85d1958d85b1b60a21b606082015260800190565b6020808252602c908201527f46756e6374696f6e206d7573742062652063616c6c6564207468726f7567682060408201526b6163746976652070726f787960a01b606082015260800190565b805180151581146200114457600080fd5b919050565b600080604083850312156200115d57600080fd5b620011688362001133565b9150620011786020840162001133565b90509250929050565b60005b838110156200119e57818101518382015260200162001184565b8381111562000cb15750506000910152565b60008151808452620011ca81602086016020860162001181565b601f01601f19169290920160200192915050565b600060018060a01b03808916835260c060208401526200120260c0840189620011b0565b8381036040850152620012168189620011b0565b968216606085015250608083019490945250911660a0909101529392505050565b6000602082840312156200124a57600080fd5b5051919050565b6020808252602b908201527f496e697469616c697a61626c653a20636f6e7472616374206973206e6f74206960408201526a6e697469616c697a696e6760a81b606082015260800190565b60008251620012b081846020870162001181565b9190910192915050565b60208152600062000e486020830184620011b056fe60a060405260016080523480156200001657600080fd5b5060405162002a0038038062002a0083398101604081905262000039916200051d565b8451859085906200005290600390602085019062000394565b5080516200006890600490602084019062000394565b50506005805460ff19169055506200008033620000f1565b600680546001600160a01b0319166001600160a01b038816179055620000ba83620000b484670de0b6b3a7640000620005e7565b6200014b565b620000c58362000242565b600a80546001600160a01b0319166001600160a01b039290921691909117905550620006619350505050565b600580546001600160a01b03838116610100818102610100600160a81b031985161790945560405193909204169182907f8be0079c531659141344cd1fd0a4f28419497f9722a3daafe3b4186f6b6457e090600090a35050565b6001600160a01b038216620001a75760405162461bcd60e51b815260206004820152601f60248201527f45524332303a206d696e7420746f20746865207a65726f20616464726573730060448201526064015b60405180910390fd5b620001b560008383620002c1565b8060026000828254620001c9919062000609565b90915550506001600160a01b03821660009081526020819052604081208054839290620001f890849062000609565b90915550506040518181526001600160a01b038316906000907fddf252ad1be2c89b69c2b068fc378daa952ba7f163c4a11628f55a4df523b3ef9060200160405180910390a35050565b6200024c620002e8565b6001600160a01b038116620002b35760405162461bcd60e51b815260206004820152602660248201527f4f776e61626c653a206e6577206f776e657220697320746865207a65726f206160448201526564647265737360d01b60648201526084016200019e565b620002be81620000f1565b50565b620002cb6200034c565b620002e3838383620002e360201b62000cd61760201c565b505050565b6005546001600160a01b036101009091041633146200034a5760405162461bcd60e51b815260206004820181905260248201527f4f776e61626c653a2063616c6c6572206973206e6f7420746865206f776e657260448201526064016200019e565b565b60055460ff16156200034a5760405162461bcd60e51b815260206004820152601060248201526f14185d5cd8589b194e881c185d5cd95960821b60448201526064016200019e565b828054620003a29062000624565b90600052602060002090601f016020900481019282620003c6576000855562000411565b82601f10620003e157805160ff191683800117855562000411565b8280016001018555821562000411579182015b8281111562000411578251825591602001919060010190620003f4565b506200041f92915062000423565b5090565b5b808211156200041f576000815560010162000424565b6001600160a01b0381168114620002be57600080fd5b634e487b7160e01b600052604160045260246000fd5b600082601f8301126200047857600080fd5b81516001600160401b038082111562000495576200049562000450565b604051601f8301601f19908116603f01168101908282118183101715620004c057620004c062000450565b81604052838152602092508683858801011115620004dd57600080fd5b600091505b83821015620005015785820183015181830184015290820190620004e2565b83821115620005135760008385830101525b9695505050505050565b60008060008060008060c087890312156200053757600080fd5b865162000544816200043a565b60208801519096506001600160401b03808211156200056257600080fd5b620005708a838b0162000466565b965060408901519150808211156200058757600080fd5b506200059689828a0162000466565b9450506060870151620005a9816200043a565b608088015160a08901519194509250620005c3816200043a565b809150509295509295509295565b634e487b7160e01b600052601160045260246000fd5b6000816000190483118215151615620006045762000604620005d1565b500290565b600082198211156200061f576200061f620005d1565b500190565b600181811c908216806200063957607f821691505b602082108114156200065b57634e487b7160e01b600052602260045260246000fd5b50919050565b6080516123836200067d60003960006111c101526123836000f3fe6080604052600436106101665760003560e01c806370a08231116100d1578063a457c2d71161008a578063c3d4450611610064578063c3d4450614610414578063dd62ed3e14610434578063edfd1a7b14610454578063f2fde38b1461046757600080fd5b8063a457c2d7146103b2578063a6b03633146103d2578063a9059cbb146103f457600080fd5b806370a08231146102cc578063715018a6146103025780638456cb591461031757806385c9d3211461032c5780638da5cb5b1461036757806395d89b411461039d57600080fd5b8063313ce56711610123578063313ce5671461022d578063381da4881461024957806339509351146102695780633f4ba83a146102895780635c975abb1461029e57806369b0aafa146102b657600080fd5b806306fdde031461016b578063095ea7b31461019657806314005050146101c657806318160ddd146101db57806323b872dd146101fa57806330d2c6d41461021a575b600080fd5b34801561017757600080fd5b50610180610487565b60405161018d9190611c62565b60405180910390f35b3480156101a257600080fd5b506101b66101b1366004611c91565b610519565b604051901515815260200161018d565b6101d96101d4366004611df9565b610531565b005b3480156101e757600080fd5b506002545b60405190815260200161018d565b34801561020657600080fd5b506101b6610215366004611e9a565b6107a3565b6101d9610228366004611ed6565b6107c7565b34801561023957600080fd5b506040516012815260200161018d565b34801561025557600080fd5b506101d9610264366004611f26565b610997565b34801561027557600080fd5b506101b6610284366004611c91565b610cdb565b34801561029557600080fd5b506101d9610cfd565b3480156102aa57600080fd5b5060055460ff166101b6565b3480156102c257600080fd5b506101ec60075481565b3480156102d857600080fd5b506101ec6102e7366004611f3f565b6001600160a01b031660009081526020819052604090205490565b34801561030e57600080fd5b506101d9610d0f565b34801561032357600080fd5b506101d9610d21565b34801561033857600080fd5b506101b6610347366004611f5a565b600c60209081526000928352604080842090915290825290205460ff1681565b34801561037357600080fd5b5060055461010090046001600160a01b03166040516001600160a01b03909116815260200161018d565b3480156103a957600080fd5b50610180610d31565b3480156103be57600080fd5b506101b66103cd366004611c91565b610d40565b3480156103de57600080fd5b506103e7610dbb565b60405161018d9190612002565b34801561040057600080fd5b506101b661040f366004611c91565b611008565b34801561042057600080fd5b506101ec61042f366004611f26565b611016565b34801561044057600080fd5b506101ec61044f3660046120ea565b611037565b6101d9610462366004612114565b611062565b34801561047357600080fd5b506101d9610482366004611f3f565b6113f2565b6060600380546104969061219c565b80601f01602080910402602001604051908101604052809291908181526020018280546104c29061219c565b801561050f5780601f106104e45761010080835404028352916020019161050f565b820191906000526020600020905b8154815290600101906020018083116104f257829003601f168201915b5050505050905090565b60003361052781858561146b565b5060019392505050565b61053961158f565b8486111561058e5760405162461bcd60e51b815260206004820152601960248201527f57726f6e672063616d706169676e20646174652072616e67650000000000000060448201526064015b60405180910390fd5b600060048860058111156105a4576105a4611f86565b14156105bb576105b8620f423f60016115ef565b90505b6040516323b872dd60e01b8152336004820152306024820181905260448201859052906323b872dd906064016020604051808303816000875af1158015610606573d6000803e3d6000fd5b505050506040513d601f19601f8201168201806040525081019061062a91906121d1565b5060016007600082825461063e9190612209565b90915550506007546008805460018101825560009182527ff3f7a9fe364faab93b216da50a3214154f22a0a2b415b23a84c8169e8b636ee301829055604080516101408101825292835260208301869052820152606081018390526080810188905260a0810187905260c0810182905260e081018960058111156106c4576106c4611f86565b815260200186815260200185815250600960006007548152602001908152602001600020600082015181600001556020820151816001015560408201518160020155606082015181600301556080820151816004015560a0820151816005015560c0820151816006015560e08201518160070160006101000a81548160ff0219169083600581111561075857610758611f86565b02179055506101008201518051610779916008840191602090910190611a60565b506101208201518051610796916009840191602090910190611ac5565b5050505050505050505050565b6000336107b185828561165e565b6107bc8585856116d2565b506001949350505050565b6107cf61158f565b600081116108155760405162461bcd60e51b815260206004820152601360248201527215dc9bdb99c81d1bdad95b9cc8185b5bdd5b9d606a1b6044820152606401610585565b60008251116108665760405162461bcd60e51b815260206004820152601760248201527f57726f6e67206c697374206f66206164647265737365730000000000000000006044820152606401610585565b60008251826108759190612237565b905060005b835181101561093957306001600160a01b03166323b872dd338684815181106108a5576108a561224b565b60209081029190910101516040516001600160e01b031960e085901b1681526001600160a01b03928316600482015291166024820152604481018590526064016020604051808303816000875af1158015610904573d6000803e3d6000fd5b505050506040513d601f19601f8201168201806040525081019061092891906121d1565b5061093281612261565b905061087a565b506040805133815260208101849052608091810182905260009181018290524260608201526003919086907fe71952c2fd3a7d8c18699fb382ded47b38d198d5ebb29e0f5c2ca644bb5f7eaa9060a00160405180910390a450505050565b61099f61158f565b600081815260096020908152604080832081516101408101835281548152600182015493810193909352600281015491830191909152600381015460608301526004810154608083015260058082015460a0840152600682015460c0840152600782015460e084019160ff90911690811115610a1d57610a1d611f86565b6005811115610a2e57610a2e611f86565b815260200160088201805480602002602001604051908101604052809291908181526020018280548015610a8b57602002820191906000526020600020905b81546001600160a01b03168152600190910190602001808311610a6d575b50505050508152602001600982018054610aa49061219c565b80601f0160208091040260200160405190810160405280929190818152602001828054610ad09061219c565b8015610b1d5780601f10610af257610100808354040283529160200191610b1d565b820191906000526020600020905b815481529060010190602001808311610b0057829003601f168201915b5050505050815250509050600081604001518260200151610b3e919061227c565b905060005b600854811015610c00578360088281548110610b6157610b6161224b565b90600052602060002001541415610bf05760085460011015610bc85760088054610b8d9060019061227c565b81548110610b9d57610b9d61224b565b906000526020600020015460088281548110610bbb57610bbb61224b565b6000918252602090912001555b6008805480610bd957610bd9612293565b600190038181906000526020600020016000905590555b610bf981612261565b9050610b43565b50600083815260096020526040812081815560018101829055600281018290556003810182905560048101829055600581018290556006810182905560078101805460ff1916905590610c566008830182611b39565b610c64600983016000611b57565b50508015610cd65760405163a9059cbb60e01b815233600482015260248101829052309063a9059cbb906044016020604051808303816000875af1158015610cb0573d6000803e3d6000fd5b505050506040513d601f19601f82011682018060405250810190610cd491906121d1565b505b505050565b600033610527818585610cee8383611037565b610cf89190612209565b61146b565b610d0561158f565b610d0d6118ab565b565b610d1761158f565b610d0d60006118fd565b610d2961158f565b610d0d611957565b6060600480546104969061219c565b60003381610d4e8286611037565b905083811015610dae5760405162461bcd60e51b815260206004820152602560248201527f45524332303a2064656372656173656420616c6c6f77616e63652062656c6f77604482015264207a65726f60d81b6064820152608401610585565b6107bc828686840361146b565b60085460609060009067ffffffffffffffff811115610ddc57610ddc611cbb565b604051908082528060200260200182016040528015610e1557816020015b610e02611b91565b815260200190600190039081610dfa5790505b50905060005b600854811015611002576009600060088381548110610e3c57610e3c61224b565b9060005260206000200154815260200190815260200160002060405180610140016040529081600082015481526020016001820154815260200160028201548152602001600382015481526020016004820154815260200160058201548152602001600682015481526020016007820160009054906101000a900460ff166005811115610ecb57610ecb611f86565b6005811115610edc57610edc611f86565b815260200160088201805480602002602001604051908101604052809291908181526020018280548015610f3957602002820191906000526020600020905b81546001600160a01b03168152600190910190602001808311610f1b575b50505050508152602001600982018054610f529061219c565b80601f0160208091040260200160405190810160405280929190818152602001828054610f7e9061219c565b8015610fcb5780601f10610fa057610100808354040283529160200191610fcb565b820191906000526020600020905b815481529060010190602001808311610fae57829003601f168201915b505050505081525050828281518110610fe657610fe661224b565b602002602001018190525080610ffb90612261565b9050610e1b565b50919050565b6000336105278185856116d2565b6008818154811061102657600080fd5b600091825260209091200154905081565b6001600160a01b03918216600090815260016020908152604080832093909416825291909152205490565b61106a611994565b60008681526009602052604090206001810154600382015460028301546110919190612209565b11156110df5760405162461bcd60e51b815260206004820152601a60248201527f4e6f7420656e6f75676820746f6b656e7320746f20636c61696d0000000000006044820152606401610585565b6000878152600c6020908152604080832033845290915290205460ff16156111495760405162461bcd60e51b815260206004820152601860248201527f596f7520616c726561647920636c61696d20746f6b656e7300000000000000006044820152606401610585565b600081600901805461115a9061219c565b9050111561128d576000838152600b602052604090205460ff161561119257604051632ec8265960e11b815260040160405180910390fd5b600a546040516001600160601b03193360601b1660208201526001600160a01b0390911690633bc778e39086907f0000000000000000000000000000000000000000000000000000000000000000906111fd906034015b6040516020818303038152906040526119da565b6040516001600160601b03193060601b1660208201528890611221906034016111e9565b886040518763ffffffff1660e01b8152600401611243969594939291906122a9565b60006040518083038186803b15801561125b57600080fd5b505afa15801561126f573d6000803e3d6000fd5b5050506000848152600b60205260409020805460ff19166001179055505b6004600782015460ff1660058111156112a8576112a8611f86565b14156112f457858160060154146112f45760405162461bcd60e51b815260206004820152601060248201526f57726f6e67204576656e7420436f646560801b6044820152606401610585565b806003015481600201600082825461130c9190612209565b90915550506000878152600c6020908152604080832033808552925291829020805460ff191660011790556003830154915163a9059cbb60e01b815260048101919091526024810191909152309063a9059cbb906044016020604051808303816000875af1158015611382573d6000803e3d6000fd5b505050506040513d601f19601f820116820180604052508101906113a691906121d1565b50600287897fe71952c2fd3a7d8c18699fb382ded47b38d198d5ebb29e0f5c2ca644bb5f7eaa33348a426040516113e094939291906122e5565b60405180910390a45050505050505050565b6113fa61158f565b6001600160a01b03811661145f5760405162461bcd60e51b815260206004820152602660248201527f4f776e61626c653a206e6577206f776e657220697320746865207a65726f206160448201526564647265737360d01b6064820152608401610585565b611468816118fd565b50565b6001600160a01b0383166114cd5760405162461bcd60e51b8152602060048201526024808201527f45524332303a20617070726f76652066726f6d20746865207a65726f206164646044820152637265737360e01b6064820152608401610585565b6001600160a01b03821661152e5760405162461bcd60e51b815260206004820152602260248201527f45524332303a20617070726f766520746f20746865207a65726f206164647265604482015261737360f01b6064820152608401610585565b6001600160a01b0383811660008181526001602090815260408083209487168084529482529182902085905590518481527f8c5be1e5ebec7d5bd14f71427d1e84f3dd0314c0f7b2291e5b200ac8c7c3b925910160405180910390a3505050565b6005546001600160a01b03610100909104163314610d0d5760405162461bcd60e51b815260206004820181905260248201527f4f776e61626c653a2063616c6c6572206973206e6f7420746865206f776e65726044820152606401610585565b6040516001600160f81b031960f883901b1660208201526001600160601b03193360601b1660218201524460358201524260558201526001607582015260009083906095016040516020818303038152906040528051906020012060001c611657919061231d565b9392505050565b600061166a8484611037565b90506000198114610cd457818110156116c55760405162461bcd60e51b815260206004820152601d60248201527f45524332303a20696e73756666696369656e7420616c6c6f77616e63650000006044820152606401610585565b610cd4848484840361146b565b6001600160a01b0383166117365760405162461bcd60e51b815260206004820152602560248201527f45524332303a207472616e736665722066726f6d20746865207a65726f206164604482015264647265737360d81b6064820152608401610585565b6001600160a01b0382166117985760405162461bcd60e51b815260206004820152602360248201527f45524332303a207472616e7366657220746f20746865207a65726f206164647260448201526265737360e81b6064820152608401610585565b6117a3838383611a0f565b6001600160a01b0383166000908152602081905260409020548181101561181b5760405162461bcd60e51b815260206004820152602660248201527f45524332303a207472616e7366657220616d6f756e7420657863656564732062604482015265616c616e636560d01b6064820152608401610585565b6001600160a01b03808516600090815260208190526040808220858503905591851681529081208054849290611852908490612209565b92505081905550826001600160a01b0316846001600160a01b03167fddf252ad1be2c89b69c2b068fc378daa952ba7f163c4a11628f55a4df523b3ef8460405161189e91815260200190565b60405180910390a3610cd4565b6118b3611a17565b6005805460ff191690557f5db9ee0a495bf2e6ff9c91a7834c1ba4fdd244a5e8aa4e537bd38aeae4b073aa335b6040516001600160a01b03909116815260200160405180910390a1565b600580546001600160a01b03838116610100818102610100600160a81b031985161790945560405193909204169182907f8be0079c531659141344cd1fd0a4f28419497f9722a3daafe3b4186f6b6457e090600090a35050565b61195f611994565b6005805460ff191660011790557f62e78cea01bee320cd4e420270b5ea74000d11b0c9f74754ebdbfc544b05a2586118e03390565b60055460ff1615610d0d5760405162461bcd60e51b815260206004820152601060248201526f14185d5cd8589b194e881c185d5cd95960821b6044820152606401610585565b60006008826040516020016119ef9190612331565b60408051601f198184030181529190528051602090910120901c92915050565b610cd6611994565b60055460ff16610d0d5760405162461bcd60e51b815260206004820152601460248201527314185d5cd8589b194e881b9bdd081c185d5cd95960621b6044820152606401610585565b828054828255906000526020600020908101928215611ab5579160200282015b82811115611ab557825182546001600160a01b0319166001600160a01b03909116178255602090920191600190910190611a80565b50611ac1929150611bf5565b5090565b828054611ad19061219c565b90600052602060002090601f016020900481019282611af35760008555611ab5565b82601f10611b0c57805160ff1916838001178555611ab5565b82800160010185558215611ab5579182015b82811115611ab5578251825591602001919060010190611b1e565b50805460008255906000526020600020908101906114689190611bf5565b508054611b639061219c565b6000825580601f10611b73575050565b601f0160209004906000526020600020908101906114689190611bf5565b6040518061014001604052806000815260200160008152602001600081526020016000815260200160008152602001600081526020016000815260200160006005811115611be157611be1611f86565b815260200160608152602001606081525090565b5b80821115611ac15760008155600101611bf6565b60005b83811015611c25578181015183820152602001611c0d565b83811115610cd45750506000910152565b60008151808452611c4e816020860160208601611c0a565b601f01601f19169290920160200192915050565b6020815260006116576020830184611c36565b80356001600160a01b0381168114611c8c57600080fd5b919050565b60008060408385031215611ca457600080fd5b611cad83611c75565b946020939093013593505050565b634e487b7160e01b600052604160045260246000fd5b604051601f8201601f1916810167ffffffffffffffff81118282101715611cfa57611cfa611cbb565b604052919050565b600082601f830112611d1357600080fd5b8135602067ffffffffffffffff821115611d2f57611d2f611cbb565b8160051b611d3e828201611cd1565b9283528481018201928281019087851115611d5857600080fd5b83870192505b84831015611d7e57611d6f83611c75565b82529183019190830190611d5e565b979650505050505050565b600082601f830112611d9a57600080fd5b813567ffffffffffffffff811115611db457611db4611cbb565b611dc7601f8201601f1916602001611cd1565b818152846020838601011115611ddc57600080fd5b816020850160208301376000918101602001919091529392505050565b600080600080600080600060e0888a031215611e1457600080fd5b873560068110611e2357600080fd5b96506020880135955060408801359450606088013567ffffffffffffffff80821115611e4e57600080fd5b611e5a8b838c01611d02565b955060808a0135915080821115611e7057600080fd5b50611e7d8a828b01611d89565b93505060a0880135915060c0880135905092959891949750929550565b600080600060608486031215611eaf57600080fd5b611eb884611c75565b9250611ec660208501611c75565b9150604084013590509250925092565b600080600060608486031215611eeb57600080fd5b83359250602084013567ffffffffffffffff811115611f0957600080fd5b611f1586828701611d02565b925050604084013590509250925092565b600060208284031215611f3857600080fd5b5035919050565b600060208284031215611f5157600080fd5b61165782611c75565b60008060408385031215611f6d57600080fd5b82359150611f7d60208401611c75565b90509250929050565b634e487b7160e01b600052602160045260246000fd5b60068110611fba57634e487b7160e01b600052602160045260246000fd5b9052565b600081518084526020808501945080840160005b83811015611ff75781516001600160a01b031687529582019590820190600101611fd2565b509495945050505050565b60006020808301818452808551808352604092508286019150828160051b87010184880160005b838110156120dc57888303603f1901855281518051845287810151888501528681015187850152606080820151908501526080808201519085015260a0808201519085015260c0808201519085015260e080820151610140919061208f82880182611f9c565b50506101008083015182828801526120a983880182611fbe565b9250505061012080830151925085820381870152506120c88183611c36565b968901969450505090860190600101612029565b509098975050505050505050565b600080604083850312156120fd57600080fd5b61210683611c75565b9150611f7d60208401611c75565b60008060008060008060006101c080898b03121561213157600080fd5b883597506020890135965060408901359550606089013567ffffffffffffffff81111561215d57600080fd5b6121698b828c01611d89565b9550506080890135935060a0890135925089818a01111561218957600080fd5b5060c08801905092959891949750929550565b600181811c908216806121b057607f821691505b6020821081141561100257634e487b7160e01b600052602260045260246000fd5b6000602082840312156121e357600080fd5b8151801515811461165757600080fd5b634e487b7160e01b600052601160045260246000fd5b6000821982111561221c5761221c6121f3565b500190565b634e487b7160e01b600052601260045260246000fd5b60008261224657612246612221565b500490565b634e487b7160e01b600052603260045260246000fd5b6000600019821415612275576122756121f3565b5060010190565b60008282101561228e5761228e6121f3565b500390565b634e487b7160e01b600052603160045260246000fd5b60006101a0820190508782528660208301528560408301528460608301528360808301526101008360a084013760008152979650505050505050565b60018060a01b038516815283602082015260806040820152600061230c6080830185611c36565b905082606083015295945050505050565b60008261232c5761232c612221565b500690565b60008251612343818460208701611c0a565b919091019291505056fea2646970667358221220d612ea22320c42b81bece8129ef73e7ad87704467b367b47536a0e7a3ef86d8e64736f6c634300080c0033360894a13ba1a3210667c828492db98dca3e2076cc3735a920a3ca505d382bbc416464726573733a206c6f772d6c6576656c2064656c65676174652063616c6c206661696c6564a2646970667358221220c77e09fd56d1cf969894d0975bad987a6769d074aa129a5bf146e5eeeaad86d964736f6c634300080c0033",
  "linkReferences": {},
  "deployedLinkReferences": {}
}