{
  "_format": "hh-sol-artifact-1",
  "contractName": "ChainlinkExecutor",
  "sourceName": "src/backend/contracts/ChainlinkExecutor.sol",
  "abi": [
    {
      "inputs": [],
      "stateMutability": "nonpayable",
      "type": "constructor"
    },
    {
      "anonymous": false,
      "inputs": [
        {
          "indexed": false,
          "internalType": "address",
          "name": "previousAdmin",
          "type": "address"
        },
        {
          "indexed": false,
          "internalType": "address",
          "name": "newAdmin",
          "type": "address"
        }
      ],
      "name": "AdminChanged",
      "type": "event"
    },
    {
      "anonymous": false,
      "inputs": [
        {
          "indexed": true,
          "internalType": "address",
          "name": "beacon",
          "type": "address"
        }
      ],
      "name": "BeaconUpgraded",
      "type": "event"
    },
    {
      "anonymous": false,
      "inputs": [
        {
          "indexed": false,
          "internalType": "uint8",
          "name": "version",
          "type": "uint8"
        }
      ],
      "name": "Initialized",
      "type": "event"
    },
    {
      "anonymous": false,
      "inputs": [
        {
          "indexed": true,
          "internalType": "address",
          "name": "previousOwner",
          "type": "address"
        },
        {
          "indexed": true,
          "internalType": "address",
          "name": "newOwner",
          "type": "address"
        }
      ],
      "name": "OwnershipTransferred",
      "type": "event"
    },
    {
      "anonymous": false,
      "inputs": [
        {
          "indexed": true,
          "internalType": "address",
          "name": "implementation",
          "type": "address"
        }
      ],
      "name": "Upgraded",
      "type": "event"
    },
    {
      "inputs": [
        {
          "internalType": "address",
          "name": "contractAddress",
          "type": "address"
        },
        {
          "internalType": "uint256",
          "name": "proposalId",
          "type": "uint256"
        },
        {
          "internalType": "address[]",
          "name": "targets",
          "type": "address[]"
        },
        {
          "internalType": "uint256[]",
          "name": "values",
          "type": "uint256[]"
        },
        {
          "internalType": "bytes[]",
          "name": "calldatas",
          "type": "bytes[]"
        },
        {
          "internalType": "bytes32",
          "name": "descriptionHash",
          "type": "bytes32"
        }
      ],
      "name": "addProposal",
      "outputs": [],
      "stateMutability": "nonpayable",
      "type": "function"
    },
    {
      "inputs": [],
      "name": "checkExecutions",
      "outputs": [],
      "stateMutability": "nonpayable",
      "type": "function"
    },
    {
      "inputs": [],
      "name": "initialize",
      "outputs": [],
      "stateMutability": "nonpayable",
      "type": "function"
    },
    {
      "inputs": [],
      "name": "owner",
      "outputs": [
        {
          "internalType": "address",
          "name": "",
          "type": "address"
        }
      ],
      "stateMutability": "view",
      "type": "function"
    },
    {
      "inputs": [],
      "name": "proxiableUUID",
      "outputs": [
        {
          "internalType": "bytes32",
          "name": "",
          "type": "bytes32"
        }
      ],
      "stateMutability": "view",
      "type": "function"
    },
    {
      "inputs": [],
      "name": "renounceOwnership",
      "outputs": [],
      "stateMutability": "nonpayable",
      "type": "function"
    },
    {
      "inputs": [
        {
          "internalType": "address",
          "name": "newOwner",
          "type": "address"
        }
      ],
      "name": "transferOwnership",
      "outputs": [],
      "stateMutability": "nonpayable",
      "type": "function"
    },
    {
      "inputs": [
        {
          "internalType": "address",
          "name": "newImplementation",
          "type": "address"
        }
      ],
      "name": "upgradeTo",
      "outputs": [],
      "stateMutability": "nonpayable",
      "type": "function"
    },
    {
      "inputs": [
        {
          "internalType": "address",
          "name": "newImplementation",
          "type": "address"
        },
        {
          "internalType": "bytes",
          "name": "data",
          "type": "bytes"
        }
      ],
      "name": "upgradeToAndCall",
      "outputs": [],
      "stateMutability": "payable",
      "type": "function"
    }
  ],
  "bytecode": "0x60a06040523060805234801561001457600080fd5b5061001d610022565b6100e2565b600054610100900460ff161561008e5760405162461bcd60e51b815260206004820152602760248201527f496e697469616c697a61626c653a20636f6e747261637420697320696e697469604482015266616c697a696e6760c81b606482015260840160405180910390fd5b60005460ff90811610156100e0576000805460ff191660ff9081179091556040519081527f7f26b83ff96e1f2b6a682f133852f6798a09c465da95921460cefb38474024989060200160405180910390a15b565b6080516118a16101196000396000818161019a015281816101e301528181610283015281816102c3015261035601526118a16000f3fe6080604052600436106100865760003560e01c806376f1170e1161005957806376f1170e146100fd5780638129fc1c146101125780638da5cb5b14610127578063e6e9cd7f1461014f578063f2fde38b1461016f57600080fd5b80633659cfe61461008b5780634f1ef286146100ad57806352d1902d146100c0578063715018a6146100e8575b600080fd5b34801561009757600080fd5b506100ab6100a63660046112c6565b61018f565b005b6100ab6100bb366004611398565b610278565b3480156100cc57600080fd5b506100d5610349565b6040519081526020015b60405180910390f35b3480156100f457600080fd5b506100ab6103fc565b34801561010957600080fd5b506100ab610410565b34801561011e57600080fd5b506100ab6107cc565b34801561013357600080fd5b506033546040516001600160a01b0390911681526020016100df565b34801561015b57600080fd5b506100ab61016a3660046114f5565b6108e4565b34801561017b57600080fd5b506100ab61018a3660046112c6565b610ad1565b306001600160a01b037f00000000000000000000000000000000000000000000000000000000000000001614156101e15760405162461bcd60e51b81526004016101d8906115fe565b60405180910390fd5b7f00000000000000000000000000000000000000000000000000000000000000006001600160a01b031661022a600080516020611825833981519152546001600160a01b031690565b6001600160a01b0316146102505760405162461bcd60e51b81526004016101d89061164a565b61025981610b47565b6040805160008082526020820190925261027591839190610b4f565b50565b306001600160a01b037f00000000000000000000000000000000000000000000000000000000000000001614156102c15760405162461bcd60e51b81526004016101d8906115fe565b7f00000000000000000000000000000000000000000000000000000000000000006001600160a01b031661030a600080516020611825833981519152546001600160a01b031690565b6001600160a01b0316146103305760405162461bcd60e51b81526004016101d89061164a565b61033982610b47565b61034582826001610b4f565b5050565b6000306001600160a01b037f000000000000000000000000000000000000000000000000000000000000000016146103e95760405162461bcd60e51b815260206004820152603860248201527f555550535570677261646561626c653a206d757374206e6f742062652063616c60448201527f6c6564207468726f7567682064656c656761746563616c6c000000000000000060648201526084016101d8565b5060008051602061182583398151915290565b610404610cbf565b61040e6000610d19565b565b60005b60c954811015610275574360c9828154811061043157610431611696565b906000526020600020015410156107bc5760005b60ca600060c9848154811061045c5761045c611696565b906000526020600020015481526020019081526020016000208054905081101561073d5761069460ca600060c9858154811061049a5761049a611696565b9060005260206000200154815260200190815260200160002082815481106104c4576104c4611696565b60009182526020918290206040805160c081018252600690930290910180546001600160a01b03168352600181015483850152600281018054835181870281018701855281815294959294938601939283018282801561054d57602002820191906000526020600020905b81546001600160a01b0316815260019091019060200180831161052f575b50505050508152602001600382018054806020026020016040519081016040528092919081815260200182805480156105a557602002820191906000526020600020905b815481526020019060010190808311610591575b5050505050815260200160048201805480602002602001604051908101604052809291908181526020016000905b8282101561067f5783829060005260206000200180546105f2906116ac565b80601f016020809104026020016040519081016040528092919081815260200182805461061e906116ac565b801561066b5780601f106106405761010080835404028352916020019161066b565b820191906000526020600020905b81548152906001019060200180831161064e57829003601f168201915b5050505050815260200190600101906105d3565b50505050815260200160058201548152505050565b60ca600060c984815481106106ab576106ab611696565b9060005260206000200154815260200190815260200160002081815481106106d5576106d5611696565b60009182526020822060069091020180546001600160a01b031916815560018101829055906107076002830182611096565b610715600383016000611096565b6107236004830160006110b4565b50600060059190910155610736816116fd565b9050610445565b5060c954600110156107945760c9805461075990600190611718565b8154811061076957610769611696565b906000526020600020015460c9828154811061078757610787611696565b6000918252602090912001555b60c98054806107a5576107a561172f565b600190038181906000526020600020016000905590555b6107c5816116fd565b9050610413565b600054610100900460ff16158080156107ec5750600054600160ff909116105b806108065750303b158015610806575060005460ff166001145b6108695760405162461bcd60e51b815260206004820152602e60248201527f496e697469616c697a61626c653a20636f6e747261637420697320616c72656160448201526d191e481a5b9a5d1a585b1a5e995960921b60648201526084016101d8565b6000805460ff19166001179055801561088c576000805461ff0019166101001790555b610894610d6b565b61089c610d9a565b8015610275576000805461ff0019169055604051600181527f7f26b83ff96e1f2b6a682f133852f6798a09c465da95921460cefb38474024989060200160405180910390a150565b60405163c01f9e3760e01b8152600481018690526000906001600160a01b0388169063c01f9e3790602401602060405180830381865afa15801561092c573d6000803e3d6000fd5b505050506040513d601f19601f820116820180604052508101906109509190611745565b905060006109ae60c98054806020026020016040519081016040528092919081815260200182805480156109a357602002820191906000526020600020905b81548152602001906001019080831161098f575b505050505083610dc1565b915050806109ec5760c980546001810182556000919091527f66be4f155c5ef2ebd3772b228f2f00681e4ed5826cdb3b1943cc11ad15ad1d28018290555b600082815260ca60209081526040808320815160c0810183526001600160a01b038d811682528185018d81529382018c8152606083018c9052608083018b905260a083018a905283546001808201865594885296869020835160069098020180546001600160a01b03191697909216969096178155925191830191909155925180519192610a82926002850192909101906110d2565b5060608201518051610a9e916003840191602090910190611137565b5060808201518051610aba916004840191602090910190611172565b5060a0820151816005015550505050505050505050565b610ad9610cbf565b6001600160a01b038116610b3e5760405162461bcd60e51b815260206004820152602660248201527f4f776e61626c653a206e6577206f776e657220697320746865207a65726f206160448201526564647265737360d01b60648201526084016101d8565b61027581610d19565b610275610cbf565b7f4910fdfa16fed3260ed0e7147f7cc6da11a60208b5b9406d12a635614ffd91435460ff1615610b8757610b8283610e21565b505050565b826001600160a01b03166352d1902d6040518163ffffffff1660e01b8152600401602060405180830381865afa925050508015610be1575060408051601f3d908101601f19168201909252610bde91810190611745565b60015b610c445760405162461bcd60e51b815260206004820152602e60248201527f45524331393637557067726164653a206e657720696d706c656d656e7461746960448201526d6f6e206973206e6f74205555505360901b60648201526084016101d8565b6000805160206118258339815191528114610cb35760405162461bcd60e51b815260206004820152602960248201527f45524331393637557067726164653a20756e737570706f727465642070726f786044820152681a58589b195555525160ba1b60648201526084016101d8565b50610b82838383610ebd565b6033546001600160a01b0316331461040e5760405162461bcd60e51b815260206004820181905260248201527f4f776e61626c653a2063616c6c6572206973206e6f7420746865206f776e657260448201526064016101d8565b603380546001600160a01b038381166001600160a01b0319831681179093556040519116919082907f8be0079c531659141344cd1fd0a4f28419497f9722a3daafe3b4186f6b6457e090600090a35050565b600054610100900460ff16610d925760405162461bcd60e51b81526004016101d89061175e565b61040e610ee8565b600054610100900460ff1661040e5760405162461bcd60e51b81526004016101d89061175e565b81516000908190815b81811015610e105784868281518110610de557610de5611696565b60200260200101511415610e0057925060019150610e1a9050565b610e09816116fd565b9050610dca565b5060008092509250505b9250929050565b6001600160a01b0381163b610e8e5760405162461bcd60e51b815260206004820152602d60248201527f455243313936373a206e657720696d706c656d656e746174696f6e206973206e60448201526c1bdd08184818dbdb9d1c9858dd609a1b60648201526084016101d8565b60008051602061182583398151915280546001600160a01b0319166001600160a01b0392909216919091179055565b610ec683610f18565b600082511180610ed35750805b15610b8257610ee28383610f58565b50505050565b600054610100900460ff16610f0f5760405162461bcd60e51b81526004016101d89061175e565b61040e33610d19565b610f2181610e21565b6040516001600160a01b038216907fbc7cd75a20ee27fd9adebab32041f755214dbc6bffa90cc0225b39da2e5c2d3b90600090a250565b60606001600160a01b0383163b610fc05760405162461bcd60e51b815260206004820152602660248201527f416464726573733a2064656c65676174652063616c6c20746f206e6f6e2d636f6044820152651b9d1c9858dd60d21b60648201526084016101d8565b600080846001600160a01b031684604051610fdb91906117d5565b600060405180830381855af49150503d8060008114611016576040519150601f19603f3d011682016040523d82523d6000602084013e61101b565b606091505b509150915061104382826040518060600160405280602781526020016118456027913961104c565b95945050505050565b6060831561105b575081611065565b611065838361106c565b9392505050565b81511561107c5781518083602001fd5b8060405162461bcd60e51b81526004016101d891906117f1565b508054600082559060005260206000209081019061027591906111cb565b508054600082559060005260206000209081019061027591906111e0565b828054828255906000526020600020908101928215611127579160200282015b8281111561112757825182546001600160a01b0319166001600160a01b039091161782556020909201916001909101906110f2565b506111339291506111cb565b5090565b828054828255906000526020600020908101928215611127579160200282015b82811115611127578251825591602001919060010190611157565b8280548282559060005260206000209081019282156111bf579160200282015b828111156111bf57825180516111af9184916020909101906111fd565b5091602001919060010190611192565b506111339291506111e0565b5b8082111561113357600081556001016111cc565b808211156111335760006111f48282611270565b506001016111e0565b828054611209906116ac565b90600052602060002090601f01602090048101928261122b5760008555611127565b82601f1061124457805160ff1916838001178555611127565b828001600101855582156111275791820182811115611127578251825591602001919060010190611157565b50805461127c906116ac565b6000825580601f1061128c575050565b601f01602090049060005260206000209081019061027591906111cb565b80356001600160a01b03811681146112c157600080fd5b919050565b6000602082840312156112d857600080fd5b611065826112aa565b634e487b7160e01b600052604160045260246000fd5b604051601f8201601f1916810167ffffffffffffffff81118282101715611320576113206112e1565b604052919050565b600082601f83011261133957600080fd5b813567ffffffffffffffff811115611353576113536112e1565b611366601f8201601f19166020016112f7565b81815284602083860101111561137b57600080fd5b816020850160208301376000918101602001919091529392505050565b600080604083850312156113ab57600080fd5b6113b4836112aa565b9150602083013567ffffffffffffffff8111156113d057600080fd5b6113dc85828601611328565b9150509250929050565b600067ffffffffffffffff821115611400576114006112e1565b5060051b60200190565b600082601f83011261141b57600080fd5b8135602061143061142b836113e6565b6112f7565b82815260059290921b8401810191818101908684111561144f57600080fd5b8286015b8481101561146a5780358352918301918301611453565b509695505050505050565b600082601f83011261148657600080fd5b8135602061149661142b836113e6565b82815260059290921b840181019181810190868411156114b557600080fd5b8286015b8481101561146a57803567ffffffffffffffff8111156114d95760008081fd5b6114e78986838b0101611328565b8452509183019183016114b9565b60008060008060008060c0878903121561150e57600080fd5b611517876112aa565b95506020808801359550604088013567ffffffffffffffff8082111561153c57600080fd5b818a0191508a601f83011261155057600080fd5b813561155e61142b826113e6565b81815260059190911b8301840190848101908d83111561157d57600080fd5b938501935b828510156115a257611593856112aa565b82529385019390850190611582565b9850505060608a01359250808311156115ba57600080fd5b6115c68b848c0161140a565b955060808a01359250808311156115dc57600080fd5b50506115ea89828a01611475565b92505060a087013590509295509295509295565b6020808252602c908201527f46756e6374696f6e206d7573742062652063616c6c6564207468726f7567682060408201526b19195b1959d85d1958d85b1b60a21b606082015260800190565b6020808252602c908201527f46756e6374696f6e206d7573742062652063616c6c6564207468726f7567682060408201526b6163746976652070726f787960a01b606082015260800190565b634e487b7160e01b600052603260045260246000fd5b600181811c908216806116c057607f821691505b602082108114156116e157634e487b7160e01b600052602260045260246000fd5b50919050565b634e487b7160e01b600052601160045260246000fd5b6000600019821415611711576117116116e7565b5060010190565b60008282101561172a5761172a6116e7565b500390565b634e487b7160e01b600052603160045260246000fd5b60006020828403121561175757600080fd5b5051919050565b6020808252602b908201527f496e697469616c697a61626c653a20636f6e7472616374206973206e6f74206960408201526a6e697469616c697a696e6760a81b606082015260800190565b60005b838110156117c45781810151838201526020016117ac565b83811115610ee25750506000910152565b600082516117e78184602087016117a9565b9190910192915050565b60208152600082518060208401526118108160408501602087016117a9565b601f01601f1916919091016040019291505056fe360894a13ba1a3210667c828492db98dca3e2076cc3735a920a3ca505d382bbc416464726573733a206c6f772d6c6576656c2064656c65676174652063616c6c206661696c6564a2646970667358221220bbd0f8eaee37046138737ee28699740c12508a06ba7d3f9e14b7fb2baab2722564736f6c634300080c0033",
  "linkReferences": {},
  "deployedLinkReferences": {}
}