{
  "_format": "hh-sol-artifact-1",
  "contractName": "ChainlinkVRF",
  "sourceName": "src/backend/contracts/ChainlinkVRF.sol",
  "abi": [
    {
      "inputs": [
        {
          "internalType": "address",
          "name": "_mainContractAddress",
          "type": "address"
        },
        {
          "internalType": "uint64",
          "name": "_subscriptionId",
          "type": "uint64"
        },
        {
          "internalType": "address",
          "name": "_coordinator",
          "type": "address"
        },
        {
          "internalType": "bytes32",
          "name": "_keyHash",
          "type": "bytes32"
        }
      ],
      "stateMutability": "nonpayable",
      "type": "constructor"
    },
    {
      "inputs": [
        {
          "internalType": "address",
          "name": "have",
          "type": "address"
        },
        {
          "internalType": "address",
          "name": "want",
          "type": "address"
        }
      ],
      "name": "OnlyCoordinatorCanFulfill",
      "type": "error"
    },
    {
      "anonymous": false,
      "inputs": [
        {
          "indexed": true,
          "internalType": "address",
          "name": "from",
          "type": "address"
        },
        {
          "indexed": true,
          "internalType": "address",
          "name": "to",
          "type": "address"
        }
      ],
      "name": "OwnershipTransferRequested",
      "type": "event"
    },
    {
      "anonymous": false,
      "inputs": [
        {
          "indexed": true,
          "internalType": "address",
          "name": "from",
          "type": "address"
        },
        {
          "indexed": true,
          "internalType": "address",
          "name": "to",
          "type": "address"
        }
      ],
      "name": "OwnershipTransferred",
      "type": "event"
    },
    {
      "anonymous": false,
      "inputs": [
        {
          "indexed": false,
          "internalType": "uint256",
          "name": "requestId",
          "type": "uint256"
        },
        {
          "indexed": false,
          "internalType": "uint256[]",
          "name": "randomWords",
          "type": "uint256[]"
        }
      ],
      "name": "RequestFulfilled",
      "type": "event"
    },
    {
      "anonymous": false,
      "inputs": [
        {
          "indexed": false,
          "internalType": "uint256",
          "name": "requestId",
          "type": "uint256"
        },
        {
          "indexed": false,
          "internalType": "uint32",
          "name": "numWords",
          "type": "uint32"
        }
      ],
      "name": "RequestSent",
      "type": "event"
    },
    {
      "inputs": [],
      "name": "acceptOwnership",
      "outputs": [],
      "stateMutability": "nonpayable",
      "type": "function"
    },
    {
      "inputs": [
        {
          "internalType": "uint256",
          "name": "",
          "type": "uint256"
        },
        {
          "internalType": "uint256",
          "name": "",
          "type": "uint256"
        }
      ],
      "name": "communityRaffles",
      "outputs": [
        {
          "internalType": "uint256",
          "name": "requestId",
          "type": "uint256"
        },
        {
          "internalType": "uint256",
          "name": "maxValue",
          "type": "uint256"
        }
      ],
      "stateMutability": "view",
      "type": "function"
    },
    {
      "inputs": [
        {
          "internalType": "uint256",
          "name": "_communityId",
          "type": "uint256"
        }
      ],
      "name": "getCommunityRaffles",
      "outputs": [
        {
          "components": [
            {
              "internalType": "uint256",
              "name": "requestId",
              "type": "uint256"
            },
            {
              "internalType": "uint256",
              "name": "maxValue",
              "type": "uint256"
            },
            {
              "internalType": "uint256[]",
              "name": "result",
              "type": "uint256[]"
            }
          ],
          "internalType": "struct ChainlinkVRF.Raffle[]",
          "name": "",
          "type": "tuple[]"
        }
      ],
      "stateMutability": "view",
      "type": "function"
    },
    {
      "inputs": [
        {
          "internalType": "uint256",
          "name": "_requestId",
          "type": "uint256"
        }
      ],
      "name": "getRequestStatus",
      "outputs": [
        {
          "internalType": "bool",
          "name": "fulfilled",
          "type": "bool"
        },
        {
          "internalType": "uint256[]",
          "name": "randomWords",
          "type": "uint256[]"
        }
      ],
      "stateMutability": "view",
      "type": "function"
    },
    {
      "inputs": [],
      "name": "lastRequestId",
      "outputs": [
        {
          "internalType": "uint256",
          "name": "",
          "type": "uint256"
        }
      ],
      "stateMutability": "view",
      "type": "function"
    },
    {
      "inputs": [],
      "name": "owner",
      "outputs": [
        {
          "internalType": "address",
          "name": "",
          "type": "address"
        }
      ],
      "stateMutability": "view",
      "type": "function"
    },
    {
      "inputs": [
        {
          "internalType": "uint256",
          "name": "requestId",
          "type": "uint256"
        },
        {
          "internalType": "uint256[]",
          "name": "randomWords",
          "type": "uint256[]"
        }
      ],
      "name": "rawFulfillRandomWords",
      "outputs": [],
      "stateMutability": "nonpayable",
      "type": "function"
    },
    {
      "inputs": [
        {
          "internalType": "uint256",
          "name": "",
          "type": "uint256"
        }
      ],
      "name": "requestIds",
      "outputs": [
        {
          "internalType": "uint256",
          "name": "",
          "type": "uint256"
        }
      ],
      "stateMutability": "view",
      "type": "function"
    },
    {
      "inputs": [
        {
          "internalType": "uint256",
          "name": "_communityId",
          "type": "uint256"
        },
        {
          "internalType": "uint256",
          "name": "_maxValue",
          "type": "uint256"
        },
        {
          "internalType": "uint32",
          "name": "_winnersAmount",
          "type": "uint32"
        }
      ],
      "name": "requestRandomWords",
      "outputs": [
        {
          "internalType": "uint256",
          "name": "requestId",
          "type": "uint256"
        }
      ],
      "stateMutability": "nonpayable",
      "type": "function"
    },
    {
      "inputs": [
        {
          "internalType": "uint256",
          "name": "",
          "type": "uint256"
        }
      ],
      "name": "s_requests",
      "outputs": [
        {
          "internalType": "bool",
          "name": "fulfilled",
          "type": "bool"
        },
        {
          "internalType": "bool",
          "name": "exists",
          "type": "bool"
        },
        {
          "internalType": "uint256",
          "name": "communityId",
          "type": "uint256"
        },
        {
          "internalType": "uint256",
          "name": "raffleIndex",
          "type": "uint256"
        }
      ],
      "stateMutability": "view",
      "type": "function"
    },
    {
      "inputs": [
        {
          "internalType": "address",
          "name": "to",
          "type": "address"
        }
      ],
      "name": "transferOwnership",
      "outputs": [],
      "stateMutability": "nonpayable",
      "type": "function"
    }
  ],
  "bytecode": "0x60a06040526009805461ffff191660031790553480156200001f57600080fd5b50604051620013bf380380620013bf8339810160408190526200004291620001fe565b6001600160a01b0382166080523380600081620000a65760405162461bcd60e51b815260206004820152601860248201527f43616e6e6f7420736574206f776e657220746f207a65726f000000000000000060448201526064015b60405180910390fd5b600080546001600160a01b0319166001600160a01b0384811691909117909155811615620000d957620000d98162000135565b5050600580546001600160401b03909516600160a01b026001600160e01b03199095166001600160a01b03948516179490941790935560085560028054939091166001600160a01b03199390931692909217909155506200025e565b6001600160a01b038116331415620001905760405162461bcd60e51b815260206004820152601760248201527f43616e6e6f74207472616e7366657220746f2073656c6600000000000000000060448201526064016200009d565b600180546001600160a01b0319166001600160a01b0383811691821790925560008054604051929316917fed8889f560326eb138920d842192f0eb3dd22b4f139c87a2c57538e05bae12789190a350565b80516001600160a01b0381168114620001f957600080fd5b919050565b600080600080608085870312156200021557600080fd5b6200022085620001e1565b60208601519094506001600160401b03811681146200023e57600080fd5b92506200024e60408601620001e1565b6060959095015193969295505050565b60805161113e6200028160003960008181610248015261028a015261113e6000f3fe608060405234801561001057600080fd5b50600436106100a95760003560e01c80638da5cb5b116100715780638da5cb5b14610139578063a168fa8914610154578063d8a4676f146101b1578063dad22e21146101d2578063f2fde38b146101e5578063fc2a88c3146101f857600080fd5b8063075ac12e146100ae5780631fe543e3146100db57806379ba5097146100f0578063809b9045146100f85780638796ba8c14610118575b600080fd5b6100c16100bc366004610d14565b610201565b604080519283526020830191909152015b60405180910390f35b6100ee6100e9366004610d4c565b61023d565b005b6100ee6102ca565b61010b610106366004610e16565b610374565b6040516100d29190610e2f565b61012b610126366004610e16565b610452565b6040519081526020016100d2565b6000546040516001600160a01b0390911681526020016100d2565b61018f610162366004610e16565b60046020526000908152604090208054600282015460039092015460ff8083169361010090930416919084565b60408051941515855292151560208501529183015260608201526080016100d2565b6101c46101bf366004610e16565b610473565b6040516100d2929190610f14565b61012b6101e0366004610f37565b610576565b6100ee6101f3366004610f79565b61091a565b61012b60075481565b6003602052816000526040600020818154811061021d57600080fd5b600091825260209091206003909102018054600190910154909250905082565b336001600160a01b037f000000000000000000000000000000000000000000000000000000000000000016146102bc5760405163073e64fd60e21b81523360048201526001600160a01b037f00000000000000000000000000000000000000000000000000000000000000001660248201526044015b60405180910390fd5b6102c6828261092e565b5050565b6001546001600160a01b0316331461031d5760405162461bcd60e51b815260206004820152601660248201527526bab9ba10313290383937b837b9b2b21037bbb732b960511b60448201526064016102b3565b60008054336001600160a01b0319808316821784556001805490911690556040516001600160a01b0390921692909183917f8be0079c531659141344cd1fd0a4f28419497f9722a3daafe3b4186f6b6457e091a350565b606060036000838152602001908152602001600020805480602002602001604051908101604052809291908181526020016000905b82821015610447578382906000526020600020906003020160405180606001604052908160008201548152602001600182015481526020016002820180548060200260200160405190810160405280929190818152602001828054801561042f57602002820191906000526020600020905b81548152602001906001019080831161041b575b505050505081525050815260200190600101906103a9565b505050509050919050565b6006818154811061046257600080fd5b600091825260209091200154905081565b600081815260046020526040812054606090610100900460ff166104cd5760405162461bcd60e51b81526020600482015260116024820152701c995c5d595cdd081b9bdd08199bdd5b99607a1b60448201526064016102b3565b6000838152600460209081526040808320815160a081018352815460ff808216151583526101009091041615158185015260018201805484518187028101870186528181529295939486019383018282801561054857602002820191906000526020600020905b815481526020019060010190808311610534575b5050509183525050600282015460208201526003909101546040918201528151910151909590945092505050565b6000606e8263ffffffff1611156105e65760405162461bcd60e51b815260206004820152602e60248201527f57696e6e65727320616d6f756e74206c696d6974206973203131302077696e6e60448201526d6572732070657220726166666c6560901b60648201526084016102b3565b6002546001600160a01b031633146106405760405162461bcd60e51b815260206004820152601f60248201527f4e6f2041636365737320746f207265717565737452616e646f6d576f7264730060448201526064016102b3565b61067e6040518060400160405280601781526020017f7265717565737452616e646f6d576f7264732063616c6c000000000000000000815250610b0c565b600061068c836155f0610fbf565b90506106c76040518060400160405280601181526020017017d8d85b1b189858dad1d85cd31a5b5a5d607a1b8152508263ffffffff16610b4f565b600191506106f6604051806040016040528060098152602001681c995c5d595cdd125960ba1b81525083610b4f565b604080516060810182528381526020808201879052825160008152808201845282840152825180840190935260098352685f6d617856616c756560b81b90830152906107429086610b4f565b6000868152600360208181526040808420805460018181018355918652948390208651959094029093019384558482015192840192909255908301518051849392610794926002850192910190610cb4565b5050506107c56040518060400160405280600c81526020016b17d8dbdb5b5d5b9a5d1e525960a21b81525087610b4f565b6040805160a0810182526000808252600160208084018290528451838152808201865284860152606084018b90528a835260039052929020549091608083019161080f9190610feb565b9052600084815260046020908152604091829020835181548584015115156101000261ff00199215159290921661ffff199091161717815591830151805161085d9260018501920190610cb4565b5060608201518160020155608082015181600301559050506108996040518060400160405280600381526020016217171760e91b815250610b0c565b600680546001810182556000919091527ff652222313e28459528d920b65115c16c04f3efc82aaedc97be59f3f377c0d3f0183905560078390556040805184815263ffffffff861660208201527fcc58b13ad3eab50626c6a6300b1d139cd6ebb1688a7cced9461c2f7e762665ee910160405180910390a150509392505050565b610922610b94565b61092b81610be9565b50565b600082815260046020526040902054610100900460ff166109855760405162461bcd60e51b81526020600482015260116024820152701c995c5d595cdd081b9bdd08199bdd5b99607a1b60448201526064016102b3565b6000828152600460209081526040909120805460ff19166001908117825583516109b6939290910191840190610cb4565b507ffe2e2d779dba245964d4e3ef9b994be63856fd568bf7d3ca9e224755cb1bd54d82826040516109e8929190611002565b60405180910390a1600082815260046020908152604080832060028101548452600392839052908320918101548254919392918110610a2957610a2961101b565b906000526020600020906003020190506000835167ffffffffffffffff811115610a5557610a55610d36565b604051908082528060200260200182016040528015610a7e578160200160208202803683370190505b50905060005b8451811015610aee578260010154858281518110610aa457610aa461101b565b6020026020010151610ab69190611031565b610ac1906001611053565b828281518110610ad357610ad361101b565b6020908102919091010152610ae78161106b565b9050610a84565b508051610b049060028401906020840190610cb4565b505050505050565b61092b81604051602401610b2091906110d3565b60408051601f198184030181529190526020810180516001600160e01b031663104c13eb60e21b179052610c93565b6102c68282604051602401610b659291906110e6565b60408051601f198184030181529190526020810180516001600160e01b0316632d839cb360e21b179052610c93565b6000546001600160a01b03163314610be75760405162461bcd60e51b815260206004820152601660248201527527b7363c9031b0b63630b1363290313c9037bbb732b960511b60448201526064016102b3565b565b6001600160a01b038116331415610c425760405162461bcd60e51b815260206004820152601760248201527f43616e6e6f74207472616e7366657220746f2073656c6600000000000000000060448201526064016102b3565b600180546001600160a01b0319166001600160a01b0383811691821790925560008054604051929316917fed8889f560326eb138920d842192f0eb3dd22b4f139c87a2c57538e05bae12789190a350565b80516a636f6e736f6c652e6c6f67602083016000808483855afa5050505050565b828054828255906000526020600020908101928215610cef579160200282015b82811115610cef578251825591602001919060010190610cd4565b50610cfb929150610cff565b5090565b5b80821115610cfb5760008155600101610d00565b60008060408385031215610d2757600080fd5b50508035926020909101359150565b634e487b7160e01b600052604160045260246000fd5b60008060408385031215610d5f57600080fd5b8235915060208084013567ffffffffffffffff80821115610d7f57600080fd5b818601915086601f830112610d9357600080fd5b813581811115610da557610da5610d36565b8060051b604051601f19603f83011681018181108582111715610dca57610dca610d36565b604052918252848201925083810185019189831115610de857600080fd5b938501935b82851015610e0657843584529385019392850192610ded565b8096505050505050509250929050565b600060208284031215610e2857600080fd5b5035919050565b60006020808301818452808551808352604092508286019150828160051b8701018488016000805b84811015610eca57898403603f1901865282518051855288810151898601528701516060888601819052815190860181905290890190608086019084905b80821015610eb55783518352928b0192918b019160019190910190610e95565b50509689019694505091870191600101610e57565b50919998505050505050505050565b600081518084526020808501945080840160005b83811015610f0957815187529582019590820190600101610eed565b509495945050505050565b8215158152604060208201526000610f2f6040830184610ed9565b949350505050565b600080600060608486031215610f4c57600080fd5b8335925060208401359150604084013563ffffffff81168114610f6e57600080fd5b809150509250925092565b600060208284031215610f8b57600080fd5b81356001600160a01b0381168114610fa257600080fd5b9392505050565b634e487b7160e01b600052601160045260246000fd5b600063ffffffff80831681851681830481118215151615610fe257610fe2610fa9565b02949350505050565b600082821015610ffd57610ffd610fa9565b500390565b828152604060208201526000610f2f6040830184610ed9565b634e487b7160e01b600052603260045260246000fd5b60008261104e57634e487b7160e01b600052601260045260246000fd5b500690565b6000821982111561106657611066610fa9565b500190565b600060001982141561107f5761107f610fa9565b5060010190565b6000815180845260005b818110156110ac57602081850181015186830182015201611090565b818111156110be576000602083870101525b50601f01601f19169290920160200192915050565b602081526000610fa26020830184611086565b6040815260006110f96040830185611086565b9050826020830152939250505056fea26469706673582212200bf828529c7717124a5a35d011f550c7ebd2d91a85ad24f1dba74809fabba53d64736f6c634300080c0033",
  "linkReferences": {},
  "deployedLinkReferences": {}
}