{
  "_format": "hh-sol-artifact-1",
  "contractName": "FactoryGovernanceContract",
  "sourceName": "src/backend/contracts/FactoryGovernanceContract.sol",
  "abi": [
    {
      "inputs": [],
      "stateMutability": "nonpayable",
      "type": "constructor"
    },
    {
      "anonymous": false,
      "inputs": [
        {
          "indexed": false,
          "internalType": "address",
          "name": "previousAdmin",
          "type": "address"
        },
        {
          "indexed": false,
          "internalType": "address",
          "name": "newAdmin",
          "type": "address"
        }
      ],
      "name": "AdminChanged",
      "type": "event"
    },
    {
      "anonymous": false,
      "inputs": [
        {
          "indexed": true,
          "internalType": "address",
          "name": "beacon",
          "type": "address"
        }
      ],
      "name": "BeaconUpgraded",
      "type": "event"
    },
    {
      "anonymous": false,
      "inputs": [
        {
          "indexed": false,
          "internalType": "uint8",
          "name": "version",
          "type": "uint8"
        }
      ],
      "name": "Initialized",
      "type": "event"
    },
    {
      "anonymous": false,
      "inputs": [
        {
          "indexed": true,
          "internalType": "uint256",
          "name": "_communityId",
          "type": "uint256"
        },
        {
          "indexed": false,
          "internalType": "address",
          "name": "_contractAddress",
          "type": "address"
        },
        {
          "indexed": false,
          "internalType": "string",
          "name": "_contractType",
          "type": "string"
        }
      ],
      "name": "NewContract",
      "type": "event"
    },
    {
      "anonymous": false,
      "inputs": [
        {
          "indexed": true,
          "internalType": "address",
          "name": "previousOwner",
          "type": "address"
        },
        {
          "indexed": true,
          "internalType": "address",
          "name": "newOwner",
          "type": "address"
        }
      ],
      "name": "OwnershipTransferred",
      "type": "event"
    },
    {
      "anonymous": false,
      "inputs": [
        {
          "indexed": true,
          "internalType": "address",
          "name": "implementation",
          "type": "address"
        }
      ],
      "name": "Upgraded",
      "type": "event"
    },
    {
      "inputs": [
        {
          "internalType": "uint256",
          "name": "_communityId",
          "type": "uint256"
        },
        {
          "internalType": "contract IVotes",
          "name": "_ftContractAddress",
          "type": "address"
        },
        {
          "internalType": "contract TimelockController",
          "name": "_governanceTimeLock",
          "type": "address"
        },
        {
          "internalType": "uint256",
          "name": "_quorum",
          "type": "uint256"
        },
        {
          "internalType": "uint256",
          "name": "_delay",
          "type": "uint256"
        },
        {
          "internalType": "uint256",
          "name": "_period",
          "type": "uint256"
        }
      ],
      "name": "deployGovernanceContract",
      "outputs": [],
      "stateMutability": "nonpayable",
      "type": "function"
    },
    {
      "inputs": [
        {
          "internalType": "address",
          "name": "_mainContractAddress",
          "type": "address"
        }
      ],
      "name": "initialize",
      "outputs": [],
      "stateMutability": "nonpayable",
      "type": "function"
    },
    {
      "inputs": [],
      "name": "owner",
      "outputs": [
        {
          "internalType": "address",
          "name": "",
          "type": "address"
        }
      ],
      "stateMutability": "view",
      "type": "function"
    },
    {
      "inputs": [],
      "name": "proxiableUUID",
      "outputs": [
        {
          "internalType": "bytes32",
          "name": "",
          "type": "bytes32"
        }
      ],
      "stateMutability": "view",
      "type": "function"
    },
    {
      "inputs": [],
      "name": "renounceOwnership",
      "outputs": [],
      "stateMutability": "nonpayable",
      "type": "function"
    },
    {
      "inputs": [
        {
          "internalType": "address",
          "name": "newOwner",
          "type": "address"
        }
      ],
      "name": "transferOwnership",
      "outputs": [],
      "stateMutability": "nonpayable",
      "type": "function"
    },
    {
      "inputs": [
        {
          "internalType": "address",
          "name": "newImplementation",
          "type": "address"
        }
      ],
      "name": "upgradeTo",
      "outputs": [],
      "stateMutability": "nonpayable",
      "type": "function"
    },
    {
      "inputs": [
        {
          "internalType": "address",
          "name": "newImplementation",
          "type": "address"
        },
        {
          "internalType": "bytes",
          "name": "data",
          "type": "bytes"
        }
      ],
      "name": "upgradeToAndCall",
      "outputs": [],
      "stateMutability": "payable",
      "type": "function"
    }
  ],
  "bytecode": "0x60a06040523060805234801561001457600080fd5b5061001d610022565b6100e2565b600054610100900460ff161561008e5760405162461bcd60e51b815260206004820152602760248201527f496e697469616c697a61626c653a20636f6e747261637420697320696e697469604482015266616c697a696e6760c81b606482015260840160405180910390fd5b60005460ff90811610156100e0576000805460ff191660ff9081179091556040519081527f7f26b83ff96e1f2b6a682f133852f6798a09c465da95921460cefb38474024989060200160405180910390a15b565b608051615e036101196000396000818161060301528181610646015281816106ef0152818161073201526107ce0152615e036000f3fe608060405260043610620000855760003560e01c8063715018a61162000054578063715018a614620001185780638da5cb5b1462000130578063c4d66de8146200015a578063f2fde38b146200017f57600080fd5b806326ae4646146200008a5780633659cfe614620000b15780634f1ef28614620000d657806352d1902d14620000ed575b600080fd5b3480156200009757600080fd5b50620000af620000a936600462000f96565b620001a4565b005b348015620000be57600080fd5b50620000af620000d036600462000ff7565b620005f8565b620000af620000e73660046200102d565b620006e4565b348015620000fa57600080fd5b5062000105620007c1565b6040519081526020015b60405180910390f35b3480156200012557600080fd5b50620000af62000877565b3480156200013d57600080fd5b506033546040516001600160a01b0390911681526020016200010f565b3480156200016757600080fd5b50620000af6200017936600462000ff7565b6200088f565b3480156200018c57600080fd5b50620000af6200019e36600462000ff7565b620009ce565b60c954604051633b0c2e1760e21b8152600481018890523360248201526001600160a01b039091169063ec30b85c90604401602060405180830381865afa158015620001f4573d6000803e3d6000fd5b505050506040513d601f19601f820116820180604052508101906200021a919062001113565b620002585760405162461bcd60e51b81526020600482015260096024820152684e6f2041636365737360b81b60448201526064015b60405180910390fd5b600083116200029f5760405162461bcd60e51b815260206004820152601260248201527157726f6e672071756f72756d2076616c756560701b60448201526064016200024f565b60008111620002f15760405162461bcd60e51b815260206004820152601960248201527f57726f6e6720566f74696e6720506572696f642076616c75650000000000000060448201526064016200024f565b60c954604051635b25bfbb60e11b81526004810188905260009182916001600160a01b039091169063b64b7f7690602401606060405180830381865afa15801562000340573d6000803e3d6000fd5b505050506040513d601f19601f8201168201806040525081019062000366919062001131565b92509250508015620003c75760405162461bcd60e51b815260206004820152602360248201527f436f6d6d756e69747920616c726561647920686176652044414f20436f6e74726044820152621858dd60ea1b60648201526084016200024f565b81620004245760405162461bcd60e51b815260206004820152602560248201527f436f6d6d756e69747920646f6e2774206861766520546f6b656e20666f7220766044820152646f74696e6760d81b60648201526084016200024f565b60008787878787604051620004399062000f72565b6001600160a01b03958616815294909316602085015260408401919091526060830152608082015260a001604051809103906000f08015801562000481573d6000803e3d6000fd5b5060ca80546001810182556000919091527f42d72674974f694b5f5159593243114d38a5c39c89d6b62fee061ff523240ee10180546001600160a01b0319166001600160a01b0383811691821790925560405163f2fde38b60e01b8152918a16600483015291925063f2fde38b90602401600060405180830381600087803b1580156200050d57600080fd5b505af115801562000522573d6000803e3d6000fd5b505060c954604051631c174e9f60e01b8152600481018d90526001600160a01b0385811660248301529091169250631c174e9f9150604401600060405180830381600087803b1580156200057557600080fd5b505af11580156200058a573d6000803e3d6000fd5b5050604080516001600160a01b038516815260208101829052600a8183015269476f7665726e616e636560b01b606082015290518c93507fc500b3b673a94d1f6af2da9be7af8d078d405a1a8bac815f0f1f0f5b70b3cb5492509081900360800190a2505050505050505050565b306001600160a01b037f0000000000000000000000000000000000000000000000000000000000000000161415620006445760405162461bcd60e51b81526004016200024f906200117b565b7f00000000000000000000000000000000000000000000000000000000000000006001600160a01b03166200068f60008051602062005d87833981519152546001600160a01b031690565b6001600160a01b031614620006b85760405162461bcd60e51b81526004016200024f90620011c7565b620006c38162000a4a565b60408051600080825260208201909252620006e19183919062000a54565b50565b306001600160a01b037f0000000000000000000000000000000000000000000000000000000000000000161415620007305760405162461bcd60e51b81526004016200024f906200117b565b7f00000000000000000000000000000000000000000000000000000000000000006001600160a01b03166200077b60008051602062005d87833981519152546001600160a01b031690565b6001600160a01b031614620007a45760405162461bcd60e51b81526004016200024f90620011c7565b620007af8262000a4a565b620007bd8282600162000a54565b5050565b6000306001600160a01b037f00000000000000000000000000000000000000000000000000000000000000001614620008635760405162461bcd60e51b815260206004820152603860248201527f555550535570677261646561626c653a206d757374206e6f742062652063616c60448201527f6c6564207468726f7567682064656c656761746563616c6c000000000000000060648201526084016200024f565b5060008051602062005d8783398151915290565b6200088162000bd1565b6200088d600062000c2d565b565b600054610100900460ff1615808015620008b05750600054600160ff909116105b80620008cc5750303b158015620008cc575060005460ff166001145b620009315760405162461bcd60e51b815260206004820152602e60248201527f496e697469616c697a61626c653a20636f6e747261637420697320616c72656160448201526d191e481a5b9a5d1a585b1a5e995960921b60648201526084016200024f565b6000805460ff19166001179055801562000955576000805461ff0019166101001790555b6200095f62000c7f565b6200096962000cb3565b60c980546001600160a01b0319166001600160a01b0384161790558015620007bd576000805461ff0019169055604051600181527f7f26b83ff96e1f2b6a682f133852f6798a09c465da95921460cefb38474024989060200160405180910390a15050565b620009d862000bd1565b6001600160a01b03811662000a3f5760405162461bcd60e51b815260206004820152602660248201527f4f776e61626c653a206e6577206f776e657220697320746865207a65726f206160448201526564647265737360d01b60648201526084016200024f565b620006e18162000c2d565b620006e162000bd1565b7f4910fdfa16fed3260ed0e7147f7cc6da11a60208b5b9406d12a635614ffd91435460ff161562000a8f5762000a8a8362000cdd565b505050565b826001600160a01b03166352d1902d6040518163ffffffff1660e01b8152600401602060405180830381865afa92505050801562000aec575060408051601f3d908101601f1916820190925262000ae99181019062001213565b60015b62000b515760405162461bcd60e51b815260206004820152602e60248201527f45524331393637557067726164653a206e657720696d706c656d656e7461746960448201526d6f6e206973206e6f74205555505360901b60648201526084016200024f565b60008051602062005d87833981519152811462000bc35760405162461bcd60e51b815260206004820152602960248201527f45524331393637557067726164653a20756e737570706f727465642070726f786044820152681a58589b195555525160ba1b60648201526084016200024f565b5062000a8a83838362000d7c565b6033546001600160a01b031633146200088d5760405162461bcd60e51b815260206004820181905260248201527f4f776e61626c653a2063616c6c6572206973206e6f7420746865206f776e657260448201526064016200024f565b603380546001600160a01b038381166001600160a01b0319831681179093556040519116919082907f8be0079c531659141344cd1fd0a4f28419497f9722a3daafe3b4186f6b6457e090600090a35050565b600054610100900460ff1662000ca95760405162461bcd60e51b81526004016200024f906200122d565b6200088d62000dad565b600054610100900460ff166200088d5760405162461bcd60e51b81526004016200024f906200122d565b6001600160a01b0381163b62000d4c5760405162461bcd60e51b815260206004820152602d60248201527f455243313936373a206e657720696d706c656d656e746174696f6e206973206e60448201526c1bdd08184818dbdb9d1c9858dd609a1b60648201526084016200024f565b60008051602062005d8783398151915280546001600160a01b0319166001600160a01b0392909216919091179055565b62000d878362000de2565b60008251118062000d955750805b1562000a8a5762000da7838362000e24565b50505050565b600054610100900460ff1662000dd75760405162461bcd60e51b81526004016200024f906200122d565b6200088d3362000c2d565b62000ded8162000cdd565b6040516001600160a01b038216907fbc7cd75a20ee27fd9adebab32041f755214dbc6bffa90cc0225b39da2e5c2d3b90600090a250565b60606001600160a01b0383163b62000e8e5760405162461bcd60e51b815260206004820152602660248201527f416464726573733a2064656c65676174652063616c6c20746f206e6f6e2d636f6044820152651b9d1c9858dd60d21b60648201526084016200024f565b600080846001600160a01b03168460405162000eab9190620012a7565b600060405180830381855af49150503d806000811462000ee8576040519150601f19603f3d011682016040523d82523d6000602084013e62000eed565b606091505b509150915062000f18828260405180606001604052806027815260200162005da76027913962000f21565b95945050505050565b6060831562000f3257508162000f3e565b62000f3e838362000f45565b9392505050565b81511562000f565781518083602001fd5b8060405162461bcd60e51b81526004016200024f9190620012c5565b614a8c80620012fb83390190565b6001600160a01b0381168114620006e157600080fd5b60008060008060008060c0878903121562000fb057600080fd5b86359550602087013562000fc48162000f80565b9450604087013562000fd68162000f80565b959894975094956060810135955060808101359460a0909101359350915050565b6000602082840312156200100a57600080fd5b813562000f3e8162000f80565b634e487b7160e01b600052604160045260246000fd5b600080604083850312156200104157600080fd5b82356200104e8162000f80565b9150602083013567ffffffffffffffff808211156200106c57600080fd5b818501915085601f8301126200108157600080fd5b81358181111562001096576200109662001017565b604051601f8201601f19908116603f01168101908382118183101715620010c157620010c162001017565b81604052828152886020848701011115620010db57600080fd5b8260208601602083013760006020848301015280955050505050509250929050565b805180151581146200110e57600080fd5b919050565b6000602082840312156200112657600080fd5b62000f3e82620010fd565b6000806000606084860312156200114757600080fd5b6200115284620010fd565b92506200116260208501620010fd565b91506200117260408501620010fd565b90509250925092565b6020808252602c908201527f46756e6374696f6e206d7573742062652063616c6c6564207468726f7567682060408201526b19195b1959d85d1958d85b1b60a21b606082015260800190565b6020808252602c908201527f46756e6374696f6e206d7573742062652063616c6c6564207468726f7567682060408201526b6163746976652070726f787960a01b606082015260800190565b6000602082840312156200122657600080fd5b5051919050565b6020808252602b908201527f496e697469616c697a61626c653a20636f6e7472616374206973206e6f74206960408201526a6e697469616c697a696e6760a81b606082015260800190565b60005b83811015620012955781810151838201526020016200127b565b8381111562000da75750506000910152565b60008251620012bb81846020870162001278565b9190910192915050565b6020815260008251806020840152620012e681604085016020870162001278565b601f01601f1916919091016040019291505056fe6101606040523480156200001257600080fd5b5060405162004a8c38038062004a8c833981016040819052620000359162000868565b838386848460006040518060400160405280600a815260200169476f7665726e616e636560b01b81525080620000706200017860201b60201c565b815160208084019190912082518383012060e08290526101008190524660a0818152604080517f8b73c3c69bb8fe3d512ecc4cf759cc79239f7b179b0ffacaa9a75d522b39400f81880181905281830187905260608201869052608082019490945230818401528151808203909301835260c00190528051940193909320919290916080523060c0526101205250508251620001169250600091506020840190620007b3565b506200012490508362000193565b6200012f82620001d4565b6200013a816200027b565b5050506001600160a01b0316610140526200015581620002bc565b50620001618162000434565b506200016d336200049d565b505050505062000939565b6040805180820190915260018152603160f81b602082015290565b60045460408051918252602082018390527fc565b045403dc03c2eea82b81a0465edad9e2e7fc4d97e11421c209da93d7a93910160405180910390a1600455565b600081116200023a5760405162461bcd60e51b815260206004820152602760248201527f476f7665726e6f7253657474696e67733a20766f74696e6720706572696f6420604482015266746f6f206c6f7760c81b60648201526084015b60405180910390fd5b60055460408051918252602082018390527f7e3f7f0708a84de9203036abaa450dccc85ad5ff52f78c170f3edb55cf5e8828910160405180910390a1600555565b60065460408051918252602082018390527fccb45da8d5717e6c4544694297c4ba5cf151d455c9bb0ed4fc7a38411bc05461910160405180910390a1600655565b6064811115620003415760405162461bcd60e51b815260206004820152604360248201527f476f7665726e6f72566f74657351756f72756d4672616374696f6e3a2071756f60448201527f72756d4e756d657261746f72206f7665722071756f72756d44656e6f6d696e616064820152623a37b960e91b608482015260a40162000231565b60006200034d620004ef565b905080158015906200035f5750600954155b15620003da5760096000016040518060400160405280600063ffffffff16815260200162000398846200051e60201b6200177e1760201c565b6001600160e01b0390811690915282546001810184556000938452602093849020835194909301519091166401000000000263ffffffff909316929092179101555b620003f58260096200058d60201b620017eb1790919060201c565b505060408051828152602081018490527f0553476bf02ef2726e8ce5ced78d63e26e602e4a2257b1f559418e24b4633997910160405180910390a15050565b600a54604080516001600160a01b03928316815291831660208301527f08f74ea46ef7894f65eabfb5e6e695de773a000b47c529ab559178069b226401910160405180910390a1600a80546001600160a01b0319166001600160a01b0392909216919091179055565b600c80546001600160a01b038381166001600160a01b0319831681179093556040519116919082907f8be0079c531659141344cd1fd0a4f28419497f9722a3daafe3b4186f6b6457e090600090a35050565b600954600090156200051757620005126009620006e960201b620019161760201c565b905090565b5060085490565b60006001600160e01b03821115620005895760405162461bcd60e51b815260206004820152602760248201527f53616665436173743a2076616c756520646f65736e27742066697420696e20326044820152663234206269747360c81b606482015260840162000231565b5090565b8154600090819081620005a086620006e9565b9050600082118015620005e457504386620005bd600185620008c0565b81548110620005d057620005d0620008e6565b60009182526020909120015463ffffffff16145b15620006585762000600856200051e60201b6200177e1760201c565b866200060e600185620008c0565b81548110620006215762000621620008e6565b9060005260206000200160000160046101000a8154816001600160e01b0302191690836001600160e01b03160217905550620006e0565b8560000160405180604001604052806200067d436200074c60201b620019721760201c565b63ffffffff1681526020016200069e886200051e60201b6200177e1760201c565b6001600160e01b0390811690915282546001810184556000938452602093849020835194909301519091166401000000000263ffffffff909316929092179101555b95939450505050565b8054600090801562000739578262000703600183620008c0565b81548110620007165762000716620008e6565b60009182526020909120015464010000000090046001600160e01b03166200073c565b60005b6001600160e01b03169392505050565b600063ffffffff821115620005895760405162461bcd60e51b815260206004820152602660248201527f53616665436173743a2076616c756520646f65736e27742066697420696e203360448201526532206269747360d01b606482015260840162000231565b828054620007c190620008fc565b90600052602060002090601f016020900481019282620007e5576000855562000830565b82601f106200080057805160ff191683800117855562000830565b8280016001018555821562000830579182015b828111156200083057825182559160200191906001019062000813565b50620005899291505b8082111562000589576000815560010162000839565b6001600160a01b03811681146200086557600080fd5b50565b600080600080600060a086880312156200088157600080fd5b85516200088e816200084f565b6020870151909550620008a1816200084f565b6040870151606088015160809098015196999198509695945092505050565b600082821015620008e157634e487b7160e01b600052601160045260246000fd5b500390565b634e487b7160e01b600052603260045260246000fd5b600181811c908216806200091157607f821691505b602082108114156200093357634e487b7160e01b600052602260045260246000fd5b50919050565b60805160a05160c05160e0516101005161012051610140516140ea620009a26000396000818161096b015281816124d301526126d4015260006128500152600061289f0152600061287a015260006127d3015260006127fd0152600061282701526140ea6000f3fe60806040526004361061028c5760003560e01c80637d5e81e21161015a578063c59057e4116100c1578063eb9019d41161007a578063eb9019d4146108ad578063ece40cc1146108cd578063f23a6e61146108ed578063f2fde38b14610919578063f8ce560a14610939578063fc0c546a1461095957600080fd5b8063c59057e4146107b5578063d139fd81146107d5578063d33219b4146107f5578063dd4e2ba514610813578063deaaa7cc14610859578063ea0217cf1461088d57600080fd5b8063a890c91011610113578063a890c910146106f4578063ab58fb8e14610714578063b58131b014610734578063bc197c8114610749578063c01f9e3714610775578063c28bc2fa1461079557600080fd5b80637d5e81e2146106395780638da5cb5b1461065957806397c3d3341461068b5780639a802a6d1461069f578063a4b910b4146106bf578063a7713a70146106df57600080fd5b80633932abb1116101fe57806356781388116101b757806356781388146105845780635f398a14146105a457806360c4247f146105c457806370b0f660146105e4578063715018a6146106045780637b3c71d31461061957600080fd5b80633932abb1146104595780633bccf4fd1461046e5780633e4f49e61461048e57806343859632146104bb578063544ffc9c1461050557806354fd4d501461055a57600080fd5b806315084bc01161025057806315084bc01461036e578063150b7a021461038e578063160cbed7146103d25780632656227d146103f25780632d63f693146104055780632fe3e2611461042557600080fd5b806301ffc9a7146102b457806302a251a3146102e9578063034201811461030c57806306f3f9e61461032c57806306fdde031461034c57600080fd5b366102af573061029a61098d565b6001600160a01b0316146102ad57600080fd5b005b600080fd5b3480156102c057600080fd5b506102d46102cf366004613179565b6109a6565b60405190151581526020015b60405180910390f35b3480156102f557600080fd5b506102fe6109b7565b6040519081526020016102e0565b34801561031857600080fd5b506102fe6103273660046132af565b6109c2565b34801561033857600080fd5b506102ad610347366004613355565b610aba565b34801561035857600080fd5b50610361610b52565b6040516102e091906133ca565b34801561037a57600080fd5b50610361610389366004613355565b610be4565b34801561039a57600080fd5b506103b96103a93660046133f2565b630a85bd0160e11b949350505050565b6040516001600160e01b031990911681526020016102e0565b3480156103de57600080fd5b506102fe6103ed3660046135ce565b610c90565b6102fe6104003660046135ce565b610e90565b34801561041157600080fd5b506102fe610420366004613355565b610f7d565b34801561043157600080fd5b506102fe7fb3b3f3b703cd84ce352197dcff232b1b5d3cfb2025ce47cf04742d0651f1af8881565b34801561046557600080fd5b506102fe610fb4565b34801561047a57600080fd5b506102fe61048936600461365d565b610fbf565b34801561049a57600080fd5b506104ae6104a9366004613355565b611035565b6040516102e091906136c1565b3480156104c757600080fd5b506102d46104d63660046136e9565b60008281526007602090815260408083206001600160a01b038516845260030190915290205460ff1692915050565b34801561051157600080fd5b5061053f610520366004613355565b6000908152600760205260409020805460018201546002909201549092565b604080519384526020840192909252908201526060016102e0565b34801561056657600080fd5b506040805180820190915260018152603160f81b6020820152610361565b34801561059057600080fd5b506102fe61059f366004613719565b611040565b3480156105b057600080fd5b506102fe6105bf366004613745565b611069565b3480156105d057600080fd5b506102fe6105df366004613355565b6110b3565b3480156105f057600080fd5b506102ad6105ff366004613355565b611149565b34801561061057600080fd5b506102ad6111d5565b34801561062557600080fd5b506102fe6106343660046137c8565b6111e9565b34801561064557600080fd5b506102fe610654366004613821565b61123b565b34801561066557600080fd5b50600c546001600160a01b03165b6040516001600160a01b0390911681526020016102e0565b34801561069757600080fd5b5060646102fe565b3480156106ab57600080fd5b506102fe6106ba3660046138c1565b611252565b3480156106cb57600080fd5b506102ad6106da366004613919565b611269565b3480156106eb57600080fd5b506102fe61131e565b34801561070057600080fd5b506102ad61070f36600461397c565b61133a565b34801561072057600080fd5b506102fe61072f366004613355565b6113c6565b34801561074057600080fd5b506102fe611460565b34801561075557600080fd5b506103b9610764366004613999565b63bc197c8160e01b95945050505050565b34801561078157600080fd5b506102fe610790366004613355565b61146b565b3480156107a157600080fd5b506102ad6107b0366004613a2c565b61149a565b3480156107c157600080fd5b506102fe6107d03660046135ce565b611566565b3480156107e157600080fd5b506103616107f0366004613a6f565b6115a0565b34801561080157600080fd5b50600a546001600160a01b0316610673565b34801561081f57600080fd5b506040805180820190915260208082527f737570706f72743d627261766f2671756f72756d3d666f722c6162737461696e90820152610361565b34801561086557600080fd5b506102fe7f150214d74d59b7d1e90c73fc22ef3d991dd0a76b046543d4d80ab92d2a50328f81565b34801561089957600080fd5b506102ad6108a8366004613355565b6115c4565b3480156108b957600080fd5b506102fe6108c8366004613aa3565b611650565b3480156108d957600080fd5b506102ad6108e8366004613355565b611671565b3480156108f957600080fd5b506103b9610908366004613acf565b63f23a6e6160e01b95945050505050565b34801561092557600080fd5b506102ad61093436600461397c565b6116fd565b34801561094557600080fd5b506102fe610954366004613355565b611773565b34801561096557600080fd5b506106737f000000000000000000000000000000000000000000000000000000000000000081565b60006109a1600a546001600160a01b031690565b905090565b60006109b1826119d7565b92915050565b60006109a160055490565b600080610a66610a5e7fb3b3f3b703cd84ce352197dcff232b1b5d3cfb2025ce47cf04742d0651f1af888c8c8c8c6040516109fe929190613b37565b60405180910390208b80519060200120604051602001610a43959493929190948552602085019390935260ff9190911660408401526060830152608082015260a00190565b604051602081830303815290604052805190602001206119fc565b868686611a4a565b9050610aac8a828b8b8b8080601f0160208091040260200160405190810160405280939291908181526020018383808284376000920191909152508d9250611a68915050565b9a9950505050505050505050565b610ac261098d565b6001600160a01b0316336001600160a01b031614610afb5760405162461bcd60e51b8152600401610af290613b47565b60405180910390fd5b30610b0461098d565b6001600160a01b031614610b465760008036604051610b24929190613b37565b604051809103902090505b80610b3a6002611bca565b14610b4457610b2f565b505b610b4f81611c49565b50565b606060008054610b6190613b7e565b80601f0160208091040260200160405190810160405280929190818152602001828054610b8d90613b7e565b8015610bda5780601f10610baf57610100808354040283529160200191610bda565b820191906000526020600020905b815481529060010190602001808311610bbd57829003601f168201915b5050505050905090565b600d8181548110610bf457600080fd5b906000526020600020016000915090508054610c0f90613b7e565b80601f0160208091040260200160405190810160405280929190818152602001828054610c3b90613b7e565b8015610c885780601f10610c5d57610100808354040283529160200191610c88565b820191906000526020600020905b815481529060010190602001808311610c6b57829003601f168201915b505050505081565b600080610c9f86868686611566565b90506004610cac82611035565b6007811115610cbd57610cbd6136ab565b14610cda5760405162461bcd60e51b8152600401610af290613bb9565b600a546040805163793d064960e11b815290516000926001600160a01b03169163f27a0c929160048083019260209291908290030181865afa158015610d24573d6000803e3d6000fd5b505050506040513d601f19601f82011682018060405250810190610d489190613bfa565b600a5460405163b1c5f42760e01b81529192506001600160a01b03169063b1c5f42790610d82908a908a908a906000908b90600401613cdc565b602060405180830381865afa158015610d9f573d6000803e3d6000fd5b505050506040513d601f19601f82011682018060405250810190610dc39190613bfa565b6000838152600b602052604080822092909255600a5491516308f2a0bb60e41b81526001600160a01b0390921691638f2a0bb091610e0e918b918b918b91908b908990600401613d2a565b600060405180830381600087803b158015610e2857600080fd5b505af1158015610e3c573d6000803e3d6000fd5b505050507f9a2e42fd6722813d69113e7d0079d3d940171428df7373df9c7f7617cfda2892828242610e6e9190613d98565b6040805192835260208301919091520160405180910390a15095945050505050565b600080610e9f86868686611566565b90506000610eac82611035565b90506004816007811115610ec257610ec26136ab565b1480610edf57506005816007811115610edd57610edd6136ab565b145b610efb5760405162461bcd60e51b8152600401610af290613bb9565b600082815260016020818152604092839020600201805460ff191690921790915590518381527f712ae1383f79ac853f8d882153778e0260ef8f03b504e2866e0593e04d2b291f910160405180910390a1610f598288888888611d96565b610f668288888888611e38565b610f738288888888611e45565b5095945050505050565b60008181526001602090815260408083208151928301909152546001600160401b0316908190525b6001600160401b031692915050565b60006109a160045490565b604080517f150214d74d59b7d1e90c73fc22ef3d991dd0a76b046543d4d80ab92d2a50328f602082015290810186905260ff85166060820152600090819061100d90610a5e90608001610a43565b905061102a87828860405180602001604052806000815250611e7e565b979650505050505050565b60006109b182611ea1565b60008033905061106184828560405180602001604052806000815250611e7e565b949350505050565b60008033905061102a87828888888080601f0160208091040260200160405190810160405280939291908181526020018383808284376000920191909152508a9250611a68915050565b600954600090806110c8575050600854919050565b600060096110d7600184613db0565b815481106110e7576110e7613dc7565b60009182526020918290206040805180820190915291015463ffffffff81168083526401000000009091046001600160e01b0316928201929092529150841061113e57602001516001600160e01b03169392505050565b611061600985611feb565b61115161098d565b6001600160a01b0316336001600160a01b0316146111815760405162461bcd60e51b8152600401610af290613b47565b3061118a61098d565b6001600160a01b0316146111cc57600080366040516111aa929190613b37565b604051809103902090505b806111c06002611bca565b146111ca576111b5565b505b610b4f816120fa565b6111dd61213b565b6111e76000612195565b565b60008033905061123186828787878080601f016020809104026020016040519081016040528093929190818152602001838380828437600092019190915250611e7e92505050565b9695505050505050565b6000611249858585856121e7565b95945050505050565b600061125f8484846124aa565b90505b9392505050565b61127161213b565b80600e836040516112829190613ddd565b908152602001604051809103902090805190602001906112a39291906130e9565b50600e826040516112b49190613ddd565b908152602001604051809103902080546112cd90613b7e565b1515905061131a57600d80546001810182556000919091528251611318917fd7b6990105719101dabeb77144f2a3385c8033acd3af97e9423a695e81ad1eb5019060208501906130e9565b505b5050565b60095460009015611333576109a16009611916565b5060085490565b61134261098d565b6001600160a01b0316336001600160a01b0316146113725760405162461bcd60e51b8152600401610af290613b47565b3061137b61098d565b6001600160a01b0316146113bd576000803660405161139b929190613b37565b604051809103902090505b806113b16002611bca565b146113bb576113a6565b505b610b4f81612540565b600a546000828152600b602052604080822054905163d45c443560e01b81526004810191909152909182916001600160a01b039091169063d45c443590602401602060405180830381865afa158015611423573d6000803e3d6000fd5b505050506040513d601f19601f820116820180604052508101906114479190613bfa565b9050806001146114575780611262565b60009392505050565b60006109a160065490565b60008181526001602081815260408084208151928301909152909101546001600160401b031690819052610fa5565b6114a261098d565b6001600160a01b0316336001600160a01b0316146114d25760405162461bcd60e51b8152600401610af290613b47565b306114db61098d565b6001600160a01b03161461151d57600080366040516114fb929190613b37565b604051809103902090505b806115116002611bca565b1461151b57611506565b505b61155f8483838080601f0160208091040260200160405190810160405280939291908181526020018383808284376000920191909152508892506125a9915050565b5050505050565b60008484848460405160200161157f9493929190613df9565b60408051601f19818403018152919052805160209091012095945050505050565b8051602081830181018051600e8252928201919093012091528054610c0f90613b7e565b6115cc61098d565b6001600160a01b0316336001600160a01b0316146115fc5760405162461bcd60e51b8152600401610af290613b47565b3061160561098d565b6001600160a01b0316146116475760008036604051611625929190613b37565b604051809103902090505b8061163b6002611bca565b1461164557611630565b505b610b4f816125cf565b6000611262838361166c60408051602081019091526000815290565b6124aa565b61167961098d565b6001600160a01b0316336001600160a01b0316146116a95760405162461bcd60e51b8152600401610af290613b47565b306116b261098d565b6001600160a01b0316146116f457600080366040516116d2929190613b37565b604051809103902090505b806116e86002611bca565b146116f2576116dd565b505b610b4f81612670565b61170561213b565b6001600160a01b03811661176a5760405162461bcd60e51b815260206004820152602660248201527f4f776e61626c653a206e6577206f776e657220697320746865207a65726f206160448201526564647265737360d01b6064820152608401610af2565b610b4f81612195565b60006109b1826126b1565b60006001600160e01b038211156117e75760405162461bcd60e51b815260206004820152602760248201527f53616665436173743a2076616c756520646f65736e27742066697420696e20326044820152663234206269747360c81b6064820152608401610af2565b5090565b81546000908190816117fc86611916565b905060008211801561183a57504386611816600185613db0565b8154811061182657611826613dc7565b60009182526020909120015463ffffffff16145b1561189a576118488561177e565b86611854600185613db0565b8154811061186457611864613dc7565b9060005260206000200160000160046101000a8154816001600160e01b0302191690836001600160e01b03160217905550611908565b8560000160405180604001604052806118b243611972565b63ffffffff1681526020016118c68861177e565b6001600160e01b0390811690915282546001810184556000938452602093849020835194909301519091166401000000000263ffffffff909316929092179101555b9250839150505b9250929050565b8054600090801561195f578261192d600183613db0565b8154811061193d5761193d613dc7565b60009182526020909120015464010000000090046001600160e01b0316611962565b60005b6001600160e01b03169392505050565b600063ffffffff8211156117e75760405162461bcd60e51b815260206004820152602660248201527f53616665436173743a2076616c756520646f65736e27742066697420696e203360448201526532206269747360d01b6064820152608401610af2565b60006001600160e01b03198216636e665ced60e01b14806109b157506109b18261275b565b60006109b1611a096127c6565b8360405161190160f01b6020820152602281018390526042810182905260009060620160405160208183030381529060405280519060200120905092915050565b6000806000611a5b878787876128ed565b91509150610f73816129da565b6000858152600160208190526040822090611a8288611035565b6007811115611a9357611a936136ab565b14611aec5760405162461bcd60e51b815260206004820152602360248201527f476f7665726e6f723a20766f7465206e6f742063757272656e746c792061637460448201526269766560e81b6064820152608401610af2565b604080516020810190915281546001600160401b031690819052600090611b15908890866124aa565b9050611b248888888488612b95565b8351611b7657866001600160a01b03167fb8e138887d0aa13bab447e82de9d5c1777041ecd21ca36ba824ff1e6c07ddda489888489604051611b699493929190613e44565b60405180910390a261102a565b866001600160a01b03167fe2babfbac5889a709b63bb7f598b324e08bc5a4fb9ec647fb3cbc9ec07eb87128988848989604051611bb7959493929190613e6c565b60405180910390a2979650505050505050565b6000611be58254600f81810b600160801b909204900b131590565b15611c0357604051631ed9509560e11b815260040160405180910390fd5b508054600f0b6000818152600180840160205260408220805492905583546fffffffffffffffffffffffffffffffff191692016001600160801b03169190911790915590565b6064811115611ccc5760405162461bcd60e51b815260206004820152604360248201527f476f7665726e6f72566f74657351756f72756d4672616374696f6e3a2071756f60448201527f72756d4e756d657261746f72206f7665722071756f72756d44656e6f6d696e616064820152623a37b960e91b608482015260a401610af2565b6000611cd661131e565b90508015801590611ce75750600954155b15611d4c57604080518082019091526000815260099060208101611d0a8461177e565b6001600160e01b0390811690915282546001810184556000938452602093849020835194909301519091166401000000000263ffffffff909316929092179101555b611d576009836117eb565b505060408051828152602081018490527f0553476bf02ef2726e8ce5ced78d63e26e602e4a2257b1f559418e24b4633997910160405180910390a15050565b30611d9f61098d565b6001600160a01b03161461155f5760005b8451811015611e3057306001600160a01b0316858281518110611dd557611dd5613dc7565b60200260200101516001600160a01b03161415611e2057611e20838281518110611e0157611e01613dc7565b6020026020010151805190602001206002612d1490919063ffffffff16565b611e2981613eb2565b9050611db0565b505050505050565b61155f8585858585612d50565b30611e4e61098d565b6001600160a01b03161461155f57600254600f81810b600160801b909204900b131561155f57600060025561155f565b600061124985858585611e9c60408051602081019091526000815290565b611a68565b600080611ead83612dc4565b90506004816007811115611ec357611ec36136ab565b14611ece5792915050565b6000838152600b602052604090205480611ee9575092915050565b600a54604051632ab0f52960e01b8152600481018390526001600160a01b0390911690632ab0f52990602401602060405180830381865afa158015611f32573d6000803e3d6000fd5b505050506040513d601f19601f82011682018060405250810190611f569190613ecd565b15611f65575060079392505050565b600a54604051632c258a9f60e11b8152600481018390526001600160a01b039091169063584b153e90602401602060405180830381865afa158015611fae573d6000803e3d6000fd5b505050506040513d601f19601f82011682018060405250810190611fd29190613ecd565b15611fe1575060059392505050565b5060029392505050565b600043821061203c5760405162461bcd60e51b815260206004820181905260248201527f436865636b706f696e74733a20626c6f636b206e6f7420796574206d696e65646044820152606401610af2565b825460005b818110156120a15760006120558284612ed0565b90508486600001828154811061206d5761206d613dc7565b60009182526020909120015463ffffffff16111561208d5780925061209b565b612098816001613d98565b91505b50612041565b81156120e557846120b3600184613db0565b815481106120c3576120c3613dc7565b60009182526020909120015464010000000090046001600160e01b03166120e8565b60005b6001600160e01b031695945050505050565b60045460408051918252602082018390527fc565b045403dc03c2eea82b81a0465edad9e2e7fc4d97e11421c209da93d7a93910160405180910390a1600455565b600c546001600160a01b031633146111e75760405162461bcd60e51b815260206004820181905260248201527f4f776e61626c653a2063616c6c6572206973206e6f7420746865206f776e65726044820152606401610af2565b600c80546001600160a01b038381166001600160a01b0319831681179093556040519116919082907f8be0079c531659141344cd1fd0a4f28419497f9722a3daafe3b4186f6b6457e090600090a35050565b60006121f1611460565b612200336108c8600143613db0565b10156122685760405162461bcd60e51b815260206004820152603160248201527f476f7665726e6f723a2070726f706f73657220766f7465732062656c6f7720706044820152701c9bdc1bdcd85b081d1a1c995cda1bdb19607a1b6064820152608401610af2565b600061227d8686868680519060200120611566565b905084518651146122a05760405162461bcd60e51b8152600401610af290613eef565b83518651146122c15760405162461bcd60e51b8152600401610af290613eef565b60008651116123125760405162461bcd60e51b815260206004820152601860248201527f476f7665726e6f723a20656d7074792070726f706f73616c00000000000000006044820152606401610af2565b600081815260016020908152604091829020825191820190925281546001600160401b031690819052156123925760405162461bcd60e51b815260206004820152602160248201527f476f7665726e6f723a2070726f706f73616c20616c72656164792065786973746044820152607360f81b6064820152608401610af2565b60006123a461239f610fb4565b612eeb565b6123ad43612eeb565b6123b79190613f30565b905060006123c661239f6109b7565b6123d09083613f30565b835467ffffffffffffffff19166001600160401b038416178455905060018301805467ffffffffffffffff19166001600160401b0383161790557f7d84a6263ae0d98d3329bd7b46bb4e8d6f98cd35a7adb45c274c8b7fd5ebd5e084338b8b8d516001600160401b03811115612448576124486131fa565b60405190808252806020026020018201604052801561247b57816020015b60608152602001906001900390816124665790505b508c88888e60405161249599989796959493929190613f5b565b60405180910390a15091979650505050505050565b604051630748d63560e31b81526001600160a01b038481166004830152602482018490526000917f000000000000000000000000000000000000000000000000000000000000000090911690633a46b1a890604401602060405180830381865afa15801561251c573d6000803e3d6000fd5b505050506040513d601f19601f8201168201806040525081019061125f9190613bfa565b600a54604080516001600160a01b03928316815291831660208301527f08f74ea46ef7894f65eabfb5e6e695de773a000b47c529ab559178069b226401910160405180910390a1600a80546001600160a01b0319166001600160a01b0392909216919091179055565b606061125f84848460405180606001604052806029815260200161408c60299139612f53565b6000811161262f5760405162461bcd60e51b815260206004820152602760248201527f476f7665726e6f7253657474696e67733a20766f74696e6720706572696f6420604482015266746f6f206c6f7760c81b6064820152608401610af2565b60055460408051918252602082018390527f7e3f7f0708a84de9203036abaa450dccc85ad5ff52f78c170f3edb55cf5e8828910160405180910390a1600555565b60065460408051918252602082018390527fccb45da8d5717e6c4544694297c4ba5cf151d455c9bb0ed4fc7a38411bc05461910160405180910390a1600655565b600060646126be836110b3565b604051632394e7a360e21b8152600481018590527f00000000000000000000000000000000000000000000000000000000000000006001600160a01b031690638e539e8c90602401602060405180830381865afa158015612723573d6000803e3d6000fd5b505050506040513d601f19601f820116820180604052508101906127479190613bfa565b612751919061404a565b6109b19190614069565b60006001600160e01b0319821663bf26d89760e01b148061278c57506001600160e01b031982166379dd796f60e01b145b806127a757506001600160e01b03198216630271189760e51b145b806109b157506301ffc9a760e01b6001600160e01b03198316146109b1565b6000306001600160a01b037f00000000000000000000000000000000000000000000000000000000000000001614801561281f57507f000000000000000000000000000000000000000000000000000000000000000046145b1561284957507f000000000000000000000000000000000000000000000000000000000000000090565b50604080517f00000000000000000000000000000000000000000000000000000000000000006020808301919091527f0000000000000000000000000000000000000000000000000000000000000000828401527f000000000000000000000000000000000000000000000000000000000000000060608301524660808301523060a0808401919091528351808403909101815260c0909201909252805191012090565b6000807f7fffffffffffffffffffffffffffffff5d576e7357a4501ddfe92f46681b20a083111561292457506000905060036129d1565b8460ff16601b1415801561293c57508460ff16601c14155b1561294d57506000905060046129d1565b6040805160008082526020820180845289905260ff881692820192909252606081018690526080810185905260019060a0016020604051602081039080840390855afa1580156129a1573d6000803e3d6000fd5b5050604051601f1901519150506001600160a01b0381166129ca576000600192509250506129d1565b9150600090505b94509492505050565b60008160048111156129ee576129ee6136ab565b14156129f75750565b6001816004811115612a0b57612a0b6136ab565b1415612a595760405162461bcd60e51b815260206004820152601860248201527f45434453413a20696e76616c6964207369676e617475726500000000000000006044820152606401610af2565b6002816004811115612a6d57612a6d6136ab565b1415612abb5760405162461bcd60e51b815260206004820152601f60248201527f45434453413a20696e76616c6964207369676e6174757265206c656e677468006044820152606401610af2565b6003816004811115612acf57612acf6136ab565b1415612b285760405162461bcd60e51b815260206004820152602260248201527f45434453413a20696e76616c6964207369676e6174757265202773272076616c604482015261756560f01b6064820152608401610af2565b6004816004811115612b3c57612b3c6136ab565b1415610b4f5760405162461bcd60e51b815260206004820152602260248201527f45434453413a20696e76616c6964207369676e6174757265202776272076616c604482015261756560f01b6064820152608401610af2565b60008581526007602090815260408083206001600160a01b0388168452600381019092529091205460ff1615612c1d5760405162461bcd60e51b815260206004820152602760248201527f476f7665726e6f72566f74696e6753696d706c653a20766f746520616c726561604482015266191e4818d85cdd60ca1b6064820152608401610af2565b6001600160a01b03851660009081526003820160205260408120805460ff1916600117905560ff168460ff161415612c6e5782816000016000828254612c639190613d98565b90915550611e309050565b60ff841660011415612c8e5782816001016000828254612c639190613d98565b60ff841660021415612cae5782816002016000828254612c639190613d98565b60405162461bcd60e51b815260206004820152603560248201527f476f7665726e6f72566f74696e6753696d706c653a20696e76616c69642076616044820152746c756520666f7220656e756d20566f74655479706560581b6064820152608401610af2565b8154600160801b90819004600f0b6000818152600180860160205260409091209390935583546001600160801b03908116939091011602179055565b600a5460405163e38335e560e01b81526001600160a01b039091169063e38335e5903490612d8b908890889088906000908990600401613cdc565b6000604051808303818588803b158015612da457600080fd5b505af1158015612db8573d6000803e3d6000fd5b50505050505050505050565b6000818152600160205260408120600281015460ff1615612de85750600792915050565b6002810154610100900460ff1615612e035750600292915050565b6000612e0e84610f7d565b905080612e5d5760405162461bcd60e51b815260206004820152601d60248201527f476f7665726e6f723a20756e6b6e6f776e2070726f706f73616c2069640000006044820152606401610af2565b438110612e6e575060009392505050565b6000612e798561146b565b9050438110612e8d57506001949350505050565b612e9685613079565b8015612eb5575060008581526007602052604090208054600190910154115b15612ec557506004949350505050565b506003949350505050565b6000612edf6002848418614069565b61126290848416613d98565b60006001600160401b038211156117e75760405162461bcd60e51b815260206004820152602660248201527f53616665436173743a2076616c756520646f65736e27742066697420696e203660448201526534206269747360d01b6064820152608401610af2565b606082471015612fb45760405162461bcd60e51b815260206004820152602660248201527f416464726573733a20696e73756666696369656e742062616c616e636520666f6044820152651c8818d85b1b60d21b6064820152608401610af2565b6001600160a01b0385163b61300b5760405162461bcd60e51b815260206004820152601d60248201527f416464726573733a2063616c6c20746f206e6f6e2d636f6e74726163740000006044820152606401610af2565b600080866001600160a01b031685876040516130279190613ddd565b60006040518083038185875af1925050503d8060008114613064576040519150601f19603f3d011682016040523d82523d6000602084013e613069565b606091505b509150915061102a8282866130b0565b60008181526007602052604081206002810154600182015461309b9190613d98565b6130a761095485610f7d565b11159392505050565b606083156130bf575081611262565b8251156130cf5782518084602001fd5b8160405162461bcd60e51b8152600401610af291906133ca565b8280546130f590613b7e565b90600052602060002090601f016020900481019282613117576000855561315d565b82601f1061313057805160ff191683800117855561315d565b8280016001018555821561315d579182015b8281111561315d578251825591602001919060010190613142565b506117e79291505b808211156117e75760008155600101613165565b60006020828403121561318b57600080fd5b81356001600160e01b03198116811461126257600080fd5b803560ff811681146131b457600080fd5b919050565b60008083601f8401126131cb57600080fd5b5081356001600160401b038111156131e257600080fd5b60208301915083602082850101111561190f57600080fd5b634e487b7160e01b600052604160045260246000fd5b604051601f8201601f191681016001600160401b0381118282101715613238576132386131fa565b604052919050565b600082601f83011261325157600080fd5b81356001600160401b0381111561326a5761326a6131fa565b61327d601f8201601f1916602001613210565b81815284602083860101111561329257600080fd5b816020850160208301376000918101602001919091529392505050565b60008060008060008060008060e0898b0312156132cb57600080fd5b883597506132db60208a016131a3565b965060408901356001600160401b03808211156132f757600080fd5b6133038c838d016131b9565b909850965060608b013591508082111561331c57600080fd5b506133298b828c01613240565b94505061333860808a016131a3565b925060a0890135915060c089013590509295985092959890939650565b60006020828403121561336757600080fd5b5035919050565b60005b83811015613389578181015183820152602001613371565b83811115613398576000848401525b50505050565b600081518084526133b681602086016020860161336e565b601f01601f19169290920160200192915050565b602081526000611262602083018461339e565b6001600160a01b0381168114610b4f57600080fd5b6000806000806080858703121561340857600080fd5b8435613413816133dd565b93506020850135613423816133dd565b92506040850135915060608501356001600160401b0381111561344557600080fd5b61345187828801613240565b91505092959194509250565b60006001600160401b03821115613476576134766131fa565b5060051b60200190565b600082601f83011261349157600080fd5b813560206134a66134a18361345d565b613210565b82815260059290921b840181019181810190868411156134c557600080fd5b8286015b848110156134e95780356134dc816133dd565b83529183019183016134c9565b509695505050505050565b600082601f83011261350557600080fd5b813560206135156134a18361345d565b82815260059290921b8401810191818101908684111561353457600080fd5b8286015b848110156134e95780358352918301918301613538565b600082601f83011261356057600080fd5b813560206135706134a18361345d565b82815260059290921b8401810191818101908684111561358f57600080fd5b8286015b848110156134e95780356001600160401b038111156135b25760008081fd5b6135c08986838b0101613240565b845250918301918301613593565b600080600080608085870312156135e457600080fd5b84356001600160401b03808211156135fb57600080fd5b61360788838901613480565b9550602087013591508082111561361d57600080fd5b613629888389016134f4565b9450604087013591508082111561363f57600080fd5b5061364c8782880161354f565b949793965093946060013593505050565b600080600080600060a0868803121561367557600080fd5b85359450613685602087016131a3565b9350613693604087016131a3565b94979396509394606081013594506080013592915050565b634e487b7160e01b600052602160045260246000fd5b60208101600883106136e357634e487b7160e01b600052602160045260246000fd5b91905290565b600080604083850312156136fc57600080fd5b82359150602083013561370e816133dd565b809150509250929050565b6000806040838503121561372c57600080fd5b8235915061373c602084016131a3565b90509250929050565b60008060008060006080868803121561375d57600080fd5b8535945061376d602087016131a3565b935060408601356001600160401b038082111561378957600080fd5b61379589838a016131b9565b909550935060608801359150808211156137ae57600080fd5b506137bb88828901613240565b9150509295509295909350565b600080600080606085870312156137de57600080fd5b843593506137ee602086016131a3565b925060408501356001600160401b0381111561380957600080fd5b613815878288016131b9565b95989497509550505050565b6000806000806080858703121561383757600080fd5b84356001600160401b038082111561384e57600080fd5b61385a88838901613480565b9550602087013591508082111561387057600080fd5b61387c888389016134f4565b9450604087013591508082111561389257600080fd5b61389e8883890161354f565b935060608701359150808211156138b457600080fd5b5061345187828801613240565b6000806000606084860312156138d657600080fd5b83356138e1816133dd565b92506020840135915060408401356001600160401b0381111561390357600080fd5b61390f86828701613240565b9150509250925092565b6000806040838503121561392c57600080fd5b82356001600160401b038082111561394357600080fd5b61394f86838701613240565b9350602085013591508082111561396557600080fd5b5061397285828601613240565b9150509250929050565b60006020828403121561398e57600080fd5b8135611262816133dd565b600080600080600060a086880312156139b157600080fd5b85356139bc816133dd565b945060208601356139cc816133dd565b935060408601356001600160401b03808211156139e857600080fd5b6139f489838a016134f4565b94506060880135915080821115613a0a57600080fd5b613a1689838a016134f4565b935060808801359150808211156137ae57600080fd5b60008060008060608587031215613a4257600080fd5b8435613a4d816133dd565b93506020850135925060408501356001600160401b0381111561380957600080fd5b600060208284031215613a8157600080fd5b81356001600160401b03811115613a9757600080fd5b61106184828501613240565b60008060408385031215613ab657600080fd5b8235613ac1816133dd565b946020939093013593505050565b600080600080600060a08688031215613ae757600080fd5b8535613af2816133dd565b94506020860135613b02816133dd565b9350604086013592506060860135915060808601356001600160401b03811115613b2b57600080fd5b6137bb88828901613240565b8183823760009101908152919050565b60208082526018908201527f476f7665726e6f723a206f6e6c79476f7665726e616e63650000000000000000604082015260600190565b600181811c90821680613b9257607f821691505b60208210811415613bb357634e487b7160e01b600052602260045260246000fd5b50919050565b60208082526021908201527f476f7665726e6f723a2070726f706f73616c206e6f74207375636365737366756040820152601b60fa1b606082015260800190565b600060208284031215613c0c57600080fd5b5051919050565b600081518084526020808501945080840160005b83811015613c4c5781516001600160a01b031687529582019590820190600101613c27565b509495945050505050565b600081518084526020808501945080840160005b83811015613c4c57815187529582019590820190600101613c6b565b600081518084526020808501808196508360051b8101915082860160005b85811015613ccf578284038952613cbd84835161339e565b98850198935090840190600101613ca5565b5091979650505050505050565b60a081526000613cef60a0830188613c13565b8281036020840152613d018188613c57565b90508281036040840152613d158187613c87565b60608401959095525050608001529392505050565b60c081526000613d3d60c0830189613c13565b8281036020840152613d4f8189613c57565b90508281036040840152613d638188613c87565b60608401969096525050608081019290925260a0909101529392505050565b634e487b7160e01b600052601160045260246000fd5b60008219821115613dab57613dab613d82565b500190565b600082821015613dc257613dc2613d82565b500390565b634e487b7160e01b600052603260045260246000fd5b60008251613def81846020870161336e565b9190910192915050565b608081526000613e0c6080830187613c13565b8281036020840152613e1e8187613c57565b90508281036040840152613e328186613c87565b91505082606083015295945050505050565b84815260ff84166020820152826040820152608060608201526000611231608083018461339e565b85815260ff8516602082015283604082015260a060608201526000613e9460a083018561339e565b8281036080840152613ea6818561339e565b98975050505050505050565b6000600019821415613ec657613ec6613d82565b5060010190565b600060208284031215613edf57600080fd5b8151801515811461126257600080fd5b60208082526021908201527f476f7665726e6f723a20696e76616c69642070726f706f73616c206c656e67746040820152600d60fb1b606082015260800190565b60006001600160401b03808316818516808303821115613f5257613f52613d82565b01949350505050565b60006101208b8352602060018060a01b038c1681850152816040850152613f848285018c613c13565b91508382036060850152613f98828b613c57565b915083820360808501528189518084528284019150828160051b850101838c0160005b83811015613fe957601f19878403018552613fd783835161339e565b94860194925090850190600101613fbb565b505086810360a0880152613ffd818c613c87565b94505050505061401860c08401876001600160401b03169052565b6001600160401b03851660e084015282810361010084015261403a818561339e565b9c9b505050505050505050505050565b600081600019048311821515161561406457614064613d82565b500290565b60008261408657634e487b7160e01b600052601260045260246000fd5b50049056fe416464726573733a206c6f772d6c6576656c2063616c6c20776974682076616c7565206661696c6564a2646970667358221220a86f65df4dd461e8be3f2e68177421c6d0ed9b0a13befa5ece8a4076534ef0b464736f6c634300080c0033360894a13ba1a3210667c828492db98dca3e2076cc3735a920a3ca505d382bbc416464726573733a206c6f772d6c6576656c2064656c65676174652063616c6c206661696c6564a2646970667358221220ac9e3f459ef7f20eb5dff3f6c7ecc73b668fe83f649978e69689df090792408164736f6c634300080c0033",
  "linkReferences": {},
  "deployedLinkReferences": {}
}