{
  "_format": "hh-sol-artifact-1",
  "contractName": "FactoryGovernanceContract",
  "sourceName": "src/backend/contracts/FactoryGovernanceContract.sol",
  "abi": [
    {
      "inputs": [],
      "stateMutability": "nonpayable",
      "type": "constructor"
    },
    {
      "anonymous": false,
      "inputs": [
        {
          "indexed": false,
          "internalType": "address",
          "name": "previousAdmin",
          "type": "address"
        },
        {
          "indexed": false,
          "internalType": "address",
          "name": "newAdmin",
          "type": "address"
        }
      ],
      "name": "AdminChanged",
      "type": "event"
    },
    {
      "anonymous": false,
      "inputs": [
        {
          "indexed": true,
          "internalType": "address",
          "name": "beacon",
          "type": "address"
        }
      ],
      "name": "BeaconUpgraded",
      "type": "event"
    },
    {
      "anonymous": false,
      "inputs": [
        {
          "indexed": false,
          "internalType": "uint8",
          "name": "version",
          "type": "uint8"
        }
      ],
      "name": "Initialized",
      "type": "event"
    },
    {
      "anonymous": false,
      "inputs": [
        {
          "indexed": true,
          "internalType": "uint256",
          "name": "_communityId",
          "type": "uint256"
        },
        {
          "indexed": false,
          "internalType": "address",
          "name": "_contractAddress",
          "type": "address"
        },
        {
          "indexed": false,
          "internalType": "string",
          "name": "_contractType",
          "type": "string"
        }
      ],
      "name": "NewContract",
      "type": "event"
    },
    {
      "anonymous": false,
      "inputs": [
        {
          "indexed": true,
          "internalType": "address",
          "name": "previousOwner",
          "type": "address"
        },
        {
          "indexed": true,
          "internalType": "address",
          "name": "newOwner",
          "type": "address"
        }
      ],
      "name": "OwnershipTransferred",
      "type": "event"
    },
    {
      "anonymous": false,
      "inputs": [
        {
          "indexed": true,
          "internalType": "address",
          "name": "implementation",
          "type": "address"
        }
      ],
      "name": "Upgraded",
      "type": "event"
    },
    {
      "inputs": [
        {
          "internalType": "uint256",
          "name": "_communityId",
          "type": "uint256"
        },
        {
          "internalType": "contract IVotes",
          "name": "_ftContractAddress",
          "type": "address"
        },
        {
          "internalType": "contract TimelockController",
          "name": "_governanceTimeLock",
          "type": "address"
        },
        {
          "internalType": "uint256",
          "name": "_quorum",
          "type": "uint256"
        },
        {
          "internalType": "uint256",
          "name": "_delay",
          "type": "uint256"
        },
        {
          "internalType": "uint256",
          "name": "_period",
          "type": "uint256"
        }
      ],
      "name": "deployGovernanceContract",
      "outputs": [],
      "stateMutability": "nonpayable",
      "type": "function"
    },
    {
      "inputs": [
        {
          "internalType": "address",
          "name": "_mainContractAddress",
          "type": "address"
        },
        {
          "internalType": "address",
          "name": "_executorAddress",
          "type": "address"
        }
      ],
      "name": "initialize",
      "outputs": [],
      "stateMutability": "nonpayable",
      "type": "function"
    },
    {
      "inputs": [],
      "name": "owner",
      "outputs": [
        {
          "internalType": "address",
          "name": "",
          "type": "address"
        }
      ],
      "stateMutability": "view",
      "type": "function"
    },
    {
      "inputs": [],
      "name": "proxiableUUID",
      "outputs": [
        {
          "internalType": "bytes32",
          "name": "",
          "type": "bytes32"
        }
      ],
      "stateMutability": "view",
      "type": "function"
    },
    {
      "inputs": [],
      "name": "renounceOwnership",
      "outputs": [],
      "stateMutability": "nonpayable",
      "type": "function"
    },
    {
      "inputs": [
        {
          "internalType": "address",
          "name": "newOwner",
          "type": "address"
        }
      ],
      "name": "transferOwnership",
      "outputs": [],
      "stateMutability": "nonpayable",
      "type": "function"
    },
    {
      "inputs": [
        {
          "internalType": "address",
          "name": "newImplementation",
          "type": "address"
        }
      ],
      "name": "upgradeTo",
      "outputs": [],
      "stateMutability": "nonpayable",
      "type": "function"
    },
    {
      "inputs": [
        {
          "internalType": "address",
          "name": "newImplementation",
          "type": "address"
        },
        {
          "internalType": "bytes",
          "name": "data",
          "type": "bytes"
        }
      ],
      "name": "upgradeToAndCall",
      "outputs": [],
      "stateMutability": "payable",
      "type": "function"
    }
  ],
  "bytecode": "0x60a06040523060805234801561001457600080fd5b5061001d610022565b6100e2565b600054610100900460ff161561008e5760405162461bcd60e51b815260206004820152602760248201527f496e697469616c697a61626c653a20636f6e747261637420697320696e697469604482015266616c697a696e6760c81b606482015260840160405180910390fd5b60005460ff90811610156100e0576000805460ff191660ff9081179091556040519081527f7f26b83ff96e1f2b6a682f133852f6798a09c465da95921460cefb38474024989060200160405180910390a15b565b608051615f8c610119600039600081816106210152818161066401528181610863015281816108a601526109420152615f8c6000f3fe608060405260043610620000855760003560e01c806352d1902d116200005457806352d1902d1462000112578063715018a6146200013d5780638da5cb5b1462000155578063f2fde38b146200017f57600080fd5b806326ae4646146200008a5780633659cfe614620000b1578063485cc95514620000d65780634f1ef28614620000fb575b600080fd5b3480156200009757600080fd5b50620000af620000a936600462000fc6565b620001a4565b005b348015620000be57600080fd5b50620000af620000d036600462001027565b62000616565b348015620000e357600080fd5b50620000af620000f536600462001047565b62000702565b620000af6200010c3660046200109b565b62000858565b3480156200011f57600080fd5b506200012a62000935565b6040519081526020015b60405180910390f35b3480156200014a57600080fd5b50620000af620009eb565b3480156200016257600080fd5b506033546040516001600160a01b03909116815260200162000134565b3480156200018c57600080fd5b50620000af6200019e36600462001027565b62000a03565b60c954604051633b0c2e1760e21b8152600481018890523360248201526001600160a01b039091169063ec30b85c90604401602060405180830381865afa158015620001f4573d6000803e3d6000fd5b505050506040513d601f19601f820116820180604052508101906200021a919062001181565b620002585760405162461bcd60e51b81526020600482015260096024820152684e6f2041636365737360b81b60448201526064015b60405180910390fd5b600083116200029f5760405162461bcd60e51b815260206004820152601260248201527157726f6e672071756f72756d2076616c756560701b60448201526064016200024f565b60008111620002f15760405162461bcd60e51b815260206004820152601960248201527f57726f6e6720566f74696e6720506572696f642076616c75650000000000000060448201526064016200024f565b60c954604051635b25bfbb60e11b81526004810188905260009182916001600160a01b039091169063b64b7f7690602401606060405180830381865afa15801562000340573d6000803e3d6000fd5b505050506040513d601f19601f820116820180604052508101906200036691906200119f565b92509250508015620003c75760405162461bcd60e51b815260206004820152602360248201527f436f6d6d756e69747920616c726561647920686176652044414f20436f6e74726044820152621858dd60ea1b60648201526084016200024f565b81620004245760405162461bcd60e51b815260206004820152602560248201527f436f6d6d756e69747920646f6e2774206861766520546f6b656e20666f7220766044820152646f74696e6760d81b60648201526084016200024f565b600060ca60009054906101000a90046001600160a01b031688888888886040516200044f9062000fa2565b6001600160a01b03968716815294861660208601529490921660408401526060830152608082015260a081019190915260c001604051809103906000f0801580156200049f573d6000803e3d6000fd5b5060cb80546001810182556000919091527fa7ce836d032b2bf62b7e2097a8e0a6d8aeb35405ad15271e96d3b0188a1d06fb0180546001600160a01b0319166001600160a01b0383811691821790925560405163f2fde38b60e01b8152918a16600483015291925063f2fde38b90602401600060405180830381600087803b1580156200052b57600080fd5b505af115801562000540573d6000803e3d6000fd5b505060c954604051631c174e9f60e01b8152600481018d90526001600160a01b0385811660248301529091169250631c174e9f9150604401600060405180830381600087803b1580156200059357600080fd5b505af1158015620005a8573d6000803e3d6000fd5b5050604080516001600160a01b038516815260208101829052600a8183015269476f7665726e616e636560b01b606082015290518c93507fc500b3b673a94d1f6af2da9be7af8d078d405a1a8bac815f0f1f0f5b70b3cb5492509081900360800190a2505050505050505050565b306001600160a01b037f0000000000000000000000000000000000000000000000000000000000000000161415620006625760405162461bcd60e51b81526004016200024f90620011e9565b7f00000000000000000000000000000000000000000000000000000000000000006001600160a01b0316620006ad60008051602062005f10833981519152546001600160a01b031690565b6001600160a01b031614620006d65760405162461bcd60e51b81526004016200024f9062001235565b620006e18162000a7f565b60408051600080825260208201909252620006ff9183919062000a89565b50565b600054610100900460ff1615808015620007235750600054600160ff909116105b806200073f5750303b1580156200073f575060005460ff166001145b620007a45760405162461bcd60e51b815260206004820152602e60248201527f496e697469616c697a61626c653a20636f6e747261637420697320616c72656160448201526d191e481a5b9a5d1a585b1a5e995960921b60648201526084016200024f565b6000805460ff191660011790558015620007c8576000805461ff0019166101001790555b620007d262000c01565b620007dc62000c35565b60c980546001600160a01b038086166001600160a01b03199283161790925560ca805492851692909116919091179055801562000853576000805461ff0019169055604051600181527f7f26b83ff96e1f2b6a682f133852f6798a09c465da95921460cefb38474024989060200160405180910390a15b505050565b306001600160a01b037f0000000000000000000000000000000000000000000000000000000000000000161415620008a45760405162461bcd60e51b81526004016200024f90620011e9565b7f00000000000000000000000000000000000000000000000000000000000000006001600160a01b0316620008ef60008051602062005f10833981519152546001600160a01b031690565b6001600160a01b031614620009185760405162461bcd60e51b81526004016200024f9062001235565b620009238262000a7f565b620009318282600162000a89565b5050565b6000306001600160a01b037f00000000000000000000000000000000000000000000000000000000000000001614620009d75760405162461bcd60e51b815260206004820152603860248201527f555550535570677261646561626c653a206d757374206e6f742062652063616c60448201527f6c6564207468726f7567682064656c656761746563616c6c000000000000000060648201526084016200024f565b5060008051602062005f1083398151915290565b620009f562000c5f565b62000a01600062000cbb565b565b62000a0d62000c5f565b6001600160a01b03811662000a745760405162461bcd60e51b815260206004820152602660248201527f4f776e61626c653a206e6577206f776e657220697320746865207a65726f206160448201526564647265737360d01b60648201526084016200024f565b620006ff8162000cbb565b620006ff62000c5f565b7f4910fdfa16fed3260ed0e7147f7cc6da11a60208b5b9406d12a635614ffd91435460ff161562000abf57620008538362000d0d565b826001600160a01b03166352d1902d6040518163ffffffff1660e01b8152600401602060405180830381865afa92505050801562000b1c575060408051601f3d908101601f1916820190925262000b199181019062001281565b60015b62000b815760405162461bcd60e51b815260206004820152602e60248201527f45524331393637557067726164653a206e657720696d706c656d656e7461746960448201526d6f6e206973206e6f74205555505360901b60648201526084016200024f565b60008051602062005f10833981519152811462000bf35760405162461bcd60e51b815260206004820152602960248201527f45524331393637557067726164653a20756e737570706f727465642070726f786044820152681a58589b195555525160ba1b60648201526084016200024f565b506200085383838362000dac565b600054610100900460ff1662000c2b5760405162461bcd60e51b81526004016200024f906200129b565b62000a0162000ddd565b600054610100900460ff1662000a015760405162461bcd60e51b81526004016200024f906200129b565b6033546001600160a01b0316331462000a015760405162461bcd60e51b815260206004820181905260248201527f4f776e61626c653a2063616c6c6572206973206e6f7420746865206f776e657260448201526064016200024f565b603380546001600160a01b038381166001600160a01b0319831681179093556040519116919082907f8be0079c531659141344cd1fd0a4f28419497f9722a3daafe3b4186f6b6457e090600090a35050565b6001600160a01b0381163b62000d7c5760405162461bcd60e51b815260206004820152602d60248201527f455243313936373a206e657720696d706c656d656e746174696f6e206973206e60448201526c1bdd08184818dbdb9d1c9858dd609a1b60648201526084016200024f565b60008051602062005f1083398151915280546001600160a01b0319166001600160a01b0392909216919091179055565b62000db78362000e12565b60008251118062000dc55750805b15620008535762000dd7838362000e54565b50505050565b600054610100900460ff1662000e075760405162461bcd60e51b81526004016200024f906200129b565b62000a013362000cbb565b62000e1d8162000d0d565b6040516001600160a01b038216907fbc7cd75a20ee27fd9adebab32041f755214dbc6bffa90cc0225b39da2e5c2d3b90600090a250565b60606001600160a01b0383163b62000ebe5760405162461bcd60e51b815260206004820152602660248201527f416464726573733a2064656c65676174652063616c6c20746f206e6f6e2d636f6044820152651b9d1c9858dd60d21b60648201526084016200024f565b600080846001600160a01b03168460405162000edb919062001315565b600060405180830381855af49150503d806000811462000f18576040519150601f19603f3d011682016040523d82523d6000602084013e62000f1d565b606091505b509150915062000f48828260405180606001604052806027815260200162005f306027913962000f51565b95945050505050565b6060831562000f6257508162000f6e565b62000f6e838362000f75565b9392505050565b81511562000f865781518083602001fd5b8060405162461bcd60e51b81526004016200024f919062001333565b614ba7806200136983390190565b6001600160a01b0381168114620006ff57600080fd5b60008060008060008060c0878903121562000fe057600080fd5b86359550602087013562000ff48162000fb0565b94506040870135620010068162000fb0565b959894975094956060810135955060808101359460a0909101359350915050565b6000602082840312156200103a57600080fd5b813562000f6e8162000fb0565b600080604083850312156200105b57600080fd5b8235620010688162000fb0565b915060208301356200107a8162000fb0565b809150509250929050565b634e487b7160e01b600052604160045260246000fd5b60008060408385031215620010af57600080fd5b8235620010bc8162000fb0565b9150602083013567ffffffffffffffff80821115620010da57600080fd5b818501915085601f830112620010ef57600080fd5b81358181111562001104576200110462001085565b604051601f8201601f19908116603f011681019083821181831017156200112f576200112f62001085565b816040528281528860208487010111156200114957600080fd5b8260208601602083013760006020848301015280955050505050509250929050565b805180151581146200117c57600080fd5b919050565b6000602082840312156200119457600080fd5b62000f6e826200116b565b600080600060608486031215620011b557600080fd5b620011c0846200116b565b9250620011d0602085016200116b565b9150620011e0604085016200116b565b90509250925092565b6020808252602c908201527f46756e6374696f6e206d7573742062652063616c6c6564207468726f7567682060408201526b19195b1959d85d1958d85b1b60a21b606082015260800190565b6020808252602c908201527f46756e6374696f6e206d7573742062652063616c6c6564207468726f7567682060408201526b6163746976652070726f787960a01b606082015260800190565b6000602082840312156200129457600080fd5b5051919050565b6020808252602b908201527f496e697469616c697a61626c653a20636f6e7472616374206973206e6f74206960408201526a6e697469616c697a696e6760a81b606082015260800190565b60005b8381101562001303578181015183820152602001620012e9565b8381111562000dd75750506000910152565b6000825162001329818460208701620012e6565b9190910192915050565b602081526000825180602084015262001354816040850160208701620012e6565b601f01601f1916919091016040019291505056fe6101606040523480156200001257600080fd5b5060405162004ba738038062004ba783398101604081905262000035916200088a565b838386848460006040518060400160405280600a815260200169476f7665726e616e636560b01b81525080620000706200019a60201b60201c565b815160208084019190912082518383012060e08290526101008190524660a0818152604080517f8b73c3c69bb8fe3d512ecc4cf759cc79239f7b179b0ffacaa9a75d522b39400f81880181905281830187905260608201869052608082019490945230818401528151808203909301835260c00190528051940193909320919290916080523060c0526101205250508251620001169250600091506020840190620007d5565b5062000124905083620001b5565b6200012f82620001f6565b6200013a816200029d565b5050506001600160a01b0316610140526200015581620002de565b50620001618162000456565b506200016d33620004bf565b5050600f80546001600160a01b0319166001600160a01b0395909516949094179093555062000973915050565b6040805180820190915260018152603160f81b602082015290565b60045460408051918252602082018390527fc565b045403dc03c2eea82b81a0465edad9e2e7fc4d97e11421c209da93d7a93910160405180910390a1600455565b600081116200025c5760405162461bcd60e51b815260206004820152602760248201527f476f7665726e6f7253657474696e67733a20766f74696e6720706572696f6420604482015266746f6f206c6f7760c81b60648201526084015b60405180910390fd5b60055460408051918252602082018390527f7e3f7f0708a84de9203036abaa450dccc85ad5ff52f78c170f3edb55cf5e8828910160405180910390a1600555565b60065460408051918252602082018390527fccb45da8d5717e6c4544694297c4ba5cf151d455c9bb0ed4fc7a38411bc05461910160405180910390a1600655565b6064811115620003635760405162461bcd60e51b815260206004820152604360248201527f476f7665726e6f72566f74657351756f72756d4672616374696f6e3a2071756f60448201527f72756d4e756d657261746f72206f7665722071756f72756d44656e6f6d696e616064820152623a37b960e91b608482015260a40162000253565b60006200036f62000511565b90508015801590620003815750600954155b15620003fc5760096000016040518060400160405280600063ffffffff168152602001620003ba846200054060201b620017f51760201c565b6001600160e01b0390811690915282546001810184556000938452602093849020835194909301519091166401000000000263ffffffff909316929092179101555b62000417826009620005af60201b620018621790919060201c565b505060408051828152602081018490527f0553476bf02ef2726e8ce5ced78d63e26e602e4a2257b1f559418e24b4633997910160405180910390a15050565b600a54604080516001600160a01b03928316815291831660208301527f08f74ea46ef7894f65eabfb5e6e695de773a000b47c529ab559178069b226401910160405180910390a1600a80546001600160a01b0319166001600160a01b0392909216919091179055565b600c80546001600160a01b038381166001600160a01b0319831681179093556040519116919082907f8be0079c531659141344cd1fd0a4f28419497f9722a3daafe3b4186f6b6457e090600090a35050565b6009546000901562000539576200053460096200070b60201b6200198d1760201c565b905090565b5060085490565b60006001600160e01b03821115620005ab5760405162461bcd60e51b815260206004820152602760248201527f53616665436173743a2076616c756520646f65736e27742066697420696e20326044820152663234206269747360c81b606482015260840162000253565b5090565b8154600090819081620005c2866200070b565b90506000821180156200060657504386620005df600185620008fa565b81548110620005f257620005f262000920565b60009182526020909120015463ffffffff16145b156200067a5762000622856200054060201b620017f51760201c565b8662000630600185620008fa565b8154811062000643576200064362000920565b9060005260206000200160000160046101000a8154816001600160e01b0302191690836001600160e01b0316021790555062000702565b8560000160405180604001604052806200069f436200076e60201b620019e91760201c565b63ffffffff168152602001620006c0886200054060201b620017f51760201c565b6001600160e01b0390811690915282546001810184556000938452602093849020835194909301519091166401000000000263ffffffff909316929092179101555b95939450505050565b805460009080156200075b578262000725600183620008fa565b8154811062000738576200073862000920565b60009182526020909120015464010000000090046001600160e01b03166200075e565b60005b6001600160e01b03169392505050565b600063ffffffff821115620005ab5760405162461bcd60e51b815260206004820152602660248201527f53616665436173743a2076616c756520646f65736e27742066697420696e203360448201526532206269747360d01b606482015260840162000253565b828054620007e39062000936565b90600052602060002090601f01602090048101928262000807576000855562000852565b82601f106200082257805160ff191683800117855562000852565b8280016001018555821562000852579182015b828111156200085257825182559160200191906001019062000835565b50620005ab9291505b80821115620005ab57600081556001016200085b565b6001600160a01b03811681146200088757600080fd5b50565b60008060008060008060c08789031215620008a457600080fd5b8651620008b18162000871565b6020880151909650620008c48162000871565b6040880151909550620008d78162000871565b80945050606087015192506080870151915060a087015190509295509295509295565b6000828210156200091b57634e487b7160e01b600052601160045260246000fd5b500390565b634e487b7160e01b600052603260045260246000fd5b600181811c908216806200094b57607f821691505b602082108114156200096d57634e487b7160e01b600052602260045260246000fd5b50919050565b60805160a05160c05160e0516101005161012051610140516141cb620009dc6000396000818161096b015281816125530152612754015260006128d00152600061291f015260006128fa015260006128530152600061287d015260006128a701526141cb6000f3fe60806040526004361061028c5760003560e01c80637d5e81e21161015a578063c59057e4116100c1578063eb9019d41161007a578063eb9019d4146108ad578063ece40cc1146108cd578063f23a6e61146108ed578063f2fde38b14610919578063f8ce560a14610939578063fc0c546a1461095957600080fd5b8063c59057e4146107b5578063d139fd81146107d5578063d33219b4146107f5578063dd4e2ba514610813578063deaaa7cc14610859578063ea0217cf1461088d57600080fd5b8063a890c91011610113578063a890c910146106f4578063ab58fb8e14610714578063b58131b014610734578063bc197c8114610749578063c01f9e3714610775578063c28bc2fa1461079557600080fd5b80637d5e81e2146106395780638da5cb5b1461065957806397c3d3341461068b5780639a802a6d1461069f578063a4b910b4146106bf578063a7713a70146106df57600080fd5b80633932abb1116101fe57806356781388116101b757806356781388146105845780635f398a14146105a457806360c4247f146105c457806370b0f660146105e4578063715018a6146106045780637b3c71d31461061957600080fd5b80633932abb1146104595780633bccf4fd1461046e5780633e4f49e61461048e57806343859632146104bb578063544ffc9c1461050557806354fd4d501461055a57600080fd5b806315084bc01161025057806315084bc01461036e578063150b7a021461038e578063160cbed7146103d25780632656227d146103f25780632d63f693146104055780632fe3e2611461042557600080fd5b806301ffc9a7146102b457806302a251a3146102e9578063034201811461030c57806306f3f9e61461032c57806306fdde031461034c57600080fd5b366102af573061029a61098d565b6001600160a01b0316146102ad57600080fd5b005b600080fd5b3480156102c057600080fd5b506102d46102cf3660046131f9565b6109a6565b60405190151581526020015b60405180910390f35b3480156102f557600080fd5b506102fe6109b7565b6040519081526020016102e0565b34801561031857600080fd5b506102fe61032736600461332f565b6109c2565b34801561033857600080fd5b506102ad6103473660046133d5565b610aba565b34801561035857600080fd5b50610361610b52565b6040516102e0919061344a565b34801561037a57600080fd5b506103616103893660046133d5565b610be4565b34801561039a57600080fd5b506103b96103a9366004613472565b630a85bd0160e11b949350505050565b6040516001600160e01b031990911681526020016102e0565b3480156103de57600080fd5b506102fe6103ed36600461364e565b610c90565b6102fe61040036600461364e565b610e90565b34801561041157600080fd5b506102fe6104203660046133d5565b610f7d565b34801561043157600080fd5b506102fe7fb3b3f3b703cd84ce352197dcff232b1b5d3cfb2025ce47cf04742d0651f1af8881565b34801561046557600080fd5b506102fe610fb4565b34801561047a57600080fd5b506102fe6104893660046136dd565b610fbf565b34801561049a57600080fd5b506104ae6104a93660046133d5565b611035565b6040516102e09190613741565b3480156104c757600080fd5b506102d46104d6366004613769565b60008281526007602090815260408083206001600160a01b038516845260030190915290205460ff1692915050565b34801561051157600080fd5b5061053f6105203660046133d5565b6000908152600760205260409020805460018201546002909201549092565b604080519384526020840192909252908201526060016102e0565b34801561056657600080fd5b506040805180820190915260018152603160f81b6020820152610361565b34801561059057600080fd5b506102fe61059f366004613799565b611040565b3480156105b057600080fd5b506102fe6105bf3660046137c5565b611069565b3480156105d057600080fd5b506102fe6105df3660046133d5565b6110b3565b3480156105f057600080fd5b506102ad6105ff3660046133d5565b611149565b34801561061057600080fd5b506102ad6111d5565b34801561062557600080fd5b506102fe610634366004613848565b6111e9565b34801561064557600080fd5b506102fe6106543660046138a1565b61123b565b34801561066557600080fd5b50600c546001600160a01b03165b6040516001600160a01b0390911681526020016102e0565b34801561069757600080fd5b5060646102fe565b3480156106ab57600080fd5b506102fe6106ba366004613941565b6112c9565b3480156106cb57600080fd5b506102ad6106da366004613999565b6112e0565b3480156106eb57600080fd5b506102fe611395565b34801561070057600080fd5b506102ad61070f3660046139fc565b6113b1565b34801561072057600080fd5b506102fe61072f3660046133d5565b61143d565b34801561074057600080fd5b506102fe6114d7565b34801561075557600080fd5b506103b9610764366004613a19565b63bc197c8160e01b95945050505050565b34801561078157600080fd5b506102fe6107903660046133d5565b6114e2565b3480156107a157600080fd5b506102ad6107b0366004613aac565b611511565b3480156107c157600080fd5b506102fe6107d036600461364e565b6115dd565b3480156107e157600080fd5b506103616107f0366004613aef565b611617565b34801561080157600080fd5b50600a546001600160a01b0316610673565b34801561081f57600080fd5b506040805180820190915260208082527f737570706f72743d627261766f2671756f72756d3d666f722c6162737461696e90820152610361565b34801561086557600080fd5b506102fe7f150214d74d59b7d1e90c73fc22ef3d991dd0a76b046543d4d80ab92d2a50328f81565b34801561089957600080fd5b506102ad6108a83660046133d5565b61163b565b3480156108b957600080fd5b506102fe6108c8366004613b23565b6116c7565b3480156108d957600080fd5b506102ad6108e83660046133d5565b6116e8565b3480156108f957600080fd5b506103b9610908366004613b4f565b63f23a6e6160e01b95945050505050565b34801561092557600080fd5b506102ad6109343660046139fc565b611774565b34801561094557600080fd5b506102fe6109543660046133d5565b6117ea565b34801561096557600080fd5b506106737f000000000000000000000000000000000000000000000000000000000000000081565b60006109a1600a546001600160a01b031690565b905090565b60006109b182611a4e565b92915050565b60006109a160055490565b600080610a66610a5e7fb3b3f3b703cd84ce352197dcff232b1b5d3cfb2025ce47cf04742d0651f1af888c8c8c8c6040516109fe929190613bb7565b60405180910390208b80519060200120604051602001610a43959493929190948552602085019390935260ff9190911660408401526060830152608082015260a00190565b60405160208183030381529060405280519060200120611a73565b868686611ac1565b9050610aac8a828b8b8b8080601f0160208091040260200160405190810160405280939291908181526020018383808284376000920191909152508d9250611adf915050565b9a9950505050505050505050565b610ac261098d565b6001600160a01b0316336001600160a01b031614610afb5760405162461bcd60e51b8152600401610af290613bc7565b60405180910390fd5b30610b0461098d565b6001600160a01b031614610b465760008036604051610b24929190613bb7565b604051809103902090505b80610b3a6002611c41565b14610b4457610b2f565b505b610b4f81611cc0565b50565b606060008054610b6190613bfe565b80601f0160208091040260200160405190810160405280929190818152602001828054610b8d90613bfe565b8015610bda5780601f10610baf57610100808354040283529160200191610bda565b820191906000526020600020905b815481529060010190602001808311610bbd57829003601f168201915b5050505050905090565b600d8181548110610bf457600080fd5b906000526020600020016000915090508054610c0f90613bfe565b80601f0160208091040260200160405190810160405280929190818152602001828054610c3b90613bfe565b8015610c885780601f10610c5d57610100808354040283529160200191610c88565b820191906000526020600020905b815481529060010190602001808311610c6b57829003601f168201915b505050505081565b600080610c9f868686866115dd565b90506004610cac82611035565b6007811115610cbd57610cbd61372b565b14610cda5760405162461bcd60e51b8152600401610af290613c39565b600a546040805163793d064960e11b815290516000926001600160a01b03169163f27a0c929160048083019260209291908290030181865afa158015610d24573d6000803e3d6000fd5b505050506040513d601f19601f82011682018060405250810190610d489190613c7a565b600a5460405163b1c5f42760e01b81529192506001600160a01b03169063b1c5f42790610d82908a908a908a906000908b90600401613d5c565b602060405180830381865afa158015610d9f573d6000803e3d6000fd5b505050506040513d601f19601f82011682018060405250810190610dc39190613c7a565b6000838152600b602052604080822092909255600a5491516308f2a0bb60e41b81526001600160a01b0390921691638f2a0bb091610e0e918b918b918b91908b908990600401613daa565b600060405180830381600087803b158015610e2857600080fd5b505af1158015610e3c573d6000803e3d6000fd5b505050507f9a2e42fd6722813d69113e7d0079d3d940171428df7373df9c7f7617cfda2892828242610e6e9190613e18565b6040805192835260208301919091520160405180910390a15095945050505050565b600080610e9f868686866115dd565b90506000610eac82611035565b90506004816007811115610ec257610ec261372b565b1480610edf57506005816007811115610edd57610edd61372b565b145b610efb5760405162461bcd60e51b8152600401610af290613c39565b600082815260016020818152604092839020600201805460ff191690921790915590518381527f712ae1383f79ac853f8d882153778e0260ef8f03b504e2866e0593e04d2b291f910160405180910390a1610f598288888888611e0d565b610f668288888888611eaf565b610f738288888888611ebc565b5095945050505050565b60008181526001602090815260408083208151928301909152546001600160401b0316908190525b6001600160401b031692915050565b60006109a160045490565b604080517f150214d74d59b7d1e90c73fc22ef3d991dd0a76b046543d4d80ab92d2a50328f602082015290810186905260ff85166060820152600090819061100d90610a5e90608001610a43565b905061102a87828860405180602001604052806000815250611ef5565b979650505050505050565b60006109b182611f21565b60008033905061106184828560405180602001604052806000815250611ef5565b949350505050565b60008033905061102a87828888888080601f0160208091040260200160405190810160405280939291908181526020018383808284376000920191909152508a9250611adf915050565b600954600090806110c8575050600854919050565b600060096110d7600184613e30565b815481106110e7576110e7613e47565b60009182526020918290206040805180820190915291015463ffffffff81168083526401000000009091046001600160e01b0316928201929092529150841061113e57602001516001600160e01b03169392505050565b61106160098561206b565b61115161098d565b6001600160a01b0316336001600160a01b0316146111815760405162461bcd60e51b8152600401610af290613bc7565b3061118a61098d565b6001600160a01b0316146111cc57600080366040516111aa929190613bb7565b604051809103902090505b806111c06002611c41565b146111ca576111b5565b505b610b4f8161217a565b6111dd6121bb565b6111e76000612215565b565b60008033905061123186828787878080601f016020809104026020016040519081016040528093929190818152602001838380828437600092019190915250611ef592505050565b9695505050505050565b60008061124a86868686612267565b600f548451602086012060405163e6e9cd7f60e01b81529293506001600160a01b039091169163e6e9cd7f9161128d91309186918c918c918c9190600401613e5d565b600060405180830381600087803b1580156112a757600080fd5b505af11580156112bb573d6000803e3d6000fd5b509298975050505050505050565b60006112d684848461252a565b90505b9392505050565b6112e86121bb565b80600e836040516112f99190613ebe565b9081526020016040518091039020908051906020019061131a929190613169565b50600e8260405161132b9190613ebe565b9081526020016040518091039020805461134490613bfe565b1515905061139157600d8054600181018255600091909152825161138f917fd7b6990105719101dabeb77144f2a3385c8033acd3af97e9423a695e81ad1eb501906020850190613169565b505b5050565b600954600090156113aa576109a1600961198d565b5060085490565b6113b961098d565b6001600160a01b0316336001600160a01b0316146113e95760405162461bcd60e51b8152600401610af290613bc7565b306113f261098d565b6001600160a01b0316146114345760008036604051611412929190613bb7565b604051809103902090505b806114286002611c41565b146114325761141d565b505b610b4f816125c0565b600a546000828152600b602052604080822054905163d45c443560e01b81526004810191909152909182916001600160a01b039091169063d45c443590602401602060405180830381865afa15801561149a573d6000803e3d6000fd5b505050506040513d601f19601f820116820180604052508101906114be9190613c7a565b9050806001146114ce57806112d9565b60009392505050565b60006109a160065490565b60008181526001602081815260408084208151928301909152909101546001600160401b031690819052610fa5565b61151961098d565b6001600160a01b0316336001600160a01b0316146115495760405162461bcd60e51b8152600401610af290613bc7565b3061155261098d565b6001600160a01b0316146115945760008036604051611572929190613bb7565b604051809103902090505b806115886002611c41565b146115925761157d565b505b6115d68483838080601f016020809104026020016040519081016040528093929190818152602001838380828437600092019190915250889250612629915050565b5050505050565b6000848484846040516020016115f69493929190613eda565b60408051601f19818403018152919052805160209091012095945050505050565b8051602081830181018051600e8252928201919093012091528054610c0f90613bfe565b61164361098d565b6001600160a01b0316336001600160a01b0316146116735760405162461bcd60e51b8152600401610af290613bc7565b3061167c61098d565b6001600160a01b0316146116be576000803660405161169c929190613bb7565b604051809103902090505b806116b26002611c41565b146116bc576116a7565b505b610b4f8161264f565b60006112d983836116e360408051602081019091526000815290565b61252a565b6116f061098d565b6001600160a01b0316336001600160a01b0316146117205760405162461bcd60e51b8152600401610af290613bc7565b3061172961098d565b6001600160a01b03161461176b5760008036604051611749929190613bb7565b604051809103902090505b8061175f6002611c41565b1461176957611754565b505b610b4f816126f0565b61177c6121bb565b6001600160a01b0381166117e15760405162461bcd60e51b815260206004820152602660248201527f4f776e61626c653a206e6577206f776e657220697320746865207a65726f206160448201526564647265737360d01b6064820152608401610af2565b610b4f81612215565b60006109b182612731565b60006001600160e01b0382111561185e5760405162461bcd60e51b815260206004820152602760248201527f53616665436173743a2076616c756520646f65736e27742066697420696e20326044820152663234206269747360c81b6064820152608401610af2565b5090565b81546000908190816118738661198d565b90506000821180156118b15750438661188d600185613e30565b8154811061189d5761189d613e47565b60009182526020909120015463ffffffff16145b15611911576118bf856117f5565b866118cb600185613e30565b815481106118db576118db613e47565b9060005260206000200160000160046101000a8154816001600160e01b0302191690836001600160e01b0316021790555061197f565b856000016040518060400160405280611929436119e9565b63ffffffff16815260200161193d886117f5565b6001600160e01b0390811690915282546001810184556000938452602093849020835194909301519091166401000000000263ffffffff909316929092179101555b9250839150505b9250929050565b805460009080156119d657826119a4600183613e30565b815481106119b4576119b4613e47565b60009182526020909120015464010000000090046001600160e01b03166119d9565b60005b6001600160e01b03169392505050565b600063ffffffff82111561185e5760405162461bcd60e51b815260206004820152602660248201527f53616665436173743a2076616c756520646f65736e27742066697420696e203360448201526532206269747360d01b6064820152608401610af2565b60006001600160e01b03198216636e665ced60e01b14806109b157506109b1826127db565b60006109b1611a80612846565b8360405161190160f01b6020820152602281018390526042810182905260009060620160405160208183030381529060405280519060200120905092915050565b6000806000611ad28787878761296d565b91509150610f7381612a5a565b6000858152600160208190526040822090611af988611035565b6007811115611b0a57611b0a61372b565b14611b635760405162461bcd60e51b815260206004820152602360248201527f476f7665726e6f723a20766f7465206e6f742063757272656e746c792061637460448201526269766560e81b6064820152608401610af2565b604080516020810190915281546001600160401b031690819052600090611b8c9088908661252a565b9050611b9b8888888488612c15565b8351611bed57866001600160a01b03167fb8e138887d0aa13bab447e82de9d5c1777041ecd21ca36ba824ff1e6c07ddda489888489604051611be09493929190613f25565b60405180910390a261102a565b866001600160a01b03167fe2babfbac5889a709b63bb7f598b324e08bc5a4fb9ec647fb3cbc9ec07eb87128988848989604051611c2e959493929190613f4d565b60405180910390a2979650505050505050565b6000611c5c8254600f81810b600160801b909204900b131590565b15611c7a57604051631ed9509560e11b815260040160405180910390fd5b508054600f0b6000818152600180840160205260408220805492905583546fffffffffffffffffffffffffffffffff191692016001600160801b03169190911790915590565b6064811115611d435760405162461bcd60e51b815260206004820152604360248201527f476f7665726e6f72566f74657351756f72756d4672616374696f6e3a2071756f60448201527f72756d4e756d657261746f72206f7665722071756f72756d44656e6f6d696e616064820152623a37b960e91b608482015260a401610af2565b6000611d4d611395565b90508015801590611d5e5750600954155b15611dc357604080518082019091526000815260099060208101611d81846117f5565b6001600160e01b0390811690915282546001810184556000938452602093849020835194909301519091166401000000000263ffffffff909316929092179101555b611dce600983611862565b505060408051828152602081018490527f0553476bf02ef2726e8ce5ced78d63e26e602e4a2257b1f559418e24b4633997910160405180910390a15050565b30611e1661098d565b6001600160a01b0316146115d65760005b8451811015611ea757306001600160a01b0316858281518110611e4c57611e4c613e47565b60200260200101516001600160a01b03161415611e9757611e97838281518110611e7857611e78613e47565b6020026020010151805190602001206002612d9490919063ffffffff16565b611ea081613f93565b9050611e27565b505050505050565b6115d68585858585612dd0565b30611ec561098d565b6001600160a01b0316146115d657600254600f81810b600160801b909204900b13156115d65760006002556115d6565b6000611f1885858585611f1360408051602081019091526000815290565b611adf565b95945050505050565b600080611f2d83612e44565b90506004816007811115611f4357611f4361372b565b14611f4e5792915050565b6000838152600b602052604090205480611f69575092915050565b600a54604051632ab0f52960e01b8152600481018390526001600160a01b0390911690632ab0f52990602401602060405180830381865afa158015611fb2573d6000803e3d6000fd5b505050506040513d601f19601f82011682018060405250810190611fd69190613fae565b15611fe5575060079392505050565b600a54604051632c258a9f60e11b8152600481018390526001600160a01b039091169063584b153e90602401602060405180830381865afa15801561202e573d6000803e3d6000fd5b505050506040513d601f19601f820116820180604052508101906120529190613fae565b15612061575060059392505050565b5060029392505050565b60004382106120bc5760405162461bcd60e51b815260206004820181905260248201527f436865636b706f696e74733a20626c6f636b206e6f7420796574206d696e65646044820152606401610af2565b825460005b818110156121215760006120d58284612f50565b9050848660000182815481106120ed576120ed613e47565b60009182526020909120015463ffffffff16111561210d5780925061211b565b612118816001613e18565b91505b506120c1565b81156121655784612133600184613e30565b8154811061214357612143613e47565b60009182526020909120015464010000000090046001600160e01b0316612168565b60005b6001600160e01b031695945050505050565b60045460408051918252602082018390527fc565b045403dc03c2eea82b81a0465edad9e2e7fc4d97e11421c209da93d7a93910160405180910390a1600455565b600c546001600160a01b031633146111e75760405162461bcd60e51b815260206004820181905260248201527f4f776e61626c653a2063616c6c6572206973206e6f7420746865206f776e65726044820152606401610af2565b600c80546001600160a01b038381166001600160a01b0319831681179093556040519116919082907f8be0079c531659141344cd1fd0a4f28419497f9722a3daafe3b4186f6b6457e090600090a35050565b60006122716114d7565b612280336108c8600143613e30565b10156122e85760405162461bcd60e51b815260206004820152603160248201527f476f7665726e6f723a2070726f706f73657220766f7465732062656c6f7720706044820152701c9bdc1bdcd85b081d1a1c995cda1bdb19607a1b6064820152608401610af2565b60006122fd86868686805190602001206115dd565b905084518651146123205760405162461bcd60e51b8152600401610af290613fd0565b83518651146123415760405162461bcd60e51b8152600401610af290613fd0565b60008651116123925760405162461bcd60e51b815260206004820152601860248201527f476f7665726e6f723a20656d7074792070726f706f73616c00000000000000006044820152606401610af2565b600081815260016020908152604091829020825191820190925281546001600160401b031690819052156124125760405162461bcd60e51b815260206004820152602160248201527f476f7665726e6f723a2070726f706f73616c20616c72656164792065786973746044820152607360f81b6064820152608401610af2565b600061242461241f610fb4565b612f6b565b61242d43612f6b565b6124379190614011565b9050600061244661241f6109b7565b6124509083614011565b835467ffffffffffffffff19166001600160401b038416178455905060018301805467ffffffffffffffff19166001600160401b0383161790557f7d84a6263ae0d98d3329bd7b46bb4e8d6f98cd35a7adb45c274c8b7fd5ebd5e084338b8b8d516001600160401b038111156124c8576124c861327a565b6040519080825280602002602001820160405280156124fb57816020015b60608152602001906001900390816124e65790505b508c88888e6040516125159998979695949392919061403c565b60405180910390a15091979650505050505050565b604051630748d63560e31b81526001600160a01b038481166004830152602482018490526000917f000000000000000000000000000000000000000000000000000000000000000090911690633a46b1a890604401602060405180830381865afa15801561259c573d6000803e3d6000fd5b505050506040513d601f19601f820116820180604052508101906112d69190613c7a565b600a54604080516001600160a01b03928316815291831660208301527f08f74ea46ef7894f65eabfb5e6e695de773a000b47c529ab559178069b226401910160405180910390a1600a80546001600160a01b0319166001600160a01b0392909216919091179055565b60606112d684848460405180606001604052806029815260200161416d60299139612fd3565b600081116126af5760405162461bcd60e51b815260206004820152602760248201527f476f7665726e6f7253657474696e67733a20766f74696e6720706572696f6420604482015266746f6f206c6f7760c81b6064820152608401610af2565b60055460408051918252602082018390527f7e3f7f0708a84de9203036abaa450dccc85ad5ff52f78c170f3edb55cf5e8828910160405180910390a1600555565b60065460408051918252602082018390527fccb45da8d5717e6c4544694297c4ba5cf151d455c9bb0ed4fc7a38411bc05461910160405180910390a1600655565b6000606461273e836110b3565b604051632394e7a360e21b8152600481018590527f00000000000000000000000000000000000000000000000000000000000000006001600160a01b031690638e539e8c90602401602060405180830381865afa1580156127a3573d6000803e3d6000fd5b505050506040513d601f19601f820116820180604052508101906127c79190613c7a565b6127d1919061412b565b6109b1919061414a565b60006001600160e01b0319821663bf26d89760e01b148061280c57506001600160e01b031982166379dd796f60e01b145b8061282757506001600160e01b03198216630271189760e51b145b806109b157506301ffc9a760e01b6001600160e01b03198316146109b1565b6000306001600160a01b037f00000000000000000000000000000000000000000000000000000000000000001614801561289f57507f000000000000000000000000000000000000000000000000000000000000000046145b156128c957507f000000000000000000000000000000000000000000000000000000000000000090565b50604080517f00000000000000000000000000000000000000000000000000000000000000006020808301919091527f0000000000000000000000000000000000000000000000000000000000000000828401527f000000000000000000000000000000000000000000000000000000000000000060608301524660808301523060a0808401919091528351808403909101815260c0909201909252805191012090565b6000807f7fffffffffffffffffffffffffffffff5d576e7357a4501ddfe92f46681b20a08311156129a45750600090506003612a51565b8460ff16601b141580156129bc57508460ff16601c14155b156129cd5750600090506004612a51565b6040805160008082526020820180845289905260ff881692820192909252606081018690526080810185905260019060a0016020604051602081039080840390855afa158015612a21573d6000803e3d6000fd5b5050604051601f1901519150506001600160a01b038116612a4a57600060019250925050612a51565b9150600090505b94509492505050565b6000816004811115612a6e57612a6e61372b565b1415612a775750565b6001816004811115612a8b57612a8b61372b565b1415612ad95760405162461bcd60e51b815260206004820152601860248201527f45434453413a20696e76616c6964207369676e617475726500000000000000006044820152606401610af2565b6002816004811115612aed57612aed61372b565b1415612b3b5760405162461bcd60e51b815260206004820152601f60248201527f45434453413a20696e76616c6964207369676e6174757265206c656e677468006044820152606401610af2565b6003816004811115612b4f57612b4f61372b565b1415612ba85760405162461bcd60e51b815260206004820152602260248201527f45434453413a20696e76616c6964207369676e6174757265202773272076616c604482015261756560f01b6064820152608401610af2565b6004816004811115612bbc57612bbc61372b565b1415610b4f5760405162461bcd60e51b815260206004820152602260248201527f45434453413a20696e76616c6964207369676e6174757265202776272076616c604482015261756560f01b6064820152608401610af2565b60008581526007602090815260408083206001600160a01b0388168452600381019092529091205460ff1615612c9d5760405162461bcd60e51b815260206004820152602760248201527f476f7665726e6f72566f74696e6753696d706c653a20766f746520616c726561604482015266191e4818d85cdd60ca1b6064820152608401610af2565b6001600160a01b03851660009081526003820160205260408120805460ff1916600117905560ff168460ff161415612cee5782816000016000828254612ce39190613e18565b90915550611ea79050565b60ff841660011415612d0e5782816001016000828254612ce39190613e18565b60ff841660021415612d2e5782816002016000828254612ce39190613e18565b60405162461bcd60e51b815260206004820152603560248201527f476f7665726e6f72566f74696e6753696d706c653a20696e76616c69642076616044820152746c756520666f7220656e756d20566f74655479706560581b6064820152608401610af2565b8154600160801b90819004600f0b6000818152600180860160205260409091209390935583546001600160801b03908116939091011602179055565b600a5460405163e38335e560e01b81526001600160a01b039091169063e38335e5903490612e0b908890889088906000908990600401613d5c565b6000604051808303818588803b158015612e2457600080fd5b505af1158015612e38573d6000803e3d6000fd5b50505050505050505050565b6000818152600160205260408120600281015460ff1615612e685750600792915050565b6002810154610100900460ff1615612e835750600292915050565b6000612e8e84610f7d565b905080612edd5760405162461bcd60e51b815260206004820152601d60248201527f476f7665726e6f723a20756e6b6e6f776e2070726f706f73616c2069640000006044820152606401610af2565b438110612eee575060009392505050565b6000612ef9856114e2565b9050438110612f0d57506001949350505050565b612f16856130f9565b8015612f35575060008581526007602052604090208054600190910154115b15612f4557506004949350505050565b506003949350505050565b6000612f5f600284841861414a565b6112d990848416613e18565b60006001600160401b0382111561185e5760405162461bcd60e51b815260206004820152602660248201527f53616665436173743a2076616c756520646f65736e27742066697420696e203660448201526534206269747360d01b6064820152608401610af2565b6060824710156130345760405162461bcd60e51b815260206004820152602660248201527f416464726573733a20696e73756666696369656e742062616c616e636520666f6044820152651c8818d85b1b60d21b6064820152608401610af2565b6001600160a01b0385163b61308b5760405162461bcd60e51b815260206004820152601d60248201527f416464726573733a2063616c6c20746f206e6f6e2d636f6e74726163740000006044820152606401610af2565b600080866001600160a01b031685876040516130a79190613ebe565b60006040518083038185875af1925050503d80600081146130e4576040519150601f19603f3d011682016040523d82523d6000602084013e6130e9565b606091505b509150915061102a828286613130565b60008181526007602052604081206002810154600182015461311b9190613e18565b61312761095485610f7d565b11159392505050565b6060831561313f5750816112d9565b82511561314f5782518084602001fd5b8160405162461bcd60e51b8152600401610af2919061344a565b82805461317590613bfe565b90600052602060002090601f01602090048101928261319757600085556131dd565b82601f106131b057805160ff19168380011785556131dd565b828001600101855582156131dd579182015b828111156131dd5782518255916020019190600101906131c2565b5061185e9291505b8082111561185e57600081556001016131e5565b60006020828403121561320b57600080fd5b81356001600160e01b0319811681146112d957600080fd5b803560ff8116811461323457600080fd5b919050565b60008083601f84011261324b57600080fd5b5081356001600160401b0381111561326257600080fd5b60208301915083602082850101111561198657600080fd5b634e487b7160e01b600052604160045260246000fd5b604051601f8201601f191681016001600160401b03811182821017156132b8576132b861327a565b604052919050565b600082601f8301126132d157600080fd5b81356001600160401b038111156132ea576132ea61327a565b6132fd601f8201601f1916602001613290565b81815284602083860101111561331257600080fd5b816020850160208301376000918101602001919091529392505050565b60008060008060008060008060e0898b03121561334b57600080fd5b8835975061335b60208a01613223565b965060408901356001600160401b038082111561337757600080fd5b6133838c838d01613239565b909850965060608b013591508082111561339c57600080fd5b506133a98b828c016132c0565b9450506133b860808a01613223565b925060a0890135915060c089013590509295985092959890939650565b6000602082840312156133e757600080fd5b5035919050565b60005b838110156134095781810151838201526020016133f1565b83811115613418576000848401525b50505050565b600081518084526134368160208601602086016133ee565b601f01601f19169290920160200192915050565b6020815260006112d9602083018461341e565b6001600160a01b0381168114610b4f57600080fd5b6000806000806080858703121561348857600080fd5b84356134938161345d565b935060208501356134a38161345d565b92506040850135915060608501356001600160401b038111156134c557600080fd5b6134d1878288016132c0565b91505092959194509250565b60006001600160401b038211156134f6576134f661327a565b5060051b60200190565b600082601f83011261351157600080fd5b81356020613526613521836134dd565b613290565b82815260059290921b8401810191818101908684111561354557600080fd5b8286015b8481101561356957803561355c8161345d565b8352918301918301613549565b509695505050505050565b600082601f83011261358557600080fd5b81356020613595613521836134dd565b82815260059290921b840181019181810190868411156135b457600080fd5b8286015b8481101561356957803583529183019183016135b8565b600082601f8301126135e057600080fd5b813560206135f0613521836134dd565b82815260059290921b8401810191818101908684111561360f57600080fd5b8286015b848110156135695780356001600160401b038111156136325760008081fd5b6136408986838b01016132c0565b845250918301918301613613565b6000806000806080858703121561366457600080fd5b84356001600160401b038082111561367b57600080fd5b61368788838901613500565b9550602087013591508082111561369d57600080fd5b6136a988838901613574565b945060408701359150808211156136bf57600080fd5b506136cc878288016135cf565b949793965093946060013593505050565b600080600080600060a086880312156136f557600080fd5b8535945061370560208701613223565b935061371360408701613223565b94979396509394606081013594506080013592915050565b634e487b7160e01b600052602160045260246000fd5b602081016008831061376357634e487b7160e01b600052602160045260246000fd5b91905290565b6000806040838503121561377c57600080fd5b82359150602083013561378e8161345d565b809150509250929050565b600080604083850312156137ac57600080fd5b823591506137bc60208401613223565b90509250929050565b6000806000806000608086880312156137dd57600080fd5b853594506137ed60208701613223565b935060408601356001600160401b038082111561380957600080fd5b61381589838a01613239565b9095509350606088013591508082111561382e57600080fd5b5061383b888289016132c0565b9150509295509295909350565b6000806000806060858703121561385e57600080fd5b8435935061386e60208601613223565b925060408501356001600160401b0381111561388957600080fd5b61389587828801613239565b95989497509550505050565b600080600080608085870312156138b757600080fd5b84356001600160401b03808211156138ce57600080fd5b6138da88838901613500565b955060208701359150808211156138f057600080fd5b6138fc88838901613574565b9450604087013591508082111561391257600080fd5b61391e888389016135cf565b9350606087013591508082111561393457600080fd5b506134d1878288016132c0565b60008060006060848603121561395657600080fd5b83356139618161345d565b92506020840135915060408401356001600160401b0381111561398357600080fd5b61398f868287016132c0565b9150509250925092565b600080604083850312156139ac57600080fd5b82356001600160401b03808211156139c357600080fd5b6139cf868387016132c0565b935060208501359150808211156139e557600080fd5b506139f2858286016132c0565b9150509250929050565b600060208284031215613a0e57600080fd5b81356112d98161345d565b600080600080600060a08688031215613a3157600080fd5b8535613a3c8161345d565b94506020860135613a4c8161345d565b935060408601356001600160401b0380821115613a6857600080fd5b613a7489838a01613574565b94506060880135915080821115613a8a57600080fd5b613a9689838a01613574565b9350608088013591508082111561382e57600080fd5b60008060008060608587031215613ac257600080fd5b8435613acd8161345d565b93506020850135925060408501356001600160401b0381111561388957600080fd5b600060208284031215613b0157600080fd5b81356001600160401b03811115613b1757600080fd5b611061848285016132c0565b60008060408385031215613b3657600080fd5b8235613b418161345d565b946020939093013593505050565b600080600080600060a08688031215613b6757600080fd5b8535613b728161345d565b94506020860135613b828161345d565b9350604086013592506060860135915060808601356001600160401b03811115613bab57600080fd5b61383b888289016132c0565b8183823760009101908152919050565b60208082526018908201527f476f7665726e6f723a206f6e6c79476f7665726e616e63650000000000000000604082015260600190565b600181811c90821680613c1257607f821691505b60208210811415613c3357634e487b7160e01b600052602260045260246000fd5b50919050565b60208082526021908201527f476f7665726e6f723a2070726f706f73616c206e6f74207375636365737366756040820152601b60fa1b606082015260800190565b600060208284031215613c8c57600080fd5b5051919050565b600081518084526020808501945080840160005b83811015613ccc5781516001600160a01b031687529582019590820190600101613ca7565b509495945050505050565b600081518084526020808501945080840160005b83811015613ccc57815187529582019590820190600101613ceb565b600081518084526020808501808196508360051b8101915082860160005b85811015613d4f578284038952613d3d84835161341e565b98850198935090840190600101613d25565b5091979650505050505050565b60a081526000613d6f60a0830188613c93565b8281036020840152613d818188613cd7565b90508281036040840152613d958187613d07565b60608401959095525050608001529392505050565b60c081526000613dbd60c0830189613c93565b8281036020840152613dcf8189613cd7565b90508281036040840152613de38188613d07565b60608401969096525050608081019290925260a0909101529392505050565b634e487b7160e01b600052601160045260246000fd5b60008219821115613e2b57613e2b613e02565b500190565b600082821015613e4257613e42613e02565b500390565b634e487b7160e01b600052603260045260246000fd5b60018060a01b038716815285602082015260c060408201526000613e8460c0830187613c93565b8281036060840152613e968187613cd7565b90508281036080840152613eaa8186613d07565b9150508260a0830152979650505050505050565b60008251613ed08184602087016133ee565b9190910192915050565b608081526000613eed6080830187613c93565b8281036020840152613eff8187613cd7565b90508281036040840152613f138186613d07565b91505082606083015295945050505050565b84815260ff84166020820152826040820152608060608201526000611231608083018461341e565b85815260ff8516602082015283604082015260a060608201526000613f7560a083018561341e565b8281036080840152613f87818561341e565b98975050505050505050565b6000600019821415613fa757613fa7613e02565b5060010190565b600060208284031215613fc057600080fd5b815180151581146112d957600080fd5b60208082526021908201527f476f7665726e6f723a20696e76616c69642070726f706f73616c206c656e67746040820152600d60fb1b606082015260800190565b60006001600160401b0380831681851680830382111561403357614033613e02565b01949350505050565b60006101208b8352602060018060a01b038c16818501528160408501526140658285018c613c93565b91508382036060850152614079828b613cd7565b915083820360808501528189518084528284019150828160051b850101838c0160005b838110156140ca57601f198784030185526140b883835161341e565b9486019492509085019060010161409c565b505086810360a08801526140de818c613d07565b9450505050506140f960c08401876001600160401b03169052565b6001600160401b03851660e084015282810361010084015261411b818561341e565b9c9b505050505050505050505050565b600081600019048311821515161561414557614145613e02565b500290565b60008261416757634e487b7160e01b600052601260045260246000fd5b50049056fe416464726573733a206c6f772d6c6576656c2063616c6c20776974682076616c7565206661696c6564a26469706673582212206a3148be9c59cee6261cd3bc84f091e08208576d97de2234556a4642ad54a0bd64736f6c634300080c0033360894a13ba1a3210667c828492db98dca3e2076cc3735a920a3ca505d382bbc416464726573733a206c6f772d6c6576656c2064656c65676174652063616c6c206661696c6564a2646970667358221220382a8befcee6d538288f8d7a752a23c9fffb0bbabea7bc2bcd47cf418c0c844c64736f6c634300080c0033",
  "linkReferences": {},
  "deployedLinkReferences": {}
}