{
  "_format": "hh-sol-artifact-1",
  "contractName": "FungibleToken",
  "sourceName": "src/backend/contracts/_FungibleToken.sol",
  "abi": [
    {
      "inputs": [
        {
          "internalType": "address",
          "name": "_mainContract",
          "type": "address"
        },
        {
          "internalType": "string",
          "name": "_name",
          "type": "string"
        },
        {
          "internalType": "string",
          "name": "_symbol",
          "type": "string"
        },
        {
          "internalType": "address",
          "name": "_owner",
          "type": "address"
        },
        {
          "internalType": "uint256",
          "name": "_supply",
          "type": "uint256"
        },
        {
          "internalType": "contract IWorldID",
          "name": "_worldId",
          "type": "address"
        }
      ],
      "stateMutability": "nonpayable",
      "type": "constructor"
    },
    {
      "inputs": [],
      "name": "InvalidNullifier",
      "type": "error"
    },
    {
      "anonymous": false,
      "inputs": [
        {
          "indexed": true,
          "internalType": "address",
          "name": "owner",
          "type": "address"
        },
        {
          "indexed": true,
          "internalType": "address",
          "name": "spender",
          "type": "address"
        },
        {
          "indexed": false,
          "internalType": "uint256",
          "name": "value",
          "type": "uint256"
        }
      ],
      "name": "Approval",
      "type": "event"
    },
    {
      "anonymous": false,
      "inputs": [
        {
          "indexed": true,
          "internalType": "uint256",
          "name": "_communityId",
          "type": "uint256"
        },
        {
          "indexed": true,
          "internalType": "uint256",
          "name": "_campaignId",
          "type": "uint256"
        },
        {
          "indexed": true,
          "internalType": "uint256",
          "name": "_campaignType",
          "type": "uint256"
        },
        {
          "indexed": false,
          "internalType": "address",
          "name": "_address",
          "type": "address"
        },
        {
          "indexed": false,
          "internalType": "uint256",
          "name": "_deposit",
          "type": "uint256"
        },
        {
          "indexed": false,
          "internalType": "string",
          "name": "_email",
          "type": "string"
        },
        {
          "indexed": false,
          "internalType": "uint256",
          "name": "_dateTime",
          "type": "uint256"
        }
      ],
      "name": "CampaignAction",
      "type": "event"
    },
    {
      "anonymous": false,
      "inputs": [
        {
          "indexed": true,
          "internalType": "address",
          "name": "delegator",
          "type": "address"
        },
        {
          "indexed": true,
          "internalType": "address",
          "name": "fromDelegate",
          "type": "address"
        },
        {
          "indexed": true,
          "internalType": "address",
          "name": "toDelegate",
          "type": "address"
        }
      ],
      "name": "DelegateChanged",
      "type": "event"
    },
    {
      "anonymous": false,
      "inputs": [
        {
          "indexed": true,
          "internalType": "address",
          "name": "delegate",
          "type": "address"
        },
        {
          "indexed": false,
          "internalType": "uint256",
          "name": "previousBalance",
          "type": "uint256"
        },
        {
          "indexed": false,
          "internalType": "uint256",
          "name": "newBalance",
          "type": "uint256"
        }
      ],
      "name": "DelegateVotesChanged",
      "type": "event"
    },
    {
      "anonymous": false,
      "inputs": [
        {
          "indexed": true,
          "internalType": "address",
          "name": "previousOwner",
          "type": "address"
        },
        {
          "indexed": true,
          "internalType": "address",
          "name": "newOwner",
          "type": "address"
        }
      ],
      "name": "OwnershipTransferred",
      "type": "event"
    },
    {
      "anonymous": false,
      "inputs": [
        {
          "indexed": false,
          "internalType": "address",
          "name": "account",
          "type": "address"
        }
      ],
      "name": "Paused",
      "type": "event"
    },
    {
      "anonymous": false,
      "inputs": [
        {
          "indexed": true,
          "internalType": "address",
          "name": "from",
          "type": "address"
        },
        {
          "indexed": true,
          "internalType": "address",
          "name": "to",
          "type": "address"
        },
        {
          "indexed": false,
          "internalType": "uint256",
          "name": "value",
          "type": "uint256"
        }
      ],
      "name": "Transfer",
      "type": "event"
    },
    {
      "anonymous": false,
      "inputs": [
        {
          "indexed": false,
          "internalType": "address",
          "name": "account",
          "type": "address"
        }
      ],
      "name": "Unpaused",
      "type": "event"
    },
    {
      "inputs": [],
      "name": "DOMAIN_SEPARATOR",
      "outputs": [
        {
          "internalType": "bytes32",
          "name": "",
          "type": "bytes32"
        }
      ],
      "stateMutability": "view",
      "type": "function"
    },
    {
      "inputs": [
        {
          "internalType": "address",
          "name": "owner",
          "type": "address"
        },
        {
          "internalType": "address",
          "name": "spender",
          "type": "address"
        }
      ],
      "name": "allowance",
      "outputs": [
        {
          "internalType": "uint256",
          "name": "",
          "type": "uint256"
        }
      ],
      "stateMutability": "view",
      "type": "function"
    },
    {
      "inputs": [
        {
          "internalType": "address",
          "name": "spender",
          "type": "address"
        },
        {
          "internalType": "uint256",
          "name": "amount",
          "type": "uint256"
        }
      ],
      "name": "approve",
      "outputs": [
        {
          "internalType": "bool",
          "name": "",
          "type": "bool"
        }
      ],
      "stateMutability": "nonpayable",
      "type": "function"
    },
    {
      "inputs": [
        {
          "internalType": "address",
          "name": "account",
          "type": "address"
        }
      ],
      "name": "balanceOf",
      "outputs": [
        {
          "internalType": "uint256",
          "name": "",
          "type": "uint256"
        }
      ],
      "stateMutability": "view",
      "type": "function"
    },
    {
      "inputs": [],
      "name": "campaignLastId",
      "outputs": [
        {
          "internalType": "uint256",
          "name": "",
          "type": "uint256"
        }
      ],
      "stateMutability": "view",
      "type": "function"
    },
    {
      "inputs": [
        {
          "internalType": "uint256",
          "name": "",
          "type": "uint256"
        }
      ],
      "name": "campaignsList",
      "outputs": [
        {
          "internalType": "uint256",
          "name": "",
          "type": "uint256"
        }
      ],
      "stateMutability": "view",
      "type": "function"
    },
    {
      "inputs": [
        {
          "internalType": "uint256",
          "name": "_campaignId",
          "type": "uint256"
        }
      ],
      "name": "cancelDistributionCampaign",
      "outputs": [],
      "stateMutability": "nonpayable",
      "type": "function"
    },
    {
      "inputs": [
        {
          "internalType": "address",
          "name": "account",
          "type": "address"
        },
        {
          "internalType": "uint32",
          "name": "pos",
          "type": "uint32"
        }
      ],
      "name": "checkpoints",
      "outputs": [
        {
          "components": [
            {
              "internalType": "uint32",
              "name": "fromBlock",
              "type": "uint32"
            },
            {
              "internalType": "uint224",
              "name": "votes",
              "type": "uint224"
            }
          ],
          "internalType": "struct ERC20Votes.Checkpoint",
          "name": "",
          "type": "tuple"
        }
      ],
      "stateMutability": "view",
      "type": "function"
    },
    {
      "inputs": [
        {
          "internalType": "uint256",
          "name": "_communityId",
          "type": "uint256"
        },
        {
          "internalType": "uint256",
          "name": "_campaignId",
          "type": "uint256"
        },
        {
          "internalType": "uint256",
          "name": "_eventCode",
          "type": "uint256"
        },
        {
          "internalType": "string",
          "name": "_email",
          "type": "string"
        },
        {
          "internalType": "uint256",
          "name": "root",
          "type": "uint256"
        },
        {
          "internalType": "uint256",
          "name": "nullifierHash",
          "type": "uint256"
        },
        {
          "internalType": "uint256[8]",
          "name": "proof",
          "type": "uint256[8]"
        }
      ],
      "name": "claimFromCampaign",
      "outputs": [],
      "stateMutability": "payable",
      "type": "function"
    },
    {
      "inputs": [
        {
          "internalType": "enum FungibleToken.DistributionType",
          "name": "_distType",
          "type": "uint8"
        },
        {
          "internalType": "uint256",
          "name": "_dateStart",
          "type": "uint256"
        },
        {
          "internalType": "uint256",
          "name": "_dateEnd",
          "type": "uint256"
        },
        {
          "internalType": "address[]",
          "name": "_whitelist",
          "type": "address[]"
        },
        {
          "internalType": "string",
          "name": "_worldcoinAction",
          "type": "string"
        },
        {
          "internalType": "uint256",
          "name": "_tokensTotal",
          "type": "uint256"
        },
        {
          "internalType": "uint256",
          "name": "_tokensPerUser",
          "type": "uint256"
        }
      ],
      "name": "createDistributionCampaign",
      "outputs": [],
      "stateMutability": "payable",
      "type": "function"
    },
    {
      "inputs": [],
      "name": "decimals",
      "outputs": [
        {
          "internalType": "uint8",
          "name": "",
          "type": "uint8"
        }
      ],
      "stateMutability": "view",
      "type": "function"
    },
    {
      "inputs": [
        {
          "internalType": "address",
          "name": "spender",
          "type": "address"
        },
        {
          "internalType": "uint256",
          "name": "subtractedValue",
          "type": "uint256"
        }
      ],
      "name": "decreaseAllowance",
      "outputs": [
        {
          "internalType": "bool",
          "name": "",
          "type": "bool"
        }
      ],
      "stateMutability": "nonpayable",
      "type": "function"
    },
    {
      "inputs": [
        {
          "internalType": "address",
          "name": "delegatee",
          "type": "address"
        }
      ],
      "name": "delegate",
      "outputs": [],
      "stateMutability": "nonpayable",
      "type": "function"
    },
    {
      "inputs": [
        {
          "internalType": "address",
          "name": "delegatee",
          "type": "address"
        },
        {
          "internalType": "uint256",
          "name": "nonce",
          "type": "uint256"
        },
        {
          "internalType": "uint256",
          "name": "expiry",
          "type": "uint256"
        },
        {
          "internalType": "uint8",
          "name": "v",
          "type": "uint8"
        },
        {
          "internalType": "bytes32",
          "name": "r",
          "type": "bytes32"
        },
        {
          "internalType": "bytes32",
          "name": "s",
          "type": "bytes32"
        }
      ],
      "name": "delegateBySig",
      "outputs": [],
      "stateMutability": "nonpayable",
      "type": "function"
    },
    {
      "inputs": [
        {
          "internalType": "address",
          "name": "account",
          "type": "address"
        }
      ],
      "name": "delegates",
      "outputs": [
        {
          "internalType": "address",
          "name": "",
          "type": "address"
        }
      ],
      "stateMutability": "view",
      "type": "function"
    },
    {
      "inputs": [],
      "name": "getCampaigns",
      "outputs": [
        {
          "components": [
            {
              "internalType": "uint256",
              "name": "id",
              "type": "uint256"
            },
            {
              "internalType": "uint256",
              "name": "tokensTotal",
              "type": "uint256"
            },
            {
              "internalType": "uint256",
              "name": "tokensMinted",
              "type": "uint256"
            },
            {
              "internalType": "uint256",
              "name": "tokensPerUser",
              "type": "uint256"
            },
            {
              "internalType": "uint256",
              "name": "dateStart",
              "type": "uint256"
            },
            {
              "internalType": "uint256",
              "name": "dateEnd",
              "type": "uint256"
            },
            {
              "internalType": "uint256",
              "name": "eventCode",
              "type": "uint256"
            },
            {
              "internalType": "enum FungibleToken.DistributionType",
              "name": "distType",
              "type": "uint8"
            },
            {
              "internalType": "address[]",
              "name": "whitelist",
              "type": "address[]"
            },
            {
              "internalType": "string",
              "name": "worldcoinAction",
              "type": "string"
            }
          ],
          "internalType": "struct FungibleToken.DistributionCampaign[]",
          "name": "",
          "type": "tuple[]"
        }
      ],
      "stateMutability": "view",
      "type": "function"
    },
    {
      "inputs": [
        {
          "internalType": "uint256",
          "name": "blockNumber",
          "type": "uint256"
        }
      ],
      "name": "getPastTotalSupply",
      "outputs": [
        {
          "internalType": "uint256",
          "name": "",
          "type": "uint256"
        }
      ],
      "stateMutability": "view",
      "type": "function"
    },
    {
      "inputs": [
        {
          "internalType": "address",
          "name": "account",
          "type": "address"
        },
        {
          "internalType": "uint256",
          "name": "blockNumber",
          "type": "uint256"
        }
      ],
      "name": "getPastVotes",
      "outputs": [
        {
          "internalType": "uint256",
          "name": "",
          "type": "uint256"
        }
      ],
      "stateMutability": "view",
      "type": "function"
    },
    {
      "inputs": [
        {
          "internalType": "address",
          "name": "account",
          "type": "address"
        }
      ],
      "name": "getVotes",
      "outputs": [
        {
          "internalType": "uint256",
          "name": "",
          "type": "uint256"
        }
      ],
      "stateMutability": "view",
      "type": "function"
    },
    {
      "inputs": [
        {
          "internalType": "address",
          "name": "spender",
          "type": "address"
        },
        {
          "internalType": "uint256",
          "name": "addedValue",
          "type": "uint256"
        }
      ],
      "name": "increaseAllowance",
      "outputs": [
        {
          "internalType": "bool",
          "name": "",
          "type": "bool"
        }
      ],
      "stateMutability": "nonpayable",
      "type": "function"
    },
    {
      "inputs": [
        {
          "internalType": "uint256",
          "name": "",
          "type": "uint256"
        },
        {
          "internalType": "address",
          "name": "",
          "type": "address"
        }
      ],
      "name": "mintedList",
      "outputs": [
        {
          "internalType": "bool",
          "name": "",
          "type": "bool"
        }
      ],
      "stateMutability": "view",
      "type": "function"
    },
    {
      "inputs": [],
      "name": "name",
      "outputs": [
        {
          "internalType": "string",
          "name": "",
          "type": "string"
        }
      ],
      "stateMutability": "view",
      "type": "function"
    },
    {
      "inputs": [
        {
          "internalType": "address",
          "name": "owner",
          "type": "address"
        }
      ],
      "name": "nonces",
      "outputs": [
        {
          "internalType": "uint256",
          "name": "",
          "type": "uint256"
        }
      ],
      "stateMutability": "view",
      "type": "function"
    },
    {
      "inputs": [
        {
          "internalType": "address",
          "name": "account",
          "type": "address"
        }
      ],
      "name": "numCheckpoints",
      "outputs": [
        {
          "internalType": "uint32",
          "name": "",
          "type": "uint32"
        }
      ],
      "stateMutability": "view",
      "type": "function"
    },
    {
      "inputs": [],
      "name": "owner",
      "outputs": [
        {
          "internalType": "address",
          "name": "",
          "type": "address"
        }
      ],
      "stateMutability": "view",
      "type": "function"
    },
    {
      "inputs": [],
      "name": "pause",
      "outputs": [],
      "stateMutability": "nonpayable",
      "type": "function"
    },
    {
      "inputs": [],
      "name": "paused",
      "outputs": [
        {
          "internalType": "bool",
          "name": "",
          "type": "bool"
        }
      ],
      "stateMutability": "view",
      "type": "function"
    },
    {
      "inputs": [
        {
          "internalType": "address",
          "name": "owner",
          "type": "address"
        },
        {
          "internalType": "address",
          "name": "spender",
          "type": "address"
        },
        {
          "internalType": "uint256",
          "name": "value",
          "type": "uint256"
        },
        {
          "internalType": "uint256",
          "name": "deadline",
          "type": "uint256"
        },
        {
          "internalType": "uint8",
          "name": "v",
          "type": "uint8"
        },
        {
          "internalType": "bytes32",
          "name": "r",
          "type": "bytes32"
        },
        {
          "internalType": "bytes32",
          "name": "s",
          "type": "bytes32"
        }
      ],
      "name": "permit",
      "outputs": [],
      "stateMutability": "nonpayable",
      "type": "function"
    },
    {
      "inputs": [],
      "name": "renounceOwnership",
      "outputs": [],
      "stateMutability": "nonpayable",
      "type": "function"
    },
    {
      "inputs": [
        {
          "internalType": "uint256",
          "name": "_communityId",
          "type": "uint256"
        },
        {
          "internalType": "address[]",
          "name": "_whitelisted",
          "type": "address[]"
        },
        {
          "internalType": "uint256",
          "name": "_tokensAmount",
          "type": "uint256"
        }
      ],
      "name": "sendTokenAirdrop",
      "outputs": [],
      "stateMutability": "payable",
      "type": "function"
    },
    {
      "inputs": [],
      "name": "symbol",
      "outputs": [
        {
          "internalType": "string",
          "name": "",
          "type": "string"
        }
      ],
      "stateMutability": "view",
      "type": "function"
    },
    {
      "inputs": [],
      "name": "totalSupply",
      "outputs": [
        {
          "internalType": "uint256",
          "name": "",
          "type": "uint256"
        }
      ],
      "stateMutability": "view",
      "type": "function"
    },
    {
      "inputs": [
        {
          "internalType": "address",
          "name": "to",
          "type": "address"
        },
        {
          "internalType": "uint256",
          "name": "amount",
          "type": "uint256"
        }
      ],
      "name": "transfer",
      "outputs": [
        {
          "internalType": "bool",
          "name": "",
          "type": "bool"
        }
      ],
      "stateMutability": "nonpayable",
      "type": "function"
    },
    {
      "inputs": [
        {
          "internalType": "address",
          "name": "from",
          "type": "address"
        },
        {
          "internalType": "address",
          "name": "to",
          "type": "address"
        },
        {
          "internalType": "uint256",
          "name": "amount",
          "type": "uint256"
        }
      ],
      "name": "transferFrom",
      "outputs": [
        {
          "internalType": "bool",
          "name": "",
          "type": "bool"
        }
      ],
      "stateMutability": "nonpayable",
      "type": "function"
    },
    {
      "inputs": [
        {
          "internalType": "address",
          "name": "newOwner",
          "type": "address"
        }
      ],
      "name": "transferOwnership",
      "outputs": [],
      "stateMutability": "nonpayable",
      "type": "function"
    },
    {
      "inputs": [],
      "name": "unpause",
      "outputs": [],
      "stateMutability": "nonpayable",
      "type": "function"
    }
  ],
  "bytecode": "0x6101606040526001610140523480156200001857600080fd5b50604051620043a5380380620043a58339810160408190526200003b9162000ad6565b8480604051806040016040528060018152602001603160f81b815250878781600390805190602001906200007192919062000957565b5080516200008790600490602084019062000957565b50506005805460ff19169055506200009f33620001a4565b815160208084019190912082518383012060e08290526101008190524660a0818152604080517f8b73c3c69bb8fe3d512ecc4cf759cc79239f7b179b0ffacaa9a75d522b39400f81880181905281830187905260608201869052608082019490945230818401528151808203909301835260c00190528051940193909320919290916080523060c052610120525050600b80546001600160a01b0319166001600160a01b038b16179055506200016d91508490506200016784670de0b6b3a764000062000ba0565b620001fe565b620001788362000219565b600f80546001600160a01b0319166001600160a01b03929092169190911790555062000c4a9350505050565b600580546001600160a01b03838116610100818102610100600160a81b031985161790945560405193909204169182907f8be0079c531659141344cd1fd0a4f28419497f9722a3daafe3b4186f6b6457e090600090a35050565b6200021582826200029c60201b62001ba01760201c565b5050565b620002236200034f565b6001600160a01b0381166200028e5760405162461bcd60e51b815260206004820152602660248201527f4f776e61626c653a206e6577206f776e657220697320746865207a65726f206160448201526564647265737360d01b60648201526084015b60405180910390fd5b6200029981620001a4565b50565b620002b38282620003b360201b62001c2a1760201c565b6001600160e01b03620002c7620004b08216565b1115620003305760405162461bcd60e51b815260206004820152603060248201527f4552433230566f7465733a20746f74616c20737570706c79207269736b73206f60448201526f766572666c6f77696e6720766f74657360801b606482015260840162000285565b62000349600a62001d21620004b660201b1783620004cb565b50505050565b6005546001600160a01b03610100909104163314620003b15760405162461bcd60e51b815260206004820181905260248201527f4f776e61626c653a2063616c6c6572206973206e6f7420746865206f776e6572604482015260640162000285565b565b6001600160a01b0382166200040b5760405162461bcd60e51b815260206004820152601f60248201527f45524332303a206d696e7420746f20746865207a65726f206164647265737300604482015260640162000285565b62000419600083836200067d565b80600260008282546200042d919062000bc2565b90915550506001600160a01b038216600090815260208190526040812080548392906200045c90849062000bc2565b90915550506040518181526001600160a01b038316906000907fddf252ad1be2c89b69c2b068fc378daa952ba7f163c4a11628f55a4df523b3ef9060200160405180910390a36200021560008383620006a4565b60025490565b6000620004c4828462000bc2565b9392505050565b8254600090819080156200051d5785620004e760018362000bdd565b81548110620004fa57620004fa62000bf7565b60009182526020909120015464010000000090046001600160e01b031662000520565b60005b6001600160e01b031692506200053783858760201c565b91506000811180156200057b575043866200055460018462000bdd565b8154811062000567576200056762000bf7565b60009182526020909120015463ffffffff16145b15620005ef576200059782620006bc60201b62001d2d1760201c565b86620005a560018462000bdd565b81548110620005b857620005b862000bf7565b9060005260206000200160000160046101000a8154816001600160e01b0302191690836001600160e01b0316021790555062000674565b85604051806040016040528062000611436200072b60201b62001d9a1760201c565b63ffffffff1681526020016200063285620006bc60201b62001d2d1760201c565b6001600160e01b0390811690915282546001810184556000938452602093849020835194909301519091166401000000000263ffffffff909316929092179101555b50935093915050565b6200068762000792565b6200069f8383836200069f60201b62000f401760201c565b505050565b6200069f838383620007da60201b62001dff1760201c565b60006001600160e01b03821115620007275760405162461bcd60e51b815260206004820152602760248201527f53616665436173743a2076616c756520646f65736e27742066697420696e20326044820152663234206269747360c81b606482015260840162000285565b5090565b600063ffffffff821115620007275760405162461bcd60e51b815260206004820152602660248201527f53616665436173743a2076616c756520646f65736e27742066697420696e203360448201526532206269747360d01b606482015260840162000285565b60055460ff1615620003b15760405162461bcd60e51b815260206004820152601060248201526f14185d5cd8589b194e881c185d5cd95960821b604482015260640162000285565b620007f28383836200069f60201b62000f401760201c565b6001600160a01b038381166000908152600860205260408082205485841683529120546200069f92918216911683818314801590620008315750600081115b156200069f576001600160a01b03831615620008be576001600160a01b0383166000908152600960209081526040822082916200087b919062000949901b62001e311785620004cb565b91509150846001600160a01b0316600080516020620043858339815191528383604051620008b3929190918252602082015260400190565b60405180910390a250505b6001600160a01b038216156200069f576001600160a01b038216600090815260096020908152604082208291620009029190620004b6901b62001d211785620004cb565b91509150836001600160a01b03166000805160206200438583398151915283836040516200093a929190918252602082015260400190565b60405180910390a25050505050565b6000620004c4828462000bdd565b828054620009659062000c0d565b90600052602060002090601f016020900481019282620009895760008555620009d4565b82601f10620009a457805160ff1916838001178555620009d4565b82800160010185558215620009d4579182015b82811115620009d4578251825591602001919060010190620009b7565b50620007279291505b80821115620007275760008155600101620009dd565b6001600160a01b03811681146200029957600080fd5b634e487b7160e01b600052604160045260246000fd5b600082601f83011262000a3157600080fd5b81516001600160401b038082111562000a4e5762000a4e62000a09565b604051601f8301601f19908116603f0116810190828211818310171562000a795762000a7962000a09565b8160405283815260209250868385880101111562000a9657600080fd5b600091505b8382101562000aba578582018301518183018401529082019062000a9b565b8382111562000acc5760008385830101525b9695505050505050565b60008060008060008060c0878903121562000af057600080fd5b865162000afd81620009f3565b60208801519096506001600160401b038082111562000b1b57600080fd5b62000b298a838b0162000a1f565b9650604089015191508082111562000b4057600080fd5b5062000b4f89828a0162000a1f565b945050606087015162000b6281620009f3565b608088015160a0890151919450925062000b7c81620009f3565b809150509295509295509295565b634e487b7160e01b600052601160045260246000fd5b600081600019048311821515161562000bbd5762000bbd62000b8a565b500290565b6000821982111562000bd85762000bd862000b8a565b500190565b60008282101562000bf25762000bf262000b8a565b500390565b634e487b7160e01b600052603260045260246000fd5b600181811c9082168062000c2257607f821691505b6020821081141562000c4457634e487b7160e01b600052602260045260246000fd5b50919050565b60805160a05160c05160e0516101005161012051610140516136e062000ca5600039600061187501526000612306015260006123550152600061233001526000612289015260006122b3015260006122dd01526136e06000f3fe60806040526004361061020f5760003560e01c8063715018a611610118578063a6b03633116100a0578063d505accf1161006f578063d505accf14610625578063dd62ed3e14610645578063edfd1a7b14610665578063f1127ed814610678578063f2fde38b146106c257600080fd5b8063a6b03633146105a3578063a9059cbb146105c5578063c3cda520146105e5578063c3d445061461060557600080fd5b80638da5cb5b116100e75780638da5cb5b1461050b5780638e539e8c1461052e57806395d89b411461054e5780639ab24eb014610563578063a457c2d71461058357600080fd5b8063715018a6146104865780637ecebe001461049b5780638456cb59146104bb57806385c9d321146104d057600080fd5b8063395093511161019b5780635c19a95c1161016a5780635c19a95c146103cd5780635c975abb146103ed57806369b0aafa146104055780636fcfff451461041b57806370a082311461045057600080fd5b806339509351146103275780633a46b1a8146103475780633f4ba83a14610367578063587cde1e1461037c57600080fd5b806323b872dd116101e257806323b872dd146102a357806330d2c6d4146102c3578063313ce567146102d65780633644e515146102f2578063381da4881461030757600080fd5b806306fdde0314610214578063095ea7b31461023f578063140050501461026f57806318160ddd14610284575b600080fd5b34801561022057600080fd5b506102296106e2565b6040516102369190612eac565b60405180910390f35b34801561024b57600080fd5b5061025f61025a366004612edb565b610774565b6040519015158152602001610236565b61028261027d366004613043565b61078c565b005b34801561029057600080fd5b506002545b604051908152602001610236565b3480156102af57600080fd5b5061025f6102be3660046130e4565b6109fe565b6102826102d1366004613120565b610a22565b3480156102e257600080fd5b5060405160128152602001610236565b3480156102fe57600080fd5b50610295610bf2565b34801561031357600080fd5b50610282610322366004613170565b610c01565b34801561033357600080fd5b5061025f610342366004612edb565b610f45565b34801561035357600080fd5b50610295610362366004612edb565b610f67565b34801561037357600080fd5b50610282610fe1565b34801561038857600080fd5b506103b5610397366004613189565b6001600160a01b039081166000908152600860205260409020541690565b6040516001600160a01b039091168152602001610236565b3480156103d957600080fd5b506102826103e8366004613189565b610ff3565b3480156103f957600080fd5b5060055460ff1661025f565b34801561041157600080fd5b50610295600c5481565b34801561042757600080fd5b5061043b610436366004613189565b611000565b60405163ffffffff9091168152602001610236565b34801561045c57600080fd5b5061029561046b366004613189565b6001600160a01b031660009081526020819052604090205490565b34801561049257600080fd5b50610282611028565b3480156104a757600080fd5b506102956104b6366004613189565b61103a565b3480156104c757600080fd5b50610282611058565b3480156104dc57600080fd5b5061025f6104eb3660046131a4565b601160209081526000928352604080842090915290825290205460ff1681565b34801561051757600080fd5b5060055461010090046001600160a01b03166103b5565b34801561053a57600080fd5b50610295610549366004613170565b611068565b34801561055a57600080fd5b506102296110c4565b34801561056f57600080fd5b5061029561057e366004613189565b6110d3565b34801561058f57600080fd5b5061025f61059e366004612edb565b61115a565b3480156105af57600080fd5b506105b86111d5565b604051610236919061324c565b3480156105d157600080fd5b5061025f6105e0366004612edb565b611422565b3480156105f157600080fd5b50610282610600366004613345565b611430565b34801561061157600080fd5b50610295610620366004613170565b611566565b34801561063157600080fd5b5061028261064036600461339d565b611587565b34801561065157600080fd5b50610295610660366004613407565b6116eb565b610282610673366004613431565b611716565b34801561068457600080fd5b506106986106933660046134b9565b611aa6565b60408051825163ffffffff1681526020928301516001600160e01b03169281019290925201610236565b3480156106ce57600080fd5b506102826106dd366004613189565b611b2a565b6060600380546106f1906134f9565b80601f016020809104026020016040519081016040528092919081815260200182805461071d906134f9565b801561076a5780601f1061073f5761010080835404028352916020019161076a565b820191906000526020600020905b81548152906001019060200180831161074d57829003601f168201915b5050505050905090565b600033610782818585611e3d565b5060019392505050565b610794611f61565b848611156107e95760405162461bcd60e51b815260206004820152601960248201527f57726f6e672063616d706169676e20646174652072616e67650000000000000060448201526064015b60405180910390fd5b600060048860058111156107ff576107ff6131d0565b141561081657610813620f423f6001611fc1565b90505b6040516323b872dd60e01b8152336004820152306024820181905260448201859052906323b872dd906064016020604051808303816000875af1158015610861573d6000803e3d6000fd5b505050506040513d601f19601f82011682018060405250810190610885919061352e565b506001600c60008282546108999190613566565b9091555050600c54600d805460018101825560009182527fd7b6990105719101dabeb77144f2a3385c8033acd3af97e9423a695e81ad1eb501829055604080516101408101825292835260208301869052820152606081018390526080810188905260a0810187905260c0810182905260e0810189600581111561091f5761091f6131d0565b815260200186815260200185815250600e6000600c548152602001908152602001600020600082015181600001556020820151816001015560408201518160020155606082015181600301556080820151816004015560a0820151816005015560c0820151816006015560e08201518160070160006101000a81548160ff021916908360058111156109b3576109b36131d0565b021790555061010082015180516109d4916008840191602090910190612cae565b5061012082015180516109f1916009840191602090910190612d0f565b5050505050505050505050565b600033610a0c858285612029565b610a1785858561209d565b506001949350505050565b610a2a611f61565b60008111610a705760405162461bcd60e51b815260206004820152601360248201527215dc9bdb99c81d1bdad95b9cc8185b5bdd5b9d606a1b60448201526064016107e0565b6000825111610ac15760405162461bcd60e51b815260206004820152601760248201527f57726f6e67206c697374206f662061646472657373657300000000000000000060448201526064016107e0565b6000825182610ad09190613594565b905060005b8351811015610b9457306001600160a01b03166323b872dd33868481518110610b0057610b006135a8565b60209081029190910101516040516001600160e01b031960e085901b1681526001600160a01b03928316600482015291166024820152604481018590526064016020604051808303816000875af1158015610b5f573d6000803e3d6000fd5b505050506040513d601f19601f82011682018060405250810190610b83919061352e565b50610b8d816135be565b9050610ad5565b506040805133815260208101849052608091810182905260009181018290524260608201526003919086907fe71952c2fd3a7d8c18699fb382ded47b38d198d5ebb29e0f5c2ca644bb5f7eaa9060a00160405180910390a450505050565b6000610bfc61227c565b905090565b610c09611f61565b6000818152600e6020908152604080832081516101408101835281548152600182015493810193909352600281015491830191909152600381015460608301526004810154608083015260058082015460a0840152600682015460c0840152600782015460e084019160ff90911690811115610c8757610c876131d0565b6005811115610c9857610c986131d0565b815260200160088201805480602002602001604051908101604052809291908181526020018280548015610cf557602002820191906000526020600020905b81546001600160a01b03168152600190910190602001808311610cd7575b50505050508152602001600982018054610d0e906134f9565b80601f0160208091040260200160405190810160405280929190818152602001828054610d3a906134f9565b8015610d875780601f10610d5c57610100808354040283529160200191610d87565b820191906000526020600020905b815481529060010190602001808311610d6a57829003601f168201915b5050505050815250509050600081604001518260200151610da891906135d9565b905060005b600d54811015610e6a5783600d8281548110610dcb57610dcb6135a8565b90600052602060002001541415610e5a57600d5460011015610e3257600d8054610df7906001906135d9565b81548110610e0757610e076135a8565b9060005260206000200154600d8281548110610e2557610e256135a8565b6000918252602090912001555b600d805480610e4357610e436135f0565b600190038181906000526020600020016000905590555b610e63816135be565b9050610dad565b506000838152600e6020526040812081815560018101829055600281018290556003810182905560048101829055600581018290556006810182905560078101805460ff1916905590610ec06008830182612d83565b610ece600983016000612da1565b50508015610f405760405163a9059cbb60e01b815233600482015260248101829052309063a9059cbb906044016020604051808303816000875af1158015610f1a573d6000803e3d6000fd5b505050506040513d601f19601f82011682018060405250810190610f3e919061352e565b505b505050565b600033610782818585610f5883836116eb565b610f629190613566565b611e3d565b6000438210610fb85760405162461bcd60e51b815260206004820152601f60248201527f4552433230566f7465733a20626c6f636b206e6f7420796574206d696e65640060448201526064016107e0565b6001600160a01b0383166000908152600960205260409020610fda90836123a3565b9392505050565b610fe9611f61565b610ff1612460565b565b610ffd33826124b2565b50565b6001600160a01b03811660009081526009602052604081205461102290611d9a565b92915050565b611030611f61565b610ff1600061252b565b6001600160a01b038116600090815260066020526040812054611022565b611060611f61565b610ff1612585565b60004382106110b95760405162461bcd60e51b815260206004820152601f60248201527f4552433230566f7465733a20626c6f636b206e6f7420796574206d696e65640060448201526064016107e0565b611022600a836123a3565b6060600480546106f1906134f9565b6001600160a01b0381166000908152600960205260408120548015611147576001600160a01b03831660009081526009602052604090206111156001836135d9565b81548110611125576111256135a8565b60009182526020909120015464010000000090046001600160e01b031661114a565b60005b6001600160e01b03169392505050565b6000338161116882866116eb565b9050838110156111c85760405162461bcd60e51b815260206004820152602560248201527f45524332303a2064656372656173656420616c6c6f77616e63652062656c6f77604482015264207a65726f60d81b60648201526084016107e0565b610a178286868403611e3d565b600d5460609060009067ffffffffffffffff8111156111f6576111f6612f05565b60405190808252806020026020018201604052801561122f57816020015b61121c612ddb565b8152602001906001900390816112145790505b50905060005b600d5481101561141c57600e6000600d8381548110611256576112566135a8565b9060005260206000200154815260200190815260200160002060405180610140016040529081600082015481526020016001820154815260200160028201548152602001600382015481526020016004820154815260200160058201548152602001600682015481526020016007820160009054906101000a900460ff1660058111156112e5576112e56131d0565b60058111156112f6576112f66131d0565b81526020016008820180548060200260200160405190810160405280929190818152602001828054801561135357602002820191906000526020600020905b81546001600160a01b03168152600190910190602001808311611335575b5050505050815260200160098201805461136c906134f9565b80601f0160208091040260200160405190810160405280929190818152602001828054611398906134f9565b80156113e55780601f106113ba576101008083540402835291602001916113e5565b820191906000526020600020905b8154815290600101906020018083116113c857829003601f168201915b505050505081525050828281518110611400576114006135a8565b602002602001018190525080611415906135be565b9050611235565b50919050565b60003361078281858561209d565b834211156114805760405162461bcd60e51b815260206004820152601d60248201527f4552433230566f7465733a207369676e6174757265206578706972656400000060448201526064016107e0565b604080517fe48329057bfd03d55e49b547132e39cffd9c1820ad7b9d4c5307691425d15adf60208201526001600160a01b0388169181019190915260608101869052608081018590526000906114fa906114f29060a001604051602081830303815290604052805190602001206125c2565b858585612610565b905061150581612638565b86146115535760405162461bcd60e51b815260206004820152601960248201527f4552433230566f7465733a20696e76616c6964206e6f6e63650000000000000060448201526064016107e0565b61155d81886124b2565b50505050505050565b600d818154811061157657600080fd5b600091825260209091200154905081565b834211156115d75760405162461bcd60e51b815260206004820152601d60248201527f45524332305065726d69743a206578706972656420646561646c696e6500000060448201526064016107e0565b60007f6e71edae12b1b97f4d1f60370fef10105fa2faae0126114a169c64845d6126c98888886116068c612638565b6040805160208101969096526001600160a01b0394851690860152929091166060840152608083015260a082015260c0810186905260e0016040516020818303038152906040528051906020012090506000611661826125c2565b9050600061167182878787612610565b9050896001600160a01b0316816001600160a01b0316146116d45760405162461bcd60e51b815260206004820152601e60248201527f45524332305065726d69743a20696e76616c6964207369676e6174757265000060448201526064016107e0565b6116df8a8a8a611e3d565b50505050505050505050565b6001600160a01b03918216600090815260016020908152604080832093909416825291909152205490565b61171e61265e565b6000868152600e602052604090206001810154600382015460028301546117459190613566565b11156117935760405162461bcd60e51b815260206004820152601a60248201527f4e6f7420656e6f75676820746f6b656e7320746f20636c61696d00000000000060448201526064016107e0565b600087815260116020908152604080832033845290915290205460ff16156117fd5760405162461bcd60e51b815260206004820152601860248201527f596f7520616c726561647920636c61696d20746f6b656e73000000000000000060448201526064016107e0565b600081600901805461180e906134f9565b905011156119415760008381526010602052604090205460ff161561184657604051632ec8265960e11b815260040160405180910390fd5b600f546040516001600160601b03193360601b1660208201526001600160a01b0390911690633bc778e39086907f0000000000000000000000000000000000000000000000000000000000000000906118b1906034015b6040516020818303038152906040526126a4565b6040516001600160601b03193060601b16602082015288906118d59060340161189d565b886040518763ffffffff1660e01b81526004016118f796959493929190613606565b60006040518083038186803b15801561190f57600080fd5b505afa158015611923573d6000803e3d6000fd5b5050506000848152601060205260409020805460ff19166001179055505b6004600782015460ff16600581111561195c5761195c6131d0565b14156119a857858160060154146119a85760405162461bcd60e51b815260206004820152601060248201526f57726f6e67204576656e7420436f646560801b60448201526064016107e0565b80600301548160020160008282546119c09190613566565b9091555050600087815260116020908152604080832033808552925291829020805460ff191660011790556003830154915163a9059cbb60e01b815260048101919091526024810191909152309063a9059cbb906044016020604051808303816000875af1158015611a36573d6000803e3d6000fd5b505050506040513d601f19601f82011682018060405250810190611a5a919061352e565b50600287897fe71952c2fd3a7d8c18699fb382ded47b38d198d5ebb29e0f5c2ca644bb5f7eaa33348a42604051611a949493929190613642565b60405180910390a45050505050505050565b60408051808201909152600080825260208201526001600160a01b0383166000908152600960205260409020805463ffffffff8416908110611aea57611aea6135a8565b60009182526020918290206040805180820190915291015463ffffffff8116825264010000000090046001600160e01b0316918101919091529392505050565b611b32611f61565b6001600160a01b038116611b975760405162461bcd60e51b815260206004820152602660248201527f4f776e61626c653a206e6577206f776e657220697320746865207a65726f206160448201526564647265737360d01b60648201526084016107e0565b610ffd8161252b565b611baa8282611c2a565b6002546001600160e01b031015611c1c5760405162461bcd60e51b815260206004820152603060248201527f4552433230566f7465733a20746f74616c20737570706c79207269736b73206f60448201526f766572666c6f77696e6720766f74657360801b60648201526084016107e0565b610f3e600a611d21836126d9565b6001600160a01b038216611c805760405162461bcd60e51b815260206004820152601f60248201527f45524332303a206d696e7420746f20746865207a65726f20616464726573730060448201526064016107e0565b611c8c60008383612852565b8060026000828254611c9e9190613566565b90915550506001600160a01b03821660009081526020819052604081208054839290611ccb908490613566565b90915550506040518181526001600160a01b038316906000907fddf252ad1be2c89b69c2b068fc378daa952ba7f163c4a11628f55a4df523b3ef9060200160405180910390a3611d1d6000838361285a565b5050565b6000610fda8284613566565b60006001600160e01b03821115611d965760405162461bcd60e51b815260206004820152602760248201527f53616665436173743a2076616c756520646f65736e27742066697420696e20326044820152663234206269747360c81b60648201526084016107e0565b5090565b600063ffffffff821115611d965760405162461bcd60e51b815260206004820152602660248201527f53616665436173743a2076616c756520646f65736e27742066697420696e203360448201526532206269747360d01b60648201526084016107e0565b6001600160a01b03838116600090815260086020526040808220548584168352912054610f4092918216911683612865565b6000610fda82846135d9565b6001600160a01b038316611e9f5760405162461bcd60e51b8152602060048201526024808201527f45524332303a20617070726f76652066726f6d20746865207a65726f206164646044820152637265737360e01b60648201526084016107e0565b6001600160a01b038216611f005760405162461bcd60e51b815260206004820152602260248201527f45524332303a20617070726f766520746f20746865207a65726f206164647265604482015261737360f01b60648201526084016107e0565b6001600160a01b0383811660008181526001602090815260408083209487168084529482529182902085905590518481527f8c5be1e5ebec7d5bd14f71427d1e84f3dd0314c0f7b2291e5b200ac8c7c3b925910160405180910390a3505050565b6005546001600160a01b03610100909104163314610ff15760405162461bcd60e51b815260206004820181905260248201527f4f776e61626c653a2063616c6c6572206973206e6f7420746865206f776e657260448201526064016107e0565b6040516001600160f81b031960f883901b1660208201526001600160601b03193360601b1660218201524460358201524260558201526001607582015260009083906095016040516020818303038152906040528051906020012060001c610fda919061367a565b600061203584846116eb565b90506000198114610f3e57818110156120905760405162461bcd60e51b815260206004820152601d60248201527f45524332303a20696e73756666696369656e7420616c6c6f77616e636500000060448201526064016107e0565b610f3e8484848403611e3d565b6001600160a01b0383166121015760405162461bcd60e51b815260206004820152602560248201527f45524332303a207472616e736665722066726f6d20746865207a65726f206164604482015264647265737360d81b60648201526084016107e0565b6001600160a01b0382166121635760405162461bcd60e51b815260206004820152602360248201527f45524332303a207472616e7366657220746f20746865207a65726f206164647260448201526265737360e81b60648201526084016107e0565b61216e838383612852565b6001600160a01b038316600090815260208190526040902054818110156121e65760405162461bcd60e51b815260206004820152602660248201527f45524332303a207472616e7366657220616d6f756e7420657863656564732062604482015265616c616e636560d01b60648201526084016107e0565b6001600160a01b0380851660009081526020819052604080822085850390559185168152908120805484929061221d908490613566565b92505081905550826001600160a01b0316846001600160a01b03167fddf252ad1be2c89b69c2b068fc378daa952ba7f163c4a11628f55a4df523b3ef8460405161226991815260200190565b60405180910390a3610f3e84848461285a565b6000306001600160a01b037f0000000000000000000000000000000000000000000000000000000000000000161480156122d557507f000000000000000000000000000000000000000000000000000000000000000046145b156122ff57507f000000000000000000000000000000000000000000000000000000000000000090565b50604080517f00000000000000000000000000000000000000000000000000000000000000006020808301919091527f0000000000000000000000000000000000000000000000000000000000000000828401527f000000000000000000000000000000000000000000000000000000000000000060608301524660808301523060a0808401919091528351808403909101815260c0909201909252805191012090565b8154600090815b818110156124075760006123be82846129a2565b9050848682815481106123d3576123d36135a8565b60009182526020909120015463ffffffff1611156123f357809250612401565b6123fe816001613566565b91505b506123aa565b811561244b57846124196001846135d9565b81548110612429576124296135a8565b60009182526020909120015464010000000090046001600160e01b031661244e565b60005b6001600160e01b031695945050505050565b6124686129bd565b6005805460ff191690557f5db9ee0a495bf2e6ff9c91a7834c1ba4fdd244a5e8aa4e537bd38aeae4b073aa335b6040516001600160a01b03909116815260200160405180910390a1565b6001600160a01b038281166000818152600860208181526040808420805485845282862054949093528787166001600160a01b03198416811790915590519190951694919391928592917f3134e8a2e6d97e929a7e54011ea5485d7d196dd5f0ba4d4ef95803e8e3fc257f9190a4610f3e828483612865565b600580546001600160a01b03838116610100818102610100600160a81b031985161790945560405193909204169182907f8be0079c531659141344cd1fd0a4f28419497f9722a3daafe3b4186f6b6457e090600090a35050565b61258d61265e565b6005805460ff191660011790557f62e78cea01bee320cd4e420270b5ea74000d11b0c9f74754ebdbfc544b05a2586124953390565b60006110226125cf61227c565b8360405161190160f01b6020820152602281018390526042810182905260009060620160405160208183030381529060405280519060200120905092915050565b600080600061262187878787612a06565b9150915061262e81612af3565b5095945050505050565b6001600160a01b038116600090815260066020526040902080546001810182559061141c565b60055460ff1615610ff15760405162461bcd60e51b815260206004820152601060248201526f14185d5cd8589b194e881c185d5cd95960821b60448201526064016107e0565b60006008826040516020016126b9919061368e565b60408051601f198184030181529190528051602090910120901c92915050565b82546000908190801561272457856126f26001836135d9565b81548110612702576127026135a8565b60009182526020909120015464010000000090046001600160e01b0316612727565b60005b6001600160e01b0316925061274083858763ffffffff16565b915060008111801561277e5750438661275a6001846135d9565b8154811061276a5761276a6135a8565b60009182526020909120015463ffffffff16145b156127de5761278c82611d2d565b866127986001846135d9565b815481106127a8576127a86135a8565b9060005260206000200160000160046101000a8154816001600160e01b0302191690836001600160e01b03160217905550612849565b8560405180604001604052806127f343611d9a565b63ffffffff16815260200161280785611d2d565b6001600160e01b0390811690915282546001810184556000938452602093849020835194909301519091166401000000000263ffffffff909316929092179101555b50935093915050565b610f4061265e565b610f40838383611dff565b816001600160a01b0316836001600160a01b0316141580156128875750600081115b15610f40576001600160a01b03831615612915576001600160a01b038316600090815260096020526040812081906128c290611e31856126d9565b91509150846001600160a01b03167fdec2bacdd2f05b59de34da9b523dff8be42e5e38e818c82fdb0bae774387a724838360405161290a929190918252602082015260400190565b60405180910390a250505b6001600160a01b03821615610f40576001600160a01b0382166000908152600960205260408120819061294b90611d21856126d9565b91509150836001600160a01b03167fdec2bacdd2f05b59de34da9b523dff8be42e5e38e818c82fdb0bae774387a7248383604051612993929190918252602082015260400190565b60405180910390a25050505050565b60006129b16002848418613594565b610fda90848416613566565b60055460ff16610ff15760405162461bcd60e51b815260206004820152601460248201527314185d5cd8589b194e881b9bdd081c185d5cd95960621b60448201526064016107e0565b6000807f7fffffffffffffffffffffffffffffff5d576e7357a4501ddfe92f46681b20a0831115612a3d5750600090506003612aea565b8460ff16601b14158015612a5557508460ff16601c14155b15612a665750600090506004612aea565b6040805160008082526020820180845289905260ff881692820192909252606081018690526080810185905260019060a0016020604051602081039080840390855afa158015612aba573d6000803e3d6000fd5b5050604051601f1901519150506001600160a01b038116612ae357600060019250925050612aea565b9150600090505b94509492505050565b6000816004811115612b0757612b076131d0565b1415612b105750565b6001816004811115612b2457612b246131d0565b1415612b725760405162461bcd60e51b815260206004820152601860248201527f45434453413a20696e76616c6964207369676e6174757265000000000000000060448201526064016107e0565b6002816004811115612b8657612b866131d0565b1415612bd45760405162461bcd60e51b815260206004820152601f60248201527f45434453413a20696e76616c6964207369676e6174757265206c656e6774680060448201526064016107e0565b6003816004811115612be857612be86131d0565b1415612c415760405162461bcd60e51b815260206004820152602260248201527f45434453413a20696e76616c6964207369676e6174757265202773272076616c604482015261756560f01b60648201526084016107e0565b6004816004811115612c5557612c556131d0565b1415610ffd5760405162461bcd60e51b815260206004820152602260248201527f45434453413a20696e76616c6964207369676e6174757265202776272076616c604482015261756560f01b60648201526084016107e0565b828054828255906000526020600020908101928215612d03579160200282015b82811115612d0357825182546001600160a01b0319166001600160a01b03909116178255602090920191600190910190612cce565b50611d96929150612e3f565b828054612d1b906134f9565b90600052602060002090601f016020900481019282612d3d5760008555612d03565b82601f10612d5657805160ff1916838001178555612d03565b82800160010185558215612d03579182015b82811115612d03578251825591602001919060010190612d68565b5080546000825590600052602060002090810190610ffd9190612e3f565b508054612dad906134f9565b6000825580601f10612dbd575050565b601f016020900490600052602060002090810190610ffd9190612e3f565b6040518061014001604052806000815260200160008152602001600081526020016000815260200160008152602001600081526020016000815260200160006005811115612e2b57612e2b6131d0565b815260200160608152602001606081525090565b5b80821115611d965760008155600101612e40565b60005b83811015612e6f578181015183820152602001612e57565b83811115610f3e5750506000910152565b60008151808452612e98816020860160208601612e54565b601f01601f19169290920160200192915050565b602081526000610fda6020830184612e80565b80356001600160a01b0381168114612ed657600080fd5b919050565b60008060408385031215612eee57600080fd5b612ef783612ebf565b946020939093013593505050565b634e487b7160e01b600052604160045260246000fd5b604051601f8201601f1916810167ffffffffffffffff81118282101715612f4457612f44612f05565b604052919050565b600082601f830112612f5d57600080fd5b8135602067ffffffffffffffff821115612f7957612f79612f05565b8160051b612f88828201612f1b565b9283528481018201928281019087851115612fa257600080fd5b83870192505b84831015612fc857612fb983612ebf565b82529183019190830190612fa8565b979650505050505050565b600082601f830112612fe457600080fd5b813567ffffffffffffffff811115612ffe57612ffe612f05565b613011601f8201601f1916602001612f1b565b81815284602083860101111561302657600080fd5b816020850160208301376000918101602001919091529392505050565b600080600080600080600060e0888a03121561305e57600080fd5b87356006811061306d57600080fd5b96506020880135955060408801359450606088013567ffffffffffffffff8082111561309857600080fd5b6130a48b838c01612f4c565b955060808a01359150808211156130ba57600080fd5b506130c78a828b01612fd3565b93505060a0880135915060c0880135905092959891949750929550565b6000806000606084860312156130f957600080fd5b61310284612ebf565b925061311060208501612ebf565b9150604084013590509250925092565b60008060006060848603121561313557600080fd5b83359250602084013567ffffffffffffffff81111561315357600080fd5b61315f86828701612f4c565b925050604084013590509250925092565b60006020828403121561318257600080fd5b5035919050565b60006020828403121561319b57600080fd5b610fda82612ebf565b600080604083850312156131b757600080fd5b823591506131c760208401612ebf565b90509250929050565b634e487b7160e01b600052602160045260246000fd5b6006811061320457634e487b7160e01b600052602160045260246000fd5b9052565b600081518084526020808501945080840160005b838110156132415781516001600160a01b03168752958201959082019060010161321c565b509495945050505050565b60006020808301818452808551808352604092508286019150828160051b87010184880160005b8381101561332657888303603f1901855281518051845287810151888501528681015187850152606080820151908501526080808201519085015260a0808201519085015260c0808201519085015260e08082015161014091906132d9828801826131e6565b50506101008083015182828801526132f383880182613208565b9250505061012080830151925085820381870152506133128183612e80565b968901969450505090860190600101613273565b509098975050505050505050565b803560ff81168114612ed657600080fd5b60008060008060008060c0878903121561335e57600080fd5b61336787612ebf565b9550602087013594506040870135935061338360608801613334565b92506080870135915060a087013590509295509295509295565b600080600080600080600060e0888a0312156133b857600080fd5b6133c188612ebf565b96506133cf60208901612ebf565b955060408801359450606088013593506133eb60808901613334565b925060a0880135915060c0880135905092959891949750929550565b6000806040838503121561341a57600080fd5b61342383612ebf565b91506131c760208401612ebf565b60008060008060008060006101c080898b03121561344e57600080fd5b883597506020890135965060408901359550606089013567ffffffffffffffff81111561347a57600080fd5b6134868b828c01612fd3565b9550506080890135935060a0890135925089818a0111156134a657600080fd5b5060c08801905092959891949750929550565b600080604083850312156134cc57600080fd5b6134d583612ebf565b9150602083013563ffffffff811681146134ee57600080fd5b809150509250929050565b600181811c9082168061350d57607f821691505b6020821081141561141c57634e487b7160e01b600052602260045260246000fd5b60006020828403121561354057600080fd5b81518015158114610fda57600080fd5b634e487b7160e01b600052601160045260246000fd5b6000821982111561357957613579613550565b500190565b634e487b7160e01b600052601260045260246000fd5b6000826135a3576135a361357e565b500490565b634e487b7160e01b600052603260045260246000fd5b60006000198214156135d2576135d2613550565b5060010190565b6000828210156135eb576135eb613550565b500390565b634e487b7160e01b600052603160045260246000fd5b60006101a0820190508782528660208301528560408301528460608301528360808301526101008360a084013760008152979650505050505050565b60018060a01b03851681528360208201526080604082015260006136696080830185612e80565b905082606083015295945050505050565b6000826136895761368961357e565b500690565b600082516136a0818460208701612e54565b919091019291505056fea26469706673582212202bed129ef11a7abca5bb106deda15887fa2a874b8a491fc745c453bc743e6e5f64736f6c634300080c0033dec2bacdd2f05b59de34da9b523dff8be42e5e38e818c82fdb0bae774387a724",
  "linkReferences": {},
  "deployedLinkReferences": {}
}