{
  "_format": "hh-sol-artifact-1",
  "contractName": "FungibleToken",
  "sourceName": "src/backend/contracts/_FungibleToken.sol",
  "abi": [
    {
      "inputs": [
        {
          "internalType": "address",
          "name": "_mainContract",
          "type": "address"
        },
        {
          "internalType": "string",
          "name": "_name",
          "type": "string"
        },
        {
          "internalType": "string",
          "name": "_symbol",
          "type": "string"
        },
        {
          "internalType": "address",
          "name": "_owner",
          "type": "address"
        },
        {
          "internalType": "uint256",
          "name": "_supply",
          "type": "uint256"
        },
        {
          "internalType": "contract IWorldID",
          "name": "_worldId",
          "type": "address"
        }
      ],
      "stateMutability": "nonpayable",
      "type": "constructor"
    },
    {
      "inputs": [],
      "name": "InvalidNullifier",
      "type": "error"
    },
    {
      "anonymous": false,
      "inputs": [
        {
          "indexed": true,
          "internalType": "address",
          "name": "owner",
          "type": "address"
        },
        {
          "indexed": true,
          "internalType": "address",
          "name": "spender",
          "type": "address"
        },
        {
          "indexed": false,
          "internalType": "uint256",
          "name": "value",
          "type": "uint256"
        }
      ],
      "name": "Approval",
      "type": "event"
    },
    {
      "anonymous": false,
      "inputs": [
        {
          "indexed": true,
          "internalType": "address",
          "name": "previousOwner",
          "type": "address"
        },
        {
          "indexed": true,
          "internalType": "address",
          "name": "newOwner",
          "type": "address"
        }
      ],
      "name": "OwnershipTransferred",
      "type": "event"
    },
    {
      "anonymous": false,
      "inputs": [
        {
          "indexed": false,
          "internalType": "address",
          "name": "account",
          "type": "address"
        }
      ],
      "name": "Paused",
      "type": "event"
    },
    {
      "anonymous": false,
      "inputs": [
        {
          "indexed": true,
          "internalType": "address",
          "name": "from",
          "type": "address"
        },
        {
          "indexed": true,
          "internalType": "address",
          "name": "to",
          "type": "address"
        },
        {
          "indexed": false,
          "internalType": "uint256",
          "name": "value",
          "type": "uint256"
        }
      ],
      "name": "Transfer",
      "type": "event"
    },
    {
      "anonymous": false,
      "inputs": [
        {
          "indexed": false,
          "internalType": "address",
          "name": "account",
          "type": "address"
        }
      ],
      "name": "Unpaused",
      "type": "event"
    },
    {
      "inputs": [
        {
          "internalType": "address",
          "name": "owner",
          "type": "address"
        },
        {
          "internalType": "address",
          "name": "spender",
          "type": "address"
        }
      ],
      "name": "allowance",
      "outputs": [
        {
          "internalType": "uint256",
          "name": "",
          "type": "uint256"
        }
      ],
      "stateMutability": "view",
      "type": "function"
    },
    {
      "inputs": [
        {
          "internalType": "address",
          "name": "spender",
          "type": "address"
        },
        {
          "internalType": "uint256",
          "name": "amount",
          "type": "uint256"
        }
      ],
      "name": "approve",
      "outputs": [
        {
          "internalType": "bool",
          "name": "",
          "type": "bool"
        }
      ],
      "stateMutability": "nonpayable",
      "type": "function"
    },
    {
      "inputs": [
        {
          "internalType": "address",
          "name": "account",
          "type": "address"
        }
      ],
      "name": "balanceOf",
      "outputs": [
        {
          "internalType": "uint256",
          "name": "",
          "type": "uint256"
        }
      ],
      "stateMutability": "view",
      "type": "function"
    },
    {
      "inputs": [],
      "name": "campaignLastId",
      "outputs": [
        {
          "internalType": "uint256",
          "name": "",
          "type": "uint256"
        }
      ],
      "stateMutability": "view",
      "type": "function"
    },
    {
      "inputs": [
        {
          "internalType": "uint256",
          "name": "",
          "type": "uint256"
        }
      ],
      "name": "campaignsList",
      "outputs": [
        {
          "internalType": "uint256",
          "name": "",
          "type": "uint256"
        }
      ],
      "stateMutability": "view",
      "type": "function"
    },
    {
      "inputs": [
        {
          "internalType": "uint256",
          "name": "_campaignId",
          "type": "uint256"
        }
      ],
      "name": "cancelDistributionCampaign",
      "outputs": [],
      "stateMutability": "nonpayable",
      "type": "function"
    },
    {
      "inputs": [
        {
          "internalType": "uint256",
          "name": "_communityId",
          "type": "uint256"
        },
        {
          "internalType": "uint256",
          "name": "_campaignId",
          "type": "uint256"
        },
        {
          "internalType": "uint256",
          "name": "_eventCode",
          "type": "uint256"
        },
        {
          "internalType": "string",
          "name": "_email",
          "type": "string"
        },
        {
          "internalType": "uint256",
          "name": "root",
          "type": "uint256"
        },
        {
          "internalType": "uint256",
          "name": "nullifierHash",
          "type": "uint256"
        },
        {
          "internalType": "uint256[8]",
          "name": "proof",
          "type": "uint256[8]"
        }
      ],
      "name": "claimFromCampaign",
      "outputs": [],
      "stateMutability": "payable",
      "type": "function"
    },
    {
      "inputs": [
        {
          "internalType": "enum FungibleToken.DistributionType",
          "name": "_distType",
          "type": "uint8"
        },
        {
          "internalType": "uint256",
          "name": "_dateStart",
          "type": "uint256"
        },
        {
          "internalType": "uint256",
          "name": "_dateEnd",
          "type": "uint256"
        },
        {
          "internalType": "address[]",
          "name": "_whitelist",
          "type": "address[]"
        },
        {
          "internalType": "string",
          "name": "_worldcoinAction",
          "type": "string"
        },
        {
          "internalType": "uint256",
          "name": "_tokensTotal",
          "type": "uint256"
        },
        {
          "internalType": "uint256",
          "name": "_tokensPerUser",
          "type": "uint256"
        }
      ],
      "name": "createDistributionCampaign",
      "outputs": [],
      "stateMutability": "payable",
      "type": "function"
    },
    {
      "inputs": [],
      "name": "decimals",
      "outputs": [
        {
          "internalType": "uint8",
          "name": "",
          "type": "uint8"
        }
      ],
      "stateMutability": "view",
      "type": "function"
    },
    {
      "inputs": [
        {
          "internalType": "address",
          "name": "spender",
          "type": "address"
        },
        {
          "internalType": "uint256",
          "name": "subtractedValue",
          "type": "uint256"
        }
      ],
      "name": "decreaseAllowance",
      "outputs": [
        {
          "internalType": "bool",
          "name": "",
          "type": "bool"
        }
      ],
      "stateMutability": "nonpayable",
      "type": "function"
    },
    {
      "inputs": [],
      "name": "getCampaigns",
      "outputs": [
        {
          "components": [
            {
              "internalType": "uint256",
              "name": "id",
              "type": "uint256"
            },
            {
              "internalType": "uint256",
              "name": "tokensTotal",
              "type": "uint256"
            },
            {
              "internalType": "uint256",
              "name": "tokensMinted",
              "type": "uint256"
            },
            {
              "internalType": "uint256",
              "name": "tokensPerUser",
              "type": "uint256"
            },
            {
              "internalType": "uint256",
              "name": "dateStart",
              "type": "uint256"
            },
            {
              "internalType": "uint256",
              "name": "dateEnd",
              "type": "uint256"
            },
            {
              "internalType": "uint256",
              "name": "eventCode",
              "type": "uint256"
            },
            {
              "internalType": "enum FungibleToken.DistributionType",
              "name": "distType",
              "type": "uint8"
            },
            {
              "internalType": "address[]",
              "name": "whitelist",
              "type": "address[]"
            },
            {
              "internalType": "string",
              "name": "worldcoinAction",
              "type": "string"
            }
          ],
          "internalType": "struct FungibleToken.DistributionCampaign[]",
          "name": "",
          "type": "tuple[]"
        }
      ],
      "stateMutability": "view",
      "type": "function"
    },
    {
      "inputs": [
        {
          "internalType": "address",
          "name": "spender",
          "type": "address"
        },
        {
          "internalType": "uint256",
          "name": "addedValue",
          "type": "uint256"
        }
      ],
      "name": "increaseAllowance",
      "outputs": [
        {
          "internalType": "bool",
          "name": "",
          "type": "bool"
        }
      ],
      "stateMutability": "nonpayable",
      "type": "function"
    },
    {
      "inputs": [
        {
          "internalType": "uint256",
          "name": "",
          "type": "uint256"
        },
        {
          "internalType": "address",
          "name": "",
          "type": "address"
        }
      ],
      "name": "mintedList",
      "outputs": [
        {
          "internalType": "bool",
          "name": "",
          "type": "bool"
        }
      ],
      "stateMutability": "view",
      "type": "function"
    },
    {
      "inputs": [],
      "name": "name",
      "outputs": [
        {
          "internalType": "string",
          "name": "",
          "type": "string"
        }
      ],
      "stateMutability": "view",
      "type": "function"
    },
    {
      "inputs": [],
      "name": "owner",
      "outputs": [
        {
          "internalType": "address",
          "name": "",
          "type": "address"
        }
      ],
      "stateMutability": "view",
      "type": "function"
    },
    {
      "inputs": [],
      "name": "pause",
      "outputs": [],
      "stateMutability": "nonpayable",
      "type": "function"
    },
    {
      "inputs": [],
      "name": "paused",
      "outputs": [
        {
          "internalType": "bool",
          "name": "",
          "type": "bool"
        }
      ],
      "stateMutability": "view",
      "type": "function"
    },
    {
      "inputs": [],
      "name": "renounceOwnership",
      "outputs": [],
      "stateMutability": "nonpayable",
      "type": "function"
    },
    {
      "inputs": [],
      "name": "symbol",
      "outputs": [
        {
          "internalType": "string",
          "name": "",
          "type": "string"
        }
      ],
      "stateMutability": "view",
      "type": "function"
    },
    {
      "inputs": [],
      "name": "totalSupply",
      "outputs": [
        {
          "internalType": "uint256",
          "name": "",
          "type": "uint256"
        }
      ],
      "stateMutability": "view",
      "type": "function"
    },
    {
      "inputs": [
        {
          "internalType": "address",
          "name": "to",
          "type": "address"
        },
        {
          "internalType": "uint256",
          "name": "amount",
          "type": "uint256"
        }
      ],
      "name": "transfer",
      "outputs": [
        {
          "internalType": "bool",
          "name": "",
          "type": "bool"
        }
      ],
      "stateMutability": "nonpayable",
      "type": "function"
    },
    {
      "inputs": [
        {
          "internalType": "address",
          "name": "from",
          "type": "address"
        },
        {
          "internalType": "address",
          "name": "to",
          "type": "address"
        },
        {
          "internalType": "uint256",
          "name": "amount",
          "type": "uint256"
        }
      ],
      "name": "transferFrom",
      "outputs": [
        {
          "internalType": "bool",
          "name": "",
          "type": "bool"
        }
      ],
      "stateMutability": "nonpayable",
      "type": "function"
    },
    {
      "inputs": [
        {
          "internalType": "address",
          "name": "newOwner",
          "type": "address"
        }
      ],
      "name": "transferOwnership",
      "outputs": [],
      "stateMutability": "nonpayable",
      "type": "function"
    },
    {
      "inputs": [],
      "name": "unpause",
      "outputs": [],
      "stateMutability": "nonpayable",
      "type": "function"
    }
  ],
  "bytecode": "0x60a060405260016080523480156200001657600080fd5b50604051620027033803806200270383398101604081905262000039916200051d565b8451859085906200005290600390602085019062000394565b5080516200006890600490602084019062000394565b50506005805460ff19169055506200008033620000f1565b600680546001600160a01b0319166001600160a01b038816179055620000ba83620000b484670de0b6b3a7640000620005e7565b6200014b565b620000c58362000242565b600a80546001600160a01b0319166001600160a01b039290921691909117905550620006619350505050565b600580546001600160a01b03838116610100818102610100600160a81b031985161790945560405193909204169182907f8be0079c531659141344cd1fd0a4f28419497f9722a3daafe3b4186f6b6457e090600090a35050565b6001600160a01b038216620001a75760405162461bcd60e51b815260206004820152601f60248201527f45524332303a206d696e7420746f20746865207a65726f20616464726573730060448201526064015b60405180910390fd5b620001b560008383620002c1565b8060026000828254620001c9919062000609565b90915550506001600160a01b03821660009081526020819052604081208054839290620001f890849062000609565b90915550506040518181526001600160a01b038316906000907fddf252ad1be2c89b69c2b068fc378daa952ba7f163c4a11628f55a4df523b3ef9060200160405180910390a35050565b6200024c620002e8565b6001600160a01b038116620002b35760405162461bcd60e51b815260206004820152602660248201527f4f776e61626c653a206e6577206f776e657220697320746865207a65726f206160448201526564647265737360d01b60648201526084016200019e565b620002be81620000f1565b50565b620002cb6200034c565b620002e3838383620002e360201b62000ad81760201c565b505050565b6005546001600160a01b036101009091041633146200034a5760405162461bcd60e51b815260206004820181905260248201527f4f776e61626c653a2063616c6c6572206973206e6f7420746865206f776e657260448201526064016200019e565b565b60055460ff16156200034a5760405162461bcd60e51b815260206004820152601060248201526f14185d5cd8589b194e881c185d5cd95960821b60448201526064016200019e565b828054620003a29062000624565b90600052602060002090601f016020900481019282620003c6576000855562000411565b82601f10620003e157805160ff191683800117855562000411565b8280016001018555821562000411579182015b8281111562000411578251825591602001919060010190620003f4565b506200041f92915062000423565b5090565b5b808211156200041f576000815560010162000424565b6001600160a01b0381168114620002be57600080fd5b634e487b7160e01b600052604160045260246000fd5b600082601f8301126200047857600080fd5b81516001600160401b038082111562000495576200049562000450565b604051601f8301601f19908116603f01168101908282118183101715620004c057620004c062000450565b81604052838152602092508683858801011115620004dd57600080fd5b600091505b83821015620005015785820183015181830184015290820190620004e2565b83821115620005135760008385830101525b9695505050505050565b60008060008060008060c087890312156200053757600080fd5b865162000544816200043a565b60208801519096506001600160401b03808211156200056257600080fd5b620005708a838b0162000466565b965060408901519150808211156200058757600080fd5b506200059689828a0162000466565b9450506060870151620005a9816200043a565b608088015160a08901519194509250620005c3816200043a565b809150509295509295509295565b634e487b7160e01b600052601160045260246000fd5b6000816000190483118215151615620006045762000604620005d1565b500290565b600082198211156200061f576200061f620005d1565b500190565b600181811c908216806200063957607f821691505b602082108114156200065b57634e487b7160e01b600052602260045260246000fd5b50919050565b6080516120866200067d6000396000610fc301526120866000f3fe60806040526004361061014b5760003560e01c8063715018a6116100b6578063a6b036331161006f578063a6b03633146103a4578063a9059cbb146103c6578063c3d44506146103e6578063dd62ed3e14610406578063edfd1a7b14610426578063f2fde38b1461043957600080fd5b8063715018a6146102d45780638456cb59146102e957806385c9d321146102fe5780638da5cb5b1461033957806395d89b411461036f578063a457c2d71461038457600080fd5b8063381da48811610108578063381da4881461021b578063395093511461023b5780633f4ba83a1461025b5780635c975abb1461027057806369b0aafa1461028857806370a082311461029e57600080fd5b806306fdde0314610150578063095ea7b31461017b57806314005050146101ab57806318160ddd146101c057806323b872dd146101df578063313ce567146101ff575b600080fd5b34801561015c57600080fd5b50610165610459565b6040516101729190611a23565b60405180910390f35b34801561018757600080fd5b5061019b610196366004611a52565b6104eb565b6040519015158152602001610172565b6101be6101b9366004611b33565b610503565b005b3480156101cc57600080fd5b506002545b604051908152602001610172565b3480156101eb57600080fd5b5061019b6101fa366004611c41565b610775565b34801561020b57600080fd5b5060405160128152602001610172565b34801561022757600080fd5b506101be610236366004611c7d565b610799565b34801561024757600080fd5b5061019b610256366004611a52565b610add565b34801561026757600080fd5b506101be610aff565b34801561027c57600080fd5b5060055460ff1661019b565b34801561029457600080fd5b506101d160075481565b3480156102aa57600080fd5b506101d16102b9366004611c96565b6001600160a01b031660009081526020819052604090205490565b3480156102e057600080fd5b506101be610b11565b3480156102f557600080fd5b506101be610b23565b34801561030a57600080fd5b5061019b610319366004611cb1565b600c60209081526000928352604080842090915290825290205460ff1681565b34801561034557600080fd5b5060055461010090046001600160a01b03166040516001600160a01b039091168152602001610172565b34801561037b57600080fd5b50610165610b33565b34801561039057600080fd5b5061019b61039f366004611a52565b610b42565b3480156103b057600080fd5b506103b9610bbd565b6040516101729190611d59565b3480156103d257600080fd5b5061019b6103e1366004611a52565b610e0a565b3480156103f257600080fd5b506101d1610401366004611c7d565b610e18565b34801561041257600080fd5b506101d1610421366004611e41565b610e39565b6101be610434366004611e6b565b610e64565b34801561044557600080fd5b506101be610454366004611c96565b6111b3565b60606003805461046890611ef3565b80601f016020809104026020016040519081016040528092919081815260200182805461049490611ef3565b80156104e15780601f106104b6576101008083540402835291602001916104e1565b820191906000526020600020905b8154815290600101906020018083116104c457829003601f168201915b5050505050905090565b6000336104f981858561122c565b5060019392505050565b61050b611350565b848611156105605760405162461bcd60e51b815260206004820152601960248201527f57726f6e672063616d706169676e20646174652072616e67650000000000000060448201526064015b60405180910390fd5b6000600488600581111561057657610576611cdd565b141561058d5761058a620f423f60016113b0565b90505b6040516323b872dd60e01b8152336004820152306024820181905260448201859052906323b872dd906064016020604051808303816000875af11580156105d8573d6000803e3d6000fd5b505050506040513d601f19601f820116820180604052508101906105fc9190611f28565b506001600760008282546106109190611f60565b90915550506007546008805460018101825560009182527ff3f7a9fe364faab93b216da50a3214154f22a0a2b415b23a84c8169e8b636ee301829055604080516101408101825292835260208301869052820152606081018390526080810188905260a0810187905260c0810182905260e0810189600581111561069657610696611cdd565b815260200186815260200185815250600960006007548152602001908152602001600020600082015181600001556020820151816001015560408201518160020155606082015181600301556080820151816004015560a0820151816005015560c0820151816006015560e08201518160070160006101000a81548160ff0219169083600581111561072a5761072a611cdd565b0217905550610100820151805161074b916008840191602090910190611821565b506101208201518051610768916009840191602090910190611886565b5050505050505050505050565b60003361078385828561141f565b61078e858585611493565b506001949350505050565b6107a1611350565b600081815260096020908152604080832081516101408101835281548152600182015493810193909352600281015491830191909152600381015460608301526004810154608083015260058082015460a0840152600682015460c0840152600782015460e084019160ff9091169081111561081f5761081f611cdd565b600581111561083057610830611cdd565b81526020016008820180548060200260200160405190810160405280929190818152602001828054801561088d57602002820191906000526020600020905b81546001600160a01b0316815260019091019060200180831161086f575b505050505081526020016009820180546108a690611ef3565b80601f01602080910402602001604051908101604052809291908181526020018280546108d290611ef3565b801561091f5780601f106108f45761010080835404028352916020019161091f565b820191906000526020600020905b81548152906001019060200180831161090257829003601f168201915b50505050508152505090506000816040015182602001516109409190611f78565b905060005b600854811015610a0257836008828154811061096357610963611f8f565b906000526020600020015414156109f257600854600110156109ca576008805461098f90600190611f78565b8154811061099f5761099f611f8f565b9060005260206000200154600882815481106109bd576109bd611f8f565b6000918252602090912001555b60088054806109db576109db611fa5565b600190038181906000526020600020016000905590555b6109fb81611fbb565b9050610945565b50600083815260096020526040812081815560018101829055600281018290556003810182905560048101829055600581018290556006810182905560078101805460ff1916905590610a5860088301826118fa565b610a66600983016000611918565b50508015610ad85760405163a9059cbb60e01b815233600482015260248101829052309063a9059cbb906044016020604051808303816000875af1158015610ab2573d6000803e3d6000fd5b505050506040513d601f19601f82011682018060405250810190610ad69190611f28565b505b505050565b6000336104f9818585610af08383610e39565b610afa9190611f60565b61122c565b610b07611350565b610b0f61166c565b565b610b19611350565b610b0f60006116be565b610b2b611350565b610b0f611718565b60606004805461046890611ef3565b60003381610b508286610e39565b905083811015610bb05760405162461bcd60e51b815260206004820152602560248201527f45524332303a2064656372656173656420616c6c6f77616e63652062656c6f77604482015264207a65726f60d81b6064820152608401610557565b61078e828686840361122c565b60085460609060009067ffffffffffffffff811115610bde57610bde611a7c565b604051908082528060200260200182016040528015610c1757816020015b610c04611952565b815260200190600190039081610bfc5790505b50905060005b600854811015610e04576009600060088381548110610c3e57610c3e611f8f565b9060005260206000200154815260200190815260200160002060405180610140016040529081600082015481526020016001820154815260200160028201548152602001600382015481526020016004820154815260200160058201548152602001600682015481526020016007820160009054906101000a900460ff166005811115610ccd57610ccd611cdd565b6005811115610cde57610cde611cdd565b815260200160088201805480602002602001604051908101604052809291908181526020018280548015610d3b57602002820191906000526020600020905b81546001600160a01b03168152600190910190602001808311610d1d575b50505050508152602001600982018054610d5490611ef3565b80601f0160208091040260200160405190810160405280929190818152602001828054610d8090611ef3565b8015610dcd5780601f10610da257610100808354040283529160200191610dcd565b820191906000526020600020905b815481529060010190602001808311610db057829003601f168201915b505050505081525050828281518110610de857610de8611f8f565b602002602001018190525080610dfd90611fbb565b9050610c1d565b50919050565b6000336104f9818585611493565b60088181548110610e2857600080fd5b600091825260209091200154905081565b6001600160a01b03918216600090815260016020908152604080832093909416825291909152205490565b610e6c611755565b6000868152600960205260409020600181015460038201546002830154610e939190611f60565b1115610ee15760405162461bcd60e51b815260206004820152601a60248201527f4e6f7420656e6f75676820746f6b656e7320746f20636c61696d0000000000006044820152606401610557565b6000878152600c6020908152604080832033845290915290205460ff1615610f4b5760405162461bcd60e51b815260206004820152601860248201527f596f7520616c726561647920636c61696d20746f6b656e7300000000000000006044820152606401610557565b6000816009018054610f5c90611ef3565b9050111561108f576000838152600b602052604090205460ff1615610f9457604051632ec8265960e11b815260040160405180910390fd5b600a546040516001600160601b03193360601b1660208201526001600160a01b0390911690633bc778e39086907f000000000000000000000000000000000000000000000000000000000000000090610fff906034015b60405160208183030381529060405261179b565b6040516001600160601b03193060601b166020820152889061102390603401610feb565b886040518763ffffffff1660e01b815260040161104596959493929190611fd6565b60006040518083038186803b15801561105d57600080fd5b505afa158015611071573d6000803e3d6000fd5b5050506000848152600b60205260409020805460ff19166001179055505b6004600782015460ff1660058111156110aa576110aa611cdd565b14156110f657858160060154146110f65760405162461bcd60e51b815260206004820152601060248201526f57726f6e67204576656e7420436f646560801b6044820152606401610557565b806003015481600201600082825461110e9190611f60565b90915550506000878152600c6020908152604080832033808552925291829020805460ff191660011790556003830154915163a9059cbb60e01b815260048101919091526024810191909152309063a9059cbb906044016020604051808303816000875af1158015611184573d6000803e3d6000fd5b505050506040513d601f19601f820116820180604052508101906111a89190611f28565b505050505050505050565b6111bb611350565b6001600160a01b0381166112205760405162461bcd60e51b815260206004820152602660248201527f4f776e61626c653a206e6577206f776e657220697320746865207a65726f206160448201526564647265737360d01b6064820152608401610557565b611229816116be565b50565b6001600160a01b03831661128e5760405162461bcd60e51b8152602060048201526024808201527f45524332303a20617070726f76652066726f6d20746865207a65726f206164646044820152637265737360e01b6064820152608401610557565b6001600160a01b0382166112ef5760405162461bcd60e51b815260206004820152602260248201527f45524332303a20617070726f766520746f20746865207a65726f206164647265604482015261737360f01b6064820152608401610557565b6001600160a01b0383811660008181526001602090815260408083209487168084529482529182902085905590518481527f8c5be1e5ebec7d5bd14f71427d1e84f3dd0314c0f7b2291e5b200ac8c7c3b925910160405180910390a3505050565b6005546001600160a01b03610100909104163314610b0f5760405162461bcd60e51b815260206004820181905260248201527f4f776e61626c653a2063616c6c6572206973206e6f7420746865206f776e65726044820152606401610557565b6040516001600160f81b031960f883901b1660208201526001600160601b03193360601b1660218201524460358201524260558201526001607582015260009083906095016040516020818303038152906040528051906020012060001c6114189190612012565b9392505050565b600061142b8484610e39565b90506000198114610ad657818110156114865760405162461bcd60e51b815260206004820152601d60248201527f45524332303a20696e73756666696369656e7420616c6c6f77616e63650000006044820152606401610557565b610ad6848484840361122c565b6001600160a01b0383166114f75760405162461bcd60e51b815260206004820152602560248201527f45524332303a207472616e736665722066726f6d20746865207a65726f206164604482015264647265737360d81b6064820152608401610557565b6001600160a01b0382166115595760405162461bcd60e51b815260206004820152602360248201527f45524332303a207472616e7366657220746f20746865207a65726f206164647260448201526265737360e81b6064820152608401610557565b6115648383836117d0565b6001600160a01b038316600090815260208190526040902054818110156115dc5760405162461bcd60e51b815260206004820152602660248201527f45524332303a207472616e7366657220616d6f756e7420657863656564732062604482015265616c616e636560d01b6064820152608401610557565b6001600160a01b03808516600090815260208190526040808220858503905591851681529081208054849290611613908490611f60565b92505081905550826001600160a01b0316846001600160a01b03167fddf252ad1be2c89b69c2b068fc378daa952ba7f163c4a11628f55a4df523b3ef8460405161165f91815260200190565b60405180910390a3610ad6565b6116746117d8565b6005805460ff191690557f5db9ee0a495bf2e6ff9c91a7834c1ba4fdd244a5e8aa4e537bd38aeae4b073aa335b6040516001600160a01b03909116815260200160405180910390a1565b600580546001600160a01b03838116610100818102610100600160a81b031985161790945560405193909204169182907f8be0079c531659141344cd1fd0a4f28419497f9722a3daafe3b4186f6b6457e090600090a35050565b611720611755565b6005805460ff191660011790557f62e78cea01bee320cd4e420270b5ea74000d11b0c9f74754ebdbfc544b05a2586116a13390565b60055460ff1615610b0f5760405162461bcd60e51b815260206004820152601060248201526f14185d5cd8589b194e881c185d5cd95960821b6044820152606401610557565b60006008826040516020016117b09190612034565b60408051601f198184030181529190528051602090910120901c92915050565b610ad8611755565b60055460ff16610b0f5760405162461bcd60e51b815260206004820152601460248201527314185d5cd8589b194e881b9bdd081c185d5cd95960621b6044820152606401610557565b828054828255906000526020600020908101928215611876579160200282015b8281111561187657825182546001600160a01b0319166001600160a01b03909116178255602090920191600190910190611841565b506118829291506119b6565b5090565b82805461189290611ef3565b90600052602060002090601f0160209004810192826118b45760008555611876565b82601f106118cd57805160ff1916838001178555611876565b82800160010185558215611876579182015b828111156118765782518255916020019190600101906118df565b508054600082559060005260206000209081019061122991906119b6565b50805461192490611ef3565b6000825580601f10611934575050565b601f01602090049060005260206000209081019061122991906119b6565b60405180610140016040528060008152602001600081526020016000815260200160008152602001600081526020016000815260200160008152602001600060058111156119a2576119a2611cdd565b815260200160608152602001606081525090565b5b8082111561188257600081556001016119b7565b60005b838110156119e65781810151838201526020016119ce565b83811115610ad65750506000910152565b60008151808452611a0f8160208601602086016119cb565b601f01601f19169290920160200192915050565b60208152600061141860208301846119f7565b80356001600160a01b0381168114611a4d57600080fd5b919050565b60008060408385031215611a6557600080fd5b611a6e83611a36565b946020939093013593505050565b634e487b7160e01b600052604160045260246000fd5b604051601f8201601f1916810167ffffffffffffffff81118282101715611abb57611abb611a7c565b604052919050565b600082601f830112611ad457600080fd5b813567ffffffffffffffff811115611aee57611aee611a7c565b611b01601f8201601f1916602001611a92565b818152846020838601011115611b1657600080fd5b816020850160208301376000918101602001919091529392505050565b600080600080600080600060e0888a031215611b4e57600080fd5b873560068110611b5d57600080fd5b9650602088810135965060408901359550606089013567ffffffffffffffff80821115611b8957600080fd5b818b0191508b601f830112611b9d57600080fd5b813581811115611baf57611baf611a7c565b8060051b611bbe858201611a92565b918252838101850191858101908f841115611bd857600080fd5b948601945b83861015611bfd57611bee86611a36565b82529486019490860190611bdd565b995050505060808b0135925080831115611c1657600080fd5b5050611c248a828b01611ac3565b93505060a0880135915060c0880135905092959891949750929550565b600080600060608486031215611c5657600080fd5b611c5f84611a36565b9250611c6d60208501611a36565b9150604084013590509250925092565b600060208284031215611c8f57600080fd5b5035919050565b600060208284031215611ca857600080fd5b61141882611a36565b60008060408385031215611cc457600080fd5b82359150611cd460208401611a36565b90509250929050565b634e487b7160e01b600052602160045260246000fd5b60068110611d1157634e487b7160e01b600052602160045260246000fd5b9052565b600081518084526020808501945080840160005b83811015611d4e5781516001600160a01b031687529582019590820190600101611d29565b509495945050505050565b60006020808301818452808551808352604092508286019150828160051b87010184880160005b83811015611e3357888303603f1901855281518051845287810151888501528681015187850152606080820151908501526080808201519085015260a0808201519085015260c0808201519085015260e0808201516101409190611de682880182611cf3565b5050610100808301518282880152611e0083880182611d15565b925050506101208083015192508582038187015250611e1f81836119f7565b968901969450505090860190600101611d80565b509098975050505050505050565b60008060408385031215611e5457600080fd5b611e5d83611a36565b9150611cd460208401611a36565b60008060008060008060006101c080898b031215611e8857600080fd5b883597506020890135965060408901359550606089013567ffffffffffffffff811115611eb457600080fd5b611ec08b828c01611ac3565b9550506080890135935060a0890135925089818a011115611ee057600080fd5b5060c08801905092959891949750929550565b600181811c90821680611f0757607f821691505b60208210811415610e0457634e487b7160e01b600052602260045260246000fd5b600060208284031215611f3a57600080fd5b8151801515811461141857600080fd5b634e487b7160e01b600052601160045260246000fd5b60008219821115611f7357611f73611f4a565b500190565b600082821015611f8a57611f8a611f4a565b500390565b634e487b7160e01b600052603260045260246000fd5b634e487b7160e01b600052603160045260246000fd5b6000600019821415611fcf57611fcf611f4a565b5060010190565b60006101a0820190508782528660208301528560408301528460608301528360808301526101008360a084013760008152979650505050505050565b60008261202f57634e487b7160e01b600052601260045260246000fd5b500690565b600082516120468184602087016119cb565b919091019291505056fea2646970667358221220cd8f3933bfbd7ec6e7c58bd682753ffceefb5f4c2d96eb3763aa065d860fe38564736f6c634300080c0033",
  "linkReferences": {},
  "deployedLinkReferences": {}
}