{
  "_format": "hh-sol-artifact-1",
  "contractName": "Governance",
  "sourceName": "src/backend/contracts/_Governance.sol",
  "abi": [
    {
      "inputs": [
        {
          "internalType": "address",
          "name": "_mainContract",
          "type": "address"
        },
        {
          "internalType": "contract IVotes",
          "name": "_token",
          "type": "address"
        },
        {
          "internalType": "contract TimelockController",
          "name": "_timeLock",
          "type": "address"
        },
        {
          "internalType": "uint256",
          "name": "_quorum",
          "type": "uint256"
        },
        {
          "internalType": "uint256",
          "name": "_delay",
          "type": "uint256"
        },
        {
          "internalType": "uint256",
          "name": "_period",
          "type": "uint256"
        }
      ],
      "stateMutability": "nonpayable",
      "type": "constructor"
    },
    {
      "inputs": [],
      "name": "Empty",
      "type": "error"
    },
    {
      "anonymous": false,
      "inputs": [
        {
          "indexed": true,
          "internalType": "address",
          "name": "previousOwner",
          "type": "address"
        },
        {
          "indexed": true,
          "internalType": "address",
          "name": "newOwner",
          "type": "address"
        }
      ],
      "name": "OwnershipTransferred",
      "type": "event"
    },
    {
      "anonymous": false,
      "inputs": [
        {
          "indexed": false,
          "internalType": "uint256",
          "name": "proposalId",
          "type": "uint256"
        }
      ],
      "name": "ProposalCanceled",
      "type": "event"
    },
    {
      "anonymous": false,
      "inputs": [
        {
          "indexed": false,
          "internalType": "uint256",
          "name": "proposalId",
          "type": "uint256"
        },
        {
          "indexed": false,
          "internalType": "address",
          "name": "proposer",
          "type": "address"
        },
        {
          "indexed": false,
          "internalType": "address[]",
          "name": "targets",
          "type": "address[]"
        },
        {
          "indexed": false,
          "internalType": "uint256[]",
          "name": "values",
          "type": "uint256[]"
        },
        {
          "indexed": false,
          "internalType": "string[]",
          "name": "signatures",
          "type": "string[]"
        },
        {
          "indexed": false,
          "internalType": "bytes[]",
          "name": "calldatas",
          "type": "bytes[]"
        },
        {
          "indexed": false,
          "internalType": "uint256",
          "name": "startBlock",
          "type": "uint256"
        },
        {
          "indexed": false,
          "internalType": "uint256",
          "name": "endBlock",
          "type": "uint256"
        },
        {
          "indexed": false,
          "internalType": "string",
          "name": "description",
          "type": "string"
        }
      ],
      "name": "ProposalCreated",
      "type": "event"
    },
    {
      "anonymous": false,
      "inputs": [
        {
          "indexed": false,
          "internalType": "uint256",
          "name": "proposalId",
          "type": "uint256"
        }
      ],
      "name": "ProposalExecuted",
      "type": "event"
    },
    {
      "anonymous": false,
      "inputs": [
        {
          "indexed": false,
          "internalType": "uint256",
          "name": "proposalId",
          "type": "uint256"
        },
        {
          "indexed": false,
          "internalType": "uint256",
          "name": "eta",
          "type": "uint256"
        }
      ],
      "name": "ProposalQueued",
      "type": "event"
    },
    {
      "anonymous": false,
      "inputs": [
        {
          "indexed": false,
          "internalType": "uint256",
          "name": "oldProposalThreshold",
          "type": "uint256"
        },
        {
          "indexed": false,
          "internalType": "uint256",
          "name": "newProposalThreshold",
          "type": "uint256"
        }
      ],
      "name": "ProposalThresholdSet",
      "type": "event"
    },
    {
      "anonymous": false,
      "inputs": [
        {
          "indexed": false,
          "internalType": "uint256",
          "name": "oldQuorumNumerator",
          "type": "uint256"
        },
        {
          "indexed": false,
          "internalType": "uint256",
          "name": "newQuorumNumerator",
          "type": "uint256"
        }
      ],
      "name": "QuorumNumeratorUpdated",
      "type": "event"
    },
    {
      "anonymous": false,
      "inputs": [
        {
          "indexed": false,
          "internalType": "address",
          "name": "oldTimelock",
          "type": "address"
        },
        {
          "indexed": false,
          "internalType": "address",
          "name": "newTimelock",
          "type": "address"
        }
      ],
      "name": "TimelockChange",
      "type": "event"
    },
    {
      "anonymous": false,
      "inputs": [
        {
          "indexed": true,
          "internalType": "address",
          "name": "voter",
          "type": "address"
        },
        {
          "indexed": false,
          "internalType": "uint256",
          "name": "proposalId",
          "type": "uint256"
        },
        {
          "indexed": false,
          "internalType": "uint8",
          "name": "support",
          "type": "uint8"
        },
        {
          "indexed": false,
          "internalType": "uint256",
          "name": "weight",
          "type": "uint256"
        },
        {
          "indexed": false,
          "internalType": "string",
          "name": "reason",
          "type": "string"
        }
      ],
      "name": "VoteCast",
      "type": "event"
    },
    {
      "anonymous": false,
      "inputs": [
        {
          "indexed": true,
          "internalType": "address",
          "name": "voter",
          "type": "address"
        },
        {
          "indexed": false,
          "internalType": "uint256",
          "name": "proposalId",
          "type": "uint256"
        },
        {
          "indexed": false,
          "internalType": "uint8",
          "name": "support",
          "type": "uint8"
        },
        {
          "indexed": false,
          "internalType": "uint256",
          "name": "weight",
          "type": "uint256"
        },
        {
          "indexed": false,
          "internalType": "string",
          "name": "reason",
          "type": "string"
        },
        {
          "indexed": false,
          "internalType": "bytes",
          "name": "params",
          "type": "bytes"
        }
      ],
      "name": "VoteCastWithParams",
      "type": "event"
    },
    {
      "anonymous": false,
      "inputs": [
        {
          "indexed": false,
          "internalType": "uint256",
          "name": "oldVotingDelay",
          "type": "uint256"
        },
        {
          "indexed": false,
          "internalType": "uint256",
          "name": "newVotingDelay",
          "type": "uint256"
        }
      ],
      "name": "VotingDelaySet",
      "type": "event"
    },
    {
      "anonymous": false,
      "inputs": [
        {
          "indexed": false,
          "internalType": "uint256",
          "name": "oldVotingPeriod",
          "type": "uint256"
        },
        {
          "indexed": false,
          "internalType": "uint256",
          "name": "newVotingPeriod",
          "type": "uint256"
        }
      ],
      "name": "VotingPeriodSet",
      "type": "event"
    },
    {
      "inputs": [],
      "name": "BALLOT_TYPEHASH",
      "outputs": [
        {
          "internalType": "bytes32",
          "name": "",
          "type": "bytes32"
        }
      ],
      "stateMutability": "view",
      "type": "function"
    },
    {
      "inputs": [],
      "name": "COUNTING_MODE",
      "outputs": [
        {
          "internalType": "string",
          "name": "",
          "type": "string"
        }
      ],
      "stateMutability": "pure",
      "type": "function"
    },
    {
      "inputs": [],
      "name": "EXTENDED_BALLOT_TYPEHASH",
      "outputs": [
        {
          "internalType": "bytes32",
          "name": "",
          "type": "bytes32"
        }
      ],
      "stateMutability": "view",
      "type": "function"
    },
    {
      "inputs": [
        {
          "internalType": "uint256",
          "name": "proposalId",
          "type": "uint256"
        },
        {
          "internalType": "uint8",
          "name": "support",
          "type": "uint8"
        }
      ],
      "name": "castVote",
      "outputs": [
        {
          "internalType": "uint256",
          "name": "",
          "type": "uint256"
        }
      ],
      "stateMutability": "nonpayable",
      "type": "function"
    },
    {
      "inputs": [
        {
          "internalType": "uint256",
          "name": "proposalId",
          "type": "uint256"
        },
        {
          "internalType": "uint8",
          "name": "support",
          "type": "uint8"
        },
        {
          "internalType": "uint8",
          "name": "v",
          "type": "uint8"
        },
        {
          "internalType": "bytes32",
          "name": "r",
          "type": "bytes32"
        },
        {
          "internalType": "bytes32",
          "name": "s",
          "type": "bytes32"
        }
      ],
      "name": "castVoteBySig",
      "outputs": [
        {
          "internalType": "uint256",
          "name": "",
          "type": "uint256"
        }
      ],
      "stateMutability": "nonpayable",
      "type": "function"
    },
    {
      "inputs": [
        {
          "internalType": "uint256",
          "name": "proposalId",
          "type": "uint256"
        },
        {
          "internalType": "uint8",
          "name": "support",
          "type": "uint8"
        },
        {
          "internalType": "string",
          "name": "reason",
          "type": "string"
        }
      ],
      "name": "castVoteWithReason",
      "outputs": [
        {
          "internalType": "uint256",
          "name": "",
          "type": "uint256"
        }
      ],
      "stateMutability": "nonpayable",
      "type": "function"
    },
    {
      "inputs": [
        {
          "internalType": "uint256",
          "name": "proposalId",
          "type": "uint256"
        },
        {
          "internalType": "uint8",
          "name": "support",
          "type": "uint8"
        },
        {
          "internalType": "string",
          "name": "reason",
          "type": "string"
        },
        {
          "internalType": "bytes",
          "name": "params",
          "type": "bytes"
        }
      ],
      "name": "castVoteWithReasonAndParams",
      "outputs": [
        {
          "internalType": "uint256",
          "name": "",
          "type": "uint256"
        }
      ],
      "stateMutability": "nonpayable",
      "type": "function"
    },
    {
      "inputs": [
        {
          "internalType": "uint256",
          "name": "proposalId",
          "type": "uint256"
        },
        {
          "internalType": "uint8",
          "name": "support",
          "type": "uint8"
        },
        {
          "internalType": "string",
          "name": "reason",
          "type": "string"
        },
        {
          "internalType": "bytes",
          "name": "params",
          "type": "bytes"
        },
        {
          "internalType": "uint8",
          "name": "v",
          "type": "uint8"
        },
        {
          "internalType": "bytes32",
          "name": "r",
          "type": "bytes32"
        },
        {
          "internalType": "bytes32",
          "name": "s",
          "type": "bytes32"
        }
      ],
      "name": "castVoteWithReasonAndParamsBySig",
      "outputs": [
        {
          "internalType": "uint256",
          "name": "",
          "type": "uint256"
        }
      ],
      "stateMutability": "nonpayable",
      "type": "function"
    },
    {
      "inputs": [
        {
          "internalType": "address[]",
          "name": "targets",
          "type": "address[]"
        },
        {
          "internalType": "uint256[]",
          "name": "values",
          "type": "uint256[]"
        },
        {
          "internalType": "bytes[]",
          "name": "calldatas",
          "type": "bytes[]"
        },
        {
          "internalType": "bytes32",
          "name": "descriptionHash",
          "type": "bytes32"
        }
      ],
      "name": "execute",
      "outputs": [
        {
          "internalType": "uint256",
          "name": "",
          "type": "uint256"
        }
      ],
      "stateMutability": "payable",
      "type": "function"
    },
    {
      "inputs": [
        {
          "internalType": "address",
          "name": "account",
          "type": "address"
        },
        {
          "internalType": "uint256",
          "name": "blockNumber",
          "type": "uint256"
        }
      ],
      "name": "getVotes",
      "outputs": [
        {
          "internalType": "uint256",
          "name": "",
          "type": "uint256"
        }
      ],
      "stateMutability": "view",
      "type": "function"
    },
    {
      "inputs": [
        {
          "internalType": "address",
          "name": "account",
          "type": "address"
        },
        {
          "internalType": "uint256",
          "name": "blockNumber",
          "type": "uint256"
        },
        {
          "internalType": "bytes",
          "name": "params",
          "type": "bytes"
        }
      ],
      "name": "getVotesWithParams",
      "outputs": [
        {
          "internalType": "uint256",
          "name": "",
          "type": "uint256"
        }
      ],
      "stateMutability": "view",
      "type": "function"
    },
    {
      "inputs": [
        {
          "internalType": "uint256",
          "name": "proposalId",
          "type": "uint256"
        },
        {
          "internalType": "address",
          "name": "account",
          "type": "address"
        }
      ],
      "name": "hasVoted",
      "outputs": [
        {
          "internalType": "bool",
          "name": "",
          "type": "bool"
        }
      ],
      "stateMutability": "view",
      "type": "function"
    },
    {
      "inputs": [
        {
          "internalType": "address[]",
          "name": "targets",
          "type": "address[]"
        },
        {
          "internalType": "uint256[]",
          "name": "values",
          "type": "uint256[]"
        },
        {
          "internalType": "bytes[]",
          "name": "calldatas",
          "type": "bytes[]"
        },
        {
          "internalType": "bytes32",
          "name": "descriptionHash",
          "type": "bytes32"
        }
      ],
      "name": "hashProposal",
      "outputs": [
        {
          "internalType": "uint256",
          "name": "",
          "type": "uint256"
        }
      ],
      "stateMutability": "pure",
      "type": "function"
    },
    {
      "inputs": [],
      "name": "name",
      "outputs": [
        {
          "internalType": "string",
          "name": "",
          "type": "string"
        }
      ],
      "stateMutability": "view",
      "type": "function"
    },
    {
      "inputs": [
        {
          "internalType": "address",
          "name": "",
          "type": "address"
        },
        {
          "internalType": "address",
          "name": "",
          "type": "address"
        },
        {
          "internalType": "uint256[]",
          "name": "",
          "type": "uint256[]"
        },
        {
          "internalType": "uint256[]",
          "name": "",
          "type": "uint256[]"
        },
        {
          "internalType": "bytes",
          "name": "",
          "type": "bytes"
        }
      ],
      "name": "onERC1155BatchReceived",
      "outputs": [
        {
          "internalType": "bytes4",
          "name": "",
          "type": "bytes4"
        }
      ],
      "stateMutability": "nonpayable",
      "type": "function"
    },
    {
      "inputs": [
        {
          "internalType": "address",
          "name": "",
          "type": "address"
        },
        {
          "internalType": "address",
          "name": "",
          "type": "address"
        },
        {
          "internalType": "uint256",
          "name": "",
          "type": "uint256"
        },
        {
          "internalType": "uint256",
          "name": "",
          "type": "uint256"
        },
        {
          "internalType": "bytes",
          "name": "",
          "type": "bytes"
        }
      ],
      "name": "onERC1155Received",
      "outputs": [
        {
          "internalType": "bytes4",
          "name": "",
          "type": "bytes4"
        }
      ],
      "stateMutability": "nonpayable",
      "type": "function"
    },
    {
      "inputs": [
        {
          "internalType": "address",
          "name": "",
          "type": "address"
        },
        {
          "internalType": "address",
          "name": "",
          "type": "address"
        },
        {
          "internalType": "uint256",
          "name": "",
          "type": "uint256"
        },
        {
          "internalType": "bytes",
          "name": "",
          "type": "bytes"
        }
      ],
      "name": "onERC721Received",
      "outputs": [
        {
          "internalType": "bytes4",
          "name": "",
          "type": "bytes4"
        }
      ],
      "stateMutability": "nonpayable",
      "type": "function"
    },
    {
      "inputs": [],
      "name": "owner",
      "outputs": [
        {
          "internalType": "address",
          "name": "",
          "type": "address"
        }
      ],
      "stateMutability": "view",
      "type": "function"
    },
    {
      "inputs": [
        {
          "internalType": "uint256",
          "name": "proposalId",
          "type": "uint256"
        }
      ],
      "name": "proposalDeadline",
      "outputs": [
        {
          "internalType": "uint256",
          "name": "",
          "type": "uint256"
        }
      ],
      "stateMutability": "view",
      "type": "function"
    },
    {
      "inputs": [
        {
          "internalType": "uint256",
          "name": "proposalId",
          "type": "uint256"
        }
      ],
      "name": "proposalEta",
      "outputs": [
        {
          "internalType": "uint256",
          "name": "",
          "type": "uint256"
        }
      ],
      "stateMutability": "view",
      "type": "function"
    },
    {
      "inputs": [
        {
          "internalType": "uint256",
          "name": "proposalId",
          "type": "uint256"
        }
      ],
      "name": "proposalSnapshot",
      "outputs": [
        {
          "internalType": "uint256",
          "name": "",
          "type": "uint256"
        }
      ],
      "stateMutability": "view",
      "type": "function"
    },
    {
      "inputs": [],
      "name": "proposalThreshold",
      "outputs": [
        {
          "internalType": "uint256",
          "name": "",
          "type": "uint256"
        }
      ],
      "stateMutability": "view",
      "type": "function"
    },
    {
      "inputs": [
        {
          "internalType": "uint256",
          "name": "proposalId",
          "type": "uint256"
        }
      ],
      "name": "proposalVotes",
      "outputs": [
        {
          "internalType": "uint256",
          "name": "againstVotes",
          "type": "uint256"
        },
        {
          "internalType": "uint256",
          "name": "forVotes",
          "type": "uint256"
        },
        {
          "internalType": "uint256",
          "name": "abstainVotes",
          "type": "uint256"
        }
      ],
      "stateMutability": "view",
      "type": "function"
    },
    {
      "inputs": [
        {
          "internalType": "address[]",
          "name": "targets",
          "type": "address[]"
        },
        {
          "internalType": "uint256[]",
          "name": "values",
          "type": "uint256[]"
        },
        {
          "internalType": "bytes[]",
          "name": "calldatas",
          "type": "bytes[]"
        },
        {
          "internalType": "string",
          "name": "description",
          "type": "string"
        }
      ],
      "name": "propose",
      "outputs": [
        {
          "internalType": "uint256",
          "name": "",
          "type": "uint256"
        }
      ],
      "stateMutability": "nonpayable",
      "type": "function"
    },
    {
      "inputs": [
        {
          "internalType": "address[]",
          "name": "targets",
          "type": "address[]"
        },
        {
          "internalType": "uint256[]",
          "name": "values",
          "type": "uint256[]"
        },
        {
          "internalType": "bytes[]",
          "name": "calldatas",
          "type": "bytes[]"
        },
        {
          "internalType": "bytes32",
          "name": "descriptionHash",
          "type": "bytes32"
        }
      ],
      "name": "queue",
      "outputs": [
        {
          "internalType": "uint256",
          "name": "",
          "type": "uint256"
        }
      ],
      "stateMutability": "nonpayable",
      "type": "function"
    },
    {
      "inputs": [
        {
          "internalType": "uint256",
          "name": "blockNumber",
          "type": "uint256"
        }
      ],
      "name": "quorum",
      "outputs": [
        {
          "internalType": "uint256",
          "name": "",
          "type": "uint256"
        }
      ],
      "stateMutability": "view",
      "type": "function"
    },
    {
      "inputs": [],
      "name": "quorumDenominator",
      "outputs": [
        {
          "internalType": "uint256",
          "name": "",
          "type": "uint256"
        }
      ],
      "stateMutability": "view",
      "type": "function"
    },
    {
      "inputs": [
        {
          "internalType": "uint256",
          "name": "blockNumber",
          "type": "uint256"
        }
      ],
      "name": "quorumNumerator",
      "outputs": [
        {
          "internalType": "uint256",
          "name": "",
          "type": "uint256"
        }
      ],
      "stateMutability": "view",
      "type": "function"
    },
    {
      "inputs": [],
      "name": "quorumNumerator",
      "outputs": [
        {
          "internalType": "uint256",
          "name": "",
          "type": "uint256"
        }
      ],
      "stateMutability": "view",
      "type": "function"
    },
    {
      "inputs": [
        {
          "internalType": "address",
          "name": "target",
          "type": "address"
        },
        {
          "internalType": "uint256",
          "name": "value",
          "type": "uint256"
        },
        {
          "internalType": "bytes",
          "name": "data",
          "type": "bytes"
        }
      ],
      "name": "relay",
      "outputs": [],
      "stateMutability": "nonpayable",
      "type": "function"
    },
    {
      "inputs": [],
      "name": "renounceOwnership",
      "outputs": [],
      "stateMutability": "nonpayable",
      "type": "function"
    },
    {
      "inputs": [
        {
          "internalType": "uint256",
          "name": "newProposalThreshold",
          "type": "uint256"
        }
      ],
      "name": "setProposalThreshold",
      "outputs": [],
      "stateMutability": "nonpayable",
      "type": "function"
    },
    {
      "inputs": [
        {
          "internalType": "uint256",
          "name": "newVotingDelay",
          "type": "uint256"
        }
      ],
      "name": "setVotingDelay",
      "outputs": [],
      "stateMutability": "nonpayable",
      "type": "function"
    },
    {
      "inputs": [
        {
          "internalType": "uint256",
          "name": "newVotingPeriod",
          "type": "uint256"
        }
      ],
      "name": "setVotingPeriod",
      "outputs": [],
      "stateMutability": "nonpayable",
      "type": "function"
    },
    {
      "inputs": [
        {
          "internalType": "uint256",
          "name": "proposalId",
          "type": "uint256"
        }
      ],
      "name": "state",
      "outputs": [
        {
          "internalType": "enum IGovernor.ProposalState",
          "name": "",
          "type": "uint8"
        }
      ],
      "stateMutability": "view",
      "type": "function"
    },
    {
      "inputs": [
        {
          "internalType": "bytes4",
          "name": "interfaceId",
          "type": "bytes4"
        }
      ],
      "name": "supportsInterface",
      "outputs": [
        {
          "internalType": "bool",
          "name": "",
          "type": "bool"
        }
      ],
      "stateMutability": "view",
      "type": "function"
    },
    {
      "inputs": [],
      "name": "timelock",
      "outputs": [
        {
          "internalType": "address",
          "name": "",
          "type": "address"
        }
      ],
      "stateMutability": "view",
      "type": "function"
    },
    {
      "inputs": [],
      "name": "token",
      "outputs": [
        {
          "internalType": "contract IVotes",
          "name": "",
          "type": "address"
        }
      ],
      "stateMutability": "view",
      "type": "function"
    },
    {
      "inputs": [
        {
          "internalType": "address",
          "name": "newOwner",
          "type": "address"
        }
      ],
      "name": "transferOwnership",
      "outputs": [],
      "stateMutability": "nonpayable",
      "type": "function"
    },
    {
      "inputs": [
        {
          "internalType": "uint256",
          "name": "newQuorumNumerator",
          "type": "uint256"
        }
      ],
      "name": "updateQuorumNumerator",
      "outputs": [],
      "stateMutability": "nonpayable",
      "type": "function"
    },
    {
      "inputs": [
        {
          "internalType": "contract TimelockController",
          "name": "newTimelock",
          "type": "address"
        }
      ],
      "name": "updateTimelock",
      "outputs": [],
      "stateMutability": "nonpayable",
      "type": "function"
    },
    {
      "inputs": [],
      "name": "version",
      "outputs": [
        {
          "internalType": "string",
          "name": "",
          "type": "string"
        }
      ],
      "stateMutability": "view",
      "type": "function"
    },
    {
      "inputs": [],
      "name": "votingDelay",
      "outputs": [
        {
          "internalType": "uint256",
          "name": "",
          "type": "uint256"
        }
      ],
      "stateMutability": "view",
      "type": "function"
    },
    {
      "inputs": [],
      "name": "votingPeriod",
      "outputs": [
        {
          "internalType": "uint256",
          "name": "",
          "type": "uint256"
        }
      ],
      "stateMutability": "view",
      "type": "function"
    },
    {
      "stateMutability": "payable",
      "type": "receive"
    }
  ],
  "bytecode": "0x6101606040523480156200001257600080fd5b50604051620047b5380380620047b583398101604081905262000035916200088a565b838386848460006040518060400160405280600a815260200169476f7665726e616e636560b01b81525080620000706200019a60201b60201c565b815160208084019190912082518383012060e08290526101008190524660a0818152604080517f8b73c3c69bb8fe3d512ecc4cf759cc79239f7b179b0ffacaa9a75d522b39400f81880181905281830187905260608201869052608082019490945230818401528151808203909301835260c00190528051940193909320919290916080523060c0526101205250508251620001169250600091506020840190620007d5565b5062000124905083620001b5565b6200012f82620001f6565b6200013a816200029d565b5050506001600160a01b0316610140526200015581620002de565b50620001618162000456565b506200016d33620004bf565b5050600d80546001600160a01b0319166001600160a01b0395909516949094179093555062000973915050565b6040805180820190915260018152603160f81b602082015290565b60045460408051918252602082018390527fc565b045403dc03c2eea82b81a0465edad9e2e7fc4d97e11421c209da93d7a93910160405180910390a1600455565b600081116200025c5760405162461bcd60e51b815260206004820152602760248201527f476f7665726e6f7253657474696e67733a20766f74696e6720706572696f6420604482015266746f6f206c6f7760c81b60648201526084015b60405180910390fd5b60055460408051918252602082018390527f7e3f7f0708a84de9203036abaa450dccc85ad5ff52f78c170f3edb55cf5e8828910160405180910390a1600555565b60065460408051918252602082018390527fccb45da8d5717e6c4544694297c4ba5cf151d455c9bb0ed4fc7a38411bc05461910160405180910390a1600655565b6064811115620003635760405162461bcd60e51b815260206004820152604360248201527f476f7665726e6f72566f74657351756f72756d4672616374696f6e3a2071756f60448201527f72756d4e756d657261746f72206f7665722071756f72756d44656e6f6d696e616064820152623a37b960e91b608482015260a40162000253565b60006200036f62000511565b90508015801590620003815750600954155b15620003fc5760096000016040518060400160405280600063ffffffff168152602001620003ba846200054060201b620015781760201c565b6001600160e01b0390811690915282546001810184556000938452602093849020835194909301519091166401000000000263ffffffff909316929092179101555b62000417826009620005af60201b620015e51790919060201c565b505060408051828152602081018490527f0553476bf02ef2726e8ce5ced78d63e26e602e4a2257b1f559418e24b4633997910160405180910390a15050565b600a54604080516001600160a01b03928316815291831660208301527f08f74ea46ef7894f65eabfb5e6e695de773a000b47c529ab559178069b226401910160405180910390a1600a80546001600160a01b0319166001600160a01b0392909216919091179055565b600c80546001600160a01b038381166001600160a01b0319831681179093556040519116919082907f8be0079c531659141344cd1fd0a4f28419497f9722a3daafe3b4186f6b6457e090600090a35050565b6009546000901562000539576200053460096200070b60201b620017101760201c565b905090565b5060085490565b60006001600160e01b03821115620005ab5760405162461bcd60e51b815260206004820152602760248201527f53616665436173743a2076616c756520646f65736e27742066697420696e20326044820152663234206269747360c81b606482015260840162000253565b5090565b8154600090819081620005c2866200070b565b90506000821180156200060657504386620005df600185620008fa565b81548110620005f257620005f262000920565b60009182526020909120015463ffffffff16145b156200067a5762000622856200054060201b620015781760201c565b8662000630600185620008fa565b8154811062000643576200064362000920565b9060005260206000200160000160046101000a8154816001600160e01b0302191690836001600160e01b0316021790555062000702565b8560000160405180604001604052806200069f436200076e60201b6200176c1760201c565b63ffffffff168152602001620006c0886200054060201b620015781760201c565b6001600160e01b0390811690915282546001810184556000938452602093849020835194909301519091166401000000000263ffffffff909316929092179101555b95939450505050565b805460009080156200075b578262000725600183620008fa565b8154811062000738576200073862000920565b60009182526020909120015464010000000090046001600160e01b03166200075e565b60005b6001600160e01b03169392505050565b600063ffffffff821115620005ab5760405162461bcd60e51b815260206004820152602660248201527f53616665436173743a2076616c756520646f65736e27742066697420696e203360448201526532206269747360d01b606482015260840162000253565b828054620007e39062000936565b90600052602060002090601f01602090048101928262000807576000855562000852565b82601f106200082257805160ff191683800117855562000852565b8280016001018555821562000852579182015b828111156200085257825182559160200191906001019062000835565b50620005ab9291505b80821115620005ab57600081556001016200085b565b6001600160a01b03811681146200088757600080fd5b50565b60008060008060008060c08789031215620008a457600080fd5b8651620008b18162000871565b6020880151909650620008c48162000871565b6040880151909550620008d78162000871565b80945050606087015192506080870151915060a087015190509295509295509295565b6000828210156200091b57634e487b7160e01b600052601160045260246000fd5b500390565b634e487b7160e01b600052603260045260246000fd5b600181811c908216806200094b57607f821691505b602082108114156200096d57634e487b7160e01b600052602260045260246000fd5b50919050565b60805160a05160c05160e051610100516101205161014051613dd9620009dc600039600081816108ea015281816122cd01526124ce0152600061264a0152600061269901526000612674015260006125cd015260006125f7015260006126210152613dd96000f3fe60806040526004361061026b5760003560e01c80637d5e81e211610144578063c59057e4116100b6578063eb9019d41161007a578063eb9019d41461082c578063ece40cc11461084c578063f23a6e611461086c578063f2fde38b14610898578063f8ce560a146108b8578063fc0c546a146108d857600080fd5b8063c59057e414610754578063d33219b414610774578063dd4e2ba514610792578063deaaa7cc146107d8578063ea0217cf1461080c57600080fd5b8063a890c91011610108578063a890c91014610693578063ab58fb8e146106b3578063b58131b0146106d3578063bc197c81146106e8578063c01f9e3714610714578063c28bc2fa1461073457600080fd5b80637d5e81e2146105f85780638da5cb5b1461061857806397c3d3341461064a5780639a802a6d1461065e578063a7713a701461067e57600080fd5b80633bccf4fd116101dd57806356781388116101a157806356781388146105435780635f398a141461056357806360c4247f1461058357806370b0f660146105a3578063715018a6146105c35780637b3c71d3146105d857600080fd5b80633bccf4fd1461042d5780633e4f49e61461044d578063438596321461047a578063544ffc9c146104c457806354fd4d501461051957600080fd5b8063150b7a021161022f578063150b7a021461034d578063160cbed7146103915780632656227d146103b15780632d63f693146103c45780632fe3e261146103e45780633932abb11461041857600080fd5b806301ffc9a71461029357806302a251a3146102c857806303420181146102eb57806306f3f9e61461030b57806306fdde031461032b57600080fd5b3661028e573061027961090c565b6001600160a01b03161461028c57600080fd5b005b600080fd5b34801561029f57600080fd5b506102b36102ae366004612ee3565b610925565b60405190151581526020015b60405180910390f35b3480156102d457600080fd5b506102dd610936565b6040519081526020016102bf565b3480156102f757600080fd5b506102dd610306366004613021565b610941565b34801561031757600080fd5b5061028c6103263660046130c7565b610a39565b34801561033757600080fd5b50610340610ad1565b6040516102bf919061313c565b34801561035957600080fd5b50610378610368366004613164565b630a85bd0160e11b949350505050565b6040516001600160e01b031990911681526020016102bf565b34801561039d57600080fd5b506102dd6103ac366004613340565b610b63565b6102dd6103bf366004613340565b610d63565b3480156103d057600080fd5b506102dd6103df3660046130c7565b610e50565b3480156103f057600080fd5b506102dd7fb3b3f3b703cd84ce352197dcff232b1b5d3cfb2025ce47cf04742d0651f1af8881565b34801561042457600080fd5b506102dd610e87565b34801561043957600080fd5b506102dd6104483660046133cf565b610e92565b34801561045957600080fd5b5061046d6104683660046130c7565b610f08565b6040516102bf9190613433565b34801561048657600080fd5b506102b361049536600461345b565b60008281526007602090815260408083206001600160a01b038516845260030190915290205460ff1692915050565b3480156104d057600080fd5b506104fe6104df3660046130c7565b6000908152600760205260409020805460018201546002909201549092565b604080519384526020840192909252908201526060016102bf565b34801561052557600080fd5b506040805180820190915260018152603160f81b6020820152610340565b34801561054f57600080fd5b506102dd61055e36600461348b565b610f13565b34801561056f57600080fd5b506102dd61057e3660046134b7565b610f3c565b34801561058f57600080fd5b506102dd61059e3660046130c7565b610f86565b3480156105af57600080fd5b5061028c6105be3660046130c7565b61101c565b3480156105cf57600080fd5b5061028c6110a8565b3480156105e457600080fd5b506102dd6105f336600461353a565b6110bc565b34801561060457600080fd5b506102dd610613366004613593565b61110e565b34801561062457600080fd5b50600c546001600160a01b03165b6040516001600160a01b0390911681526020016102bf565b34801561065657600080fd5b5060646102dd565b34801561066a57600080fd5b506102dd610679366004613647565b611125565b34801561068a57600080fd5b506102dd61113c565b34801561069f57600080fd5b5061028c6106ae36600461369f565b611158565b3480156106bf57600080fd5b506102dd6106ce3660046130c7565b6111e4565b3480156106df57600080fd5b506102dd61127e565b3480156106f457600080fd5b506103786107033660046136bc565b63bc197c8160e01b95945050505050565b34801561072057600080fd5b506102dd61072f3660046130c7565b611289565b34801561074057600080fd5b5061028c61074f36600461374f565b6112b8565b34801561076057600080fd5b506102dd61076f366004613340565b611384565b34801561078057600080fd5b50600a546001600160a01b0316610632565b34801561079e57600080fd5b506040805180820190915260208082527f737570706f72743d627261766f2671756f72756d3d666f722c6162737461696e90820152610340565b3480156107e457600080fd5b506102dd7f150214d74d59b7d1e90c73fc22ef3d991dd0a76b046543d4d80ab92d2a50328f81565b34801561081857600080fd5b5061028c6108273660046130c7565b6113be565b34801561083857600080fd5b506102dd610847366004613792565b61144a565b34801561085857600080fd5b5061028c6108673660046130c7565b61146b565b34801561087857600080fd5b506103786108873660046137be565b63f23a6e6160e01b95945050505050565b3480156108a457600080fd5b5061028c6108b336600461369f565b6114f7565b3480156108c457600080fd5b506102dd6108d33660046130c7565b61156d565b3480156108e457600080fd5b506106327f000000000000000000000000000000000000000000000000000000000000000081565b6000610920600a546001600160a01b031690565b905090565b6000610930826117d1565b92915050565b600061092060055490565b6000806109e56109dd7fb3b3f3b703cd84ce352197dcff232b1b5d3cfb2025ce47cf04742d0651f1af888c8c8c8c60405161097d929190613826565b60405180910390208b805190602001206040516020016109c2959493929190948552602085019390935260ff9190911660408401526060830152608082015260a00190565b604051602081830303815290604052805190602001206117f6565b868686611844565b9050610a2b8a828b8b8b8080601f0160208091040260200160405190810160405280939291908181526020018383808284376000920191909152508d9250611862915050565b9a9950505050505050505050565b610a4161090c565b6001600160a01b0316336001600160a01b031614610a7a5760405162461bcd60e51b8152600401610a7190613836565b60405180910390fd5b30610a8361090c565b6001600160a01b031614610ac55760008036604051610aa3929190613826565b604051809103902090505b80610ab960026119c4565b14610ac357610aae565b505b610ace81611a43565b50565b606060008054610ae09061386d565b80601f0160208091040260200160405190810160405280929190818152602001828054610b0c9061386d565b8015610b595780601f10610b2e57610100808354040283529160200191610b59565b820191906000526020600020905b815481529060010190602001808311610b3c57829003601f168201915b5050505050905090565b600080610b7286868686611384565b90506004610b7f82610f08565b6007811115610b9057610b9061341d565b14610bad5760405162461bcd60e51b8152600401610a71906138a8565b600a546040805163793d064960e11b815290516000926001600160a01b03169163f27a0c929160048083019260209291908290030181865afa158015610bf7573d6000803e3d6000fd5b505050506040513d601f19601f82011682018060405250810190610c1b91906138e9565b600a5460405163b1c5f42760e01b81529192506001600160a01b03169063b1c5f42790610c55908a908a908a906000908b906004016139cb565b602060405180830381865afa158015610c72573d6000803e3d6000fd5b505050506040513d601f19601f82011682018060405250810190610c9691906138e9565b6000838152600b602052604080822092909255600a5491516308f2a0bb60e41b81526001600160a01b0390921691638f2a0bb091610ce1918b918b918b91908b908990600401613a19565b600060405180830381600087803b158015610cfb57600080fd5b505af1158015610d0f573d6000803e3d6000fd5b505050507f9a2e42fd6722813d69113e7d0079d3d940171428df7373df9c7f7617cfda2892828242610d419190613a87565b6040805192835260208301919091520160405180910390a15095945050505050565b600080610d7286868686611384565b90506000610d7f82610f08565b90506004816007811115610d9557610d9561341d565b1480610db257506005816007811115610db057610db061341d565b145b610dce5760405162461bcd60e51b8152600401610a71906138a8565b600082815260016020818152604092839020600201805460ff191690921790915590518381527f712ae1383f79ac853f8d882153778e0260ef8f03b504e2866e0593e04d2b291f910160405180910390a1610e2c8288888888611b90565b610e398288888888611c32565b610e468288888888611c3f565b5095945050505050565b60008181526001602090815260408083208151928301909152546001600160401b0316908190525b6001600160401b031692915050565b600061092060045490565b604080517f150214d74d59b7d1e90c73fc22ef3d991dd0a76b046543d4d80ab92d2a50328f602082015290810186905260ff851660608201526000908190610ee0906109dd906080016109c2565b9050610efd87828860405180602001604052806000815250611c78565b979650505050505050565b600061093082611c9b565b600080339050610f3484828560405180602001604052806000815250611c78565b949350505050565b600080339050610efd87828888888080601f0160208091040260200160405190810160405280939291908181526020018383808284376000920191909152508a9250611862915050565b60095460009080610f9b575050600854919050565b60006009610faa600184613a9f565b81548110610fba57610fba613ab6565b60009182526020918290206040805180820190915291015463ffffffff81168083526401000000009091046001600160e01b0316928201929092529150841061101157602001516001600160e01b03169392505050565b610f34600985611de5565b61102461090c565b6001600160a01b0316336001600160a01b0316146110545760405162461bcd60e51b8152600401610a7190613836565b3061105d61090c565b6001600160a01b03161461109f576000803660405161107d929190613826565b604051809103902090505b8061109360026119c4565b1461109d57611088565b505b610ace81611ef4565b6110b0611f35565b6110ba6000611f8f565b565b60008033905061110486828787878080601f016020809104026020016040519081016040528093929190818152602001838380828437600092019190915250611c7892505050565b9695505050505050565b600061111c85858585611fe1565b95945050505050565b60006111328484846122a4565b90505b9392505050565b60095460009015611151576109206009611710565b5060085490565b61116061090c565b6001600160a01b0316336001600160a01b0316146111905760405162461bcd60e51b8152600401610a7190613836565b3061119961090c565b6001600160a01b0316146111db57600080366040516111b9929190613826565b604051809103902090505b806111cf60026119c4565b146111d9576111c4565b505b610ace8161233a565b600a546000828152600b602052604080822054905163d45c443560e01b81526004810191909152909182916001600160a01b039091169063d45c443590602401602060405180830381865afa158015611241573d6000803e3d6000fd5b505050506040513d601f19601f8201168201806040525081019061126591906138e9565b9050806001146112755780611135565b60009392505050565b600061092060065490565b60008181526001602081815260408084208151928301909152909101546001600160401b031690819052610e78565b6112c061090c565b6001600160a01b0316336001600160a01b0316146112f05760405162461bcd60e51b8152600401610a7190613836565b306112f961090c565b6001600160a01b03161461133b5760008036604051611319929190613826565b604051809103902090505b8061132f60026119c4565b1461133957611324565b505b61137d8483838080601f0160208091040260200160405190810160405280939291908181526020018383808284376000920191909152508892506123a3915050565b5050505050565b60008484848460405160200161139d9493929190613acc565b60408051601f19818403018152919052805160209091012095945050505050565b6113c661090c565b6001600160a01b0316336001600160a01b0316146113f65760405162461bcd60e51b8152600401610a7190613836565b306113ff61090c565b6001600160a01b031614611441576000803660405161141f929190613826565b604051809103902090505b8061143560026119c4565b1461143f5761142a565b505b610ace816123c9565b6000611135838361146660408051602081019091526000815290565b6122a4565b61147361090c565b6001600160a01b0316336001600160a01b0316146114a35760405162461bcd60e51b8152600401610a7190613836565b306114ac61090c565b6001600160a01b0316146114ee57600080366040516114cc929190613826565b604051809103902090505b806114e260026119c4565b146114ec576114d7565b505b610ace8161246a565b6114ff611f35565b6001600160a01b0381166115645760405162461bcd60e51b815260206004820152602660248201527f4f776e61626c653a206e6577206f776e657220697320746865207a65726f206160448201526564647265737360d01b6064820152608401610a71565b610ace81611f8f565b6000610930826124ab565b60006001600160e01b038211156115e15760405162461bcd60e51b815260206004820152602760248201527f53616665436173743a2076616c756520646f65736e27742066697420696e20326044820152663234206269747360c81b6064820152608401610a71565b5090565b81546000908190816115f686611710565b905060008211801561163457504386611610600185613a9f565b8154811061162057611620613ab6565b60009182526020909120015463ffffffff16145b156116945761164285611578565b8661164e600185613a9f565b8154811061165e5761165e613ab6565b9060005260206000200160000160046101000a8154816001600160e01b0302191690836001600160e01b03160217905550611702565b8560000160405180604001604052806116ac4361176c565b63ffffffff1681526020016116c088611578565b6001600160e01b0390811690915282546001810184556000938452602093849020835194909301519091166401000000000263ffffffff909316929092179101555b9250839150505b9250929050565b805460009080156117595782611727600183613a9f565b8154811061173757611737613ab6565b60009182526020909120015464010000000090046001600160e01b031661175c565b60005b6001600160e01b03169392505050565b600063ffffffff8211156115e15760405162461bcd60e51b815260206004820152602660248201527f53616665436173743a2076616c756520646f65736e27742066697420696e203360448201526532206269747360d01b6064820152608401610a71565b60006001600160e01b03198216636e665ced60e01b1480610930575061093082612555565b60006109306118036125c0565b8360405161190160f01b6020820152602281018390526042810182905260009060620160405160208183030381529060405280519060200120905092915050565b6000806000611855878787876126e7565b91509150610e46816127d4565b600085815260016020819052604082209061187c88610f08565b600781111561188d5761188d61341d565b146118e65760405162461bcd60e51b815260206004820152602360248201527f476f7665726e6f723a20766f7465206e6f742063757272656e746c792061637460448201526269766560e81b6064820152608401610a71565b604080516020810190915281546001600160401b03169081905260009061190f908890866122a4565b905061191e888888848861298f565b835161197057866001600160a01b03167fb8e138887d0aa13bab447e82de9d5c1777041ecd21ca36ba824ff1e6c07ddda4898884896040516119639493929190613b17565b60405180910390a2610efd565b866001600160a01b03167fe2babfbac5889a709b63bb7f598b324e08bc5a4fb9ec647fb3cbc9ec07eb871289888489896040516119b1959493929190613b3f565b60405180910390a2979650505050505050565b60006119df8254600f81810b600160801b909204900b131590565b156119fd57604051631ed9509560e11b815260040160405180910390fd5b508054600f0b6000818152600180840160205260408220805492905583546fffffffffffffffffffffffffffffffff191692016001600160801b03169190911790915590565b6064811115611ac65760405162461bcd60e51b815260206004820152604360248201527f476f7665726e6f72566f74657351756f72756d4672616374696f6e3a2071756f60448201527f72756d4e756d657261746f72206f7665722071756f72756d44656e6f6d696e616064820152623a37b960e91b608482015260a401610a71565b6000611ad061113c565b90508015801590611ae15750600954155b15611b4657604080518082019091526000815260099060208101611b0484611578565b6001600160e01b0390811690915282546001810184556000938452602093849020835194909301519091166401000000000263ffffffff909316929092179101555b611b516009836115e5565b505060408051828152602081018490527f0553476bf02ef2726e8ce5ced78d63e26e602e4a2257b1f559418e24b4633997910160405180910390a15050565b30611b9961090c565b6001600160a01b03161461137d5760005b8451811015611c2a57306001600160a01b0316858281518110611bcf57611bcf613ab6565b60200260200101516001600160a01b03161415611c1a57611c1a838281518110611bfb57611bfb613ab6565b6020026020010151805190602001206002612b0e90919063ffffffff16565b611c2381613b85565b9050611baa565b505050505050565b61137d8585858585612b4a565b30611c4861090c565b6001600160a01b03161461137d57600254600f81810b600160801b909204900b131561137d57600060025561137d565b600061111c85858585611c9660408051602081019091526000815290565b611862565b600080611ca783612bbe565b90506004816007811115611cbd57611cbd61341d565b14611cc85792915050565b6000838152600b602052604090205480611ce3575092915050565b600a54604051632ab0f52960e01b8152600481018390526001600160a01b0390911690632ab0f52990602401602060405180830381865afa158015611d2c573d6000803e3d6000fd5b505050506040513d601f19601f82011682018060405250810190611d509190613ba0565b15611d5f575060079392505050565b600a54604051632c258a9f60e11b8152600481018390526001600160a01b039091169063584b153e90602401602060405180830381865afa158015611da8573d6000803e3d6000fd5b505050506040513d601f19601f82011682018060405250810190611dcc9190613ba0565b15611ddb575060059392505050565b5060029392505050565b6000438210611e365760405162461bcd60e51b815260206004820181905260248201527f436865636b706f696e74733a20626c6f636b206e6f7420796574206d696e65646044820152606401610a71565b825460005b81811015611e9b576000611e4f8284612cca565b905084866000018281548110611e6757611e67613ab6565b60009182526020909120015463ffffffff161115611e8757809250611e95565b611e92816001613a87565b91505b50611e3b565b8115611edf5784611ead600184613a9f565b81548110611ebd57611ebd613ab6565b60009182526020909120015464010000000090046001600160e01b0316611ee2565b60005b6001600160e01b031695945050505050565b60045460408051918252602082018390527fc565b045403dc03c2eea82b81a0465edad9e2e7fc4d97e11421c209da93d7a93910160405180910390a1600455565b600c546001600160a01b031633146110ba5760405162461bcd60e51b815260206004820181905260248201527f4f776e61626c653a2063616c6c6572206973206e6f7420746865206f776e65726044820152606401610a71565b600c80546001600160a01b038381166001600160a01b0319831681179093556040519116919082907f8be0079c531659141344cd1fd0a4f28419497f9722a3daafe3b4186f6b6457e090600090a35050565b6000611feb61127e565b611ffa33610847600143613a9f565b10156120625760405162461bcd60e51b815260206004820152603160248201527f476f7665726e6f723a2070726f706f73657220766f7465732062656c6f7720706044820152701c9bdc1bdcd85b081d1a1c995cda1bdb19607a1b6064820152608401610a71565b60006120778686868680519060200120611384565b9050845186511461209a5760405162461bcd60e51b8152600401610a7190613bc2565b83518651146120bb5760405162461bcd60e51b8152600401610a7190613bc2565b600086511161210c5760405162461bcd60e51b815260206004820152601860248201527f476f7665726e6f723a20656d7074792070726f706f73616c00000000000000006044820152606401610a71565b600081815260016020908152604091829020825191820190925281546001600160401b0316908190521561218c5760405162461bcd60e51b815260206004820152602160248201527f476f7665726e6f723a2070726f706f73616c20616c72656164792065786973746044820152607360f81b6064820152608401610a71565b600061219e612199610e87565b612ce5565b6121a743612ce5565b6121b19190613c03565b905060006121c0612199610936565b6121ca9083613c03565b835467ffffffffffffffff19166001600160401b038416178455905060018301805467ffffffffffffffff19166001600160401b0383161790557f7d84a6263ae0d98d3329bd7b46bb4e8d6f98cd35a7adb45c274c8b7fd5ebd5e084338b8b8d516001600160401b0381111561224257612242612f64565b60405190808252806020026020018201604052801561227557816020015b60608152602001906001900390816122605790505b508c88888e60405161228f99989796959493929190613c2e565b60405180910390a15091979650505050505050565b604051630748d63560e31b81526001600160a01b038481166004830152602482018490526000917f000000000000000000000000000000000000000000000000000000000000000090911690633a46b1a890604401602060405180830381865afa158015612316573d6000803e3d6000fd5b505050506040513d601f19601f8201168201806040525081019061113291906138e9565b600a54604080516001600160a01b03928316815291831660208301527f08f74ea46ef7894f65eabfb5e6e695de773a000b47c529ab559178069b226401910160405180910390a1600a80546001600160a01b0319166001600160a01b0392909216919091179055565b6060611132848484604051806060016040528060298152602001613d7b60299139612d4d565b600081116124295760405162461bcd60e51b815260206004820152602760248201527f476f7665726e6f7253657474696e67733a20766f74696e6720706572696f6420604482015266746f6f206c6f7760c81b6064820152608401610a71565b60055460408051918252602082018390527f7e3f7f0708a84de9203036abaa450dccc85ad5ff52f78c170f3edb55cf5e8828910160405180910390a1600555565b60065460408051918252602082018390527fccb45da8d5717e6c4544694297c4ba5cf151d455c9bb0ed4fc7a38411bc05461910160405180910390a1600655565b600060646124b883610f86565b604051632394e7a360e21b8152600481018590527f00000000000000000000000000000000000000000000000000000000000000006001600160a01b031690638e539e8c90602401602060405180830381865afa15801561251d573d6000803e3d6000fd5b505050506040513d601f19601f8201168201806040525081019061254191906138e9565b61254b9190613d1d565b6109309190613d3c565b60006001600160e01b0319821663bf26d89760e01b148061258657506001600160e01b031982166379dd796f60e01b145b806125a157506001600160e01b03198216630271189760e51b145b8061093057506301ffc9a760e01b6001600160e01b0319831614610930565b6000306001600160a01b037f00000000000000000000000000000000000000000000000000000000000000001614801561261957507f000000000000000000000000000000000000000000000000000000000000000046145b1561264357507f000000000000000000000000000000000000000000000000000000000000000090565b50604080517f00000000000000000000000000000000000000000000000000000000000000006020808301919091527f0000000000000000000000000000000000000000000000000000000000000000828401527f000000000000000000000000000000000000000000000000000000000000000060608301524660808301523060a0808401919091528351808403909101815260c0909201909252805191012090565b6000807f7fffffffffffffffffffffffffffffff5d576e7357a4501ddfe92f46681b20a083111561271e57506000905060036127cb565b8460ff16601b1415801561273657508460ff16601c14155b1561274757506000905060046127cb565b6040805160008082526020820180845289905260ff881692820192909252606081018690526080810185905260019060a0016020604051602081039080840390855afa15801561279b573d6000803e3d6000fd5b5050604051601f1901519150506001600160a01b0381166127c4576000600192509250506127cb565b9150600090505b94509492505050565b60008160048111156127e8576127e861341d565b14156127f15750565b60018160048111156128055761280561341d565b14156128535760405162461bcd60e51b815260206004820152601860248201527f45434453413a20696e76616c6964207369676e617475726500000000000000006044820152606401610a71565b60028160048111156128675761286761341d565b14156128b55760405162461bcd60e51b815260206004820152601f60248201527f45434453413a20696e76616c6964207369676e6174757265206c656e677468006044820152606401610a71565b60038160048111156128c9576128c961341d565b14156129225760405162461bcd60e51b815260206004820152602260248201527f45434453413a20696e76616c6964207369676e6174757265202773272076616c604482015261756560f01b6064820152608401610a71565b60048160048111156129365761293661341d565b1415610ace5760405162461bcd60e51b815260206004820152602260248201527f45434453413a20696e76616c6964207369676e6174757265202776272076616c604482015261756560f01b6064820152608401610a71565b60008581526007602090815260408083206001600160a01b0388168452600381019092529091205460ff1615612a175760405162461bcd60e51b815260206004820152602760248201527f476f7665726e6f72566f74696e6753696d706c653a20766f746520616c726561604482015266191e4818d85cdd60ca1b6064820152608401610a71565b6001600160a01b03851660009081526003820160205260408120805460ff1916600117905560ff168460ff161415612a685782816000016000828254612a5d9190613a87565b90915550611c2a9050565b60ff841660011415612a885782816001016000828254612a5d9190613a87565b60ff841660021415612aa85782816002016000828254612a5d9190613a87565b60405162461bcd60e51b815260206004820152603560248201527f476f7665726e6f72566f74696e6753696d706c653a20696e76616c69642076616044820152746c756520666f7220656e756d20566f74655479706560581b6064820152608401610a71565b8154600160801b90819004600f0b6000818152600180860160205260409091209390935583546001600160801b03908116939091011602179055565b600a5460405163e38335e560e01b81526001600160a01b039091169063e38335e5903490612b859088908890889060009089906004016139cb565b6000604051808303818588803b158015612b9e57600080fd5b505af1158015612bb2573d6000803e3d6000fd5b50505050505050505050565b6000818152600160205260408120600281015460ff1615612be25750600792915050565b6002810154610100900460ff1615612bfd5750600292915050565b6000612c0884610e50565b905080612c575760405162461bcd60e51b815260206004820152601d60248201527f476f7665726e6f723a20756e6b6e6f776e2070726f706f73616c2069640000006044820152606401610a71565b438110612c68575060009392505050565b6000612c7385611289565b9050438110612c8757506001949350505050565b612c9085612e73565b8015612caf575060008581526007602052604090208054600190910154115b15612cbf57506004949350505050565b506003949350505050565b6000612cd96002848418613d3c565b61113590848416613a87565b60006001600160401b038211156115e15760405162461bcd60e51b815260206004820152602660248201527f53616665436173743a2076616c756520646f65736e27742066697420696e203660448201526534206269747360d01b6064820152608401610a71565b606082471015612dae5760405162461bcd60e51b815260206004820152602660248201527f416464726573733a20696e73756666696369656e742062616c616e636520666f6044820152651c8818d85b1b60d21b6064820152608401610a71565b6001600160a01b0385163b612e055760405162461bcd60e51b815260206004820152601d60248201527f416464726573733a2063616c6c20746f206e6f6e2d636f6e74726163740000006044820152606401610a71565b600080866001600160a01b03168587604051612e219190613d5e565b60006040518083038185875af1925050503d8060008114612e5e576040519150601f19603f3d011682016040523d82523d6000602084013e612e63565b606091505b5091509150610efd828286612eaa565b600081815260076020526040812060028101546001820154612e959190613a87565b612ea16108d385610e50565b11159392505050565b60608315612eb9575081611135565b825115612ec95782518084602001fd5b8160405162461bcd60e51b8152600401610a71919061313c565b600060208284031215612ef557600080fd5b81356001600160e01b03198116811461113557600080fd5b803560ff81168114612f1e57600080fd5b919050565b60008083601f840112612f3557600080fd5b5081356001600160401b03811115612f4c57600080fd5b60208301915083602082850101111561170957600080fd5b634e487b7160e01b600052604160045260246000fd5b604051601f8201601f191681016001600160401b0381118282101715612fa257612fa2612f64565b604052919050565b60006001600160401b03831115612fc357612fc3612f64565b612fd6601f8401601f1916602001612f7a565b9050828152838383011115612fea57600080fd5b828260208301376000602084830101529392505050565b600082601f83011261301257600080fd5b61113583833560208501612faa565b60008060008060008060008060e0898b03121561303d57600080fd5b8835975061304d60208a01612f0d565b965060408901356001600160401b038082111561306957600080fd5b6130758c838d01612f23565b909850965060608b013591508082111561308e57600080fd5b5061309b8b828c01613001565b9450506130aa60808a01612f0d565b925060a0890135915060c089013590509295985092959890939650565b6000602082840312156130d957600080fd5b5035919050565b60005b838110156130fb5781810151838201526020016130e3565b8381111561310a576000848401525b50505050565b600081518084526131288160208601602086016130e0565b601f01601f19169290920160200192915050565b6020815260006111356020830184613110565b6001600160a01b0381168114610ace57600080fd5b6000806000806080858703121561317a57600080fd5b84356131858161314f565b935060208501356131958161314f565b92506040850135915060608501356001600160401b038111156131b757600080fd5b6131c387828801613001565b91505092959194509250565b60006001600160401b038211156131e8576131e8612f64565b5060051b60200190565b600082601f83011261320357600080fd5b81356020613218613213836131cf565b612f7a565b82815260059290921b8401810191818101908684111561323757600080fd5b8286015b8481101561325b57803561324e8161314f565b835291830191830161323b565b509695505050505050565b600082601f83011261327757600080fd5b81356020613287613213836131cf565b82815260059290921b840181019181810190868411156132a657600080fd5b8286015b8481101561325b57803583529183019183016132aa565b600082601f8301126132d257600080fd5b813560206132e2613213836131cf565b82815260059290921b8401810191818101908684111561330157600080fd5b8286015b8481101561325b5780356001600160401b038111156133245760008081fd5b6133328986838b0101613001565b845250918301918301613305565b6000806000806080858703121561335657600080fd5b84356001600160401b038082111561336d57600080fd5b613379888389016131f2565b9550602087013591508082111561338f57600080fd5b61339b88838901613266565b945060408701359150808211156133b157600080fd5b506133be878288016132c1565b949793965093946060013593505050565b600080600080600060a086880312156133e757600080fd5b853594506133f760208701612f0d565b935061340560408701612f0d565b94979396509394606081013594506080013592915050565b634e487b7160e01b600052602160045260246000fd5b602081016008831061345557634e487b7160e01b600052602160045260246000fd5b91905290565b6000806040838503121561346e57600080fd5b8235915060208301356134808161314f565b809150509250929050565b6000806040838503121561349e57600080fd5b823591506134ae60208401612f0d565b90509250929050565b6000806000806000608086880312156134cf57600080fd5b853594506134df60208701612f0d565b935060408601356001600160401b03808211156134fb57600080fd5b61350789838a01612f23565b9095509350606088013591508082111561352057600080fd5b5061352d88828901613001565b9150509295509295909350565b6000806000806060858703121561355057600080fd5b8435935061356060208601612f0d565b925060408501356001600160401b0381111561357b57600080fd5b61358787828801612f23565b95989497509550505050565b600080600080608085870312156135a957600080fd5b84356001600160401b03808211156135c057600080fd5b6135cc888389016131f2565b955060208701359150808211156135e257600080fd5b6135ee88838901613266565b9450604087013591508082111561360457600080fd5b613610888389016132c1565b9350606087013591508082111561362657600080fd5b508501601f8101871361363857600080fd5b6131c387823560208401612faa565b60008060006060848603121561365c57600080fd5b83356136678161314f565b92506020840135915060408401356001600160401b0381111561368957600080fd5b61369586828701613001565b9150509250925092565b6000602082840312156136b157600080fd5b81356111358161314f565b600080600080600060a086880312156136d457600080fd5b85356136df8161314f565b945060208601356136ef8161314f565b935060408601356001600160401b038082111561370b57600080fd5b61371789838a01613266565b9450606088013591508082111561372d57600080fd5b61373989838a01613266565b9350608088013591508082111561352057600080fd5b6000806000806060858703121561376557600080fd5b84356137708161314f565b93506020850135925060408501356001600160401b0381111561357b57600080fd5b600080604083850312156137a557600080fd5b82356137b08161314f565b946020939093013593505050565b600080600080600060a086880312156137d657600080fd5b85356137e18161314f565b945060208601356137f18161314f565b9350604086013592506060860135915060808601356001600160401b0381111561381a57600080fd5b61352d88828901613001565b8183823760009101908152919050565b60208082526018908201527f476f7665726e6f723a206f6e6c79476f7665726e616e63650000000000000000604082015260600190565b600181811c9082168061388157607f821691505b602082108114156138a257634e487b7160e01b600052602260045260246000fd5b50919050565b60208082526021908201527f476f7665726e6f723a2070726f706f73616c206e6f74207375636365737366756040820152601b60fa1b606082015260800190565b6000602082840312156138fb57600080fd5b5051919050565b600081518084526020808501945080840160005b8381101561393b5781516001600160a01b031687529582019590820190600101613916565b509495945050505050565b600081518084526020808501945080840160005b8381101561393b5781518752958201959082019060010161395a565b600081518084526020808501808196508360051b8101915082860160005b858110156139be5782840389526139ac848351613110565b98850198935090840190600101613994565b5091979650505050505050565b60a0815260006139de60a0830188613902565b82810360208401526139f08188613946565b90508281036040840152613a048187613976565b60608401959095525050608001529392505050565b60c081526000613a2c60c0830189613902565b8281036020840152613a3e8189613946565b90508281036040840152613a528188613976565b60608401969096525050608081019290925260a0909101529392505050565b634e487b7160e01b600052601160045260246000fd5b60008219821115613a9a57613a9a613a71565b500190565b600082821015613ab157613ab1613a71565b500390565b634e487b7160e01b600052603260045260246000fd5b608081526000613adf6080830187613902565b8281036020840152613af18187613946565b90508281036040840152613b058186613976565b91505082606083015295945050505050565b84815260ff841660208201528260408201526080606082015260006111046080830184613110565b85815260ff8516602082015283604082015260a060608201526000613b6760a0830185613110565b8281036080840152613b798185613110565b98975050505050505050565b6000600019821415613b9957613b99613a71565b5060010190565b600060208284031215613bb257600080fd5b8151801515811461113557600080fd5b60208082526021908201527f476f7665726e6f723a20696e76616c69642070726f706f73616c206c656e67746040820152600d60fb1b606082015260800190565b60006001600160401b03808316818516808303821115613c2557613c25613a71565b01949350505050565b60006101208b8352602060018060a01b038c1681850152816040850152613c578285018c613902565b91508382036060850152613c6b828b613946565b915083820360808501528189518084528284019150828160051b850101838c0160005b83811015613cbc57601f19878403018552613caa838351613110565b94860194925090850190600101613c8e565b505086810360a0880152613cd0818c613976565b945050505050613ceb60c08401876001600160401b03169052565b6001600160401b03851660e0840152828103610100840152613d0d8185613110565b9c9b505050505050505050505050565b6000816000190483118215151615613d3757613d37613a71565b500290565b600082613d5957634e487b7160e01b600052601260045260246000fd5b500490565b60008251613d708184602087016130e0565b919091019291505056fe416464726573733a206c6f772d6c6576656c2063616c6c20776974682076616c7565206661696c6564a26469706673582212200b622318df65100b91405d1ad23c8fa84ae002b9d75ffbdd5854adfd8481278364736f6c634300080c0033",
  "linkReferences": {},
  "deployedLinkReferences": {}
}