{
  "_format": "hh-sol-artifact-1",
  "contractName": "MainContract",
  "sourceName": "src/backend/contracts/MainContract.sol",
  "abi": [
    {
      "inputs": [],
      "stateMutability": "nonpayable",
      "type": "constructor"
    },
    {
      "anonymous": false,
      "inputs": [
        {
          "indexed": false,
          "internalType": "address",
          "name": "previousAdmin",
          "type": "address"
        },
        {
          "indexed": false,
          "internalType": "address",
          "name": "newAdmin",
          "type": "address"
        }
      ],
      "name": "AdminChanged",
      "type": "event"
    },
    {
      "anonymous": false,
      "inputs": [
        {
          "indexed": true,
          "internalType": "address",
          "name": "beacon",
          "type": "address"
        }
      ],
      "name": "BeaconUpgraded",
      "type": "event"
    },
    {
      "anonymous": false,
      "inputs": [
        {
          "indexed": false,
          "internalType": "uint8",
          "name": "version",
          "type": "uint8"
        }
      ],
      "name": "Initialized",
      "type": "event"
    },
    {
      "anonymous": false,
      "inputs": [
        {
          "indexed": true,
          "internalType": "address",
          "name": "previousOwner",
          "type": "address"
        },
        {
          "indexed": true,
          "internalType": "address",
          "name": "newOwner",
          "type": "address"
        }
      ],
      "name": "OwnershipTransferred",
      "type": "event"
    },
    {
      "anonymous": false,
      "inputs": [
        {
          "indexed": true,
          "internalType": "address",
          "name": "implementation",
          "type": "address"
        }
      ],
      "name": "Upgraded",
      "type": "event"
    },
    {
      "inputs": [
        {
          "internalType": "enum MainContract.CommunityCategory",
          "name": "",
          "type": "uint8"
        },
        {
          "internalType": "uint256",
          "name": "",
          "type": "uint256"
        }
      ],
      "name": "categoryCommunities",
      "outputs": [
        {
          "internalType": "uint256",
          "name": "",
          "type": "uint256"
        }
      ],
      "stateMutability": "view",
      "type": "function"
    },
    {
      "inputs": [],
      "name": "chainlinkVRFContract",
      "outputs": [
        {
          "internalType": "address",
          "name": "",
          "type": "address"
        }
      ],
      "stateMutability": "view",
      "type": "function"
    },
    {
      "inputs": [
        {
          "internalType": "uint256",
          "name": "",
          "type": "uint256"
        }
      ],
      "name": "communities",
      "outputs": [
        {
          "internalType": "uint256",
          "name": "id",
          "type": "uint256"
        },
        {
          "internalType": "enum MainContract.CommunityCategory",
          "name": "category",
          "type": "uint8"
        },
        {
          "internalType": "enum MainContract.CommunityPrivacy",
          "name": "privacy",
          "type": "uint8"
        },
        {
          "internalType": "address",
          "name": "owner",
          "type": "address"
        },
        {
          "internalType": "address",
          "name": "nftContract",
          "type": "address"
        },
        {
          "internalType": "address",
          "name": "ftContract",
          "type": "address"
        },
        {
          "internalType": "address",
          "name": "daoContract",
          "type": "address"
        },
        {
          "internalType": "address",
          "name": "timeLockContract",
          "type": "address"
        },
        {
          "internalType": "string",
          "name": "name",
          "type": "string"
        },
        {
          "internalType": "string",
          "name": "description",
          "type": "string"
        },
        {
          "internalType": "string",
          "name": "logo",
          "type": "string"
        }
      ],
      "stateMutability": "view",
      "type": "function"
    },
    {
      "inputs": [],
      "name": "communityCount",
      "outputs": [
        {
          "internalType": "uint256",
          "name": "",
          "type": "uint256"
        }
      ],
      "stateMutability": "view",
      "type": "function"
    },
    {
      "inputs": [
        {
          "internalType": "string",
          "name": "_name",
          "type": "string"
        },
        {
          "internalType": "string",
          "name": "_logo",
          "type": "string"
        },
        {
          "internalType": "enum MainContract.CommunityCategory",
          "name": "_category",
          "type": "uint8"
        },
        {
          "internalType": "enum MainContract.CommunityPrivacy",
          "name": "_privacy",
          "type": "uint8"
        },
        {
          "internalType": "string",
          "name": "_description",
          "type": "string"
        }
      ],
      "name": "createCommunity",
      "outputs": [],
      "stateMutability": "nonpayable",
      "type": "function"
    },
    {
      "inputs": [],
      "name": "factoryDAOContract",
      "outputs": [
        {
          "internalType": "address",
          "name": "",
          "type": "address"
        }
      ],
      "stateMutability": "view",
      "type": "function"
    },
    {
      "inputs": [],
      "name": "factoryFTContract",
      "outputs": [
        {
          "internalType": "address",
          "name": "",
          "type": "address"
        }
      ],
      "stateMutability": "view",
      "type": "function"
    },
    {
      "inputs": [],
      "name": "factoryNFTContract",
      "outputs": [
        {
          "internalType": "address",
          "name": "",
          "type": "address"
        }
      ],
      "stateMutability": "view",
      "type": "function"
    },
    {
      "inputs": [],
      "name": "factoryTimeLockContract",
      "outputs": [
        {
          "internalType": "address",
          "name": "",
          "type": "address"
        }
      ],
      "stateMutability": "view",
      "type": "function"
    },
    {
      "inputs": [
        {
          "internalType": "enum MainContract.CommunityCategory",
          "name": "_categoryId",
          "type": "uint8"
        }
      ],
      "name": "getCategoryCommunities",
      "outputs": [
        {
          "components": [
            {
              "internalType": "uint256",
              "name": "id",
              "type": "uint256"
            },
            {
              "internalType": "enum MainContract.CommunityCategory",
              "name": "category",
              "type": "uint8"
            },
            {
              "internalType": "enum MainContract.CommunityPrivacy",
              "name": "privacy",
              "type": "uint8"
            },
            {
              "internalType": "address",
              "name": "owner",
              "type": "address"
            },
            {
              "internalType": "address",
              "name": "nftContract",
              "type": "address"
            },
            {
              "internalType": "address",
              "name": "ftContract",
              "type": "address"
            },
            {
              "internalType": "address",
              "name": "daoContract",
              "type": "address"
            },
            {
              "internalType": "address",
              "name": "timeLockContract",
              "type": "address"
            },
            {
              "internalType": "string",
              "name": "name",
              "type": "string"
            },
            {
              "internalType": "string",
              "name": "description",
              "type": "string"
            },
            {
              "internalType": "string",
              "name": "logo",
              "type": "string"
            }
          ],
          "internalType": "struct MainContract.Community[]",
          "name": "",
          "type": "tuple[]"
        }
      ],
      "stateMutability": "view",
      "type": "function"
    },
    {
      "inputs": [
        {
          "internalType": "address",
          "name": "_owner",
          "type": "address"
        }
      ],
      "name": "getUserCommunities",
      "outputs": [
        {
          "components": [
            {
              "internalType": "uint256",
              "name": "id",
              "type": "uint256"
            },
            {
              "internalType": "enum MainContract.CommunityCategory",
              "name": "category",
              "type": "uint8"
            },
            {
              "internalType": "enum MainContract.CommunityPrivacy",
              "name": "privacy",
              "type": "uint8"
            },
            {
              "internalType": "address",
              "name": "owner",
              "type": "address"
            },
            {
              "internalType": "address",
              "name": "nftContract",
              "type": "address"
            },
            {
              "internalType": "address",
              "name": "ftContract",
              "type": "address"
            },
            {
              "internalType": "address",
              "name": "daoContract",
              "type": "address"
            },
            {
              "internalType": "address",
              "name": "timeLockContract",
              "type": "address"
            },
            {
              "internalType": "string",
              "name": "name",
              "type": "string"
            },
            {
              "internalType": "string",
              "name": "description",
              "type": "string"
            },
            {
              "internalType": "string",
              "name": "logo",
              "type": "string"
            }
          ],
          "internalType": "struct MainContract.Community[]",
          "name": "",
          "type": "tuple[]"
        }
      ],
      "stateMutability": "view",
      "type": "function"
    },
    {
      "inputs": [],
      "name": "initialize",
      "outputs": [],
      "stateMutability": "nonpayable",
      "type": "function"
    },
    {
      "inputs": [
        {
          "internalType": "uint256",
          "name": "_id",
          "type": "uint256"
        },
        {
          "internalType": "address",
          "name": "checkAddress",
          "type": "address"
        }
      ],
      "name": "isCommunityOwner",
      "outputs": [
        {
          "internalType": "bool",
          "name": "",
          "type": "bool"
        }
      ],
      "stateMutability": "view",
      "type": "function"
    },
    {
      "inputs": [
        {
          "internalType": "uint256",
          "name": "_id",
          "type": "uint256"
        }
      ],
      "name": "isContractExists",
      "outputs": [
        {
          "internalType": "bool",
          "name": "",
          "type": "bool"
        },
        {
          "internalType": "bool",
          "name": "",
          "type": "bool"
        },
        {
          "internalType": "bool",
          "name": "",
          "type": "bool"
        }
      ],
      "stateMutability": "view",
      "type": "function"
    },
    {
      "inputs": [
        {
          "internalType": "uint256",
          "name": "_communityId",
          "type": "uint256"
        },
        {
          "internalType": "uint256",
          "name": "_maxValue",
          "type": "uint256"
        },
        {
          "internalType": "uint32",
          "name": "_winnersAmount",
          "type": "uint32"
        }
      ],
      "name": "newRaffle",
      "outputs": [
        {
          "internalType": "uint256",
          "name": "",
          "type": "uint256"
        }
      ],
      "stateMutability": "nonpayable",
      "type": "function"
    },
    {
      "inputs": [],
      "name": "owner",
      "outputs": [
        {
          "internalType": "address",
          "name": "",
          "type": "address"
        }
      ],
      "stateMutability": "view",
      "type": "function"
    },
    {
      "inputs": [],
      "name": "proxiableUUID",
      "outputs": [
        {
          "internalType": "bytes32",
          "name": "",
          "type": "bytes32"
        }
      ],
      "stateMutability": "view",
      "type": "function"
    },
    {
      "inputs": [],
      "name": "renounceOwnership",
      "outputs": [],
      "stateMutability": "nonpayable",
      "type": "function"
    },
    {
      "inputs": [
        {
          "internalType": "address",
          "name": "newOwner",
          "type": "address"
        }
      ],
      "name": "transferOwnership",
      "outputs": [],
      "stateMutability": "nonpayable",
      "type": "function"
    },
    {
      "inputs": [
        {
          "internalType": "uint256",
          "name": "_id",
          "type": "uint256"
        },
        {
          "internalType": "string",
          "name": "_name",
          "type": "string"
        },
        {
          "internalType": "string",
          "name": "_logo",
          "type": "string"
        },
        {
          "internalType": "enum MainContract.CommunityPrivacy",
          "name": "_privacy",
          "type": "uint8"
        },
        {
          "internalType": "string",
          "name": "_description",
          "type": "string"
        }
      ],
      "name": "updateCommunity",
      "outputs": [],
      "stateMutability": "nonpayable",
      "type": "function"
    },
    {
      "inputs": [
        {
          "internalType": "uint256",
          "name": "_id",
          "type": "uint256"
        },
        {
          "internalType": "address",
          "name": "_daoContract",
          "type": "address"
        }
      ],
      "name": "updateCommunityDAO",
      "outputs": [],
      "stateMutability": "nonpayable",
      "type": "function"
    },
    {
      "inputs": [
        {
          "internalType": "uint256",
          "name": "_id",
          "type": "uint256"
        },
        {
          "internalType": "address",
          "name": "_ftContract",
          "type": "address"
        }
      ],
      "name": "updateCommunityFT",
      "outputs": [],
      "stateMutability": "nonpayable",
      "type": "function"
    },
    {
      "inputs": [
        {
          "internalType": "uint256",
          "name": "_id",
          "type": "uint256"
        },
        {
          "internalType": "address",
          "name": "_nftContract",
          "type": "address"
        }
      ],
      "name": "updateCommunityNFT",
      "outputs": [],
      "stateMutability": "nonpayable",
      "type": "function"
    },
    {
      "inputs": [
        {
          "internalType": "uint256",
          "name": "_id",
          "type": "uint256"
        },
        {
          "internalType": "address",
          "name": "_timeLockContract",
          "type": "address"
        }
      ],
      "name": "updateCommunityTokenLock",
      "outputs": [],
      "stateMutability": "nonpayable",
      "type": "function"
    },
    {
      "inputs": [
        {
          "internalType": "address",
          "name": "_factoryNFTContract",
          "type": "address"
        },
        {
          "internalType": "address",
          "name": "_factoryFTContract",
          "type": "address"
        },
        {
          "internalType": "address",
          "name": "_factoryDAOContract",
          "type": "address"
        },
        {
          "internalType": "address",
          "name": "_factoryTimeLockContract",
          "type": "address"
        },
        {
          "internalType": "address",
          "name": "_chainlinkVRFContract",
          "type": "address"
        }
      ],
      "name": "updateFactoryContractsAddress",
      "outputs": [],
      "stateMutability": "nonpayable",
      "type": "function"
    },
    {
      "inputs": [
        {
          "internalType": "address",
          "name": "newImplementation",
          "type": "address"
        }
      ],
      "name": "upgradeTo",
      "outputs": [],
      "stateMutability": "nonpayable",
      "type": "function"
    },
    {
      "inputs": [
        {
          "internalType": "address",
          "name": "newImplementation",
          "type": "address"
        },
        {
          "internalType": "bytes",
          "name": "data",
          "type": "bytes"
        }
      ],
      "name": "upgradeToAndCall",
      "outputs": [],
      "stateMutability": "payable",
      "type": "function"
    },
    {
      "inputs": [
        {
          "internalType": "address",
          "name": "",
          "type": "address"
        },
        {
          "internalType": "uint256",
          "name": "",
          "type": "uint256"
        }
      ],
      "name": "userCommunities",
      "outputs": [
        {
          "internalType": "uint256",
          "name": "",
          "type": "uint256"
        }
      ],
      "stateMutability": "view",
      "type": "function"
    }
  ],
  "bytecode": "0x60a0604052306080523480156200001557600080fd5b506200002062000026565b620000e8565b600054610100900460ff1615620000935760405162461bcd60e51b815260206004820152602760248201527f496e697469616c697a61626c653a20636f6e747261637420697320696e697469604482015266616c697a696e6760c81b606482015260840160405180910390fd5b60005460ff9081161015620000e6576000805460ff191660ff9081179091556040519081527f7f26b83ff96e1f2b6a682f133852f6798a09c465da95921460cefb38474024989060200160405180910390a15b565b6080516128786200012060003960008181610a7d01528181610abd01528181610b8e01528181610bce0152610c6101526128786000f3fe6080604052600436106101b75760003560e01c8063aee84613116100ec578063e590b56a1161008a578063ec30b85c11610064578063ec30b85c1461052a578063f2fde38b14610582578063f4704e05146105a2578063f6842b30146105c257600080fd5b8063e590b56a146104b3578063e87d940b146104ea578063e8cc13c01461050a57600080fd5b8063be37aeed116100c6578063be37aeed14610433578063c8202f4a14610453578063dd44600114610473578063e00f78651461049357600080fd5b8063aee846131461038a578063af1af3dc146103a0578063b64b7f76146103c057600080fd5b80636543286f1161015957806384d992a01161013357806384d992a0146102f45780638845f7c61461032c5780638da5cb5b1461034c578063ab53cd931461036a57600080fd5b80636543286f146102aa578063715018a6146102ca5780638129fc1c146102df57600080fd5b80633659cfe6116101955780633659cfe6146102345780633c44f002146102545780634f1ef2861461028257806352d1902d1461029557600080fd5b80631c174e9f146101bc578063266682cb146101de57806334ff125114610214575b600080fd5b3480156101c857600080fd5b506101dc6101d7366004612007565b6105e2565b005b3480156101ea57600080fd5b506101fe6101f9366004612042565b610646565b60405161020b91906120ef565b60405180910390f35b34801561022057600080fd5b506101dc61022f366004612211565b610a0b565b34801561024057600080fd5b506101dc61024f366004612276565b610a72565b34801561026057600080fd5b5061027461026f366004612291565b610b52565b60405190815260200161020b565b6101dc610290366004612347565b610b83565b3480156102a157600080fd5b50610274610c54565b3480156102b657600080fd5b506101fe6102c5366004612276565b610d07565b3480156102d657600080fd5b506101dc611084565b3480156102eb57600080fd5b506101dc611098565b34801561030057600080fd5b5060cb54610314906001600160a01b031681565b6040516001600160a01b03909116815260200161020b565b34801561033857600080fd5b5060cc54610314906001600160a01b031681565b34801561035857600080fd5b506033546001600160a01b0316610314565b34801561037657600080fd5b506101dc610385366004612007565b6111b0565b34801561039657600080fd5b5061027460ce5481565b3480156103ac57600080fd5b506101dc6103bb3660046123d8565b61120b565b3480156103cc57600080fd5b506104146103db36600461247b565b600090815260cf60205260409020600281015460038201546004909201546001600160a01b039182161515939282161515929116151590565b604080519315158452911515602084015215159082015260600161020b565b34801561043f57600080fd5b5061027461044e366004612494565b611336565b34801561045f57600080fd5b5060cd54610314906001600160a01b031681565b34801561047f57600080fd5b5061027461048e3660046124d6565b61141d565b34801561049f57600080fd5b506101dc6104ae366004612007565b611439565b3480156104bf57600080fd5b506104d36104ce36600461247b565b611494565b60405161020b9b9a999897969594939291906124f2565b3480156104f657600080fd5b506101dc610505366004612007565b61169a565b34801561051657600080fd5b506101dc610525366004612593565b6116f5565b34801561053657600080fd5b50610572610545366004612007565b600082815260cf60205260409020600101546201000090046001600160a01b039081169082161492915050565b604051901515815260200161020b565b34801561058e57600080fd5b506101dc61059d366004612276565b61199b565b3480156105ae57600080fd5b5060ca54610314906001600160a01b031681565b3480156105ce57600080fd5b5060c954610314906001600160a01b031681565b60cb546001600160a01b031633146106155760405162461bcd60e51b815260040161060c906125ff565b60405180910390fd5b600091825260cf602052604090912060040180546001600160a01b0319166001600160a01b03909216919091179055565b6060600060d160008460148111156106605761066061205d565b60148111156106715761067161205d565b815260200190815260200160002080549050905060008167ffffffffffffffff8111156106a0576106a06122bb565b6040519080825280602002602001820160405280156106d957816020015b6106c6611ef4565b8152602001906001900390816106be5790505b50905060005b82811015610a035760cf600060d160008860148111156107015761070161205d565b60148111156107125761071261205d565b8152602001908152602001600020838154811061073157610731612636565b9060005260206000200154815260200190815260200160002060405180610160016040529081600082015481526020016001820160009054906101000a900460ff1660148111156107845761078461205d565b60148111156107955761079561205d565b81526020016001820160019054906101000a900460ff1660018111156107bd576107bd61205d565b60018111156107ce576107ce61205d565b815260018201546001600160a01b03620100009091048116602083015260028301548116604083015260038301548116606083015260048301548116608083015260058301541660a082015260068201805460c09092019161082f9061264c565b80601f016020809104026020016040519081016040528092919081815260200182805461085b9061264c565b80156108a85780601f1061087d576101008083540402835291602001916108a8565b820191906000526020600020905b81548152906001019060200180831161088b57829003601f168201915b505050505081526020016007820180546108c19061264c565b80601f01602080910402602001604051908101604052809291908181526020018280546108ed9061264c565b801561093a5780601f1061090f5761010080835404028352916020019161093a565b820191906000526020600020905b81548152906001019060200180831161091d57829003601f168201915b505050505081526020016008820180546109539061264c565b80601f016020809104026020016040519081016040528092919081815260200182805461097f9061264c565b80156109cc5780601f106109a1576101008083540402835291602001916109cc565b820191906000526020600020905b8154815290600101906020018083116109af57829003601f168201915b5050505050815250508282815181106109e7576109e7612636565b6020026020010181905250806109fc9061269d565b90506106df565b509392505050565b610a13611a11565b60c980546001600160a01b03199081166001600160a01b039788161790915560ca805482169587169590951790945560cb805485169386169390931790925560cc8054841691851691909117905560cd80549092169216919091179055565b306001600160a01b037f0000000000000000000000000000000000000000000000000000000000000000161415610abb5760405162461bcd60e51b815260040161060c906126b8565b7f00000000000000000000000000000000000000000000000000000000000000006001600160a01b0316610b046000805160206127fc833981519152546001600160a01b031690565b6001600160a01b031614610b2a5760405162461bcd60e51b815260040161060c90612704565b610b3381611a6b565b60408051600080825260208201909252610b4f91839190611a73565b50565b60d16020528160005260406000208181548110610b6e57600080fd5b90600052602060002001600091509150505481565b306001600160a01b037f0000000000000000000000000000000000000000000000000000000000000000161415610bcc5760405162461bcd60e51b815260040161060c906126b8565b7f00000000000000000000000000000000000000000000000000000000000000006001600160a01b0316610c156000805160206127fc833981519152546001600160a01b031690565b6001600160a01b031614610c3b5760405162461bcd60e51b815260040161060c90612704565b610c4482611a6b565b610c5082826001611a73565b5050565b6000306001600160a01b037f00000000000000000000000000000000000000000000000000000000000000001614610cf45760405162461bcd60e51b815260206004820152603860248201527f555550535570677261646561626c653a206d757374206e6f742062652063616c60448201527f6c6564207468726f7567682064656c656761746563616c6c0000000000000000606482015260840161060c565b506000805160206127fc83398151915290565b6001600160a01b038116600090815260d060205260408120546060918167ffffffffffffffff811115610d3c57610d3c6122bb565b604051908082528060200260200182016040528015610d7557816020015b610d62611ef4565b815260200190600190039081610d5a5790505b50905060005b82811015610a03576001600160a01b038516600090815260d060205260408120805460cf92919084908110610db257610db2612636565b9060005260206000200154815260200190815260200160002060405180610160016040529081600082015481526020016001820160009054906101000a900460ff166014811115610e0557610e0561205d565b6014811115610e1657610e1661205d565b81526020016001820160019054906101000a900460ff166001811115610e3e57610e3e61205d565b6001811115610e4f57610e4f61205d565b815260018201546001600160a01b03620100009091048116602083015260028301548116604083015260038301548116606083015260048301548116608083015260058301541660a082015260068201805460c090920191610eb09061264c565b80601f0160208091040260200160405190810160405280929190818152602001828054610edc9061264c565b8015610f295780601f10610efe57610100808354040283529160200191610f29565b820191906000526020600020905b815481529060010190602001808311610f0c57829003601f168201915b50505050508152602001600782018054610f429061264c565b80601f0160208091040260200160405190810160405280929190818152602001828054610f6e9061264c565b8015610fbb5780601f10610f9057610100808354040283529160200191610fbb565b820191906000526020600020905b815481529060010190602001808311610f9e57829003601f168201915b50505050508152602001600882018054610fd49061264c565b80601f01602080910402602001604051908101604052809291908181526020018280546110009061264c565b801561104d5780601f106110225761010080835404028352916020019161104d565b820191906000526020600020905b81548152906001019060200180831161103057829003601f168201915b50505050508152505082828151811061106857611068612636565b60200260200101819052508061107d9061269d565b9050610d7b565b61108c611a11565b6110966000611be3565b565b600054610100900460ff16158080156110b85750600054600160ff909116105b806110d25750303b1580156110d2575060005460ff166001145b6111355760405162461bcd60e51b815260206004820152602e60248201527f496e697469616c697a61626c653a20636f6e747261637420697320616c72656160448201526d191e481a5b9a5d1a585b1a5e995960921b606482015260840161060c565b6000805460ff191660011790558015611158576000805461ff0019166101001790555b611160611c35565b611168611c64565b8015610b4f576000805461ff0019169055604051600181527f7f26b83ff96e1f2b6a682f133852f6798a09c465da95921460cefb38474024989060200160405180910390a150565b60cc546001600160a01b031633146111da5760405162461bcd60e51b815260040161060c906125ff565b600091825260cf602052604090912060050180546001600160a01b0319166001600160a01b03909216919091179055565b6003845110156112585760405162461bcd60e51b815260206004820152601860248201527710dbdb5b5d5b9a5d1e481b985b59481d1bdbc81cda1bdc9d60421b604482015260640161060c565b600085815260cf6020526040902060018101546201000090046001600160a01b031633146112c15760405162461bcd60e51b81526020600482015260166024820152754e6f2061636365737320746f20636f6d6d756e69747960501b604482015260640161060c565b84516112d69060068301906020880190611f52565b5083516112ec9060088301906020870190611f52565b50828160010160016101000a81548160ff021916908360018111156113135761131361205d565b0217905550815161132d9060078301906020850190611f52565b50505050505050565b600083815260cf60205260408120600101546201000090046001600160a01b031633146113915760405162461bcd60e51b81526020600482015260096024820152684e6f2061636365737360b81b604482015260640161060c565b60cd5460405163dad22e2160e01b8152600481018690526024810185905263ffffffff841660448201526001600160a01b039091169063dad22e21906064016020604051808303816000875af11580156113ef573d6000803e3d6000fd5b505050506040513d601f19601f820116820180604052508101906114139190612750565b90505b9392505050565b60d06020528160005260406000208181548110610b6e57600080fd5b60c9546001600160a01b031633146114635760405162461bcd60e51b815260040161060c906125ff565b600091825260cf602052604090912060020180546001600160a01b0319166001600160a01b03909216919091179055565b60cf602052600090815260409020805460018201546002830154600384015460048501546005860154600687018054969760ff808816986101008904909116976001600160a01b03620100009091048116978116968116958116941692906114fb9061264c565b80601f01602080910402602001604051908101604052809291908181526020018280546115279061264c565b80156115745780601f1061154957610100808354040283529160200191611574565b820191906000526020600020905b81548152906001019060200180831161155757829003601f168201915b5050505050908060070180546115899061264c565b80601f01602080910402602001604051908101604052809291908181526020018280546115b59061264c565b80156116025780601f106115d757610100808354040283529160200191611602565b820191906000526020600020905b8154815290600101906020018083116115e557829003601f168201915b5050505050908060080180546116179061264c565b80601f01602080910402602001604051908101604052809291908181526020018280546116439061264c565b80156116905780601f1061166557610100808354040283529160200191611690565b820191906000526020600020905b81548152906001019060200180831161167357829003601f168201915b505050505090508b565b60ca546001600160a01b031633146116c45760405162461bcd60e51b815260040161060c906125ff565b600091825260cf602052604090912060030180546001600160a01b0319166001600160a01b03909216919091179055565b60038551116117415760405162461bcd60e51b815260206004820152601860248201527710dbdb5b5d5b9a5d1e481b985b59481d1bdbc81cda1bdc9d60421b604482015260640161060c565b600160ce60008282546117549190612769565b909155505060ce54604080516101608101909152818152602081018560148111156117815761178161205d565b81526020018460018111156117985761179861205d565b81523360208083019190915260006040808401829052606084018290526080840182905260a0840182905260c084018b905260e0840187905261010090930189905284815260cf825291909120825181559082015160018083018054909160ff1991909116908360148111156118105761181061205d565b021790555060408201518160010160016101000a81548160ff0219169083600181111561183f5761183f61205d565b021790555060608201516001820180546001600160a01b03928316620100000262010000600160b01b031990911617905560808301516002830180549183166001600160a01b031992831617905560a084015160038401805491841691831691909117905560c084015160048401805491841691831691909117905560e084015160058401805491909316911617905561010082015180516118eb916006840191602090910190611f52565b506101208201518051611908916007840191602090910190611f52565b506101408201518051611925916008840191602090910190611f52565b505033600090815260d060209081526040822080546001810182559083529082200183905560d191508560148111156119605761196061205d565b60148111156119715761197161205d565b81526020808201929092526040016000908120805460018101825590825291902001555050505050565b6119a3611a11565b6001600160a01b038116611a085760405162461bcd60e51b815260206004820152602660248201527f4f776e61626c653a206e6577206f776e657220697320746865207a65726f206160448201526564647265737360d01b606482015260840161060c565b610b4f81611be3565b6033546001600160a01b031633146110965760405162461bcd60e51b815260206004820181905260248201527f4f776e61626c653a2063616c6c6572206973206e6f7420746865206f776e6572604482015260640161060c565b610b4f611a11565b7f4910fdfa16fed3260ed0e7147f7cc6da11a60208b5b9406d12a635614ffd91435460ff1615611aab57611aa683611c8b565b505050565b826001600160a01b03166352d1902d6040518163ffffffff1660e01b8152600401602060405180830381865afa925050508015611b05575060408051601f3d908101601f19168201909252611b0291810190612750565b60015b611b685760405162461bcd60e51b815260206004820152602e60248201527f45524331393637557067726164653a206e657720696d706c656d656e7461746960448201526d6f6e206973206e6f74205555505360901b606482015260840161060c565b6000805160206127fc8339815191528114611bd75760405162461bcd60e51b815260206004820152602960248201527f45524331393637557067726164653a20756e737570706f727465642070726f786044820152681a58589b195555525160ba1b606482015260840161060c565b50611aa6838383611d27565b603380546001600160a01b038381166001600160a01b0319831681179093556040519116919082907f8be0079c531659141344cd1fd0a4f28419497f9722a3daafe3b4186f6b6457e090600090a35050565b600054610100900460ff16611c5c5760405162461bcd60e51b815260040161060c90612781565b611096611d52565b600054610100900460ff166110965760405162461bcd60e51b815260040161060c90612781565b6001600160a01b0381163b611cf85760405162461bcd60e51b815260206004820152602d60248201527f455243313936373a206e657720696d706c656d656e746174696f6e206973206e60448201526c1bdd08184818dbdb9d1c9858dd609a1b606482015260840161060c565b6000805160206127fc83398151915280546001600160a01b0319166001600160a01b0392909216919091179055565b611d3083611d82565b600082511180611d3d5750805b15611aa657611d4c8383611dc2565b50505050565b600054610100900460ff16611d795760405162461bcd60e51b815260040161060c90612781565b61109633611be3565b611d8b81611c8b565b6040516001600160a01b038216907fbc7cd75a20ee27fd9adebab32041f755214dbc6bffa90cc0225b39da2e5c2d3b90600090a250565b60606001600160a01b0383163b611e2a5760405162461bcd60e51b815260206004820152602660248201527f416464726573733a2064656c65676174652063616c6c20746f206e6f6e2d636f6044820152651b9d1c9858dd60d21b606482015260840161060c565b600080846001600160a01b031684604051611e4591906127cc565b600060405180830381855af49150503d8060008114611e80576040519150601f19603f3d011682016040523d82523d6000602084013e611e85565b606091505b5091509150611ead828260405180606001604052806027815260200161281c60279139611eb6565b95945050505050565b60608315611ec5575081611416565b6114168383815115611eda5781518083602001fd5b8060405162461bcd60e51b815260040161060c91906127e8565b604080516101608101909152600080825260208201908152602001600081526000602082018190526040820181905260608083018290526080830182905260a083019190915260c0820181905260e082018190526101009091015290565b828054611f5e9061264c565b90600052602060002090601f016020900481019282611f805760008555611fc6565b82601f10611f9957805160ff1916838001178555611fc6565b82800160010185558215611fc6579182015b82811115611fc6578251825591602001919060010190611fab565b50611fd2929150611fd6565b5090565b5b80821115611fd25760008155600101611fd7565b80356001600160a01b038116811461200257600080fd5b919050565b6000806040838503121561201a57600080fd5b8235915061202a60208401611feb565b90509250929050565b80356015811061200257600080fd5b60006020828403121561205457600080fd5b61141682612033565b634e487b7160e01b600052602160045260246000fd5b601581106120835761208361205d565b9052565b600281106120835761208361205d565b60005b838110156120b257818101518382015260200161209a565b83811115611d4c5750506000910152565b600081518084526120db816020860160208601612097565b601f01601f19169290920160200192915050565b60006020808301818452808551808352604092508286019150828160051b87010184880160005b8381101561220357603f19898403018552815161016081518552888201516121408a870182612073565b508782015161215189870182612087565b506060828101516001600160a01b039081169187019190915260808084015182169087015260a08084015182169087015260c08084015182169087015260e08084015190911690860152610100808301518187018390526121b4838801826120c3565b9250505061012080830151868303828801526121d083826120c3565b9250505061014080830151925085820381870152506121ef81836120c3565b968901969450505090860190600101612116565b509098975050505050505050565b600080600080600060a0868803121561222957600080fd5b61223286611feb565b945061224060208701611feb565b935061224e60408701611feb565b925061225c60608701611feb565b915061226a60808701611feb565b90509295509295909350565b60006020828403121561228857600080fd5b61141682611feb565b600080604083850312156122a457600080fd5b6122ad83612033565b946020939093013593505050565b634e487b7160e01b600052604160045260246000fd5b600067ffffffffffffffff808411156122ec576122ec6122bb565b604051601f8501601f19908116603f01168101908282118183101715612314576123146122bb565b8160405280935085815286868601111561232d57600080fd5b858560208301376000602087830101525050509392505050565b6000806040838503121561235a57600080fd5b61236383611feb565b9150602083013567ffffffffffffffff81111561237f57600080fd5b8301601f8101851361239057600080fd5b61239f858235602084016122d1565b9150509250929050565b600082601f8301126123ba57600080fd5b611416838335602085016122d1565b80356002811061200257600080fd5b600080600080600060a086880312156123f057600080fd5b85359450602086013567ffffffffffffffff8082111561240f57600080fd5b61241b89838a016123a9565b9550604088013591508082111561243157600080fd5b61243d89838a016123a9565b945061244b606089016123c9565b9350608088013591508082111561246157600080fd5b5061246e888289016123a9565b9150509295509295909350565b60006020828403121561248d57600080fd5b5035919050565b6000806000606084860312156124a957600080fd5b8335925060208401359150604084013563ffffffff811681146124cb57600080fd5b809150509250925092565b600080604083850312156124e957600080fd5b6122ad83611feb565b60006101608d8352612507602084018e612073565b612514604084018d612087565b6001600160a01b038b811660608501528a8116608085015289811660a085015288811660c0850152871660e08401526101008301819052612557818401876120c3565b905082810361012084015261256c81866120c3565b905082810361014084015261258181856120c3565b9e9d5050505050505050505050505050565b600080600080600060a086880312156125ab57600080fd5b853567ffffffffffffffff808211156125c357600080fd5b6125cf89838a016123a9565b965060208801359150808211156125e557600080fd5b6125f189838a016123a9565b955061243d60408901612033565b60208082526019908201527f4e6f2041636365737320666f72207468697320616374696f6e00000000000000604082015260600190565b634e487b7160e01b600052603260045260246000fd5b600181811c9082168061266057607f821691505b6020821081141561268157634e487b7160e01b600052602260045260246000fd5b50919050565b634e487b7160e01b600052601160045260246000fd5b60006000198214156126b1576126b1612687565b5060010190565b6020808252602c908201527f46756e6374696f6e206d7573742062652063616c6c6564207468726f7567682060408201526b19195b1959d85d1958d85b1b60a21b606082015260800190565b6020808252602c908201527f46756e6374696f6e206d7573742062652063616c6c6564207468726f7567682060408201526b6163746976652070726f787960a01b606082015260800190565b60006020828403121561276257600080fd5b5051919050565b6000821982111561277c5761277c612687565b500190565b6020808252602b908201527f496e697469616c697a61626c653a20636f6e7472616374206973206e6f74206960408201526a6e697469616c697a696e6760a81b606082015260800190565b600082516127de818460208701612097565b9190910192915050565b60208152600061141660208301846120c356fe360894a13ba1a3210667c828492db98dca3e2076cc3735a920a3ca505d382bbc416464726573733a206c6f772d6c6576656c2064656c65676174652063616c6c206661696c6564a2646970667358221220d8bc0861e6bf72e13c9206c50e9f46d9dd451eca9e88cdf765331a21e2c9bcca64736f6c634300080c0033",
  "linkReferences": {},
  "deployedLinkReferences": {}
}