{
  "_format": "hh-sol-artifact-1",
  "contractName": "MainContract",
  "sourceName": "src/backend/contracts/MainContract.sol",
  "abi": [
    {
      "inputs": [],
      "stateMutability": "nonpayable",
      "type": "constructor"
    },
    {
      "anonymous": false,
      "inputs": [
        {
          "indexed": false,
          "internalType": "address",
          "name": "previousAdmin",
          "type": "address"
        },
        {
          "indexed": false,
          "internalType": "address",
          "name": "newAdmin",
          "type": "address"
        }
      ],
      "name": "AdminChanged",
      "type": "event"
    },
    {
      "anonymous": false,
      "inputs": [
        {
          "indexed": true,
          "internalType": "address",
          "name": "beacon",
          "type": "address"
        }
      ],
      "name": "BeaconUpgraded",
      "type": "event"
    },
    {
      "anonymous": false,
      "inputs": [
        {
          "indexed": false,
          "internalType": "uint8",
          "name": "version",
          "type": "uint8"
        }
      ],
      "name": "Initialized",
      "type": "event"
    },
    {
      "anonymous": false,
      "inputs": [
        {
          "indexed": true,
          "internalType": "address",
          "name": "previousOwner",
          "type": "address"
        },
        {
          "indexed": true,
          "internalType": "address",
          "name": "newOwner",
          "type": "address"
        }
      ],
      "name": "OwnershipTransferred",
      "type": "event"
    },
    {
      "anonymous": false,
      "inputs": [
        {
          "indexed": true,
          "internalType": "address",
          "name": "implementation",
          "type": "address"
        }
      ],
      "name": "Upgraded",
      "type": "event"
    },
    {
      "inputs": [
        {
          "internalType": "enum MainContract.CommunityCategory",
          "name": "",
          "type": "uint8"
        },
        {
          "internalType": "uint256",
          "name": "",
          "type": "uint256"
        }
      ],
      "name": "categoryCommunities",
      "outputs": [
        {
          "internalType": "uint256",
          "name": "",
          "type": "uint256"
        }
      ],
      "stateMutability": "view",
      "type": "function"
    },
    {
      "inputs": [],
      "name": "chainlinkVRFContract",
      "outputs": [
        {
          "internalType": "address",
          "name": "",
          "type": "address"
        }
      ],
      "stateMutability": "view",
      "type": "function"
    },
    {
      "inputs": [
        {
          "internalType": "uint256",
          "name": "",
          "type": "uint256"
        }
      ],
      "name": "communities",
      "outputs": [
        {
          "internalType": "uint256",
          "name": "id",
          "type": "uint256"
        },
        {
          "internalType": "enum MainContract.CommunityCategory",
          "name": "category",
          "type": "uint8"
        },
        {
          "internalType": "enum MainContract.CommunityPrivacy",
          "name": "privacy",
          "type": "uint8"
        },
        {
          "internalType": "address",
          "name": "owner",
          "type": "address"
        },
        {
          "internalType": "address",
          "name": "nftContract",
          "type": "address"
        },
        {
          "internalType": "address",
          "name": "ftContract",
          "type": "address"
        },
        {
          "internalType": "address",
          "name": "daoContract",
          "type": "address"
        },
        {
          "internalType": "address",
          "name": "timeLockContract",
          "type": "address"
        },
        {
          "internalType": "string",
          "name": "name",
          "type": "string"
        },
        {
          "internalType": "string",
          "name": "description",
          "type": "string"
        },
        {
          "internalType": "string",
          "name": "logo",
          "type": "string"
        }
      ],
      "stateMutability": "view",
      "type": "function"
    },
    {
      "inputs": [],
      "name": "communityCount",
      "outputs": [
        {
          "internalType": "uint256",
          "name": "",
          "type": "uint256"
        }
      ],
      "stateMutability": "view",
      "type": "function"
    },
    {
      "inputs": [
        {
          "internalType": "string",
          "name": "_name",
          "type": "string"
        },
        {
          "internalType": "string",
          "name": "_logo",
          "type": "string"
        },
        {
          "internalType": "enum MainContract.CommunityCategory",
          "name": "_category",
          "type": "uint8"
        },
        {
          "internalType": "enum MainContract.CommunityPrivacy",
          "name": "_privacy",
          "type": "uint8"
        },
        {
          "internalType": "string",
          "name": "_description",
          "type": "string"
        }
      ],
      "name": "createCommunity",
      "outputs": [],
      "stateMutability": "nonpayable",
      "type": "function"
    },
    {
      "inputs": [],
      "name": "factoryDAOContract",
      "outputs": [
        {
          "internalType": "address",
          "name": "",
          "type": "address"
        }
      ],
      "stateMutability": "view",
      "type": "function"
    },
    {
      "inputs": [],
      "name": "factoryFTContract",
      "outputs": [
        {
          "internalType": "address",
          "name": "",
          "type": "address"
        }
      ],
      "stateMutability": "view",
      "type": "function"
    },
    {
      "inputs": [],
      "name": "factoryNFTContract",
      "outputs": [
        {
          "internalType": "address",
          "name": "",
          "type": "address"
        }
      ],
      "stateMutability": "view",
      "type": "function"
    },
    {
      "inputs": [],
      "name": "factoryTimeLockContract",
      "outputs": [
        {
          "internalType": "address",
          "name": "",
          "type": "address"
        }
      ],
      "stateMutability": "view",
      "type": "function"
    },
    {
      "inputs": [
        {
          "internalType": "enum MainContract.CommunityCategory",
          "name": "_categoryId",
          "type": "uint8"
        }
      ],
      "name": "getCategoryCommunities",
      "outputs": [
        {
          "components": [
            {
              "internalType": "uint256",
              "name": "id",
              "type": "uint256"
            },
            {
              "internalType": "enum MainContract.CommunityCategory",
              "name": "category",
              "type": "uint8"
            },
            {
              "internalType": "enum MainContract.CommunityPrivacy",
              "name": "privacy",
              "type": "uint8"
            },
            {
              "internalType": "address",
              "name": "owner",
              "type": "address"
            },
            {
              "internalType": "address",
              "name": "nftContract",
              "type": "address"
            },
            {
              "internalType": "address",
              "name": "ftContract",
              "type": "address"
            },
            {
              "internalType": "address",
              "name": "daoContract",
              "type": "address"
            },
            {
              "internalType": "address",
              "name": "timeLockContract",
              "type": "address"
            },
            {
              "internalType": "string",
              "name": "name",
              "type": "string"
            },
            {
              "internalType": "string",
              "name": "description",
              "type": "string"
            },
            {
              "internalType": "string",
              "name": "logo",
              "type": "string"
            }
          ],
          "internalType": "struct MainContract.Community[]",
          "name": "",
          "type": "tuple[]"
        }
      ],
      "stateMutability": "view",
      "type": "function"
    },
    {
      "inputs": [
        {
          "internalType": "address",
          "name": "_owner",
          "type": "address"
        }
      ],
      "name": "getUserCommunities",
      "outputs": [
        {
          "components": [
            {
              "internalType": "uint256",
              "name": "id",
              "type": "uint256"
            },
            {
              "internalType": "enum MainContract.CommunityCategory",
              "name": "category",
              "type": "uint8"
            },
            {
              "internalType": "enum MainContract.CommunityPrivacy",
              "name": "privacy",
              "type": "uint8"
            },
            {
              "internalType": "address",
              "name": "owner",
              "type": "address"
            },
            {
              "internalType": "address",
              "name": "nftContract",
              "type": "address"
            },
            {
              "internalType": "address",
              "name": "ftContract",
              "type": "address"
            },
            {
              "internalType": "address",
              "name": "daoContract",
              "type": "address"
            },
            {
              "internalType": "address",
              "name": "timeLockContract",
              "type": "address"
            },
            {
              "internalType": "string",
              "name": "name",
              "type": "string"
            },
            {
              "internalType": "string",
              "name": "description",
              "type": "string"
            },
            {
              "internalType": "string",
              "name": "logo",
              "type": "string"
            }
          ],
          "internalType": "struct MainContract.Community[]",
          "name": "",
          "type": "tuple[]"
        }
      ],
      "stateMutability": "view",
      "type": "function"
    },
    {
      "inputs": [],
      "name": "initialize",
      "outputs": [],
      "stateMutability": "nonpayable",
      "type": "function"
    },
    {
      "inputs": [
        {
          "internalType": "uint256",
          "name": "_id",
          "type": "uint256"
        },
        {
          "internalType": "address",
          "name": "checkAddress",
          "type": "address"
        }
      ],
      "name": "isCommunityOwner",
      "outputs": [
        {
          "internalType": "bool",
          "name": "",
          "type": "bool"
        }
      ],
      "stateMutability": "view",
      "type": "function"
    },
    {
      "inputs": [
        {
          "internalType": "uint256",
          "name": "_id",
          "type": "uint256"
        }
      ],
      "name": "isContractExists",
      "outputs": [
        {
          "internalType": "bool",
          "name": "",
          "type": "bool"
        },
        {
          "internalType": "bool",
          "name": "",
          "type": "bool"
        },
        {
          "internalType": "bool",
          "name": "",
          "type": "bool"
        }
      ],
      "stateMutability": "view",
      "type": "function"
    },
    {
      "inputs": [
        {
          "internalType": "uint256",
          "name": "_communityId",
          "type": "uint256"
        },
        {
          "internalType": "uint256",
          "name": "_maxValue",
          "type": "uint256"
        },
        {
          "internalType": "uint32",
          "name": "_winnersAmount",
          "type": "uint32"
        }
      ],
      "name": "newRaffle",
      "outputs": [],
      "stateMutability": "nonpayable",
      "type": "function"
    },
    {
      "inputs": [],
      "name": "owner",
      "outputs": [
        {
          "internalType": "address",
          "name": "",
          "type": "address"
        }
      ],
      "stateMutability": "view",
      "type": "function"
    },
    {
      "inputs": [],
      "name": "proxiableUUID",
      "outputs": [
        {
          "internalType": "bytes32",
          "name": "",
          "type": "bytes32"
        }
      ],
      "stateMutability": "view",
      "type": "function"
    },
    {
      "inputs": [],
      "name": "renounceOwnership",
      "outputs": [],
      "stateMutability": "nonpayable",
      "type": "function"
    },
    {
      "inputs": [
        {
          "internalType": "address",
          "name": "newOwner",
          "type": "address"
        }
      ],
      "name": "transferOwnership",
      "outputs": [],
      "stateMutability": "nonpayable",
      "type": "function"
    },
    {
      "inputs": [
        {
          "internalType": "uint256",
          "name": "_id",
          "type": "uint256"
        },
        {
          "internalType": "string",
          "name": "_name",
          "type": "string"
        },
        {
          "internalType": "string",
          "name": "_logo",
          "type": "string"
        },
        {
          "internalType": "enum MainContract.CommunityPrivacy",
          "name": "_privacy",
          "type": "uint8"
        },
        {
          "internalType": "string",
          "name": "_description",
          "type": "string"
        }
      ],
      "name": "updateCommunity",
      "outputs": [],
      "stateMutability": "nonpayable",
      "type": "function"
    },
    {
      "inputs": [
        {
          "internalType": "uint256",
          "name": "_id",
          "type": "uint256"
        },
        {
          "internalType": "address",
          "name": "_daoContract",
          "type": "address"
        }
      ],
      "name": "updateCommunityDAO",
      "outputs": [],
      "stateMutability": "nonpayable",
      "type": "function"
    },
    {
      "inputs": [
        {
          "internalType": "uint256",
          "name": "_id",
          "type": "uint256"
        },
        {
          "internalType": "address",
          "name": "_ftContract",
          "type": "address"
        }
      ],
      "name": "updateCommunityFT",
      "outputs": [],
      "stateMutability": "nonpayable",
      "type": "function"
    },
    {
      "inputs": [
        {
          "internalType": "uint256",
          "name": "_id",
          "type": "uint256"
        },
        {
          "internalType": "address",
          "name": "_nftContract",
          "type": "address"
        }
      ],
      "name": "updateCommunityNFT",
      "outputs": [],
      "stateMutability": "nonpayable",
      "type": "function"
    },
    {
      "inputs": [
        {
          "internalType": "uint256",
          "name": "_id",
          "type": "uint256"
        },
        {
          "internalType": "address",
          "name": "_timeLockContract",
          "type": "address"
        }
      ],
      "name": "updateCommunityTokenLock",
      "outputs": [],
      "stateMutability": "nonpayable",
      "type": "function"
    },
    {
      "inputs": [
        {
          "internalType": "address",
          "name": "_factoryNFTContract",
          "type": "address"
        },
        {
          "internalType": "address",
          "name": "_factoryFTContract",
          "type": "address"
        },
        {
          "internalType": "address",
          "name": "_factoryDAOContract",
          "type": "address"
        },
        {
          "internalType": "address",
          "name": "_factoryTimeLockContract",
          "type": "address"
        },
        {
          "internalType": "address",
          "name": "_chainlinkVRFContract",
          "type": "address"
        }
      ],
      "name": "updateFactoryContractsAddress",
      "outputs": [],
      "stateMutability": "nonpayable",
      "type": "function"
    },
    {
      "inputs": [
        {
          "internalType": "address",
          "name": "newImplementation",
          "type": "address"
        }
      ],
      "name": "upgradeTo",
      "outputs": [],
      "stateMutability": "nonpayable",
      "type": "function"
    },
    {
      "inputs": [
        {
          "internalType": "address",
          "name": "newImplementation",
          "type": "address"
        },
        {
          "internalType": "bytes",
          "name": "data",
          "type": "bytes"
        }
      ],
      "name": "upgradeToAndCall",
      "outputs": [],
      "stateMutability": "payable",
      "type": "function"
    },
    {
      "inputs": [
        {
          "internalType": "address",
          "name": "",
          "type": "address"
        },
        {
          "internalType": "uint256",
          "name": "",
          "type": "uint256"
        }
      ],
      "name": "userCommunities",
      "outputs": [
        {
          "internalType": "uint256",
          "name": "",
          "type": "uint256"
        }
      ],
      "stateMutability": "view",
      "type": "function"
    }
  ],
  "bytecode": "0x60a0604052306080523480156200001557600080fd5b506200002062000026565b620000e8565b600054610100900460ff1615620000935760405162461bcd60e51b815260206004820152602760248201527f496e697469616c697a61626c653a20636f6e747261637420697320696e697469604482015266616c697a696e6760c81b606482015260840160405180910390fd5b60005460ff9081161015620000e6576000805460ff191660ff9081179091556040519081527f7f26b83ff96e1f2b6a682f133852f6798a09c465da95921460cefb38474024989060200160405180910390a15b565b60805161299e6200012060003960008181610a7d01528181610abd01528181610b8e01528181610bce0152610c61015261299e6000f3fe6080604052600436106101b75760003560e01c8063aee84613116100ec578063e590b56a1161008a578063ec30b85c11610064578063ec30b85c1461052a578063f2fde38b14610582578063f4704e05146105a2578063f6842b30146105c257600080fd5b8063e590b56a146104b3578063e87d940b146104ea578063e8cc13c01461050a57600080fd5b8063be37aeed116100c6578063be37aeed14610433578063c8202f4a14610453578063dd44600114610473578063e00f78651461049357600080fd5b8063aee846131461038a578063af1af3dc146103a0578063b64b7f76146103c057600080fd5b80636543286f1161015957806384d992a01161013357806384d992a0146102f45780638845f7c61461032c5780638da5cb5b1461034c578063ab53cd931461036a57600080fd5b80636543286f146102aa578063715018a6146102ca5780638129fc1c146102df57600080fd5b80633659cfe6116101955780633659cfe6146102345780633c44f002146102545780634f1ef2861461028257806352d1902d1461029557600080fd5b80631c174e9f146101bc578063266682cb146101de57806334ff125114610214575b600080fd5b3480156101c857600080fd5b506101dc6101d7366004612103565b6105e2565b005b3480156101ea57600080fd5b506101fe6101f936600461213e565b610646565b60405161020b91906121eb565b60405180910390f35b34801561022057600080fd5b506101dc61022f36600461230d565b610a0b565b34801561024057600080fd5b506101dc61024f366004612372565b610a72565b34801561026057600080fd5b5061027461026f36600461238d565b610b52565b60405190815260200161020b565b6101dc610290366004612443565b610b83565b3480156102a157600080fd5b50610274610c54565b3480156102b657600080fd5b506101fe6102c5366004612372565b610d07565b3480156102d657600080fd5b506101dc611084565b3480156102eb57600080fd5b506101dc611098565b34801561030057600080fd5b5060cb54610314906001600160a01b031681565b6040516001600160a01b03909116815260200161020b565b34801561033857600080fd5b5060cc54610314906001600160a01b031681565b34801561035857600080fd5b506033546001600160a01b0316610314565b34801561037657600080fd5b506101dc610385366004612103565b6111b0565b34801561039657600080fd5b5061027460ce5481565b3480156103ac57600080fd5b506101dc6103bb3660046124d4565b61120b565b3480156103cc57600080fd5b506104146103db366004612577565b600090815260cf60205260409020600281015460038201546004909201546001600160a01b039182161515939282161515929116151590565b604080519315158452911515602084015215159082015260600161020b565b34801561043f57600080fd5b506101dc61044e366004612590565b611336565b34801561045f57600080fd5b5060cd54610314906001600160a01b031681565b34801561047f57600080fd5b5061027461048e3660046125d2565b6114ad565b34801561049f57600080fd5b506101dc6104ae366004612103565b6114c9565b3480156104bf57600080fd5b506104d36104ce366004612577565b611524565b60405161020b9b9a999897969594939291906125ee565b3480156104f657600080fd5b506101dc610505366004612103565b61172a565b34801561051657600080fd5b506101dc61052536600461268f565b611785565b34801561053657600080fd5b50610572610545366004612103565b600082815260cf60205260409020600101546201000090046001600160a01b039081169082161492915050565b604051901515815260200161020b565b34801561058e57600080fd5b506101dc61059d366004612372565b611a2b565b3480156105ae57600080fd5b5060ca54610314906001600160a01b031681565b3480156105ce57600080fd5b5060c954610314906001600160a01b031681565b60cb546001600160a01b031633146106155760405162461bcd60e51b815260040161060c906126fb565b60405180910390fd5b600091825260cf602052604090912060040180546001600160a01b0319166001600160a01b03909216919091179055565b6060600060d1600084601481111561066057610660612159565b601481111561067157610671612159565b815260200190815260200160002080549050905060008167ffffffffffffffff8111156106a0576106a06123b7565b6040519080825280602002602001820160405280156106d957816020015b6106c6611ff0565b8152602001906001900390816106be5790505b50905060005b82811015610a035760cf600060d1600088601481111561070157610701612159565b601481111561071257610712612159565b8152602001908152602001600020838154811061073157610731612732565b9060005260206000200154815260200190815260200160002060405180610160016040529081600082015481526020016001820160009054906101000a900460ff16601481111561078457610784612159565b601481111561079557610795612159565b81526020016001820160019054906101000a900460ff1660018111156107bd576107bd612159565b60018111156107ce576107ce612159565b815260018201546001600160a01b03620100009091048116602083015260028301548116604083015260038301548116606083015260048301548116608083015260058301541660a082015260068201805460c09092019161082f90612748565b80601f016020809104026020016040519081016040528092919081815260200182805461085b90612748565b80156108a85780601f1061087d576101008083540402835291602001916108a8565b820191906000526020600020905b81548152906001019060200180831161088b57829003601f168201915b505050505081526020016007820180546108c190612748565b80601f01602080910402602001604051908101604052809291908181526020018280546108ed90612748565b801561093a5780601f1061090f5761010080835404028352916020019161093a565b820191906000526020600020905b81548152906001019060200180831161091d57829003601f168201915b5050505050815260200160088201805461095390612748565b80601f016020809104026020016040519081016040528092919081815260200182805461097f90612748565b80156109cc5780601f106109a1576101008083540402835291602001916109cc565b820191906000526020600020905b8154815290600101906020018083116109af57829003601f168201915b5050505050815250508282815181106109e7576109e7612732565b6020026020010181905250806109fc90612799565b90506106df565b509392505050565b610a13611aa1565b60c980546001600160a01b03199081166001600160a01b039788161790915560ca805482169587169590951790945560cb805485169386169390931790925560cc8054841691851691909117905560cd80549092169216919091179055565b306001600160a01b037f0000000000000000000000000000000000000000000000000000000000000000161415610abb5760405162461bcd60e51b815260040161060c906127b4565b7f00000000000000000000000000000000000000000000000000000000000000006001600160a01b0316610b04600080516020612922833981519152546001600160a01b031690565b6001600160a01b031614610b2a5760405162461bcd60e51b815260040161060c90612800565b610b3381611afb565b60408051600080825260208201909252610b4f91839190611b03565b50565b60d16020528160005260406000208181548110610b6e57600080fd5b90600052602060002001600091509150505481565b306001600160a01b037f0000000000000000000000000000000000000000000000000000000000000000161415610bcc5760405162461bcd60e51b815260040161060c906127b4565b7f00000000000000000000000000000000000000000000000000000000000000006001600160a01b0316610c15600080516020612922833981519152546001600160a01b031690565b6001600160a01b031614610c3b5760405162461bcd60e51b815260040161060c90612800565b610c4482611afb565b610c5082826001611b03565b5050565b6000306001600160a01b037f00000000000000000000000000000000000000000000000000000000000000001614610cf45760405162461bcd60e51b815260206004820152603860248201527f555550535570677261646561626c653a206d757374206e6f742062652063616c60448201527f6c6564207468726f7567682064656c656761746563616c6c0000000000000000606482015260840161060c565b5060008051602061292283398151915290565b6001600160a01b038116600090815260d060205260408120546060918167ffffffffffffffff811115610d3c57610d3c6123b7565b604051908082528060200260200182016040528015610d7557816020015b610d62611ff0565b815260200190600190039081610d5a5790505b50905060005b82811015610a03576001600160a01b038516600090815260d060205260408120805460cf92919084908110610db257610db2612732565b9060005260206000200154815260200190815260200160002060405180610160016040529081600082015481526020016001820160009054906101000a900460ff166014811115610e0557610e05612159565b6014811115610e1657610e16612159565b81526020016001820160019054906101000a900460ff166001811115610e3e57610e3e612159565b6001811115610e4f57610e4f612159565b815260018201546001600160a01b03620100009091048116602083015260028301548116604083015260038301548116606083015260048301548116608083015260058301541660a082015260068201805460c090920191610eb090612748565b80601f0160208091040260200160405190810160405280929190818152602001828054610edc90612748565b8015610f295780601f10610efe57610100808354040283529160200191610f29565b820191906000526020600020905b815481529060010190602001808311610f0c57829003601f168201915b50505050508152602001600782018054610f4290612748565b80601f0160208091040260200160405190810160405280929190818152602001828054610f6e90612748565b8015610fbb5780601f10610f9057610100808354040283529160200191610fbb565b820191906000526020600020905b815481529060010190602001808311610f9e57829003601f168201915b50505050508152602001600882018054610fd490612748565b80601f016020809104026020016040519081016040528092919081815260200182805461100090612748565b801561104d5780601f106110225761010080835404028352916020019161104d565b820191906000526020600020905b81548152906001019060200180831161103057829003601f168201915b50505050508152505082828151811061106857611068612732565b60200260200101819052508061107d90612799565b9050610d7b565b61108c611aa1565b6110966000611c73565b565b600054610100900460ff16158080156110b85750600054600160ff909116105b806110d25750303b1580156110d2575060005460ff166001145b6111355760405162461bcd60e51b815260206004820152602e60248201527f496e697469616c697a61626c653a20636f6e747261637420697320616c72656160448201526d191e481a5b9a5d1a585b1a5e995960921b606482015260840161060c565b6000805460ff191660011790558015611158576000805461ff0019166101001790555b611160611cc5565b611168611cf4565b8015610b4f576000805461ff0019169055604051600181527f7f26b83ff96e1f2b6a682f133852f6798a09c465da95921460cefb38474024989060200160405180910390a150565b60cc546001600160a01b031633146111da5760405162461bcd60e51b815260040161060c906126fb565b600091825260cf602052604090912060050180546001600160a01b0319166001600160a01b03909216919091179055565b6003845110156112585760405162461bcd60e51b815260206004820152601860248201527710dbdb5b5d5b9a5d1e481b985b59481d1bdbc81cda1bdc9d60421b604482015260640161060c565b600085815260cf6020526040902060018101546201000090046001600160a01b031633146112c15760405162461bcd60e51b81526020600482015260166024820152754e6f2061636365737320746f20636f6d6d756e69747960501b604482015260640161060c565b84516112d6906006830190602088019061204e565b5083516112ec906008830190602087019061204e565b50828160010160016101000a81548160ff0219169083600181111561131357611313612159565b0217905550815161132d906007830190602085019061204e565b50505050505050565b61139e6040518060400160405280601f81526020017f636f6d6d756e69746965735b5f636f6d6d756e69747949645d2e6f776e65720081525060cf600086815260200190815260200160002060010160029054906101000a90046001600160a01b0316611d1b565b6113ca6040518060400160405280600a81526020016936b9b39739b2b73232b960b11b81525033611d1b565b600083815260cf60205260409020600101546201000090046001600160a01b031633146114255760405162461bcd60e51b81526020600482015260096024820152684e6f2061636365737360b81b604482015260640161060c565b60cd5460405163dad22e2160e01b8152600481018590526024810184905263ffffffff831660448201526001600160a01b039091169063dad22e21906064016020604051808303816000875af1158015611483573d6000803e3d6000fd5b505050506040513d601f19601f820116820180604052508101906114a7919061284c565b50505050565b60d06020528160005260406000208181548110610b6e57600080fd5b60c9546001600160a01b031633146114f35760405162461bcd60e51b815260040161060c906126fb565b600091825260cf602052604090912060020180546001600160a01b0319166001600160a01b03909216919091179055565b60cf602052600090815260409020805460018201546002830154600384015460048501546005860154600687018054969760ff808816986101008904909116976001600160a01b036201000090910481169781169681169581169416929061158b90612748565b80601f01602080910402602001604051908101604052809291908181526020018280546115b790612748565b80156116045780601f106115d957610100808354040283529160200191611604565b820191906000526020600020905b8154815290600101906020018083116115e757829003601f168201915b50505050509080600701805461161990612748565b80601f016020809104026020016040519081016040528092919081815260200182805461164590612748565b80156116925780601f1061166757610100808354040283529160200191611692565b820191906000526020600020905b81548152906001019060200180831161167557829003601f168201915b5050505050908060080180546116a790612748565b80601f01602080910402602001604051908101604052809291908181526020018280546116d390612748565b80156117205780601f106116f557610100808354040283529160200191611720565b820191906000526020600020905b81548152906001019060200180831161170357829003601f168201915b505050505090508b565b60ca546001600160a01b031633146117545760405162461bcd60e51b815260040161060c906126fb565b600091825260cf602052604090912060030180546001600160a01b0319166001600160a01b03909216919091179055565b60038551116117d15760405162461bcd60e51b815260206004820152601860248201527710dbdb5b5d5b9a5d1e481b985b59481d1bdbc81cda1bdc9d60421b604482015260640161060c565b600160ce60008282546117e49190612865565b909155505060ce546040805161016081019091528181526020810185601481111561181157611811612159565b815260200184600181111561182857611828612159565b81523360208083019190915260006040808401829052606084018290526080840182905260a0840182905260c084018b905260e0840187905261010090930189905284815260cf825291909120825181559082015160018083018054909160ff1991909116908360148111156118a0576118a0612159565b021790555060408201518160010160016101000a81548160ff021916908360018111156118cf576118cf612159565b021790555060608201516001820180546001600160a01b03928316620100000262010000600160b01b031990911617905560808301516002830180549183166001600160a01b031992831617905560a084015160038401805491841691831691909117905560c084015160048401805491841691831691909117905560e0840151600584018054919093169116179055610100820151805161197b91600684019160209091019061204e565b50610120820151805161199891600784019160209091019061204e565b5061014082015180516119b591600884019160209091019061204e565b505033600090815260d060209081526040822080546001810182559083529082200183905560d191508560148111156119f0576119f0612159565b6014811115611a0157611a01612159565b81526020808201929092526040016000908120805460018101825590825291902001555050505050565b611a33611aa1565b6001600160a01b038116611a985760405162461bcd60e51b815260206004820152602660248201527f4f776e61626c653a206e6577206f776e657220697320746865207a65726f206160448201526564647265737360d01b606482015260840161060c565b610b4f81611c73565b6033546001600160a01b031633146110965760405162461bcd60e51b815260206004820181905260248201527f4f776e61626c653a2063616c6c6572206973206e6f7420746865206f776e6572604482015260640161060c565b610b4f611aa1565b7f4910fdfa16fed3260ed0e7147f7cc6da11a60208b5b9406d12a635614ffd91435460ff1615611b3b57611b3683611d60565b505050565b826001600160a01b03166352d1902d6040518163ffffffff1660e01b8152600401602060405180830381865afa925050508015611b95575060408051601f3d908101601f19168201909252611b929181019061284c565b60015b611bf85760405162461bcd60e51b815260206004820152602e60248201527f45524331393637557067726164653a206e657720696d706c656d656e7461746960448201526d6f6e206973206e6f74205555505360901b606482015260840161060c565b6000805160206129228339815191528114611c675760405162461bcd60e51b815260206004820152602960248201527f45524331393637557067726164653a20756e737570706f727465642070726f786044820152681a58589b195555525160ba1b606482015260840161060c565b50611b36838383611dfc565b603380546001600160a01b038381166001600160a01b0319831681179093556040519116919082907f8be0079c531659141344cd1fd0a4f28419497f9722a3daafe3b4186f6b6457e090600090a35050565b600054610100900460ff16611cec5760405162461bcd60e51b815260040161060c9061287d565b611096611e21565b600054610100900460ff166110965760405162461bcd60e51b815260040161060c9061287d565b610c508282604051602401611d319291906128c8565b60408051601f198184030181529190526020810180516001600160e01b031663319af33360e01b179052611e51565b6001600160a01b0381163b611dcd5760405162461bcd60e51b815260206004820152602d60248201527f455243313936373a206e657720696d706c656d656e746174696f6e206973206e60448201526c1bdd08184818dbdb9d1c9858dd609a1b606482015260840161060c565b60008051602061292283398151915280546001600160a01b0319166001600160a01b0392909216919091179055565b611e0583611e72565b600082511180611e125750805b15611b36576114a78383611eb2565b600054610100900460ff16611e485760405162461bcd60e51b815260040161060c9061287d565b61109633611c73565b80516a636f6e736f6c652e6c6f67602083016000808483855afa5050505050565b611e7b81611d60565b6040516001600160a01b038216907fbc7cd75a20ee27fd9adebab32041f755214dbc6bffa90cc0225b39da2e5c2d3b90600090a250565b60606001600160a01b0383163b611f1a5760405162461bcd60e51b815260206004820152602660248201527f416464726573733a2064656c65676174652063616c6c20746f206e6f6e2d636f6044820152651b9d1c9858dd60d21b606482015260840161060c565b600080846001600160a01b031684604051611f3591906128f2565b600060405180830381855af49150503d8060008114611f70576040519150601f19603f3d011682016040523d82523d6000602084013e611f75565b606091505b5091509150611f9d828260405180606001604052806027815260200161294260279139611fa6565b95945050505050565b60608315611fb5575081611fbf565b611fbf8383611fc6565b9392505050565b815115611fd65781518083602001fd5b8060405162461bcd60e51b815260040161060c919061290e565b604080516101608101909152600080825260208201908152602001600081526000602082018190526040820181905260608083018290526080830182905260a083019190915260c0820181905260e082018190526101009091015290565b82805461205a90612748565b90600052602060002090601f01602090048101928261207c57600085556120c2565b82601f1061209557805160ff19168380011785556120c2565b828001600101855582156120c2579182015b828111156120c25782518255916020019190600101906120a7565b506120ce9291506120d2565b5090565b5b808211156120ce57600081556001016120d3565b80356001600160a01b03811681146120fe57600080fd5b919050565b6000806040838503121561211657600080fd5b82359150612126602084016120e7565b90509250929050565b8035601581106120fe57600080fd5b60006020828403121561215057600080fd5b611fbf8261212f565b634e487b7160e01b600052602160045260246000fd5b6015811061217f5761217f612159565b9052565b6002811061217f5761217f612159565b60005b838110156121ae578181015183820152602001612196565b838111156114a75750506000910152565b600081518084526121d7816020860160208601612193565b601f01601f19169290920160200192915050565b60006020808301818452808551808352604092508286019150828160051b87010184880160005b838110156122ff57603f198984030185528151610160815185528882015161223c8a87018261216f565b508782015161224d89870182612183565b506060828101516001600160a01b039081169187019190915260808084015182169087015260a08084015182169087015260c08084015182169087015260e08084015190911690860152610100808301518187018390526122b0838801826121bf565b9250505061012080830151868303828801526122cc83826121bf565b9250505061014080830151925085820381870152506122eb81836121bf565b968901969450505090860190600101612212565b509098975050505050505050565b600080600080600060a0868803121561232557600080fd5b61232e866120e7565b945061233c602087016120e7565b935061234a604087016120e7565b9250612358606087016120e7565b9150612366608087016120e7565b90509295509295909350565b60006020828403121561238457600080fd5b611fbf826120e7565b600080604083850312156123a057600080fd5b6123a98361212f565b946020939093013593505050565b634e487b7160e01b600052604160045260246000fd5b600067ffffffffffffffff808411156123e8576123e86123b7565b604051601f8501601f19908116603f01168101908282118183101715612410576124106123b7565b8160405280935085815286868601111561242957600080fd5b858560208301376000602087830101525050509392505050565b6000806040838503121561245657600080fd5b61245f836120e7565b9150602083013567ffffffffffffffff81111561247b57600080fd5b8301601f8101851361248c57600080fd5b61249b858235602084016123cd565b9150509250929050565b600082601f8301126124b657600080fd5b611fbf838335602085016123cd565b8035600281106120fe57600080fd5b600080600080600060a086880312156124ec57600080fd5b85359450602086013567ffffffffffffffff8082111561250b57600080fd5b61251789838a016124a5565b9550604088013591508082111561252d57600080fd5b61253989838a016124a5565b9450612547606089016124c5565b9350608088013591508082111561255d57600080fd5b5061256a888289016124a5565b9150509295509295909350565b60006020828403121561258957600080fd5b5035919050565b6000806000606084860312156125a557600080fd5b8335925060208401359150604084013563ffffffff811681146125c757600080fd5b809150509250925092565b600080604083850312156125e557600080fd5b6123a9836120e7565b60006101608d8352612603602084018e61216f565b612610604084018d612183565b6001600160a01b038b811660608501528a8116608085015289811660a085015288811660c0850152871660e08401526101008301819052612653818401876121bf565b905082810361012084015261266881866121bf565b905082810361014084015261267d81856121bf565b9e9d5050505050505050505050505050565b600080600080600060a086880312156126a757600080fd5b853567ffffffffffffffff808211156126bf57600080fd5b6126cb89838a016124a5565b965060208801359150808211156126e157600080fd5b6126ed89838a016124a5565b95506125396040890161212f565b60208082526019908201527f4e6f2041636365737320666f72207468697320616374696f6e00000000000000604082015260600190565b634e487b7160e01b600052603260045260246000fd5b600181811c9082168061275c57607f821691505b6020821081141561277d57634e487b7160e01b600052602260045260246000fd5b50919050565b634e487b7160e01b600052601160045260246000fd5b60006000198214156127ad576127ad612783565b5060010190565b6020808252602c908201527f46756e6374696f6e206d7573742062652063616c6c6564207468726f7567682060408201526b19195b1959d85d1958d85b1b60a21b606082015260800190565b6020808252602c908201527f46756e6374696f6e206d7573742062652063616c6c6564207468726f7567682060408201526b6163746976652070726f787960a01b606082015260800190565b60006020828403121561285e57600080fd5b5051919050565b6000821982111561287857612878612783565b500190565b6020808252602b908201527f496e697469616c697a61626c653a20636f6e7472616374206973206e6f74206960408201526a6e697469616c697a696e6760a81b606082015260800190565b6040815260006128db60408301856121bf565b905060018060a01b03831660208301529392505050565b60008251612904818460208701612193565b9190910192915050565b602081526000611fbf60208301846121bf56fe360894a13ba1a3210667c828492db98dca3e2076cc3735a920a3ca505d382bbc416464726573733a206c6f772d6c6576656c2064656c65676174652063616c6c206661696c6564a2646970667358221220888843243802f5f8d2a897e8961e1d89246434ebf19fa8c44f00877c144a3aed64736f6c634300080c0033",
  "linkReferences": {},
  "deployedLinkReferences": {}
}